{
	"data": {
		"bytecode": {
			"linkReferences": {},
			"object": "608060405234801561001057600080fd5b50600080546001600160a01b031916331790556152c4806100326000396000f3fe6080604052600436106102e45760003560e01c80638da5cb5b11610190578063d39de6e9116100dc578063e907f00311610095578063ef4ba6801161006f578063ef4ba680146108a5578063f252b7a1146108ba578063f2fde38b146108da578063ff691b11146108fa576102e4565b8063e907f0031461085d578063ecc128f21461087d578063ee99205c14610890576102e4565b8063d39de6e9146107c7578063e0822db7146107e9578063e0ee036e146107fe578063e1c7392a14610813578063e804d0a414610828578063e8eeb3f814610848576102e4565b8063b510879f11610149578063bb7ef7e011610123578063bb7ef7e014610752578063be111af414610772578063c18c914114610792578063d14dc231146107b2576102e4565b8063b510879f146106fd578063b652b41f1461071d578063b918161114610732576102e4565b80638da5cb5b1461065e5780639ad26744146106735780639c3ccc8214610693578063a26171e2146106b3578063a694fc3a146106c8578063b2baa33e146106e8576102e4565b806346b979591161024f5780635d91121d1161020857806370712939116101e257806370712939146105e757806376671808146106075780637fa140c71461061c578063816667961461063c576102e4565b80635d91121d1461058c5780635e615a6b146105ac57806363403801146105d2576102e4565b806346b97959146104a3578063494503d4146104d05780634bcc3f67146104fd578063540c2d531461052a578063587da0231461055757806358f6c7e31461056c576102e4565b806336d7dd8e116102a157806336d7dd8e146103c557806338229d93146103e55780633a832382146104165780633e4ad7321461043657806342f1181e1461046357806344a6958b14610483576102e4565b80630b9663db146102e95780631a67a0a0146103145780631e7ff8f6146103365780631f81eb80146103565780632a94c279146103765780632e17de78146103a5575b600080fd5b3480156102f557600080fd5b506102fe61091a565b60405161030b9190614f1f565b60405180910390f35b34801561032057600080fd5b5061033461032f366004614ce1565b610c44565b005b34801561034257600080fd5b506102fe610351366004614b5c565b610d80565b34801561036257600080fd5b50610334610371366004614b5c565b610e0d565b34801561038257600080fd5b50610396610391366004614d10565b610ea2565b60405161030b939291906150df565b3480156103b157600080fd5b506103346103c0366004614cc9565b610ece565b3480156103d157600080fd5b506103346103e0366004614b5c565b611045565b3480156103f157600080fd5b50610405610400366004614cc9565b6110cb565b60405161030b959493929190615110565b34801561042257600080fd5b50610334610431366004614ce1565b6110fa565b34801561044257600080fd5b50610456610451366004614cc9565b611164565b60405161030b91906150a6565b34801561046f57600080fd5b5061033461047e366004614b5c565b611183565b34801561048f57600080fd5b5061045661049e366004614bbf565b611197565b3480156104af57600080fd5b506104c36104be366004614cc9565b6111e9565b60405161030b9190615040565b3480156104dc57600080fd5b506104f06104eb366004614cc9565b611234565b60405161030b9190614e9a565b34801561050957600080fd5b5061051d610518366004614cc9565b61125e565b60405161030b9190615061565b34801561053657600080fd5b5061054a610545366004614b5c565b6112c7565b60405161030b9190614f14565b34801561056357600080fd5b506102fe6112dc565b34801561057857600080fd5b50610334610587366004614d6d565b6112e2565b34801561059857600080fd5b506103346105a7366004614d31565b6114b7565b3480156105b857600080fd5b506105c161154c565b60405161030b959493929190615133565b3480156105de57600080fd5b506102fe611575565b3480156105f357600080fd5b50610334610602366004614b5c565b61157b565b34801561061357600080fd5b506102fe611609565b34801561062857600080fd5b506102fe610637366004614b5c565b61160f565b34801561064857600080fd5b50610651611621565b60405161030b9190615177565b34801561066a57600080fd5b506104f061162d565b34801561067f57600080fd5b5061033461068e366004614c97565b61163c565b34801561069f57600080fd5b506103346106ae366004614e18565b61164e565b3480156106bf57600080fd5b506102fe6116bb565b3480156106d457600080fd5b506103346106e3366004614cc9565b6116c1565b3480156106f457600080fd5b506102fe6117af565b34801561070957600080fd5b50610334610718366004614cc9565b6117cd565b34801561072957600080fd5b506104f06117d7565b34801561073e57600080fd5b5061054a61074d366004614b5c565b6117ef565b34801561075e57600080fd5b506102fe61076d366004614cc9565b611804565b34801561077e57600080fd5b506102fe61078d366004614b5c565b611891565b34801561079e57600080fd5b506102fe6107ad366004614cc9565b611a60565b3480156107be57600080fd5b506102fe611a72565b3480156107d357600080fd5b506107dc611a78565b60405161030b9190614ec7565b3480156107f557600080fd5b506104f0611ada565b34801561080a57600080fd5b50610651611af2565b34801561081f57600080fd5b50610334611afe565b34801561083457600080fd5b50610456610843366004614d53565b611b18565b34801561085457600080fd5b50610651611c46565b34801561086957600080fd5b506102fe610878366004614ce1565b611c5a565b61033461088b366004614c97565b611cf9565b34801561089c57600080fd5b506104f0611e44565b3480156108b157600080fd5b506104f0611e53565b3480156108c657600080fd5b506104566108d5366004614b94565b611e6b565b3480156108e657600080fd5b506103346108f5366004614b5c565b611e9f565b34801561090657600080fd5b50610334610915366004614cc9565b611f10565b600b546000908161092c82600161211f565b600081815260156020526040902060010154909150801561095957610959610954838361213e565b612183565b6001831115610b3f5761096a611e53565b6001600160a01b031663075461726040518163ffffffff1660e01b815260040160206040518083038186803b1580156109a257600080fd5b505afa1580156109b6573d6000803e3d6000fd5b505050506040513d601f19601f820116820180604052508101906109da9190614b78565b6001600160a01b031663c551a2f96040518163ffffffff1660e01b8152600401602060405180830381600087803b158015610a1457600080fd5b505af1925050508015610a44575060408051601f3d908101601f19168201909252610a4191810190614daa565b60015b610b0657610a506151d5565b80610a5b5750610a98565b7f1fc94326c4f979e0a19555aef364d7490acf6840560fc01c723e320d6f2d96c181604051610a8a9190614f4d565b60405180910390a150610b01565b3d808015610ac2576040519150601f19603f3d011682016040523d82523d6000602084013e610ac7565b606091505b507f349211c9e282ed467b636a7fe2ccdd287a3f7c67969d4e5fd2ee539df22ed61381604051610af79190614f4d565b60405180910390a1505b610b3f565b7f02781ecbb97cbe2fbf6a9b934f9aa6422aca2d528ad53fbfb31f70bc47bcfa5b81604051610b359190614f1f565b60405180910390a1505b610b4761218b565b600084815260156020526040902055610b5e614a00565b50600083815260156020908152604091829020825160a08101845281548082526001830154938201849052600283015482860181905260038401546060840181905260049094015460808401529451919488947fbb4a26fa0ace13ee4da343896c20eaa44a618fb9071fdd8c2e2c960a4583189d94610be094919392916150f5565b60405180910390a2610bf0612216565b6020810151610c3757805160405185917fb463d19ecf455be65365092cf8e1db6934a0334cf8cd532ddf9964d01f36b5b291610c2e91600091614f60565b60405180910390a25b6020015193505050505b90565b600080610c4f6117d7565b60405163309dfc6b60e21b81526001600160a01b03919091169063c277f1ac90610c7d908790600401614f1f565b60006040518083038186803b158015610c9557600080fd5b505afa158015610ca9573d6000803e3d6000fd5b505050506040513d6000823e601f3d908101601f19168201604052610cd19190810190614bf3565b50509350505091506000811415610d035760405162461bcd60e51b8152600401610cfa90614f6e565b60405180910390fd5b826001600160a01b0316826001600160a01b031614610d345760405162461bcd60e51b8152600401610cfa90614fa5565b6001600160a01b038083166000908152600860205260408082208790555186928616917fe8b9f7ee7a4480d45b60e98f7b2090dd82e2353b8557a6ee2dd2d5ee9196bac291a350505050565b6000610d8a611ada565b6001600160a01b03166370a08231836040518263ffffffff1660e01b8152600401610db59190614e9a565b60206040518083038186803b158015610dcd57600080fd5b505afa158015610de1573d6000803e3d6000fd5b505050506040513d601f19601f82011682018060405250810190610e059190614daa565b90505b919050565b610e15612253565b6001600160a01b0381166000908152600f602052604090205460ff1615610e4457610e44610954600083612276565b6001600160a01b0381166000908152600f602052604090819020805460ff19166001179055517f5738ee3c8e8fe8b0b9c4c21b16fdca42ec02e271237dfeabbf3b5af1584d732b90610e97908390614e9a565b60405180910390a150565b601460209081526000928352604080842090915290825290208054600182015460029092015490919083565b33610ed7614a2f565b6001600160a01b03821660009081527f05b8ccbb9d4d8fb16ea74ce3c29a41f1b461fbdaff4714a0d9a8eb05499746bc60205260409020610f17906122e4565b90506000610f3f82602001516001600160601b031683604001516001600160601b0316612368565b905080841115610f5657610f56610954858361237e565b6001600160a01b03831660009081527f05b8ccbb9d4d8fb16ea74ce3c29a41f1b461fbdaff4714a0d9a8eb05499746bc60205260409020610f9790856123c3565b610f9f611ada565b6001600160a01b0316639470b0bd84866040518363ffffffff1660e01b8152600401610fcc929190614eae565b600060405180830381600087803b158015610fe657600080fd5b505af1158015610ffa573d6000803e3d6000fd5b50505050826001600160a01b03167f85082129d87b2fe11527cb1b3b7a520aeb5aa6913f88a3d8757fe40d1db02fdd856040516110379190614f1f565b60405180910390a250505050565b61104d612253565b6001600160a01b0381166000908152600f602052604090205460ff1661107b5761107b610954600183612276565b6001600160a01b0381166000908152600f602052604090819020805460ff19169055517f9bf55462cb5fa187f725d06de0a70bc01c4e40695570bdc25ad116f9be46bda790610e97908390614e9a565b601560205260009081526040902080546001820154600283015460038401546004909401549293919290919085565b8161110481612435565b60008381526009602052604090206001600160a01b0383161580611137575060018101546001600160a01b038481169116145b15611142575061115f565b60010180546001600160a01b0319166001600160a01b0384161790555b505050565b61116c614a2f565b6000828152600760205260409020610e05906122e4565b61118b612461565b6111948161248e565b50565b61119f614a2f565b6111e0600560008460018111156111b257fe5b60ff168152602080820192909252604090810160009081206001600160a01b038816825290925290206122e4565b90505b92915050565b6111f1614a4f565b506000908152601460209081526040808320600b548452825291829020825160608101845281548152600182015492810192909252600201549181019190915290565b6002818154811061124457600080fd5b6000918252602090912001546001600160a01b0316905081565b611266614a70565b50600090815260096020908152604091829020825160808101845281546001600160a01b0390811682526001909201549182169281019290925263ffffffff600160a01b8204811693830193909352600160c01b9004909116606082015290565b600f6020526000908152604090205460ff1681565b600c5481565b33816112ee575061115f565b60006112fd6020860186614d53565b600181111561130857fe5b14801561132c5750600061131f6020850185614d53565b600181111561132a57fe5b145b15611337575061115f565b60016113466020860186614d53565b600181111561135157fe5b14156113665761136684602001358284612562565b60016113756020850185614d53565b600181111561138057fe5b141561139557611395836020013582846125ee565b60006005816113a76020880188614d53565b60018111156113b257fe5b60ff168152602080820192909252604090810160009081206001600160a01b0386168252835290812092509060059082906113ef90880188614d53565b60018111156113fa57fe5b60ff168152602080820192909252604090810160009081206001600160a01b03871682529092529020905061143082828661267a565b6020808601359087018035906001600160a01b038616907f7d3ad1dcf03b9027064d1d9a474a69e0cecc31324c541d3eb9b5e6fa2f106c8d908890611475908c614d53565b600181111561148057fe5b61148d60208c018c614d53565b600181111561149857fe5b6040516114a79392919061515e565b60405180910390a4505050505050565b816114c181612435565b600083815260096020526040902060010154600160a01b900463ffffffff166114eb84828561274e565b60008481526009602052604090819020600101805463ffffffff60a01b1916600160a01b63ffffffff8716021790555184907f8ea2a7a959bd25f226b7b0a4393613f7fdcaa8404e8bad96aa52dc1c14590167906110379084908790615188565b601054601154601254601354929363ffffffff9283169391928281169264010000000090041690565b60105481565b611583612461565b6001600160a01b03811660009081526001602052604090205460ff166115af576115af61095482612796565b60005b60025481101561160557816001600160a01b0316600282815481106115d357fe5b6000918252602090912001546001600160a01b031614156115fd576115f882826127de565b611605565b6001016115b2565b5050565b600b5481565b60086020526000908152604090205481565b60135463ffffffff1681565b6000546001600160a01b031681565b611644612461565b61160582826127de565b611656612253565b6116638585858585612972565b306001600160a01b031663c6f3a4276040518163ffffffff1660e01b815260040160006040518083038186803b15801561169c57600080fd5b505afa1580156116b0573d6000803e3d6000fd5b505050505050505050565b60125481565b336116ca611ada565b6001600160a01b03166315cc36f282846040518363ffffffff1660e01b81526004016116f7929190614eae565b600060405180830381600087803b15801561171157600080fd5b505af1158015611725573d6000803e3d6000fd5b505050506001600160a01b03811660009081527f05b8ccbb9d4d8fb16ea74ce3c29a41f1b461fbdaff4714a0d9a8eb05499746bc6020526040902061176a9083612a03565b806001600160a01b03167febedb8b3c678666e7f36970bc8f57abf6d8fa2e828c0da91ea5b75bf68ed101a836040516117a39190614f1f565b60405180910390a25050565b60006117c8601054600c54612a5990919063ffffffff16565b905090565b6111948133612a75565b73de6445484a8dcd9bf35fc95eb4e3990cc358822e90565b60016020526000908152604090205460ff1681565b600061180e614a70565b506000828152600960209081526040808320815160808101835281546001600160a01b0390811682526001909201549182169381019390935263ffffffff600160a01b8204811692840192909252600160c01b9004166060820152908061187485612be3565b9150915061188783604001518383612ca0565b5095945050505050565b600080600061189e6117d7565b6001600160a01b031663b72e717d856040518263ffffffff1660e01b81526004016118c99190614e9a565b60006040518083038186803b1580156118e157600080fd5b505afa1580156118f5573d6000803e3d6000fd5b505050506040513d6000823e601f3d908101601f1916820160405261191d9190810190614dc2565b509450505050915060008214156119465760405162461bcd60e51b8152600401610cfa90614fdc565b8033620aae60620186a061195986612cdb565b8560001b9650611967614a70565b50604080516080810182526001600160a01b038087168252858116602080840191825263ffffffff8088168587019081528782166060870190815260008f8152600990945292879020865181549087166001600160a01b0319918216178255945160019091018054925194518416600160c01b0263ffffffff60c01b1995909416600160a01b0263ffffffff60a01b1992909716929095169190911716939093171691909117905590517fcec6fc86ea644053f6edff1160dfe3fa5c61e7a5ef9f873f145bb03a0bd319e790611a42908a9088908790614f28565b60405180910390a1611a54888a610c44565b50505050505050919050565b600a6020526000908152604090205481565b60165481565b60606002805480602002602001604051908101604052809291908181526020018280548015611ad057602002820191906000526020600020905b81546001600160a01b03168152600190910190602001808311611ab2575b5050505050905090565b730a33744ee5d57d6d69944213d8e6ad80d64fdc5890565b60115463ffffffff1681565b611b06612253565b611b0e612d06565b611b16612d19565b565b611b20614a2f565b60016000526004602052611b537fabd6e7cb50984ff9c2f3e18a2660c3353dadf4e3291deeb275dae2cd1e44fe056122e4565b90506000826001811115611b6357fe5b1415610e08576000611b73611ada565b6001600160a01b0316636b6df5aa6040518163ffffffff1660e01b815260040160206040518083038186803b158015611bab57600080fd5b505afa158015611bbf573d6000803e3d6000fd5b505050506040513d601f19601f82011682018060405250810190611be39190614daa565b9050611c0d611c0883602001516001600160601b03168361211f90919063ffffffff16565b612d44565b6001600160601b0390811660208401526040830151611c3291611c089184911661211f565b6001600160601b0316604083015250919050565b601354640100000000900463ffffffff1681565b6000611c64614a70565b506000838152600960209081526040808320815160808101835281546001600160a01b0390811682526001909201549182169381019390935263ffffffff600160a01b8204811692840192909252600160c01b90041660608201529080611cca86612be3565b915091506000611cdf84604001518484612ca0565b915050611cee87878385612d63565b979650505050505050565b336000908152600f602052604090205460ff16611d1c57611d1c61095433612e6f565b6001600160a01b03821660009081526008602052604090205480611d405750611605565b6000611d4b82611164565b602001516001600160601b03169050601254811015611d6b575050611605565b600b54600083815260146020908152604080832084845282528083206015909252909120815480611e0e57600080611da38888612eb7565b600287018290556001870181905560038601549193509150611dc59082612a59565b6003850155600180850154611dd991612a59565b6001850155604051889087907f14b098103235344975b17508c2391721cc9ac3f3fa2b56c7ff46f8480dfd074f90600090a350505b80871115611e3a578683556002820154611e34908290611e2e908a612a59565b9061211f565b60028301555b5050505050505050565b6003546001600160a01b031681565b734fbb350052bca5417566f188eb2ebce5b19bc96490565b611e73614a2f565b6001600160a01b038316600090815260066020908152604080832085845290915290206111e0906122e4565b611ea7612461565b6001600160a01b038116611ec557611ec0610954612f25565b611194565b600080546001600160a01b0319166001600160a01b0383169081178255604051909133917f8be0079c531659141344cd1fd0a4f28419497f9722a3daafe3b4186f6b6457e09190a350565b600b546000611f2082600161211f565b9050611f2a614a00565b50600081815260156020908152604091829020825160a08101845281548152600182015492810183905260028201549381019390935260038101546060840152600401546080830152611f7f57505050611194565b611f87614a4f565b5060008481526014602090815260408083208584528252918290208251606081018452815480825260018301549382019390935260029091015492810192909252611fd55750505050611194565b60008581526014602090815260408083208684529091528120818155600181018290556002018190556120088284612f43565b905060008061201c88848660400151612fb2565b9150915087877ff1116b309178aa62dcb6bf8c3b8bc2321724907c7ebf52192d14c8ce3aa9194c8484604051612053929190614f60565b60405180910390a360006120678383612a59565b60808701519091506120799082612a59565b608087018190526000888152601560209081526040909120600401919091558601516120a690600161211f565b602080880182815260008a81526015909252604090912060010191909155516116b0576080860151865188917fb463d19ecf455be65365092cf8e1db6934a0334cf8cd532ddf9964d01f36b5b2916120fe908261211f565b60405161210c929190614f60565b60405180910390a2505050505050505050565b6000828211156121385761213861095460028585613266565b50900390565b604080516024810184905260448082018490528251808303909101815260649091019091526020810180516001600160e01b03166330a5c00560e11b17905292915050565b805160208201fd5b60006117c860165461219b611e53565b6001600160a01b03166370a08231306040518263ffffffff1660e01b81526004016121c69190614e9a565b60206040518083038186803b1580156121de57600080fd5b505afa1580156121f2573d6000803e3d6000fd5b505050506040513d601f19601f82011682018060405250810190611e2e9190614daa565b4260006122216117af565b9050818111156122385761223861095482846132d8565b600b54600090612249906001612a59565b600b555050600c55565b3360009081526001602052604090205460ff16611b1657611b166109543361331d565b606063b9588e4360e01b83836040516024018083600181111561229557fe5b81526001600160a01b0390921660208084019190915260408051808503830181529381019052820180516001600160e01b03166001600160e01b03199095169490941790935295945050505050565b6122ec614a2f565b506040805160608101825282546001600160401b0381168083526001600160601b03600160401b830481166020850152600160a01b90920490911692820192909252600b5490918111156123625761234381613365565b6001600160401b0316825260408201516001600160601b031660208301525b50919050565b600081831061237757816111e0565b5090919050565b604080516024810184905260448082018490528251808303909101815260649091019091526020810180516001600160e01b03166384c8b7c960e01b17905292915050565b6123cb614a2f565b6123d4836122e4565b90506123f9611c088383604001516001600160601b031661211f90919063ffffffff16565b6001600160601b039081166040830152602082015161241d91611c0891168461211f565b6001600160601b0316602082015261115f8382613384565b6000818152600960205260409020546001600160a01b03163381146116055761160561095433846133ee565b6000546001600160a01b03163314611b1657600054611b16906109549033906001600160a01b031661343b565b6001600160a01b0381166124a7576124a761095461348c565b6001600160a01b03811660009081526001602052604090205460ff16156124d4576124d4610954826134aa565b6001600160a01b0381166000818152600160208190526040808320805460ff19168317905560028054928301815583527f405787fa12a823e0f2b7631cc41b3ba8828b3321ca811111fa75cd3aa3bb5ace90910180546001600160a01b03191684179055513392917f3147867c59d17e8fa9d522465651d44aae0a9e38f902f3475b97e58072f0ed4c91a350565b61256b836134f2565b6125758383612a75565b6001600160a01b038216600090815260066020908152604080832086845290915290206125a2908261351c565b60008381526007602052604090206125ba908261351c565b6001600052600460205261115f7fabd6e7cb50984ff9c2f3e18a2660c3353dadf4e3291deeb275dae2cd1e44fe058261351c565b6125f7836134f2565b6126018383612a75565b6001600160a01b0382166000908152600660209081526040808320868452909152902061262e908261356a565b6000838152600760205260409020612646908261356a565b6001600052600460205261115f7fabd6e7cb50984ff9c2f3e18a2660c3353dadf4e3291deeb275dae2cd1e44fe058261356a565b61268483836135a0565b1561268e5761115f565b612696614a2f565b61269f846122e4565b90506126a9614a2f565b6126b2846122e4565b905081604001516001600160601b03168311156126e3576126e36109548484604001516001600160601b031661237e565b60408201516126ff90611c08906001600160601b03168561211f565b6001600160601b0390811660408085019190915282015161272591611c08911685612a59565b6001600160601b0316604082015261273d8583613384565b6127478482613384565b5050505050565b620f424063ffffffff821611156127735761276e610954600085846135a7565b61115f565b8163ffffffff168163ffffffff16111561115f5761115f610954600185846135a7565b604080516001600160a01b0383166024808301919091528251808303909101815260449091019091526020810180516001600160e01b03166375a8845160e11b179052919050565b6001600160a01b03821660009081526001602052604090205460ff1661280a5761280a61095483612796565b6002548110612825576128256109548260028054905061361f565b816001600160a01b03166002828154811061283c57fe5b6000918252602090912001546001600160a01b031614612884576128846109546002838154811061286957fe5b6000918252602090912001546001600160a01b031684613664565b6001600160a01b0382166000908152600160205260409020805460ff191690556002805460001981019081106128b657fe5b600091825260209091200154600280546001600160a01b0390921691839081106128dc57fe5b9060005260206000200160006101000a8154816001600160a01b0302191690836001600160a01b03160217905550600280548061291557fe5b600082815260208120820160001990810180546001600160a01b031916905590910190915560405133916001600160a01b038516917f1f32c1b084e2de0713b8fb16bd46bb9df710a3dbeae2f3ca93af46e016dcc6b09190a35050565b60108590556011805463ffffffff80871663ffffffff19928316179092556012859055601380548484166401000000000267ffffffff00000000199487169190931617929092161790556040517f613157dbb0e920deab8ad6ddd3805e87cbf57344b9fe780f1764790ec7897542906129f49087908790879087908790615133565b60405180910390a15050505050565b612a0b614a2f565b612a14836122e4565b9050612a39611c088383604001516001600160601b0316612a5990919063ffffffff16565b6001600160601b039081166040830152602082015161241d91611c089116845b6000828201838110156111e0576111e061095460008686613266565b612a7e826136b5565b6000612a8d8383600080612d63565b6001600160a01b03831660009081526006602090815260408083208784529091529020909150612abc906122e4565b6001600160a01b0383811660009081526006602090815260408083208884528252918290208451815492860151959093015167ffffffffffffffff199092166001600160401b03909316929092176bffffffffffffffffffffffff60401b1916600160401b6001600160601b039586160217909216600160a01b93909216929092021790558015612bda57612b518382613723565b612b59611e53565b6001600160a01b031663a9059cbb83836040518363ffffffff1660e01b8152600401612b86929190614eae565b602060405180830381600087803b158015612ba057600080fd5b505af1158015612bb4573d6000803e3d6000fd5b505050506040513d601f19601f82011682018060405250810190612bd89190614ca9565b505b61115f8361375f565b6000806000612bfe6001600b5461211f90919063ffffffff16565b9050612c08614a4f565b50600084815260146020908152604080832084845282528083208151606080820184528254825260018084015483870152600293840154838601528787526015865295849020845160a0810186528154815296810154958701959095529184015492850192909252600383015490840152600490910154608083015290612c90908290612f43565b9350806040015192505050915091565b60008082612cb057839150612cd3565b612cc463ffffffff8616620f42408661376c565b9150612cd0848361211f565b90505b935093915050565b6000818152600960205260409020546001600160a01b03161561119457611194610954826000613790565b612d0e6137d6565b42600c556001600b55565b612d216137eb565b62127500620dbba068056bc75e2d63100000600260036127478585858585612972565b806001600160601b0381168114610e0857610e08610954600284613850565b600b54600090612d71614a2f565b506001600160a01b0385166000908152600660209081526040808320898452825291829020825160608101845290546001600160401b0381168083526001600160601b03600160401b8304811694840194909452600160a01b90910490921692810192909252821415612de957600092505050612e67565b612df5818387876138b5565b8151909350600090612e11906001600160401b03166001612a59565b9050612e43612e3c8984602001516001600160601b031685600001516001600160401b03168561392c565b8590612a59565b9350612e61612e3c8984604001516001600160601b0316848761392c565b93505050505b949350505050565b604080516001600160a01b0383166024808301919091528251808303909101815260449091019091526020810180516001600160e01b03166330f65c0160e11b179052919050565b60008281526009602052604081205481908190612edd906001600160a01b031686611e6b565b602001516001600160601b03169050612ef6848261211f565b601154909350612f1b90612f149063ffffffff16620f4240866139ab565b8290612a59565b9150509250929050565b604080518082019091526004815263734f6e1f60e11b602082015290565b8151600090612f51576111e3565b81518351604084015160208601516060860151601354612f8795949392919063ffffffff808216916401000000009004166139bb565b60808301518351919250600091612f9d9161211f565b905081811015612fab578091505b5092915050565b600080612fbd614a70565b50600085815260096020908152604091829020825160808101845281546001600160a01b0390811682526001909201549182169281019290925263ffffffff600160a01b82048116938301849052600160c01b90910416606082015290613025908686612ca0565b909350915082156132425780602001516001600160a01b031681600001516001600160a01b031614156130e25761305a611e53565b815160405163a9059cbb60e01b81526001600160a01b03929092169163a9059cbb9161308a918790600401614eae565b602060405180830381600087803b1580156130a457600080fd5b505af11580156130b8573d6000803e3d6000fd5b505050506040513d601f19601f820116820180604052508101906130dc9190614ca9565b50613242565b6000613114620f424063ffffffff1661310e846060015163ffffffff1687613a7d90919063ffffffff16565b90613aae565b905061311e611e53565b6001600160a01b031663a9059cbb8360200151836040518363ffffffff1660e01b815260040161314f929190614eae565b602060405180830381600087803b15801561316957600080fd5b505af115801561317d573d6000803e3d6000fd5b505050506040513d601f19601f820116820180604052508101906131a19190614ca9565b506131aa611e53565b6001600160a01b031663a9059cbb83600001516131d0848861211f90919063ffffffff16565b6040518363ffffffff1660e01b81526004016131ed929190614eae565b602060405180830381600087803b15801561320757600080fd5b505af115801561321b573d6000803e3d6000fd5b505050506040513d601f19601f8201168201806040525081019061323f9190614ca9565b50505b811561325d576132528683613ad8565b61325d868386613b0d565b50935093915050565b606063e946c1bb60e01b8484846040516024018084600381111561328657fe5b81526020018381526020018281526020019350505050604051602081830303815290604052906001600160e01b0319166020820180516001600160e01b03838183161783525050505090509392505050565b604080516024810184905260448082018490528251808303909101815260649091019091526020810180516001600160e01b031663a6bcde4760e01b17905292915050565b604080516001600160a01b0383166024808301919091528251808303909101815260449091019091526020810180516001600160e01b031663b65a25b960e01b179052919050565b806001600160401b0381168114610e0857610e08610954600184613850565b8051825460408301516020909301516001600160601b03908116600160401b026bffffffffffffffffffffffff60401b1991909416600160a01b026001600160a01b036001600160401b0390941667ffffffffffffffff1990931692909217929092161716179055565b604080516001600160a01b038416602482015260448082018490528251808303909101815260649091019091526020810180516001600160e01b03166382ded78560e01b17905292915050565b604080516001600160a01b03808516602483015283166044808301919091528251808303909101815260649091019091526020810180516001600160e01b0316631de45ad160e01b17905292915050565b60408051808201909152600481526315d953f960e21b602082015290565b604080516001600160a01b0383166024808301919091528251808303909101815260449091019091526020810180516001600160e01b03166306f0b78d60e51b179052919050565b6000818152600960205260409020546001600160a01b031661119457611194610954826000613790565b613524614a2f565b61352d836122e4565b9050613552611c088383604001516001600160601b031661211f90919063ffffffff16565b6001600160601b0316604082015261115f8382613384565b613572614a2f565b61357b836122e4565b9050613552611c088383604001516001600160601b0316612a5990919063ffffffff16565b1460011690565b60606322df959760e01b848484604051602401808460018111156135c757fe5b81526020018381526020018263ffffffff1681526020019350505050604051602081830303815290604052906001600160e01b0319166020820180516001600160e01b03838183161783525050505090509392505050565b604080516024810184905260448082018490528251808303909101815260649091019091526020810180516001600160e01b031663e9f8377160e01b17905292915050565b604080516001600160a01b03808516602483015283166044808301919091528251808303909101815260649091019091526020810180516001600160e01b031663140a84db60e01b17905292915050565b600b546000906136c690600161211f565b90506136d0614a4f565b50600082815260146020908152604080832084845282529182902082516060810184528154808252600183015493820193909352600290910154928101929092521561115f5761115f6109548484613bf6565b6000828152600a602052604090205461373c908261211f565b6000838152600a6020526040902055601654613758908261211f565b6016555050565b6111948160006001613b0d565b6000612e678361310e61378082600161211f565b61378a8887613a7d565b90612a59565b60408051602481019390935290151560448084019190915281518084039091018152606490920190526020810180516001600160e01b0316639ae94f0160e01b17905290565b600c5415611b1657611b166109546000613c3b565b60105415801590613803575060115463ffffffff1615155b8015613810575060125415155b8015613823575060135463ffffffff1615155b801561383e5750601354640100000000900463ffffffff1615155b15611b1657611b166109546001613c3b565b606063c996af7b60e01b83836040516024018083600281111561386f57fe5b81526020808201939093526040805180830385018152918101905291820180516001600160e01b03166001600160e01b0319909516949094179093529250505092915050565b60008215806138c2575081155b156138cf57506000612e67565b60006138dc85600161211f565b86516001600160401b031610156138f75785604001516138fd565b85602001515b6001600160601b0316905080613917576000915050612e67565b6139228484836139ab565b9695505050505050565b600083158061393a57508183145b1561394757506000612e67565b8183106139665760405162461bcd60e51b8152600401610cfa90615013565b61396e614a97565b6139788685613c9e565b9050613982614a97565b61398c8785613c9e565b9050611cee81600001518260200151846000015185602001518a613db5565b6000612e678361310e8685613a7d565b6000806139c88888613e23565b905060006139d68787613e23565b90508115806139e3575080155b156139f357600092505050611cee565b600081831315613a0c57613a078284613e69565b613a16565b613a168383613e69565b9050613a3f613a3a613a2783613e7c565b8863ffffffff168863ffffffff166142d1565b6142e0565b905081831315613a5857613a538282613e69565b613a62565b613a628282614746565b9050613a6e818c614766565b9b9a5050505050505050505050565b600082613a8c575060006111e3565b82820282848281613a9957fe5b04146111e0576111e061095460018686613266565b600081613ac457613ac461095460038585613266565b6000828481613acf57fe5b04949350505050565b6000828152600a6020526040902054613af19082612a59565b6000838152600a60205260409020556016546137589082612a59565b6000838152600e6020526040902054600b5480821415613b2e57505061115f565b613b36614a97565b506000858152600d602090815260408083208584528252918290208251808401909352805483526001015490820152613b6d614a97565b613b76826147a8565b15613baf57613b8f8260000151836020015188886147b1565b60208301819052818352613ba39190614801565b60208301528152613bba565b602081018590528581525b6000878152600d6020908152604080832086845282528083208451815593820151600190940193909355978152600e9097529095205550505050565b604080516024810184905260448082018490528251808303909101815260649091019091526020810180516001600160e01b0316635caa0b0560e01b17905292915050565b6060630b02d77360e01b826001811115613c5157fe5b604051602401808260ff168152602001915050604051602081830303815290604052906001600160e01b0319166020820180516001600160e01b0383818316178352505050509050919050565b613ca6614a97565b506000828152600d602090815260408083208484528252918290208251808401909352805483526001015490820152613cde816147a8565b15613ce8576111e3565b6000613cf583600161211f565b6000858152600d60209081526040808320848452825291829020825180840190935280548352600101549082015292509050613d30826147a8565b15613d3b57506111e3565b6000848152600e602052604090205483811015613d97576000858152600d6020908152604080832084845282529182902082518084019093528054835260010154908201529250613d8b836147a8565b15613d975750506111e3565b50506040805180820190915260008152600160208201529392505050565b600081613dc457506000613e1a565b83613dde57613dd78561310e8489613a7d565b9050613e1a565b6000613df7613ded8688613a7d565b611e2e8987613a7d565b90506000613e058286613aae565b9050613e158761310e8684613a7d565b925050505b95945050505050565b600080831215613e3b57613e3b61095460018561481e565b6000821215613e5257613e5261095460018461481e565b6111e0613e63846001607f1b614885565b836148d8565b60006111e0613e63846001607f1b614885565b60006001607f1b821315613e9857613e9861095460018461491f565b60008213613eae57613eae61095460008461491f565b6001607f1b821415613ec257506000610e08565b640733048c5a8213613ede575060016101ff607c1b0319610e08565b60008060006a01c8464f761647600000008513613f2357700fffffffffffffffffffffffffffffffff19909301926a01c8464f761647600000006001607f1b86020594505b6cf1aaddd7742e900000000000008513613f67577007ffffffffffffffffffffffffffffffff19909301926cf1aaddd7742e900000000000006001607f1b86020594505b6615fc21041027af603f1b8513613fa5577003ffffffffffffffffffffffffffffffff19909301926615fc21041027af603f1b6001607f1b86020594505b660960aadc109e7b60461b8513613fe3577001ffffffffffffffffffffffffffffffff1990930192660960aadc109e7b60461b6001607f1b86020594505b660454aaa8efe073604a1b8513614020576fffffffffffffffffffffffffffffffff1990930192660454aaa8efe073604a1b6001607f1b86020594505b6602f16ac6c59de7604c1b85136140545760016001607f1b0319909301926602f16ac6c59de7604c1b6001607f1b86020594505b6609b4597e37cb05604b1b8513614091576f3fffffffffffffffffffffffffffffff19909301926609b4597e37cb05604b1b6001607f1b86020594505b6618ebef9eac820b604a1b85136140ce576f1fffffffffffffffffffffffffffffff19909301926618ebef9eac820b604a1b6001607f1b86020594505b6f70f5a893b608861e1f58934f97aea57d8513614117576f0fffffffffffffffffffffffffffffff19909301926f70f5a893b608861e1f58934f97aea57d6001607f1b86020594505b60016001607f1b0319850192508291506001607f1b828002059050600160801b838103830205840193506001607f1b8183028161415057fe5b059150600160811b836faaaaaaaaaaaaaaaaaaaaaaaaaaaaaaaa0383028161417457fe5b05840193506001607f1b8183028161418857fe5b059150600360801b836f99999999999999999999999999999999038302816141ac57fe5b05840193506001607f1b818302816141c057fe5b059150600160821b836f92492492492492492492492492492492038302816141e457fe5b05840193506001607f1b818302816141f857fe5b059150600560801b836f8e38e38e38e38e38e38e38e38e38e38e0383028161421c57fe5b05840193506001607f1b8183028161423057fe5b059150600360811b836f8ba2e8ba2e8ba2e8ba2e8ba2e8ba2e8b0383028161425457fe5b05840193506001607f1b8183028161426857fe5b059150600760801b836f89d89d89d89d89d89d89d89d89d89d890383028161428c57fe5b05840193506001607f1b818302816142a057fe5b059150600160831b836f88888888888888888888888888888888038302816142c457fe5b0584019350505050919050565b6000612e67613e638585614885565b600060016101ff607c1b03198212156142fb57506000610e08565b8161430b57506001607f1b610e08565b60008213156143225761432261095460018461491f565b6001607f1b6001607c1b83078080028290056710e1b3be415a0000810293909301929091818302059050806705a0913f6b1e000002830192506001607f1b8282028161436a57fe5b05905080670168244fdac7800002830192506001607f1b8282028161438b57fe5b05905080664807432bc1800002830192506001607f1b828202816143ab57fe5b05905080660c0135dca0400002830192506001607f1b828202816143cb57fe5b059050806601b707b1cdc00002830192506001607f1b828202816143eb57fe5b059050806536e0f639b80002830192506001607f1b8282028161440a57fe5b05905080650618fee9f80002830192506001607f1b8282028161442957fe5b05905080649c197dcc0002830192506001607f1b8282028161444757fe5b05905080640e30dce40002830192506001607f1b8282028161446557fe5b0590508064012ebd130002830192506001607f1b8282028161448357fe5b059050806317499f0002830192506001607f1b828202816144a057fe5b059050806301a9d48002830192506001607f1b828202816144bd57fe5b05905080621c638002830192506001607f1b828202816144d957fe5b059050806201c63802830192506001607f1b828202816144f557fe5b05905080611ab802830192506001607f1b8282028161451057fe5b0590508061017c02830192506001607f1b8282028161452b57fe5b05905080601402830192506001607f1b8282028161454557fe5b600095909503946721c3677c82b400009190059384010582016001607f1b01929050600160841b84161561459b577243cbaf42a000812488fc5c220ad7b97bf6e99e6cf1aaddd7742e56d32fb9f9974484020592505b600160831b8416156145d0577105d27a9f51c31b7c2f8038212a05747799916e0afe10820813d65dfe6a33c07f738f84020592505b600160821b84161561460557701b4c902e273a58678d6d3bfdb93db96d026f02582ab704279e8efd15e0265855c47a84020592505b600160811b84161561463a577003b1cc971a9bb5b9867477440d6d1577506f1152aaa3bf81cb9fdb76eae12d02957184020592505b600160801b84161561466f5770015bf0a8b1457695355fb8ac404e7a79e36f2f16ac6c59de6f8d5d6f63c1482a7c8684020592505b6001607f1b8416156146a3576fd3094c70f034de4b96ff7d5b6f99fcd86f4da2cbf1be5827f9eb3ad1aa9866ebb384020592505b6001607e1b8416156146d7576fa45af1e1f40c333b3de1db4dd55f29a76f63afbe7ab2082ba1a0ae5e4eb1b479dc84020592505b6001607d1b84161561470b576f910b022db7ae67ce76b441c27035c6a16f70f5a893b608861e1f58934f97aea57d84020592505b6001607c1b84161561473f576f88415abbe9a76bead8d00cf112e4d4a86f783eafef1c0a8f3978c7f81824d62ebf84020592505b5050919050565b60006001607f1b6147578484614885565b8161475e57fe5b059392505050565b60008082121561477e5761477e61095460018461481e565b600061478a8484614885565b90506000811361479e5760009150506111e3565b607f1c9392505050565b60200151151590565b600080856147c35750829050816147f8565b836147d25750849050836147f8565b6147e96147df8587613a7d565b61378a8886613a7d565b91506147f58584613a7d565b90505b94509492505050565b60008061481384846001607f1b614935565b915091509250929050565b606063bd79545f60e01b83600181111561483457fe5b6040805160ff9092166024830152604480830186905281518084039091018152606490920190526020810180516001600160e01b03166001600160e01b031990931692909217909152905092915050565b6000821580614892575081155b1561489f575060006111e3565b50818102818382816148ad57fe5b051415806148c45750828282816148c057fe5b0514155b156111e3576111e361095460018585614991565b6000816148ee576148ee61095460028585614991565b600160ff1b83148015614902575081600019145b156149165761491661095460038585614991565b81838161475e57fe5b606063ed2f26a160e01b83600181111561483457fe5b6000808285118061494557508284115b156149885760008486101561495a578461495c565b855b90506149688185613aae565b90506149748682613aae565b92506149808582613aae565b915050612cd3565b50929391925050565b6060638c12dfe760e01b8460038111156149a757fe5b6040805160ff909216602483015260448201869052606480830186905281518084039091018152608490920190526020810180516001600160e01b03166001600160e01b03199093169290921790915290509392505050565b6040518060a0016040528060008152602001600081526020016000815260200160008152602001600081525090565b604080516060810182526000808252602082018190529181019190915290565b60405180606001604052806000815260200160008152602001600081525090565b60408051608081018252600080825260208201819052918101829052606081019190915290565b604051806040016040528060008152602001600081525090565b803560028110610e0857600080fd5b600082601f830112614ad0578081fd5b81516001600160401b0380821115614ae457fe5b604051601f8301601f191681016020018281118282101715614b0257fe5b604052828152925082848301602001861015614b1d57600080fd5b614b2e83602083016020880161519f565b50505092915050565b600060408284031215612362578081fd5b803563ffffffff81168114610e0857600080fd5b600060208284031215614b6d578081fd5b81356111e081615279565b600060208284031215614b89578081fd5b81516111e081615279565b60008060408385031215614ba6578081fd5b8235614bb181615279565b946020939093013593505050565b60008060408385031215614bd1578182fd5b8235614bdc81615279565b9150614bea60208401614ab1565b90509250929050565b60008060008060008060c08789031215614c0b578182fd5b8651614c1681615279565b60208801519096506001600160401b0380821115614c32578384fd5b614c3e8a838b01614ac0565b96506040890151915080821115614c53578384fd5b50614c6089828a01614ac0565b945050606087015192506080870151614c7881615279565b60a0880151909250614c8981615279565b809150509295509295509295565b60008060408385031215614ba6578182fd5b600060208284031215614cba578081fd5b815180151581146111e0578182fd5b600060208284031215614cda578081fd5b5035919050565b60008060408385031215614cf3578182fd5b823591506020830135614d0581615279565b809150509250929050565b60008060408385031215614d22578182fd5b50508035926020909101359150565b60008060408385031215614d43578182fd5b82359150614bea60208401614b48565b600060208284031215614d64578081fd5b6111e082614ab1565b600080600060a08486031215614d81578283fd5b614d8b8585614b37565b9250614d9a8560408601614b37565b9150608084013590509250925092565b600060208284031215614dbb578081fd5b5051919050565b60008060008060008060c08789031215614dda578384fd5b8651955060208701516001600160401b0380821115614df7578586fd5b614e038a838b01614ac0565b96506040890151915080821115614c53578586fd5b600080600080600060a08688031215614e2f578283fd5b85359450614e3f60208701614b48565b935060408601359250614e5460608701614b48565b9150614e6260808701614b48565b90509295509295909350565b60008151808452614e8681602086016020860161519f565b601f01601f19169290920160200192915050565b6001600160a01b0391909116815260200190565b6001600160a01b03929092168252602082015260400190565b6020808252825182820181905260009190848201906040850190845b81811015614f085783516001600160a01b031683529284019291840191600101614ee3565b50909695505050505050565b901515815260200190565b90815260200190565b9283526001600160a01b0391909116602083015263ffffffff16604082015260600190565b6000602082526111e06020830184614e6e565b918252602082015260400190565b6020808252601c908201527f4e4f4e5f524547495354455245445f504f4f4c5f49445f4552524f5200000000604082015260600190565b6020808252601b908201527f504f4f4c5f544f5f4a4f494e5f4e4f545f53454c465f4552524f520000000000604082015260600190565b6020808252601c908201527f4e4f4e5f524547495354455245445f52425f504f4f4c5f4552524f5200000000604082015260600190565b60208082526013908201527210d497d25395115495905317d2539590531251606a1b604082015260600190565b81518152602080830151908201526040918201519181019190915260600190565b81516001600160a01b0390811682526020808401519091169082015260408083015163ffffffff90811691830191909152606092830151169181019190915260800190565b81516001600160401b031681526020808301516001600160601b0390811691830191909152604092830151169181019190915260600190565b9283526020830191909152604082015260600190565b93845260208401929092526040830152606082015260800190565b948552602085019390935260408401919091526060830152608082015260a00190565b94855263ffffffff938416602086015260408501929092528216606084015216608082015260a00190565b92835260ff918216602084015216604082015260600190565b63ffffffff91909116815260200190565b63ffffffff92831681529116602082015260400190565b60005b838110156151ba5781810151838201526020016151a2565b838111156151c9576000848401525b50505050565b60e01c90565b600060443d10156151e557610c41565b600481823e6308c379a06151f982516151cf565b1461520357610c41565b6040513d600319016004823e80513d6001600160401b0381602484011181841117156152325750505050610c41565b8284019250825191508082111561524c5750505050610c41565b503d8301602082840101111561526457505050610c41565b601f01601f1916810160200160405291505090565b6001600160a01b038116811461119457600080fdfea26469706673582212206f4e794e5e01c4cffd4819abb12e483dda0c59ebea46d7c83be9abd68904e82964736f6c63430007040033",
			"opcodes": "PUSH1 0x80 PUSH1 0x40 MSTORE CALLVALUE DUP1 ISZERO PUSH2 0x10 JUMPI PUSH1 0x0 DUP1 REVERT JUMPDEST POP PUSH1 0x0 DUP1 SLOAD PUSH1 0x1 PUSH1 0x1 PUSH1 0xA0 SHL SUB NOT AND CALLER OR SWAP1 SSTORE PUSH2 0x52C4 DUP1 PUSH2 0x32 PUSH1 0x0 CODECOPY PUSH1 0x0 RETURN INVALID PUSH1 0x80 PUSH1 0x40 MSTORE PUSH1 0x4 CALLDATASIZE LT PUSH2 0x2E4 JUMPI PUSH1 0x0 CALLDATALOAD PUSH1 0xE0 SHR DUP1 PUSH4 0x8DA5CB5B GT PUSH2 0x190 JUMPI DUP1 PUSH4 0xD39DE6E9 GT PUSH2 0xDC JUMPI DUP1 PUSH4 0xE907F003 GT PUSH2 0x95 JUMPI DUP1 PUSH4 0xEF4BA680 GT PUSH2 0x6F JUMPI DUP1 PUSH4 0xEF4BA680 EQ PUSH2 0x8A5 JUMPI DUP1 PUSH4 0xF252B7A1 EQ PUSH2 0x8BA JUMPI DUP1 PUSH4 0xF2FDE38B EQ PUSH2 0x8DA JUMPI DUP1 PUSH4 0xFF691B11 EQ PUSH2 0x8FA JUMPI PUSH2 0x2E4 JUMP JUMPDEST DUP1 PUSH4 0xE907F003 EQ PUSH2 0x85D JUMPI DUP1 PUSH4 0xECC128F2 EQ PUSH2 0x87D JUMPI DUP1 PUSH4 0xEE99205C EQ PUSH2 0x890 JUMPI PUSH2 0x2E4 JUMP JUMPDEST DUP1 PUSH4 0xD39DE6E9 EQ PUSH2 0x7C7 JUMPI DUP1 PUSH4 0xE0822DB7 EQ PUSH2 0x7E9 JUMPI DUP1 PUSH4 0xE0EE036E EQ PUSH2 0x7FE JUMPI DUP1 PUSH4 0xE1C7392A EQ PUSH2 0x813 JUMPI DUP1 PUSH4 0xE804D0A4 EQ PUSH2 0x828 JUMPI DUP1 PUSH4 0xE8EEB3F8 EQ PUSH2 0x848 JUMPI PUSH2 0x2E4 JUMP JUMPDEST DUP1 PUSH4 0xB510879F GT PUSH2 0x149 JUMPI DUP1 PUSH4 0xBB7EF7E0 GT PUSH2 0x123 JUMPI DUP1 PUSH4 0xBB7EF7E0 EQ PUSH2 0x752 JUMPI DUP1 PUSH4 0xBE111AF4 EQ PUSH2 0x772 JUMPI DUP1 PUSH4 0xC18C9141 EQ PUSH2 0x792 JUMPI DUP1 PUSH4 0xD14DC231 EQ PUSH2 0x7B2 JUMPI PUSH2 0x2E4 JUMP JUMPDEST DUP1 PUSH4 0xB510879F EQ PUSH2 0x6FD JUMPI DUP1 PUSH4 0xB652B41F EQ PUSH2 0x71D JUMPI DUP1 PUSH4 0xB9181611 EQ PUSH2 0x732 JUMPI PUSH2 0x2E4 JUMP JUMPDEST DUP1 PUSH4 0x8DA5CB5B EQ PUSH2 0x65E JUMPI DUP1 PUSH4 0x9AD26744 EQ PUSH2 0x673 JUMPI DUP1 PUSH4 0x9C3CCC82 EQ PUSH2 0x693 JUMPI DUP1 PUSH4 0xA26171E2 EQ PUSH2 0x6B3 JUMPI DUP1 PUSH4 0xA694FC3A EQ PUSH2 0x6C8 JUMPI DUP1 PUSH4 0xB2BAA33E EQ PUSH2 0x6E8 JUMPI PUSH2 0x2E4 JUMP JUMPDEST DUP1 PUSH4 0x46B97959 GT PUSH2 0x24F JUMPI DUP1 PUSH4 0x5D91121D GT PUSH2 0x208 JUMPI DUP1 PUSH4 0x70712939 GT PUSH2 0x1E2 JUMPI DUP1 PUSH4 0x70712939 EQ PUSH2 0x5E7 JUMPI DUP1 PUSH4 0x76671808 EQ PUSH2 0x607 JUMPI DUP1 PUSH4 0x7FA140C7 EQ PUSH2 0x61C JUMPI DUP1 PUSH4 0x81666796 EQ PUSH2 0x63C JUMPI PUSH2 0x2E4 JUMP JUMPDEST DUP1 PUSH4 0x5D91121D EQ PUSH2 0x58C JUMPI DUP1 PUSH4 0x5E615A6B EQ PUSH2 0x5AC JUMPI DUP1 PUSH4 0x63403801 EQ PUSH2 0x5D2 JUMPI PUSH2 0x2E4 JUMP JUMPDEST DUP1 PUSH4 0x46B97959 EQ PUSH2 0x4A3 JUMPI DUP1 PUSH4 0x494503D4 EQ PUSH2 0x4D0 JUMPI DUP1 PUSH4 0x4BCC3F67 EQ PUSH2 0x4FD JUMPI DUP1 PUSH4 0x540C2D53 EQ PUSH2 0x52A JUMPI DUP1 PUSH4 0x587DA023 EQ PUSH2 0x557 JUMPI DUP1 PUSH4 0x58F6C7E3 EQ PUSH2 0x56C JUMPI PUSH2 0x2E4 JUMP JUMPDEST DUP1 PUSH4 0x36D7DD8E GT PUSH2 0x2A1 JUMPI DUP1 PUSH4 0x36D7DD8E EQ PUSH2 0x3C5 JUMPI DUP1 PUSH4 0x38229D93 EQ PUSH2 0x3E5 JUMPI DUP1 PUSH4 0x3A832382 EQ PUSH2 0x416 JUMPI DUP1 PUSH4 0x3E4AD732 EQ PUSH2 0x436 JUMPI DUP1 PUSH4 0x42F1181E EQ PUSH2 0x463 JUMPI DUP1 PUSH4 0x44A6958B EQ PUSH2 0x483 JUMPI PUSH2 0x2E4 JUMP JUMPDEST DUP1 PUSH4 0xB9663DB EQ PUSH2 0x2E9 JUMPI DUP1 PUSH4 0x1A67A0A0 EQ PUSH2 0x314 JUMPI DUP1 PUSH4 0x1E7FF8F6 EQ PUSH2 0x336 JUMPI DUP1 PUSH4 0x1F81EB80 EQ PUSH2 0x356 JUMPI DUP1 PUSH4 0x2A94C279 EQ PUSH2 0x376 JUMPI DUP1 PUSH4 0x2E17DE78 EQ PUSH2 0x3A5 JUMPI JUMPDEST PUSH1 0x0 DUP1 REVERT JUMPDEST CALLVALUE DUP1 ISZERO PUSH2 0x2F5 JUMPI PUSH1 0x0 DUP1 REVERT JUMPDEST POP PUSH2 0x2FE PUSH2 0x91A JUMP JUMPDEST PUSH1 0x40 MLOAD PUSH2 0x30B SWAP2 SWAP1 PUSH2 0x4F1F JUMP JUMPDEST PUSH1 0x40 MLOAD DUP1 SWAP2 SUB SWAP1 RETURN JUMPDEST CALLVALUE DUP1 ISZERO PUSH2 0x320 JUMPI PUSH1 0x0 DUP1 REVERT JUMPDEST POP PUSH2 0x334 PUSH2 0x32F CALLDATASIZE PUSH1 0x4 PUSH2 0x4CE1 JUMP JUMPDEST PUSH2 0xC44 JUMP JUMPDEST STOP JUMPDEST CALLVALUE DUP1 ISZERO PUSH2 0x342 JUMPI PUSH1 0x0 DUP1 REVERT JUMPDEST POP PUSH2 0x2FE PUSH2 0x351 CALLDATASIZE PUSH1 0x4 PUSH2 0x4B5C JUMP JUMPDEST PUSH2 0xD80 JUMP JUMPDEST CALLVALUE DUP1 ISZERO PUSH2 0x362 JUMPI PUSH1 0x0 DUP1 REVERT JUMPDEST POP PUSH2 0x334 PUSH2 0x371 CALLDATASIZE PUSH1 0x4 PUSH2 0x4B5C JUMP JUMPDEST PUSH2 0xE0D JUMP JUMPDEST CALLVALUE DUP1 ISZERO PUSH2 0x382 JUMPI PUSH1 0x0 DUP1 REVERT JUMPDEST POP PUSH2 0x396 PUSH2 0x391 CALLDATASIZE PUSH1 0x4 PUSH2 0x4D10 JUMP JUMPDEST PUSH2 0xEA2 JUMP JUMPDEST PUSH1 0x40 MLOAD PUSH2 0x30B SWAP4 SWAP3 SWAP2 SWAP1 PUSH2 0x50DF JUMP JUMPDEST CALLVALUE DUP1 ISZERO PUSH2 0x3B1 JUMPI PUSH1 0x0 DUP1 REVERT JUMPDEST POP PUSH2 0x334 PUSH2 0x3C0 CALLDATASIZE PUSH1 0x4 PUSH2 0x4CC9 JUMP JUMPDEST PUSH2 0xECE JUMP JUMPDEST CALLVALUE DUP1 ISZERO PUSH2 0x3D1 JUMPI PUSH1 0x0 DUP1 REVERT JUMPDEST POP PUSH2 0x334 PUSH2 0x3E0 CALLDATASIZE PUSH1 0x4 PUSH2 0x4B5C JUMP JUMPDEST PUSH2 0x1045 JUMP JUMPDEST CALLVALUE DUP1 ISZERO PUSH2 0x3F1 JUMPI PUSH1 0x0 DUP1 REVERT JUMPDEST POP PUSH2 0x405 PUSH2 0x400 CALLDATASIZE PUSH1 0x4 PUSH2 0x4CC9 JUMP JUMPDEST PUSH2 0x10CB JUMP JUMPDEST PUSH1 0x40 MLOAD PUSH2 0x30B SWAP6 SWAP5 SWAP4 SWAP3 SWAP2 SWAP1 PUSH2 0x5110 JUMP JUMPDEST CALLVALUE DUP1 ISZERO PUSH2 0x422 JUMPI PUSH1 0x0 DUP1 REVERT JUMPDEST POP PUSH2 0x334 PUSH2 0x431 CALLDATASIZE PUSH1 0x4 PUSH2 0x4CE1 JUMP JUMPDEST PUSH2 0x10FA JUMP JUMPDEST CALLVALUE DUP1 ISZERO PUSH2 0x442 JUMPI PUSH1 0x0 DUP1 REVERT JUMPDEST POP PUSH2 0x456 PUSH2 0x451 CALLDATASIZE PUSH1 0x4 PUSH2 0x4CC9 JUMP JUMPDEST PUSH2 0x1164 JUMP JUMPDEST PUSH1 0x40 MLOAD PUSH2 0x30B SWAP2 SWAP1 PUSH2 0x50A6 JUMP JUMPDEST CALLVALUE DUP1 ISZERO PUSH2 0x46F JUMPI PUSH1 0x0 DUP1 REVERT JUMPDEST POP PUSH2 0x334 PUSH2 0x47E CALLDATASIZE PUSH1 0x4 PUSH2 0x4B5C JUMP JUMPDEST PUSH2 0x1183 JUMP JUMPDEST CALLVALUE DUP1 ISZERO PUSH2 0x48F JUMPI PUSH1 0x0 DUP1 REVERT JUMPDEST POP PUSH2 0x456 PUSH2 0x49E CALLDATASIZE PUSH1 0x4 PUSH2 0x4BBF JUMP JUMPDEST PUSH2 0x1197 JUMP JUMPDEST CALLVALUE DUP1 ISZERO PUSH2 0x4AF JUMPI PUSH1 0x0 DUP1 REVERT JUMPDEST POP PUSH2 0x4C3 PUSH2 0x4BE CALLDATASIZE PUSH1 0x4 PUSH2 0x4CC9 JUMP JUMPDEST PUSH2 0x11E9 JUMP JUMPDEST PUSH1 0x40 MLOAD PUSH2 0x30B SWAP2 SWAP1 PUSH2 0x5040 JUMP JUMPDEST CALLVALUE DUP1 ISZERO PUSH2 0x4DC JUMPI PUSH1 0x0 DUP1 REVERT JUMPDEST POP PUSH2 0x4F0 PUSH2 0x4EB CALLDATASIZE PUSH1 0x4 PUSH2 0x4CC9 JUMP JUMPDEST PUSH2 0x1234 JUMP JUMPDEST PUSH1 0x40 MLOAD PUSH2 0x30B SWAP2 SWAP1 PUSH2 0x4E9A JUMP JUMPDEST CALLVALUE DUP1 ISZERO PUSH2 0x509 JUMPI PUSH1 0x0 DUP1 REVERT JUMPDEST POP PUSH2 0x51D PUSH2 0x518 CALLDATASIZE PUSH1 0x4 PUSH2 0x4CC9 JUMP JUMPDEST PUSH2 0x125E JUMP JUMPDEST PUSH1 0x40 MLOAD PUSH2 0x30B SWAP2 SWAP1 PUSH2 0x5061 JUMP JUMPDEST CALLVALUE DUP1 ISZERO PUSH2 0x536 JUMPI PUSH1 0x0 DUP1 REVERT JUMPDEST POP PUSH2 0x54A PUSH2 0x545 CALLDATASIZE PUSH1 0x4 PUSH2 0x4B5C JUMP JUMPDEST PUSH2 0x12C7 JUMP JUMPDEST PUSH1 0x40 MLOAD PUSH2 0x30B SWAP2 SWAP1 PUSH2 0x4F14 JUMP JUMPDEST CALLVALUE DUP1 ISZERO PUSH2 0x563 JUMPI PUSH1 0x0 DUP1 REVERT JUMPDEST POP PUSH2 0x2FE PUSH2 0x12DC JUMP JUMPDEST CALLVALUE DUP1 ISZERO PUSH2 0x578 JUMPI PUSH1 0x0 DUP1 REVERT JUMPDEST POP PUSH2 0x334 PUSH2 0x587 CALLDATASIZE PUSH1 0x4 PUSH2 0x4D6D JUMP JUMPDEST PUSH2 0x12E2 JUMP JUMPDEST CALLVALUE DUP1 ISZERO PUSH2 0x598 JUMPI PUSH1 0x0 DUP1 REVERT JUMPDEST POP PUSH2 0x334 PUSH2 0x5A7 CALLDATASIZE PUSH1 0x4 PUSH2 0x4D31 JUMP JUMPDEST PUSH2 0x14B7 JUMP JUMPDEST CALLVALUE DUP1 ISZERO PUSH2 0x5B8 JUMPI PUSH1 0x0 DUP1 REVERT JUMPDEST POP PUSH2 0x5C1 PUSH2 0x154C JUMP JUMPDEST PUSH1 0x40 MLOAD PUSH2 0x30B SWAP6 SWAP5 SWAP4 SWAP3 SWAP2 SWAP1 PUSH2 0x5133 JUMP JUMPDEST CALLVALUE DUP1 ISZERO PUSH2 0x5DE JUMPI PUSH1 0x0 DUP1 REVERT JUMPDEST POP PUSH2 0x2FE PUSH2 0x1575 JUMP JUMPDEST CALLVALUE DUP1 ISZERO PUSH2 0x5F3 JUMPI PUSH1 0x0 DUP1 REVERT JUMPDEST POP PUSH2 0x334 PUSH2 0x602 CALLDATASIZE PUSH1 0x4 PUSH2 0x4B5C JUMP JUMPDEST PUSH2 0x157B JUMP JUMPDEST CALLVALUE DUP1 ISZERO PUSH2 0x613 JUMPI PUSH1 0x0 DUP1 REVERT JUMPDEST POP PUSH2 0x2FE PUSH2 0x1609 JUMP JUMPDEST CALLVALUE DUP1 ISZERO PUSH2 0x628 JUMPI PUSH1 0x0 DUP1 REVERT JUMPDEST POP PUSH2 0x2FE PUSH2 0x637 CALLDATASIZE PUSH1 0x4 PUSH2 0x4B5C JUMP JUMPDEST PUSH2 0x160F JUMP JUMPDEST CALLVALUE DUP1 ISZERO PUSH2 0x648 JUMPI PUSH1 0x0 DUP1 REVERT JUMPDEST POP PUSH2 0x651 PUSH2 0x1621 JUMP JUMPDEST PUSH1 0x40 MLOAD PUSH2 0x30B SWAP2 SWAP1 PUSH2 0x5177 JUMP JUMPDEST CALLVALUE DUP1 ISZERO PUSH2 0x66A JUMPI PUSH1 0x0 DUP1 REVERT JUMPDEST POP PUSH2 0x4F0 PUSH2 0x162D JUMP JUMPDEST CALLVALUE DUP1 ISZERO PUSH2 0x67F JUMPI PUSH1 0x0 DUP1 REVERT JUMPDEST POP PUSH2 0x334 PUSH2 0x68E CALLDATASIZE PUSH1 0x4 PUSH2 0x4C97 JUMP JUMPDEST PUSH2 0x163C JUMP JUMPDEST CALLVALUE DUP1 ISZERO PUSH2 0x69F JUMPI PUSH1 0x0 DUP1 REVERT JUMPDEST POP PUSH2 0x334 PUSH2 0x6AE CALLDATASIZE PUSH1 0x4 PUSH2 0x4E18 JUMP JUMPDEST PUSH2 0x164E JUMP JUMPDEST CALLVALUE DUP1 ISZERO PUSH2 0x6BF JUMPI PUSH1 0x0 DUP1 REVERT JUMPDEST POP PUSH2 0x2FE PUSH2 0x16BB JUMP JUMPDEST CALLVALUE DUP1 ISZERO PUSH2 0x6D4 JUMPI PUSH1 0x0 DUP1 REVERT JUMPDEST POP PUSH2 0x334 PUSH2 0x6E3 CALLDATASIZE PUSH1 0x4 PUSH2 0x4CC9 JUMP JUMPDEST PUSH2 0x16C1 JUMP JUMPDEST CALLVALUE DUP1 ISZERO PUSH2 0x6F4 JUMPI PUSH1 0x0 DUP1 REVERT JUMPDEST POP PUSH2 0x2FE PUSH2 0x17AF JUMP JUMPDEST CALLVALUE DUP1 ISZERO PUSH2 0x709 JUMPI PUSH1 0x0 DUP1 REVERT JUMPDEST POP PUSH2 0x334 PUSH2 0x718 CALLDATASIZE PUSH1 0x4 PUSH2 0x4CC9 JUMP JUMPDEST PUSH2 0x17CD JUMP JUMPDEST CALLVALUE DUP1 ISZERO PUSH2 0x729 JUMPI PUSH1 0x0 DUP1 REVERT JUMPDEST POP PUSH2 0x4F0 PUSH2 0x17D7 JUMP JUMPDEST CALLVALUE DUP1 ISZERO PUSH2 0x73E JUMPI PUSH1 0x0 DUP1 REVERT JUMPDEST POP PUSH2 0x54A PUSH2 0x74D CALLDATASIZE PUSH1 0x4 PUSH2 0x4B5C JUMP JUMPDEST PUSH2 0x17EF JUMP JUMPDEST CALLVALUE DUP1 ISZERO PUSH2 0x75E JUMPI PUSH1 0x0 DUP1 REVERT JUMPDEST POP PUSH2 0x2FE PUSH2 0x76D CALLDATASIZE PUSH1 0x4 PUSH2 0x4CC9 JUMP JUMPDEST PUSH2 0x1804 JUMP JUMPDEST CALLVALUE DUP1 ISZERO PUSH2 0x77E JUMPI PUSH1 0x0 DUP1 REVERT JUMPDEST POP PUSH2 0x2FE PUSH2 0x78D CALLDATASIZE PUSH1 0x4 PUSH2 0x4B5C JUMP JUMPDEST PUSH2 0x1891 JUMP JUMPDEST CALLVALUE DUP1 ISZERO PUSH2 0x79E JUMPI PUSH1 0x0 DUP1 REVERT JUMPDEST POP PUSH2 0x2FE PUSH2 0x7AD CALLDATASIZE PUSH1 0x4 PUSH2 0x4CC9 JUMP JUMPDEST PUSH2 0x1A60 JUMP JUMPDEST CALLVALUE DUP1 ISZERO PUSH2 0x7BE JUMPI PUSH1 0x0 DUP1 REVERT JUMPDEST POP PUSH2 0x2FE PUSH2 0x1A72 JUMP JUMPDEST CALLVALUE DUP1 ISZERO PUSH2 0x7D3 JUMPI PUSH1 0x0 DUP1 REVERT JUMPDEST POP PUSH2 0x7DC PUSH2 0x1A78 JUMP JUMPDEST PUSH1 0x40 MLOAD PUSH2 0x30B SWAP2 SWAP1 PUSH2 0x4EC7 JUMP JUMPDEST CALLVALUE DUP1 ISZERO PUSH2 0x7F5 JUMPI PUSH1 0x0 DUP1 REVERT JUMPDEST POP PUSH2 0x4F0 PUSH2 0x1ADA JUMP JUMPDEST CALLVALUE DUP1 ISZERO PUSH2 0x80A JUMPI PUSH1 0x0 DUP1 REVERT JUMPDEST POP PUSH2 0x651 PUSH2 0x1AF2 JUMP JUMPDEST CALLVALUE DUP1 ISZERO PUSH2 0x81F JUMPI PUSH1 0x0 DUP1 REVERT JUMPDEST POP PUSH2 0x334 PUSH2 0x1AFE JUMP JUMPDEST CALLVALUE DUP1 ISZERO PUSH2 0x834 JUMPI PUSH1 0x0 DUP1 REVERT JUMPDEST POP PUSH2 0x456 PUSH2 0x843 CALLDATASIZE PUSH1 0x4 PUSH2 0x4D53 JUMP JUMPDEST PUSH2 0x1B18 JUMP JUMPDEST CALLVALUE DUP1 ISZERO PUSH2 0x854 JUMPI PUSH1 0x0 DUP1 REVERT JUMPDEST POP PUSH2 0x651 PUSH2 0x1C46 JUMP JUMPDEST CALLVALUE DUP1 ISZERO PUSH2 0x869 JUMPI PUSH1 0x0 DUP1 REVERT JUMPDEST POP PUSH2 0x2FE PUSH2 0x878 CALLDATASIZE PUSH1 0x4 PUSH2 0x4CE1 JUMP JUMPDEST PUSH2 0x1C5A JUMP JUMPDEST PUSH2 0x334 PUSH2 0x88B CALLDATASIZE PUSH1 0x4 PUSH2 0x4C97 JUMP JUMPDEST PUSH2 0x1CF9 JUMP JUMPDEST CALLVALUE DUP1 ISZERO PUSH2 0x89C JUMPI PUSH1 0x0 DUP1 REVERT JUMPDEST POP PUSH2 0x4F0 PUSH2 0x1E44 JUMP JUMPDEST CALLVALUE DUP1 ISZERO PUSH2 0x8B1 JUMPI PUSH1 0x0 DUP1 REVERT JUMPDEST POP PUSH2 0x4F0 PUSH2 0x1E53 JUMP JUMPDEST CALLVALUE DUP1 ISZERO PUSH2 0x8C6 JUMPI PUSH1 0x0 DUP1 REVERT JUMPDEST POP PUSH2 0x456 PUSH2 0x8D5 CALLDATASIZE PUSH1 0x4 PUSH2 0x4B94 JUMP JUMPDEST PUSH2 0x1E6B JUMP JUMPDEST CALLVALUE DUP1 ISZERO PUSH2 0x8E6 JUMPI PUSH1 0x0 DUP1 REVERT JUMPDEST POP PUSH2 0x334 PUSH2 0x8F5 CALLDATASIZE PUSH1 0x4 PUSH2 0x4B5C JUMP JUMPDEST PUSH2 0x1E9F JUMP JUMPDEST CALLVALUE DUP1 ISZERO PUSH2 0x906 JUMPI PUSH1 0x0 DUP1 REVERT JUMPDEST POP PUSH2 0x334 PUSH2 0x915 CALLDATASIZE PUSH1 0x4 PUSH2 0x4CC9 JUMP JUMPDEST PUSH2 0x1F10 JUMP JUMPDEST PUSH1 0xB SLOAD PUSH1 0x0 SWAP1 DUP2 PUSH2 0x92C DUP3 PUSH1 0x1 PUSH2 0x211F JUMP JUMPDEST PUSH1 0x0 DUP2 DUP2 MSTORE PUSH1 0x15 PUSH1 0x20 MSTORE PUSH1 0x40 SWAP1 KECCAK256 PUSH1 0x1 ADD SLOAD SWAP1 SWAP2 POP DUP1 ISZERO PUSH2 0x959 JUMPI PUSH2 0x959 PUSH2 0x954 DUP4 DUP4 PUSH2 0x213E JUMP JUMPDEST PUSH2 0x2183 JUMP JUMPDEST PUSH1 0x1 DUP4 GT ISZERO PUSH2 0xB3F JUMPI PUSH2 0x96A PUSH2 0x1E53 JUMP JUMPDEST PUSH1 0x1 PUSH1 0x1 PUSH1 0xA0 SHL SUB AND PUSH4 0x7546172 PUSH1 0x40 MLOAD DUP2 PUSH4 0xFFFFFFFF AND PUSH1 0xE0 SHL DUP2 MSTORE PUSH1 0x4 ADD PUSH1 0x20 PUSH1 0x40 MLOAD DUP1 DUP4 SUB DUP2 DUP7 DUP1 EXTCODESIZE ISZERO DUP1 ISZERO PUSH2 0x9A2 JUMPI PUSH1 0x0 DUP1 REVERT JUMPDEST POP GAS STATICCALL ISZERO DUP1 ISZERO PUSH2 0x9B6 JUMPI RETURNDATASIZE PUSH1 0x0 DUP1 RETURNDATACOPY RETURNDATASIZE PUSH1 0x0 REVERT JUMPDEST POP POP POP POP PUSH1 0x40 MLOAD RETURNDATASIZE PUSH1 0x1F NOT PUSH1 0x1F DUP3 ADD AND DUP3 ADD DUP1 PUSH1 0x40 MSTORE POP DUP2 ADD SWAP1 PUSH2 0x9DA SWAP2 SWAP1 PUSH2 0x4B78 JUMP JUMPDEST PUSH1 0x1 PUSH1 0x1 PUSH1 0xA0 SHL SUB AND PUSH4 0xC551A2F9 PUSH1 0x40 MLOAD DUP2 PUSH4 0xFFFFFFFF AND PUSH1 0xE0 SHL DUP2 MSTORE PUSH1 0x4 ADD PUSH1 0x20 PUSH1 0x40 MLOAD DUP1 DUP4 SUB DUP2 PUSH1 0x0 DUP8 DUP1 EXTCODESIZE ISZERO DUP1 ISZERO PUSH2 0xA14 JUMPI PUSH1 0x0 DUP1 REVERT JUMPDEST POP GAS CALL SWAP3 POP POP POP DUP1 ISZERO PUSH2 0xA44 JUMPI POP PUSH1 0x40 DUP1 MLOAD PUSH1 0x1F RETURNDATASIZE SWAP1 DUP2 ADD PUSH1 0x1F NOT AND DUP3 ADD SWAP1 SWAP3 MSTORE PUSH2 0xA41 SWAP2 DUP2 ADD SWAP1 PUSH2 0x4DAA JUMP JUMPDEST PUSH1 0x1 JUMPDEST PUSH2 0xB06 JUMPI PUSH2 0xA50 PUSH2 0x51D5 JUMP JUMPDEST DUP1 PUSH2 0xA5B JUMPI POP PUSH2 0xA98 JUMP JUMPDEST PUSH32 0x1FC94326C4F979E0A19555AEF364D7490ACF6840560FC01C723E320D6F2D96C1 DUP2 PUSH1 0x40 MLOAD PUSH2 0xA8A SWAP2 SWAP1 PUSH2 0x4F4D JUMP JUMPDEST PUSH1 0x40 MLOAD DUP1 SWAP2 SUB SWAP1 LOG1 POP PUSH2 0xB01 JUMP JUMPDEST RETURNDATASIZE DUP1 DUP1 ISZERO PUSH2 0xAC2 JUMPI PUSH1 0x40 MLOAD SWAP2 POP PUSH1 0x1F NOT PUSH1 0x3F RETURNDATASIZE ADD AND DUP3 ADD PUSH1 0x40 MSTORE RETURNDATASIZE DUP3 MSTORE RETURNDATASIZE PUSH1 0x0 PUSH1 0x20 DUP5 ADD RETURNDATACOPY PUSH2 0xAC7 JUMP JUMPDEST PUSH1 0x60 SWAP2 POP JUMPDEST POP PUSH32 0x349211C9E282ED467B636A7FE2CCDD287A3F7C67969D4E5FD2EE539DF22ED613 DUP2 PUSH1 0x40 MLOAD PUSH2 0xAF7 SWAP2 SWAP1 PUSH2 0x4F4D JUMP JUMPDEST PUSH1 0x40 MLOAD DUP1 SWAP2 SUB SWAP1 LOG1 POP JUMPDEST PUSH2 0xB3F JUMP JUMPDEST PUSH32 0x2781ECBB97CBE2FBF6A9B934F9AA6422ACA2D528AD53FBFB31F70BC47BCFA5B DUP2 PUSH1 0x40 MLOAD PUSH2 0xB35 SWAP2 SWAP1 PUSH2 0x4F1F JUMP JUMPDEST PUSH1 0x40 MLOAD DUP1 SWAP2 SUB SWAP1 LOG1 POP JUMPDEST PUSH2 0xB47 PUSH2 0x218B JUMP JUMPDEST PUSH1 0x0 DUP5 DUP2 MSTORE PUSH1 0x15 PUSH1 0x20 MSTORE PUSH1 0x40 SWAP1 KECCAK256 SSTORE PUSH2 0xB5E PUSH2 0x4A00 JUMP JUMPDEST POP PUSH1 0x0 DUP4 DUP2 MSTORE PUSH1 0x15 PUSH1 0x20 SWAP1 DUP2 MSTORE PUSH1 0x40 SWAP2 DUP3 SWAP1 KECCAK256 DUP3 MLOAD PUSH1 0xA0 DUP2 ADD DUP5 MSTORE DUP2 SLOAD DUP1 DUP3 MSTORE PUSH1 0x1 DUP4 ADD SLOAD SWAP4 DUP3 ADD DUP5 SWAP1 MSTORE PUSH1 0x2 DUP4 ADD SLOAD DUP3 DUP7 ADD DUP2 SWAP1 MSTORE PUSH1 0x3 DUP5 ADD SLOAD PUSH1 0x60 DUP5 ADD DUP2 SWAP1 MSTORE PUSH1 0x4 SWAP1 SWAP5 ADD SLOAD PUSH1 0x80 DUP5 ADD MSTORE SWAP5 MLOAD SWAP2 SWAP5 DUP9 SWAP5 PUSH32 0xBB4A26FA0ACE13EE4DA343896C20EAA44A618FB9071FDD8C2E2C960A4583189D SWAP5 PUSH2 0xBE0 SWAP5 SWAP2 SWAP4 SWAP3 SWAP2 PUSH2 0x50F5 JUMP JUMPDEST PUSH1 0x40 MLOAD DUP1 SWAP2 SUB SWAP1 LOG2 PUSH2 0xBF0 PUSH2 0x2216 JUMP JUMPDEST PUSH1 0x20 DUP2 ADD MLOAD PUSH2 0xC37 JUMPI DUP1 MLOAD PUSH1 0x40 MLOAD DUP6 SWAP2 PUSH32 0xB463D19ECF455BE65365092CF8E1DB6934A0334CF8CD532DDF9964D01F36B5B2 SWAP2 PUSH2 0xC2E SWAP2 PUSH1 0x0 SWAP2 PUSH2 0x4F60 JUMP JUMPDEST PUSH1 0x40 MLOAD DUP1 SWAP2 SUB SWAP1 LOG2 JUMPDEST PUSH1 0x20 ADD MLOAD SWAP4 POP POP POP POP JUMPDEST SWAP1 JUMP JUMPDEST PUSH1 0x0 DUP1 PUSH2 0xC4F PUSH2 0x17D7 JUMP JUMPDEST PUSH1 0x40 MLOAD PUSH4 0x309DFC6B PUSH1 0xE2 SHL DUP2 MSTORE PUSH1 0x1 PUSH1 0x1 PUSH1 0xA0 SHL SUB SWAP2 SWAP1 SWAP2 AND SWAP1 PUSH4 0xC277F1AC SWAP1 PUSH2 0xC7D SWAP1 DUP8 SWAP1 PUSH1 0x4 ADD PUSH2 0x4F1F JUMP JUMPDEST PUSH1 0x0 PUSH1 0x40 MLOAD DUP1 DUP4 SUB DUP2 DUP7 DUP1 EXTCODESIZE ISZERO DUP1 ISZERO PUSH2 0xC95 JUMPI PUSH1 0x0 DUP1 REVERT JUMPDEST POP GAS STATICCALL ISZERO DUP1 ISZERO PUSH2 0xCA9 JUMPI RETURNDATASIZE PUSH1 0x0 DUP1 RETURNDATACOPY RETURNDATASIZE PUSH1 0x0 REVERT JUMPDEST POP POP POP POP PUSH1 0x40 MLOAD RETURNDATASIZE PUSH1 0x0 DUP3 RETURNDATACOPY PUSH1 0x1F RETURNDATASIZE SWAP1 DUP2 ADD PUSH1 0x1F NOT AND DUP3 ADD PUSH1 0x40 MSTORE PUSH2 0xCD1 SWAP2 SWAP1 DUP2 ADD SWAP1 PUSH2 0x4BF3 JUMP JUMPDEST POP POP SWAP4 POP POP POP SWAP2 POP PUSH1 0x0 DUP2 EQ ISZERO PUSH2 0xD03 JUMPI PUSH1 0x40 MLOAD PUSH3 0x461BCD PUSH1 0xE5 SHL DUP2 MSTORE PUSH1 0x4 ADD PUSH2 0xCFA SWAP1 PUSH2 0x4F6E JUMP JUMPDEST PUSH1 0x40 MLOAD DUP1 SWAP2 SUB SWAP1 REVERT JUMPDEST DUP3 PUSH1 0x1 PUSH1 0x1 PUSH1 0xA0 SHL SUB AND DUP3 PUSH1 0x1 PUSH1 0x1 PUSH1 0xA0 SHL SUB AND EQ PUSH2 0xD34 JUMPI PUSH1 0x40 MLOAD PUSH3 0x461BCD PUSH1 0xE5 SHL DUP2 MSTORE PUSH1 0x4 ADD PUSH2 0xCFA SWAP1 PUSH2 0x4FA5 JUMP JUMPDEST PUSH1 0x1 PUSH1 0x1 PUSH1 0xA0 SHL SUB DUP1 DUP4 AND PUSH1 0x0 SWAP1 DUP2 MSTORE PUSH1 0x8 PUSH1 0x20 MSTORE PUSH1 0x40 DUP1 DUP3 KECCAK256 DUP8 SWAP1 SSTORE MLOAD DUP7 SWAP3 DUP7 AND SWAP2 PUSH32 0xE8B9F7EE7A4480D45B60E98F7B2090DD82E2353B8557A6EE2DD2D5EE9196BAC2 SWAP2 LOG3 POP POP POP POP JUMP JUMPDEST PUSH1 0x0 PUSH2 0xD8A PUSH2 0x1ADA JUMP JUMPDEST PUSH1 0x1 PUSH1 0x1 PUSH1 0xA0 SHL SUB AND PUSH4 0x70A08231 DUP4 PUSH1 0x40 MLOAD DUP3 PUSH4 0xFFFFFFFF AND PUSH1 0xE0 SHL DUP2 MSTORE PUSH1 0x4 ADD PUSH2 0xDB5 SWAP2 SWAP1 PUSH2 0x4E9A JUMP JUMPDEST PUSH1 0x20 PUSH1 0x40 MLOAD DUP1 DUP4 SUB DUP2 DUP7 DUP1 EXTCODESIZE ISZERO DUP1 ISZERO PUSH2 0xDCD JUMPI PUSH1 0x0 DUP1 REVERT JUMPDEST POP GAS STATICCALL ISZERO DUP1 ISZERO PUSH2 0xDE1 JUMPI RETURNDATASIZE PUSH1 0x0 DUP1 RETURNDATACOPY RETURNDATASIZE PUSH1 0x0 REVERT JUMPDEST POP POP POP POP PUSH1 0x40 MLOAD RETURNDATASIZE PUSH1 0x1F NOT PUSH1 0x1F DUP3 ADD AND DUP3 ADD DUP1 PUSH1 0x40 MSTORE POP DUP2 ADD SWAP1 PUSH2 0xE05 SWAP2 SWAP1 PUSH2 0x4DAA JUMP JUMPDEST SWAP1 POP JUMPDEST SWAP2 SWAP1 POP JUMP JUMPDEST PUSH2 0xE15 PUSH2 0x2253 JUMP JUMPDEST PUSH1 0x1 PUSH1 0x1 PUSH1 0xA0 SHL SUB DUP2 AND PUSH1 0x0 SWAP1 DUP2 MSTORE PUSH1 0xF PUSH1 0x20 MSTORE PUSH1 0x40 SWAP1 KECCAK256 SLOAD PUSH1 0xFF AND ISZERO PUSH2 0xE44 JUMPI PUSH2 0xE44 PUSH2 0x954 PUSH1 0x0 DUP4 PUSH2 0x2276 JUMP JUMPDEST PUSH1 0x1 PUSH1 0x1 PUSH1 0xA0 SHL SUB DUP2 AND PUSH1 0x0 SWAP1 DUP2 MSTORE PUSH1 0xF PUSH1 0x20 MSTORE PUSH1 0x40 SWAP1 DUP2 SWAP1 KECCAK256 DUP1 SLOAD PUSH1 0xFF NOT AND PUSH1 0x1 OR SWAP1 SSTORE MLOAD PUSH32 0x5738EE3C8E8FE8B0B9C4C21B16FDCA42EC02E271237DFEABBF3B5AF1584D732B SWAP1 PUSH2 0xE97 SWAP1 DUP4 SWAP1 PUSH2 0x4E9A JUMP JUMPDEST PUSH1 0x40 MLOAD DUP1 SWAP2 SUB SWAP1 LOG1 POP JUMP JUMPDEST PUSH1 0x14 PUSH1 0x20 SWAP1 DUP2 MSTORE PUSH1 0x0 SWAP3 DUP4 MSTORE PUSH1 0x40 DUP1 DUP5 KECCAK256 SWAP1 SWAP2 MSTORE SWAP1 DUP3 MSTORE SWAP1 KECCAK256 DUP1 SLOAD PUSH1 0x1 DUP3 ADD SLOAD PUSH1 0x2 SWAP1 SWAP3 ADD SLOAD SWAP1 SWAP2 SWAP1 DUP4 JUMP JUMPDEST CALLER PUSH2 0xED7 PUSH2 0x4A2F JUMP JUMPDEST PUSH1 0x1 PUSH1 0x1 PUSH1 0xA0 SHL SUB DUP3 AND PUSH1 0x0 SWAP1 DUP2 MSTORE PUSH32 0x5B8CCBB9D4D8FB16EA74CE3C29A41F1B461FBDAFF4714A0D9A8EB05499746BC PUSH1 0x20 MSTORE PUSH1 0x40 SWAP1 KECCAK256 PUSH2 0xF17 SWAP1 PUSH2 0x22E4 JUMP JUMPDEST SWAP1 POP PUSH1 0x0 PUSH2 0xF3F DUP3 PUSH1 0x20 ADD MLOAD PUSH1 0x1 PUSH1 0x1 PUSH1 0x60 SHL SUB AND DUP4 PUSH1 0x40 ADD MLOAD PUSH1 0x1 PUSH1 0x1 PUSH1 0x60 SHL SUB AND PUSH2 0x2368 JUMP JUMPDEST SWAP1 POP DUP1 DUP5 GT ISZERO PUSH2 0xF56 JUMPI PUSH2 0xF56 PUSH2 0x954 DUP6 DUP4 PUSH2 0x237E JUMP JUMPDEST PUSH1 0x1 PUSH1 0x1 PUSH1 0xA0 SHL SUB DUP4 AND PUSH1 0x0 SWAP1 DUP2 MSTORE PUSH32 0x5B8CCBB9D4D8FB16EA74CE3C29A41F1B461FBDAFF4714A0D9A8EB05499746BC PUSH1 0x20 MSTORE PUSH1 0x40 SWAP1 KECCAK256 PUSH2 0xF97 SWAP1 DUP6 PUSH2 0x23C3 JUMP JUMPDEST PUSH2 0xF9F PUSH2 0x1ADA JUMP JUMPDEST PUSH1 0x1 PUSH1 0x1 PUSH1 0xA0 SHL SUB AND PUSH4 0x9470B0BD DUP5 DUP7 PUSH1 0x40 MLOAD DUP4 PUSH4 0xFFFFFFFF AND PUSH1 0xE0 SHL DUP2 MSTORE PUSH1 0x4 ADD PUSH2 0xFCC SWAP3 SWAP2 SWAP1 PUSH2 0x4EAE JUMP JUMPDEST PUSH1 0x0 PUSH1 0x40 MLOAD DUP1 DUP4 SUB DUP2 PUSH1 0x0 DUP8 DUP1 EXTCODESIZE ISZERO DUP1 ISZERO PUSH2 0xFE6 JUMPI PUSH1 0x0 DUP1 REVERT JUMPDEST POP GAS CALL ISZERO DUP1 ISZERO PUSH2 0xFFA JUMPI RETURNDATASIZE PUSH1 0x0 DUP1 RETURNDATACOPY RETURNDATASIZE PUSH1 0x0 REVERT JUMPDEST POP POP POP POP DUP3 PUSH1 0x1 PUSH1 0x1 PUSH1 0xA0 SHL SUB AND PUSH32 0x85082129D87B2FE11527CB1B3B7A520AEB5AA6913F88A3D8757FE40D1DB02FDD DUP6 PUSH1 0x40 MLOAD PUSH2 0x1037 SWAP2 SWAP1 PUSH2 0x4F1F JUMP JUMPDEST PUSH1 0x40 MLOAD DUP1 SWAP2 SUB SWAP1 LOG2 POP POP POP POP JUMP JUMPDEST PUSH2 0x104D PUSH2 0x2253 JUMP JUMPDEST PUSH1 0x1 PUSH1 0x1 PUSH1 0xA0 SHL SUB DUP2 AND PUSH1 0x0 SWAP1 DUP2 MSTORE PUSH1 0xF PUSH1 0x20 MSTORE PUSH1 0x40 SWAP1 KECCAK256 SLOAD PUSH1 0xFF AND PUSH2 0x107B JUMPI PUSH2 0x107B PUSH2 0x954 PUSH1 0x1 DUP4 PUSH2 0x2276 JUMP JUMPDEST PUSH1 0x1 PUSH1 0x1 PUSH1 0xA0 SHL SUB DUP2 AND PUSH1 0x0 SWAP1 DUP2 MSTORE PUSH1 0xF PUSH1 0x20 MSTORE PUSH1 0x40 SWAP1 DUP2 SWAP1 KECCAK256 DUP1 SLOAD PUSH1 0xFF NOT AND SWAP1 SSTORE MLOAD PUSH32 0x9BF55462CB5FA187F725D06DE0A70BC01C4E40695570BDC25AD116F9BE46BDA7 SWAP1 PUSH2 0xE97 SWAP1 DUP4 SWAP1 PUSH2 0x4E9A JUMP JUMPDEST PUSH1 0x15 PUSH1 0x20 MSTORE PUSH1 0x0 SWAP1 DUP2 MSTORE PUSH1 0x40 SWAP1 KECCAK256 DUP1 SLOAD PUSH1 0x1 DUP3 ADD SLOAD PUSH1 0x2 DUP4 ADD SLOAD PUSH1 0x3 DUP5 ADD SLOAD PUSH1 0x4 SWAP1 SWAP5 ADD SLOAD SWAP3 SWAP4 SWAP2 SWAP3 SWAP1 SWAP2 SWAP1 DUP6 JUMP JUMPDEST DUP2 PUSH2 0x1104 DUP2 PUSH2 0x2435 JUMP JUMPDEST PUSH1 0x0 DUP4 DUP2 MSTORE PUSH1 0x9 PUSH1 0x20 MSTORE PUSH1 0x40 SWAP1 KECCAK256 PUSH1 0x1 PUSH1 0x1 PUSH1 0xA0 SHL SUB DUP4 AND ISZERO DUP1 PUSH2 0x1137 JUMPI POP PUSH1 0x1 DUP2 ADD SLOAD PUSH1 0x1 PUSH1 0x1 PUSH1 0xA0 SHL SUB DUP5 DUP2 AND SWAP2 AND EQ JUMPDEST ISZERO PUSH2 0x1142 JUMPI POP PUSH2 0x115F JUMP JUMPDEST PUSH1 0x1 ADD DUP1 SLOAD PUSH1 0x1 PUSH1 0x1 PUSH1 0xA0 SHL SUB NOT AND PUSH1 0x1 PUSH1 0x1 PUSH1 0xA0 SHL SUB DUP5 AND OR SWAP1 SSTORE JUMPDEST POP POP POP JUMP JUMPDEST PUSH2 0x116C PUSH2 0x4A2F JUMP JUMPDEST PUSH1 0x0 DUP3 DUP2 MSTORE PUSH1 0x7 PUSH1 0x20 MSTORE PUSH1 0x40 SWAP1 KECCAK256 PUSH2 0xE05 SWAP1 PUSH2 0x22E4 JUMP JUMPDEST PUSH2 0x118B PUSH2 0x2461 JUMP JUMPDEST PUSH2 0x1194 DUP2 PUSH2 0x248E JUMP JUMPDEST POP JUMP JUMPDEST PUSH2 0x119F PUSH2 0x4A2F JUMP JUMPDEST PUSH2 0x11E0 PUSH1 0x5 PUSH1 0x0 DUP5 PUSH1 0x1 DUP2 GT ISZERO PUSH2 0x11B2 JUMPI INVALID JUMPDEST PUSH1 0xFF AND DUP2 MSTORE PUSH1 0x20 DUP1 DUP3 ADD SWAP3 SWAP1 SWAP3 MSTORE PUSH1 0x40 SWAP1 DUP2 ADD PUSH1 0x0 SWAP1 DUP2 KECCAK256 PUSH1 0x1 PUSH1 0x1 PUSH1 0xA0 SHL SUB DUP9 AND DUP3 MSTORE SWAP1 SWAP3 MSTORE SWAP1 KECCAK256 PUSH2 0x22E4 JUMP JUMPDEST SWAP1 POP JUMPDEST SWAP3 SWAP2 POP POP JUMP JUMPDEST PUSH2 0x11F1 PUSH2 0x4A4F JUMP JUMPDEST POP PUSH1 0x0 SWAP1 DUP2 MSTORE PUSH1 0x14 PUSH1 0x20 SWAP1 DUP2 MSTORE PUSH1 0x40 DUP1 DUP4 KECCAK256 PUSH1 0xB SLOAD DUP5 MSTORE DUP3 MSTORE SWAP2 DUP3 SWAP1 KECCAK256 DUP3 MLOAD PUSH1 0x60 DUP2 ADD DUP5 MSTORE DUP2 SLOAD DUP2 MSTORE PUSH1 0x1 DUP3 ADD SLOAD SWAP3 DUP2 ADD SWAP3 SWAP1 SWAP3 MSTORE PUSH1 0x2 ADD SLOAD SWAP2 DUP2 ADD SWAP2 SWAP1 SWAP2 MSTORE SWAP1 JUMP JUMPDEST PUSH1 0x2 DUP2 DUP2 SLOAD DUP2 LT PUSH2 0x1244 JUMPI PUSH1 0x0 DUP1 REVERT JUMPDEST PUSH1 0x0 SWAP2 DUP3 MSTORE PUSH1 0x20 SWAP1 SWAP2 KECCAK256 ADD SLOAD PUSH1 0x1 PUSH1 0x1 PUSH1 0xA0 SHL SUB AND SWAP1 POP DUP2 JUMP JUMPDEST PUSH2 0x1266 PUSH2 0x4A70 JUMP JUMPDEST POP PUSH1 0x0 SWAP1 DUP2 MSTORE PUSH1 0x9 PUSH1 0x20 SWAP1 DUP2 MSTORE PUSH1 0x40 SWAP2 DUP3 SWAP1 KECCAK256 DUP3 MLOAD PUSH1 0x80 DUP2 ADD DUP5 MSTORE DUP2 SLOAD PUSH1 0x1 PUSH1 0x1 PUSH1 0xA0 SHL SUB SWAP1 DUP2 AND DUP3 MSTORE PUSH1 0x1 SWAP1 SWAP3 ADD SLOAD SWAP2 DUP3 AND SWAP3 DUP2 ADD SWAP3 SWAP1 SWAP3 MSTORE PUSH4 0xFFFFFFFF PUSH1 0x1 PUSH1 0xA0 SHL DUP3 DIV DUP2 AND SWAP4 DUP4 ADD SWAP4 SWAP1 SWAP4 MSTORE PUSH1 0x1 PUSH1 0xC0 SHL SWAP1 DIV SWAP1 SWAP2 AND PUSH1 0x60 DUP3 ADD MSTORE SWAP1 JUMP JUMPDEST PUSH1 0xF PUSH1 0x20 MSTORE PUSH1 0x0 SWAP1 DUP2 MSTORE PUSH1 0x40 SWAP1 KECCAK256 SLOAD PUSH1 0xFF AND DUP2 JUMP JUMPDEST PUSH1 0xC SLOAD DUP2 JUMP JUMPDEST CALLER DUP2 PUSH2 0x12EE JUMPI POP PUSH2 0x115F JUMP JUMPDEST PUSH1 0x0 PUSH2 0x12FD PUSH1 0x20 DUP7 ADD DUP7 PUSH2 0x4D53 JUMP JUMPDEST PUSH1 0x1 DUP2 GT ISZERO PUSH2 0x1308 JUMPI INVALID JUMPDEST EQ DUP1 ISZERO PUSH2 0x132C JUMPI POP PUSH1 0x0 PUSH2 0x131F PUSH1 0x20 DUP6 ADD DUP6 PUSH2 0x4D53 JUMP JUMPDEST PUSH1 0x1 DUP2 GT ISZERO PUSH2 0x132A JUMPI INVALID JUMPDEST EQ JUMPDEST ISZERO PUSH2 0x1337 JUMPI POP PUSH2 0x115F JUMP JUMPDEST PUSH1 0x1 PUSH2 0x1346 PUSH1 0x20 DUP7 ADD DUP7 PUSH2 0x4D53 JUMP JUMPDEST PUSH1 0x1 DUP2 GT ISZERO PUSH2 0x1351 JUMPI INVALID JUMPDEST EQ ISZERO PUSH2 0x1366 JUMPI PUSH2 0x1366 DUP5 PUSH1 0x20 ADD CALLDATALOAD DUP3 DUP5 PUSH2 0x2562 JUMP JUMPDEST PUSH1 0x1 PUSH2 0x1375 PUSH1 0x20 DUP6 ADD DUP6 PUSH2 0x4D53 JUMP JUMPDEST PUSH1 0x1 DUP2 GT ISZERO PUSH2 0x1380 JUMPI INVALID JUMPDEST EQ ISZERO PUSH2 0x1395 JUMPI PUSH2 0x1395 DUP4 PUSH1 0x20 ADD CALLDATALOAD DUP3 DUP5 PUSH2 0x25EE JUMP JUMPDEST PUSH1 0x0 PUSH1 0x5 DUP2 PUSH2 0x13A7 PUSH1 0x20 DUP9 ADD DUP9 PUSH2 0x4D53 JUMP JUMPDEST PUSH1 0x1 DUP2 GT ISZERO PUSH2 0x13B2 JUMPI INVALID JUMPDEST PUSH1 0xFF AND DUP2 MSTORE PUSH1 0x20 DUP1 DUP3 ADD SWAP3 SWAP1 SWAP3 MSTORE PUSH1 0x40 SWAP1 DUP2 ADD PUSH1 0x0 SWAP1 DUP2 KECCAK256 PUSH1 0x1 PUSH1 0x1 PUSH1 0xA0 SHL SUB DUP7 AND DUP3 MSTORE DUP4 MSTORE SWAP1 DUP2 KECCAK256 SWAP3 POP SWAP1 PUSH1 0x5 SWAP1 DUP3 SWAP1 PUSH2 0x13EF SWAP1 DUP9 ADD DUP9 PUSH2 0x4D53 JUMP JUMPDEST PUSH1 0x1 DUP2 GT ISZERO PUSH2 0x13FA JUMPI INVALID JUMPDEST PUSH1 0xFF AND DUP2 MSTORE PUSH1 0x20 DUP1 DUP3 ADD SWAP3 SWAP1 SWAP3 MSTORE PUSH1 0x40 SWAP1 DUP2 ADD PUSH1 0x0 SWAP1 DUP2 KECCAK256 PUSH1 0x1 PUSH1 0x1 PUSH1 0xA0 SHL SUB DUP8 AND DUP3 MSTORE SWAP1 SWAP3 MSTORE SWAP1 KECCAK256 SWAP1 POP PUSH2 0x1430 DUP3 DUP3 DUP7 PUSH2 0x267A JUMP JUMPDEST PUSH1 0x20 DUP1 DUP7 ADD CALLDATALOAD SWAP1 DUP8 ADD DUP1 CALLDATALOAD SWAP1 PUSH1 0x1 PUSH1 0x1 PUSH1 0xA0 SHL SUB DUP7 AND SWAP1 PUSH32 0x7D3AD1DCF03B9027064D1D9A474A69E0CECC31324C541D3EB9B5E6FA2F106C8D SWAP1 DUP9 SWAP1 PUSH2 0x1475 SWAP1 DUP13 PUSH2 0x4D53 JUMP JUMPDEST PUSH1 0x1 DUP2 GT ISZERO PUSH2 0x1480 JUMPI INVALID JUMPDEST PUSH2 0x148D PUSH1 0x20 DUP13 ADD DUP13 PUSH2 0x4D53 JUMP JUMPDEST PUSH1 0x1 DUP2 GT ISZERO PUSH2 0x1498 JUMPI INVALID JUMPDEST PUSH1 0x40 MLOAD PUSH2 0x14A7 SWAP4 SWAP3 SWAP2 SWAP1 PUSH2 0x515E JUMP JUMPDEST PUSH1 0x40 MLOAD DUP1 SWAP2 SUB SWAP1 LOG4 POP POP POP POP POP POP JUMP JUMPDEST DUP2 PUSH2 0x14C1 DUP2 PUSH2 0x2435 JUMP JUMPDEST PUSH1 0x0 DUP4 DUP2 MSTORE PUSH1 0x9 PUSH1 0x20 MSTORE PUSH1 0x40 SWAP1 KECCAK256 PUSH1 0x1 ADD SLOAD PUSH1 0x1 PUSH1 0xA0 SHL SWAP1 DIV PUSH4 0xFFFFFFFF AND PUSH2 0x14EB DUP5 DUP3 DUP6 PUSH2 0x274E JUMP JUMPDEST PUSH1 0x0 DUP5 DUP2 MSTORE PUSH1 0x9 PUSH1 0x20 MSTORE PUSH1 0x40 SWAP1 DUP2 SWAP1 KECCAK256 PUSH1 0x1 ADD DUP1 SLOAD PUSH4 0xFFFFFFFF PUSH1 0xA0 SHL NOT AND PUSH1 0x1 PUSH1 0xA0 SHL PUSH4 0xFFFFFFFF DUP8 AND MUL OR SWAP1 SSTORE MLOAD DUP5 SWAP1 PUSH32 0x8EA2A7A959BD25F226B7B0A4393613F7FDCAA8404E8BAD96AA52DC1C14590167 SWAP1 PUSH2 0x1037 SWAP1 DUP5 SWAP1 DUP8 SWAP1 PUSH2 0x5188 JUMP JUMPDEST PUSH1 0x10 SLOAD PUSH1 0x11 SLOAD PUSH1 0x12 SLOAD PUSH1 0x13 SLOAD SWAP3 SWAP4 PUSH4 0xFFFFFFFF SWAP3 DUP4 AND SWAP4 SWAP2 SWAP3 DUP3 DUP2 AND SWAP3 PUSH5 0x100000000 SWAP1 DIV AND SWAP1 JUMP JUMPDEST PUSH1 0x10 SLOAD DUP2 JUMP JUMPDEST PUSH2 0x1583 PUSH2 0x2461 JUMP JUMPDEST PUSH1 0x1 PUSH1 0x1 PUSH1 0xA0 SHL SUB DUP2 AND PUSH1 0x0 SWAP1 DUP2 MSTORE PUSH1 0x1 PUSH1 0x20 MSTORE PUSH1 0x40 SWAP1 KECCAK256 SLOAD PUSH1 0xFF AND PUSH2 0x15AF JUMPI PUSH2 0x15AF PUSH2 0x954 DUP3 PUSH2 0x2796 JUMP JUMPDEST PUSH1 0x0 JUMPDEST PUSH1 0x2 SLOAD DUP2 LT ISZERO PUSH2 0x1605 JUMPI DUP2 PUSH1 0x1 PUSH1 0x1 PUSH1 0xA0 SHL SUB AND PUSH1 0x2 DUP3 DUP2 SLOAD DUP2 LT PUSH2 0x15D3 JUMPI INVALID JUMPDEST PUSH1 0x0 SWAP2 DUP3 MSTORE PUSH1 0x20 SWAP1 SWAP2 KECCAK256 ADD SLOAD PUSH1 0x1 PUSH1 0x1 PUSH1 0xA0 SHL SUB AND EQ ISZERO PUSH2 0x15FD JUMPI PUSH2 0x15F8 DUP3 DUP3 PUSH2 0x27DE JUMP JUMPDEST PUSH2 0x1605 JUMP JUMPDEST PUSH1 0x1 ADD PUSH2 0x15B2 JUMP JUMPDEST POP POP JUMP JUMPDEST PUSH1 0xB SLOAD DUP2 JUMP JUMPDEST PUSH1 0x8 PUSH1 0x20 MSTORE PUSH1 0x0 SWAP1 DUP2 MSTORE PUSH1 0x40 SWAP1 KECCAK256 SLOAD DUP2 JUMP JUMPDEST PUSH1 0x13 SLOAD PUSH4 0xFFFFFFFF AND DUP2 JUMP JUMPDEST PUSH1 0x0 SLOAD PUSH1 0x1 PUSH1 0x1 PUSH1 0xA0 SHL SUB AND DUP2 JUMP JUMPDEST PUSH2 0x1644 PUSH2 0x2461 JUMP JUMPDEST PUSH2 0x1605 DUP3 DUP3 PUSH2 0x27DE JUMP JUMPDEST PUSH2 0x1656 PUSH2 0x2253 JUMP JUMPDEST PUSH2 0x1663 DUP6 DUP6 DUP6 DUP6 DUP6 PUSH2 0x2972 JUMP JUMPDEST ADDRESS PUSH1 0x1 PUSH1 0x1 PUSH1 0xA0 SHL SUB AND PUSH4 0xC6F3A427 PUSH1 0x40 MLOAD DUP2 PUSH4 0xFFFFFFFF AND PUSH1 0xE0 SHL DUP2 MSTORE PUSH1 0x4 ADD PUSH1 0x0 PUSH1 0x40 MLOAD DUP1 DUP4 SUB DUP2 DUP7 DUP1 EXTCODESIZE ISZERO DUP1 ISZERO PUSH2 0x169C JUMPI PUSH1 0x0 DUP1 REVERT JUMPDEST POP GAS STATICCALL ISZERO DUP1 ISZERO PUSH2 0x16B0 JUMPI RETURNDATASIZE PUSH1 0x0 DUP1 RETURNDATACOPY RETURNDATASIZE PUSH1 0x0 REVERT JUMPDEST POP POP POP POP POP POP POP POP POP JUMP JUMPDEST PUSH1 0x12 SLOAD DUP2 JUMP JUMPDEST CALLER PUSH2 0x16CA PUSH2 0x1ADA JUMP JUMPDEST PUSH1 0x1 PUSH1 0x1 PUSH1 0xA0 SHL SUB AND PUSH4 0x15CC36F2 DUP3 DUP5 PUSH1 0x40 MLOAD DUP4 PUSH4 0xFFFFFFFF AND PUSH1 0xE0 SHL DUP2 MSTORE PUSH1 0x4 ADD PUSH2 0x16F7 SWAP3 SWAP2 SWAP1 PUSH2 0x4EAE JUMP JUMPDEST PUSH1 0x0 PUSH1 0x40 MLOAD DUP1 DUP4 SUB DUP2 PUSH1 0x0 DUP8 DUP1 EXTCODESIZE ISZERO DUP1 ISZERO PUSH2 0x1711 JUMPI PUSH1 0x0 DUP1 REVERT JUMPDEST POP GAS CALL ISZERO DUP1 ISZERO PUSH2 0x1725 JUMPI RETURNDATASIZE PUSH1 0x0 DUP1 RETURNDATACOPY RETURNDATASIZE PUSH1 0x0 REVERT JUMPDEST POP POP POP POP PUSH1 0x1 PUSH1 0x1 PUSH1 0xA0 SHL SUB DUP2 AND PUSH1 0x0 SWAP1 DUP2 MSTORE PUSH32 0x5B8CCBB9D4D8FB16EA74CE3C29A41F1B461FBDAFF4714A0D9A8EB05499746BC PUSH1 0x20 MSTORE PUSH1 0x40 SWAP1 KECCAK256 PUSH2 0x176A SWAP1 DUP4 PUSH2 0x2A03 JUMP JUMPDEST DUP1 PUSH1 0x1 PUSH1 0x1 PUSH1 0xA0 SHL SUB AND PUSH32 0xEBEDB8B3C678666E7F36970BC8F57ABF6D8FA2E828C0DA91EA5B75BF68ED101A DUP4 PUSH1 0x40 MLOAD PUSH2 0x17A3 SWAP2 SWAP1 PUSH2 0x4F1F JUMP JUMPDEST PUSH1 0x40 MLOAD DUP1 SWAP2 SUB SWAP1 LOG2 POP POP JUMP JUMPDEST PUSH1 0x0 PUSH2 0x17C8 PUSH1 0x10 SLOAD PUSH1 0xC SLOAD PUSH2 0x2A59 SWAP1 SWAP2 SWAP1 PUSH4 0xFFFFFFFF AND JUMP JUMPDEST SWAP1 POP SWAP1 JUMP JUMPDEST PUSH2 0x1194 DUP2 CALLER PUSH2 0x2A75 JUMP JUMPDEST PUSH20 0xDE6445484A8DCD9BF35FC95EB4E3990CC358822E SWAP1 JUMP JUMPDEST PUSH1 0x1 PUSH1 0x20 MSTORE PUSH1 0x0 SWAP1 DUP2 MSTORE PUSH1 0x40 SWAP1 KECCAK256 SLOAD PUSH1 0xFF AND DUP2 JUMP JUMPDEST PUSH1 0x0 PUSH2 0x180E PUSH2 0x4A70 JUMP JUMPDEST POP PUSH1 0x0 DUP3 DUP2 MSTORE PUSH1 0x9 PUSH1 0x20 SWAP1 DUP2 MSTORE PUSH1 0x40 DUP1 DUP4 KECCAK256 DUP2 MLOAD PUSH1 0x80 DUP2 ADD DUP4 MSTORE DUP2 SLOAD PUSH1 0x1 PUSH1 0x1 PUSH1 0xA0 SHL SUB SWAP1 DUP2 AND DUP3 MSTORE PUSH1 0x1 SWAP1 SWAP3 ADD SLOAD SWAP2 DUP3 AND SWAP4 DUP2 ADD SWAP4 SWAP1 SWAP4 MSTORE PUSH4 0xFFFFFFFF PUSH1 0x1 PUSH1 0xA0 SHL DUP3 DIV DUP2 AND SWAP3 DUP5 ADD SWAP3 SWAP1 SWAP3 MSTORE PUSH1 0x1 PUSH1 0xC0 SHL SWAP1 DIV AND PUSH1 0x60 DUP3 ADD MSTORE SWAP1 DUP1 PUSH2 0x1874 DUP6 PUSH2 0x2BE3 JUMP JUMPDEST SWAP2 POP SWAP2 POP PUSH2 0x1887 DUP4 PUSH1 0x40 ADD MLOAD DUP4 DUP4 PUSH2 0x2CA0 JUMP JUMPDEST POP SWAP6 SWAP5 POP POP POP POP POP JUMP JUMPDEST PUSH1 0x0 DUP1 PUSH1 0x0 PUSH2 0x189E PUSH2 0x17D7 JUMP JUMPDEST PUSH1 0x1 PUSH1 0x1 PUSH1 0xA0 SHL SUB AND PUSH4 0xB72E717D DUP6 PUSH1 0x40 MLOAD DUP3 PUSH4 0xFFFFFFFF AND PUSH1 0xE0 SHL DUP2 MSTORE PUSH1 0x4 ADD PUSH2 0x18C9 SWAP2 SWAP1 PUSH2 0x4E9A JUMP JUMPDEST PUSH1 0x0 PUSH1 0x40 MLOAD DUP1 DUP4 SUB DUP2 DUP7 DUP1 EXTCODESIZE ISZERO DUP1 ISZERO PUSH2 0x18E1 JUMPI PUSH1 0x0 DUP1 REVERT JUMPDEST POP GAS STATICCALL ISZERO DUP1 ISZERO PUSH2 0x18F5 JUMPI RETURNDATASIZE PUSH1 0x0 DUP1 RETURNDATACOPY RETURNDATASIZE PUSH1 0x0 REVERT JUMPDEST POP POP POP POP PUSH1 0x40 MLOAD RETURNDATASIZE PUSH1 0x0 DUP3 RETURNDATACOPY PUSH1 0x1F RETURNDATASIZE SWAP1 DUP2 ADD PUSH1 0x1F NOT AND DUP3 ADD PUSH1 0x40 MSTORE PUSH2 0x191D SWAP2 SWAP1 DUP2 ADD SWAP1 PUSH2 0x4DC2 JUMP JUMPDEST POP SWAP5 POP POP POP POP SWAP2 POP PUSH1 0x0 DUP3 EQ ISZERO PUSH2 0x1946 JUMPI PUSH1 0x40 MLOAD PUSH3 0x461BCD PUSH1 0xE5 SHL DUP2 MSTORE PUSH1 0x4 ADD PUSH2 0xCFA SWAP1 PUSH2 0x4FDC JUMP JUMPDEST DUP1 CALLER PUSH3 0xAAE60 PUSH3 0x186A0 PUSH2 0x1959 DUP7 PUSH2 0x2CDB JUMP JUMPDEST DUP6 PUSH1 0x0 SHL SWAP7 POP PUSH2 0x1967 PUSH2 0x4A70 JUMP JUMPDEST POP PUSH1 0x40 DUP1 MLOAD PUSH1 0x80 DUP2 ADD DUP3 MSTORE PUSH1 0x1 PUSH1 0x1 PUSH1 0xA0 SHL SUB DUP1 DUP8 AND DUP3 MSTORE DUP6 DUP2 AND PUSH1 0x20 DUP1 DUP5 ADD SWAP2 DUP3 MSTORE PUSH4 0xFFFFFFFF DUP1 DUP9 AND DUP6 DUP8 ADD SWAP1 DUP2 MSTORE DUP8 DUP3 AND PUSH1 0x60 DUP8 ADD SWAP1 DUP2 MSTORE PUSH1 0x0 DUP16 DUP2 MSTORE PUSH1 0x9 SWAP1 SWAP5 MSTORE SWAP3 DUP8 SWAP1 KECCAK256 DUP7 MLOAD DUP2 SLOAD SWAP1 DUP8 AND PUSH1 0x1 PUSH1 0x1 PUSH1 0xA0 SHL SUB NOT SWAP2 DUP3 AND OR DUP3 SSTORE SWAP5 MLOAD PUSH1 0x1 SWAP1 SWAP2 ADD DUP1 SLOAD SWAP3 MLOAD SWAP5 MLOAD DUP5 AND PUSH1 0x1 PUSH1 0xC0 SHL MUL PUSH4 0xFFFFFFFF PUSH1 0xC0 SHL NOT SWAP6 SWAP1 SWAP5 AND PUSH1 0x1 PUSH1 0xA0 SHL MUL PUSH4 0xFFFFFFFF PUSH1 0xA0 SHL NOT SWAP3 SWAP1 SWAP8 AND SWAP3 SWAP1 SWAP6 AND SWAP2 SWAP1 SWAP2 OR AND SWAP4 SWAP1 SWAP4 OR AND SWAP2 SWAP1 SWAP2 OR SWAP1 SSTORE SWAP1 MLOAD PUSH32 0xCEC6FC86EA644053F6EDFF1160DFE3FA5C61E7A5EF9F873F145BB03A0BD319E7 SWAP1 PUSH2 0x1A42 SWAP1 DUP11 SWAP1 DUP9 SWAP1 DUP8 SWAP1 PUSH2 0x4F28 JUMP JUMPDEST PUSH1 0x40 MLOAD DUP1 SWAP2 SUB SWAP1 LOG1 PUSH2 0x1A54 DUP9 DUP11 PUSH2 0xC44 JUMP JUMPDEST POP POP POP POP POP POP POP SWAP2 SWAP1 POP JUMP JUMPDEST PUSH1 0xA PUSH1 0x20 MSTORE PUSH1 0x0 SWAP1 DUP2 MSTORE PUSH1 0x40 SWAP1 KECCAK256 SLOAD DUP2 JUMP JUMPDEST PUSH1 0x16 SLOAD DUP2 JUMP JUMPDEST PUSH1 0x60 PUSH1 0x2 DUP1 SLOAD DUP1 PUSH1 0x20 MUL PUSH1 0x20 ADD PUSH1 0x40 MLOAD SWAP1 DUP2 ADD PUSH1 0x40 MSTORE DUP1 SWAP3 SWAP2 SWAP1 DUP2 DUP2 MSTORE PUSH1 0x20 ADD DUP3 DUP1 SLOAD DUP1 ISZERO PUSH2 0x1AD0 JUMPI PUSH1 0x20 MUL DUP3 ADD SWAP2 SWAP1 PUSH1 0x0 MSTORE PUSH1 0x20 PUSH1 0x0 KECCAK256 SWAP1 JUMPDEST DUP2 SLOAD PUSH1 0x1 PUSH1 0x1 PUSH1 0xA0 SHL SUB AND DUP2 MSTORE PUSH1 0x1 SWAP1 SWAP2 ADD SWAP1 PUSH1 0x20 ADD DUP1 DUP4 GT PUSH2 0x1AB2 JUMPI JUMPDEST POP POP POP POP POP SWAP1 POP SWAP1 JUMP JUMPDEST PUSH20 0xA33744EE5D57D6D69944213D8E6AD80D64FDC58 SWAP1 JUMP JUMPDEST PUSH1 0x11 SLOAD PUSH4 0xFFFFFFFF AND DUP2 JUMP JUMPDEST PUSH2 0x1B06 PUSH2 0x2253 JUMP JUMPDEST PUSH2 0x1B0E PUSH2 0x2D06 JUMP JUMPDEST PUSH2 0x1B16 PUSH2 0x2D19 JUMP JUMPDEST JUMP JUMPDEST PUSH2 0x1B20 PUSH2 0x4A2F JUMP JUMPDEST PUSH1 0x1 PUSH1 0x0 MSTORE PUSH1 0x4 PUSH1 0x20 MSTORE PUSH2 0x1B53 PUSH32 0xABD6E7CB50984FF9C2F3E18A2660C3353DADF4E3291DEEB275DAE2CD1E44FE05 PUSH2 0x22E4 JUMP JUMPDEST SWAP1 POP PUSH1 0x0 DUP3 PUSH1 0x1 DUP2 GT ISZERO PUSH2 0x1B63 JUMPI INVALID JUMPDEST EQ ISZERO PUSH2 0xE08 JUMPI PUSH1 0x0 PUSH2 0x1B73 PUSH2 0x1ADA JUMP JUMPDEST PUSH1 0x1 PUSH1 0x1 PUSH1 0xA0 SHL SUB AND PUSH4 0x6B6DF5AA PUSH1 0x40 MLOAD DUP2 PUSH4 0xFFFFFFFF AND PUSH1 0xE0 SHL DUP2 MSTORE PUSH1 0x4 ADD PUSH1 0x20 PUSH1 0x40 MLOAD DUP1 DUP4 SUB DUP2 DUP7 DUP1 EXTCODESIZE ISZERO DUP1 ISZERO PUSH2 0x1BAB JUMPI PUSH1 0x0 DUP1 REVERT JUMPDEST POP GAS STATICCALL ISZERO DUP1 ISZERO PUSH2 0x1BBF JUMPI RETURNDATASIZE PUSH1 0x0 DUP1 RETURNDATACOPY RETURNDATASIZE PUSH1 0x0 REVERT JUMPDEST POP POP POP POP PUSH1 0x40 MLOAD RETURNDATASIZE PUSH1 0x1F NOT PUSH1 0x1F DUP3 ADD AND DUP3 ADD DUP1 PUSH1 0x40 MSTORE POP DUP2 ADD SWAP1 PUSH2 0x1BE3 SWAP2 SWAP1 PUSH2 0x4DAA JUMP JUMPDEST SWAP1 POP PUSH2 0x1C0D PUSH2 0x1C08 DUP4 PUSH1 0x20 ADD MLOAD PUSH1 0x1 PUSH1 0x1 PUSH1 0x60 SHL SUB AND DUP4 PUSH2 0x211F SWAP1 SWAP2 SWAP1 PUSH4 0xFFFFFFFF AND JUMP JUMPDEST PUSH2 0x2D44 JUMP JUMPDEST PUSH1 0x1 PUSH1 0x1 PUSH1 0x60 SHL SUB SWAP1 DUP2 AND PUSH1 0x20 DUP5 ADD MSTORE PUSH1 0x40 DUP4 ADD MLOAD PUSH2 0x1C32 SWAP2 PUSH2 0x1C08 SWAP2 DUP5 SWAP2 AND PUSH2 0x211F JUMP JUMPDEST PUSH1 0x1 PUSH1 0x1 PUSH1 0x60 SHL SUB AND PUSH1 0x40 DUP4 ADD MSTORE POP SWAP2 SWAP1 POP JUMP JUMPDEST PUSH1 0x13 SLOAD PUSH5 0x100000000 SWAP1 DIV PUSH4 0xFFFFFFFF AND DUP2 JUMP JUMPDEST PUSH1 0x0 PUSH2 0x1C64 PUSH2 0x4A70 JUMP JUMPDEST POP PUSH1 0x0 DUP4 DUP2 MSTORE PUSH1 0x9 PUSH1 0x20 SWAP1 DUP2 MSTORE PUSH1 0x40 DUP1 DUP4 KECCAK256 DUP2 MLOAD PUSH1 0x80 DUP2 ADD DUP4 MSTORE DUP2 SLOAD PUSH1 0x1 PUSH1 0x1 PUSH1 0xA0 SHL SUB SWAP1 DUP2 AND DUP3 MSTORE PUSH1 0x1 SWAP1 SWAP3 ADD SLOAD SWAP2 DUP3 AND SWAP4 DUP2 ADD SWAP4 SWAP1 SWAP4 MSTORE PUSH4 0xFFFFFFFF PUSH1 0x1 PUSH1 0xA0 SHL DUP3 DIV DUP2 AND SWAP3 DUP5 ADD SWAP3 SWAP1 SWAP3 MSTORE PUSH1 0x1 PUSH1 0xC0 SHL SWAP1 DIV AND PUSH1 0x60 DUP3 ADD MSTORE SWAP1 DUP1 PUSH2 0x1CCA DUP7 PUSH2 0x2BE3 JUMP JUMPDEST SWAP2 POP SWAP2 POP PUSH1 0x0 PUSH2 0x1CDF DUP5 PUSH1 0x40 ADD MLOAD DUP5 DUP5 PUSH2 0x2CA0 JUMP JUMPDEST SWAP2 POP POP PUSH2 0x1CEE DUP8 DUP8 DUP4 DUP6 PUSH2 0x2D63 JUMP JUMPDEST SWAP8 SWAP7 POP POP POP POP POP POP POP JUMP JUMPDEST CALLER PUSH1 0x0 SWAP1 DUP2 MSTORE PUSH1 0xF PUSH1 0x20 MSTORE PUSH1 0x40 SWAP1 KECCAK256 SLOAD PUSH1 0xFF AND PUSH2 0x1D1C JUMPI PUSH2 0x1D1C PUSH2 0x954 CALLER PUSH2 0x2E6F JUMP JUMPDEST PUSH1 0x1 PUSH1 0x1 PUSH1 0xA0 SHL SUB DUP3 AND PUSH1 0x0 SWAP1 DUP2 MSTORE PUSH1 0x8 PUSH1 0x20 MSTORE PUSH1 0x40 SWAP1 KECCAK256 SLOAD DUP1 PUSH2 0x1D40 JUMPI POP PUSH2 0x1605 JUMP JUMPDEST PUSH1 0x0 PUSH2 0x1D4B DUP3 PUSH2 0x1164 JUMP JUMPDEST PUSH1 0x20 ADD MLOAD PUSH1 0x1 PUSH1 0x1 PUSH1 0x60 SHL SUB AND SWAP1 POP PUSH1 0x12 SLOAD DUP2 LT ISZERO PUSH2 0x1D6B JUMPI POP POP PUSH2 0x1605 JUMP JUMPDEST PUSH1 0xB SLOAD PUSH1 0x0 DUP4 DUP2 MSTORE PUSH1 0x14 PUSH1 0x20 SWAP1 DUP2 MSTORE PUSH1 0x40 DUP1 DUP4 KECCAK256 DUP5 DUP5 MSTORE DUP3 MSTORE DUP1 DUP4 KECCAK256 PUSH1 0x15 SWAP1 SWAP3 MSTORE SWAP1 SWAP2 KECCAK256 DUP2 SLOAD DUP1 PUSH2 0x1E0E JUMPI PUSH1 0x0 DUP1 PUSH2 0x1DA3 DUP9 DUP9 PUSH2 0x2EB7 JUMP JUMPDEST PUSH1 0x2 DUP8 ADD DUP3 SWAP1 SSTORE PUSH1 0x1 DUP8 ADD DUP2 SWAP1 SSTORE PUSH1 0x3 DUP7 ADD SLOAD SWAP2 SWAP4 POP SWAP2 POP PUSH2 0x1DC5 SWAP1 DUP3 PUSH2 0x2A59 JUMP JUMPDEST PUSH1 0x3 DUP6 ADD SSTORE PUSH1 0x1 DUP1 DUP6 ADD SLOAD PUSH2 0x1DD9 SWAP2 PUSH2 0x2A59 JUMP JUMPDEST PUSH1 0x1 DUP6 ADD SSTORE PUSH1 0x40 MLOAD DUP9 SWAP1 DUP8 SWAP1 PUSH32 0x14B098103235344975B17508C2391721CC9AC3F3FA2B56C7FF46F8480DFD074F SWAP1 PUSH1 0x0 SWAP1 LOG3 POP POP JUMPDEST DUP1 DUP8 GT ISZERO PUSH2 0x1E3A JUMPI DUP7 DUP4 SSTORE PUSH1 0x2 DUP3 ADD SLOAD PUSH2 0x1E34 SWAP1 DUP3 SWAP1 PUSH2 0x1E2E SWAP1 DUP11 PUSH2 0x2A59 JUMP JUMPDEST SWAP1 PUSH2 0x211F JUMP JUMPDEST PUSH1 0x2 DUP4 ADD SSTORE JUMPDEST POP POP POP POP POP POP POP POP JUMP JUMPDEST PUSH1 0x3 SLOAD PUSH1 0x1 PUSH1 0x1 PUSH1 0xA0 SHL SUB AND DUP2 JUMP JUMPDEST PUSH20 0x4FBB350052BCA5417566F188EB2EBCE5B19BC964 SWAP1 JUMP JUMPDEST PUSH2 0x1E73 PUSH2 0x4A2F JUMP JUMPDEST PUSH1 0x1 PUSH1 0x1 PUSH1 0xA0 SHL SUB DUP4 AND PUSH1 0x0 SWAP1 DUP2 MSTORE PUSH1 0x6 PUSH1 0x20 SWAP1 DUP2 MSTORE PUSH1 0x40 DUP1 DUP4 KECCAK256 DUP6 DUP5 MSTORE SWAP1 SWAP2 MSTORE SWAP1 KECCAK256 PUSH2 0x11E0 SWAP1 PUSH2 0x22E4 JUMP JUMPDEST PUSH2 0x1EA7 PUSH2 0x2461 JUMP JUMPDEST PUSH1 0x1 PUSH1 0x1 PUSH1 0xA0 SHL SUB DUP2 AND PUSH2 0x1EC5 JUMPI PUSH2 0x1EC0 PUSH2 0x954 PUSH2 0x2F25 JUMP JUMPDEST PUSH2 0x1194 JUMP JUMPDEST PUSH1 0x0 DUP1 SLOAD PUSH1 0x1 PUSH1 0x1 PUSH1 0xA0 SHL SUB NOT AND PUSH1 0x1 PUSH1 0x1 PUSH1 0xA0 SHL SUB DUP4 AND SWAP1 DUP2 OR DUP3 SSTORE PUSH1 0x40 MLOAD SWAP1 SWAP2 CALLER SWAP2 PUSH32 0x8BE0079C531659141344CD1FD0A4F28419497F9722A3DAAFE3B4186F6B6457E0 SWAP2 SWAP1 LOG3 POP JUMP JUMPDEST PUSH1 0xB SLOAD PUSH1 0x0 PUSH2 0x1F20 DUP3 PUSH1 0x1 PUSH2 0x211F JUMP JUMPDEST SWAP1 POP PUSH2 0x1F2A PUSH2 0x4A00 JUMP JUMPDEST POP PUSH1 0x0 DUP2 DUP2 MSTORE PUSH1 0x15 PUSH1 0x20 SWAP1 DUP2 MSTORE PUSH1 0x40 SWAP2 DUP3 SWAP1 KECCAK256 DUP3 MLOAD PUSH1 0xA0 DUP2 ADD DUP5 MSTORE DUP2 SLOAD DUP2 MSTORE PUSH1 0x1 DUP3 ADD SLOAD SWAP3 DUP2 ADD DUP4 SWAP1 MSTORE PUSH1 0x2 DUP3 ADD SLOAD SWAP4 DUP2 ADD SWAP4 SWAP1 SWAP4 MSTORE PUSH1 0x3 DUP2 ADD SLOAD PUSH1 0x60 DUP5 ADD MSTORE PUSH1 0x4 ADD SLOAD PUSH1 0x80 DUP4 ADD MSTORE PUSH2 0x1F7F JUMPI POP POP POP PUSH2 0x1194 JUMP JUMPDEST PUSH2 0x1F87 PUSH2 0x4A4F JUMP JUMPDEST POP PUSH1 0x0 DUP5 DUP2 MSTORE PUSH1 0x14 PUSH1 0x20 SWAP1 DUP2 MSTORE PUSH1 0x40 DUP1 DUP4 KECCAK256 DUP6 DUP5 MSTORE DUP3 MSTORE SWAP2 DUP3 SWAP1 KECCAK256 DUP3 MLOAD PUSH1 0x60 DUP2 ADD DUP5 MSTORE DUP2 SLOAD DUP1 DUP3 MSTORE PUSH1 0x1 DUP4 ADD SLOAD SWAP4 DUP3 ADD SWAP4 SWAP1 SWAP4 MSTORE PUSH1 0x2 SWAP1 SWAP2 ADD SLOAD SWAP3 DUP2 ADD SWAP3 SWAP1 SWAP3 MSTORE PUSH2 0x1FD5 JUMPI POP POP POP POP PUSH2 0x1194 JUMP JUMPDEST PUSH1 0x0 DUP6 DUP2 MSTORE PUSH1 0x14 PUSH1 0x20 SWAP1 DUP2 MSTORE PUSH1 0x40 DUP1 DUP4 KECCAK256 DUP7 DUP5 MSTORE SWAP1 SWAP2 MSTORE DUP2 KECCAK256 DUP2 DUP2 SSTORE PUSH1 0x1 DUP2 ADD DUP3 SWAP1 SSTORE PUSH1 0x2 ADD DUP2 SWAP1 SSTORE PUSH2 0x2008 DUP3 DUP5 PUSH2 0x2F43 JUMP JUMPDEST SWAP1 POP PUSH1 0x0 DUP1 PUSH2 0x201C DUP9 DUP5 DUP7 PUSH1 0x40 ADD MLOAD PUSH2 0x2FB2 JUMP JUMPDEST SWAP2 POP SWAP2 POP DUP8 DUP8 PUSH32 0xF1116B309178AA62DCB6BF8C3B8BC2321724907C7EBF52192D14C8CE3AA9194C DUP5 DUP5 PUSH1 0x40 MLOAD PUSH2 0x2053 SWAP3 SWAP2 SWAP1 PUSH2 0x4F60 JUMP JUMPDEST PUSH1 0x40 MLOAD DUP1 SWAP2 SUB SWAP1 LOG3 PUSH1 0x0 PUSH2 0x2067 DUP4 DUP4 PUSH2 0x2A59 JUMP JUMPDEST PUSH1 0x80 DUP8 ADD MLOAD SWAP1 SWAP2 POP PUSH2 0x2079 SWAP1 DUP3 PUSH2 0x2A59 JUMP JUMPDEST PUSH1 0x80 DUP8 ADD DUP2 SWAP1 MSTORE PUSH1 0x0 DUP9 DUP2 MSTORE PUSH1 0x15 PUSH1 0x20 SWAP1 DUP2 MSTORE PUSH1 0x40 SWAP1 SWAP2 KECCAK256 PUSH1 0x4 ADD SWAP2 SWAP1 SWAP2 SSTORE DUP7 ADD MLOAD PUSH2 0x20A6 SWAP1 PUSH1 0x1 PUSH2 0x211F JUMP JUMPDEST PUSH1 0x20 DUP1 DUP9 ADD DUP3 DUP2 MSTORE PUSH1 0x0 DUP11 DUP2 MSTORE PUSH1 0x15 SWAP1 SWAP3 MSTORE PUSH1 0x40 SWAP1 SWAP2 KECCAK256 PUSH1 0x1 ADD SWAP2 SWAP1 SWAP2 SSTORE MLOAD PUSH2 0x16B0 JUMPI PUSH1 0x80 DUP7 ADD MLOAD DUP7 MLOAD DUP9 SWAP2 PUSH32 0xB463D19ECF455BE65365092CF8E1DB6934A0334CF8CD532DDF9964D01F36B5B2 SWAP2 PUSH2 0x20FE SWAP1 DUP3 PUSH2 0x211F JUMP JUMPDEST PUSH1 0x40 MLOAD PUSH2 0x210C SWAP3 SWAP2 SWAP1 PUSH2 0x4F60 JUMP JUMPDEST PUSH1 0x40 MLOAD DUP1 SWAP2 SUB SWAP1 LOG2 POP POP POP POP POP POP POP POP POP JUMP JUMPDEST PUSH1 0x0 DUP3 DUP3 GT ISZERO PUSH2 0x2138 JUMPI PUSH2 0x2138 PUSH2 0x954 PUSH1 0x2 DUP6 DUP6 PUSH2 0x3266 JUMP JUMPDEST POP SWAP1 SUB SWAP1 JUMP JUMPDEST PUSH1 0x40 DUP1 MLOAD PUSH1 0x24 DUP2 ADD DUP5 SWAP1 MSTORE PUSH1 0x44 DUP1 DUP3 ADD DUP5 SWAP1 MSTORE DUP3 MLOAD DUP1 DUP4 SUB SWAP1 SWAP2 ADD DUP2 MSTORE PUSH1 0x64 SWAP1 SWAP2 ADD SWAP1 SWAP2 MSTORE PUSH1 0x20 DUP2 ADD DUP1 MLOAD PUSH1 0x1 PUSH1 0x1 PUSH1 0xE0 SHL SUB AND PUSH4 0x30A5C005 PUSH1 0xE1 SHL OR SWAP1 MSTORE SWAP3 SWAP2 POP POP JUMP JUMPDEST DUP1 MLOAD PUSH1 0x20 DUP3 ADD REVERT JUMPDEST PUSH1 0x0 PUSH2 0x17C8 PUSH1 0x16 SLOAD PUSH2 0x219B PUSH2 0x1E53 JUMP JUMPDEST PUSH1 0x1 PUSH1 0x1 PUSH1 0xA0 SHL SUB AND PUSH4 0x70A08231 ADDRESS PUSH1 0x40 MLOAD DUP3 PUSH4 0xFFFFFFFF AND PUSH1 0xE0 SHL DUP2 MSTORE PUSH1 0x4 ADD PUSH2 0x21C6 SWAP2 SWAP1 PUSH2 0x4E9A JUMP JUMPDEST PUSH1 0x20 PUSH1 0x40 MLOAD DUP1 DUP4 SUB DUP2 DUP7 DUP1 EXTCODESIZE ISZERO DUP1 ISZERO PUSH2 0x21DE JUMPI PUSH1 0x0 DUP1 REVERT JUMPDEST POP GAS STATICCALL ISZERO DUP1 ISZERO PUSH2 0x21F2 JUMPI RETURNDATASIZE PUSH1 0x0 DUP1 RETURNDATACOPY RETURNDATASIZE PUSH1 0x0 REVERT JUMPDEST POP POP POP POP PUSH1 0x40 MLOAD RETURNDATASIZE PUSH1 0x1F NOT PUSH1 0x1F DUP3 ADD AND DUP3 ADD DUP1 PUSH1 0x40 MSTORE POP DUP2 ADD SWAP1 PUSH2 0x1E2E SWAP2 SWAP1 PUSH2 0x4DAA JUMP JUMPDEST TIMESTAMP PUSH1 0x0 PUSH2 0x2221 PUSH2 0x17AF JUMP JUMPDEST SWAP1 POP DUP2 DUP2 GT ISZERO PUSH2 0x2238 JUMPI PUSH2 0x2238 PUSH2 0x954 DUP3 DUP5 PUSH2 0x32D8 JUMP JUMPDEST PUSH1 0xB SLOAD PUSH1 0x0 SWAP1 PUSH2 0x2249 SWAP1 PUSH1 0x1 PUSH2 0x2A59 JUMP JUMPDEST PUSH1 0xB SSTORE POP POP PUSH1 0xC SSTORE JUMP JUMPDEST CALLER PUSH1 0x0 SWAP1 DUP2 MSTORE PUSH1 0x1 PUSH1 0x20 MSTORE PUSH1 0x40 SWAP1 KECCAK256 SLOAD PUSH1 0xFF AND PUSH2 0x1B16 JUMPI PUSH2 0x1B16 PUSH2 0x954 CALLER PUSH2 0x331D JUMP JUMPDEST PUSH1 0x60 PUSH4 0xB9588E43 PUSH1 0xE0 SHL DUP4 DUP4 PUSH1 0x40 MLOAD PUSH1 0x24 ADD DUP1 DUP4 PUSH1 0x1 DUP2 GT ISZERO PUSH2 0x2295 JUMPI INVALID JUMPDEST DUP2 MSTORE PUSH1 0x1 PUSH1 0x1 PUSH1 0xA0 SHL SUB SWAP1 SWAP3 AND PUSH1 0x20 DUP1 DUP5 ADD SWAP2 SWAP1 SWAP2 MSTORE PUSH1 0x40 DUP1 MLOAD DUP1 DUP6 SUB DUP4 ADD DUP2 MSTORE SWAP4 DUP2 ADD SWAP1 MSTORE DUP3 ADD DUP1 MLOAD PUSH1 0x1 PUSH1 0x1 PUSH1 0xE0 SHL SUB AND PUSH1 0x1 PUSH1 0x1 PUSH1 0xE0 SHL SUB NOT SWAP1 SWAP6 AND SWAP5 SWAP1 SWAP5 OR SWAP1 SWAP4 MSTORE SWAP6 SWAP5 POP POP POP POP POP JUMP JUMPDEST PUSH2 0x22EC PUSH2 0x4A2F JUMP JUMPDEST POP PUSH1 0x40 DUP1 MLOAD PUSH1 0x60 DUP2 ADD DUP3 MSTORE DUP3 SLOAD PUSH1 0x1 PUSH1 0x1 PUSH1 0x40 SHL SUB DUP2 AND DUP1 DUP4 MSTORE PUSH1 0x1 PUSH1 0x1 PUSH1 0x60 SHL SUB PUSH1 0x1 PUSH1 0x40 SHL DUP4 DIV DUP2 AND PUSH1 0x20 DUP6 ADD MSTORE PUSH1 0x1 PUSH1 0xA0 SHL SWAP1 SWAP3 DIV SWAP1 SWAP2 AND SWAP3 DUP3 ADD SWAP3 SWAP1 SWAP3 MSTORE PUSH1 0xB SLOAD SWAP1 SWAP2 DUP2 GT ISZERO PUSH2 0x2362 JUMPI PUSH2 0x2343 DUP2 PUSH2 0x3365 JUMP JUMPDEST PUSH1 0x1 PUSH1 0x1 PUSH1 0x40 SHL SUB AND DUP3 MSTORE PUSH1 0x40 DUP3 ADD MLOAD PUSH1 0x1 PUSH1 0x1 PUSH1 0x60 SHL SUB AND PUSH1 0x20 DUP4 ADD MSTORE JUMPDEST POP SWAP2 SWAP1 POP JUMP JUMPDEST PUSH1 0x0 DUP2 DUP4 LT PUSH2 0x2377 JUMPI DUP2 PUSH2 0x11E0 JUMP JUMPDEST POP SWAP1 SWAP2 SWAP1 POP JUMP JUMPDEST PUSH1 0x40 DUP1 MLOAD PUSH1 0x24 DUP2 ADD DUP5 SWAP1 MSTORE PUSH1 0x44 DUP1 DUP3 ADD DUP5 SWAP1 MSTORE DUP3 MLOAD DUP1 DUP4 SUB SWAP1 SWAP2 ADD DUP2 MSTORE PUSH1 0x64 SWAP1 SWAP2 ADD SWAP1 SWAP2 MSTORE PUSH1 0x20 DUP2 ADD DUP1 MLOAD PUSH1 0x1 PUSH1 0x1 PUSH1 0xE0 SHL SUB AND PUSH4 0x84C8B7C9 PUSH1 0xE0 SHL OR SWAP1 MSTORE SWAP3 SWAP2 POP POP JUMP JUMPDEST PUSH2 0x23CB PUSH2 0x4A2F JUMP JUMPDEST PUSH2 0x23D4 DUP4 PUSH2 0x22E4 JUMP JUMPDEST SWAP1 POP PUSH2 0x23F9 PUSH2 0x1C08 DUP4 DUP4 PUSH1 0x40 ADD MLOAD PUSH1 0x1 PUSH1 0x1 PUSH1 0x60 SHL SUB AND PUSH2 0x211F SWAP1 SWAP2 SWAP1 PUSH4 0xFFFFFFFF AND JUMP JUMPDEST PUSH1 0x1 PUSH1 0x1 PUSH1 0x60 SHL SUB SWAP1 DUP2 AND PUSH1 0x40 DUP4 ADD MSTORE PUSH1 0x20 DUP3 ADD MLOAD PUSH2 0x241D SWAP2 PUSH2 0x1C08 SWAP2 AND DUP5 PUSH2 0x211F JUMP JUMPDEST PUSH1 0x1 PUSH1 0x1 PUSH1 0x60 SHL SUB AND PUSH1 0x20 DUP3 ADD MSTORE PUSH2 0x115F DUP4 DUP3 PUSH2 0x3384 JUMP JUMPDEST PUSH1 0x0 DUP2 DUP2 MSTORE PUSH1 0x9 PUSH1 0x20 MSTORE PUSH1 0x40 SWAP1 KECCAK256 SLOAD PUSH1 0x1 PUSH1 0x1 PUSH1 0xA0 SHL SUB AND CALLER DUP2 EQ PUSH2 0x1605 JUMPI PUSH2 0x1605 PUSH2 0x954 CALLER DUP5 PUSH2 0x33EE JUMP JUMPDEST PUSH1 0x0 SLOAD PUSH1 0x1 PUSH1 0x1 PUSH1 0xA0 SHL SUB AND CALLER EQ PUSH2 0x1B16 JUMPI PUSH1 0x0 SLOAD PUSH2 0x1B16 SWAP1 PUSH2 0x954 SWAP1 CALLER SWAP1 PUSH1 0x1 PUSH1 0x1 PUSH1 0xA0 SHL SUB AND PUSH2 0x343B JUMP JUMPDEST PUSH1 0x1 PUSH1 0x1 PUSH1 0xA0 SHL SUB DUP2 AND PUSH2 0x24A7 JUMPI PUSH2 0x24A7 PUSH2 0x954 PUSH2 0x348C JUMP JUMPDEST PUSH1 0x1 PUSH1 0x1 PUSH1 0xA0 SHL SUB DUP2 AND PUSH1 0x0 SWAP1 DUP2 MSTORE PUSH1 0x1 PUSH1 0x20 MSTORE PUSH1 0x40 SWAP1 KECCAK256 SLOAD PUSH1 0xFF AND ISZERO PUSH2 0x24D4 JUMPI PUSH2 0x24D4 PUSH2 0x954 DUP3 PUSH2 0x34AA JUMP JUMPDEST PUSH1 0x1 PUSH1 0x1 PUSH1 0xA0 SHL SUB DUP2 AND PUSH1 0x0 DUP2 DUP2 MSTORE PUSH1 0x1 PUSH1 0x20 DUP2 SWAP1 MSTORE PUSH1 0x40 DUP1 DUP4 KECCAK256 DUP1 SLOAD PUSH1 0xFF NOT AND DUP4 OR SWAP1 SSTORE PUSH1 0x2 DUP1 SLOAD SWAP3 DUP4 ADD DUP2 SSTORE DUP4 MSTORE PUSH32 0x405787FA12A823E0F2B7631CC41B3BA8828B3321CA811111FA75CD3AA3BB5ACE SWAP1 SWAP2 ADD DUP1 SLOAD PUSH1 0x1 PUSH1 0x1 PUSH1 0xA0 SHL SUB NOT AND DUP5 OR SWAP1 SSTORE MLOAD CALLER SWAP3 SWAP2 PUSH32 0x3147867C59D17E8FA9D522465651D44AAE0A9E38F902F3475B97E58072F0ED4C SWAP2 LOG3 POP JUMP JUMPDEST PUSH2 0x256B DUP4 PUSH2 0x34F2 JUMP JUMPDEST PUSH2 0x2575 DUP4 DUP4 PUSH2 0x2A75 JUMP JUMPDEST PUSH1 0x1 PUSH1 0x1 PUSH1 0xA0 SHL SUB DUP3 AND PUSH1 0x0 SWAP1 DUP2 MSTORE PUSH1 0x6 PUSH1 0x20 SWAP1 DUP2 MSTORE PUSH1 0x40 DUP1 DUP4 KECCAK256 DUP7 DUP5 MSTORE SWAP1 SWAP2 MSTORE SWAP1 KECCAK256 PUSH2 0x25A2 SWAP1 DUP3 PUSH2 0x351C JUMP JUMPDEST PUSH1 0x0 DUP4 DUP2 MSTORE PUSH1 0x7 PUSH1 0x20 MSTORE PUSH1 0x40 SWAP1 KECCAK256 PUSH2 0x25BA SWAP1 DUP3 PUSH2 0x351C JUMP JUMPDEST PUSH1 0x1 PUSH1 0x0 MSTORE PUSH1 0x4 PUSH1 0x20 MSTORE PUSH2 0x115F PUSH32 0xABD6E7CB50984FF9C2F3E18A2660C3353DADF4E3291DEEB275DAE2CD1E44FE05 DUP3 PUSH2 0x351C JUMP JUMPDEST PUSH2 0x25F7 DUP4 PUSH2 0x34F2 JUMP JUMPDEST PUSH2 0x2601 DUP4 DUP4 PUSH2 0x2A75 JUMP JUMPDEST PUSH1 0x1 PUSH1 0x1 PUSH1 0xA0 SHL SUB DUP3 AND PUSH1 0x0 SWAP1 DUP2 MSTORE PUSH1 0x6 PUSH1 0x20 SWAP1 DUP2 MSTORE PUSH1 0x40 DUP1 DUP4 KECCAK256 DUP7 DUP5 MSTORE SWAP1 SWAP2 MSTORE SWAP1 KECCAK256 PUSH2 0x262E SWAP1 DUP3 PUSH2 0x356A JUMP JUMPDEST PUSH1 0x0 DUP4 DUP2 MSTORE PUSH1 0x7 PUSH1 0x20 MSTORE PUSH1 0x40 SWAP1 KECCAK256 PUSH2 0x2646 SWAP1 DUP3 PUSH2 0x356A JUMP JUMPDEST PUSH1 0x1 PUSH1 0x0 MSTORE PUSH1 0x4 PUSH1 0x20 MSTORE PUSH2 0x115F PUSH32 0xABD6E7CB50984FF9C2F3E18A2660C3353DADF4E3291DEEB275DAE2CD1E44FE05 DUP3 PUSH2 0x356A JUMP JUMPDEST PUSH2 0x2684 DUP4 DUP4 PUSH2 0x35A0 JUMP JUMPDEST ISZERO PUSH2 0x268E JUMPI PUSH2 0x115F JUMP JUMPDEST PUSH2 0x2696 PUSH2 0x4A2F JUMP JUMPDEST PUSH2 0x269F DUP5 PUSH2 0x22E4 JUMP JUMPDEST SWAP1 POP PUSH2 0x26A9 PUSH2 0x4A2F JUMP JUMPDEST PUSH2 0x26B2 DUP5 PUSH2 0x22E4 JUMP JUMPDEST SWAP1 POP DUP2 PUSH1 0x40 ADD MLOAD PUSH1 0x1 PUSH1 0x1 PUSH1 0x60 SHL SUB AND DUP4 GT ISZERO PUSH2 0x26E3 JUMPI PUSH2 0x26E3 PUSH2 0x954 DUP5 DUP5 PUSH1 0x40 ADD MLOAD PUSH1 0x1 PUSH1 0x1 PUSH1 0x60 SHL SUB AND PUSH2 0x237E JUMP JUMPDEST PUSH1 0x40 DUP3 ADD MLOAD PUSH2 0x26FF SWAP1 PUSH2 0x1C08 SWAP1 PUSH1 0x1 PUSH1 0x1 PUSH1 0x60 SHL SUB AND DUP6 PUSH2 0x211F JUMP JUMPDEST PUSH1 0x1 PUSH1 0x1 PUSH1 0x60 SHL SUB SWAP1 DUP2 AND PUSH1 0x40 DUP1 DUP6 ADD SWAP2 SWAP1 SWAP2 MSTORE DUP3 ADD MLOAD PUSH2 0x2725 SWAP2 PUSH2 0x1C08 SWAP2 AND DUP6 PUSH2 0x2A59 JUMP JUMPDEST PUSH1 0x1 PUSH1 0x1 PUSH1 0x60 SHL SUB AND PUSH1 0x40 DUP3 ADD MSTORE PUSH2 0x273D DUP6 DUP4 PUSH2 0x3384 JUMP JUMPDEST PUSH2 0x2747 DUP5 DUP3 PUSH2 0x3384 JUMP JUMPDEST POP POP POP POP POP JUMP JUMPDEST PUSH3 0xF4240 PUSH4 0xFFFFFFFF DUP3 AND GT ISZERO PUSH2 0x2773 JUMPI PUSH2 0x276E PUSH2 0x954 PUSH1 0x0 DUP6 DUP5 PUSH2 0x35A7 JUMP JUMPDEST PUSH2 0x115F JUMP JUMPDEST DUP2 PUSH4 0xFFFFFFFF AND DUP2 PUSH4 0xFFFFFFFF AND GT ISZERO PUSH2 0x115F JUMPI PUSH2 0x115F PUSH2 0x954 PUSH1 0x1 DUP6 DUP5 PUSH2 0x35A7 JUMP JUMPDEST PUSH1 0x40 DUP1 MLOAD PUSH1 0x1 PUSH1 0x1 PUSH1 0xA0 SHL SUB DUP4 AND PUSH1 0x24 DUP1 DUP4 ADD SWAP2 SWAP1 SWAP2 MSTORE DUP3 MLOAD DUP1 DUP4 SUB SWAP1 SWAP2 ADD DUP2 MSTORE PUSH1 0x44 SWAP1 SWAP2 ADD SWAP1 SWAP2 MSTORE PUSH1 0x20 DUP2 ADD DUP1 MLOAD PUSH1 0x1 PUSH1 0x1 PUSH1 0xE0 SHL SUB AND PUSH4 0x75A88451 PUSH1 0xE1 SHL OR SWAP1 MSTORE SWAP2 SWAP1 POP JUMP JUMPDEST PUSH1 0x1 PUSH1 0x1 PUSH1 0xA0 SHL SUB DUP3 AND PUSH1 0x0 SWAP1 DUP2 MSTORE PUSH1 0x1 PUSH1 0x20 MSTORE PUSH1 0x40 SWAP1 KECCAK256 SLOAD PUSH1 0xFF AND PUSH2 0x280A JUMPI PUSH2 0x280A PUSH2 0x954 DUP4 PUSH2 0x2796 JUMP JUMPDEST PUSH1 0x2 SLOAD DUP2 LT PUSH2 0x2825 JUMPI PUSH2 0x2825 PUSH2 0x954 DUP3 PUSH1 0x2 DUP1 SLOAD SWAP1 POP PUSH2 0x361F JUMP JUMPDEST DUP2 PUSH1 0x1 PUSH1 0x1 PUSH1 0xA0 SHL SUB AND PUSH1 0x2 DUP3 DUP2 SLOAD DUP2 LT PUSH2 0x283C JUMPI INVALID JUMPDEST PUSH1 0x0 SWAP2 DUP3 MSTORE PUSH1 0x20 SWAP1 SWAP2 KECCAK256 ADD SLOAD PUSH1 0x1 PUSH1 0x1 PUSH1 0xA0 SHL SUB AND EQ PUSH2 0x2884 JUMPI PUSH2 0x2884 PUSH2 0x954 PUSH1 0x2 DUP4 DUP2 SLOAD DUP2 LT PUSH2 0x2869 JUMPI INVALID JUMPDEST PUSH1 0x0 SWAP2 DUP3 MSTORE PUSH1 0x20 SWAP1 SWAP2 KECCAK256 ADD SLOAD PUSH1 0x1 PUSH1 0x1 PUSH1 0xA0 SHL SUB AND DUP5 PUSH2 0x3664 JUMP JUMPDEST PUSH1 0x1 PUSH1 0x1 PUSH1 0xA0 SHL SUB DUP3 AND PUSH1 0x0 SWAP1 DUP2 MSTORE PUSH1 0x1 PUSH1 0x20 MSTORE PUSH1 0x40 SWAP1 KECCAK256 DUP1 SLOAD PUSH1 0xFF NOT AND SWAP1 SSTORE PUSH1 0x2 DUP1 SLOAD PUSH1 0x0 NOT DUP2 ADD SWAP1 DUP2 LT PUSH2 0x28B6 JUMPI INVALID JUMPDEST PUSH1 0x0 SWAP2 DUP3 MSTORE PUSH1 0x20 SWAP1 SWAP2 KECCAK256 ADD SLOAD PUSH1 0x2 DUP1 SLOAD PUSH1 0x1 PUSH1 0x1 PUSH1 0xA0 SHL SUB SWAP1 SWAP3 AND SWAP2 DUP4 SWAP1 DUP2 LT PUSH2 0x28DC JUMPI INVALID JUMPDEST SWAP1 PUSH1 0x0 MSTORE PUSH1 0x20 PUSH1 0x0 KECCAK256 ADD PUSH1 0x0 PUSH2 0x100 EXP DUP2 SLOAD DUP2 PUSH1 0x1 PUSH1 0x1 PUSH1 0xA0 SHL SUB MUL NOT AND SWAP1 DUP4 PUSH1 0x1 PUSH1 0x1 PUSH1 0xA0 SHL SUB AND MUL OR SWAP1 SSTORE POP PUSH1 0x2 DUP1 SLOAD DUP1 PUSH2 0x2915 JUMPI INVALID JUMPDEST PUSH1 0x0 DUP3 DUP2 MSTORE PUSH1 0x20 DUP2 KECCAK256 DUP3 ADD PUSH1 0x0 NOT SWAP1 DUP2 ADD DUP1 SLOAD PUSH1 0x1 PUSH1 0x1 PUSH1 0xA0 SHL SUB NOT AND SWAP1 SSTORE SWAP1 SWAP2 ADD SWAP1 SWAP2 SSTORE PUSH1 0x40 MLOAD CALLER SWAP2 PUSH1 0x1 PUSH1 0x1 PUSH1 0xA0 SHL SUB DUP6 AND SWAP2 PUSH32 0x1F32C1B084E2DE0713B8FB16BD46BB9DF710A3DBEAE2F3CA93AF46E016DCC6B0 SWAP2 SWAP1 LOG3 POP POP JUMP JUMPDEST PUSH1 0x10 DUP6 SWAP1 SSTORE PUSH1 0x11 DUP1 SLOAD PUSH4 0xFFFFFFFF DUP1 DUP8 AND PUSH4 0xFFFFFFFF NOT SWAP3 DUP4 AND OR SWAP1 SWAP3 SSTORE PUSH1 0x12 DUP6 SWAP1 SSTORE PUSH1 0x13 DUP1 SLOAD DUP5 DUP5 AND PUSH5 0x100000000 MUL PUSH8 0xFFFFFFFF00000000 NOT SWAP5 DUP8 AND SWAP2 SWAP1 SWAP4 AND OR SWAP3 SWAP1 SWAP3 AND OR SWAP1 SSTORE PUSH1 0x40 MLOAD PUSH32 0x613157DBB0E920DEAB8AD6DDD3805E87CBF57344B9FE780F1764790EC7897542 SWAP1 PUSH2 0x29F4 SWAP1 DUP8 SWAP1 DUP8 SWAP1 DUP8 SWAP1 DUP8 SWAP1 DUP8 SWAP1 PUSH2 0x5133 JUMP JUMPDEST PUSH1 0x40 MLOAD DUP1 SWAP2 SUB SWAP1 LOG1 POP POP POP POP POP JUMP JUMPDEST PUSH2 0x2A0B PUSH2 0x4A2F JUMP JUMPDEST PUSH2 0x2A14 DUP4 PUSH2 0x22E4 JUMP JUMPDEST SWAP1 POP PUSH2 0x2A39 PUSH2 0x1C08 DUP4 DUP4 PUSH1 0x40 ADD MLOAD PUSH1 0x1 PUSH1 0x1 PUSH1 0x60 SHL SUB AND PUSH2 0x2A59 SWAP1 SWAP2 SWAP1 PUSH4 0xFFFFFFFF AND JUMP JUMPDEST PUSH1 0x1 PUSH1 0x1 PUSH1 0x60 SHL SUB SWAP1 DUP2 AND PUSH1 0x40 DUP4 ADD MSTORE PUSH1 0x20 DUP3 ADD MLOAD PUSH2 0x241D SWAP2 PUSH2 0x1C08 SWAP2 AND DUP5 JUMPDEST PUSH1 0x0 DUP3 DUP3 ADD DUP4 DUP2 LT ISZERO PUSH2 0x11E0 JUMPI PUSH2 0x11E0 PUSH2 0x954 PUSH1 0x0 DUP7 DUP7 PUSH2 0x3266 JUMP JUMPDEST PUSH2 0x2A7E DUP3 PUSH2 0x36B5 JUMP JUMPDEST PUSH1 0x0 PUSH2 0x2A8D DUP4 DUP4 PUSH1 0x0 DUP1 PUSH2 0x2D63 JUMP JUMPDEST PUSH1 0x1 PUSH1 0x1 PUSH1 0xA0 SHL SUB DUP4 AND PUSH1 0x0 SWAP1 DUP2 MSTORE PUSH1 0x6 PUSH1 0x20 SWAP1 DUP2 MSTORE PUSH1 0x40 DUP1 DUP4 KECCAK256 DUP8 DUP5 MSTORE SWAP1 SWAP2 MSTORE SWAP1 KECCAK256 SWAP1 SWAP2 POP PUSH2 0x2ABC SWAP1 PUSH2 0x22E4 JUMP JUMPDEST PUSH1 0x1 PUSH1 0x1 PUSH1 0xA0 SHL SUB DUP4 DUP2 AND PUSH1 0x0 SWAP1 DUP2 MSTORE PUSH1 0x6 PUSH1 0x20 SWAP1 DUP2 MSTORE PUSH1 0x40 DUP1 DUP4 KECCAK256 DUP9 DUP5 MSTORE DUP3 MSTORE SWAP2 DUP3 SWAP1 KECCAK256 DUP5 MLOAD DUP2 SLOAD SWAP3 DUP7 ADD MLOAD SWAP6 SWAP1 SWAP4 ADD MLOAD PUSH8 0xFFFFFFFFFFFFFFFF NOT SWAP1 SWAP3 AND PUSH1 0x1 PUSH1 0x1 PUSH1 0x40 SHL SUB SWAP1 SWAP4 AND SWAP3 SWAP1 SWAP3 OR PUSH12 0xFFFFFFFFFFFFFFFFFFFFFFFF PUSH1 0x40 SHL NOT AND PUSH1 0x1 PUSH1 0x40 SHL PUSH1 0x1 PUSH1 0x1 PUSH1 0x60 SHL SUB SWAP6 DUP7 AND MUL OR SWAP1 SWAP3 AND PUSH1 0x1 PUSH1 0xA0 SHL SWAP4 SWAP1 SWAP3 AND SWAP3 SWAP1 SWAP3 MUL OR SWAP1 SSTORE DUP1 ISZERO PUSH2 0x2BDA JUMPI PUSH2 0x2B51 DUP4 DUP3 PUSH2 0x3723 JUMP JUMPDEST PUSH2 0x2B59 PUSH2 0x1E53 JUMP JUMPDEST PUSH1 0x1 PUSH1 0x1 PUSH1 0xA0 SHL SUB AND PUSH4 0xA9059CBB DUP4 DUP4 PUSH1 0x40 MLOAD DUP4 PUSH4 0xFFFFFFFF AND PUSH1 0xE0 SHL DUP2 MSTORE PUSH1 0x4 ADD PUSH2 0x2B86 SWAP3 SWAP2 SWAP1 PUSH2 0x4EAE JUMP JUMPDEST PUSH1 0x20 PUSH1 0x40 MLOAD DUP1 DUP4 SUB DUP2 PUSH1 0x0 DUP8 DUP1 EXTCODESIZE ISZERO DUP1 ISZERO PUSH2 0x2BA0 JUMPI PUSH1 0x0 DUP1 REVERT JUMPDEST POP GAS CALL ISZERO DUP1 ISZERO PUSH2 0x2BB4 JUMPI RETURNDATASIZE PUSH1 0x0 DUP1 RETURNDATACOPY RETURNDATASIZE PUSH1 0x0 REVERT JUMPDEST POP POP POP POP PUSH1 0x40 MLOAD RETURNDATASIZE PUSH1 0x1F NOT PUSH1 0x1F DUP3 ADD AND DUP3 ADD DUP1 PUSH1 0x40 MSTORE POP DUP2 ADD SWAP1 PUSH2 0x2BD8 SWAP2 SWAP1 PUSH2 0x4CA9 JUMP JUMPDEST POP JUMPDEST PUSH2 0x115F DUP4 PUSH2 0x375F JUMP JUMPDEST PUSH1 0x0 DUP1 PUSH1 0x0 PUSH2 0x2BFE PUSH1 0x1 PUSH1 0xB SLOAD PUSH2 0x211F SWAP1 SWAP2 SWAP1 PUSH4 0xFFFFFFFF AND JUMP JUMPDEST SWAP1 POP PUSH2 0x2C08 PUSH2 0x4A4F JUMP JUMPDEST POP PUSH1 0x0 DUP5 DUP2 MSTORE PUSH1 0x14 PUSH1 0x20 SWAP1 DUP2 MSTORE PUSH1 0x40 DUP1 DUP4 KECCAK256 DUP5 DUP5 MSTORE DUP3 MSTORE DUP1 DUP4 KECCAK256 DUP2 MLOAD PUSH1 0x60 DUP1 DUP3 ADD DUP5 MSTORE DUP3 SLOAD DUP3 MSTORE PUSH1 0x1 DUP1 DUP5 ADD SLOAD DUP4 DUP8 ADD MSTORE PUSH1 0x2 SWAP4 DUP5 ADD SLOAD DUP4 DUP7 ADD MSTORE DUP8 DUP8 MSTORE PUSH1 0x15 DUP7 MSTORE SWAP6 DUP5 SWAP1 KECCAK256 DUP5 MLOAD PUSH1 0xA0 DUP2 ADD DUP7 MSTORE DUP2 SLOAD DUP2 MSTORE SWAP7 DUP2 ADD SLOAD SWAP6 DUP8 ADD SWAP6 SWAP1 SWAP6 MSTORE SWAP2 DUP5 ADD SLOAD SWAP3 DUP6 ADD SWAP3 SWAP1 SWAP3 MSTORE PUSH1 0x3 DUP4 ADD SLOAD SWAP1 DUP5 ADD MSTORE PUSH1 0x4 SWAP1 SWAP2 ADD SLOAD PUSH1 0x80 DUP4 ADD MSTORE SWAP1 PUSH2 0x2C90 SWAP1 DUP3 SWAP1 PUSH2 0x2F43 JUMP JUMPDEST SWAP4 POP DUP1 PUSH1 0x40 ADD MLOAD SWAP3 POP POP POP SWAP2 POP SWAP2 JUMP JUMPDEST PUSH1 0x0 DUP1 DUP3 PUSH2 0x2CB0 JUMPI DUP4 SWAP2 POP PUSH2 0x2CD3 JUMP JUMPDEST PUSH2 0x2CC4 PUSH4 0xFFFFFFFF DUP7 AND PUSH3 0xF4240 DUP7 PUSH2 0x376C JUMP JUMPDEST SWAP2 POP PUSH2 0x2CD0 DUP5 DUP4 PUSH2 0x211F JUMP JUMPDEST SWAP1 POP JUMPDEST SWAP4 POP SWAP4 SWAP2 POP POP JUMP JUMPDEST PUSH1 0x0 DUP2 DUP2 MSTORE PUSH1 0x9 PUSH1 0x20 MSTORE PUSH1 0x40 SWAP1 KECCAK256 SLOAD PUSH1 0x1 PUSH1 0x1 PUSH1 0xA0 SHL SUB AND ISZERO PUSH2 0x1194 JUMPI PUSH2 0x1194 PUSH2 0x954 DUP3 PUSH1 0x0 PUSH2 0x3790 JUMP JUMPDEST PUSH2 0x2D0E PUSH2 0x37D6 JUMP JUMPDEST TIMESTAMP PUSH1 0xC SSTORE PUSH1 0x1 PUSH1 0xB SSTORE JUMP JUMPDEST PUSH2 0x2D21 PUSH2 0x37EB JUMP JUMPDEST PUSH3 0x127500 PUSH3 0xDBBA0 PUSH9 0x56BC75E2D63100000 PUSH1 0x2 PUSH1 0x3 PUSH2 0x2747 DUP6 DUP6 DUP6 DUP6 DUP6 PUSH2 0x2972 JUMP JUMPDEST DUP1 PUSH1 0x1 PUSH1 0x1 PUSH1 0x60 SHL SUB DUP2 AND DUP2 EQ PUSH2 0xE08 JUMPI PUSH2 0xE08 PUSH2 0x954 PUSH1 0x2 DUP5 PUSH2 0x3850 JUMP JUMPDEST PUSH1 0xB SLOAD PUSH1 0x0 SWAP1 PUSH2 0x2D71 PUSH2 0x4A2F JUMP JUMPDEST POP PUSH1 0x1 PUSH1 0x1 PUSH1 0xA0 SHL SUB DUP6 AND PUSH1 0x0 SWAP1 DUP2 MSTORE PUSH1 0x6 PUSH1 0x20 SWAP1 DUP2 MSTORE PUSH1 0x40 DUP1 DUP4 KECCAK256 DUP10 DUP5 MSTORE DUP3 MSTORE SWAP2 DUP3 SWAP1 KECCAK256 DUP3 MLOAD PUSH1 0x60 DUP2 ADD DUP5 MSTORE SWAP1 SLOAD PUSH1 0x1 PUSH1 0x1 PUSH1 0x40 SHL SUB DUP2 AND DUP1 DUP4 MSTORE PUSH1 0x1 PUSH1 0x1 PUSH1 0x60 SHL SUB PUSH1 0x1 PUSH1 0x40 SHL DUP4 DIV DUP2 AND SWAP5 DUP5 ADD SWAP5 SWAP1 SWAP5 MSTORE PUSH1 0x1 PUSH1 0xA0 SHL SWAP1 SWAP2 DIV SWAP1 SWAP3 AND SWAP3 DUP2 ADD SWAP3 SWAP1 SWAP3 MSTORE DUP3 EQ ISZERO PUSH2 0x2DE9 JUMPI PUSH1 0x0 SWAP3 POP POP POP PUSH2 0x2E67 JUMP JUMPDEST PUSH2 0x2DF5 DUP2 DUP4 DUP8 DUP8 PUSH2 0x38B5 JUMP JUMPDEST DUP2 MLOAD SWAP1 SWAP4 POP PUSH1 0x0 SWAP1 PUSH2 0x2E11 SWAP1 PUSH1 0x1 PUSH1 0x1 PUSH1 0x40 SHL SUB AND PUSH1 0x1 PUSH2 0x2A59 JUMP JUMPDEST SWAP1 POP PUSH2 0x2E43 PUSH2 0x2E3C DUP10 DUP5 PUSH1 0x20 ADD MLOAD PUSH1 0x1 PUSH1 0x1 PUSH1 0x60 SHL SUB AND DUP6 PUSH1 0x0 ADD MLOAD PUSH1 0x1 PUSH1 0x1 PUSH1 0x40 SHL SUB AND DUP6 PUSH2 0x392C JUMP JUMPDEST DUP6 SWAP1 PUSH2 0x2A59 JUMP JUMPDEST SWAP4 POP PUSH2 0x2E61 PUSH2 0x2E3C DUP10 DUP5 PUSH1 0x40 ADD MLOAD PUSH1 0x1 PUSH1 0x1 PUSH1 0x60 SHL SUB AND DUP5 DUP8 PUSH2 0x392C JUMP JUMPDEST SWAP4 POP POP POP POP JUMPDEST SWAP5 SWAP4 POP POP POP POP JUMP JUMPDEST PUSH1 0x40 DUP1 MLOAD PUSH1 0x1 PUSH1 0x1 PUSH1 0xA0 SHL SUB DUP4 AND PUSH1 0x24 DUP1 DUP4 ADD SWAP2 SWAP1 SWAP2 MSTORE DUP3 MLOAD DUP1 DUP4 SUB SWAP1 SWAP2 ADD DUP2 MSTORE PUSH1 0x44 SWAP1 SWAP2 ADD SWAP1 SWAP2 MSTORE PUSH1 0x20 DUP2 ADD DUP1 MLOAD PUSH1 0x1 PUSH1 0x1 PUSH1 0xE0 SHL SUB AND PUSH4 0x30F65C01 PUSH1 0xE1 SHL OR SWAP1 MSTORE SWAP2 SWAP1 POP JUMP JUMPDEST PUSH1 0x0 DUP3 DUP2 MSTORE PUSH1 0x9 PUSH1 0x20 MSTORE PUSH1 0x40 DUP2 KECCAK256 SLOAD DUP2 SWAP1 DUP2 SWAP1 PUSH2 0x2EDD SWAP1 PUSH1 0x1 PUSH1 0x1 PUSH1 0xA0 SHL SUB AND DUP7 PUSH2 0x1E6B JUMP JUMPDEST PUSH1 0x20 ADD MLOAD PUSH1 0x1 PUSH1 0x1 PUSH1 0x60 SHL SUB AND SWAP1 POP PUSH2 0x2EF6 DUP5 DUP3 PUSH2 0x211F JUMP JUMPDEST PUSH1 0x11 SLOAD SWAP1 SWAP4 POP PUSH2 0x2F1B SWAP1 PUSH2 0x2F14 SWAP1 PUSH4 0xFFFFFFFF AND PUSH3 0xF4240 DUP7 PUSH2 0x39AB JUMP JUMPDEST DUP3 SWAP1 PUSH2 0x2A59 JUMP JUMPDEST SWAP2 POP POP SWAP3 POP SWAP3 SWAP1 POP JUMP JUMPDEST PUSH1 0x40 DUP1 MLOAD DUP1 DUP3 ADD SWAP1 SWAP2 MSTORE PUSH1 0x4 DUP2 MSTORE PUSH4 0x734F6E1F PUSH1 0xE1 SHL PUSH1 0x20 DUP3 ADD MSTORE SWAP1 JUMP JUMPDEST DUP2 MLOAD PUSH1 0x0 SWAP1 PUSH2 0x2F51 JUMPI PUSH2 0x11E3 JUMP JUMPDEST DUP2 MLOAD DUP4 MLOAD PUSH1 0x40 DUP5 ADD MLOAD PUSH1 0x20 DUP7 ADD MLOAD PUSH1 0x60 DUP7 ADD MLOAD PUSH1 0x13 SLOAD PUSH2 0x2F87 SWAP6 SWAP5 SWAP4 SWAP3 SWAP2 SWAP1 PUSH4 0xFFFFFFFF DUP1 DUP3 AND SWAP2 PUSH5 0x100000000 SWAP1 DIV AND PUSH2 0x39BB JUMP JUMPDEST PUSH1 0x80 DUP4 ADD MLOAD DUP4 MLOAD SWAP2 SWAP3 POP PUSH1 0x0 SWAP2 PUSH2 0x2F9D SWAP2 PUSH2 0x211F JUMP JUMPDEST SWAP1 POP DUP2 DUP2 LT ISZERO PUSH2 0x2FAB JUMPI DUP1 SWAP2 POP JUMPDEST POP SWAP3 SWAP2 POP POP JUMP JUMPDEST PUSH1 0x0 DUP1 PUSH2 0x2FBD PUSH2 0x4A70 JUMP JUMPDEST POP PUSH1 0x0 DUP6 DUP2 MSTORE PUSH1 0x9 PUSH1 0x20 SWAP1 DUP2 MSTORE PUSH1 0x40 SWAP2 DUP3 SWAP1 KECCAK256 DUP3 MLOAD PUSH1 0x80 DUP2 ADD DUP5 MSTORE DUP2 SLOAD PUSH1 0x1 PUSH1 0x1 PUSH1 0xA0 SHL SUB SWAP1 DUP2 AND DUP3 MSTORE PUSH1 0x1 SWAP1 SWAP3 ADD SLOAD SWAP2 DUP3 AND SWAP3 DUP2 ADD SWAP3 SWAP1 SWAP3 MSTORE PUSH4 0xFFFFFFFF PUSH1 0x1 PUSH1 0xA0 SHL DUP3 DIV DUP2 AND SWAP4 DUP4 ADD DUP5 SWAP1 MSTORE PUSH1 0x1 PUSH1 0xC0 SHL SWAP1 SWAP2 DIV AND PUSH1 0x60 DUP3 ADD MSTORE SWAP1 PUSH2 0x3025 SWAP1 DUP7 DUP7 PUSH2 0x2CA0 JUMP JUMPDEST SWAP1 SWAP4 POP SWAP2 POP DUP3 ISZERO PUSH2 0x3242 JUMPI DUP1 PUSH1 0x20 ADD MLOAD PUSH1 0x1 PUSH1 0x1 PUSH1 0xA0 SHL SUB AND DUP2 PUSH1 0x0 ADD MLOAD PUSH1 0x1 PUSH1 0x1 PUSH1 0xA0 SHL SUB AND EQ ISZERO PUSH2 0x30E2 JUMPI PUSH2 0x305A PUSH2 0x1E53 JUMP JUMPDEST DUP2 MLOAD PUSH1 0x40 MLOAD PUSH4 0xA9059CBB PUSH1 0xE0 SHL DUP2 MSTORE PUSH1 0x1 PUSH1 0x1 PUSH1 0xA0 SHL SUB SWAP3 SWAP1 SWAP3 AND SWAP2 PUSH4 0xA9059CBB SWAP2 PUSH2 0x308A SWAP2 DUP8 SWAP1 PUSH1 0x4 ADD PUSH2 0x4EAE JUMP JUMPDEST PUSH1 0x20 PUSH1 0x40 MLOAD DUP1 DUP4 SUB DUP2 PUSH1 0x0 DUP8 DUP1 EXTCODESIZE ISZERO DUP1 ISZERO PUSH2 0x30A4 JUMPI PUSH1 0x0 DUP1 REVERT JUMPDEST POP GAS CALL ISZERO DUP1 ISZERO PUSH2 0x30B8 JUMPI RETURNDATASIZE PUSH1 0x0 DUP1 RETURNDATACOPY RETURNDATASIZE PUSH1 0x0 REVERT JUMPDEST POP POP POP POP PUSH1 0x40 MLOAD RETURNDATASIZE PUSH1 0x1F NOT PUSH1 0x1F DUP3 ADD AND DUP3 ADD DUP1 PUSH1 0x40 MSTORE POP DUP2 ADD SWAP1 PUSH2 0x30DC SWAP2 SWAP1 PUSH2 0x4CA9 JUMP JUMPDEST POP PUSH2 0x3242 JUMP JUMPDEST PUSH1 0x0 PUSH2 0x3114 PUSH3 0xF4240 PUSH4 0xFFFFFFFF AND PUSH2 0x310E DUP5 PUSH1 0x60 ADD MLOAD PUSH4 0xFFFFFFFF AND DUP8 PUSH2 0x3A7D SWAP1 SWAP2 SWAP1 PUSH4 0xFFFFFFFF AND JUMP JUMPDEST SWAP1 PUSH2 0x3AAE JUMP JUMPDEST SWAP1 POP PUSH2 0x311E PUSH2 0x1E53 JUMP JUMPDEST PUSH1 0x1 PUSH1 0x1 PUSH1 0xA0 SHL SUB AND PUSH4 0xA9059CBB DUP4 PUSH1 0x20 ADD MLOAD DUP4 PUSH1 0x40 MLOAD DUP4 PUSH4 0xFFFFFFFF AND PUSH1 0xE0 SHL DUP2 MSTORE PUSH1 0x4 ADD PUSH2 0x314F SWAP3 SWAP2 SWAP1 PUSH2 0x4EAE JUMP JUMPDEST PUSH1 0x20 PUSH1 0x40 MLOAD DUP1 DUP4 SUB DUP2 PUSH1 0x0 DUP8 DUP1 EXTCODESIZE ISZERO DUP1 ISZERO PUSH2 0x3169 JUMPI PUSH1 0x0 DUP1 REVERT JUMPDEST POP GAS CALL ISZERO DUP1 ISZERO PUSH2 0x317D JUMPI RETURNDATASIZE PUSH1 0x0 DUP1 RETURNDATACOPY RETURNDATASIZE PUSH1 0x0 REVERT JUMPDEST POP POP POP POP PUSH1 0x40 MLOAD RETURNDATASIZE PUSH1 0x1F NOT PUSH1 0x1F DUP3 ADD AND DUP3 ADD DUP1 PUSH1 0x40 MSTORE POP DUP2 ADD SWAP1 PUSH2 0x31A1 SWAP2 SWAP1 PUSH2 0x4CA9 JUMP JUMPDEST POP PUSH2 0x31AA PUSH2 0x1E53 JUMP JUMPDEST PUSH1 0x1 PUSH1 0x1 PUSH1 0xA0 SHL SUB AND PUSH4 0xA9059CBB DUP4 PUSH1 0x0 ADD MLOAD PUSH2 0x31D0 DUP5 DUP9 PUSH2 0x211F SWAP1 SWAP2 SWAP1 PUSH4 0xFFFFFFFF AND JUMP JUMPDEST PUSH1 0x40 MLOAD DUP4 PUSH4 0xFFFFFFFF AND PUSH1 0xE0 SHL DUP2 MSTORE PUSH1 0x4 ADD PUSH2 0x31ED SWAP3 SWAP2 SWAP1 PUSH2 0x4EAE JUMP JUMPDEST PUSH1 0x20 PUSH1 0x40 MLOAD DUP1 DUP4 SUB DUP2 PUSH1 0x0 DUP8 DUP1 EXTCODESIZE ISZERO DUP1 ISZERO PUSH2 0x3207 JUMPI PUSH1 0x0 DUP1 REVERT JUMPDEST POP GAS CALL ISZERO DUP1 ISZERO PUSH2 0x321B JUMPI RETURNDATASIZE PUSH1 0x0 DUP1 RETURNDATACOPY RETURNDATASIZE PUSH1 0x0 REVERT JUMPDEST POP POP POP POP PUSH1 0x40 MLOAD RETURNDATASIZE PUSH1 0x1F NOT PUSH1 0x1F DUP3 ADD AND DUP3 ADD DUP1 PUSH1 0x40 MSTORE POP DUP2 ADD SWAP1 PUSH2 0x323F SWAP2 SWAP1 PUSH2 0x4CA9 JUMP JUMPDEST POP POP JUMPDEST DUP2 ISZERO PUSH2 0x325D JUMPI PUSH2 0x3252 DUP7 DUP4 PUSH2 0x3AD8 JUMP JUMPDEST PUSH2 0x325D DUP7 DUP4 DUP7 PUSH2 0x3B0D JUMP JUMPDEST POP SWAP4 POP SWAP4 SWAP2 POP POP JUMP JUMPDEST PUSH1 0x60 PUSH4 0xE946C1BB PUSH1 0xE0 SHL DUP5 DUP5 DUP5 PUSH1 0x40 MLOAD PUSH1 0x24 ADD DUP1 DUP5 PUSH1 0x3 DUP2 GT ISZERO PUSH2 0x3286 JUMPI INVALID JUMPDEST DUP2 MSTORE PUSH1 0x20 ADD DUP4 DUP2 MSTORE PUSH1 0x20 ADD DUP3 DUP2 MSTORE PUSH1 0x20 ADD SWAP4 POP POP POP POP PUSH1 0x40 MLOAD PUSH1 0x20 DUP2 DUP4 SUB SUB DUP2 MSTORE SWAP1 PUSH1 0x40 MSTORE SWAP1 PUSH1 0x1 PUSH1 0x1 PUSH1 0xE0 SHL SUB NOT AND PUSH1 0x20 DUP3 ADD DUP1 MLOAD PUSH1 0x1 PUSH1 0x1 PUSH1 0xE0 SHL SUB DUP4 DUP2 DUP4 AND OR DUP4 MSTORE POP POP POP POP SWAP1 POP SWAP4 SWAP3 POP POP POP JUMP JUMPDEST PUSH1 0x40 DUP1 MLOAD PUSH1 0x24 DUP2 ADD DUP5 SWAP1 MSTORE PUSH1 0x44 DUP1 DUP3 ADD DUP5 SWAP1 MSTORE DUP3 MLOAD DUP1 DUP4 SUB SWAP1 SWAP2 ADD DUP2 MSTORE PUSH1 0x64 SWAP1 SWAP2 ADD SWAP1 SWAP2 MSTORE PUSH1 0x20 DUP2 ADD DUP1 MLOAD PUSH1 0x1 PUSH1 0x1 PUSH1 0xE0 SHL SUB AND PUSH4 0xA6BCDE47 PUSH1 0xE0 SHL OR SWAP1 MSTORE SWAP3 SWAP2 POP POP JUMP JUMPDEST PUSH1 0x40 DUP1 MLOAD PUSH1 0x1 PUSH1 0x1 PUSH1 0xA0 SHL SUB DUP4 AND PUSH1 0x24 DUP1 DUP4 ADD SWAP2 SWAP1 SWAP2 MSTORE DUP3 MLOAD DUP1 DUP4 SUB SWAP1 SWAP2 ADD DUP2 MSTORE PUSH1 0x44 SWAP1 SWAP2 ADD SWAP1 SWAP2 MSTORE PUSH1 0x20 DUP2 ADD DUP1 MLOAD PUSH1 0x1 PUSH1 0x1 PUSH1 0xE0 SHL SUB AND PUSH4 0xB65A25B9 PUSH1 0xE0 SHL OR SWAP1 MSTORE SWAP2 SWAP1 POP JUMP JUMPDEST DUP1 PUSH1 0x1 PUSH1 0x1 PUSH1 0x40 SHL SUB DUP2 AND DUP2 EQ PUSH2 0xE08 JUMPI PUSH2 0xE08 PUSH2 0x954 PUSH1 0x1 DUP5 PUSH2 0x3850 JUMP JUMPDEST DUP1 MLOAD DUP3 SLOAD PUSH1 0x40 DUP4 ADD MLOAD PUSH1 0x20 SWAP1 SWAP4 ADD MLOAD PUSH1 0x1 PUSH1 0x1 PUSH1 0x60 SHL SUB SWAP1 DUP2 AND PUSH1 0x1 PUSH1 0x40 SHL MUL PUSH12 0xFFFFFFFFFFFFFFFFFFFFFFFF PUSH1 0x40 SHL NOT SWAP2 SWAP1 SWAP5 AND PUSH1 0x1 PUSH1 0xA0 SHL MUL PUSH1 0x1 PUSH1 0x1 PUSH1 0xA0 SHL SUB PUSH1 0x1 PUSH1 0x1 PUSH1 0x40 SHL SUB SWAP1 SWAP5 AND PUSH8 0xFFFFFFFFFFFFFFFF NOT SWAP1 SWAP4 AND SWAP3 SWAP1 SWAP3 OR SWAP3 SWAP1 SWAP3 AND OR AND OR SWAP1 SSTORE JUMP JUMPDEST PUSH1 0x40 DUP1 MLOAD PUSH1 0x1 PUSH1 0x1 PUSH1 0xA0 SHL SUB DUP5 AND PUSH1 0x24 DUP3 ADD MSTORE PUSH1 0x44 DUP1 DUP3 ADD DUP5 SWAP1 MSTORE DUP3 MLOAD DUP1 DUP4 SUB SWAP1 SWAP2 ADD DUP2 MSTORE PUSH1 0x64 SWAP1 SWAP2 ADD SWAP1 SWAP2 MSTORE PUSH1 0x20 DUP2 ADD DUP1 MLOAD PUSH1 0x1 PUSH1 0x1 PUSH1 0xE0 SHL SUB AND PUSH4 0x82DED785 PUSH1 0xE0 SHL OR SWAP1 MSTORE SWAP3 SWAP2 POP POP JUMP JUMPDEST PUSH1 0x40 DUP1 MLOAD PUSH1 0x1 PUSH1 0x1 PUSH1 0xA0 SHL SUB DUP1 DUP6 AND PUSH1 0x24 DUP4 ADD MSTORE DUP4 AND PUSH1 0x44 DUP1 DUP4 ADD SWAP2 SWAP1 SWAP2 MSTORE DUP3 MLOAD DUP1 DUP4 SUB SWAP1 SWAP2 ADD DUP2 MSTORE PUSH1 0x64 SWAP1 SWAP2 ADD SWAP1 SWAP2 MSTORE PUSH1 0x20 DUP2 ADD DUP1 MLOAD PUSH1 0x1 PUSH1 0x1 PUSH1 0xE0 SHL SUB AND PUSH4 0x1DE45AD1 PUSH1 0xE0 SHL OR SWAP1 MSTORE SWAP3 SWAP2 POP POP JUMP JUMPDEST PUSH1 0x40 DUP1 MLOAD DUP1 DUP3 ADD SWAP1 SWAP2 MSTORE PUSH1 0x4 DUP2 MSTORE PUSH4 0x15D953F9 PUSH1 0xE2 SHL PUSH1 0x20 DUP3 ADD MSTORE SWAP1 JUMP JUMPDEST PUSH1 0x40 DUP1 MLOAD PUSH1 0x1 PUSH1 0x1 PUSH1 0xA0 SHL SUB DUP4 AND PUSH1 0x24 DUP1 DUP4 ADD SWAP2 SWAP1 SWAP2 MSTORE DUP3 MLOAD DUP1 DUP4 SUB SWAP1 SWAP2 ADD DUP2 MSTORE PUSH1 0x44 SWAP1 SWAP2 ADD SWAP1 SWAP2 MSTORE PUSH1 0x20 DUP2 ADD DUP1 MLOAD PUSH1 0x1 PUSH1 0x1 PUSH1 0xE0 SHL SUB AND PUSH4 0x6F0B78D PUSH1 0xE5 SHL OR SWAP1 MSTORE SWAP2 SWAP1 POP JUMP JUMPDEST PUSH1 0x0 DUP2 DUP2 MSTORE PUSH1 0x9 PUSH1 0x20 MSTORE PUSH1 0x40 SWAP1 KECCAK256 SLOAD PUSH1 0x1 PUSH1 0x1 PUSH1 0xA0 SHL SUB AND PUSH2 0x1194 JUMPI PUSH2 0x1194 PUSH2 0x954 DUP3 PUSH1 0x0 PUSH2 0x3790 JUMP JUMPDEST PUSH2 0x3524 PUSH2 0x4A2F JUMP JUMPDEST PUSH2 0x352D DUP4 PUSH2 0x22E4 JUMP JUMPDEST SWAP1 POP PUSH2 0x3552 PUSH2 0x1C08 DUP4 DUP4 PUSH1 0x40 ADD MLOAD PUSH1 0x1 PUSH1 0x1 PUSH1 0x60 SHL SUB AND PUSH2 0x211F SWAP1 SWAP2 SWAP1 PUSH4 0xFFFFFFFF AND JUMP JUMPDEST PUSH1 0x1 PUSH1 0x1 PUSH1 0x60 SHL SUB AND PUSH1 0x40 DUP3 ADD MSTORE PUSH2 0x115F DUP4 DUP3 PUSH2 0x3384 JUMP JUMPDEST PUSH2 0x3572 PUSH2 0x4A2F JUMP JUMPDEST PUSH2 0x357B DUP4 PUSH2 0x22E4 JUMP JUMPDEST SWAP1 POP PUSH2 0x3552 PUSH2 0x1C08 DUP4 DUP4 PUSH1 0x40 ADD MLOAD PUSH1 0x1 PUSH1 0x1 PUSH1 0x60 SHL SUB AND PUSH2 0x2A59 SWAP1 SWAP2 SWAP1 PUSH4 0xFFFFFFFF AND JUMP JUMPDEST EQ PUSH1 0x1 AND SWAP1 JUMP JUMPDEST PUSH1 0x60 PUSH4 0x22DF9597 PUSH1 0xE0 SHL DUP5 DUP5 DUP5 PUSH1 0x40 MLOAD PUSH1 0x24 ADD DUP1 DUP5 PUSH1 0x1 DUP2 GT ISZERO PUSH2 0x35C7 JUMPI INVALID JUMPDEST DUP2 MSTORE PUSH1 0x20 ADD DUP4 DUP2 MSTORE PUSH1 0x20 ADD DUP3 PUSH4 0xFFFFFFFF AND DUP2 MSTORE PUSH1 0x20 ADD SWAP4 POP POP POP POP PUSH1 0x40 MLOAD PUSH1 0x20 DUP2 DUP4 SUB SUB DUP2 MSTORE SWAP1 PUSH1 0x40 MSTORE SWAP1 PUSH1 0x1 PUSH1 0x1 PUSH1 0xE0 SHL SUB NOT AND PUSH1 0x20 DUP3 ADD DUP1 MLOAD PUSH1 0x1 PUSH1 0x1 PUSH1 0xE0 SHL SUB DUP4 DUP2 DUP4 AND OR DUP4 MSTORE POP POP POP POP SWAP1 POP SWAP4 SWAP3 POP POP POP JUMP JUMPDEST PUSH1 0x40 DUP1 MLOAD PUSH1 0x24 DUP2 ADD DUP5 SWAP1 MSTORE PUSH1 0x44 DUP1 DUP3 ADD DUP5 SWAP1 MSTORE DUP3 MLOAD DUP1 DUP4 SUB SWAP1 SWAP2 ADD DUP2 MSTORE PUSH1 0x64 SWAP1 SWAP2 ADD SWAP1 SWAP2 MSTORE PUSH1 0x20 DUP2 ADD DUP1 MLOAD PUSH1 0x1 PUSH1 0x1 PUSH1 0xE0 SHL SUB AND PUSH4 0xE9F83771 PUSH1 0xE0 SHL OR SWAP1 MSTORE SWAP3 SWAP2 POP POP JUMP JUMPDEST PUSH1 0x40 DUP1 MLOAD PUSH1 0x1 PUSH1 0x1 PUSH1 0xA0 SHL SUB DUP1 DUP6 AND PUSH1 0x24 DUP4 ADD MSTORE DUP4 AND PUSH1 0x44 DUP1 DUP4 ADD SWAP2 SWAP1 SWAP2 MSTORE DUP3 MLOAD DUP1 DUP4 SUB SWAP1 SWAP2 ADD DUP2 MSTORE PUSH1 0x64 SWAP1 SWAP2 ADD SWAP1 SWAP2 MSTORE PUSH1 0x20 DUP2 ADD DUP1 MLOAD PUSH1 0x1 PUSH1 0x1 PUSH1 0xE0 SHL SUB AND PUSH4 0x140A84DB PUSH1 0xE0 SHL OR SWAP1 MSTORE SWAP3 SWAP2 POP POP JUMP JUMPDEST PUSH1 0xB SLOAD PUSH1 0x0 SWAP1 PUSH2 0x36C6 SWAP1 PUSH1 0x1 PUSH2 0x211F JUMP JUMPDEST SWAP1 POP PUSH2 0x36D0 PUSH2 0x4A4F JUMP JUMPDEST POP PUSH1 0x0 DUP3 DUP2 MSTORE PUSH1 0x14 PUSH1 0x20 SWAP1 DUP2 MSTORE PUSH1 0x40 DUP1 DUP4 KECCAK256 DUP5 DUP5 MSTORE DUP3 MSTORE SWAP2 DUP3 SWAP1 KECCAK256 DUP3 MLOAD PUSH1 0x60 DUP2 ADD DUP5 MSTORE DUP2 SLOAD DUP1 DUP3 MSTORE PUSH1 0x1 DUP4 ADD SLOAD SWAP4 DUP3 ADD SWAP4 SWAP1 SWAP4 MSTORE PUSH1 0x2 SWAP1 SWAP2 ADD SLOAD SWAP3 DUP2 ADD SWAP3 SWAP1 SWAP3 MSTORE ISZERO PUSH2 0x115F JUMPI PUSH2 0x115F PUSH2 0x954 DUP5 DUP5 PUSH2 0x3BF6 JUMP JUMPDEST PUSH1 0x0 DUP3 DUP2 MSTORE PUSH1 0xA PUSH1 0x20 MSTORE PUSH1 0x40 SWAP1 KECCAK256 SLOAD PUSH2 0x373C SWAP1 DUP3 PUSH2 0x211F JUMP JUMPDEST PUSH1 0x0 DUP4 DUP2 MSTORE PUSH1 0xA PUSH1 0x20 MSTORE PUSH1 0x40 SWAP1 KECCAK256 SSTORE PUSH1 0x16 SLOAD PUSH2 0x3758 SWAP1 DUP3 PUSH2 0x211F JUMP JUMPDEST PUSH1 0x16 SSTORE POP POP JUMP JUMPDEST PUSH2 0x1194 DUP2 PUSH1 0x0 PUSH1 0x1 PUSH2 0x3B0D JUMP JUMPDEST PUSH1 0x0 PUSH2 0x2E67 DUP4 PUSH2 0x310E PUSH2 0x3780 DUP3 PUSH1 0x1 PUSH2 0x211F JUMP JUMPDEST PUSH2 0x378A DUP9 DUP8 PUSH2 0x3A7D JUMP JUMPDEST SWAP1 PUSH2 0x2A59 JUMP JUMPDEST PUSH1 0x40 DUP1 MLOAD PUSH1 0x24 DUP2 ADD SWAP4 SWAP1 SWAP4 MSTORE SWAP1 ISZERO ISZERO PUSH1 0x44 DUP1 DUP5 ADD SWAP2 SWAP1 SWAP2 MSTORE DUP2 MLOAD DUP1 DUP5 SUB SWAP1 SWAP2 ADD DUP2 MSTORE PUSH1 0x64 SWAP1 SWAP3 ADD SWAP1 MSTORE PUSH1 0x20 DUP2 ADD DUP1 MLOAD PUSH1 0x1 PUSH1 0x1 PUSH1 0xE0 SHL SUB AND PUSH4 0x9AE94F01 PUSH1 0xE0 SHL OR SWAP1 MSTORE SWAP1 JUMP JUMPDEST PUSH1 0xC SLOAD ISZERO PUSH2 0x1B16 JUMPI PUSH2 0x1B16 PUSH2 0x954 PUSH1 0x0 PUSH2 0x3C3B JUMP JUMPDEST PUSH1 0x10 SLOAD ISZERO DUP1 ISZERO SWAP1 PUSH2 0x3803 JUMPI POP PUSH1 0x11 SLOAD PUSH4 0xFFFFFFFF AND ISZERO ISZERO JUMPDEST DUP1 ISZERO PUSH2 0x3810 JUMPI POP PUSH1 0x12 SLOAD ISZERO ISZERO JUMPDEST DUP1 ISZERO PUSH2 0x3823 JUMPI POP PUSH1 0x13 SLOAD PUSH4 0xFFFFFFFF AND ISZERO ISZERO JUMPDEST DUP1 ISZERO PUSH2 0x383E JUMPI POP PUSH1 0x13 SLOAD PUSH5 0x100000000 SWAP1 DIV PUSH4 0xFFFFFFFF AND ISZERO ISZERO JUMPDEST ISZERO PUSH2 0x1B16 JUMPI PUSH2 0x1B16 PUSH2 0x954 PUSH1 0x1 PUSH2 0x3C3B JUMP JUMPDEST PUSH1 0x60 PUSH4 0xC996AF7B PUSH1 0xE0 SHL DUP4 DUP4 PUSH1 0x40 MLOAD PUSH1 0x24 ADD DUP1 DUP4 PUSH1 0x2 DUP2 GT ISZERO PUSH2 0x386F JUMPI INVALID JUMPDEST DUP2 MSTORE PUSH1 0x20 DUP1 DUP3 ADD SWAP4 SWAP1 SWAP4 MSTORE PUSH1 0x40 DUP1 MLOAD DUP1 DUP4 SUB DUP6 ADD DUP2 MSTORE SWAP2 DUP2 ADD SWAP1 MSTORE SWAP2 DUP3 ADD DUP1 MLOAD PUSH1 0x1 PUSH1 0x1 PUSH1 0xE0 SHL SUB AND PUSH1 0x1 PUSH1 0x1 PUSH1 0xE0 SHL SUB NOT SWAP1 SWAP6 AND SWAP5 SWAP1 SWAP5 OR SWAP1 SWAP4 MSTORE SWAP3 POP POP POP SWAP3 SWAP2 POP POP JUMP JUMPDEST PUSH1 0x0 DUP3 ISZERO DUP1 PUSH2 0x38C2 JUMPI POP DUP2 ISZERO JUMPDEST ISZERO PUSH2 0x38CF JUMPI POP PUSH1 0x0 PUSH2 0x2E67 JUMP JUMPDEST PUSH1 0x0 PUSH2 0x38DC DUP6 PUSH1 0x1 PUSH2 0x211F JUMP JUMPDEST DUP7 MLOAD PUSH1 0x1 PUSH1 0x1 PUSH1 0x40 SHL SUB AND LT ISZERO PUSH2 0x38F7 JUMPI DUP6 PUSH1 0x40 ADD MLOAD PUSH2 0x38FD JUMP JUMPDEST DUP6 PUSH1 0x20 ADD MLOAD JUMPDEST PUSH1 0x1 PUSH1 0x1 PUSH1 0x60 SHL SUB AND SWAP1 POP DUP1 PUSH2 0x3917 JUMPI PUSH1 0x0 SWAP2 POP POP PUSH2 0x2E67 JUMP JUMPDEST PUSH2 0x3922 DUP5 DUP5 DUP4 PUSH2 0x39AB JUMP JUMPDEST SWAP7 SWAP6 POP POP POP POP POP POP JUMP JUMPDEST PUSH1 0x0 DUP4 ISZERO DUP1 PUSH2 0x393A JUMPI POP DUP2 DUP4 EQ JUMPDEST ISZERO PUSH2 0x3947 JUMPI POP PUSH1 0x0 PUSH2 0x2E67 JUMP JUMPDEST DUP2 DUP4 LT PUSH2 0x3966 JUMPI PUSH1 0x40 MLOAD PUSH3 0x461BCD PUSH1 0xE5 SHL DUP2 MSTORE PUSH1 0x4 ADD PUSH2 0xCFA SWAP1 PUSH2 0x5013 JUMP JUMPDEST PUSH2 0x396E PUSH2 0x4A97 JUMP JUMPDEST PUSH2 0x3978 DUP7 DUP6 PUSH2 0x3C9E JUMP JUMPDEST SWAP1 POP PUSH2 0x3982 PUSH2 0x4A97 JUMP JUMPDEST PUSH2 0x398C DUP8 DUP6 PUSH2 0x3C9E JUMP JUMPDEST SWAP1 POP PUSH2 0x1CEE DUP2 PUSH1 0x0 ADD MLOAD DUP3 PUSH1 0x20 ADD MLOAD DUP5 PUSH1 0x0 ADD MLOAD DUP6 PUSH1 0x20 ADD MLOAD DUP11 PUSH2 0x3DB5 JUMP JUMPDEST PUSH1 0x0 PUSH2 0x2E67 DUP4 PUSH2 0x310E DUP7 DUP6 PUSH2 0x3A7D JUMP JUMPDEST PUSH1 0x0 DUP1 PUSH2 0x39C8 DUP9 DUP9 PUSH2 0x3E23 JUMP JUMPDEST SWAP1 POP PUSH1 0x0 PUSH2 0x39D6 DUP8 DUP8 PUSH2 0x3E23 JUMP JUMPDEST SWAP1 POP DUP2 ISZERO DUP1 PUSH2 0x39E3 JUMPI POP DUP1 ISZERO JUMPDEST ISZERO PUSH2 0x39F3 JUMPI PUSH1 0x0 SWAP3 POP POP POP PUSH2 0x1CEE JUMP JUMPDEST PUSH1 0x0 DUP2 DUP4 SGT ISZERO PUSH2 0x3A0C JUMPI PUSH2 0x3A07 DUP3 DUP5 PUSH2 0x3E69 JUMP JUMPDEST PUSH2 0x3A16 JUMP JUMPDEST PUSH2 0x3A16 DUP4 DUP4 PUSH2 0x3E69 JUMP JUMPDEST SWAP1 POP PUSH2 0x3A3F PUSH2 0x3A3A PUSH2 0x3A27 DUP4 PUSH2 0x3E7C JUMP JUMPDEST DUP9 PUSH4 0xFFFFFFFF AND DUP9 PUSH4 0xFFFFFFFF AND PUSH2 0x42D1 JUMP JUMPDEST PUSH2 0x42E0 JUMP JUMPDEST SWAP1 POP DUP2 DUP4 SGT ISZERO PUSH2 0x3A58 JUMPI PUSH2 0x3A53 DUP3 DUP3 PUSH2 0x3E69 JUMP JUMPDEST PUSH2 0x3A62 JUMP JUMPDEST PUSH2 0x3A62 DUP3 DUP3 PUSH2 0x4746 JUMP JUMPDEST SWAP1 POP PUSH2 0x3A6E DUP2 DUP13 PUSH2 0x4766 JUMP JUMPDEST SWAP12 SWAP11 POP POP POP POP POP POP POP POP POP POP POP JUMP JUMPDEST PUSH1 0x0 DUP3 PUSH2 0x3A8C JUMPI POP PUSH1 0x0 PUSH2 0x11E3 JUMP JUMPDEST DUP3 DUP3 MUL DUP3 DUP5 DUP3 DUP2 PUSH2 0x3A99 JUMPI INVALID JUMPDEST DIV EQ PUSH2 0x11E0 JUMPI PUSH2 0x11E0 PUSH2 0x954 PUSH1 0x1 DUP7 DUP7 PUSH2 0x3266 JUMP JUMPDEST PUSH1 0x0 DUP2 PUSH2 0x3AC4 JUMPI PUSH2 0x3AC4 PUSH2 0x954 PUSH1 0x3 DUP6 DUP6 PUSH2 0x3266 JUMP JUMPDEST PUSH1 0x0 DUP3 DUP5 DUP2 PUSH2 0x3ACF JUMPI INVALID JUMPDEST DIV SWAP5 SWAP4 POP POP POP POP JUMP JUMPDEST PUSH1 0x0 DUP3 DUP2 MSTORE PUSH1 0xA PUSH1 0x20 MSTORE PUSH1 0x40 SWAP1 KECCAK256 SLOAD PUSH2 0x3AF1 SWAP1 DUP3 PUSH2 0x2A59 JUMP JUMPDEST PUSH1 0x0 DUP4 DUP2 MSTORE PUSH1 0xA PUSH1 0x20 MSTORE PUSH1 0x40 SWAP1 KECCAK256 SSTORE PUSH1 0x16 SLOAD PUSH2 0x3758 SWAP1 DUP3 PUSH2 0x2A59 JUMP JUMPDEST PUSH1 0x0 DUP4 DUP2 MSTORE PUSH1 0xE PUSH1 0x20 MSTORE PUSH1 0x40 SWAP1 KECCAK256 SLOAD PUSH1 0xB SLOAD DUP1 DUP3 EQ ISZERO PUSH2 0x3B2E JUMPI POP POP PUSH2 0x115F JUMP JUMPDEST PUSH2 0x3B36 PUSH2 0x4A97 JUMP JUMPDEST POP PUSH1 0x0 DUP6 DUP2 MSTORE PUSH1 0xD PUSH1 0x20 SWAP1 DUP2 MSTORE PUSH1 0x40 DUP1 DUP4 KECCAK256 DUP6 DUP5 MSTORE DUP3 MSTORE SWAP2 DUP3 SWAP1 KECCAK256 DUP3 MLOAD DUP1 DUP5 ADD SWAP1 SWAP4 MSTORE DUP1 SLOAD DUP4 MSTORE PUSH1 0x1 ADD SLOAD SWAP1 DUP3 ADD MSTORE PUSH2 0x3B6D PUSH2 0x4A97 JUMP JUMPDEST PUSH2 0x3B76 DUP3 PUSH2 0x47A8 JUMP JUMPDEST ISZERO PUSH2 0x3BAF JUMPI PUSH2 0x3B8F DUP3 PUSH1 0x0 ADD MLOAD DUP4 PUSH1 0x20 ADD MLOAD DUP9 DUP9 PUSH2 0x47B1 JUMP JUMPDEST PUSH1 0x20 DUP4 ADD DUP2 SWAP1 MSTORE DUP2 DUP4 MSTORE PUSH2 0x3BA3 SWAP2 SWAP1 PUSH2 0x4801 JUMP JUMPDEST PUSH1 0x20 DUP4 ADD MSTORE DUP2 MSTORE PUSH2 0x3BBA JUMP JUMPDEST PUSH1 0x20 DUP2 ADD DUP6 SWAP1 MSTORE DUP6 DUP2 MSTORE JUMPDEST PUSH1 0x0 DUP8 DUP2 MSTORE PUSH1 0xD PUSH1 0x20 SWAP1 DUP2 MSTORE PUSH1 0x40 DUP1 DUP4 KECCAK256 DUP7 DUP5 MSTORE DUP3 MSTORE DUP1 DUP4 KECCAK256 DUP5 MLOAD DUP2 SSTORE SWAP4 DUP3 ADD MLOAD PUSH1 0x1 SWAP1 SWAP5 ADD SWAP4 SWAP1 SWAP4 SSTORE SWAP8 DUP2 MSTORE PUSH1 0xE SWAP1 SWAP8 MSTORE SWAP1 SWAP6 KECCAK256 SSTORE POP POP POP POP JUMP JUMPDEST PUSH1 0x40 DUP1 MLOAD PUSH1 0x24 DUP2 ADD DUP5 SWAP1 MSTORE PUSH1 0x44 DUP1 DUP3 ADD DUP5 SWAP1 MSTORE DUP3 MLOAD DUP1 DUP4 SUB SWAP1 SWAP2 ADD DUP2 MSTORE PUSH1 0x64 SWAP1 SWAP2 ADD SWAP1 SWAP2 MSTORE PUSH1 0x20 DUP2 ADD DUP1 MLOAD PUSH1 0x1 PUSH1 0x1 PUSH1 0xE0 SHL SUB AND PUSH4 0x5CAA0B05 PUSH1 0xE0 SHL OR SWAP1 MSTORE SWAP3 SWAP2 POP POP JUMP JUMPDEST PUSH1 0x60 PUSH4 0xB02D773 PUSH1 0xE0 SHL DUP3 PUSH1 0x1 DUP2 GT ISZERO PUSH2 0x3C51 JUMPI INVALID JUMPDEST PUSH1 0x40 MLOAD PUSH1 0x24 ADD DUP1 DUP3 PUSH1 0xFF AND DUP2 MSTORE PUSH1 0x20 ADD SWAP2 POP POP PUSH1 0x40 MLOAD PUSH1 0x20 DUP2 DUP4 SUB SUB DUP2 MSTORE SWAP1 PUSH1 0x40 MSTORE SWAP1 PUSH1 0x1 PUSH1 0x1 PUSH1 0xE0 SHL SUB NOT AND PUSH1 0x20 DUP3 ADD DUP1 MLOAD PUSH1 0x1 PUSH1 0x1 PUSH1 0xE0 SHL SUB DUP4 DUP2 DUP4 AND OR DUP4 MSTORE POP POP POP POP SWAP1 POP SWAP2 SWAP1 POP JUMP JUMPDEST PUSH2 0x3CA6 PUSH2 0x4A97 JUMP JUMPDEST POP PUSH1 0x0 DUP3 DUP2 MSTORE PUSH1 0xD PUSH1 0x20 SWAP1 DUP2 MSTORE PUSH1 0x40 DUP1 DUP4 KECCAK256 DUP5 DUP5 MSTORE DUP3 MSTORE SWAP2 DUP3 SWAP1 KECCAK256 DUP3 MLOAD DUP1 DUP5 ADD SWAP1 SWAP4 MSTORE DUP1 SLOAD DUP4 MSTORE PUSH1 0x1 ADD SLOAD SWAP1 DUP3 ADD MSTORE PUSH2 0x3CDE DUP2 PUSH2 0x47A8 JUMP JUMPDEST ISZERO PUSH2 0x3CE8 JUMPI PUSH2 0x11E3 JUMP JUMPDEST PUSH1 0x0 PUSH2 0x3CF5 DUP4 PUSH1 0x1 PUSH2 0x211F JUMP JUMPDEST PUSH1 0x0 DUP6 DUP2 MSTORE PUSH1 0xD PUSH1 0x20 SWAP1 DUP2 MSTORE PUSH1 0x40 DUP1 DUP4 KECCAK256 DUP5 DUP5 MSTORE DUP3 MSTORE SWAP2 DUP3 SWAP1 KECCAK256 DUP3 MLOAD DUP1 DUP5 ADD SWAP1 SWAP4 MSTORE DUP1 SLOAD DUP4 MSTORE PUSH1 0x1 ADD SLOAD SWAP1 DUP3 ADD MSTORE SWAP3 POP SWAP1 POP PUSH2 0x3D30 DUP3 PUSH2 0x47A8 JUMP JUMPDEST ISZERO PUSH2 0x3D3B JUMPI POP PUSH2 0x11E3 JUMP JUMPDEST PUSH1 0x0 DUP5 DUP2 MSTORE PUSH1 0xE PUSH1 0x20 MSTORE PUSH1 0x40 SWAP1 KECCAK256 SLOAD DUP4 DUP2 LT ISZERO PUSH2 0x3D97 JUMPI PUSH1 0x0 DUP6 DUP2 MSTORE PUSH1 0xD PUSH1 0x20 SWAP1 DUP2 MSTORE PUSH1 0x40 DUP1 DUP4 KECCAK256 DUP5 DUP5 MSTORE DUP3 MSTORE SWAP2 DUP3 SWAP1 KECCAK256 DUP3 MLOAD DUP1 DUP5 ADD SWAP1 SWAP4 MSTORE DUP1 SLOAD DUP4 MSTORE PUSH1 0x1 ADD SLOAD SWAP1 DUP3 ADD MSTORE SWAP3 POP PUSH2 0x3D8B DUP4 PUSH2 0x47A8 JUMP JUMPDEST ISZERO PUSH2 0x3D97 JUMPI POP POP PUSH2 0x11E3 JUMP JUMPDEST POP POP PUSH1 0x40 DUP1 MLOAD DUP1 DUP3 ADD SWAP1 SWAP2 MSTORE PUSH1 0x0 DUP2 MSTORE PUSH1 0x1 PUSH1 0x20 DUP3 ADD MSTORE SWAP4 SWAP3 POP POP POP JUMP JUMPDEST PUSH1 0x0 DUP2 PUSH2 0x3DC4 JUMPI POP PUSH1 0x0 PUSH2 0x3E1A JUMP JUMPDEST DUP4 PUSH2 0x3DDE JUMPI PUSH2 0x3DD7 DUP6 PUSH2 0x310E DUP5 DUP10 PUSH2 0x3A7D JUMP JUMPDEST SWAP1 POP PUSH2 0x3E1A JUMP JUMPDEST PUSH1 0x0 PUSH2 0x3DF7 PUSH2 0x3DED DUP7 DUP9 PUSH2 0x3A7D JUMP JUMPDEST PUSH2 0x1E2E DUP10 DUP8 PUSH2 0x3A7D JUMP JUMPDEST SWAP1 POP PUSH1 0x0 PUSH2 0x3E05 DUP3 DUP7 PUSH2 0x3AAE JUMP JUMPDEST SWAP1 POP PUSH2 0x3E15 DUP8 PUSH2 0x310E DUP7 DUP5 PUSH2 0x3A7D JUMP JUMPDEST SWAP3 POP POP POP JUMPDEST SWAP6 SWAP5 POP POP POP POP POP JUMP JUMPDEST PUSH1 0x0 DUP1 DUP4 SLT ISZERO PUSH2 0x3E3B JUMPI PUSH2 0x3E3B PUSH2 0x954 PUSH1 0x1 DUP6 PUSH2 0x481E JUMP JUMPDEST PUSH1 0x0 DUP3 SLT ISZERO PUSH2 0x3E52 JUMPI PUSH2 0x3E52 PUSH2 0x954 PUSH1 0x1 DUP5 PUSH2 0x481E JUMP JUMPDEST PUSH2 0x11E0 PUSH2 0x3E63 DUP5 PUSH1 0x1 PUSH1 0x7F SHL PUSH2 0x4885 JUMP JUMPDEST DUP4 PUSH2 0x48D8 JUMP JUMPDEST PUSH1 0x0 PUSH2 0x11E0 PUSH2 0x3E63 DUP5 PUSH1 0x1 PUSH1 0x7F SHL PUSH2 0x4885 JUMP JUMPDEST PUSH1 0x0 PUSH1 0x1 PUSH1 0x7F SHL DUP3 SGT ISZERO PUSH2 0x3E98 JUMPI PUSH2 0x3E98 PUSH2 0x954 PUSH1 0x1 DUP5 PUSH2 0x491F JUMP JUMPDEST PUSH1 0x0 DUP3 SGT PUSH2 0x3EAE JUMPI PUSH2 0x3EAE PUSH2 0x954 PUSH1 0x0 DUP5 PUSH2 0x491F JUMP JUMPDEST PUSH1 0x1 PUSH1 0x7F SHL DUP3 EQ ISZERO PUSH2 0x3EC2 JUMPI POP PUSH1 0x0 PUSH2 0xE08 JUMP JUMPDEST PUSH5 0x733048C5A DUP3 SGT PUSH2 0x3EDE JUMPI POP PUSH1 0x1 PUSH2 0x1FF PUSH1 0x7C SHL SUB NOT PUSH2 0xE08 JUMP JUMPDEST PUSH1 0x0 DUP1 PUSH1 0x0 PUSH11 0x1C8464F76164760000000 DUP6 SGT PUSH2 0x3F23 JUMPI PUSH17 0xFFFFFFFFFFFFFFFFFFFFFFFFFFFFFFFFF NOT SWAP1 SWAP4 ADD SWAP3 PUSH11 0x1C8464F76164760000000 PUSH1 0x1 PUSH1 0x7F SHL DUP7 MUL SDIV SWAP5 POP JUMPDEST PUSH13 0xF1AADDD7742E90000000000000 DUP6 SGT PUSH2 0x3F67 JUMPI PUSH17 0x7FFFFFFFFFFFFFFFFFFFFFFFFFFFFFFFF NOT SWAP1 SWAP4 ADD SWAP3 PUSH13 0xF1AADDD7742E90000000000000 PUSH1 0x1 PUSH1 0x7F SHL DUP7 MUL SDIV SWAP5 POP JUMPDEST PUSH7 0x15FC21041027AF PUSH1 0x3F SHL DUP6 SGT PUSH2 0x3FA5 JUMPI PUSH17 0x3FFFFFFFFFFFFFFFFFFFFFFFFFFFFFFFF NOT SWAP1 SWAP4 ADD SWAP3 PUSH7 0x15FC21041027AF PUSH1 0x3F SHL PUSH1 0x1 PUSH1 0x7F SHL DUP7 MUL SDIV SWAP5 POP JUMPDEST PUSH7 0x960AADC109E7B PUSH1 0x46 SHL DUP6 SGT PUSH2 0x3FE3 JUMPI PUSH17 0x1FFFFFFFFFFFFFFFFFFFFFFFFFFFFFFFF NOT SWAP1 SWAP4 ADD SWAP3 PUSH7 0x960AADC109E7B PUSH1 0x46 SHL PUSH1 0x1 PUSH1 0x7F SHL DUP7 MUL SDIV SWAP5 POP JUMPDEST PUSH7 0x454AAA8EFE073 PUSH1 0x4A SHL DUP6 SGT PUSH2 0x4020 JUMPI PUSH16 0xFFFFFFFFFFFFFFFFFFFFFFFFFFFFFFFF NOT SWAP1 SWAP4 ADD SWAP3 PUSH7 0x454AAA8EFE073 PUSH1 0x4A SHL PUSH1 0x1 PUSH1 0x7F SHL DUP7 MUL SDIV SWAP5 POP JUMPDEST PUSH7 0x2F16AC6C59DE7 PUSH1 0x4C SHL DUP6 SGT PUSH2 0x4054 JUMPI PUSH1 0x1 PUSH1 0x1 PUSH1 0x7F SHL SUB NOT SWAP1 SWAP4 ADD SWAP3 PUSH7 0x2F16AC6C59DE7 PUSH1 0x4C SHL PUSH1 0x1 PUSH1 0x7F SHL DUP7 MUL SDIV SWAP5 POP JUMPDEST PUSH7 0x9B4597E37CB05 PUSH1 0x4B SHL DUP6 SGT PUSH2 0x4091 JUMPI PUSH16 0x3FFFFFFFFFFFFFFFFFFFFFFFFFFFFFFF NOT SWAP1 SWAP4 ADD SWAP3 PUSH7 0x9B4597E37CB05 PUSH1 0x4B SHL PUSH1 0x1 PUSH1 0x7F SHL DUP7 MUL SDIV SWAP5 POP JUMPDEST PUSH7 0x18EBEF9EAC820B PUSH1 0x4A SHL DUP6 SGT PUSH2 0x40CE JUMPI PUSH16 0x1FFFFFFFFFFFFFFFFFFFFFFFFFFFFFFF NOT SWAP1 SWAP4 ADD SWAP3 PUSH7 0x18EBEF9EAC820B PUSH1 0x4A SHL PUSH1 0x1 PUSH1 0x7F SHL DUP7 MUL SDIV SWAP5 POP JUMPDEST PUSH16 0x70F5A893B608861E1F58934F97AEA57D DUP6 SGT PUSH2 0x4117 JUMPI PUSH16 0xFFFFFFFFFFFFFFFFFFFFFFFFFFFFFFF NOT SWAP1 SWAP4 ADD SWAP3 PUSH16 0x70F5A893B608861E1F58934F97AEA57D PUSH1 0x1 PUSH1 0x7F SHL DUP7 MUL SDIV SWAP5 POP JUMPDEST PUSH1 0x1 PUSH1 0x1 PUSH1 0x7F SHL SUB NOT DUP6 ADD SWAP3 POP DUP3 SWAP2 POP PUSH1 0x1 PUSH1 0x7F SHL DUP3 DUP1 MUL SDIV SWAP1 POP PUSH1 0x1 PUSH1 0x80 SHL DUP4 DUP2 SUB DUP4 MUL SDIV DUP5 ADD SWAP4 POP PUSH1 0x1 PUSH1 0x7F SHL DUP2 DUP4 MUL DUP2 PUSH2 0x4150 JUMPI INVALID JUMPDEST SDIV SWAP2 POP PUSH1 0x1 PUSH1 0x81 SHL DUP4 PUSH16 0xAAAAAAAAAAAAAAAAAAAAAAAAAAAAAAAA SUB DUP4 MUL DUP2 PUSH2 0x4174 JUMPI INVALID JUMPDEST SDIV DUP5 ADD SWAP4 POP PUSH1 0x1 PUSH1 0x7F SHL DUP2 DUP4 MUL DUP2 PUSH2 0x4188 JUMPI INVALID JUMPDEST SDIV SWAP2 POP PUSH1 0x3 PUSH1 0x80 SHL DUP4 PUSH16 0x99999999999999999999999999999999 SUB DUP4 MUL DUP2 PUSH2 0x41AC JUMPI INVALID JUMPDEST SDIV DUP5 ADD SWAP4 POP PUSH1 0x1 PUSH1 0x7F SHL DUP2 DUP4 MUL DUP2 PUSH2 0x41C0 JUMPI INVALID JUMPDEST SDIV SWAP2 POP PUSH1 0x1 PUSH1 0x82 SHL DUP4 PUSH16 0x92492492492492492492492492492492 SUB DUP4 MUL DUP2 PUSH2 0x41E4 JUMPI INVALID JUMPDEST SDIV DUP5 ADD SWAP4 POP PUSH1 0x1 PUSH1 0x7F SHL DUP2 DUP4 MUL DUP2 PUSH2 0x41F8 JUMPI INVALID JUMPDEST SDIV SWAP2 POP PUSH1 0x5 PUSH1 0x80 SHL DUP4 PUSH16 0x8E38E38E38E38E38E38E38E38E38E38E SUB DUP4 MUL DUP2 PUSH2 0x421C JUMPI INVALID JUMPDEST SDIV DUP5 ADD SWAP4 POP PUSH1 0x1 PUSH1 0x7F SHL DUP2 DUP4 MUL DUP2 PUSH2 0x4230 JUMPI INVALID JUMPDEST SDIV SWAP2 POP PUSH1 0x3 PUSH1 0x81 SHL DUP4 PUSH16 0x8BA2E8BA2E8BA2E8BA2E8BA2E8BA2E8B SUB DUP4 MUL DUP2 PUSH2 0x4254 JUMPI INVALID JUMPDEST SDIV DUP5 ADD SWAP4 POP PUSH1 0x1 PUSH1 0x7F SHL DUP2 DUP4 MUL DUP2 PUSH2 0x4268 JUMPI INVALID JUMPDEST SDIV SWAP2 POP PUSH1 0x7 PUSH1 0x80 SHL DUP4 PUSH16 0x89D89D89D89D89D89D89D89D89D89D89 SUB DUP4 MUL DUP2 PUSH2 0x428C JUMPI INVALID JUMPDEST SDIV DUP5 ADD SWAP4 POP PUSH1 0x1 PUSH1 0x7F SHL DUP2 DUP4 MUL DUP2 PUSH2 0x42A0 JUMPI INVALID JUMPDEST SDIV SWAP2 POP PUSH1 0x1 PUSH1 0x83 SHL DUP4 PUSH16 0x88888888888888888888888888888888 SUB DUP4 MUL DUP2 PUSH2 0x42C4 JUMPI INVALID JUMPDEST SDIV DUP5 ADD SWAP4 POP POP POP POP SWAP2 SWAP1 POP JUMP JUMPDEST PUSH1 0x0 PUSH2 0x2E67 PUSH2 0x3E63 DUP6 DUP6 PUSH2 0x4885 JUMP JUMPDEST PUSH1 0x0 PUSH1 0x1 PUSH2 0x1FF PUSH1 0x7C SHL SUB NOT DUP3 SLT ISZERO PUSH2 0x42FB JUMPI POP PUSH1 0x0 PUSH2 0xE08 JUMP JUMPDEST DUP2 PUSH2 0x430B JUMPI POP PUSH1 0x1 PUSH1 0x7F SHL PUSH2 0xE08 JUMP JUMPDEST PUSH1 0x0 DUP3 SGT ISZERO PUSH2 0x4322 JUMPI PUSH2 0x4322 PUSH2 0x954 PUSH1 0x1 DUP5 PUSH2 0x491F JUMP JUMPDEST PUSH1 0x1 PUSH1 0x7F SHL PUSH1 0x1 PUSH1 0x7C SHL DUP4 SMOD DUP1 DUP1 MUL DUP3 SWAP1 SDIV PUSH8 0x10E1B3BE415A0000 DUP2 MUL SWAP4 SWAP1 SWAP4 ADD SWAP3 SWAP1 SWAP2 DUP2 DUP4 MUL SDIV SWAP1 POP DUP1 PUSH8 0x5A0913F6B1E0000 MUL DUP4 ADD SWAP3 POP PUSH1 0x1 PUSH1 0x7F SHL DUP3 DUP3 MUL DUP2 PUSH2 0x436A JUMPI INVALID JUMPDEST SDIV SWAP1 POP DUP1 PUSH8 0x168244FDAC78000 MUL DUP4 ADD SWAP3 POP PUSH1 0x1 PUSH1 0x7F SHL DUP3 DUP3 MUL DUP2 PUSH2 0x438B JUMPI INVALID JUMPDEST SDIV SWAP1 POP DUP1 PUSH7 0x4807432BC18000 MUL DUP4 ADD SWAP3 POP PUSH1 0x1 PUSH1 0x7F SHL DUP3 DUP3 MUL DUP2 PUSH2 0x43AB JUMPI INVALID JUMPDEST SDIV SWAP1 POP DUP1 PUSH7 0xC0135DCA04000 MUL DUP4 ADD SWAP3 POP PUSH1 0x1 PUSH1 0x7F SHL DUP3 DUP3 MUL DUP2 PUSH2 0x43CB JUMPI INVALID JUMPDEST SDIV SWAP1 POP DUP1 PUSH7 0x1B707B1CDC000 MUL DUP4 ADD SWAP3 POP PUSH1 0x1 PUSH1 0x7F SHL DUP3 DUP3 MUL DUP2 PUSH2 0x43EB JUMPI INVALID JUMPDEST SDIV SWAP1 POP DUP1 PUSH6 0x36E0F639B800 MUL DUP4 ADD SWAP3 POP PUSH1 0x1 PUSH1 0x7F SHL DUP3 DUP3 MUL DUP2 PUSH2 0x440A JUMPI INVALID JUMPDEST SDIV SWAP1 POP DUP1 PUSH6 0x618FEE9F800 MUL DUP4 ADD SWAP3 POP PUSH1 0x1 PUSH1 0x7F SHL DUP3 DUP3 MUL DUP2 PUSH2 0x4429 JUMPI INVALID JUMPDEST SDIV SWAP1 POP DUP1 PUSH5 0x9C197DCC00 MUL DUP4 ADD SWAP3 POP PUSH1 0x1 PUSH1 0x7F SHL DUP3 DUP3 MUL DUP2 PUSH2 0x4447 JUMPI INVALID JUMPDEST SDIV SWAP1 POP DUP1 PUSH5 0xE30DCE400 MUL DUP4 ADD SWAP3 POP PUSH1 0x1 PUSH1 0x7F SHL DUP3 DUP3 MUL DUP2 PUSH2 0x4465 JUMPI INVALID JUMPDEST SDIV SWAP1 POP DUP1 PUSH5 0x12EBD1300 MUL DUP4 ADD SWAP3 POP PUSH1 0x1 PUSH1 0x7F SHL DUP3 DUP3 MUL DUP2 PUSH2 0x4483 JUMPI INVALID JUMPDEST SDIV SWAP1 POP DUP1 PUSH4 0x17499F00 MUL DUP4 ADD SWAP3 POP PUSH1 0x1 PUSH1 0x7F SHL DUP3 DUP3 MUL DUP2 PUSH2 0x44A0 JUMPI INVALID JUMPDEST SDIV SWAP1 POP DUP1 PUSH4 0x1A9D480 MUL DUP4 ADD SWAP3 POP PUSH1 0x1 PUSH1 0x7F SHL DUP3 DUP3 MUL DUP2 PUSH2 0x44BD JUMPI INVALID JUMPDEST SDIV SWAP1 POP DUP1 PUSH3 0x1C6380 MUL DUP4 ADD SWAP3 POP PUSH1 0x1 PUSH1 0x7F SHL DUP3 DUP3 MUL DUP2 PUSH2 0x44D9 JUMPI INVALID JUMPDEST SDIV SWAP1 POP DUP1 PUSH3 0x1C638 MUL DUP4 ADD SWAP3 POP PUSH1 0x1 PUSH1 0x7F SHL DUP3 DUP3 MUL DUP2 PUSH2 0x44F5 JUMPI INVALID JUMPDEST SDIV SWAP1 POP DUP1 PUSH2 0x1AB8 MUL DUP4 ADD SWAP3 POP PUSH1 0x1 PUSH1 0x7F SHL DUP3 DUP3 MUL DUP2 PUSH2 0x4510 JUMPI INVALID JUMPDEST SDIV SWAP1 POP DUP1 PUSH2 0x17C MUL DUP4 ADD SWAP3 POP PUSH1 0x1 PUSH1 0x7F SHL DUP3 DUP3 MUL DUP2 PUSH2 0x452B JUMPI INVALID JUMPDEST SDIV SWAP1 POP DUP1 PUSH1 0x14 MUL DUP4 ADD SWAP3 POP PUSH1 0x1 PUSH1 0x7F SHL DUP3 DUP3 MUL DUP2 PUSH2 0x4545 JUMPI INVALID JUMPDEST PUSH1 0x0 SWAP6 SWAP1 SWAP6 SUB SWAP5 PUSH8 0x21C3677C82B40000 SWAP2 SWAP1 SDIV SWAP4 DUP5 ADD SDIV DUP3 ADD PUSH1 0x1 PUSH1 0x7F SHL ADD SWAP3 SWAP1 POP PUSH1 0x1 PUSH1 0x84 SHL DUP5 AND ISZERO PUSH2 0x459B JUMPI PUSH19 0x43CBAF42A000812488FC5C220AD7B97BF6E99E PUSH13 0xF1AADDD7742E56D32FB9F99744 DUP5 MUL SDIV SWAP3 POP JUMPDEST PUSH1 0x1 PUSH1 0x83 SHL DUP5 AND ISZERO PUSH2 0x45D0 JUMPI PUSH18 0x5D27A9F51C31B7C2F8038212A0574779991 PUSH15 0xAFE10820813D65DFE6A33C07F738F DUP5 MUL SDIV SWAP3 POP JUMPDEST PUSH1 0x1 PUSH1 0x82 SHL DUP5 AND ISZERO PUSH2 0x4605 JUMPI PUSH17 0x1B4C902E273A58678D6D3BFDB93DB96D02 PUSH16 0x2582AB704279E8EFD15E0265855C47A DUP5 MUL SDIV SWAP3 POP JUMPDEST PUSH1 0x1 PUSH1 0x81 SHL DUP5 AND ISZERO PUSH2 0x463A JUMPI PUSH17 0x3B1CC971A9BB5B9867477440D6D157750 PUSH16 0x1152AAA3BF81CB9FDB76EAE12D029571 DUP5 MUL SDIV SWAP3 POP JUMPDEST PUSH1 0x1 PUSH1 0x80 SHL DUP5 AND ISZERO PUSH2 0x466F JUMPI PUSH17 0x15BF0A8B1457695355FB8AC404E7A79E3 PUSH16 0x2F16AC6C59DE6F8D5D6F63C1482A7C86 DUP5 MUL SDIV SWAP3 POP JUMPDEST PUSH1 0x1 PUSH1 0x7F SHL DUP5 AND ISZERO PUSH2 0x46A3 JUMPI PUSH16 0xD3094C70F034DE4B96FF7D5B6F99FCD8 PUSH16 0x4DA2CBF1BE5827F9EB3AD1AA9866EBB3 DUP5 MUL SDIV SWAP3 POP JUMPDEST PUSH1 0x1 PUSH1 0x7E SHL DUP5 AND ISZERO PUSH2 0x46D7 JUMPI PUSH16 0xA45AF1E1F40C333B3DE1DB4DD55F29A7 PUSH16 0x63AFBE7AB2082BA1A0AE5E4EB1B479DC DUP5 MUL SDIV SWAP3 POP JUMPDEST PUSH1 0x1 PUSH1 0x7D SHL DUP5 AND ISZERO PUSH2 0x470B JUMPI PUSH16 0x910B022DB7AE67CE76B441C27035C6A1 PUSH16 0x70F5A893B608861E1F58934F97AEA57D DUP5 MUL SDIV SWAP3 POP JUMPDEST PUSH1 0x1 PUSH1 0x7C SHL DUP5 AND ISZERO PUSH2 0x473F JUMPI PUSH16 0x88415ABBE9A76BEAD8D00CF112E4D4A8 PUSH16 0x783EAFEF1C0A8F3978C7F81824D62EBF DUP5 MUL SDIV SWAP3 POP JUMPDEST POP POP SWAP2 SWAP1 POP JUMP JUMPDEST PUSH1 0x0 PUSH1 0x1 PUSH1 0x7F SHL PUSH2 0x4757 DUP5 DUP5 PUSH2 0x4885 JUMP JUMPDEST DUP2 PUSH2 0x475E JUMPI INVALID JUMPDEST SDIV SWAP4 SWAP3 POP POP POP JUMP JUMPDEST PUSH1 0x0 DUP1 DUP3 SLT ISZERO PUSH2 0x477E JUMPI PUSH2 0x477E PUSH2 0x954 PUSH1 0x1 DUP5 PUSH2 0x481E JUMP JUMPDEST PUSH1 0x0 PUSH2 0x478A DUP5 DUP5 PUSH2 0x4885 JUMP JUMPDEST SWAP1 POP PUSH1 0x0 DUP2 SGT PUSH2 0x479E JUMPI PUSH1 0x0 SWAP2 POP POP PUSH2 0x11E3 JUMP JUMPDEST PUSH1 0x7F SHR SWAP4 SWAP3 POP POP POP JUMP JUMPDEST PUSH1 0x20 ADD MLOAD ISZERO ISZERO SWAP1 JUMP JUMPDEST PUSH1 0x0 DUP1 DUP6 PUSH2 0x47C3 JUMPI POP DUP3 SWAP1 POP DUP2 PUSH2 0x47F8 JUMP JUMPDEST DUP4 PUSH2 0x47D2 JUMPI POP DUP5 SWAP1 POP DUP4 PUSH2 0x47F8 JUMP JUMPDEST PUSH2 0x47E9 PUSH2 0x47DF DUP6 DUP8 PUSH2 0x3A7D JUMP JUMPDEST PUSH2 0x378A DUP9 DUP7 PUSH2 0x3A7D JUMP JUMPDEST SWAP2 POP PUSH2 0x47F5 DUP6 DUP5 PUSH2 0x3A7D JUMP JUMPDEST SWAP1 POP JUMPDEST SWAP5 POP SWAP5 SWAP3 POP POP POP JUMP JUMPDEST PUSH1 0x0 DUP1 PUSH2 0x4813 DUP5 DUP5 PUSH1 0x1 PUSH1 0x7F SHL PUSH2 0x4935 JUMP JUMPDEST SWAP2 POP SWAP2 POP SWAP3 POP SWAP3 SWAP1 POP JUMP JUMPDEST PUSH1 0x60 PUSH4 0xBD79545F PUSH1 0xE0 SHL DUP4 PUSH1 0x1 DUP2 GT ISZERO PUSH2 0x4834 JUMPI INVALID JUMPDEST PUSH1 0x40 DUP1 MLOAD PUSH1 0xFF SWAP1 SWAP3 AND PUSH1 0x24 DUP4 ADD MSTORE PUSH1 0x44 DUP1 DUP4 ADD DUP7 SWAP1 MSTORE DUP2 MLOAD DUP1 DUP5 SUB SWAP1 SWAP2 ADD DUP2 MSTORE PUSH1 0x64 SWAP1 SWAP3 ADD SWAP1 MSTORE PUSH1 0x20 DUP2 ADD DUP1 MLOAD PUSH1 0x1 PUSH1 0x1 PUSH1 0xE0 SHL SUB AND PUSH1 0x1 PUSH1 0x1 PUSH1 0xE0 SHL SUB NOT SWAP1 SWAP4 AND SWAP3 SWAP1 SWAP3 OR SWAP1 SWAP2 MSTORE SWAP1 POP SWAP3 SWAP2 POP POP JUMP JUMPDEST PUSH1 0x0 DUP3 ISZERO DUP1 PUSH2 0x4892 JUMPI POP DUP2 ISZERO JUMPDEST ISZERO PUSH2 0x489F JUMPI POP PUSH1 0x0 PUSH2 0x11E3 JUMP JUMPDEST POP DUP2 DUP2 MUL DUP2 DUP4 DUP3 DUP2 PUSH2 0x48AD JUMPI INVALID JUMPDEST SDIV EQ ISZERO DUP1 PUSH2 0x48C4 JUMPI POP DUP3 DUP3 DUP3 DUP2 PUSH2 0x48C0 JUMPI INVALID JUMPDEST SDIV EQ ISZERO JUMPDEST ISZERO PUSH2 0x11E3 JUMPI PUSH2 0x11E3 PUSH2 0x954 PUSH1 0x1 DUP6 DUP6 PUSH2 0x4991 JUMP JUMPDEST PUSH1 0x0 DUP2 PUSH2 0x48EE JUMPI PUSH2 0x48EE PUSH2 0x954 PUSH1 0x2 DUP6 DUP6 PUSH2 0x4991 JUMP JUMPDEST PUSH1 0x1 PUSH1 0xFF SHL DUP4 EQ DUP1 ISZERO PUSH2 0x4902 JUMPI POP DUP2 PUSH1 0x0 NOT EQ JUMPDEST ISZERO PUSH2 0x4916 JUMPI PUSH2 0x4916 PUSH2 0x954 PUSH1 0x3 DUP6 DUP6 PUSH2 0x4991 JUMP JUMPDEST DUP2 DUP4 DUP2 PUSH2 0x475E JUMPI INVALID JUMPDEST PUSH1 0x60 PUSH4 0xED2F26A1 PUSH1 0xE0 SHL DUP4 PUSH1 0x1 DUP2 GT ISZERO PUSH2 0x4834 JUMPI INVALID JUMPDEST PUSH1 0x0 DUP1 DUP3 DUP6 GT DUP1 PUSH2 0x4945 JUMPI POP DUP3 DUP5 GT JUMPDEST ISZERO PUSH2 0x4988 JUMPI PUSH1 0x0 DUP5 DUP7 LT ISZERO PUSH2 0x495A JUMPI DUP5 PUSH2 0x495C JUMP JUMPDEST DUP6 JUMPDEST SWAP1 POP PUSH2 0x4968 DUP2 DUP6 PUSH2 0x3AAE JUMP JUMPDEST SWAP1 POP PUSH2 0x4974 DUP7 DUP3 PUSH2 0x3AAE JUMP JUMPDEST SWAP3 POP PUSH2 0x4980 DUP6 DUP3 PUSH2 0x3AAE JUMP JUMPDEST SWAP2 POP POP PUSH2 0x2CD3 JUMP JUMPDEST POP SWAP3 SWAP4 SWAP2 SWAP3 POP POP JUMP JUMPDEST PUSH1 0x60 PUSH4 0x8C12DFE7 PUSH1 0xE0 SHL DUP5 PUSH1 0x3 DUP2 GT ISZERO PUSH2 0x49A7 JUMPI INVALID JUMPDEST PUSH1 0x40 DUP1 MLOAD PUSH1 0xFF SWAP1 SWAP3 AND PUSH1 0x24 DUP4 ADD MSTORE PUSH1 0x44 DUP3 ADD DUP7 SWAP1 MSTORE PUSH1 0x64 DUP1 DUP4 ADD DUP7 SWAP1 MSTORE DUP2 MLOAD DUP1 DUP5 SUB SWAP1 SWAP2 ADD DUP2 MSTORE PUSH1 0x84 SWAP1 SWAP3 ADD SWAP1 MSTORE PUSH1 0x20 DUP2 ADD DUP1 MLOAD PUSH1 0x1 PUSH1 0x1 PUSH1 0xE0 SHL SUB AND PUSH1 0x1 PUSH1 0x1 PUSH1 0xE0 SHL SUB NOT SWAP1 SWAP4 AND SWAP3 SWAP1 SWAP3 OR SWAP1 SWAP2 MSTORE SWAP1 POP SWAP4 SWAP3 POP POP POP JUMP JUMPDEST PUSH1 0x40 MLOAD DUP1 PUSH1 0xA0 ADD PUSH1 0x40 MSTORE DUP1 PUSH1 0x0 DUP2 MSTORE PUSH1 0x20 ADD PUSH1 0x0 DUP2 MSTORE PUSH1 0x20 ADD PUSH1 0x0 DUP2 MSTORE PUSH1 0x20 ADD PUSH1 0x0 DUP2 MSTORE PUSH1 0x20 ADD PUSH1 0x0 DUP2 MSTORE POP SWAP1 JUMP JUMPDEST PUSH1 0x40 DUP1 MLOAD PUSH1 0x60 DUP2 ADD DUP3 MSTORE PUSH1 0x0 DUP1 DUP3 MSTORE PUSH1 0x20 DUP3 ADD DUP2 SWAP1 MSTORE SWAP2 DUP2 ADD SWAP2 SWAP1 SWAP2 MSTORE SWAP1 JUMP JUMPDEST PUSH1 0x40 MLOAD DUP1 PUSH1 0x60 ADD PUSH1 0x40 MSTORE DUP1 PUSH1 0x0 DUP2 MSTORE PUSH1 0x20 ADD PUSH1 0x0 DUP2 MSTORE PUSH1 0x20 ADD PUSH1 0x0 DUP2 MSTORE POP SWAP1 JUMP JUMPDEST PUSH1 0x40 DUP1 MLOAD PUSH1 0x80 DUP2 ADD DUP3 MSTORE PUSH1 0x0 DUP1 DUP3 MSTORE PUSH1 0x20 DUP3 ADD DUP2 SWAP1 MSTORE SWAP2 DUP2 ADD DUP3 SWAP1 MSTORE PUSH1 0x60 DUP2 ADD SWAP2 SWAP1 SWAP2 MSTORE SWAP1 JUMP JUMPDEST PUSH1 0x40 MLOAD DUP1 PUSH1 0x40 ADD PUSH1 0x40 MSTORE DUP1 PUSH1 0x0 DUP2 MSTORE PUSH1 0x20 ADD PUSH1 0x0 DUP2 MSTORE POP SWAP1 JUMP JUMPDEST DUP1 CALLDATALOAD PUSH1 0x2 DUP2 LT PUSH2 0xE08 JUMPI PUSH1 0x0 DUP1 REVERT JUMPDEST PUSH1 0x0 DUP3 PUSH1 0x1F DUP4 ADD SLT PUSH2 0x4AD0 JUMPI DUP1 DUP2 REVERT JUMPDEST DUP2 MLOAD PUSH1 0x1 PUSH1 0x1 PUSH1 0x40 SHL SUB DUP1 DUP3 GT ISZERO PUSH2 0x4AE4 JUMPI INVALID JUMPDEST PUSH1 0x40 MLOAD PUSH1 0x1F DUP4 ADD PUSH1 0x1F NOT AND DUP2 ADD PUSH1 0x20 ADD DUP3 DUP2 GT DUP3 DUP3 LT OR ISZERO PUSH2 0x4B02 JUMPI INVALID JUMPDEST PUSH1 0x40 MSTORE DUP3 DUP2 MSTORE SWAP3 POP DUP3 DUP5 DUP4 ADD PUSH1 0x20 ADD DUP7 LT ISZERO PUSH2 0x4B1D JUMPI PUSH1 0x0 DUP1 REVERT JUMPDEST PUSH2 0x4B2E DUP4 PUSH1 0x20 DUP4 ADD PUSH1 0x20 DUP9 ADD PUSH2 0x519F JUMP JUMPDEST POP POP POP SWAP3 SWAP2 POP POP JUMP JUMPDEST PUSH1 0x0 PUSH1 0x40 DUP3 DUP5 SUB SLT ISZERO PUSH2 0x2362 JUMPI DUP1 DUP2 REVERT JUMPDEST DUP1 CALLDATALOAD PUSH4 0xFFFFFFFF DUP2 AND DUP2 EQ PUSH2 0xE08 JUMPI PUSH1 0x0 DUP1 REVERT JUMPDEST PUSH1 0x0 PUSH1 0x20 DUP3 DUP5 SUB SLT ISZERO PUSH2 0x4B6D JUMPI DUP1 DUP2 REVERT JUMPDEST DUP2 CALLDATALOAD PUSH2 0x11E0 DUP2 PUSH2 0x5279 JUMP JUMPDEST PUSH1 0x0 PUSH1 0x20 DUP3 DUP5 SUB SLT ISZERO PUSH2 0x4B89 JUMPI DUP1 DUP2 REVERT JUMPDEST DUP2 MLOAD PUSH2 0x11E0 DUP2 PUSH2 0x5279 JUMP JUMPDEST PUSH1 0x0 DUP1 PUSH1 0x40 DUP4 DUP6 SUB SLT ISZERO PUSH2 0x4BA6 JUMPI DUP1 DUP2 REVERT JUMPDEST DUP3 CALLDATALOAD PUSH2 0x4BB1 DUP2 PUSH2 0x5279 JUMP JUMPDEST SWAP5 PUSH1 0x20 SWAP4 SWAP1 SWAP4 ADD CALLDATALOAD SWAP4 POP POP POP JUMP JUMPDEST PUSH1 0x0 DUP1 PUSH1 0x40 DUP4 DUP6 SUB SLT ISZERO PUSH2 0x4BD1 JUMPI DUP2 DUP3 REVERT JUMPDEST DUP3 CALLDATALOAD PUSH2 0x4BDC DUP2 PUSH2 0x5279 JUMP JUMPDEST SWAP2 POP PUSH2 0x4BEA PUSH1 0x20 DUP5 ADD PUSH2 0x4AB1 JUMP JUMPDEST SWAP1 POP SWAP3 POP SWAP3 SWAP1 POP JUMP JUMPDEST PUSH1 0x0 DUP1 PUSH1 0x0 DUP1 PUSH1 0x0 DUP1 PUSH1 0xC0 DUP8 DUP10 SUB SLT ISZERO PUSH2 0x4C0B JUMPI DUP2 DUP3 REVERT JUMPDEST DUP7 MLOAD PUSH2 0x4C16 DUP2 PUSH2 0x5279 JUMP JUMPDEST PUSH1 0x20 DUP9 ADD MLOAD SWAP1 SWAP7 POP PUSH1 0x1 PUSH1 0x1 PUSH1 0x40 SHL SUB DUP1 DUP3 GT ISZERO PUSH2 0x4C32 JUMPI DUP4 DUP5 REVERT JUMPDEST PUSH2 0x4C3E DUP11 DUP4 DUP12 ADD PUSH2 0x4AC0 JUMP JUMPDEST SWAP7 POP PUSH1 0x40 DUP10 ADD MLOAD SWAP2 POP DUP1 DUP3 GT ISZERO PUSH2 0x4C53 JUMPI DUP4 DUP5 REVERT JUMPDEST POP PUSH2 0x4C60 DUP10 DUP3 DUP11 ADD PUSH2 0x4AC0 JUMP JUMPDEST SWAP5 POP POP PUSH1 0x60 DUP8 ADD MLOAD SWAP3 POP PUSH1 0x80 DUP8 ADD MLOAD PUSH2 0x4C78 DUP2 PUSH2 0x5279 JUMP JUMPDEST PUSH1 0xA0 DUP9 ADD MLOAD SWAP1 SWAP3 POP PUSH2 0x4C89 DUP2 PUSH2 0x5279 JUMP JUMPDEST DUP1 SWAP2 POP POP SWAP3 SWAP6 POP SWAP3 SWAP6 POP SWAP3 SWAP6 JUMP JUMPDEST PUSH1 0x0 DUP1 PUSH1 0x40 DUP4 DUP6 SUB SLT ISZERO PUSH2 0x4BA6 JUMPI DUP2 DUP3 REVERT JUMPDEST PUSH1 0x0 PUSH1 0x20 DUP3 DUP5 SUB SLT ISZERO PUSH2 0x4CBA JUMPI DUP1 DUP2 REVERT JUMPDEST DUP2 MLOAD DUP1 ISZERO ISZERO DUP2 EQ PUSH2 0x11E0 JUMPI DUP2 DUP3 REVERT JUMPDEST PUSH1 0x0 PUSH1 0x20 DUP3 DUP5 SUB SLT ISZERO PUSH2 0x4CDA JUMPI DUP1 DUP2 REVERT JUMPDEST POP CALLDATALOAD SWAP2 SWAP1 POP JUMP JUMPDEST PUSH1 0x0 DUP1 PUSH1 0x40 DUP4 DUP6 SUB SLT ISZERO PUSH2 0x4CF3 JUMPI DUP2 DUP3 REVERT JUMPDEST DUP3 CALLDATALOAD SWAP2 POP PUSH1 0x20 DUP4 ADD CALLDATALOAD PUSH2 0x4D05 DUP2 PUSH2 0x5279 JUMP JUMPDEST DUP1 SWAP2 POP POP SWAP3 POP SWAP3 SWAP1 POP JUMP JUMPDEST PUSH1 0x0 DUP1 PUSH1 0x40 DUP4 DUP6 SUB SLT ISZERO PUSH2 0x4D22 JUMPI DUP2 DUP3 REVERT JUMPDEST POP POP DUP1 CALLDATALOAD SWAP3 PUSH1 0x20 SWAP1 SWAP2 ADD CALLDATALOAD SWAP2 POP JUMP JUMPDEST PUSH1 0x0 DUP1 PUSH1 0x40 DUP4 DUP6 SUB SLT ISZERO PUSH2 0x4D43 JUMPI DUP2 DUP3 REVERT JUMPDEST DUP3 CALLDATALOAD SWAP2 POP PUSH2 0x4BEA PUSH1 0x20 DUP5 ADD PUSH2 0x4B48 JUMP JUMPDEST PUSH1 0x0 PUSH1 0x20 DUP3 DUP5 SUB SLT ISZERO PUSH2 0x4D64 JUMPI DUP1 DUP2 REVERT JUMPDEST PUSH2 0x11E0 DUP3 PUSH2 0x4AB1 JUMP JUMPDEST PUSH1 0x0 DUP1 PUSH1 0x0 PUSH1 0xA0 DUP5 DUP7 SUB SLT ISZERO PUSH2 0x4D81 JUMPI DUP3 DUP4 REVERT JUMPDEST PUSH2 0x4D8B DUP6 DUP6 PUSH2 0x4B37 JUMP JUMPDEST SWAP3 POP PUSH2 0x4D9A DUP6 PUSH1 0x40 DUP7 ADD PUSH2 0x4B37 JUMP JUMPDEST SWAP2 POP PUSH1 0x80 DUP5 ADD CALLDATALOAD SWAP1 POP SWAP3 POP SWAP3 POP SWAP3 JUMP JUMPDEST PUSH1 0x0 PUSH1 0x20 DUP3 DUP5 SUB SLT ISZERO PUSH2 0x4DBB JUMPI DUP1 DUP2 REVERT JUMPDEST POP MLOAD SWAP2 SWAP1 POP JUMP JUMPDEST PUSH1 0x0 DUP1 PUSH1 0x0 DUP1 PUSH1 0x0 DUP1 PUSH1 0xC0 DUP8 DUP10 SUB SLT ISZERO PUSH2 0x4DDA JUMPI DUP4 DUP5 REVERT JUMPDEST DUP7 MLOAD SWAP6 POP PUSH1 0x20 DUP8 ADD MLOAD PUSH1 0x1 PUSH1 0x1 PUSH1 0x40 SHL SUB DUP1 DUP3 GT ISZERO PUSH2 0x4DF7 JUMPI DUP6 DUP7 REVERT JUMPDEST PUSH2 0x4E03 DUP11 DUP4 DUP12 ADD PUSH2 0x4AC0 JUMP JUMPDEST SWAP7 POP PUSH1 0x40 DUP10 ADD MLOAD SWAP2 POP DUP1 DUP3 GT ISZERO PUSH2 0x4C53 JUMPI DUP6 DUP7 REVERT JUMPDEST PUSH1 0x0 DUP1 PUSH1 0x0 DUP1 PUSH1 0x0 PUSH1 0xA0 DUP7 DUP9 SUB SLT ISZERO PUSH2 0x4E2F JUMPI DUP3 DUP4 REVERT JUMPDEST DUP6 CALLDATALOAD SWAP5 POP PUSH2 0x4E3F PUSH1 0x20 DUP8 ADD PUSH2 0x4B48 JUMP JUMPDEST SWAP4 POP PUSH1 0x40 DUP7 ADD CALLDATALOAD SWAP3 POP PUSH2 0x4E54 PUSH1 0x60 DUP8 ADD PUSH2 0x4B48 JUMP JUMPDEST SWAP2 POP PUSH2 0x4E62 PUSH1 0x80 DUP8 ADD PUSH2 0x4B48 JUMP JUMPDEST SWAP1 POP SWAP3 SWAP6 POP SWAP3 SWAP6 SWAP1 SWAP4 POP JUMP JUMPDEST PUSH1 0x0 DUP2 MLOAD DUP1 DUP5 MSTORE PUSH2 0x4E86 DUP2 PUSH1 0x20 DUP7 ADD PUSH1 0x20 DUP7 ADD PUSH2 0x519F JUMP JUMPDEST PUSH1 0x1F ADD PUSH1 0x1F NOT AND SWAP3 SWAP1 SWAP3 ADD PUSH1 0x20 ADD SWAP3 SWAP2 POP POP JUMP JUMPDEST PUSH1 0x1 PUSH1 0x1 PUSH1 0xA0 SHL SUB SWAP2 SWAP1 SWAP2 AND DUP2 MSTORE PUSH1 0x20 ADD SWAP1 JUMP JUMPDEST PUSH1 0x1 PUSH1 0x1 PUSH1 0xA0 SHL SUB SWAP3 SWAP1 SWAP3 AND DUP3 MSTORE PUSH1 0x20 DUP3 ADD MSTORE PUSH1 0x40 ADD SWAP1 JUMP JUMPDEST PUSH1 0x20 DUP1 DUP3 MSTORE DUP3 MLOAD DUP3 DUP3 ADD DUP2 SWAP1 MSTORE PUSH1 0x0 SWAP2 SWAP1 DUP5 DUP3 ADD SWAP1 PUSH1 0x40 DUP6 ADD SWAP1 DUP5 JUMPDEST DUP2 DUP2 LT ISZERO PUSH2 0x4F08 JUMPI DUP4 MLOAD PUSH1 0x1 PUSH1 0x1 PUSH1 0xA0 SHL SUB AND DUP4 MSTORE SWAP3 DUP5 ADD SWAP3 SWAP2 DUP5 ADD SWAP2 PUSH1 0x1 ADD PUSH2 0x4EE3 JUMP JUMPDEST POP SWAP1 SWAP7 SWAP6 POP POP POP POP POP POP JUMP JUMPDEST SWAP1 ISZERO ISZERO DUP2 MSTORE PUSH1 0x20 ADD SWAP1 JUMP JUMPDEST SWAP1 DUP2 MSTORE PUSH1 0x20 ADD SWAP1 JUMP JUMPDEST SWAP3 DUP4 MSTORE PUSH1 0x1 PUSH1 0x1 PUSH1 0xA0 SHL SUB SWAP2 SWAP1 SWAP2 AND PUSH1 0x20 DUP4 ADD MSTORE PUSH4 0xFFFFFFFF AND PUSH1 0x40 DUP3 ADD MSTORE PUSH1 0x60 ADD SWAP1 JUMP JUMPDEST PUSH1 0x0 PUSH1 0x20 DUP3 MSTORE PUSH2 0x11E0 PUSH1 0x20 DUP4 ADD DUP5 PUSH2 0x4E6E JUMP JUMPDEST SWAP2 DUP3 MSTORE PUSH1 0x20 DUP3 ADD MSTORE PUSH1 0x40 ADD SWAP1 JUMP JUMPDEST PUSH1 0x20 DUP1 DUP3 MSTORE PUSH1 0x1C SWAP1 DUP3 ADD MSTORE PUSH32 0x4E4F4E5F524547495354455245445F504F4F4C5F49445F4552524F5200000000 PUSH1 0x40 DUP3 ADD MSTORE PUSH1 0x60 ADD SWAP1 JUMP JUMPDEST PUSH1 0x20 DUP1 DUP3 MSTORE PUSH1 0x1B SWAP1 DUP3 ADD MSTORE PUSH32 0x504F4F4C5F544F5F4A4F494E5F4E4F545F53454C465F4552524F520000000000 PUSH1 0x40 DUP3 ADD MSTORE PUSH1 0x60 ADD SWAP1 JUMP JUMPDEST PUSH1 0x20 DUP1 DUP3 MSTORE PUSH1 0x1C SWAP1 DUP3 ADD MSTORE PUSH32 0x4E4F4E5F524547495354455245445F52425F504F4F4C5F4552524F5200000000 PUSH1 0x40 DUP3 ADD MSTORE PUSH1 0x60 ADD SWAP1 JUMP JUMPDEST PUSH1 0x20 DUP1 DUP3 MSTORE PUSH1 0x13 SWAP1 DUP3 ADD MSTORE PUSH19 0x10D497D25395115495905317D2539590531251 PUSH1 0x6A SHL PUSH1 0x40 DUP3 ADD MSTORE PUSH1 0x60 ADD SWAP1 JUMP JUMPDEST DUP2 MLOAD DUP2 MSTORE PUSH1 0x20 DUP1 DUP4 ADD MLOAD SWAP1 DUP3 ADD MSTORE PUSH1 0x40 SWAP2 DUP3 ADD MLOAD SWAP2 DUP2 ADD SWAP2 SWAP1 SWAP2 MSTORE PUSH1 0x60 ADD SWAP1 JUMP JUMPDEST DUP2 MLOAD PUSH1 0x1 PUSH1 0x1 PUSH1 0xA0 SHL SUB SWAP1 DUP2 AND DUP3 MSTORE PUSH1 0x20 DUP1 DUP5 ADD MLOAD SWAP1 SWAP2 AND SWAP1 DUP3 ADD MSTORE PUSH1 0x40 DUP1 DUP4 ADD MLOAD PUSH4 0xFFFFFFFF SWAP1 DUP2 AND SWAP2 DUP4 ADD SWAP2 SWAP1 SWAP2 MSTORE PUSH1 0x60 SWAP3 DUP4 ADD MLOAD AND SWAP2 DUP2 ADD SWAP2 SWAP1 SWAP2 MSTORE PUSH1 0x80 ADD SWAP1 JUMP JUMPDEST DUP2 MLOAD PUSH1 0x1 PUSH1 0x1 PUSH1 0x40 SHL SUB AND DUP2 MSTORE PUSH1 0x20 DUP1 DUP4 ADD MLOAD PUSH1 0x1 PUSH1 0x1 PUSH1 0x60 SHL SUB SWAP1 DUP2 AND SWAP2 DUP4 ADD SWAP2 SWAP1 SWAP2 MSTORE PUSH1 0x40 SWAP3 DUP4 ADD MLOAD AND SWAP2 DUP2 ADD SWAP2 SWAP1 SWAP2 MSTORE PUSH1 0x60 ADD SWAP1 JUMP JUMPDEST SWAP3 DUP4 MSTORE PUSH1 0x20 DUP4 ADD SWAP2 SWAP1 SWAP2 MSTORE PUSH1 0x40 DUP3 ADD MSTORE PUSH1 0x60 ADD SWAP1 JUMP JUMPDEST SWAP4 DUP5 MSTORE PUSH1 0x20 DUP5 ADD SWAP3 SWAP1 SWAP3 MSTORE PUSH1 0x40 DUP4 ADD MSTORE PUSH1 0x60 DUP3 ADD MSTORE PUSH1 0x80 ADD SWAP1 JUMP JUMPDEST SWAP5 DUP6 MSTORE PUSH1 0x20 DUP6 ADD SWAP4 SWAP1 SWAP4 MSTORE PUSH1 0x40 DUP5 ADD SWAP2 SWAP1 SWAP2 MSTORE PUSH1 0x60 DUP4 ADD MSTORE PUSH1 0x80 DUP3 ADD MSTORE PUSH1 0xA0 ADD SWAP1 JUMP JUMPDEST SWAP5 DUP6 MSTORE PUSH4 0xFFFFFFFF SWAP4 DUP5 AND PUSH1 0x20 DUP7 ADD MSTORE PUSH1 0x40 DUP6 ADD SWAP3 SWAP1 SWAP3 MSTORE DUP3 AND PUSH1 0x60 DUP5 ADD MSTORE AND PUSH1 0x80 DUP3 ADD MSTORE PUSH1 0xA0 ADD SWAP1 JUMP JUMPDEST SWAP3 DUP4 MSTORE PUSH1 0xFF SWAP2 DUP3 AND PUSH1 0x20 DUP5 ADD MSTORE AND PUSH1 0x40 DUP3 ADD MSTORE PUSH1 0x60 ADD SWAP1 JUMP JUMPDEST PUSH4 0xFFFFFFFF SWAP2 SWAP1 SWAP2 AND DUP2 MSTORE PUSH1 0x20 ADD SWAP1 JUMP JUMPDEST PUSH4 0xFFFFFFFF SWAP3 DUP4 AND DUP2 MSTORE SWAP2 AND PUSH1 0x20 DUP3 ADD MSTORE PUSH1 0x40 ADD SWAP1 JUMP JUMPDEST PUSH1 0x0 JUMPDEST DUP4 DUP2 LT ISZERO PUSH2 0x51BA JUMPI DUP2 DUP2 ADD MLOAD DUP4 DUP3 ADD MSTORE PUSH1 0x20 ADD PUSH2 0x51A2 JUMP JUMPDEST DUP4 DUP2 GT ISZERO PUSH2 0x51C9 JUMPI PUSH1 0x0 DUP5 DUP5 ADD MSTORE JUMPDEST POP POP POP POP JUMP JUMPDEST PUSH1 0xE0 SHR SWAP1 JUMP JUMPDEST PUSH1 0x0 PUSH1 0x44 RETURNDATASIZE LT ISZERO PUSH2 0x51E5 JUMPI PUSH2 0xC41 JUMP JUMPDEST PUSH1 0x4 DUP2 DUP3 RETURNDATACOPY PUSH4 0x8C379A0 PUSH2 0x51F9 DUP3 MLOAD PUSH2 0x51CF JUMP JUMPDEST EQ PUSH2 0x5203 JUMPI PUSH2 0xC41 JUMP JUMPDEST PUSH1 0x40 MLOAD RETURNDATASIZE PUSH1 0x3 NOT ADD PUSH1 0x4 DUP3 RETURNDATACOPY DUP1 MLOAD RETURNDATASIZE PUSH1 0x1 PUSH1 0x1 PUSH1 0x40 SHL SUB DUP2 PUSH1 0x24 DUP5 ADD GT DUP2 DUP5 GT OR ISZERO PUSH2 0x5232 JUMPI POP POP POP POP PUSH2 0xC41 JUMP JUMPDEST DUP3 DUP5 ADD SWAP3 POP DUP3 MLOAD SWAP2 POP DUP1 DUP3 GT ISZERO PUSH2 0x524C JUMPI POP POP POP POP PUSH2 0xC41 JUMP JUMPDEST POP RETURNDATASIZE DUP4 ADD PUSH1 0x20 DUP3 DUP5 ADD ADD GT ISZERO PUSH2 0x5264 JUMPI POP POP POP PUSH2 0xC41 JUMP JUMPDEST PUSH1 0x1F ADD PUSH1 0x1F NOT AND DUP2 ADD PUSH1 0x20 ADD PUSH1 0x40 MSTORE SWAP2 POP POP SWAP1 JUMP JUMPDEST PUSH1 0x1 PUSH1 0x1 PUSH1 0xA0 SHL SUB DUP2 AND DUP2 EQ PUSH2 0x1194 JUMPI PUSH1 0x0 DUP1 REVERT INVALID LOG2 PUSH5 0x6970667358 0x22 SLT KECCAK256 PUSH16 0x4E794E5E01C4CFFD4819ABB12E483DDA 0xC MSIZE 0xEB 0xEA CHAINID 0xD7 0xC8 EXTCODESIZE 0xE9 0xAB 0xD6 DUP10 DIV 0xE8 0x29 PUSH5 0x736F6C6343 STOP SMOD DIV STOP CALLER "
		},
		"gasEstimates": {
			"creation": {
				"codeDepositCost": "4237600",
				"executionCost": "25722",
				"totalCost": "4263322"
			},
			"external": {
				"addAuthorizedAddress(address)": "infinite",
				"addPopAddress(address)": "24274",
				"aggregatedStatsByEpoch(uint256)": "4592",
				"authorities(uint256)": "2106",
				"authorized(address)": "1374",
				"cobbDouglasAlphaDenominator()": "1212",
				"cobbDouglasAlphaNumerator()": "1179",
				"computeRewardBalanceOfDelegator(bytes32,address)": "infinite",
				"computeRewardBalanceOfOperator(bytes32)": "infinite",
				"createStakingPool(address)": "infinite",
				"creditPopReward(address,uint256)": "infinite",
				"currentEpoch()": "1117",
				"currentEpochStartTimeInSeconds()": "1162",
				"decreaseStakingPoolOperatorShare(bytes32,uint32)": "25033",
				"endEpoch()": "infinite",
				"epochDurationInSeconds()": "1140",
				"finalizePool(bytes32)": "infinite",
				"getAuthorizedAddresses()": "infinite",
				"getCurrentEpochEarliestEndTimeInSeconds()": "infinite",
				"getDragoRegistry()": "342",
				"getGlobalStakeByStatus(uint8)": "infinite",
				"getGrgContract()": "318",
				"getGrgVault()": "319",
				"getOwnerStakeByStatus(address,uint8)": "infinite",
				"getParams()": "3682",
				"getStakeDelegatedToPoolByOwner(address,bytes32)": "infinite",
				"getStakingPool(bytes32)": "2559",
				"getStakingPoolStatsThisEpoch(bytes32)": "3963",
				"getTotalStake(address)": "infinite",
				"getTotalStakeDelegatedToPool(bytes32)": "infinite",
				"grgReservedForPoolRewards()": "1161",
				"init()": "infinite",
				"joinStakingPoolAsRbPoolAccount(bytes32,address)": "infinite",
				"minimumPoolStake()": "1140",
				"moveStake((uint8,bytes32),(uint8,bytes32),uint256)": "infinite",
				"owner()": "1116",
				"poolIdByRbPoolAccount(address)": "1361",
				"poolStatsByEpoch(bytes32,uint256)": "3079",
				"removeAuthorizedAddress(address)": "infinite",
				"removeAuthorizedAddressAtIndex(address,uint256)": "92453",
				"removePopAddress(address)": "24198",
				"rewardDelegatedStakeWeight()": "1135",
				"rewardsByPoolId(bytes32)": "1282",
				"setParams(uint256,uint32,uint256,uint32,uint32)": "infinite",
				"setStakingPalAddress(bytes32,address)": "23195",
				"stake(uint256)": "infinite",
				"stakingContract()": "1181",
				"transferOwnership(address)": "23697",
				"unstake(uint256)": "infinite",
				"validPops(address)": "1374",
				"withdrawDelegatorRewards(bytes32)": "infinite"
			}
		},
		"methodIdentifiers": {
			"addAuthorizedAddress(address)": "42f1181e",
			"addPopAddress(address)": "1f81eb80",
			"aggregatedStatsByEpoch(uint256)": "38229d93",
			"authorities(uint256)": "494503d4",
			"authorized(address)": "b9181611",
			"cobbDouglasAlphaDenominator()": "e8eeb3f8",
			"cobbDouglasAlphaNumerator()": "81666796",
			"computeRewardBalanceOfDelegator(bytes32,address)": "e907f003",
			"computeRewardBalanceOfOperator(bytes32)": "bb7ef7e0",
			"createStakingPool(address)": "be111af4",
			"creditPopReward(address,uint256)": "ecc128f2",
			"currentEpoch()": "76671808",
			"currentEpochStartTimeInSeconds()": "587da023",
			"decreaseStakingPoolOperatorShare(bytes32,uint32)": "5d91121d",
			"endEpoch()": "0b9663db",
			"epochDurationInSeconds()": "63403801",
			"finalizePool(bytes32)": "ff691b11",
			"getAuthorizedAddresses()": "d39de6e9",
			"getCurrentEpochEarliestEndTimeInSeconds()": "b2baa33e",
			"getDragoRegistry()": "b652b41f",
			"getGlobalStakeByStatus(uint8)": "e804d0a4",
			"getGrgContract()": "ef4ba680",
			"getGrgVault()": "e0822db7",
			"getOwnerStakeByStatus(address,uint8)": "44a6958b",
			"getParams()": "5e615a6b",
			"getStakeDelegatedToPoolByOwner(address,bytes32)": "f252b7a1",
			"getStakingPool(bytes32)": "4bcc3f67",
			"getStakingPoolStatsThisEpoch(bytes32)": "46b97959",
			"getTotalStake(address)": "1e7ff8f6",
			"getTotalStakeDelegatedToPool(bytes32)": "3e4ad732",
			"grgReservedForPoolRewards()": "d14dc231",
			"init()": "e1c7392a",
			"joinStakingPoolAsRbPoolAccount(bytes32,address)": "1a67a0a0",
			"minimumPoolStake()": "a26171e2",
			"moveStake((uint8,bytes32),(uint8,bytes32),uint256)": "58f6c7e3",
			"owner()": "8da5cb5b",
			"poolIdByRbPoolAccount(address)": "7fa140c7",
			"poolStatsByEpoch(bytes32,uint256)": "2a94c279",
			"removeAuthorizedAddress(address)": "70712939",
			"removeAuthorizedAddressAtIndex(address,uint256)": "9ad26744",
			"removePopAddress(address)": "36d7dd8e",
			"rewardDelegatedStakeWeight()": "e0ee036e",
			"rewardsByPoolId(bytes32)": "c18c9141",
			"setParams(uint256,uint32,uint256,uint32,uint32)": "9c3ccc82",
			"setStakingPalAddress(bytes32,address)": "3a832382",
			"stake(uint256)": "a694fc3a",
			"stakingContract()": "ee99205c",
			"transferOwnership(address)": "f2fde38b",
			"unstake(uint256)": "2e17de78",
			"validPops(address)": "540c2d53",
			"withdrawDelegatorRewards(bytes32)": "b510879f"
		}
	},
	"abi": [
		{
			"anonymous": false,
			"inputs": [
				{
					"indexed": true,
					"internalType": "address",
					"name": "target",
					"type": "address"
				},
				{
					"indexed": true,
					"internalType": "address",
					"name": "caller",
					"type": "address"
				}
			],
			"name": "AuthorizedAddressAdded",
			"type": "event"
		},
		{
			"anonymous": false,
			"inputs": [
				{
					"indexed": true,
					"internalType": "address",
					"name": "target",
					"type": "address"
				},
				{
					"indexed": true,
					"internalType": "address",
					"name": "caller",
					"type": "address"
				}
			],
			"name": "AuthorizedAddressRemoved",
			"type": "event"
		},
		{
			"anonymous": false,
			"inputs": [
				{
					"indexed": false,
					"internalType": "string",
					"name": "reason",
					"type": "string"
				}
			],
			"name": "CatchStringEvent",
			"type": "event"
		},
		{
			"anonymous": false,
			"inputs": [
				{
					"indexed": true,
					"internalType": "uint256",
					"name": "epoch",
					"type": "uint256"
				},
				{
					"indexed": false,
					"internalType": "uint256",
					"name": "numPoolsToFinalize",
					"type": "uint256"
				},
				{
					"indexed": false,
					"internalType": "uint256",
					"name": "rewardsAvailable",
					"type": "uint256"
				},
				{
					"indexed": false,
					"internalType": "uint256",
					"name": "totalFeesCollected",
					"type": "uint256"
				},
				{
					"indexed": false,
					"internalType": "uint256",
					"name": "totalWeightedStake",
					"type": "uint256"
				}
			],
			"name": "EpochEnded",
			"type": "event"
		},
		{
			"anonymous": false,
			"inputs": [
				{
					"indexed": true,
					"internalType": "uint256",
					"name": "epoch",
					"type": "uint256"
				},
				{
					"indexed": false,
					"internalType": "uint256",
					"name": "rewardsPaid",
					"type": "uint256"
				},
				{
					"indexed": false,
					"internalType": "uint256",
					"name": "rewardsRemaining",
					"type": "uint256"
				}
			],
			"name": "EpochFinalized",
			"type": "event"
		},
		{
			"anonymous": false,
			"inputs": [
				{
					"indexed": false,
					"internalType": "uint256",
					"name": "grgAmount",
					"type": "uint256"
				}
			],
			"name": "GrgMintEvent",
			"type": "event"
		},
		{
			"anonymous": false,
			"inputs": [
				{
					"indexed": true,
					"internalType": "address",
					"name": "staker",
					"type": "address"
				},
				{
					"indexed": false,
					"internalType": "uint256",
					"name": "amount",
					"type": "uint256"
				},
				{
					"indexed": false,
					"internalType": "uint8",
					"name": "fromStatus",
					"type": "uint8"
				},
				{
					"indexed": true,
					"internalType": "bytes32",
					"name": "fromPool",
					"type": "bytes32"
				},
				{
					"indexed": false,
					"internalType": "uint8",
					"name": "toStatus",
					"type": "uint8"
				},
				{
					"indexed": true,
					"internalType": "bytes32",
					"name": "toPool",
					"type": "bytes32"
				}
			],
			"name": "MoveStake",
			"type": "event"
		},
		{
			"anonymous": false,
			"inputs": [
				{
					"indexed": true,
					"internalType": "bytes32",
					"name": "poolId",
					"type": "bytes32"
				},
				{
					"indexed": false,
					"internalType": "uint32",
					"name": "oldOperatorShare",
					"type": "uint32"
				},
				{
					"indexed": false,
					"internalType": "uint32",
					"name": "newOperatorShare",
					"type": "uint32"
				}
			],
			"name": "OperatorShareDecreased",
			"type": "event"
		},
		{
			"anonymous": false,
			"inputs": [
				{
					"indexed": true,
					"internalType": "address",
					"name": "previousOwner",
					"type": "address"
				},
				{
					"indexed": true,
					"internalType": "address",
					"name": "newOwner",
					"type": "address"
				}
			],
			"name": "OwnershipTransferred",
			"type": "event"
		},
		{
			"anonymous": false,
			"inputs": [
				{
					"indexed": false,
					"internalType": "uint256",
					"name": "epochDurationInSeconds",
					"type": "uint256"
				},
				{
					"indexed": false,
					"internalType": "uint32",
					"name": "rewardDelegatedStakeWeight",
					"type": "uint32"
				},
				{
					"indexed": false,
					"internalType": "uint256",
					"name": "minimumPoolStake",
					"type": "uint256"
				},
				{
					"indexed": false,
					"internalType": "uint256",
					"name": "cobbDouglasAlphaNumerator",
					"type": "uint256"
				},
				{
					"indexed": false,
					"internalType": "uint256",
					"name": "cobbDouglasAlphaDenominator",
					"type": "uint256"
				}
			],
			"name": "ParamsSet",
			"type": "event"
		},
		{
			"anonymous": false,
			"inputs": [
				{
					"indexed": false,
					"internalType": "address",
					"name": "exchangeAddress",
					"type": "address"
				}
			],
			"name": "PopAdded",
			"type": "event"
		},
		{
			"anonymous": false,
			"inputs": [
				{
					"indexed": false,
					"internalType": "address",
					"name": "exchangeAddress",
					"type": "address"
				}
			],
			"name": "PopRemoved",
			"type": "event"
		},
		{
			"anonymous": false,
			"inputs": [
				{
					"indexed": true,
					"internalType": "address",
					"name": "rbPoolAddress",
					"type": "address"
				},
				{
					"indexed": true,
					"internalType": "bytes32",
					"name": "poolId",
					"type": "bytes32"
				}
			],
			"name": "RbPoolStakingPoolSet",
			"type": "event"
		},
		{
			"anonymous": false,
			"inputs": [
				{
					"indexed": false,
					"internalType": "bytes",
					"name": "reason",
					"type": "bytes"
				}
			],
			"name": "ReturnDataEvent",
			"type": "event"
		},
		{
			"anonymous": false,
			"inputs": [
				{
					"indexed": true,
					"internalType": "uint256",
					"name": "epoch",
					"type": "uint256"
				},
				{
					"indexed": true,
					"internalType": "bytes32",
					"name": "poolId",
					"type": "bytes32"
				},
				{
					"indexed": false,
					"internalType": "uint256",
					"name": "operatorReward",
					"type": "uint256"
				},
				{
					"indexed": false,
					"internalType": "uint256",
					"name": "membersReward",
					"type": "uint256"
				}
			],
			"name": "RewardsPaid",
			"type": "event"
		},
		{
			"anonymous": false,
			"inputs": [
				{
					"indexed": true,
					"internalType": "address",
					"name": "staker",
					"type": "address"
				},
				{
					"indexed": false,
					"internalType": "uint256",
					"name": "amount",
					"type": "uint256"
				}
			],
			"name": "Stake",
			"type": "event"
		},
		{
			"anonymous": false,
			"inputs": [
				{
					"indexed": false,
					"internalType": "bytes32",
					"name": "poolId",
					"type": "bytes32"
				},
				{
					"indexed": false,
					"internalType": "address",
					"name": "operator",
					"type": "address"
				},
				{
					"indexed": false,
					"internalType": "uint32",
					"name": "operatorShare",
					"type": "uint32"
				}
			],
			"name": "StakingPoolCreated",
			"type": "event"
		},
		{
			"anonymous": false,
			"inputs": [
				{
					"indexed": true,
					"internalType": "uint256",
					"name": "epoch",
					"type": "uint256"
				},
				{
					"indexed": true,
					"internalType": "bytes32",
					"name": "poolId",
					"type": "bytes32"
				}
			],
			"name": "StakingPoolEarnedRewardsInEpoch",
			"type": "event"
		},
		{
			"anonymous": false,
			"inputs": [
				{
					"indexed": true,
					"internalType": "address",
					"name": "staker",
					"type": "address"
				},
				{
					"indexed": false,
					"internalType": "uint256",
					"name": "amount",
					"type": "uint256"
				}
			],
			"name": "Unstake",
			"type": "event"
		},
		{
			"inputs": [
				{
					"internalType": "address",
					"name": "target",
					"type": "address"
				}
			],
			"name": "addAuthorizedAddress",
			"outputs": [],
			"stateMutability": "nonpayable",
			"type": "function"
		},
		{
			"inputs": [
				{
					"internalType": "address",
					"name": "addr",
					"type": "address"
				}
			],
			"name": "addPopAddress",
			"outputs": [],
			"stateMutability": "nonpayable",
			"type": "function"
		},
		{
			"inputs": [
				{
					"internalType": "uint256",
					"name": "",
					"type": "uint256"
				}
			],
			"name": "aggregatedStatsByEpoch",
			"outputs": [
				{
					"internalType": "uint256",
					"name": "rewardsAvailable",
					"type": "uint256"
				},
				{
					"internalType": "uint256",
					"name": "numPoolsToFinalize",
					"type": "uint256"
				},
				{
					"internalType": "uint256",
					"name": "totalFeesCollected",
					"type": "uint256"
				},
				{
					"internalType": "uint256",
					"name": "totalWeightedStake",
					"type": "uint256"
				},
				{
					"internalType": "uint256",
					"name": "totalRewardsFinalized",
					"type": "uint256"
				}
			],
			"stateMutability": "view",
			"type": "function"
		},
		{
			"inputs": [
				{
					"internalType": "uint256",
					"name": "",
					"type": "uint256"
				}
			],
			"name": "authorities",
			"outputs": [
				{
					"internalType": "address",
					"name": "",
					"type": "address"
				}
			],
			"stateMutability": "view",
			"type": "function"
		},
		{
			"inputs": [
				{
					"internalType": "address",
					"name": "",
					"type": "address"
				}
			],
			"name": "authorized",
			"outputs": [
				{
					"internalType": "bool",
					"name": "",
					"type": "bool"
				}
			],
			"stateMutability": "view",
			"type": "function"
		},
		{
			"inputs": [],
			"name": "cobbDouglasAlphaDenominator",
			"outputs": [
				{
					"internalType": "uint32",
					"name": "",
					"type": "uint32"
				}
			],
			"stateMutability": "view",
			"type": "function"
		},
		{
			"inputs": [],
			"name": "cobbDouglasAlphaNumerator",
			"outputs": [
				{
					"internalType": "uint32",
					"name": "",
					"type": "uint32"
				}
			],
			"stateMutability": "view",
			"type": "function"
		},
		{
			"inputs": [
				{
					"internalType": "bytes32",
					"name": "poolId",
					"type": "bytes32"
				},
				{
					"internalType": "address",
					"name": "member",
					"type": "address"
				}
			],
			"name": "computeRewardBalanceOfDelegator",
			"outputs": [
				{
					"internalType": "uint256",
					"name": "reward",
					"type": "uint256"
				}
			],
			"stateMutability": "view",
			"type": "function"
		},
		{
			"inputs": [
				{
					"internalType": "bytes32",
					"name": "poolId",
					"type": "bytes32"
				}
			],
			"name": "computeRewardBalanceOfOperator",
			"outputs": [
				{
					"internalType": "uint256",
					"name": "reward",
					"type": "uint256"
				}
			],
			"stateMutability": "view",
			"type": "function"
		},
		{
			"inputs": [
				{
					"internalType": "address",
					"name": "rigoblockPoolAddress",
					"type": "address"
				}
			],
			"name": "createStakingPool",
			"outputs": [
				{
					"internalType": "bytes32",
					"name": "poolId",
					"type": "bytes32"
				}
			],
			"stateMutability": "nonpayable",
			"type": "function"
		},
		{
			"inputs": [
				{
					"internalType": "address",
					"name": "poolAccount",
					"type": "address"
				},
				{
					"internalType": "uint256",
					"name": "popReward",
					"type": "uint256"
				}
			],
			"name": "creditPopReward",
			"outputs": [],
			"stateMutability": "payable",
			"type": "function"
		},
		{
			"inputs": [],
			"name": "currentEpoch",
			"outputs": [
				{
					"internalType": "uint256",
					"name": "",
					"type": "uint256"
				}
			],
			"stateMutability": "view",
			"type": "function"
		},
		{
			"inputs": [],
			"name": "currentEpochStartTimeInSeconds",
			"outputs": [
				{
					"internalType": "uint256",
					"name": "",
					"type": "uint256"
				}
			],
			"stateMutability": "view",
			"type": "function"
		},
		{
			"inputs": [
				{
					"internalType": "bytes32",
					"name": "poolId",
					"type": "bytes32"
				},
				{
					"internalType": "uint32",
					"name": "newOperatorShare",
					"type": "uint32"
				}
			],
			"name": "decreaseStakingPoolOperatorShare",
			"outputs": [],
			"stateMutability": "nonpayable",
			"type": "function"
		},
		{
			"inputs": [],
			"name": "endEpoch",
			"outputs": [
				{
					"internalType": "uint256",
					"name": "",
					"type": "uint256"
				}
			],
			"stateMutability": "nonpayable",
			"type": "function"
		},
		{
			"inputs": [],
			"name": "epochDurationInSeconds",
			"outputs": [
				{
					"internalType": "uint256",
					"name": "",
					"type": "uint256"
				}
			],
			"stateMutability": "view",
			"type": "function"
		},
		{
			"inputs": [
				{
					"internalType": "bytes32",
					"name": "poolId",
					"type": "bytes32"
				}
			],
			"name": "finalizePool",
			"outputs": [],
			"stateMutability": "nonpayable",
			"type": "function"
		},
		{
			"inputs": [],
			"name": "getAuthorizedAddresses",
			"outputs": [
				{
					"internalType": "address[]",
					"name": "",
					"type": "address[]"
				}
			],
			"stateMutability": "view",
			"type": "function"
		},
		{
			"inputs": [],
			"name": "getCurrentEpochEarliestEndTimeInSeconds",
			"outputs": [
				{
					"internalType": "uint256",
					"name": "",
					"type": "uint256"
				}
			],
			"stateMutability": "view",
			"type": "function"
		},
		{
			"inputs": [],
			"name": "getDragoRegistry",
			"outputs": [
				{
					"internalType": "contract IDragoRegistry",
					"name": "dragoRegistry",
					"type": "address"
				}
			],
			"stateMutability": "view",
			"type": "function"
		},
		{
			"inputs": [
				{
					"internalType": "enum IStructs.StakeStatus",
					"name": "stakeStatus",
					"type": "uint8"
				}
			],
			"name": "getGlobalStakeByStatus",
			"outputs": [
				{
					"components": [
						{
							"internalType": "uint64",
							"name": "currentEpoch",
							"type": "uint64"
						},
						{
							"internalType": "uint96",
							"name": "currentEpochBalance",
							"type": "uint96"
						},
						{
							"internalType": "uint96",
							"name": "nextEpochBalance",
							"type": "uint96"
						}
					],
					"internalType": "struct IStructs.StoredBalance",
					"name": "balance",
					"type": "tuple"
				}
			],
			"stateMutability": "view",
			"type": "function"
		},
		{
			"inputs": [],
			"name": "getGrgContract",
			"outputs": [
				{
					"internalType": "contract RigoTokenFace",
					"name": "grgContract",
					"type": "address"
				}
			],
			"stateMutability": "view",
			"type": "function"
		},
		{
			"inputs": [],
			"name": "getGrgVault",
			"outputs": [
				{
					"internalType": "contract IGrgVault",
					"name": "grgVault",
					"type": "address"
				}
			],
			"stateMutability": "view",
			"type": "function"
		},
		{
			"inputs": [
				{
					"internalType": "address",
					"name": "staker",
					"type": "address"
				},
				{
					"internalType": "enum IStructs.StakeStatus",
					"name": "stakeStatus",
					"type": "uint8"
				}
			],
			"name": "getOwnerStakeByStatus",
			"outputs": [
				{
					"components": [
						{
							"internalType": "uint64",
							"name": "currentEpoch",
							"type": "uint64"
						},
						{
							"internalType": "uint96",
							"name": "currentEpochBalance",
							"type": "uint96"
						},
						{
							"internalType": "uint96",
							"name": "nextEpochBalance",
							"type": "uint96"
						}
					],
					"internalType": "struct IStructs.StoredBalance",
					"name": "balance",
					"type": "tuple"
				}
			],
			"stateMutability": "view",
			"type": "function"
		},
		{
			"inputs": [],
			"name": "getParams",
			"outputs": [
				{
					"internalType": "uint256",
					"name": "_epochDurationInSeconds",
					"type": "uint256"
				},
				{
					"internalType": "uint32",
					"name": "_rewardDelegatedStakeWeight",
					"type": "uint32"
				},
				{
					"internalType": "uint256",
					"name": "_minimumPoolStake",
					"type": "uint256"
				},
				{
					"internalType": "uint32",
					"name": "_cobbDouglasAlphaNumerator",
					"type": "uint32"
				},
				{
					"internalType": "uint32",
					"name": "_cobbDouglasAlphaDenominator",
					"type": "uint32"
				}
			],
			"stateMutability": "view",
			"type": "function"
		},
		{
			"inputs": [
				{
					"internalType": "address",
					"name": "staker",
					"type": "address"
				},
				{
					"internalType": "bytes32",
					"name": "poolId",
					"type": "bytes32"
				}
			],
			"name": "getStakeDelegatedToPoolByOwner",
			"outputs": [
				{
					"components": [
						{
							"internalType": "uint64",
							"name": "currentEpoch",
							"type": "uint64"
						},
						{
							"internalType": "uint96",
							"name": "currentEpochBalance",
							"type": "uint96"
						},
						{
							"internalType": "uint96",
							"name": "nextEpochBalance",
							"type": "uint96"
						}
					],
					"internalType": "struct IStructs.StoredBalance",
					"name": "balance",
					"type": "tuple"
				}
			],
			"stateMutability": "view",
			"type": "function"
		},
		{
			"inputs": [
				{
					"internalType": "bytes32",
					"name": "poolId",
					"type": "bytes32"
				}
			],
			"name": "getStakingPool",
			"outputs": [
				{
					"components": [
						{
							"internalType": "address",
							"name": "operator",
							"type": "address"
						},
						{
							"internalType": "address",
							"name": "stakingPal",
							"type": "address"
						},
						{
							"internalType": "uint32",
							"name": "operatorShare",
							"type": "uint32"
						},
						{
							"internalType": "uint32",
							"name": "stakingPalShare",
							"type": "uint32"
						}
					],
					"internalType": "struct IStructs.Pool",
					"name": "",
					"type": "tuple"
				}
			],
			"stateMutability": "view",
			"type": "function"
		},
		{
			"inputs": [
				{
					"internalType": "bytes32",
					"name": "poolId",
					"type": "bytes32"
				}
			],
			"name": "getStakingPoolStatsThisEpoch",
			"outputs": [
				{
					"components": [
						{
							"internalType": "uint256",
							"name": "feesCollected",
							"type": "uint256"
						},
						{
							"internalType": "uint256",
							"name": "weightedStake",
							"type": "uint256"
						},
						{
							"internalType": "uint256",
							"name": "membersStake",
							"type": "uint256"
						}
					],
					"internalType": "struct IStructs.PoolStats",
					"name": "",
					"type": "tuple"
				}
			],
			"stateMutability": "view",
			"type": "function"
		},
		{
			"inputs": [
				{
					"internalType": "address",
					"name": "staker",
					"type": "address"
				}
			],
			"name": "getTotalStake",
			"outputs": [
				{
					"internalType": "uint256",
					"name": "",
					"type": "uint256"
				}
			],
			"stateMutability": "view",
			"type": "function"
		},
		{
			"inputs": [
				{
					"internalType": "bytes32",
					"name": "poolId",
					"type": "bytes32"
				}
			],
			"name": "getTotalStakeDelegatedToPool",
			"outputs": [
				{
					"components": [
						{
							"internalType": "uint64",
							"name": "currentEpoch",
							"type": "uint64"
						},
						{
							"internalType": "uint96",
							"name": "currentEpochBalance",
							"type": "uint96"
						},
						{
							"internalType": "uint96",
							"name": "nextEpochBalance",
							"type": "uint96"
						}
					],
					"internalType": "struct IStructs.StoredBalance",
					"name": "balance",
					"type": "tuple"
				}
			],
			"stateMutability": "view",
			"type": "function"
		},
		{
			"inputs": [],
			"name": "grgReservedForPoolRewards",
			"outputs": [
				{
					"internalType": "uint256",
					"name": "",
					"type": "uint256"
				}
			],
			"stateMutability": "view",
			"type": "function"
		},
		{
			"inputs": [],
			"name": "init",
			"outputs": [],
			"stateMutability": "nonpayable",
			"type": "function"
		},
		{
			"inputs": [
				{
					"internalType": "bytes32",
					"name": "poolId",
					"type": "bytes32"
				},
				{
					"internalType": "address",
					"name": "rigoblockPoolAccount",
					"type": "address"
				}
			],
			"name": "joinStakingPoolAsRbPoolAccount",
			"outputs": [],
			"stateMutability": "nonpayable",
			"type": "function"
		},
		{
			"inputs": [],
			"name": "minimumPoolStake",
			"outputs": [
				{
					"internalType": "uint256",
					"name": "",
					"type": "uint256"
				}
			],
			"stateMutability": "view",
			"type": "function"
		},
		{
			"inputs": [
				{
					"components": [
						{
							"internalType": "enum IStructs.StakeStatus",
							"name": "status",
							"type": "uint8"
						},
						{
							"internalType": "bytes32",
							"name": "poolId",
							"type": "bytes32"
						}
					],
					"internalType": "struct IStructs.StakeInfo",
					"name": "from",
					"type": "tuple"
				},
				{
					"components": [
						{
							"internalType": "enum IStructs.StakeStatus",
							"name": "status",
							"type": "uint8"
						},
						{
							"internalType": "bytes32",
							"name": "poolId",
							"type": "bytes32"
						}
					],
					"internalType": "struct IStructs.StakeInfo",
					"name": "to",
					"type": "tuple"
				},
				{
					"internalType": "uint256",
					"name": "amount",
					"type": "uint256"
				}
			],
			"name": "moveStake",
			"outputs": [],
			"stateMutability": "nonpayable",
			"type": "function"
		},
		{
			"inputs": [],
			"name": "owner",
			"outputs": [
				{
					"internalType": "address",
					"name": "",
					"type": "address"
				}
			],
			"stateMutability": "view",
			"type": "function"
		},
		{
			"inputs": [
				{
					"internalType": "address",
					"name": "",
					"type": "address"
				}
			],
			"name": "poolIdByRbPoolAccount",
			"outputs": [
				{
					"internalType": "bytes32",
					"name": "",
					"type": "bytes32"
				}
			],
			"stateMutability": "view",
			"type": "function"
		},
		{
			"inputs": [
				{
					"internalType": "bytes32",
					"name": "",
					"type": "bytes32"
				},
				{
					"internalType": "uint256",
					"name": "",
					"type": "uint256"
				}
			],
			"name": "poolStatsByEpoch",
			"outputs": [
				{
					"internalType": "uint256",
					"name": "feesCollected",
					"type": "uint256"
				},
				{
					"internalType": "uint256",
					"name": "weightedStake",
					"type": "uint256"
				},
				{
					"internalType": "uint256",
					"name": "membersStake",
					"type": "uint256"
				}
			],
			"stateMutability": "view",
			"type": "function"
		},
		{
			"inputs": [
				{
					"internalType": "address",
					"name": "target",
					"type": "address"
				}
			],
			"name": "removeAuthorizedAddress",
			"outputs": [],
			"stateMutability": "nonpayable",
			"type": "function"
		},
		{
			"inputs": [
				{
					"internalType": "address",
					"name": "target",
					"type": "address"
				},
				{
					"internalType": "uint256",
					"name": "index",
					"type": "uint256"
				}
			],
			"name": "removeAuthorizedAddressAtIndex",
			"outputs": [],
			"stateMutability": "nonpayable",
			"type": "function"
		},
		{
			"inputs": [
				{
					"internalType": "address",
					"name": "addr",
					"type": "address"
				}
			],
			"name": "removePopAddress",
			"outputs": [],
			"stateMutability": "nonpayable",
			"type": "function"
		},
		{
			"inputs": [],
			"name": "rewardDelegatedStakeWeight",
			"outputs": [
				{
					"internalType": "uint32",
					"name": "",
					"type": "uint32"
				}
			],
			"stateMutability": "view",
			"type": "function"
		},
		{
			"inputs": [
				{
					"internalType": "bytes32",
					"name": "",
					"type": "bytes32"
				}
			],
			"name": "rewardsByPoolId",
			"outputs": [
				{
					"internalType": "uint256",
					"name": "",
					"type": "uint256"
				}
			],
			"stateMutability": "view",
			"type": "function"
		},
		{
			"inputs": [
				{
					"internalType": "uint256",
					"name": "_epochDurationInSeconds",
					"type": "uint256"
				},
				{
					"internalType": "uint32",
					"name": "_rewardDelegatedStakeWeight",
					"type": "uint32"
				},
				{
					"internalType": "uint256",
					"name": "_minimumPoolStake",
					"type": "uint256"
				},
				{
					"internalType": "uint32",
					"name": "_cobbDouglasAlphaNumerator",
					"type": "uint32"
				},
				{
					"internalType": "uint32",
					"name": "_cobbDouglasAlphaDenominator",
					"type": "uint32"
				}
			],
			"name": "setParams",
			"outputs": [],
			"stateMutability": "nonpayable",
			"type": "function"
		},
		{
			"inputs": [
				{
					"internalType": "bytes32",
					"name": "poolId",
					"type": "bytes32"
				},
				{
					"internalType": "address",
					"name": "newStakingPalAddress",
					"type": "address"
				}
			],
			"name": "setStakingPalAddress",
			"outputs": [],
			"stateMutability": "nonpayable",
			"type": "function"
		},
		{
			"inputs": [
				{
					"internalType": "uint256",
					"name": "amount",
					"type": "uint256"
				}
			],
			"name": "stake",
			"outputs": [],
			"stateMutability": "nonpayable",
			"type": "function"
		},
		{
			"inputs": [],
			"name": "stakingContract",
			"outputs": [
				{
					"internalType": "address",
					"name": "",
					"type": "address"
				}
			],
			"stateMutability": "view",
			"type": "function"
		},
		{
			"inputs": [
				{
					"internalType": "address",
					"name": "newOwner",
					"type": "address"
				}
			],
			"name": "transferOwnership",
			"outputs": [],
			"stateMutability": "nonpayable",
			"type": "function"
		},
		{
			"inputs": [
				{
					"internalType": "uint256",
					"name": "amount",
					"type": "uint256"
				}
			],
			"name": "unstake",
			"outputs": [],
			"stateMutability": "nonpayable",
			"type": "function"
		},
		{
			"inputs": [
				{
					"internalType": "address",
					"name": "",
					"type": "address"
				}
			],
			"name": "validPops",
			"outputs": [
				{
					"internalType": "bool",
					"name": "",
					"type": "bool"
				}
			],
			"stateMutability": "view",
			"type": "function"
		},
		{
			"inputs": [
				{
					"internalType": "bytes32",
					"name": "poolId",
					"type": "bytes32"
				}
			],
			"name": "withdrawDelegatorRewards",
			"outputs": [],
			"stateMutability": "nonpayable",
			"type": "function"
		}
	]
}