{
	"data": {
		"bytecode": {
			"linkReferences": {},
			"object": "608060405234801561001057600080fd5b50600080546001600160a01b031916331790556133c4806100326000396000f3fe608060405234801561001057600080fd5b50600436106102325760003560e01c8063a657e57911610130578063e0822db7116100b8578063ee99205c1161007c578063ee99205c14610474578063ef4ba6801461047c578063f252b7a114610484578063f2fde38b14610497578063ff691b11146104aa57610232565b8063e0822db714610436578063e0ee036e1461043e578063e804d0a414610446578063e8eeb3f814610459578063e907f0031461046157610232565b8063b9181611116100ff578063b9181611146103e0578063bb7ef7e0146103f3578063c18c914114610406578063d14dc23114610419578063d39de6e91461042157610232565b8063a657e579146103b5578063b2baa33e146103bd578063b510879f146103c5578063b652b41f146103d857610232565b8063540c2d53116101be5780637fa140c7116101825780637fa140c71461036a578063816667961461037d5780638da5cb5b146103925780639ad267441461039a578063a26171e2146103ad57610232565b8063540c2d531461031f578063587da0231461033f5780636340380114610347578063707129391461034f578063766718081461036257610232565b80633c277fc5116102055780633c277fc5146102af5780633e4ad732146102c457806342f1181e146102e457806344a6958b146102f9578063494503d41461030c57610232565b80630b9663db146102375780631e7ff8f6146102555780632a94c2791461026857806338229d931461028b575b600080fd5b61023f6104bd565b60405161024c9190613275565b60405180910390f35b61023f61026336600461308d565b610600565b61027b61027636600461319d565b61068d565b60405161024c949392919061332a565b61029e610299366004613156565b6106bf565b60405161024c959493929190613345565b6102b76106ee565b60405161024c91906131f0565b6102d76102d2366004613156565b610706565b60405161024c91906132f0565b6102f76102f236600461308d565b610725565b005b6102d76103073660046130f0565b610739565b6102b761031a366004613156565b61078b565b61033261032d36600461308d565b6107b5565b60405161024c919061326a565b61023f6107ca565b61023f6107d0565b6102f761035d36600461308d565b6107d6565b61023f610864565b61023f61037836600461308d565b61086a565b61038561087c565b60405161024c9190613368565b6102b7610888565b6102f76103a8366004613124565b610897565b61023f6108a9565b61023f6108af565b61023f6108b5565b6102f76103d3366004613156565b6108d3565b6102b76108dd565b6103326103ee36600461308d565b6108f5565b61023f610401366004613156565b61090a565b61023f610414366004613156565b610987565b61023f610999565b61042961099f565b60405161024c919061321d565b6102b7610a01565b610385610a19565b6102d76104543660046131be565b610a25565b610385610b53565b61023f61046f36600461316e565b610b67565b6102b7610bf6565b6102b7610c05565b6102d76104923660046130c5565b610c1d565b6102f76104a536600461308d565b610c51565b6102f76104b8366004613156565b610cc2565b600c54600090816104cf826001611012565b60008181526016602052604090206001015490915080156104fc576104fc6104f78383611031565b611076565b61050461107e565b60008481526016602052604090205561051b612fed565b50600083815260166020908152604091829020825160a08101845281548082526001830154938201849052600283015482860181905260038401546060840181905260049094015460808401529451919488947fbb4a26fa0ace13ee4da343896c20eaa44a618fb9071fdd8c2e2c960a4583189d9461059d949193929161332a565b60405180910390a26105ad61110f565b60208101516105f457805160405185917fb463d19ecf455be65365092cf8e1db6934a0334cf8cd532ddf9964d01f36b5b2916105eb9160009161327e565b60405180910390a25b60200151935050505090565b600061060a610a01565b6001600160a01b03166370a08231836040518263ffffffff1660e01b815260040161063591906131f0565b60206040518083038186803b15801561064d57600080fd5b505afa158015610661573d6000803e3d6000fd5b505050506040513d601f19601f8201168201806040525081019061068591906131d8565b90505b919050565b601560209081526000928352604080842090915290825290208054600182015460028301546003909301549192909184565b601660205260009081526040902080546001820154600283015460038401546004909401549293919290919085565b73c02aaa39b223fe8d0a0e5c4f27ead9083c756cc290565b61070e61301c565b60008281526007602052604090206106859061114c565b61072d6111d2565b61073681611201565b50565b61074161301c565b6107826005600084600181111561075457fe5b60ff168152602080820192909252604090810160009081206001600160a01b0388168252909252902061114c565b90505b92915050565b6002818154811061079b57600080fd5b6000918252602090912001546001600160a01b0316905081565b60106020526000908152604090205460ff1681565b600d5481565b60115481565b6107de6111d2565b6001600160a01b03811660009081526001602052604090205460ff1661080a5761080a6104f7826112d5565b60005b60025481101561086057816001600160a01b03166002828154811061082e57fe5b6000918252602090912001546001600160a01b0316141561085857610853828261131d565b610860565b60010161080d565b5050565b600c5481565b60096020526000908152604090205481565b60145463ffffffff1681565b6000546001600160a01b031681565b61089f6111d2565b610860828261131d565b60135481565b60085481565b60006108ce601154600d546114b190919063ffffffff16565b905090565b61073681336114cd565b73de6445484a8dcd9bf35fc95eb4e3990cc358822e90565b60016020526000908152604090205460ff1681565b600061091461301c565b506000828152600a60209081526040808320815160608101835281546001600160a01b038082168352600160a01b90910463ffffffff169482019490945260019091015490921690820152908061096a85611646565b9150915061097d83602001518383611714565b5095945050505050565b600b6020526000908152604090205481565b60175481565b606060028054806020026020016040519081016040528092919081815260200182805480156109f757602002820191906000526020600020905b81546001600160a01b031681526001909101906020018083116109d9575b5050505050905090565b73ba7f8b5fb1b19c1211c5d49550fcd149177a5eaf90565b60125463ffffffff1681565b610a2d61301c565b60016000526004602052610a607fabd6e7cb50984ff9c2f3e18a2660c3353dadf4e3291deeb275dae2cd1e44fe0561114c565b90506000826001811115610a7057fe5b1415610688576000610a80610a01565b6001600160a01b0316636b6df5aa6040518163ffffffff1660e01b815260040160206040518083038186803b158015610ab857600080fd5b505afa158015610acc573d6000803e3d6000fd5b505050506040513d601f19601f82011682018060405250810190610af091906131d8565b9050610b1a610b1583602001516001600160601b03168361101290919063ffffffff16565b61174f565b6001600160601b0390811660208401526040830151610b3f91610b1591849116611012565b6001600160601b0316604083015250919050565b601454640100000000900463ffffffff1681565b6000610b7161301c565b506000838152600a60209081526040808320815160608101835281546001600160a01b038082168352600160a01b90910463ffffffff1694820194909452600190910154909216908201529080610bc786611646565b915091506000610bdc84602001518484611714565b915050610beb8787838561176e565b979650505050505050565b6003546001600160a01b031681565b734fbb350052bca5417566f188eb2ebce5b19bc96490565b610c2561301c565b6001600160a01b038316600090815260066020908152604080832085845290915290206107829061114c565b610c596111d2565b6001600160a01b038116610c7757610c726104f761187d565b610736565b600080546001600160a01b0319166001600160a01b0383169081178255604051909133917f8be0079c531659141344cd1fd0a4f28419497f9722a3daafe3b4186f6b6457e09190a350565b610ccb3361189b565b15610cd857610cd86118a1565b600c546000610ce8826001611012565b9050610cf2612fed565b50600081815260166020908152604091829020825160a08101845281548152600182015492810183905260028201549381019390935260038101546060840152600401546080830152610d4757505050610736565b610d4f61303c565b50600084815260156020908152604080832085845282529182902082516080810184528154808252600183015493820193909352600282015493810193909352600301546060830152610da55750505050610736565b600085815260156020908152604080832086845290915281208181556001810182905560028101829055600301819055610ddf82846118c4565b9050600080610df388848660400151611a2b565b9150915087877ff1116b309178aa62dcb6bf8c3b8bc2321724907c7ebf52192d14c8ce3aa9194c8484604051610e2a92919061327e565b60405180910390a36000610e3e83836114b1565b9050610e48610c05565b6001600160a01b031663075461726040518163ffffffff1660e01b815260040160206040518083038186803b158015610e8057600080fd5b505afa158015610e94573d6000803e3d6000fd5b505050506040513d601f19601f82011682018060405250810190610eb891906130a9565b6001600160a01b0316637fa36e408a836040518363ffffffff1660e01b8152600401610ee592919061327e565b602060405180830381600087803b158015610eff57600080fd5b505af1158015610f13573d6000803e3d6000fd5b505050506040513d601f19601f82011682018060405250810190610f379190613136565b610f5c5760405162461bcd60e51b8152600401610f539061328c565b60405180910390fd5b6080860151610f6b90826114b1565b60808701819052600088815260166020908152604090912060040191909155860151610f98906001611012565b602080880182815260008a8152601690925260409091206001019190915551611007576080860151865188917fb463d19ecf455be65365092cf8e1db6934a0334cf8cd532ddf9964d01f36b5b291610ff09082611012565b604051610ffe92919061327e565b60405180910390a25b505050505050505050565b60008282111561102b5761102b6104f760028585611b4a565b50900390565b604080516024810184905260448082018490528251808303909101815260649091019091526020810180516001600160e01b03166330a5c00560e11b17905292915050565b805160208201fd5b60006108ce60175461108e610c05565b6001600160a01b03166370a08231306040518263ffffffff1660e01b81526004016110b991906131f0565b60206040518083038186803b1580156110d157600080fd5b505afa1580156110e5573d6000803e3d6000fd5b505050506040513d601f19601f8201168201806040525081019061110991906131d8565b90611012565b42600061111a6108b5565b905081811115611131576111316104f78284611bbc565b600c546000906111429060016114b1565b600c555050600d55565b61115461301c565b5060408051606081018252825467ffffffffffffffff81168083526001600160601b03600160401b830481166020850152600160a01b90920490911692820192909252600c5490918111156111cc576111ac81611c01565b67ffffffffffffffff16825260408201516001600160601b031660208301525b50919050565b6000546001600160a01b031633146111ff576000546111ff906104f79033906001600160a01b0316611c21565b565b6001600160a01b03811661121a5761121a6104f7611c72565b6001600160a01b03811660009081526001602052604090205460ff1615611247576112476104f782611c90565b6001600160a01b0381166000818152600160208190526040808320805460ff19168317905560028054928301815583527f405787fa12a823e0f2b7631cc41b3ba8828b3321ca811111fa75cd3aa3bb5ace90910180546001600160a01b03191684179055513392917f3147867c59d17e8fa9d522465651d44aae0a9e38f902f3475b97e58072f0ed4c91a350565b604080516001600160a01b0383166024808301919091528251808303909101815260449091019091526020810180516001600160e01b03166375a8845160e11b179052919050565b6001600160a01b03821660009081526001602052604090205460ff16611349576113496104f7836112d5565b6002548110611364576113646104f782600280549050611cd8565b816001600160a01b03166002828154811061137b57fe5b6000918252602090912001546001600160a01b0316146113c3576113c36104f7600283815481106113a857fe5b6000918252602090912001546001600160a01b031684611d1d565b6001600160a01b0382166000908152600160205260409020805460ff191690556002805460001981019081106113f557fe5b600091825260209091200154600280546001600160a01b03909216918390811061141b57fe5b9060005260206000200160006101000a8154816001600160a01b0302191690836001600160a01b03160217905550600280548061145457fe5b600082815260208120820160001990810180546001600160a01b031916905590910190915560405133916001600160a01b038516917f1f32c1b084e2de0713b8fb16bd46bb9df710a3dbeae2f3ca93af46e016dcc6b09190a35050565b600082820183811015610782576107826104f760008686611b4a565b6114d682611d6e565b60006114e5838360008061176e565b6001600160a01b038316600090815260066020908152604080832087845290915290209091506115149061114c565b6001600160a01b0383811660009081526006602090815260408083208884528252918290208451815492860151959093015167ffffffffffffffff1990921667ffffffffffffffff9093169290921773ffffffffffffffffffffffff00000000000000001916600160401b6001600160601b039586160217909216600160a01b93909216929092021790558015611638576115af8382611de4565b6115b76106ee565b6001600160a01b031663a9059cbb83836040518363ffffffff1660e01b81526004016115e4929190613204565b602060405180830381600087803b1580156115fe57600080fd5b505af1158015611612573d6000803e3d6000fd5b505050506040513d601f19601f820116820180604052508101906116369190613136565b505b61164183611e20565b505050565b60008060006116616001600c5461101290919063ffffffff16565b905061166b61303c565b50600084815260156020908152604080832084845282528083208151608080820184528254825260018084015483870152600280850154848701526003948501546060808601919091528989526016885297869020865160a081018852815481529281015497830197909752860154948101949094529184015494830194909452600490920154918101919091526117049082906118c4565b9350806040015192505050915091565b6000808261172457839150611747565b61173863ffffffff8616620f424086611e2d565b91506117448483611012565b90505b935093915050565b806001600160601b0381168114610688576106886104f7600284611e57565b600c5460009061177c61301c565b506001600160a01b03851660009081526006602090815260408083208984528252918290208251606081018452905467ffffffffffffffff81168083526001600160601b03600160401b8304811694840194909452600160a01b909104909216928101929092528214156117f557600092505050611875565b61180181838787611ebc565b815190935060009061181e9067ffffffffffffffff1660016114b1565b905061185161184a8984602001516001600160601b0316856000015167ffffffffffffffff1685611f34565b85906114b1565b935061186f61184a8984604001516001600160601b03168487611f34565b93505050505b949350505050565b604080518082019091526004815263734f6e1f60e11b602082015290565b3b151590565b3360009081526001602052604090205460ff166111ff576111ff6104f733611fb3565b81516000906118d257610785565b60006118dc610c05565b6001600160a01b031663075461726040518163ffffffff1660e01b815260040160206040518083038186803b15801561191457600080fd5b505afa158015611928573d6000803e3d6000fd5b505050506040513d601f19601f8201168201806040525081019061194c91906130a9565b6001600160a01b03166357a15c0385602001516040518263ffffffff1660e01b815260040161197b9190613275565b60206040518083038186803b15801561199357600080fd5b505afa1580156119a7573d6000803e3d6000fd5b505050506040513d601f19601f820116820180604052508101906119cb91906131d8565b8451602086015160608601516014549394506119ff938593928492909163ffffffff80821691640100000000900416611ffb565b60808401518451919350600091611a1591611012565b905082811015611a23578092505b505092915050565b600080611a3661301c565b506000858152600a6020908152604091829020825160608101845281546001600160a01b038082168352600160a01b90910463ffffffff1693820184905260019092015490911692810192909252611a8f908686611714565b90935091508215611b2657611aa26106ee565b815160405163a9059cbb60e01b81526001600160a01b03929092169163a9059cbb91611ad2918790600401613204565b602060405180830381600087803b158015611aec57600080fd5b505af1158015611b00573d6000803e3d6000fd5b505050506040513d601f19601f82011682018060405250810190611b249190613136565b505b8115611b4157611b3686836120bd565b611b418683866120f2565b50935093915050565b606063e946c1bb60e01b84848460405160240180846003811115611b6a57fe5b81526020018381526020018281526020019350505050604051602081830303815290604052906001600160e01b0319166020820180516001600160e01b03838183161783525050505090509392505050565b604080516024810184905260448082018490528251808303909101815260649091019091526020810180516001600160e01b031663a6bcde4760e01b17905292915050565b8067ffffffffffffffff81168114610688576106886104f7600184611e57565b604080516001600160a01b03808516602483015283166044808301919091528251808303909101815260649091019091526020810180516001600160e01b0316631de45ad160e01b17905292915050565b60408051808201909152600481526315d953f960e21b602082015290565b604080516001600160a01b0383166024808301919091528251808303909101815260449091019091526020810180516001600160e01b03166306f0b78d60e51b179052919050565b604080516024810184905260448082018490528251808303909101815260649091019091526020810180516001600160e01b031663e9f8377160e01b17905292915050565b604080516001600160a01b03808516602483015283166044808301919091528251808303909101815260649091019091526020810180516001600160e01b031663140a84db60e01b17905292915050565b600c54600090611d7f906001611012565b9050611d8961303c565b5060008281526015602090815260408083208484528252918290208251608081018452815480825260018301549382019390935260028201549381019390935260030154606083015215611641576116416104f784846121db565b6000828152600b6020526040902054611dfd9082611012565b6000838152600b6020526040902055601754611e199082611012565b6017555050565b61073681600060016120f2565b600061187583611e51611e41826001611012565b611e4b8887612220565b906114b1565b90612251565b606063c996af7b60e01b838360405160240180836002811115611e7657fe5b81526020808201939093526040805180830385018152918101905291820180516001600160e01b03166001600160e01b0319909516949094179093529250505092915050565b6000821580611ec9575081155b15611ed657506000611875565b6000611ee3856001611012565b865167ffffffffffffffff161015611eff578560400151611f05565b85602001515b6001600160601b0316905080611f1f576000915050611875565b611f2a84848361227b565b9695505050505050565b6000831580611f4257508183145b15611f4f57506000611875565b818310611f6e5760405162461bcd60e51b8152600401610f53906132c3565b611f76613064565b611f80868561228b565b9050611f8a613064565b611f94878561228b565b9050610beb81600001518260200151846000015185602001518a6123a2565b604080516001600160a01b0383166024808301919091528251808303909101815260449091019091526020810180516001600160e01b031663b65a25b960e01b179052919050565b6000806120088888612410565b905060006120168787612410565b9050811580612023575080155b1561203357600092505050610beb565b60008183131561204c576120478284612456565b612056565b6120568383612456565b905061207f61207a61206783612469565b8863ffffffff168863ffffffff166128be565b6128cd565b905081831315612098576120938282612456565b6120a2565b6120a28282612d33565b90506120ae818c612d53565b9b9a5050505050505050505050565b6000828152600b60205260409020546120d690826114b1565b6000838152600b6020526040902055601754611e1990826114b1565b6000838152600f6020526040902054600c5480821415612113575050611641565b61211b613064565b506000858152600e602090815260408083208584528252918290208251808401909352805483526001015490820152612152613064565b61215b82612d95565b1561219457612174826000015183602001518888612d9e565b602083018190528183526121889190612dee565b6020830152815261219f565b602081018590528581525b6000878152600e6020908152604080832086845282528083208451815593820151600190940193909355978152600f9097529095205550505050565b604080516024810184905260448082018490528251808303909101815260649091019091526020810180516001600160e01b0316635caa0b0560e01b17905292915050565b60008261222f57506000610785565b8282028284828161223c57fe5b0414610782576107826104f760018686611b4a565b600081612267576122676104f760038585611b4a565b600082848161227257fe5b04949350505050565b600061187583611e518685612220565b612293613064565b506000828152600e6020908152604080832084845282529182902082518084019093528054835260010154908201526122cb81612d95565b156122d557610785565b60006122e2836001611012565b6000858152600e6020908152604080832084845282529182902082518084019093528054835260010154908201529250905061231d82612d95565b156123285750610785565b6000848152600f602052604090205483811015612384576000858152600e602090815260408083208484528252918290208251808401909352805483526001015490820152925061237883612d95565b15612384575050610785565b50506040805180820190915260008152600160208201529392505050565b6000816123b157506000612407565b836123cb576123c485611e518489612220565b9050612407565b60006123e46123da8688612220565b6111098987612220565b905060006123f28286612251565b905061240287611e518684612220565b925050505b95945050505050565b600080831215612428576124286104f7600185612e0b565b600082121561243f5761243f6104f7600184612e0b565b610782612450846001607f1b612e72565b83612ec5565b6000610782612450846001607f1b612e72565b60006001607f1b821315612485576124856104f7600184612f0c565b6000821361249b5761249b6104f7600084612f0c565b6001607f1b8214156124af57506000610688565b640733048c5a82136124cb575060016101ff607c1b0319610688565b60008060006a01c8464f76164760000000851361251057700fffffffffffffffffffffffffffffffff19909301926a01c8464f761647600000006001607f1b86020594505b6cf1aaddd7742e900000000000008513612554577007ffffffffffffffffffffffffffffffff19909301926cf1aaddd7742e900000000000006001607f1b86020594505b6615fc21041027af603f1b8513612592577003ffffffffffffffffffffffffffffffff19909301926615fc21041027af603f1b6001607f1b86020594505b660960aadc109e7b60461b85136125d0577001ffffffffffffffffffffffffffffffff1990930192660960aadc109e7b60461b6001607f1b86020594505b660454aaa8efe073604a1b851361260d576fffffffffffffffffffffffffffffffff1990930192660454aaa8efe073604a1b6001607f1b86020594505b6602f16ac6c59de7604c1b85136126415760016001607f1b0319909301926602f16ac6c59de7604c1b6001607f1b86020594505b6609b4597e37cb05604b1b851361267e576f3fffffffffffffffffffffffffffffff19909301926609b4597e37cb05604b1b6001607f1b86020594505b6618ebef9eac820b604a1b85136126bb576f1fffffffffffffffffffffffffffffff19909301926618ebef9eac820b604a1b6001607f1b86020594505b6f70f5a893b608861e1f58934f97aea57d8513612704576f0fffffffffffffffffffffffffffffff19909301926f70f5a893b608861e1f58934f97aea57d6001607f1b86020594505b60016001607f1b0319850192508291506001607f1b828002059050600160801b838103830205840193506001607f1b8183028161273d57fe5b059150600160811b836faaaaaaaaaaaaaaaaaaaaaaaaaaaaaaaa0383028161276157fe5b05840193506001607f1b8183028161277557fe5b059150600360801b836f999999999999999999999999999999990383028161279957fe5b05840193506001607f1b818302816127ad57fe5b059150600160821b836f92492492492492492492492492492492038302816127d157fe5b05840193506001607f1b818302816127e557fe5b059150600560801b836f8e38e38e38e38e38e38e38e38e38e38e0383028161280957fe5b05840193506001607f1b8183028161281d57fe5b059150600360811b836f8ba2e8ba2e8ba2e8ba2e8ba2e8ba2e8b0383028161284157fe5b05840193506001607f1b8183028161285557fe5b059150600760801b836f89d89d89d89d89d89d89d89d89d89d890383028161287957fe5b05840193506001607f1b8183028161288d57fe5b059150600160831b836f88888888888888888888888888888888038302816128b157fe5b0584019350505050919050565b60006118756124508585612e72565b600060016101ff607c1b03198212156128e857506000610688565b816128f857506001607f1b610688565b600082131561290f5761290f6104f7600184612f0c565b6001607f1b6001607c1b83078080028290056710e1b3be415a0000810293909301929091818302059050806705a0913f6b1e000002830192506001607f1b8282028161295757fe5b05905080670168244fdac7800002830192506001607f1b8282028161297857fe5b05905080664807432bc1800002830192506001607f1b8282028161299857fe5b05905080660c0135dca0400002830192506001607f1b828202816129b857fe5b059050806601b707b1cdc00002830192506001607f1b828202816129d857fe5b059050806536e0f639b80002830192506001607f1b828202816129f757fe5b05905080650618fee9f80002830192506001607f1b82820281612a1657fe5b05905080649c197dcc0002830192506001607f1b82820281612a3457fe5b05905080640e30dce40002830192506001607f1b82820281612a5257fe5b0590508064012ebd130002830192506001607f1b82820281612a7057fe5b059050806317499f0002830192506001607f1b82820281612a8d57fe5b059050806301a9d48002830192506001607f1b82820281612aaa57fe5b05905080621c638002830192506001607f1b82820281612ac657fe5b059050806201c63802830192506001607f1b82820281612ae257fe5b05905080611ab802830192506001607f1b82820281612afd57fe5b0590508061017c02830192506001607f1b82820281612b1857fe5b05905080601402830192506001607f1b82820281612b3257fe5b600095909503946721c3677c82b400009190059384010582016001607f1b01929050600160841b841615612b88577243cbaf42a000812488fc5c220ad7b97bf6e99e6cf1aaddd7742e56d32fb9f9974484020592505b600160831b841615612bbd577105d27a9f51c31b7c2f8038212a05747799916e0afe10820813d65dfe6a33c07f738f84020592505b600160821b841615612bf257701b4c902e273a58678d6d3bfdb93db96d026f02582ab704279e8efd15e0265855c47a84020592505b600160811b841615612c27577003b1cc971a9bb5b9867477440d6d1577506f1152aaa3bf81cb9fdb76eae12d02957184020592505b600160801b841615612c5c5770015bf0a8b1457695355fb8ac404e7a79e36f2f16ac6c59de6f8d5d6f63c1482a7c8684020592505b6001607f1b841615612c90576fd3094c70f034de4b96ff7d5b6f99fcd86f4da2cbf1be5827f9eb3ad1aa9866ebb384020592505b6001607e1b841615612cc4576fa45af1e1f40c333b3de1db4dd55f29a76f63afbe7ab2082ba1a0ae5e4eb1b479dc84020592505b6001607d1b841615612cf8576f910b022db7ae67ce76b441c27035c6a16f70f5a893b608861e1f58934f97aea57d84020592505b6001607c1b841615612d2c576f88415abbe9a76bead8d00cf112e4d4a86f783eafef1c0a8f3978c7f81824d62ebf84020592505b5050919050565b60006001607f1b612d448484612e72565b81612d4b57fe5b059392505050565b600080821215612d6b57612d6b6104f7600184612e0b565b6000612d778484612e72565b905060008113612d8b576000915050610785565b607f1c9392505050565b60200151151590565b60008085612db0575082905081612de5565b83612dbf575084905083612de5565b612dd6612dcc8587612220565b611e4b8886612220565b9150612de28584612220565b90505b94509492505050565b600080612e0084846001607f1b612f22565b915091509250929050565b606063bd79545f60e01b836001811115612e2157fe5b6040805160ff9092166024830152604480830186905281518084039091018152606490920190526020810180516001600160e01b03166001600160e01b031990931692909217909152905092915050565b6000821580612e7f575081155b15612e8c57506000610785565b5081810281838281612e9a57fe5b05141580612eb1575082828281612ead57fe5b0514155b15610785576107856104f760018585612f7e565b600081612edb57612edb6104f760028585612f7e565b600160ff1b83148015612eef575081600019145b15612f0357612f036104f760038585612f7e565b818381612d4b57fe5b606063ed2f26a160e01b836001811115612e2157fe5b60008082851180612f3257508284115b15612f7557600084861015612f475784612f49565b855b9050612f558185612251565b9050612f618682612251565b9250612f6d8582612251565b915050611747565b50929391925050565b6060638c12dfe760e01b846003811115612f9457fe5b6040805160ff909216602483015260448201869052606480830186905281518084039091018152608490920190526020810180516001600160e01b03166001600160e01b03199093169290921790915290509392505050565b6040518060a0016040528060008152602001600081526020016000815260200160008152602001600081525090565b604080516060810182526000808252602082018190529181019190915290565b6040518060800160405280600081526020016000815260200160008152602001600081525090565b604051806040016040528060008152602001600081525090565b80356002811061068857600080fd5b60006020828403121561309e578081fd5b813561078281613379565b6000602082840312156130ba578081fd5b815161078281613379565b600080604083850312156130d7578081fd5b82356130e281613379565b946020939093013593505050565b60008060408385031215613102578182fd5b823561310d81613379565b915061311b6020840161307e565b90509250929050565b600080604083850312156130d7578182fd5b600060208284031215613147578081fd5b81518015158114610782578182fd5b600060208284031215613167578081fd5b5035919050565b60008060408385031215613180578182fd5b82359150602083013561319281613379565b809150509250929050565b600080604083850312156131af578182fd5b50508035926020909101359150565b6000602082840312156131cf578081fd5b6107828261307e565b6000602082840312156131e9578081fd5b5051919050565b6001600160a01b0391909116815260200190565b6001600160a01b03929092168252602082015260400190565b6020808252825182820181905260009190848201906040850190845b8181101561325e5783516001600160a01b031683529284019291840191600101613239565b50909695505050505050565b901515815260200190565b90815260200190565b918252602082015260400190565b6020808252601e908201527f46494e414c495a45525f4d494e545f494e464c4154494f4e5f4552524f520000604082015260600190565b60208082526013908201527210d497d25395115495905317d2539590531251606a1b604082015260600190565b815167ffffffffffffffff1681526020808301516001600160601b0390811691830191909152604092830151169181019190915260600190565b93845260208401929092526040830152606082015260800190565b948552602085019390935260408401919091526060830152608082015260a00190565b63ffffffff91909116815260200190565b6001600160a01b038116811461073657600080fdfea264697066735822122099ef1eed44e147702dfd2ff32d104bad51e51506aef165d144fce77f4f3c30c664736f6c63430007040033",
			"opcodes": "PUSH1 0x80 PUSH1 0x40 MSTORE CALLVALUE DUP1 ISZERO PUSH2 0x10 JUMPI PUSH1 0x0 DUP1 REVERT JUMPDEST POP PUSH1 0x0 DUP1 SLOAD PUSH1 0x1 PUSH1 0x1 PUSH1 0xA0 SHL SUB NOT AND CALLER OR SWAP1 SSTORE PUSH2 0x33C4 DUP1 PUSH2 0x32 PUSH1 0x0 CODECOPY PUSH1 0x0 RETURN INVALID PUSH1 0x80 PUSH1 0x40 MSTORE CALLVALUE DUP1 ISZERO PUSH2 0x10 JUMPI PUSH1 0x0 DUP1 REVERT JUMPDEST POP PUSH1 0x4 CALLDATASIZE LT PUSH2 0x232 JUMPI PUSH1 0x0 CALLDATALOAD PUSH1 0xE0 SHR DUP1 PUSH4 0xA657E579 GT PUSH2 0x130 JUMPI DUP1 PUSH4 0xE0822DB7 GT PUSH2 0xB8 JUMPI DUP1 PUSH4 0xEE99205C GT PUSH2 0x7C JUMPI DUP1 PUSH4 0xEE99205C EQ PUSH2 0x474 JUMPI DUP1 PUSH4 0xEF4BA680 EQ PUSH2 0x47C JUMPI DUP1 PUSH4 0xF252B7A1 EQ PUSH2 0x484 JUMPI DUP1 PUSH4 0xF2FDE38B EQ PUSH2 0x497 JUMPI DUP1 PUSH4 0xFF691B11 EQ PUSH2 0x4AA JUMPI PUSH2 0x232 JUMP JUMPDEST DUP1 PUSH4 0xE0822DB7 EQ PUSH2 0x436 JUMPI DUP1 PUSH4 0xE0EE036E EQ PUSH2 0x43E JUMPI DUP1 PUSH4 0xE804D0A4 EQ PUSH2 0x446 JUMPI DUP1 PUSH4 0xE8EEB3F8 EQ PUSH2 0x459 JUMPI DUP1 PUSH4 0xE907F003 EQ PUSH2 0x461 JUMPI PUSH2 0x232 JUMP JUMPDEST DUP1 PUSH4 0xB9181611 GT PUSH2 0xFF JUMPI DUP1 PUSH4 0xB9181611 EQ PUSH2 0x3E0 JUMPI DUP1 PUSH4 0xBB7EF7E0 EQ PUSH2 0x3F3 JUMPI DUP1 PUSH4 0xC18C9141 EQ PUSH2 0x406 JUMPI DUP1 PUSH4 0xD14DC231 EQ PUSH2 0x419 JUMPI DUP1 PUSH4 0xD39DE6E9 EQ PUSH2 0x421 JUMPI PUSH2 0x232 JUMP JUMPDEST DUP1 PUSH4 0xA657E579 EQ PUSH2 0x3B5 JUMPI DUP1 PUSH4 0xB2BAA33E EQ PUSH2 0x3BD JUMPI DUP1 PUSH4 0xB510879F EQ PUSH2 0x3C5 JUMPI DUP1 PUSH4 0xB652B41F EQ PUSH2 0x3D8 JUMPI PUSH2 0x232 JUMP JUMPDEST DUP1 PUSH4 0x540C2D53 GT PUSH2 0x1BE JUMPI DUP1 PUSH4 0x7FA140C7 GT PUSH2 0x182 JUMPI DUP1 PUSH4 0x7FA140C7 EQ PUSH2 0x36A JUMPI DUP1 PUSH4 0x81666796 EQ PUSH2 0x37D JUMPI DUP1 PUSH4 0x8DA5CB5B EQ PUSH2 0x392 JUMPI DUP1 PUSH4 0x9AD26744 EQ PUSH2 0x39A JUMPI DUP1 PUSH4 0xA26171E2 EQ PUSH2 0x3AD JUMPI PUSH2 0x232 JUMP JUMPDEST DUP1 PUSH4 0x540C2D53 EQ PUSH2 0x31F JUMPI DUP1 PUSH4 0x587DA023 EQ PUSH2 0x33F JUMPI DUP1 PUSH4 0x63403801 EQ PUSH2 0x347 JUMPI DUP1 PUSH4 0x70712939 EQ PUSH2 0x34F JUMPI DUP1 PUSH4 0x76671808 EQ PUSH2 0x362 JUMPI PUSH2 0x232 JUMP JUMPDEST DUP1 PUSH4 0x3C277FC5 GT PUSH2 0x205 JUMPI DUP1 PUSH4 0x3C277FC5 EQ PUSH2 0x2AF JUMPI DUP1 PUSH4 0x3E4AD732 EQ PUSH2 0x2C4 JUMPI DUP1 PUSH4 0x42F1181E EQ PUSH2 0x2E4 JUMPI DUP1 PUSH4 0x44A6958B EQ PUSH2 0x2F9 JUMPI DUP1 PUSH4 0x494503D4 EQ PUSH2 0x30C JUMPI PUSH2 0x232 JUMP JUMPDEST DUP1 PUSH4 0xB9663DB EQ PUSH2 0x237 JUMPI DUP1 PUSH4 0x1E7FF8F6 EQ PUSH2 0x255 JUMPI DUP1 PUSH4 0x2A94C279 EQ PUSH2 0x268 JUMPI DUP1 PUSH4 0x38229D93 EQ PUSH2 0x28B JUMPI JUMPDEST PUSH1 0x0 DUP1 REVERT JUMPDEST PUSH2 0x23F PUSH2 0x4BD JUMP JUMPDEST PUSH1 0x40 MLOAD PUSH2 0x24C SWAP2 SWAP1 PUSH2 0x3275 JUMP JUMPDEST PUSH1 0x40 MLOAD DUP1 SWAP2 SUB SWAP1 RETURN JUMPDEST PUSH2 0x23F PUSH2 0x263 CALLDATASIZE PUSH1 0x4 PUSH2 0x308D JUMP JUMPDEST PUSH2 0x600 JUMP JUMPDEST PUSH2 0x27B PUSH2 0x276 CALLDATASIZE PUSH1 0x4 PUSH2 0x319D JUMP JUMPDEST PUSH2 0x68D JUMP JUMPDEST PUSH1 0x40 MLOAD PUSH2 0x24C SWAP5 SWAP4 SWAP3 SWAP2 SWAP1 PUSH2 0x332A JUMP JUMPDEST PUSH2 0x29E PUSH2 0x299 CALLDATASIZE PUSH1 0x4 PUSH2 0x3156 JUMP JUMPDEST PUSH2 0x6BF JUMP JUMPDEST PUSH1 0x40 MLOAD PUSH2 0x24C SWAP6 SWAP5 SWAP4 SWAP3 SWAP2 SWAP1 PUSH2 0x3345 JUMP JUMPDEST PUSH2 0x2B7 PUSH2 0x6EE JUMP JUMPDEST PUSH1 0x40 MLOAD PUSH2 0x24C SWAP2 SWAP1 PUSH2 0x31F0 JUMP JUMPDEST PUSH2 0x2D7 PUSH2 0x2D2 CALLDATASIZE PUSH1 0x4 PUSH2 0x3156 JUMP JUMPDEST PUSH2 0x706 JUMP JUMPDEST PUSH1 0x40 MLOAD PUSH2 0x24C SWAP2 SWAP1 PUSH2 0x32F0 JUMP JUMPDEST PUSH2 0x2F7 PUSH2 0x2F2 CALLDATASIZE PUSH1 0x4 PUSH2 0x308D JUMP JUMPDEST PUSH2 0x725 JUMP JUMPDEST STOP JUMPDEST PUSH2 0x2D7 PUSH2 0x307 CALLDATASIZE PUSH1 0x4 PUSH2 0x30F0 JUMP JUMPDEST PUSH2 0x739 JUMP JUMPDEST PUSH2 0x2B7 PUSH2 0x31A CALLDATASIZE PUSH1 0x4 PUSH2 0x3156 JUMP JUMPDEST PUSH2 0x78B JUMP JUMPDEST PUSH2 0x332 PUSH2 0x32D CALLDATASIZE PUSH1 0x4 PUSH2 0x308D JUMP JUMPDEST PUSH2 0x7B5 JUMP JUMPDEST PUSH1 0x40 MLOAD PUSH2 0x24C SWAP2 SWAP1 PUSH2 0x326A JUMP JUMPDEST PUSH2 0x23F PUSH2 0x7CA JUMP JUMPDEST PUSH2 0x23F PUSH2 0x7D0 JUMP JUMPDEST PUSH2 0x2F7 PUSH2 0x35D CALLDATASIZE PUSH1 0x4 PUSH2 0x308D JUMP JUMPDEST PUSH2 0x7D6 JUMP JUMPDEST PUSH2 0x23F PUSH2 0x864 JUMP JUMPDEST PUSH2 0x23F PUSH2 0x378 CALLDATASIZE PUSH1 0x4 PUSH2 0x308D JUMP JUMPDEST PUSH2 0x86A JUMP JUMPDEST PUSH2 0x385 PUSH2 0x87C JUMP JUMPDEST PUSH1 0x40 MLOAD PUSH2 0x24C SWAP2 SWAP1 PUSH2 0x3368 JUMP JUMPDEST PUSH2 0x2B7 PUSH2 0x888 JUMP JUMPDEST PUSH2 0x2F7 PUSH2 0x3A8 CALLDATASIZE PUSH1 0x4 PUSH2 0x3124 JUMP JUMPDEST PUSH2 0x897 JUMP JUMPDEST PUSH2 0x23F PUSH2 0x8A9 JUMP JUMPDEST PUSH2 0x23F PUSH2 0x8AF JUMP JUMPDEST PUSH2 0x23F PUSH2 0x8B5 JUMP JUMPDEST PUSH2 0x2F7 PUSH2 0x3D3 CALLDATASIZE PUSH1 0x4 PUSH2 0x3156 JUMP JUMPDEST PUSH2 0x8D3 JUMP JUMPDEST PUSH2 0x2B7 PUSH2 0x8DD JUMP JUMPDEST PUSH2 0x332 PUSH2 0x3EE CALLDATASIZE PUSH1 0x4 PUSH2 0x308D JUMP JUMPDEST PUSH2 0x8F5 JUMP JUMPDEST PUSH2 0x23F PUSH2 0x401 CALLDATASIZE PUSH1 0x4 PUSH2 0x3156 JUMP JUMPDEST PUSH2 0x90A JUMP JUMPDEST PUSH2 0x23F PUSH2 0x414 CALLDATASIZE PUSH1 0x4 PUSH2 0x3156 JUMP JUMPDEST PUSH2 0x987 JUMP JUMPDEST PUSH2 0x23F PUSH2 0x999 JUMP JUMPDEST PUSH2 0x429 PUSH2 0x99F JUMP JUMPDEST PUSH1 0x40 MLOAD PUSH2 0x24C SWAP2 SWAP1 PUSH2 0x321D JUMP JUMPDEST PUSH2 0x2B7 PUSH2 0xA01 JUMP JUMPDEST PUSH2 0x385 PUSH2 0xA19 JUMP JUMPDEST PUSH2 0x2D7 PUSH2 0x454 CALLDATASIZE PUSH1 0x4 PUSH2 0x31BE JUMP JUMPDEST PUSH2 0xA25 JUMP JUMPDEST PUSH2 0x385 PUSH2 0xB53 JUMP JUMPDEST PUSH2 0x23F PUSH2 0x46F CALLDATASIZE PUSH1 0x4 PUSH2 0x316E JUMP JUMPDEST PUSH2 0xB67 JUMP JUMPDEST PUSH2 0x2B7 PUSH2 0xBF6 JUMP JUMPDEST PUSH2 0x2B7 PUSH2 0xC05 JUMP JUMPDEST PUSH2 0x2D7 PUSH2 0x492 CALLDATASIZE PUSH1 0x4 PUSH2 0x30C5 JUMP JUMPDEST PUSH2 0xC1D JUMP JUMPDEST PUSH2 0x2F7 PUSH2 0x4A5 CALLDATASIZE PUSH1 0x4 PUSH2 0x308D JUMP JUMPDEST PUSH2 0xC51 JUMP JUMPDEST PUSH2 0x2F7 PUSH2 0x4B8 CALLDATASIZE PUSH1 0x4 PUSH2 0x3156 JUMP JUMPDEST PUSH2 0xCC2 JUMP JUMPDEST PUSH1 0xC SLOAD PUSH1 0x0 SWAP1 DUP2 PUSH2 0x4CF DUP3 PUSH1 0x1 PUSH2 0x1012 JUMP JUMPDEST PUSH1 0x0 DUP2 DUP2 MSTORE PUSH1 0x16 PUSH1 0x20 MSTORE PUSH1 0x40 SWAP1 KECCAK256 PUSH1 0x1 ADD SLOAD SWAP1 SWAP2 POP DUP1 ISZERO PUSH2 0x4FC JUMPI PUSH2 0x4FC PUSH2 0x4F7 DUP4 DUP4 PUSH2 0x1031 JUMP JUMPDEST PUSH2 0x1076 JUMP JUMPDEST PUSH2 0x504 PUSH2 0x107E JUMP JUMPDEST PUSH1 0x0 DUP5 DUP2 MSTORE PUSH1 0x16 PUSH1 0x20 MSTORE PUSH1 0x40 SWAP1 KECCAK256 SSTORE PUSH2 0x51B PUSH2 0x2FED JUMP JUMPDEST POP PUSH1 0x0 DUP4 DUP2 MSTORE PUSH1 0x16 PUSH1 0x20 SWAP1 DUP2 MSTORE PUSH1 0x40 SWAP2 DUP3 SWAP1 KECCAK256 DUP3 MLOAD PUSH1 0xA0 DUP2 ADD DUP5 MSTORE DUP2 SLOAD DUP1 DUP3 MSTORE PUSH1 0x1 DUP4 ADD SLOAD SWAP4 DUP3 ADD DUP5 SWAP1 MSTORE PUSH1 0x2 DUP4 ADD SLOAD DUP3 DUP7 ADD DUP2 SWAP1 MSTORE PUSH1 0x3 DUP5 ADD SLOAD PUSH1 0x60 DUP5 ADD DUP2 SWAP1 MSTORE PUSH1 0x4 SWAP1 SWAP5 ADD SLOAD PUSH1 0x80 DUP5 ADD MSTORE SWAP5 MLOAD SWAP2 SWAP5 DUP9 SWAP5 PUSH32 0xBB4A26FA0ACE13EE4DA343896C20EAA44A618FB9071FDD8C2E2C960A4583189D SWAP5 PUSH2 0x59D SWAP5 SWAP2 SWAP4 SWAP3 SWAP2 PUSH2 0x332A JUMP JUMPDEST PUSH1 0x40 MLOAD DUP1 SWAP2 SUB SWAP1 LOG2 PUSH2 0x5AD PUSH2 0x110F JUMP JUMPDEST PUSH1 0x20 DUP2 ADD MLOAD PUSH2 0x5F4 JUMPI DUP1 MLOAD PUSH1 0x40 MLOAD DUP6 SWAP2 PUSH32 0xB463D19ECF455BE65365092CF8E1DB6934A0334CF8CD532DDF9964D01F36B5B2 SWAP2 PUSH2 0x5EB SWAP2 PUSH1 0x0 SWAP2 PUSH2 0x327E JUMP JUMPDEST PUSH1 0x40 MLOAD DUP1 SWAP2 SUB SWAP1 LOG2 JUMPDEST PUSH1 0x20 ADD MLOAD SWAP4 POP POP POP POP SWAP1 JUMP JUMPDEST PUSH1 0x0 PUSH2 0x60A PUSH2 0xA01 JUMP JUMPDEST PUSH1 0x1 PUSH1 0x1 PUSH1 0xA0 SHL SUB AND PUSH4 0x70A08231 DUP4 PUSH1 0x40 MLOAD DUP3 PUSH4 0xFFFFFFFF AND PUSH1 0xE0 SHL DUP2 MSTORE PUSH1 0x4 ADD PUSH2 0x635 SWAP2 SWAP1 PUSH2 0x31F0 JUMP JUMPDEST PUSH1 0x20 PUSH1 0x40 MLOAD DUP1 DUP4 SUB DUP2 DUP7 DUP1 EXTCODESIZE ISZERO DUP1 ISZERO PUSH2 0x64D JUMPI PUSH1 0x0 DUP1 REVERT JUMPDEST POP GAS STATICCALL ISZERO DUP1 ISZERO PUSH2 0x661 JUMPI RETURNDATASIZE PUSH1 0x0 DUP1 RETURNDATACOPY RETURNDATASIZE PUSH1 0x0 REVERT JUMPDEST POP POP POP POP PUSH1 0x40 MLOAD RETURNDATASIZE PUSH1 0x1F NOT PUSH1 0x1F DUP3 ADD AND DUP3 ADD DUP1 PUSH1 0x40 MSTORE POP DUP2 ADD SWAP1 PUSH2 0x685 SWAP2 SWAP1 PUSH2 0x31D8 JUMP JUMPDEST SWAP1 POP JUMPDEST SWAP2 SWAP1 POP JUMP JUMPDEST PUSH1 0x15 PUSH1 0x20 SWAP1 DUP2 MSTORE PUSH1 0x0 SWAP3 DUP4 MSTORE PUSH1 0x40 DUP1 DUP5 KECCAK256 SWAP1 SWAP2 MSTORE SWAP1 DUP3 MSTORE SWAP1 KECCAK256 DUP1 SLOAD PUSH1 0x1 DUP3 ADD SLOAD PUSH1 0x2 DUP4 ADD SLOAD PUSH1 0x3 SWAP1 SWAP4 ADD SLOAD SWAP2 SWAP3 SWAP1 SWAP2 DUP5 JUMP JUMPDEST PUSH1 0x16 PUSH1 0x20 MSTORE PUSH1 0x0 SWAP1 DUP2 MSTORE PUSH1 0x40 SWAP1 KECCAK256 DUP1 SLOAD PUSH1 0x1 DUP3 ADD SLOAD PUSH1 0x2 DUP4 ADD SLOAD PUSH1 0x3 DUP5 ADD SLOAD PUSH1 0x4 SWAP1 SWAP5 ADD SLOAD SWAP3 SWAP4 SWAP2 SWAP3 SWAP1 SWAP2 SWAP1 DUP6 JUMP JUMPDEST PUSH20 0xC02AAA39B223FE8D0A0E5C4F27EAD9083C756CC2 SWAP1 JUMP JUMPDEST PUSH2 0x70E PUSH2 0x301C JUMP JUMPDEST PUSH1 0x0 DUP3 DUP2 MSTORE PUSH1 0x7 PUSH1 0x20 MSTORE PUSH1 0x40 SWAP1 KECCAK256 PUSH2 0x685 SWAP1 PUSH2 0x114C JUMP JUMPDEST PUSH2 0x72D PUSH2 0x11D2 JUMP JUMPDEST PUSH2 0x736 DUP2 PUSH2 0x1201 JUMP JUMPDEST POP JUMP JUMPDEST PUSH2 0x741 PUSH2 0x301C JUMP JUMPDEST PUSH2 0x782 PUSH1 0x5 PUSH1 0x0 DUP5 PUSH1 0x1 DUP2 GT ISZERO PUSH2 0x754 JUMPI INVALID JUMPDEST PUSH1 0xFF AND DUP2 MSTORE PUSH1 0x20 DUP1 DUP3 ADD SWAP3 SWAP1 SWAP3 MSTORE PUSH1 0x40 SWAP1 DUP2 ADD PUSH1 0x0 SWAP1 DUP2 KECCAK256 PUSH1 0x1 PUSH1 0x1 PUSH1 0xA0 SHL SUB DUP9 AND DUP3 MSTORE SWAP1 SWAP3 MSTORE SWAP1 KECCAK256 PUSH2 0x114C JUMP JUMPDEST SWAP1 POP JUMPDEST SWAP3 SWAP2 POP POP JUMP JUMPDEST PUSH1 0x2 DUP2 DUP2 SLOAD DUP2 LT PUSH2 0x79B JUMPI PUSH1 0x0 DUP1 REVERT JUMPDEST PUSH1 0x0 SWAP2 DUP3 MSTORE PUSH1 0x20 SWAP1 SWAP2 KECCAK256 ADD SLOAD PUSH1 0x1 PUSH1 0x1 PUSH1 0xA0 SHL SUB AND SWAP1 POP DUP2 JUMP JUMPDEST PUSH1 0x10 PUSH1 0x20 MSTORE PUSH1 0x0 SWAP1 DUP2 MSTORE PUSH1 0x40 SWAP1 KECCAK256 SLOAD PUSH1 0xFF AND DUP2 JUMP JUMPDEST PUSH1 0xD SLOAD DUP2 JUMP JUMPDEST PUSH1 0x11 SLOAD DUP2 JUMP JUMPDEST PUSH2 0x7DE PUSH2 0x11D2 JUMP JUMPDEST PUSH1 0x1 PUSH1 0x1 PUSH1 0xA0 SHL SUB DUP2 AND PUSH1 0x0 SWAP1 DUP2 MSTORE PUSH1 0x1 PUSH1 0x20 MSTORE PUSH1 0x40 SWAP1 KECCAK256 SLOAD PUSH1 0xFF AND PUSH2 0x80A JUMPI PUSH2 0x80A PUSH2 0x4F7 DUP3 PUSH2 0x12D5 JUMP JUMPDEST PUSH1 0x0 JUMPDEST PUSH1 0x2 SLOAD DUP2 LT ISZERO PUSH2 0x860 JUMPI DUP2 PUSH1 0x1 PUSH1 0x1 PUSH1 0xA0 SHL SUB AND PUSH1 0x2 DUP3 DUP2 SLOAD DUP2 LT PUSH2 0x82E JUMPI INVALID JUMPDEST PUSH1 0x0 SWAP2 DUP3 MSTORE PUSH1 0x20 SWAP1 SWAP2 KECCAK256 ADD SLOAD PUSH1 0x1 PUSH1 0x1 PUSH1 0xA0 SHL SUB AND EQ ISZERO PUSH2 0x858 JUMPI PUSH2 0x853 DUP3 DUP3 PUSH2 0x131D JUMP JUMPDEST PUSH2 0x860 JUMP JUMPDEST PUSH1 0x1 ADD PUSH2 0x80D JUMP JUMPDEST POP POP JUMP JUMPDEST PUSH1 0xC SLOAD DUP2 JUMP JUMPDEST PUSH1 0x9 PUSH1 0x20 MSTORE PUSH1 0x0 SWAP1 DUP2 MSTORE PUSH1 0x40 SWAP1 KECCAK256 SLOAD DUP2 JUMP JUMPDEST PUSH1 0x14 SLOAD PUSH4 0xFFFFFFFF AND DUP2 JUMP JUMPDEST PUSH1 0x0 SLOAD PUSH1 0x1 PUSH1 0x1 PUSH1 0xA0 SHL SUB AND DUP2 JUMP JUMPDEST PUSH2 0x89F PUSH2 0x11D2 JUMP JUMPDEST PUSH2 0x860 DUP3 DUP3 PUSH2 0x131D JUMP JUMPDEST PUSH1 0x13 SLOAD DUP2 JUMP JUMPDEST PUSH1 0x8 SLOAD DUP2 JUMP JUMPDEST PUSH1 0x0 PUSH2 0x8CE PUSH1 0x11 SLOAD PUSH1 0xD SLOAD PUSH2 0x14B1 SWAP1 SWAP2 SWAP1 PUSH4 0xFFFFFFFF AND JUMP JUMPDEST SWAP1 POP SWAP1 JUMP JUMPDEST PUSH2 0x736 DUP2 CALLER PUSH2 0x14CD JUMP JUMPDEST PUSH20 0xDE6445484A8DCD9BF35FC95EB4E3990CC358822E SWAP1 JUMP JUMPDEST PUSH1 0x1 PUSH1 0x20 MSTORE PUSH1 0x0 SWAP1 DUP2 MSTORE PUSH1 0x40 SWAP1 KECCAK256 SLOAD PUSH1 0xFF AND DUP2 JUMP JUMPDEST PUSH1 0x0 PUSH2 0x914 PUSH2 0x301C JUMP JUMPDEST POP PUSH1 0x0 DUP3 DUP2 MSTORE PUSH1 0xA PUSH1 0x20 SWAP1 DUP2 MSTORE PUSH1 0x40 DUP1 DUP4 KECCAK256 DUP2 MLOAD PUSH1 0x60 DUP2 ADD DUP4 MSTORE DUP2 SLOAD PUSH1 0x1 PUSH1 0x1 PUSH1 0xA0 SHL SUB DUP1 DUP3 AND DUP4 MSTORE PUSH1 0x1 PUSH1 0xA0 SHL SWAP1 SWAP2 DIV PUSH4 0xFFFFFFFF AND SWAP5 DUP3 ADD SWAP5 SWAP1 SWAP5 MSTORE PUSH1 0x1 SWAP1 SWAP2 ADD SLOAD SWAP1 SWAP3 AND SWAP1 DUP3 ADD MSTORE SWAP1 DUP1 PUSH2 0x96A DUP6 PUSH2 0x1646 JUMP JUMPDEST SWAP2 POP SWAP2 POP PUSH2 0x97D DUP4 PUSH1 0x20 ADD MLOAD DUP4 DUP4 PUSH2 0x1714 JUMP JUMPDEST POP SWAP6 SWAP5 POP POP POP POP POP JUMP JUMPDEST PUSH1 0xB PUSH1 0x20 MSTORE PUSH1 0x0 SWAP1 DUP2 MSTORE PUSH1 0x40 SWAP1 KECCAK256 SLOAD DUP2 JUMP JUMPDEST PUSH1 0x17 SLOAD DUP2 JUMP JUMPDEST PUSH1 0x60 PUSH1 0x2 DUP1 SLOAD DUP1 PUSH1 0x20 MUL PUSH1 0x20 ADD PUSH1 0x40 MLOAD SWAP1 DUP2 ADD PUSH1 0x40 MSTORE DUP1 SWAP3 SWAP2 SWAP1 DUP2 DUP2 MSTORE PUSH1 0x20 ADD DUP3 DUP1 SLOAD DUP1 ISZERO PUSH2 0x9F7 JUMPI PUSH1 0x20 MUL DUP3 ADD SWAP2 SWAP1 PUSH1 0x0 MSTORE PUSH1 0x20 PUSH1 0x0 KECCAK256 SWAP1 JUMPDEST DUP2 SLOAD PUSH1 0x1 PUSH1 0x1 PUSH1 0xA0 SHL SUB AND DUP2 MSTORE PUSH1 0x1 SWAP1 SWAP2 ADD SWAP1 PUSH1 0x20 ADD DUP1 DUP4 GT PUSH2 0x9D9 JUMPI JUMPDEST POP POP POP POP POP SWAP1 POP SWAP1 JUMP JUMPDEST PUSH20 0xBA7F8B5FB1B19C1211C5D49550FCD149177A5EAF SWAP1 JUMP JUMPDEST PUSH1 0x12 SLOAD PUSH4 0xFFFFFFFF AND DUP2 JUMP JUMPDEST PUSH2 0xA2D PUSH2 0x301C JUMP JUMPDEST PUSH1 0x1 PUSH1 0x0 MSTORE PUSH1 0x4 PUSH1 0x20 MSTORE PUSH2 0xA60 PUSH32 0xABD6E7CB50984FF9C2F3E18A2660C3353DADF4E3291DEEB275DAE2CD1E44FE05 PUSH2 0x114C JUMP JUMPDEST SWAP1 POP PUSH1 0x0 DUP3 PUSH1 0x1 DUP2 GT ISZERO PUSH2 0xA70 JUMPI INVALID JUMPDEST EQ ISZERO PUSH2 0x688 JUMPI PUSH1 0x0 PUSH2 0xA80 PUSH2 0xA01 JUMP JUMPDEST PUSH1 0x1 PUSH1 0x1 PUSH1 0xA0 SHL SUB AND PUSH4 0x6B6DF5AA PUSH1 0x40 MLOAD DUP2 PUSH4 0xFFFFFFFF AND PUSH1 0xE0 SHL DUP2 MSTORE PUSH1 0x4 ADD PUSH1 0x20 PUSH1 0x40 MLOAD DUP1 DUP4 SUB DUP2 DUP7 DUP1 EXTCODESIZE ISZERO DUP1 ISZERO PUSH2 0xAB8 JUMPI PUSH1 0x0 DUP1 REVERT JUMPDEST POP GAS STATICCALL ISZERO DUP1 ISZERO PUSH2 0xACC JUMPI RETURNDATASIZE PUSH1 0x0 DUP1 RETURNDATACOPY RETURNDATASIZE PUSH1 0x0 REVERT JUMPDEST POP POP POP POP PUSH1 0x40 MLOAD RETURNDATASIZE PUSH1 0x1F NOT PUSH1 0x1F DUP3 ADD AND DUP3 ADD DUP1 PUSH1 0x40 MSTORE POP DUP2 ADD SWAP1 PUSH2 0xAF0 SWAP2 SWAP1 PUSH2 0x31D8 JUMP JUMPDEST SWAP1 POP PUSH2 0xB1A PUSH2 0xB15 DUP4 PUSH1 0x20 ADD MLOAD PUSH1 0x1 PUSH1 0x1 PUSH1 0x60 SHL SUB AND DUP4 PUSH2 0x1012 SWAP1 SWAP2 SWAP1 PUSH4 0xFFFFFFFF AND JUMP JUMPDEST PUSH2 0x174F JUMP JUMPDEST PUSH1 0x1 PUSH1 0x1 PUSH1 0x60 SHL SUB SWAP1 DUP2 AND PUSH1 0x20 DUP5 ADD MSTORE PUSH1 0x40 DUP4 ADD MLOAD PUSH2 0xB3F SWAP2 PUSH2 0xB15 SWAP2 DUP5 SWAP2 AND PUSH2 0x1012 JUMP JUMPDEST PUSH1 0x1 PUSH1 0x1 PUSH1 0x60 SHL SUB AND PUSH1 0x40 DUP4 ADD MSTORE POP SWAP2 SWAP1 POP JUMP JUMPDEST PUSH1 0x14 SLOAD PUSH5 0x100000000 SWAP1 DIV PUSH4 0xFFFFFFFF AND DUP2 JUMP JUMPDEST PUSH1 0x0 PUSH2 0xB71 PUSH2 0x301C JUMP JUMPDEST POP PUSH1 0x0 DUP4 DUP2 MSTORE PUSH1 0xA PUSH1 0x20 SWAP1 DUP2 MSTORE PUSH1 0x40 DUP1 DUP4 KECCAK256 DUP2 MLOAD PUSH1 0x60 DUP2 ADD DUP4 MSTORE DUP2 SLOAD PUSH1 0x1 PUSH1 0x1 PUSH1 0xA0 SHL SUB DUP1 DUP3 AND DUP4 MSTORE PUSH1 0x1 PUSH1 0xA0 SHL SWAP1 SWAP2 DIV PUSH4 0xFFFFFFFF AND SWAP5 DUP3 ADD SWAP5 SWAP1 SWAP5 MSTORE PUSH1 0x1 SWAP1 SWAP2 ADD SLOAD SWAP1 SWAP3 AND SWAP1 DUP3 ADD MSTORE SWAP1 DUP1 PUSH2 0xBC7 DUP7 PUSH2 0x1646 JUMP JUMPDEST SWAP2 POP SWAP2 POP PUSH1 0x0 PUSH2 0xBDC DUP5 PUSH1 0x20 ADD MLOAD DUP5 DUP5 PUSH2 0x1714 JUMP JUMPDEST SWAP2 POP POP PUSH2 0xBEB DUP8 DUP8 DUP4 DUP6 PUSH2 0x176E JUMP JUMPDEST SWAP8 SWAP7 POP POP POP POP POP POP POP JUMP JUMPDEST PUSH1 0x3 SLOAD PUSH1 0x1 PUSH1 0x1 PUSH1 0xA0 SHL SUB AND DUP2 JUMP JUMPDEST PUSH20 0x4FBB350052BCA5417566F188EB2EBCE5B19BC964 SWAP1 JUMP JUMPDEST PUSH2 0xC25 PUSH2 0x301C JUMP JUMPDEST PUSH1 0x1 PUSH1 0x1 PUSH1 0xA0 SHL SUB DUP4 AND PUSH1 0x0 SWAP1 DUP2 MSTORE PUSH1 0x6 PUSH1 0x20 SWAP1 DUP2 MSTORE PUSH1 0x40 DUP1 DUP4 KECCAK256 DUP6 DUP5 MSTORE SWAP1 SWAP2 MSTORE SWAP1 KECCAK256 PUSH2 0x782 SWAP1 PUSH2 0x114C JUMP JUMPDEST PUSH2 0xC59 PUSH2 0x11D2 JUMP JUMPDEST PUSH1 0x1 PUSH1 0x1 PUSH1 0xA0 SHL SUB DUP2 AND PUSH2 0xC77 JUMPI PUSH2 0xC72 PUSH2 0x4F7 PUSH2 0x187D JUMP JUMPDEST PUSH2 0x736 JUMP JUMPDEST PUSH1 0x0 DUP1 SLOAD PUSH1 0x1 PUSH1 0x1 PUSH1 0xA0 SHL SUB NOT AND PUSH1 0x1 PUSH1 0x1 PUSH1 0xA0 SHL SUB DUP4 AND SWAP1 DUP2 OR DUP3 SSTORE PUSH1 0x40 MLOAD SWAP1 SWAP2 CALLER SWAP2 PUSH32 0x8BE0079C531659141344CD1FD0A4F28419497F9722A3DAAFE3B4186F6B6457E0 SWAP2 SWAP1 LOG3 POP JUMP JUMPDEST PUSH2 0xCCB CALLER PUSH2 0x189B JUMP JUMPDEST ISZERO PUSH2 0xCD8 JUMPI PUSH2 0xCD8 PUSH2 0x18A1 JUMP JUMPDEST PUSH1 0xC SLOAD PUSH1 0x0 PUSH2 0xCE8 DUP3 PUSH1 0x1 PUSH2 0x1012 JUMP JUMPDEST SWAP1 POP PUSH2 0xCF2 PUSH2 0x2FED JUMP JUMPDEST POP PUSH1 0x0 DUP2 DUP2 MSTORE PUSH1 0x16 PUSH1 0x20 SWAP1 DUP2 MSTORE PUSH1 0x40 SWAP2 DUP3 SWAP1 KECCAK256 DUP3 MLOAD PUSH1 0xA0 DUP2 ADD DUP5 MSTORE DUP2 SLOAD DUP2 MSTORE PUSH1 0x1 DUP3 ADD SLOAD SWAP3 DUP2 ADD DUP4 SWAP1 MSTORE PUSH1 0x2 DUP3 ADD SLOAD SWAP4 DUP2 ADD SWAP4 SWAP1 SWAP4 MSTORE PUSH1 0x3 DUP2 ADD SLOAD PUSH1 0x60 DUP5 ADD MSTORE PUSH1 0x4 ADD SLOAD PUSH1 0x80 DUP4 ADD MSTORE PUSH2 0xD47 JUMPI POP POP POP PUSH2 0x736 JUMP JUMPDEST PUSH2 0xD4F PUSH2 0x303C JUMP JUMPDEST POP PUSH1 0x0 DUP5 DUP2 MSTORE PUSH1 0x15 PUSH1 0x20 SWAP1 DUP2 MSTORE PUSH1 0x40 DUP1 DUP4 KECCAK256 DUP6 DUP5 MSTORE DUP3 MSTORE SWAP2 DUP3 SWAP1 KECCAK256 DUP3 MLOAD PUSH1 0x80 DUP2 ADD DUP5 MSTORE DUP2 SLOAD DUP1 DUP3 MSTORE PUSH1 0x1 DUP4 ADD SLOAD SWAP4 DUP3 ADD SWAP4 SWAP1 SWAP4 MSTORE PUSH1 0x2 DUP3 ADD SLOAD SWAP4 DUP2 ADD SWAP4 SWAP1 SWAP4 MSTORE PUSH1 0x3 ADD SLOAD PUSH1 0x60 DUP4 ADD MSTORE PUSH2 0xDA5 JUMPI POP POP POP POP PUSH2 0x736 JUMP JUMPDEST PUSH1 0x0 DUP6 DUP2 MSTORE PUSH1 0x15 PUSH1 0x20 SWAP1 DUP2 MSTORE PUSH1 0x40 DUP1 DUP4 KECCAK256 DUP7 DUP5 MSTORE SWAP1 SWAP2 MSTORE DUP2 KECCAK256 DUP2 DUP2 SSTORE PUSH1 0x1 DUP2 ADD DUP3 SWAP1 SSTORE PUSH1 0x2 DUP2 ADD DUP3 SWAP1 SSTORE PUSH1 0x3 ADD DUP2 SWAP1 SSTORE PUSH2 0xDDF DUP3 DUP5 PUSH2 0x18C4 JUMP JUMPDEST SWAP1 POP PUSH1 0x0 DUP1 PUSH2 0xDF3 DUP9 DUP5 DUP7 PUSH1 0x40 ADD MLOAD PUSH2 0x1A2B JUMP JUMPDEST SWAP2 POP SWAP2 POP DUP8 DUP8 PUSH32 0xF1116B309178AA62DCB6BF8C3B8BC2321724907C7EBF52192D14C8CE3AA9194C DUP5 DUP5 PUSH1 0x40 MLOAD PUSH2 0xE2A SWAP3 SWAP2 SWAP1 PUSH2 0x327E JUMP JUMPDEST PUSH1 0x40 MLOAD DUP1 SWAP2 SUB SWAP1 LOG3 PUSH1 0x0 PUSH2 0xE3E DUP4 DUP4 PUSH2 0x14B1 JUMP JUMPDEST SWAP1 POP PUSH2 0xE48 PUSH2 0xC05 JUMP JUMPDEST PUSH1 0x1 PUSH1 0x1 PUSH1 0xA0 SHL SUB AND PUSH4 0x7546172 PUSH1 0x40 MLOAD DUP2 PUSH4 0xFFFFFFFF AND PUSH1 0xE0 SHL DUP2 MSTORE PUSH1 0x4 ADD PUSH1 0x20 PUSH1 0x40 MLOAD DUP1 DUP4 SUB DUP2 DUP7 DUP1 EXTCODESIZE ISZERO DUP1 ISZERO PUSH2 0xE80 JUMPI PUSH1 0x0 DUP1 REVERT JUMPDEST POP GAS STATICCALL ISZERO DUP1 ISZERO PUSH2 0xE94 JUMPI RETURNDATASIZE PUSH1 0x0 DUP1 RETURNDATACOPY RETURNDATASIZE PUSH1 0x0 REVERT JUMPDEST POP POP POP POP PUSH1 0x40 MLOAD RETURNDATASIZE PUSH1 0x1F NOT PUSH1 0x1F DUP3 ADD AND DUP3 ADD DUP1 PUSH1 0x40 MSTORE POP DUP2 ADD SWAP1 PUSH2 0xEB8 SWAP2 SWAP1 PUSH2 0x30A9 JUMP JUMPDEST PUSH1 0x1 PUSH1 0x1 PUSH1 0xA0 SHL SUB AND PUSH4 0x7FA36E40 DUP11 DUP4 PUSH1 0x40 MLOAD DUP4 PUSH4 0xFFFFFFFF AND PUSH1 0xE0 SHL DUP2 MSTORE PUSH1 0x4 ADD PUSH2 0xEE5 SWAP3 SWAP2 SWAP1 PUSH2 0x327E JUMP JUMPDEST PUSH1 0x20 PUSH1 0x40 MLOAD DUP1 DUP4 SUB DUP2 PUSH1 0x0 DUP8 DUP1 EXTCODESIZE ISZERO DUP1 ISZERO PUSH2 0xEFF JUMPI PUSH1 0x0 DUP1 REVERT JUMPDEST POP GAS CALL ISZERO DUP1 ISZERO PUSH2 0xF13 JUMPI RETURNDATASIZE PUSH1 0x0 DUP1 RETURNDATACOPY RETURNDATASIZE PUSH1 0x0 REVERT JUMPDEST POP POP POP POP PUSH1 0x40 MLOAD RETURNDATASIZE PUSH1 0x1F NOT PUSH1 0x1F DUP3 ADD AND DUP3 ADD DUP1 PUSH1 0x40 MSTORE POP DUP2 ADD SWAP1 PUSH2 0xF37 SWAP2 SWAP1 PUSH2 0x3136 JUMP JUMPDEST PUSH2 0xF5C JUMPI PUSH1 0x40 MLOAD PUSH3 0x461BCD PUSH1 0xE5 SHL DUP2 MSTORE PUSH1 0x4 ADD PUSH2 0xF53 SWAP1 PUSH2 0x328C JUMP JUMPDEST PUSH1 0x40 MLOAD DUP1 SWAP2 SUB SWAP1 REVERT JUMPDEST PUSH1 0x80 DUP7 ADD MLOAD PUSH2 0xF6B SWAP1 DUP3 PUSH2 0x14B1 JUMP JUMPDEST PUSH1 0x80 DUP8 ADD DUP2 SWAP1 MSTORE PUSH1 0x0 DUP9 DUP2 MSTORE PUSH1 0x16 PUSH1 0x20 SWAP1 DUP2 MSTORE PUSH1 0x40 SWAP1 SWAP2 KECCAK256 PUSH1 0x4 ADD SWAP2 SWAP1 SWAP2 SSTORE DUP7 ADD MLOAD PUSH2 0xF98 SWAP1 PUSH1 0x1 PUSH2 0x1012 JUMP JUMPDEST PUSH1 0x20 DUP1 DUP9 ADD DUP3 DUP2 MSTORE PUSH1 0x0 DUP11 DUP2 MSTORE PUSH1 0x16 SWAP1 SWAP3 MSTORE PUSH1 0x40 SWAP1 SWAP2 KECCAK256 PUSH1 0x1 ADD SWAP2 SWAP1 SWAP2 SSTORE MLOAD PUSH2 0x1007 JUMPI PUSH1 0x80 DUP7 ADD MLOAD DUP7 MLOAD DUP9 SWAP2 PUSH32 0xB463D19ECF455BE65365092CF8E1DB6934A0334CF8CD532DDF9964D01F36B5B2 SWAP2 PUSH2 0xFF0 SWAP1 DUP3 PUSH2 0x1012 JUMP JUMPDEST PUSH1 0x40 MLOAD PUSH2 0xFFE SWAP3 SWAP2 SWAP1 PUSH2 0x327E JUMP JUMPDEST PUSH1 0x40 MLOAD DUP1 SWAP2 SUB SWAP1 LOG2 JUMPDEST POP POP POP POP POP POP POP POP POP JUMP JUMPDEST PUSH1 0x0 DUP3 DUP3 GT ISZERO PUSH2 0x102B JUMPI PUSH2 0x102B PUSH2 0x4F7 PUSH1 0x2 DUP6 DUP6 PUSH2 0x1B4A JUMP JUMPDEST POP SWAP1 SUB SWAP1 JUMP JUMPDEST PUSH1 0x40 DUP1 MLOAD PUSH1 0x24 DUP2 ADD DUP5 SWAP1 MSTORE PUSH1 0x44 DUP1 DUP3 ADD DUP5 SWAP1 MSTORE DUP3 MLOAD DUP1 DUP4 SUB SWAP1 SWAP2 ADD DUP2 MSTORE PUSH1 0x64 SWAP1 SWAP2 ADD SWAP1 SWAP2 MSTORE PUSH1 0x20 DUP2 ADD DUP1 MLOAD PUSH1 0x1 PUSH1 0x1 PUSH1 0xE0 SHL SUB AND PUSH4 0x30A5C005 PUSH1 0xE1 SHL OR SWAP1 MSTORE SWAP3 SWAP2 POP POP JUMP JUMPDEST DUP1 MLOAD PUSH1 0x20 DUP3 ADD REVERT JUMPDEST PUSH1 0x0 PUSH2 0x8CE PUSH1 0x17 SLOAD PUSH2 0x108E PUSH2 0xC05 JUMP JUMPDEST PUSH1 0x1 PUSH1 0x1 PUSH1 0xA0 SHL SUB AND PUSH4 0x70A08231 ADDRESS PUSH1 0x40 MLOAD DUP3 PUSH4 0xFFFFFFFF AND PUSH1 0xE0 SHL DUP2 MSTORE PUSH1 0x4 ADD PUSH2 0x10B9 SWAP2 SWAP1 PUSH2 0x31F0 JUMP JUMPDEST PUSH1 0x20 PUSH1 0x40 MLOAD DUP1 DUP4 SUB DUP2 DUP7 DUP1 EXTCODESIZE ISZERO DUP1 ISZERO PUSH2 0x10D1 JUMPI PUSH1 0x0 DUP1 REVERT JUMPDEST POP GAS STATICCALL ISZERO DUP1 ISZERO PUSH2 0x10E5 JUMPI RETURNDATASIZE PUSH1 0x0 DUP1 RETURNDATACOPY RETURNDATASIZE PUSH1 0x0 REVERT JUMPDEST POP POP POP POP PUSH1 0x40 MLOAD RETURNDATASIZE PUSH1 0x1F NOT PUSH1 0x1F DUP3 ADD AND DUP3 ADD DUP1 PUSH1 0x40 MSTORE POP DUP2 ADD SWAP1 PUSH2 0x1109 SWAP2 SWAP1 PUSH2 0x31D8 JUMP JUMPDEST SWAP1 PUSH2 0x1012 JUMP JUMPDEST TIMESTAMP PUSH1 0x0 PUSH2 0x111A PUSH2 0x8B5 JUMP JUMPDEST SWAP1 POP DUP2 DUP2 GT ISZERO PUSH2 0x1131 JUMPI PUSH2 0x1131 PUSH2 0x4F7 DUP3 DUP5 PUSH2 0x1BBC JUMP JUMPDEST PUSH1 0xC SLOAD PUSH1 0x0 SWAP1 PUSH2 0x1142 SWAP1 PUSH1 0x1 PUSH2 0x14B1 JUMP JUMPDEST PUSH1 0xC SSTORE POP POP PUSH1 0xD SSTORE JUMP JUMPDEST PUSH2 0x1154 PUSH2 0x301C JUMP JUMPDEST POP PUSH1 0x40 DUP1 MLOAD PUSH1 0x60 DUP2 ADD DUP3 MSTORE DUP3 SLOAD PUSH8 0xFFFFFFFFFFFFFFFF DUP2 AND DUP1 DUP4 MSTORE PUSH1 0x1 PUSH1 0x1 PUSH1 0x60 SHL SUB PUSH1 0x1 PUSH1 0x40 SHL DUP4 DIV DUP2 AND PUSH1 0x20 DUP6 ADD MSTORE PUSH1 0x1 PUSH1 0xA0 SHL SWAP1 SWAP3 DIV SWAP1 SWAP2 AND SWAP3 DUP3 ADD SWAP3 SWAP1 SWAP3 MSTORE PUSH1 0xC SLOAD SWAP1 SWAP2 DUP2 GT ISZERO PUSH2 0x11CC JUMPI PUSH2 0x11AC DUP2 PUSH2 0x1C01 JUMP JUMPDEST PUSH8 0xFFFFFFFFFFFFFFFF AND DUP3 MSTORE PUSH1 0x40 DUP3 ADD MLOAD PUSH1 0x1 PUSH1 0x1 PUSH1 0x60 SHL SUB AND PUSH1 0x20 DUP4 ADD MSTORE JUMPDEST POP SWAP2 SWAP1 POP JUMP JUMPDEST PUSH1 0x0 SLOAD PUSH1 0x1 PUSH1 0x1 PUSH1 0xA0 SHL SUB AND CALLER EQ PUSH2 0x11FF JUMPI PUSH1 0x0 SLOAD PUSH2 0x11FF SWAP1 PUSH2 0x4F7 SWAP1 CALLER SWAP1 PUSH1 0x1 PUSH1 0x1 PUSH1 0xA0 SHL SUB AND PUSH2 0x1C21 JUMP JUMPDEST JUMP JUMPDEST PUSH1 0x1 PUSH1 0x1 PUSH1 0xA0 SHL SUB DUP2 AND PUSH2 0x121A JUMPI PUSH2 0x121A PUSH2 0x4F7 PUSH2 0x1C72 JUMP JUMPDEST PUSH1 0x1 PUSH1 0x1 PUSH1 0xA0 SHL SUB DUP2 AND PUSH1 0x0 SWAP1 DUP2 MSTORE PUSH1 0x1 PUSH1 0x20 MSTORE PUSH1 0x40 SWAP1 KECCAK256 SLOAD PUSH1 0xFF AND ISZERO PUSH2 0x1247 JUMPI PUSH2 0x1247 PUSH2 0x4F7 DUP3 PUSH2 0x1C90 JUMP JUMPDEST PUSH1 0x1 PUSH1 0x1 PUSH1 0xA0 SHL SUB DUP2 AND PUSH1 0x0 DUP2 DUP2 MSTORE PUSH1 0x1 PUSH1 0x20 DUP2 SWAP1 MSTORE PUSH1 0x40 DUP1 DUP4 KECCAK256 DUP1 SLOAD PUSH1 0xFF NOT AND DUP4 OR SWAP1 SSTORE PUSH1 0x2 DUP1 SLOAD SWAP3 DUP4 ADD DUP2 SSTORE DUP4 MSTORE PUSH32 0x405787FA12A823E0F2B7631CC41B3BA8828B3321CA811111FA75CD3AA3BB5ACE SWAP1 SWAP2 ADD DUP1 SLOAD PUSH1 0x1 PUSH1 0x1 PUSH1 0xA0 SHL SUB NOT AND DUP5 OR SWAP1 SSTORE MLOAD CALLER SWAP3 SWAP2 PUSH32 0x3147867C59D17E8FA9D522465651D44AAE0A9E38F902F3475B97E58072F0ED4C SWAP2 LOG3 POP JUMP JUMPDEST PUSH1 0x40 DUP1 MLOAD PUSH1 0x1 PUSH1 0x1 PUSH1 0xA0 SHL SUB DUP4 AND PUSH1 0x24 DUP1 DUP4 ADD SWAP2 SWAP1 SWAP2 MSTORE DUP3 MLOAD DUP1 DUP4 SUB SWAP1 SWAP2 ADD DUP2 MSTORE PUSH1 0x44 SWAP1 SWAP2 ADD SWAP1 SWAP2 MSTORE PUSH1 0x20 DUP2 ADD DUP1 MLOAD PUSH1 0x1 PUSH1 0x1 PUSH1 0xE0 SHL SUB AND PUSH4 0x75A88451 PUSH1 0xE1 SHL OR SWAP1 MSTORE SWAP2 SWAP1 POP JUMP JUMPDEST PUSH1 0x1 PUSH1 0x1 PUSH1 0xA0 SHL SUB DUP3 AND PUSH1 0x0 SWAP1 DUP2 MSTORE PUSH1 0x1 PUSH1 0x20 MSTORE PUSH1 0x40 SWAP1 KECCAK256 SLOAD PUSH1 0xFF AND PUSH2 0x1349 JUMPI PUSH2 0x1349 PUSH2 0x4F7 DUP4 PUSH2 0x12D5 JUMP JUMPDEST PUSH1 0x2 SLOAD DUP2 LT PUSH2 0x1364 JUMPI PUSH2 0x1364 PUSH2 0x4F7 DUP3 PUSH1 0x2 DUP1 SLOAD SWAP1 POP PUSH2 0x1CD8 JUMP JUMPDEST DUP2 PUSH1 0x1 PUSH1 0x1 PUSH1 0xA0 SHL SUB AND PUSH1 0x2 DUP3 DUP2 SLOAD DUP2 LT PUSH2 0x137B JUMPI INVALID JUMPDEST PUSH1 0x0 SWAP2 DUP3 MSTORE PUSH1 0x20 SWAP1 SWAP2 KECCAK256 ADD SLOAD PUSH1 0x1 PUSH1 0x1 PUSH1 0xA0 SHL SUB AND EQ PUSH2 0x13C3 JUMPI PUSH2 0x13C3 PUSH2 0x4F7 PUSH1 0x2 DUP4 DUP2 SLOAD DUP2 LT PUSH2 0x13A8 JUMPI INVALID JUMPDEST PUSH1 0x0 SWAP2 DUP3 MSTORE PUSH1 0x20 SWAP1 SWAP2 KECCAK256 ADD SLOAD PUSH1 0x1 PUSH1 0x1 PUSH1 0xA0 SHL SUB AND DUP5 PUSH2 0x1D1D JUMP JUMPDEST PUSH1 0x1 PUSH1 0x1 PUSH1 0xA0 SHL SUB DUP3 AND PUSH1 0x0 SWAP1 DUP2 MSTORE PUSH1 0x1 PUSH1 0x20 MSTORE PUSH1 0x40 SWAP1 KECCAK256 DUP1 SLOAD PUSH1 0xFF NOT AND SWAP1 SSTORE PUSH1 0x2 DUP1 SLOAD PUSH1 0x0 NOT DUP2 ADD SWAP1 DUP2 LT PUSH2 0x13F5 JUMPI INVALID JUMPDEST PUSH1 0x0 SWAP2 DUP3 MSTORE PUSH1 0x20 SWAP1 SWAP2 KECCAK256 ADD SLOAD PUSH1 0x2 DUP1 SLOAD PUSH1 0x1 PUSH1 0x1 PUSH1 0xA0 SHL SUB SWAP1 SWAP3 AND SWAP2 DUP4 SWAP1 DUP2 LT PUSH2 0x141B JUMPI INVALID JUMPDEST SWAP1 PUSH1 0x0 MSTORE PUSH1 0x20 PUSH1 0x0 KECCAK256 ADD PUSH1 0x0 PUSH2 0x100 EXP DUP2 SLOAD DUP2 PUSH1 0x1 PUSH1 0x1 PUSH1 0xA0 SHL SUB MUL NOT AND SWAP1 DUP4 PUSH1 0x1 PUSH1 0x1 PUSH1 0xA0 SHL SUB AND MUL OR SWAP1 SSTORE POP PUSH1 0x2 DUP1 SLOAD DUP1 PUSH2 0x1454 JUMPI INVALID JUMPDEST PUSH1 0x0 DUP3 DUP2 MSTORE PUSH1 0x20 DUP2 KECCAK256 DUP3 ADD PUSH1 0x0 NOT SWAP1 DUP2 ADD DUP1 SLOAD PUSH1 0x1 PUSH1 0x1 PUSH1 0xA0 SHL SUB NOT AND SWAP1 SSTORE SWAP1 SWAP2 ADD SWAP1 SWAP2 SSTORE PUSH1 0x40 MLOAD CALLER SWAP2 PUSH1 0x1 PUSH1 0x1 PUSH1 0xA0 SHL SUB DUP6 AND SWAP2 PUSH32 0x1F32C1B084E2DE0713B8FB16BD46BB9DF710A3DBEAE2F3CA93AF46E016DCC6B0 SWAP2 SWAP1 LOG3 POP POP JUMP JUMPDEST PUSH1 0x0 DUP3 DUP3 ADD DUP4 DUP2 LT ISZERO PUSH2 0x782 JUMPI PUSH2 0x782 PUSH2 0x4F7 PUSH1 0x0 DUP7 DUP7 PUSH2 0x1B4A JUMP JUMPDEST PUSH2 0x14D6 DUP3 PUSH2 0x1D6E JUMP JUMPDEST PUSH1 0x0 PUSH2 0x14E5 DUP4 DUP4 PUSH1 0x0 DUP1 PUSH2 0x176E JUMP JUMPDEST PUSH1 0x1 PUSH1 0x1 PUSH1 0xA0 SHL SUB DUP4 AND PUSH1 0x0 SWAP1 DUP2 MSTORE PUSH1 0x6 PUSH1 0x20 SWAP1 DUP2 MSTORE PUSH1 0x40 DUP1 DUP4 KECCAK256 DUP8 DUP5 MSTORE SWAP1 SWAP2 MSTORE SWAP1 KECCAK256 SWAP1 SWAP2 POP PUSH2 0x1514 SWAP1 PUSH2 0x114C JUMP JUMPDEST PUSH1 0x1 PUSH1 0x1 PUSH1 0xA0 SHL SUB DUP4 DUP2 AND PUSH1 0x0 SWAP1 DUP2 MSTORE PUSH1 0x6 PUSH1 0x20 SWAP1 DUP2 MSTORE PUSH1 0x40 DUP1 DUP4 KECCAK256 DUP9 DUP5 MSTORE DUP3 MSTORE SWAP2 DUP3 SWAP1 KECCAK256 DUP5 MLOAD DUP2 SLOAD SWAP3 DUP7 ADD MLOAD SWAP6 SWAP1 SWAP4 ADD MLOAD PUSH8 0xFFFFFFFFFFFFFFFF NOT SWAP1 SWAP3 AND PUSH8 0xFFFFFFFFFFFFFFFF SWAP1 SWAP4 AND SWAP3 SWAP1 SWAP3 OR PUSH20 0xFFFFFFFFFFFFFFFFFFFFFFFF0000000000000000 NOT AND PUSH1 0x1 PUSH1 0x40 SHL PUSH1 0x1 PUSH1 0x1 PUSH1 0x60 SHL SUB SWAP6 DUP7 AND MUL OR SWAP1 SWAP3 AND PUSH1 0x1 PUSH1 0xA0 SHL SWAP4 SWAP1 SWAP3 AND SWAP3 SWAP1 SWAP3 MUL OR SWAP1 SSTORE DUP1 ISZERO PUSH2 0x1638 JUMPI PUSH2 0x15AF DUP4 DUP3 PUSH2 0x1DE4 JUMP JUMPDEST PUSH2 0x15B7 PUSH2 0x6EE JUMP JUMPDEST PUSH1 0x1 PUSH1 0x1 PUSH1 0xA0 SHL SUB AND PUSH4 0xA9059CBB DUP4 DUP4 PUSH1 0x40 MLOAD DUP4 PUSH4 0xFFFFFFFF AND PUSH1 0xE0 SHL DUP2 MSTORE PUSH1 0x4 ADD PUSH2 0x15E4 SWAP3 SWAP2 SWAP1 PUSH2 0x3204 JUMP JUMPDEST PUSH1 0x20 PUSH1 0x40 MLOAD DUP1 DUP4 SUB DUP2 PUSH1 0x0 DUP8 DUP1 EXTCODESIZE ISZERO DUP1 ISZERO PUSH2 0x15FE JUMPI PUSH1 0x0 DUP1 REVERT JUMPDEST POP GAS CALL ISZERO DUP1 ISZERO PUSH2 0x1612 JUMPI RETURNDATASIZE PUSH1 0x0 DUP1 RETURNDATACOPY RETURNDATASIZE PUSH1 0x0 REVERT JUMPDEST POP POP POP POP PUSH1 0x40 MLOAD RETURNDATASIZE PUSH1 0x1F NOT PUSH1 0x1F DUP3 ADD AND DUP3 ADD DUP1 PUSH1 0x40 MSTORE POP DUP2 ADD SWAP1 PUSH2 0x1636 SWAP2 SWAP1 PUSH2 0x3136 JUMP JUMPDEST POP JUMPDEST PUSH2 0x1641 DUP4 PUSH2 0x1E20 JUMP JUMPDEST POP POP POP JUMP JUMPDEST PUSH1 0x0 DUP1 PUSH1 0x0 PUSH2 0x1661 PUSH1 0x1 PUSH1 0xC SLOAD PUSH2 0x1012 SWAP1 SWAP2 SWAP1 PUSH4 0xFFFFFFFF AND JUMP JUMPDEST SWAP1 POP PUSH2 0x166B PUSH2 0x303C JUMP JUMPDEST POP PUSH1 0x0 DUP5 DUP2 MSTORE PUSH1 0x15 PUSH1 0x20 SWAP1 DUP2 MSTORE PUSH1 0x40 DUP1 DUP4 KECCAK256 DUP5 DUP5 MSTORE DUP3 MSTORE DUP1 DUP4 KECCAK256 DUP2 MLOAD PUSH1 0x80 DUP1 DUP3 ADD DUP5 MSTORE DUP3 SLOAD DUP3 MSTORE PUSH1 0x1 DUP1 DUP5 ADD SLOAD DUP4 DUP8 ADD MSTORE PUSH1 0x2 DUP1 DUP6 ADD SLOAD DUP5 DUP8 ADD MSTORE PUSH1 0x3 SWAP5 DUP6 ADD SLOAD PUSH1 0x60 DUP1 DUP7 ADD SWAP2 SWAP1 SWAP2 MSTORE DUP10 DUP10 MSTORE PUSH1 0x16 DUP9 MSTORE SWAP8 DUP7 SWAP1 KECCAK256 DUP7 MLOAD PUSH1 0xA0 DUP2 ADD DUP9 MSTORE DUP2 SLOAD DUP2 MSTORE SWAP3 DUP2 ADD SLOAD SWAP8 DUP4 ADD SWAP8 SWAP1 SWAP8 MSTORE DUP7 ADD SLOAD SWAP5 DUP2 ADD SWAP5 SWAP1 SWAP5 MSTORE SWAP2 DUP5 ADD SLOAD SWAP5 DUP4 ADD SWAP5 SWAP1 SWAP5 MSTORE PUSH1 0x4 SWAP1 SWAP3 ADD SLOAD SWAP2 DUP2 ADD SWAP2 SWAP1 SWAP2 MSTORE PUSH2 0x1704 SWAP1 DUP3 SWAP1 PUSH2 0x18C4 JUMP JUMPDEST SWAP4 POP DUP1 PUSH1 0x40 ADD MLOAD SWAP3 POP POP POP SWAP2 POP SWAP2 JUMP JUMPDEST PUSH1 0x0 DUP1 DUP3 PUSH2 0x1724 JUMPI DUP4 SWAP2 POP PUSH2 0x1747 JUMP JUMPDEST PUSH2 0x1738 PUSH4 0xFFFFFFFF DUP7 AND PUSH3 0xF4240 DUP7 PUSH2 0x1E2D JUMP JUMPDEST SWAP2 POP PUSH2 0x1744 DUP5 DUP4 PUSH2 0x1012 JUMP JUMPDEST SWAP1 POP JUMPDEST SWAP4 POP SWAP4 SWAP2 POP POP JUMP JUMPDEST DUP1 PUSH1 0x1 PUSH1 0x1 PUSH1 0x60 SHL SUB DUP2 AND DUP2 EQ PUSH2 0x688 JUMPI PUSH2 0x688 PUSH2 0x4F7 PUSH1 0x2 DUP5 PUSH2 0x1E57 JUMP JUMPDEST PUSH1 0xC SLOAD PUSH1 0x0 SWAP1 PUSH2 0x177C PUSH2 0x301C JUMP JUMPDEST POP PUSH1 0x1 PUSH1 0x1 PUSH1 0xA0 SHL SUB DUP6 AND PUSH1 0x0 SWAP1 DUP2 MSTORE PUSH1 0x6 PUSH1 0x20 SWAP1 DUP2 MSTORE PUSH1 0x40 DUP1 DUP4 KECCAK256 DUP10 DUP5 MSTORE DUP3 MSTORE SWAP2 DUP3 SWAP1 KECCAK256 DUP3 MLOAD PUSH1 0x60 DUP2 ADD DUP5 MSTORE SWAP1 SLOAD PUSH8 0xFFFFFFFFFFFFFFFF DUP2 AND DUP1 DUP4 MSTORE PUSH1 0x1 PUSH1 0x1 PUSH1 0x60 SHL SUB PUSH1 0x1 PUSH1 0x40 SHL DUP4 DIV DUP2 AND SWAP5 DUP5 ADD SWAP5 SWAP1 SWAP5 MSTORE PUSH1 0x1 PUSH1 0xA0 SHL SWAP1 SWAP2 DIV SWAP1 SWAP3 AND SWAP3 DUP2 ADD SWAP3 SWAP1 SWAP3 MSTORE DUP3 EQ ISZERO PUSH2 0x17F5 JUMPI PUSH1 0x0 SWAP3 POP POP POP PUSH2 0x1875 JUMP JUMPDEST PUSH2 0x1801 DUP2 DUP4 DUP8 DUP8 PUSH2 0x1EBC JUMP JUMPDEST DUP2 MLOAD SWAP1 SWAP4 POP PUSH1 0x0 SWAP1 PUSH2 0x181E SWAP1 PUSH8 0xFFFFFFFFFFFFFFFF AND PUSH1 0x1 PUSH2 0x14B1 JUMP JUMPDEST SWAP1 POP PUSH2 0x1851 PUSH2 0x184A DUP10 DUP5 PUSH1 0x20 ADD MLOAD PUSH1 0x1 PUSH1 0x1 PUSH1 0x60 SHL SUB AND DUP6 PUSH1 0x0 ADD MLOAD PUSH8 0xFFFFFFFFFFFFFFFF AND DUP6 PUSH2 0x1F34 JUMP JUMPDEST DUP6 SWAP1 PUSH2 0x14B1 JUMP JUMPDEST SWAP4 POP PUSH2 0x186F PUSH2 0x184A DUP10 DUP5 PUSH1 0x40 ADD MLOAD PUSH1 0x1 PUSH1 0x1 PUSH1 0x60 SHL SUB AND DUP5 DUP8 PUSH2 0x1F34 JUMP JUMPDEST SWAP4 POP POP POP POP JUMPDEST SWAP5 SWAP4 POP POP POP POP JUMP JUMPDEST PUSH1 0x40 DUP1 MLOAD DUP1 DUP3 ADD SWAP1 SWAP2 MSTORE PUSH1 0x4 DUP2 MSTORE PUSH4 0x734F6E1F PUSH1 0xE1 SHL PUSH1 0x20 DUP3 ADD MSTORE SWAP1 JUMP JUMPDEST EXTCODESIZE ISZERO ISZERO SWAP1 JUMP JUMPDEST CALLER PUSH1 0x0 SWAP1 DUP2 MSTORE PUSH1 0x1 PUSH1 0x20 MSTORE PUSH1 0x40 SWAP1 KECCAK256 SLOAD PUSH1 0xFF AND PUSH2 0x11FF JUMPI PUSH2 0x11FF PUSH2 0x4F7 CALLER PUSH2 0x1FB3 JUMP JUMPDEST DUP2 MLOAD PUSH1 0x0 SWAP1 PUSH2 0x18D2 JUMPI PUSH2 0x785 JUMP JUMPDEST PUSH1 0x0 PUSH2 0x18DC PUSH2 0xC05 JUMP JUMPDEST PUSH1 0x1 PUSH1 0x1 PUSH1 0xA0 SHL SUB AND PUSH4 0x7546172 PUSH1 0x40 MLOAD DUP2 PUSH4 0xFFFFFFFF AND PUSH1 0xE0 SHL DUP2 MSTORE PUSH1 0x4 ADD PUSH1 0x20 PUSH1 0x40 MLOAD DUP1 DUP4 SUB DUP2 DUP7 DUP1 EXTCODESIZE ISZERO DUP1 ISZERO PUSH2 0x1914 JUMPI PUSH1 0x0 DUP1 REVERT JUMPDEST POP GAS STATICCALL ISZERO DUP1 ISZERO PUSH2 0x1928 JUMPI RETURNDATASIZE PUSH1 0x0 DUP1 RETURNDATACOPY RETURNDATASIZE PUSH1 0x0 REVERT JUMPDEST POP POP POP POP PUSH1 0x40 MLOAD RETURNDATASIZE PUSH1 0x1F NOT PUSH1 0x1F DUP3 ADD AND DUP3 ADD DUP1 PUSH1 0x40 MSTORE POP DUP2 ADD SWAP1 PUSH2 0x194C SWAP2 SWAP1 PUSH2 0x30A9 JUMP JUMPDEST PUSH1 0x1 PUSH1 0x1 PUSH1 0xA0 SHL SUB AND PUSH4 0x57A15C03 DUP6 PUSH1 0x20 ADD MLOAD PUSH1 0x40 MLOAD DUP3 PUSH4 0xFFFFFFFF AND PUSH1 0xE0 SHL DUP2 MSTORE PUSH1 0x4 ADD PUSH2 0x197B SWAP2 SWAP1 PUSH2 0x3275 JUMP JUMPDEST PUSH1 0x20 PUSH1 0x40 MLOAD DUP1 DUP4 SUB DUP2 DUP7 DUP1 EXTCODESIZE ISZERO DUP1 ISZERO PUSH2 0x1993 JUMPI PUSH1 0x0 DUP1 REVERT JUMPDEST POP GAS STATICCALL ISZERO DUP1 ISZERO PUSH2 0x19A7 JUMPI RETURNDATASIZE PUSH1 0x0 DUP1 RETURNDATACOPY RETURNDATASIZE PUSH1 0x0 REVERT JUMPDEST POP POP POP POP PUSH1 0x40 MLOAD RETURNDATASIZE PUSH1 0x1F NOT PUSH1 0x1F DUP3 ADD AND DUP3 ADD DUP1 PUSH1 0x40 MSTORE POP DUP2 ADD SWAP1 PUSH2 0x19CB SWAP2 SWAP1 PUSH2 0x31D8 JUMP JUMPDEST DUP5 MLOAD PUSH1 0x20 DUP7 ADD MLOAD PUSH1 0x60 DUP7 ADD MLOAD PUSH1 0x14 SLOAD SWAP4 SWAP5 POP PUSH2 0x19FF SWAP4 DUP6 SWAP4 SWAP3 DUP5 SWAP3 SWAP1 SWAP2 PUSH4 0xFFFFFFFF DUP1 DUP3 AND SWAP2 PUSH5 0x100000000 SWAP1 DIV AND PUSH2 0x1FFB JUMP JUMPDEST PUSH1 0x80 DUP5 ADD MLOAD DUP5 MLOAD SWAP2 SWAP4 POP PUSH1 0x0 SWAP2 PUSH2 0x1A15 SWAP2 PUSH2 0x1012 JUMP JUMPDEST SWAP1 POP DUP3 DUP2 LT ISZERO PUSH2 0x1A23 JUMPI DUP1 SWAP3 POP JUMPDEST POP POP SWAP3 SWAP2 POP POP JUMP JUMPDEST PUSH1 0x0 DUP1 PUSH2 0x1A36 PUSH2 0x301C JUMP JUMPDEST POP PUSH1 0x0 DUP6 DUP2 MSTORE PUSH1 0xA PUSH1 0x20 SWAP1 DUP2 MSTORE PUSH1 0x40 SWAP2 DUP3 SWAP1 KECCAK256 DUP3 MLOAD PUSH1 0x60 DUP2 ADD DUP5 MSTORE DUP2 SLOAD PUSH1 0x1 PUSH1 0x1 PUSH1 0xA0 SHL SUB DUP1 DUP3 AND DUP4 MSTORE PUSH1 0x1 PUSH1 0xA0 SHL SWAP1 SWAP2 DIV PUSH4 0xFFFFFFFF AND SWAP4 DUP3 ADD DUP5 SWAP1 MSTORE PUSH1 0x1 SWAP1 SWAP3 ADD SLOAD SWAP1 SWAP2 AND SWAP3 DUP2 ADD SWAP3 SWAP1 SWAP3 MSTORE PUSH2 0x1A8F SWAP1 DUP7 DUP7 PUSH2 0x1714 JUMP JUMPDEST SWAP1 SWAP4 POP SWAP2 POP DUP3 ISZERO PUSH2 0x1B26 JUMPI PUSH2 0x1AA2 PUSH2 0x6EE JUMP JUMPDEST DUP2 MLOAD PUSH1 0x40 MLOAD PUSH4 0xA9059CBB PUSH1 0xE0 SHL DUP2 MSTORE PUSH1 0x1 PUSH1 0x1 PUSH1 0xA0 SHL SUB SWAP3 SWAP1 SWAP3 AND SWAP2 PUSH4 0xA9059CBB SWAP2 PUSH2 0x1AD2 SWAP2 DUP8 SWAP1 PUSH1 0x4 ADD PUSH2 0x3204 JUMP JUMPDEST PUSH1 0x20 PUSH1 0x40 MLOAD DUP1 DUP4 SUB DUP2 PUSH1 0x0 DUP8 DUP1 EXTCODESIZE ISZERO DUP1 ISZERO PUSH2 0x1AEC JUMPI PUSH1 0x0 DUP1 REVERT JUMPDEST POP GAS CALL ISZERO DUP1 ISZERO PUSH2 0x1B00 JUMPI RETURNDATASIZE PUSH1 0x0 DUP1 RETURNDATACOPY RETURNDATASIZE PUSH1 0x0 REVERT JUMPDEST POP POP POP POP PUSH1 0x40 MLOAD RETURNDATASIZE PUSH1 0x1F NOT PUSH1 0x1F DUP3 ADD AND DUP3 ADD DUP1 PUSH1 0x40 MSTORE POP DUP2 ADD SWAP1 PUSH2 0x1B24 SWAP2 SWAP1 PUSH2 0x3136 JUMP JUMPDEST POP JUMPDEST DUP2 ISZERO PUSH2 0x1B41 JUMPI PUSH2 0x1B36 DUP7 DUP4 PUSH2 0x20BD JUMP JUMPDEST PUSH2 0x1B41 DUP7 DUP4 DUP7 PUSH2 0x20F2 JUMP JUMPDEST POP SWAP4 POP SWAP4 SWAP2 POP POP JUMP JUMPDEST PUSH1 0x60 PUSH4 0xE946C1BB PUSH1 0xE0 SHL DUP5 DUP5 DUP5 PUSH1 0x40 MLOAD PUSH1 0x24 ADD DUP1 DUP5 PUSH1 0x3 DUP2 GT ISZERO PUSH2 0x1B6A JUMPI INVALID JUMPDEST DUP2 MSTORE PUSH1 0x20 ADD DUP4 DUP2 MSTORE PUSH1 0x20 ADD DUP3 DUP2 MSTORE PUSH1 0x20 ADD SWAP4 POP POP POP POP PUSH1 0x40 MLOAD PUSH1 0x20 DUP2 DUP4 SUB SUB DUP2 MSTORE SWAP1 PUSH1 0x40 MSTORE SWAP1 PUSH1 0x1 PUSH1 0x1 PUSH1 0xE0 SHL SUB NOT AND PUSH1 0x20 DUP3 ADD DUP1 MLOAD PUSH1 0x1 PUSH1 0x1 PUSH1 0xE0 SHL SUB DUP4 DUP2 DUP4 AND OR DUP4 MSTORE POP POP POP POP SWAP1 POP SWAP4 SWAP3 POP POP POP JUMP JUMPDEST PUSH1 0x40 DUP1 MLOAD PUSH1 0x24 DUP2 ADD DUP5 SWAP1 MSTORE PUSH1 0x44 DUP1 DUP3 ADD DUP5 SWAP1 MSTORE DUP3 MLOAD DUP1 DUP4 SUB SWAP1 SWAP2 ADD DUP2 MSTORE PUSH1 0x64 SWAP1 SWAP2 ADD SWAP1 SWAP2 MSTORE PUSH1 0x20 DUP2 ADD DUP1 MLOAD PUSH1 0x1 PUSH1 0x1 PUSH1 0xE0 SHL SUB AND PUSH4 0xA6BCDE47 PUSH1 0xE0 SHL OR SWAP1 MSTORE SWAP3 SWAP2 POP POP JUMP JUMPDEST DUP1 PUSH8 0xFFFFFFFFFFFFFFFF DUP2 AND DUP2 EQ PUSH2 0x688 JUMPI PUSH2 0x688 PUSH2 0x4F7 PUSH1 0x1 DUP5 PUSH2 0x1E57 JUMP JUMPDEST PUSH1 0x40 DUP1 MLOAD PUSH1 0x1 PUSH1 0x1 PUSH1 0xA0 SHL SUB DUP1 DUP6 AND PUSH1 0x24 DUP4 ADD MSTORE DUP4 AND PUSH1 0x44 DUP1 DUP4 ADD SWAP2 SWAP1 SWAP2 MSTORE DUP3 MLOAD DUP1 DUP4 SUB SWAP1 SWAP2 ADD DUP2 MSTORE PUSH1 0x64 SWAP1 SWAP2 ADD SWAP1 SWAP2 MSTORE PUSH1 0x20 DUP2 ADD DUP1 MLOAD PUSH1 0x1 PUSH1 0x1 PUSH1 0xE0 SHL SUB AND PUSH4 0x1DE45AD1 PUSH1 0xE0 SHL OR SWAP1 MSTORE SWAP3 SWAP2 POP POP JUMP JUMPDEST PUSH1 0x40 DUP1 MLOAD DUP1 DUP3 ADD SWAP1 SWAP2 MSTORE PUSH1 0x4 DUP2 MSTORE PUSH4 0x15D953F9 PUSH1 0xE2 SHL PUSH1 0x20 DUP3 ADD MSTORE SWAP1 JUMP JUMPDEST PUSH1 0x40 DUP1 MLOAD PUSH1 0x1 PUSH1 0x1 PUSH1 0xA0 SHL SUB DUP4 AND PUSH1 0x24 DUP1 DUP4 ADD SWAP2 SWAP1 SWAP2 MSTORE DUP3 MLOAD DUP1 DUP4 SUB SWAP1 SWAP2 ADD DUP2 MSTORE PUSH1 0x44 SWAP1 SWAP2 ADD SWAP1 SWAP2 MSTORE PUSH1 0x20 DUP2 ADD DUP1 MLOAD PUSH1 0x1 PUSH1 0x1 PUSH1 0xE0 SHL SUB AND PUSH4 0x6F0B78D PUSH1 0xE5 SHL OR SWAP1 MSTORE SWAP2 SWAP1 POP JUMP JUMPDEST PUSH1 0x40 DUP1 MLOAD PUSH1 0x24 DUP2 ADD DUP5 SWAP1 MSTORE PUSH1 0x44 DUP1 DUP3 ADD DUP5 SWAP1 MSTORE DUP3 MLOAD DUP1 DUP4 SUB SWAP1 SWAP2 ADD DUP2 MSTORE PUSH1 0x64 SWAP1 SWAP2 ADD SWAP1 SWAP2 MSTORE PUSH1 0x20 DUP2 ADD DUP1 MLOAD PUSH1 0x1 PUSH1 0x1 PUSH1 0xE0 SHL SUB AND PUSH4 0xE9F83771 PUSH1 0xE0 SHL OR SWAP1 MSTORE SWAP3 SWAP2 POP POP JUMP JUMPDEST PUSH1 0x40 DUP1 MLOAD PUSH1 0x1 PUSH1 0x1 PUSH1 0xA0 SHL SUB DUP1 DUP6 AND PUSH1 0x24 DUP4 ADD MSTORE DUP4 AND PUSH1 0x44 DUP1 DUP4 ADD SWAP2 SWAP1 SWAP2 MSTORE DUP3 MLOAD DUP1 DUP4 SUB SWAP1 SWAP2 ADD DUP2 MSTORE PUSH1 0x64 SWAP1 SWAP2 ADD SWAP1 SWAP2 MSTORE PUSH1 0x20 DUP2 ADD DUP1 MLOAD PUSH1 0x1 PUSH1 0x1 PUSH1 0xE0 SHL SUB AND PUSH4 0x140A84DB PUSH1 0xE0 SHL OR SWAP1 MSTORE SWAP3 SWAP2 POP POP JUMP JUMPDEST PUSH1 0xC SLOAD PUSH1 0x0 SWAP1 PUSH2 0x1D7F SWAP1 PUSH1 0x1 PUSH2 0x1012 JUMP JUMPDEST SWAP1 POP PUSH2 0x1D89 PUSH2 0x303C JUMP JUMPDEST POP PUSH1 0x0 DUP3 DUP2 MSTORE PUSH1 0x15 PUSH1 0x20 SWAP1 DUP2 MSTORE PUSH1 0x40 DUP1 DUP4 KECCAK256 DUP5 DUP5 MSTORE DUP3 MSTORE SWAP2 DUP3 SWAP1 KECCAK256 DUP3 MLOAD PUSH1 0x80 DUP2 ADD DUP5 MSTORE DUP2 SLOAD DUP1 DUP3 MSTORE PUSH1 0x1 DUP4 ADD SLOAD SWAP4 DUP3 ADD SWAP4 SWAP1 SWAP4 MSTORE PUSH1 0x2 DUP3 ADD SLOAD SWAP4 DUP2 ADD SWAP4 SWAP1 SWAP4 MSTORE PUSH1 0x3 ADD SLOAD PUSH1 0x60 DUP4 ADD MSTORE ISZERO PUSH2 0x1641 JUMPI PUSH2 0x1641 PUSH2 0x4F7 DUP5 DUP5 PUSH2 0x21DB JUMP JUMPDEST PUSH1 0x0 DUP3 DUP2 MSTORE PUSH1 0xB PUSH1 0x20 MSTORE PUSH1 0x40 SWAP1 KECCAK256 SLOAD PUSH2 0x1DFD SWAP1 DUP3 PUSH2 0x1012 JUMP JUMPDEST PUSH1 0x0 DUP4 DUP2 MSTORE PUSH1 0xB PUSH1 0x20 MSTORE PUSH1 0x40 SWAP1 KECCAK256 SSTORE PUSH1 0x17 SLOAD PUSH2 0x1E19 SWAP1 DUP3 PUSH2 0x1012 JUMP JUMPDEST PUSH1 0x17 SSTORE POP POP JUMP JUMPDEST PUSH2 0x736 DUP2 PUSH1 0x0 PUSH1 0x1 PUSH2 0x20F2 JUMP JUMPDEST PUSH1 0x0 PUSH2 0x1875 DUP4 PUSH2 0x1E51 PUSH2 0x1E41 DUP3 PUSH1 0x1 PUSH2 0x1012 JUMP JUMPDEST PUSH2 0x1E4B DUP9 DUP8 PUSH2 0x2220 JUMP JUMPDEST SWAP1 PUSH2 0x14B1 JUMP JUMPDEST SWAP1 PUSH2 0x2251 JUMP JUMPDEST PUSH1 0x60 PUSH4 0xC996AF7B PUSH1 0xE0 SHL DUP4 DUP4 PUSH1 0x40 MLOAD PUSH1 0x24 ADD DUP1 DUP4 PUSH1 0x2 DUP2 GT ISZERO PUSH2 0x1E76 JUMPI INVALID JUMPDEST DUP2 MSTORE PUSH1 0x20 DUP1 DUP3 ADD SWAP4 SWAP1 SWAP4 MSTORE PUSH1 0x40 DUP1 MLOAD DUP1 DUP4 SUB DUP6 ADD DUP2 MSTORE SWAP2 DUP2 ADD SWAP1 MSTORE SWAP2 DUP3 ADD DUP1 MLOAD PUSH1 0x1 PUSH1 0x1 PUSH1 0xE0 SHL SUB AND PUSH1 0x1 PUSH1 0x1 PUSH1 0xE0 SHL SUB NOT SWAP1 SWAP6 AND SWAP5 SWAP1 SWAP5 OR SWAP1 SWAP4 MSTORE SWAP3 POP POP POP SWAP3 SWAP2 POP POP JUMP JUMPDEST PUSH1 0x0 DUP3 ISZERO DUP1 PUSH2 0x1EC9 JUMPI POP DUP2 ISZERO JUMPDEST ISZERO PUSH2 0x1ED6 JUMPI POP PUSH1 0x0 PUSH2 0x1875 JUMP JUMPDEST PUSH1 0x0 PUSH2 0x1EE3 DUP6 PUSH1 0x1 PUSH2 0x1012 JUMP JUMPDEST DUP7 MLOAD PUSH8 0xFFFFFFFFFFFFFFFF AND LT ISZERO PUSH2 0x1EFF JUMPI DUP6 PUSH1 0x40 ADD MLOAD PUSH2 0x1F05 JUMP JUMPDEST DUP6 PUSH1 0x20 ADD MLOAD JUMPDEST PUSH1 0x1 PUSH1 0x1 PUSH1 0x60 SHL SUB AND SWAP1 POP DUP1 PUSH2 0x1F1F JUMPI PUSH1 0x0 SWAP2 POP POP PUSH2 0x1875 JUMP JUMPDEST PUSH2 0x1F2A DUP5 DUP5 DUP4 PUSH2 0x227B JUMP JUMPDEST SWAP7 SWAP6 POP POP POP POP POP POP JUMP JUMPDEST PUSH1 0x0 DUP4 ISZERO DUP1 PUSH2 0x1F42 JUMPI POP DUP2 DUP4 EQ JUMPDEST ISZERO PUSH2 0x1F4F JUMPI POP PUSH1 0x0 PUSH2 0x1875 JUMP JUMPDEST DUP2 DUP4 LT PUSH2 0x1F6E JUMPI PUSH1 0x40 MLOAD PUSH3 0x461BCD PUSH1 0xE5 SHL DUP2 MSTORE PUSH1 0x4 ADD PUSH2 0xF53 SWAP1 PUSH2 0x32C3 JUMP JUMPDEST PUSH2 0x1F76 PUSH2 0x3064 JUMP JUMPDEST PUSH2 0x1F80 DUP7 DUP6 PUSH2 0x228B JUMP JUMPDEST SWAP1 POP PUSH2 0x1F8A PUSH2 0x3064 JUMP JUMPDEST PUSH2 0x1F94 DUP8 DUP6 PUSH2 0x228B JUMP JUMPDEST SWAP1 POP PUSH2 0xBEB DUP2 PUSH1 0x0 ADD MLOAD DUP3 PUSH1 0x20 ADD MLOAD DUP5 PUSH1 0x0 ADD MLOAD DUP6 PUSH1 0x20 ADD MLOAD DUP11 PUSH2 0x23A2 JUMP JUMPDEST PUSH1 0x40 DUP1 MLOAD PUSH1 0x1 PUSH1 0x1 PUSH1 0xA0 SHL SUB DUP4 AND PUSH1 0x24 DUP1 DUP4 ADD SWAP2 SWAP1 SWAP2 MSTORE DUP3 MLOAD DUP1 DUP4 SUB SWAP1 SWAP2 ADD DUP2 MSTORE PUSH1 0x44 SWAP1 SWAP2 ADD SWAP1 SWAP2 MSTORE PUSH1 0x20 DUP2 ADD DUP1 MLOAD PUSH1 0x1 PUSH1 0x1 PUSH1 0xE0 SHL SUB AND PUSH4 0xB65A25B9 PUSH1 0xE0 SHL OR SWAP1 MSTORE SWAP2 SWAP1 POP JUMP JUMPDEST PUSH1 0x0 DUP1 PUSH2 0x2008 DUP9 DUP9 PUSH2 0x2410 JUMP JUMPDEST SWAP1 POP PUSH1 0x0 PUSH2 0x2016 DUP8 DUP8 PUSH2 0x2410 JUMP JUMPDEST SWAP1 POP DUP2 ISZERO DUP1 PUSH2 0x2023 JUMPI POP DUP1 ISZERO JUMPDEST ISZERO PUSH2 0x2033 JUMPI PUSH1 0x0 SWAP3 POP POP POP PUSH2 0xBEB JUMP JUMPDEST PUSH1 0x0 DUP2 DUP4 SGT ISZERO PUSH2 0x204C JUMPI PUSH2 0x2047 DUP3 DUP5 PUSH2 0x2456 JUMP JUMPDEST PUSH2 0x2056 JUMP JUMPDEST PUSH2 0x2056 DUP4 DUP4 PUSH2 0x2456 JUMP JUMPDEST SWAP1 POP PUSH2 0x207F PUSH2 0x207A PUSH2 0x2067 DUP4 PUSH2 0x2469 JUMP JUMPDEST DUP9 PUSH4 0xFFFFFFFF AND DUP9 PUSH4 0xFFFFFFFF AND PUSH2 0x28BE JUMP JUMPDEST PUSH2 0x28CD JUMP JUMPDEST SWAP1 POP DUP2 DUP4 SGT ISZERO PUSH2 0x2098 JUMPI PUSH2 0x2093 DUP3 DUP3 PUSH2 0x2456 JUMP JUMPDEST PUSH2 0x20A2 JUMP JUMPDEST PUSH2 0x20A2 DUP3 DUP3 PUSH2 0x2D33 JUMP JUMPDEST SWAP1 POP PUSH2 0x20AE DUP2 DUP13 PUSH2 0x2D53 JUMP JUMPDEST SWAP12 SWAP11 POP POP POP POP POP POP POP POP POP POP POP JUMP JUMPDEST PUSH1 0x0 DUP3 DUP2 MSTORE PUSH1 0xB PUSH1 0x20 MSTORE PUSH1 0x40 SWAP1 KECCAK256 SLOAD PUSH2 0x20D6 SWAP1 DUP3 PUSH2 0x14B1 JUMP JUMPDEST PUSH1 0x0 DUP4 DUP2 MSTORE PUSH1 0xB PUSH1 0x20 MSTORE PUSH1 0x40 SWAP1 KECCAK256 SSTORE PUSH1 0x17 SLOAD PUSH2 0x1E19 SWAP1 DUP3 PUSH2 0x14B1 JUMP JUMPDEST PUSH1 0x0 DUP4 DUP2 MSTORE PUSH1 0xF PUSH1 0x20 MSTORE PUSH1 0x40 SWAP1 KECCAK256 SLOAD PUSH1 0xC SLOAD DUP1 DUP3 EQ ISZERO PUSH2 0x2113 JUMPI POP POP PUSH2 0x1641 JUMP JUMPDEST PUSH2 0x211B PUSH2 0x3064 JUMP JUMPDEST POP PUSH1 0x0 DUP6 DUP2 MSTORE PUSH1 0xE PUSH1 0x20 SWAP1 DUP2 MSTORE PUSH1 0x40 DUP1 DUP4 KECCAK256 DUP6 DUP5 MSTORE DUP3 MSTORE SWAP2 DUP3 SWAP1 KECCAK256 DUP3 MLOAD DUP1 DUP5 ADD SWAP1 SWAP4 MSTORE DUP1 SLOAD DUP4 MSTORE PUSH1 0x1 ADD SLOAD SWAP1 DUP3 ADD MSTORE PUSH2 0x2152 PUSH2 0x3064 JUMP JUMPDEST PUSH2 0x215B DUP3 PUSH2 0x2D95 JUMP JUMPDEST ISZERO PUSH2 0x2194 JUMPI PUSH2 0x2174 DUP3 PUSH1 0x0 ADD MLOAD DUP4 PUSH1 0x20 ADD MLOAD DUP9 DUP9 PUSH2 0x2D9E JUMP JUMPDEST PUSH1 0x20 DUP4 ADD DUP2 SWAP1 MSTORE DUP2 DUP4 MSTORE PUSH2 0x2188 SWAP2 SWAP1 PUSH2 0x2DEE JUMP JUMPDEST PUSH1 0x20 DUP4 ADD MSTORE DUP2 MSTORE PUSH2 0x219F JUMP JUMPDEST PUSH1 0x20 DUP2 ADD DUP6 SWAP1 MSTORE DUP6 DUP2 MSTORE JUMPDEST PUSH1 0x0 DUP8 DUP2 MSTORE PUSH1 0xE PUSH1 0x20 SWAP1 DUP2 MSTORE PUSH1 0x40 DUP1 DUP4 KECCAK256 DUP7 DUP5 MSTORE DUP3 MSTORE DUP1 DUP4 KECCAK256 DUP5 MLOAD DUP2 SSTORE SWAP4 DUP3 ADD MLOAD PUSH1 0x1 SWAP1 SWAP5 ADD SWAP4 SWAP1 SWAP4 SSTORE SWAP8 DUP2 MSTORE PUSH1 0xF SWAP1 SWAP8 MSTORE SWAP1 SWAP6 KECCAK256 SSTORE POP POP POP POP JUMP JUMPDEST PUSH1 0x40 DUP1 MLOAD PUSH1 0x24 DUP2 ADD DUP5 SWAP1 MSTORE PUSH1 0x44 DUP1 DUP3 ADD DUP5 SWAP1 MSTORE DUP3 MLOAD DUP1 DUP4 SUB SWAP1 SWAP2 ADD DUP2 MSTORE PUSH1 0x64 SWAP1 SWAP2 ADD SWAP1 SWAP2 MSTORE PUSH1 0x20 DUP2 ADD DUP1 MLOAD PUSH1 0x1 PUSH1 0x1 PUSH1 0xE0 SHL SUB AND PUSH4 0x5CAA0B05 PUSH1 0xE0 SHL OR SWAP1 MSTORE SWAP3 SWAP2 POP POP JUMP JUMPDEST PUSH1 0x0 DUP3 PUSH2 0x222F JUMPI POP PUSH1 0x0 PUSH2 0x785 JUMP JUMPDEST DUP3 DUP3 MUL DUP3 DUP5 DUP3 DUP2 PUSH2 0x223C JUMPI INVALID JUMPDEST DIV EQ PUSH2 0x782 JUMPI PUSH2 0x782 PUSH2 0x4F7 PUSH1 0x1 DUP7 DUP7 PUSH2 0x1B4A JUMP JUMPDEST PUSH1 0x0 DUP2 PUSH2 0x2267 JUMPI PUSH2 0x2267 PUSH2 0x4F7 PUSH1 0x3 DUP6 DUP6 PUSH2 0x1B4A JUMP JUMPDEST PUSH1 0x0 DUP3 DUP5 DUP2 PUSH2 0x2272 JUMPI INVALID JUMPDEST DIV SWAP5 SWAP4 POP POP POP POP JUMP JUMPDEST PUSH1 0x0 PUSH2 0x1875 DUP4 PUSH2 0x1E51 DUP7 DUP6 PUSH2 0x2220 JUMP JUMPDEST PUSH2 0x2293 PUSH2 0x3064 JUMP JUMPDEST POP PUSH1 0x0 DUP3 DUP2 MSTORE PUSH1 0xE PUSH1 0x20 SWAP1 DUP2 MSTORE PUSH1 0x40 DUP1 DUP4 KECCAK256 DUP5 DUP5 MSTORE DUP3 MSTORE SWAP2 DUP3 SWAP1 KECCAK256 DUP3 MLOAD DUP1 DUP5 ADD SWAP1 SWAP4 MSTORE DUP1 SLOAD DUP4 MSTORE PUSH1 0x1 ADD SLOAD SWAP1 DUP3 ADD MSTORE PUSH2 0x22CB DUP2 PUSH2 0x2D95 JUMP JUMPDEST ISZERO PUSH2 0x22D5 JUMPI PUSH2 0x785 JUMP JUMPDEST PUSH1 0x0 PUSH2 0x22E2 DUP4 PUSH1 0x1 PUSH2 0x1012 JUMP JUMPDEST PUSH1 0x0 DUP6 DUP2 MSTORE PUSH1 0xE PUSH1 0x20 SWAP1 DUP2 MSTORE PUSH1 0x40 DUP1 DUP4 KECCAK256 DUP5 DUP5 MSTORE DUP3 MSTORE SWAP2 DUP3 SWAP1 KECCAK256 DUP3 MLOAD DUP1 DUP5 ADD SWAP1 SWAP4 MSTORE DUP1 SLOAD DUP4 MSTORE PUSH1 0x1 ADD SLOAD SWAP1 DUP3 ADD MSTORE SWAP3 POP SWAP1 POP PUSH2 0x231D DUP3 PUSH2 0x2D95 JUMP JUMPDEST ISZERO PUSH2 0x2328 JUMPI POP PUSH2 0x785 JUMP JUMPDEST PUSH1 0x0 DUP5 DUP2 MSTORE PUSH1 0xF PUSH1 0x20 MSTORE PUSH1 0x40 SWAP1 KECCAK256 SLOAD DUP4 DUP2 LT ISZERO PUSH2 0x2384 JUMPI PUSH1 0x0 DUP6 DUP2 MSTORE PUSH1 0xE PUSH1 0x20 SWAP1 DUP2 MSTORE PUSH1 0x40 DUP1 DUP4 KECCAK256 DUP5 DUP5 MSTORE DUP3 MSTORE SWAP2 DUP3 SWAP1 KECCAK256 DUP3 MLOAD DUP1 DUP5 ADD SWAP1 SWAP4 MSTORE DUP1 SLOAD DUP4 MSTORE PUSH1 0x1 ADD SLOAD SWAP1 DUP3 ADD MSTORE SWAP3 POP PUSH2 0x2378 DUP4 PUSH2 0x2D95 JUMP JUMPDEST ISZERO PUSH2 0x2384 JUMPI POP POP PUSH2 0x785 JUMP JUMPDEST POP POP PUSH1 0x40 DUP1 MLOAD DUP1 DUP3 ADD SWAP1 SWAP2 MSTORE PUSH1 0x0 DUP2 MSTORE PUSH1 0x1 PUSH1 0x20 DUP3 ADD MSTORE SWAP4 SWAP3 POP POP POP JUMP JUMPDEST PUSH1 0x0 DUP2 PUSH2 0x23B1 JUMPI POP PUSH1 0x0 PUSH2 0x2407 JUMP JUMPDEST DUP4 PUSH2 0x23CB JUMPI PUSH2 0x23C4 DUP6 PUSH2 0x1E51 DUP5 DUP10 PUSH2 0x2220 JUMP JUMPDEST SWAP1 POP PUSH2 0x2407 JUMP JUMPDEST PUSH1 0x0 PUSH2 0x23E4 PUSH2 0x23DA DUP7 DUP9 PUSH2 0x2220 JUMP JUMPDEST PUSH2 0x1109 DUP10 DUP8 PUSH2 0x2220 JUMP JUMPDEST SWAP1 POP PUSH1 0x0 PUSH2 0x23F2 DUP3 DUP7 PUSH2 0x2251 JUMP JUMPDEST SWAP1 POP PUSH2 0x2402 DUP8 PUSH2 0x1E51 DUP7 DUP5 PUSH2 0x2220 JUMP JUMPDEST SWAP3 POP POP POP JUMPDEST SWAP6 SWAP5 POP POP POP POP POP JUMP JUMPDEST PUSH1 0x0 DUP1 DUP4 SLT ISZERO PUSH2 0x2428 JUMPI PUSH2 0x2428 PUSH2 0x4F7 PUSH1 0x1 DUP6 PUSH2 0x2E0B JUMP JUMPDEST PUSH1 0x0 DUP3 SLT ISZERO PUSH2 0x243F JUMPI PUSH2 0x243F PUSH2 0x4F7 PUSH1 0x1 DUP5 PUSH2 0x2E0B JUMP JUMPDEST PUSH2 0x782 PUSH2 0x2450 DUP5 PUSH1 0x1 PUSH1 0x7F SHL PUSH2 0x2E72 JUMP JUMPDEST DUP4 PUSH2 0x2EC5 JUMP JUMPDEST PUSH1 0x0 PUSH2 0x782 PUSH2 0x2450 DUP5 PUSH1 0x1 PUSH1 0x7F SHL PUSH2 0x2E72 JUMP JUMPDEST PUSH1 0x0 PUSH1 0x1 PUSH1 0x7F SHL DUP3 SGT ISZERO PUSH2 0x2485 JUMPI PUSH2 0x2485 PUSH2 0x4F7 PUSH1 0x1 DUP5 PUSH2 0x2F0C JUMP JUMPDEST PUSH1 0x0 DUP3 SGT PUSH2 0x249B JUMPI PUSH2 0x249B PUSH2 0x4F7 PUSH1 0x0 DUP5 PUSH2 0x2F0C JUMP JUMPDEST PUSH1 0x1 PUSH1 0x7F SHL DUP3 EQ ISZERO PUSH2 0x24AF JUMPI POP PUSH1 0x0 PUSH2 0x688 JUMP JUMPDEST PUSH5 0x733048C5A DUP3 SGT PUSH2 0x24CB JUMPI POP PUSH1 0x1 PUSH2 0x1FF PUSH1 0x7C SHL SUB NOT PUSH2 0x688 JUMP JUMPDEST PUSH1 0x0 DUP1 PUSH1 0x0 PUSH11 0x1C8464F76164760000000 DUP6 SGT PUSH2 0x2510 JUMPI PUSH17 0xFFFFFFFFFFFFFFFFFFFFFFFFFFFFFFFFF NOT SWAP1 SWAP4 ADD SWAP3 PUSH11 0x1C8464F76164760000000 PUSH1 0x1 PUSH1 0x7F SHL DUP7 MUL SDIV SWAP5 POP JUMPDEST PUSH13 0xF1AADDD7742E90000000000000 DUP6 SGT PUSH2 0x2554 JUMPI PUSH17 0x7FFFFFFFFFFFFFFFFFFFFFFFFFFFFFFFF NOT SWAP1 SWAP4 ADD SWAP3 PUSH13 0xF1AADDD7742E90000000000000 PUSH1 0x1 PUSH1 0x7F SHL DUP7 MUL SDIV SWAP5 POP JUMPDEST PUSH7 0x15FC21041027AF PUSH1 0x3F SHL DUP6 SGT PUSH2 0x2592 JUMPI PUSH17 0x3FFFFFFFFFFFFFFFFFFFFFFFFFFFFFFFF NOT SWAP1 SWAP4 ADD SWAP3 PUSH7 0x15FC21041027AF PUSH1 0x3F SHL PUSH1 0x1 PUSH1 0x7F SHL DUP7 MUL SDIV SWAP5 POP JUMPDEST PUSH7 0x960AADC109E7B PUSH1 0x46 SHL DUP6 SGT PUSH2 0x25D0 JUMPI PUSH17 0x1FFFFFFFFFFFFFFFFFFFFFFFFFFFFFFFF NOT SWAP1 SWAP4 ADD SWAP3 PUSH7 0x960AADC109E7B PUSH1 0x46 SHL PUSH1 0x1 PUSH1 0x7F SHL DUP7 MUL SDIV SWAP5 POP JUMPDEST PUSH7 0x454AAA8EFE073 PUSH1 0x4A SHL DUP6 SGT PUSH2 0x260D JUMPI PUSH16 0xFFFFFFFFFFFFFFFFFFFFFFFFFFFFFFFF NOT SWAP1 SWAP4 ADD SWAP3 PUSH7 0x454AAA8EFE073 PUSH1 0x4A SHL PUSH1 0x1 PUSH1 0x7F SHL DUP7 MUL SDIV SWAP5 POP JUMPDEST PUSH7 0x2F16AC6C59DE7 PUSH1 0x4C SHL DUP6 SGT PUSH2 0x2641 JUMPI PUSH1 0x1 PUSH1 0x1 PUSH1 0x7F SHL SUB NOT SWAP1 SWAP4 ADD SWAP3 PUSH7 0x2F16AC6C59DE7 PUSH1 0x4C SHL PUSH1 0x1 PUSH1 0x7F SHL DUP7 MUL SDIV SWAP5 POP JUMPDEST PUSH7 0x9B4597E37CB05 PUSH1 0x4B SHL DUP6 SGT PUSH2 0x267E JUMPI PUSH16 0x3FFFFFFFFFFFFFFFFFFFFFFFFFFFFFFF NOT SWAP1 SWAP4 ADD SWAP3 PUSH7 0x9B4597E37CB05 PUSH1 0x4B SHL PUSH1 0x1 PUSH1 0x7F SHL DUP7 MUL SDIV SWAP5 POP JUMPDEST PUSH7 0x18EBEF9EAC820B PUSH1 0x4A SHL DUP6 SGT PUSH2 0x26BB JUMPI PUSH16 0x1FFFFFFFFFFFFFFFFFFFFFFFFFFFFFFF NOT SWAP1 SWAP4 ADD SWAP3 PUSH7 0x18EBEF9EAC820B PUSH1 0x4A SHL PUSH1 0x1 PUSH1 0x7F SHL DUP7 MUL SDIV SWAP5 POP JUMPDEST PUSH16 0x70F5A893B608861E1F58934F97AEA57D DUP6 SGT PUSH2 0x2704 JUMPI PUSH16 0xFFFFFFFFFFFFFFFFFFFFFFFFFFFFFFF NOT SWAP1 SWAP4 ADD SWAP3 PUSH16 0x70F5A893B608861E1F58934F97AEA57D PUSH1 0x1 PUSH1 0x7F SHL DUP7 MUL SDIV SWAP5 POP JUMPDEST PUSH1 0x1 PUSH1 0x1 PUSH1 0x7F SHL SUB NOT DUP6 ADD SWAP3 POP DUP3 SWAP2 POP PUSH1 0x1 PUSH1 0x7F SHL DUP3 DUP1 MUL SDIV SWAP1 POP PUSH1 0x1 PUSH1 0x80 SHL DUP4 DUP2 SUB DUP4 MUL SDIV DUP5 ADD SWAP4 POP PUSH1 0x1 PUSH1 0x7F SHL DUP2 DUP4 MUL DUP2 PUSH2 0x273D JUMPI INVALID JUMPDEST SDIV SWAP2 POP PUSH1 0x1 PUSH1 0x81 SHL DUP4 PUSH16 0xAAAAAAAAAAAAAAAAAAAAAAAAAAAAAAAA SUB DUP4 MUL DUP2 PUSH2 0x2761 JUMPI INVALID JUMPDEST SDIV DUP5 ADD SWAP4 POP PUSH1 0x1 PUSH1 0x7F SHL DUP2 DUP4 MUL DUP2 PUSH2 0x2775 JUMPI INVALID JUMPDEST SDIV SWAP2 POP PUSH1 0x3 PUSH1 0x80 SHL DUP4 PUSH16 0x99999999999999999999999999999999 SUB DUP4 MUL DUP2 PUSH2 0x2799 JUMPI INVALID JUMPDEST SDIV DUP5 ADD SWAP4 POP PUSH1 0x1 PUSH1 0x7F SHL DUP2 DUP4 MUL DUP2 PUSH2 0x27AD JUMPI INVALID JUMPDEST SDIV SWAP2 POP PUSH1 0x1 PUSH1 0x82 SHL DUP4 PUSH16 0x92492492492492492492492492492492 SUB DUP4 MUL DUP2 PUSH2 0x27D1 JUMPI INVALID JUMPDEST SDIV DUP5 ADD SWAP4 POP PUSH1 0x1 PUSH1 0x7F SHL DUP2 DUP4 MUL DUP2 PUSH2 0x27E5 JUMPI INVALID JUMPDEST SDIV SWAP2 POP PUSH1 0x5 PUSH1 0x80 SHL DUP4 PUSH16 0x8E38E38E38E38E38E38E38E38E38E38E SUB DUP4 MUL DUP2 PUSH2 0x2809 JUMPI INVALID JUMPDEST SDIV DUP5 ADD SWAP4 POP PUSH1 0x1 PUSH1 0x7F SHL DUP2 DUP4 MUL DUP2 PUSH2 0x281D JUMPI INVALID JUMPDEST SDIV SWAP2 POP PUSH1 0x3 PUSH1 0x81 SHL DUP4 PUSH16 0x8BA2E8BA2E8BA2E8BA2E8BA2E8BA2E8B SUB DUP4 MUL DUP2 PUSH2 0x2841 JUMPI INVALID JUMPDEST SDIV DUP5 ADD SWAP4 POP PUSH1 0x1 PUSH1 0x7F SHL DUP2 DUP4 MUL DUP2 PUSH2 0x2855 JUMPI INVALID JUMPDEST SDIV SWAP2 POP PUSH1 0x7 PUSH1 0x80 SHL DUP4 PUSH16 0x89D89D89D89D89D89D89D89D89D89D89 SUB DUP4 MUL DUP2 PUSH2 0x2879 JUMPI INVALID JUMPDEST SDIV DUP5 ADD SWAP4 POP PUSH1 0x1 PUSH1 0x7F SHL DUP2 DUP4 MUL DUP2 PUSH2 0x288D JUMPI INVALID JUMPDEST SDIV SWAP2 POP PUSH1 0x1 PUSH1 0x83 SHL DUP4 PUSH16 0x88888888888888888888888888888888 SUB DUP4 MUL DUP2 PUSH2 0x28B1 JUMPI INVALID JUMPDEST SDIV DUP5 ADD SWAP4 POP POP POP POP SWAP2 SWAP1 POP JUMP JUMPDEST PUSH1 0x0 PUSH2 0x1875 PUSH2 0x2450 DUP6 DUP6 PUSH2 0x2E72 JUMP JUMPDEST PUSH1 0x0 PUSH1 0x1 PUSH2 0x1FF PUSH1 0x7C SHL SUB NOT DUP3 SLT ISZERO PUSH2 0x28E8 JUMPI POP PUSH1 0x0 PUSH2 0x688 JUMP JUMPDEST DUP2 PUSH2 0x28F8 JUMPI POP PUSH1 0x1 PUSH1 0x7F SHL PUSH2 0x688 JUMP JUMPDEST PUSH1 0x0 DUP3 SGT ISZERO PUSH2 0x290F JUMPI PUSH2 0x290F PUSH2 0x4F7 PUSH1 0x1 DUP5 PUSH2 0x2F0C JUMP JUMPDEST PUSH1 0x1 PUSH1 0x7F SHL PUSH1 0x1 PUSH1 0x7C SHL DUP4 SMOD DUP1 DUP1 MUL DUP3 SWAP1 SDIV PUSH8 0x10E1B3BE415A0000 DUP2 MUL SWAP4 SWAP1 SWAP4 ADD SWAP3 SWAP1 SWAP2 DUP2 DUP4 MUL SDIV SWAP1 POP DUP1 PUSH8 0x5A0913F6B1E0000 MUL DUP4 ADD SWAP3 POP PUSH1 0x1 PUSH1 0x7F SHL DUP3 DUP3 MUL DUP2 PUSH2 0x2957 JUMPI INVALID JUMPDEST SDIV SWAP1 POP DUP1 PUSH8 0x168244FDAC78000 MUL DUP4 ADD SWAP3 POP PUSH1 0x1 PUSH1 0x7F SHL DUP3 DUP3 MUL DUP2 PUSH2 0x2978 JUMPI INVALID JUMPDEST SDIV SWAP1 POP DUP1 PUSH7 0x4807432BC18000 MUL DUP4 ADD SWAP3 POP PUSH1 0x1 PUSH1 0x7F SHL DUP3 DUP3 MUL DUP2 PUSH2 0x2998 JUMPI INVALID JUMPDEST SDIV SWAP1 POP DUP1 PUSH7 0xC0135DCA04000 MUL DUP4 ADD SWAP3 POP PUSH1 0x1 PUSH1 0x7F SHL DUP3 DUP3 MUL DUP2 PUSH2 0x29B8 JUMPI INVALID JUMPDEST SDIV SWAP1 POP DUP1 PUSH7 0x1B707B1CDC000 MUL DUP4 ADD SWAP3 POP PUSH1 0x1 PUSH1 0x7F SHL DUP3 DUP3 MUL DUP2 PUSH2 0x29D8 JUMPI INVALID JUMPDEST SDIV SWAP1 POP DUP1 PUSH6 0x36E0F639B800 MUL DUP4 ADD SWAP3 POP PUSH1 0x1 PUSH1 0x7F SHL DUP3 DUP3 MUL DUP2 PUSH2 0x29F7 JUMPI INVALID JUMPDEST SDIV SWAP1 POP DUP1 PUSH6 0x618FEE9F800 MUL DUP4 ADD SWAP3 POP PUSH1 0x1 PUSH1 0x7F SHL DUP3 DUP3 MUL DUP2 PUSH2 0x2A16 JUMPI INVALID JUMPDEST SDIV SWAP1 POP DUP1 PUSH5 0x9C197DCC00 MUL DUP4 ADD SWAP3 POP PUSH1 0x1 PUSH1 0x7F SHL DUP3 DUP3 MUL DUP2 PUSH2 0x2A34 JUMPI INVALID JUMPDEST SDIV SWAP1 POP DUP1 PUSH5 0xE30DCE400 MUL DUP4 ADD SWAP3 POP PUSH1 0x1 PUSH1 0x7F SHL DUP3 DUP3 MUL DUP2 PUSH2 0x2A52 JUMPI INVALID JUMPDEST SDIV SWAP1 POP DUP1 PUSH5 0x12EBD1300 MUL DUP4 ADD SWAP3 POP PUSH1 0x1 PUSH1 0x7F SHL DUP3 DUP3 MUL DUP2 PUSH2 0x2A70 JUMPI INVALID JUMPDEST SDIV SWAP1 POP DUP1 PUSH4 0x17499F00 MUL DUP4 ADD SWAP3 POP PUSH1 0x1 PUSH1 0x7F SHL DUP3 DUP3 MUL DUP2 PUSH2 0x2A8D JUMPI INVALID JUMPDEST SDIV SWAP1 POP DUP1 PUSH4 0x1A9D480 MUL DUP4 ADD SWAP3 POP PUSH1 0x1 PUSH1 0x7F SHL DUP3 DUP3 MUL DUP2 PUSH2 0x2AAA JUMPI INVALID JUMPDEST SDIV SWAP1 POP DUP1 PUSH3 0x1C6380 MUL DUP4 ADD SWAP3 POP PUSH1 0x1 PUSH1 0x7F SHL DUP3 DUP3 MUL DUP2 PUSH2 0x2AC6 JUMPI INVALID JUMPDEST SDIV SWAP1 POP DUP1 PUSH3 0x1C638 MUL DUP4 ADD SWAP3 POP PUSH1 0x1 PUSH1 0x7F SHL DUP3 DUP3 MUL DUP2 PUSH2 0x2AE2 JUMPI INVALID JUMPDEST SDIV SWAP1 POP DUP1 PUSH2 0x1AB8 MUL DUP4 ADD SWAP3 POP PUSH1 0x1 PUSH1 0x7F SHL DUP3 DUP3 MUL DUP2 PUSH2 0x2AFD JUMPI INVALID JUMPDEST SDIV SWAP1 POP DUP1 PUSH2 0x17C MUL DUP4 ADD SWAP3 POP PUSH1 0x1 PUSH1 0x7F SHL DUP3 DUP3 MUL DUP2 PUSH2 0x2B18 JUMPI INVALID JUMPDEST SDIV SWAP1 POP DUP1 PUSH1 0x14 MUL DUP4 ADD SWAP3 POP PUSH1 0x1 PUSH1 0x7F SHL DUP3 DUP3 MUL DUP2 PUSH2 0x2B32 JUMPI INVALID JUMPDEST PUSH1 0x0 SWAP6 SWAP1 SWAP6 SUB SWAP5 PUSH8 0x21C3677C82B40000 SWAP2 SWAP1 SDIV SWAP4 DUP5 ADD SDIV DUP3 ADD PUSH1 0x1 PUSH1 0x7F SHL ADD SWAP3 SWAP1 POP PUSH1 0x1 PUSH1 0x84 SHL DUP5 AND ISZERO PUSH2 0x2B88 JUMPI PUSH19 0x43CBAF42A000812488FC5C220AD7B97BF6E99E PUSH13 0xF1AADDD7742E56D32FB9F99744 DUP5 MUL SDIV SWAP3 POP JUMPDEST PUSH1 0x1 PUSH1 0x83 SHL DUP5 AND ISZERO PUSH2 0x2BBD JUMPI PUSH18 0x5D27A9F51C31B7C2F8038212A0574779991 PUSH15 0xAFE10820813D65DFE6A33C07F738F DUP5 MUL SDIV SWAP3 POP JUMPDEST PUSH1 0x1 PUSH1 0x82 SHL DUP5 AND ISZERO PUSH2 0x2BF2 JUMPI PUSH17 0x1B4C902E273A58678D6D3BFDB93DB96D02 PUSH16 0x2582AB704279E8EFD15E0265855C47A DUP5 MUL SDIV SWAP3 POP JUMPDEST PUSH1 0x1 PUSH1 0x81 SHL DUP5 AND ISZERO PUSH2 0x2C27 JUMPI PUSH17 0x3B1CC971A9BB5B9867477440D6D157750 PUSH16 0x1152AAA3BF81CB9FDB76EAE12D029571 DUP5 MUL SDIV SWAP3 POP JUMPDEST PUSH1 0x1 PUSH1 0x80 SHL DUP5 AND ISZERO PUSH2 0x2C5C JUMPI PUSH17 0x15BF0A8B1457695355FB8AC404E7A79E3 PUSH16 0x2F16AC6C59DE6F8D5D6F63C1482A7C86 DUP5 MUL SDIV SWAP3 POP JUMPDEST PUSH1 0x1 PUSH1 0x7F SHL DUP5 AND ISZERO PUSH2 0x2C90 JUMPI PUSH16 0xD3094C70F034DE4B96FF7D5B6F99FCD8 PUSH16 0x4DA2CBF1BE5827F9EB3AD1AA9866EBB3 DUP5 MUL SDIV SWAP3 POP JUMPDEST PUSH1 0x1 PUSH1 0x7E SHL DUP5 AND ISZERO PUSH2 0x2CC4 JUMPI PUSH16 0xA45AF1E1F40C333B3DE1DB4DD55F29A7 PUSH16 0x63AFBE7AB2082BA1A0AE5E4EB1B479DC DUP5 MUL SDIV SWAP3 POP JUMPDEST PUSH1 0x1 PUSH1 0x7D SHL DUP5 AND ISZERO PUSH2 0x2CF8 JUMPI PUSH16 0x910B022DB7AE67CE76B441C27035C6A1 PUSH16 0x70F5A893B608861E1F58934F97AEA57D DUP5 MUL SDIV SWAP3 POP JUMPDEST PUSH1 0x1 PUSH1 0x7C SHL DUP5 AND ISZERO PUSH2 0x2D2C JUMPI PUSH16 0x88415ABBE9A76BEAD8D00CF112E4D4A8 PUSH16 0x783EAFEF1C0A8F3978C7F81824D62EBF DUP5 MUL SDIV SWAP3 POP JUMPDEST POP POP SWAP2 SWAP1 POP JUMP JUMPDEST PUSH1 0x0 PUSH1 0x1 PUSH1 0x7F SHL PUSH2 0x2D44 DUP5 DUP5 PUSH2 0x2E72 JUMP JUMPDEST DUP2 PUSH2 0x2D4B JUMPI INVALID JUMPDEST SDIV SWAP4 SWAP3 POP POP POP JUMP JUMPDEST PUSH1 0x0 DUP1 DUP3 SLT ISZERO PUSH2 0x2D6B JUMPI PUSH2 0x2D6B PUSH2 0x4F7 PUSH1 0x1 DUP5 PUSH2 0x2E0B JUMP JUMPDEST PUSH1 0x0 PUSH2 0x2D77 DUP5 DUP5 PUSH2 0x2E72 JUMP JUMPDEST SWAP1 POP PUSH1 0x0 DUP2 SGT PUSH2 0x2D8B JUMPI PUSH1 0x0 SWAP2 POP POP PUSH2 0x785 JUMP JUMPDEST PUSH1 0x7F SHR SWAP4 SWAP3 POP POP POP JUMP JUMPDEST PUSH1 0x20 ADD MLOAD ISZERO ISZERO SWAP1 JUMP JUMPDEST PUSH1 0x0 DUP1 DUP6 PUSH2 0x2DB0 JUMPI POP DUP3 SWAP1 POP DUP2 PUSH2 0x2DE5 JUMP JUMPDEST DUP4 PUSH2 0x2DBF JUMPI POP DUP5 SWAP1 POP DUP4 PUSH2 0x2DE5 JUMP JUMPDEST PUSH2 0x2DD6 PUSH2 0x2DCC DUP6 DUP8 PUSH2 0x2220 JUMP JUMPDEST PUSH2 0x1E4B DUP9 DUP7 PUSH2 0x2220 JUMP JUMPDEST SWAP2 POP PUSH2 0x2DE2 DUP6 DUP5 PUSH2 0x2220 JUMP JUMPDEST SWAP1 POP JUMPDEST SWAP5 POP SWAP5 SWAP3 POP POP POP JUMP JUMPDEST PUSH1 0x0 DUP1 PUSH2 0x2E00 DUP5 DUP5 PUSH1 0x1 PUSH1 0x7F SHL PUSH2 0x2F22 JUMP JUMPDEST SWAP2 POP SWAP2 POP SWAP3 POP SWAP3 SWAP1 POP JUMP JUMPDEST PUSH1 0x60 PUSH4 0xBD79545F PUSH1 0xE0 SHL DUP4 PUSH1 0x1 DUP2 GT ISZERO PUSH2 0x2E21 JUMPI INVALID JUMPDEST PUSH1 0x40 DUP1 MLOAD PUSH1 0xFF SWAP1 SWAP3 AND PUSH1 0x24 DUP4 ADD MSTORE PUSH1 0x44 DUP1 DUP4 ADD DUP7 SWAP1 MSTORE DUP2 MLOAD DUP1 DUP5 SUB SWAP1 SWAP2 ADD DUP2 MSTORE PUSH1 0x64 SWAP1 SWAP3 ADD SWAP1 MSTORE PUSH1 0x20 DUP2 ADD DUP1 MLOAD PUSH1 0x1 PUSH1 0x1 PUSH1 0xE0 SHL SUB AND PUSH1 0x1 PUSH1 0x1 PUSH1 0xE0 SHL SUB NOT SWAP1 SWAP4 AND SWAP3 SWAP1 SWAP3 OR SWAP1 SWAP2 MSTORE SWAP1 POP SWAP3 SWAP2 POP POP JUMP JUMPDEST PUSH1 0x0 DUP3 ISZERO DUP1 PUSH2 0x2E7F JUMPI POP DUP2 ISZERO JUMPDEST ISZERO PUSH2 0x2E8C JUMPI POP PUSH1 0x0 PUSH2 0x785 JUMP JUMPDEST POP DUP2 DUP2 MUL DUP2 DUP4 DUP3 DUP2 PUSH2 0x2E9A JUMPI INVALID JUMPDEST SDIV EQ ISZERO DUP1 PUSH2 0x2EB1 JUMPI POP DUP3 DUP3 DUP3 DUP2 PUSH2 0x2EAD JUMPI INVALID JUMPDEST SDIV EQ ISZERO JUMPDEST ISZERO PUSH2 0x785 JUMPI PUSH2 0x785 PUSH2 0x4F7 PUSH1 0x1 DUP6 DUP6 PUSH2 0x2F7E JUMP JUMPDEST PUSH1 0x0 DUP2 PUSH2 0x2EDB JUMPI PUSH2 0x2EDB PUSH2 0x4F7 PUSH1 0x2 DUP6 DUP6 PUSH2 0x2F7E JUMP JUMPDEST PUSH1 0x1 PUSH1 0xFF SHL DUP4 EQ DUP1 ISZERO PUSH2 0x2EEF JUMPI POP DUP2 PUSH1 0x0 NOT EQ JUMPDEST ISZERO PUSH2 0x2F03 JUMPI PUSH2 0x2F03 PUSH2 0x4F7 PUSH1 0x3 DUP6 DUP6 PUSH2 0x2F7E JUMP JUMPDEST DUP2 DUP4 DUP2 PUSH2 0x2D4B JUMPI INVALID JUMPDEST PUSH1 0x60 PUSH4 0xED2F26A1 PUSH1 0xE0 SHL DUP4 PUSH1 0x1 DUP2 GT ISZERO PUSH2 0x2E21 JUMPI INVALID JUMPDEST PUSH1 0x0 DUP1 DUP3 DUP6 GT DUP1 PUSH2 0x2F32 JUMPI POP DUP3 DUP5 GT JUMPDEST ISZERO PUSH2 0x2F75 JUMPI PUSH1 0x0 DUP5 DUP7 LT ISZERO PUSH2 0x2F47 JUMPI DUP5 PUSH2 0x2F49 JUMP JUMPDEST DUP6 JUMPDEST SWAP1 POP PUSH2 0x2F55 DUP2 DUP6 PUSH2 0x2251 JUMP JUMPDEST SWAP1 POP PUSH2 0x2F61 DUP7 DUP3 PUSH2 0x2251 JUMP JUMPDEST SWAP3 POP PUSH2 0x2F6D DUP6 DUP3 PUSH2 0x2251 JUMP JUMPDEST SWAP2 POP POP PUSH2 0x1747 JUMP JUMPDEST POP SWAP3 SWAP4 SWAP2 SWAP3 POP POP JUMP JUMPDEST PUSH1 0x60 PUSH4 0x8C12DFE7 PUSH1 0xE0 SHL DUP5 PUSH1 0x3 DUP2 GT ISZERO PUSH2 0x2F94 JUMPI INVALID JUMPDEST PUSH1 0x40 DUP1 MLOAD PUSH1 0xFF SWAP1 SWAP3 AND PUSH1 0x24 DUP4 ADD MSTORE PUSH1 0x44 DUP3 ADD DUP7 SWAP1 MSTORE PUSH1 0x64 DUP1 DUP4 ADD DUP7 SWAP1 MSTORE DUP2 MLOAD DUP1 DUP5 SUB SWAP1 SWAP2 ADD DUP2 MSTORE PUSH1 0x84 SWAP1 SWAP3 ADD SWAP1 MSTORE PUSH1 0x20 DUP2 ADD DUP1 MLOAD PUSH1 0x1 PUSH1 0x1 PUSH1 0xE0 SHL SUB AND PUSH1 0x1 PUSH1 0x1 PUSH1 0xE0 SHL SUB NOT SWAP1 SWAP4 AND SWAP3 SWAP1 SWAP3 OR SWAP1 SWAP2 MSTORE SWAP1 POP SWAP4 SWAP3 POP POP POP JUMP JUMPDEST PUSH1 0x40 MLOAD DUP1 PUSH1 0xA0 ADD PUSH1 0x40 MSTORE DUP1 PUSH1 0x0 DUP2 MSTORE PUSH1 0x20 ADD PUSH1 0x0 DUP2 MSTORE PUSH1 0x20 ADD PUSH1 0x0 DUP2 MSTORE PUSH1 0x20 ADD PUSH1 0x0 DUP2 MSTORE PUSH1 0x20 ADD PUSH1 0x0 DUP2 MSTORE POP SWAP1 JUMP JUMPDEST PUSH1 0x40 DUP1 MLOAD PUSH1 0x60 DUP2 ADD DUP3 MSTORE PUSH1 0x0 DUP1 DUP3 MSTORE PUSH1 0x20 DUP3 ADD DUP2 SWAP1 MSTORE SWAP2 DUP2 ADD SWAP2 SWAP1 SWAP2 MSTORE SWAP1 JUMP JUMPDEST PUSH1 0x40 MLOAD DUP1 PUSH1 0x80 ADD PUSH1 0x40 MSTORE DUP1 PUSH1 0x0 DUP2 MSTORE PUSH1 0x20 ADD PUSH1 0x0 DUP2 MSTORE PUSH1 0x20 ADD PUSH1 0x0 DUP2 MSTORE PUSH1 0x20 ADD PUSH1 0x0 DUP2 MSTORE POP SWAP1 JUMP JUMPDEST PUSH1 0x40 MLOAD DUP1 PUSH1 0x40 ADD PUSH1 0x40 MSTORE DUP1 PUSH1 0x0 DUP2 MSTORE PUSH1 0x20 ADD PUSH1 0x0 DUP2 MSTORE POP SWAP1 JUMP JUMPDEST DUP1 CALLDATALOAD PUSH1 0x2 DUP2 LT PUSH2 0x688 JUMPI PUSH1 0x0 DUP1 REVERT JUMPDEST PUSH1 0x0 PUSH1 0x20 DUP3 DUP5 SUB SLT ISZERO PUSH2 0x309E JUMPI DUP1 DUP2 REVERT JUMPDEST DUP2 CALLDATALOAD PUSH2 0x782 DUP2 PUSH2 0x3379 JUMP JUMPDEST PUSH1 0x0 PUSH1 0x20 DUP3 DUP5 SUB SLT ISZERO PUSH2 0x30BA JUMPI DUP1 DUP2 REVERT JUMPDEST DUP2 MLOAD PUSH2 0x782 DUP2 PUSH2 0x3379 JUMP JUMPDEST PUSH1 0x0 DUP1 PUSH1 0x40 DUP4 DUP6 SUB SLT ISZERO PUSH2 0x30D7 JUMPI DUP1 DUP2 REVERT JUMPDEST DUP3 CALLDATALOAD PUSH2 0x30E2 DUP2 PUSH2 0x3379 JUMP JUMPDEST SWAP5 PUSH1 0x20 SWAP4 SWAP1 SWAP4 ADD CALLDATALOAD SWAP4 POP POP POP JUMP JUMPDEST PUSH1 0x0 DUP1 PUSH1 0x40 DUP4 DUP6 SUB SLT ISZERO PUSH2 0x3102 JUMPI DUP2 DUP3 REVERT JUMPDEST DUP3 CALLDATALOAD PUSH2 0x310D DUP2 PUSH2 0x3379 JUMP JUMPDEST SWAP2 POP PUSH2 0x311B PUSH1 0x20 DUP5 ADD PUSH2 0x307E JUMP JUMPDEST SWAP1 POP SWAP3 POP SWAP3 SWAP1 POP JUMP JUMPDEST PUSH1 0x0 DUP1 PUSH1 0x40 DUP4 DUP6 SUB SLT ISZERO PUSH2 0x30D7 JUMPI DUP2 DUP3 REVERT JUMPDEST PUSH1 0x0 PUSH1 0x20 DUP3 DUP5 SUB SLT ISZERO PUSH2 0x3147 JUMPI DUP1 DUP2 REVERT JUMPDEST DUP2 MLOAD DUP1 ISZERO ISZERO DUP2 EQ PUSH2 0x782 JUMPI DUP2 DUP3 REVERT JUMPDEST PUSH1 0x0 PUSH1 0x20 DUP3 DUP5 SUB SLT ISZERO PUSH2 0x3167 JUMPI DUP1 DUP2 REVERT JUMPDEST POP CALLDATALOAD SWAP2 SWAP1 POP JUMP JUMPDEST PUSH1 0x0 DUP1 PUSH1 0x40 DUP4 DUP6 SUB SLT ISZERO PUSH2 0x3180 JUMPI DUP2 DUP3 REVERT JUMPDEST DUP3 CALLDATALOAD SWAP2 POP PUSH1 0x20 DUP4 ADD CALLDATALOAD PUSH2 0x3192 DUP2 PUSH2 0x3379 JUMP JUMPDEST DUP1 SWAP2 POP POP SWAP3 POP SWAP3 SWAP1 POP JUMP JUMPDEST PUSH1 0x0 DUP1 PUSH1 0x40 DUP4 DUP6 SUB SLT ISZERO PUSH2 0x31AF JUMPI DUP2 DUP3 REVERT JUMPDEST POP POP DUP1 CALLDATALOAD SWAP3 PUSH1 0x20 SWAP1 SWAP2 ADD CALLDATALOAD SWAP2 POP JUMP JUMPDEST PUSH1 0x0 PUSH1 0x20 DUP3 DUP5 SUB SLT ISZERO PUSH2 0x31CF JUMPI DUP1 DUP2 REVERT JUMPDEST PUSH2 0x782 DUP3 PUSH2 0x307E JUMP JUMPDEST PUSH1 0x0 PUSH1 0x20 DUP3 DUP5 SUB SLT ISZERO PUSH2 0x31E9 JUMPI DUP1 DUP2 REVERT JUMPDEST POP MLOAD SWAP2 SWAP1 POP JUMP JUMPDEST PUSH1 0x1 PUSH1 0x1 PUSH1 0xA0 SHL SUB SWAP2 SWAP1 SWAP2 AND DUP2 MSTORE PUSH1 0x20 ADD SWAP1 JUMP JUMPDEST PUSH1 0x1 PUSH1 0x1 PUSH1 0xA0 SHL SUB SWAP3 SWAP1 SWAP3 AND DUP3 MSTORE PUSH1 0x20 DUP3 ADD MSTORE PUSH1 0x40 ADD SWAP1 JUMP JUMPDEST PUSH1 0x20 DUP1 DUP3 MSTORE DUP3 MLOAD DUP3 DUP3 ADD DUP2 SWAP1 MSTORE PUSH1 0x0 SWAP2 SWAP1 DUP5 DUP3 ADD SWAP1 PUSH1 0x40 DUP6 ADD SWAP1 DUP5 JUMPDEST DUP2 DUP2 LT ISZERO PUSH2 0x325E JUMPI DUP4 MLOAD PUSH1 0x1 PUSH1 0x1 PUSH1 0xA0 SHL SUB AND DUP4 MSTORE SWAP3 DUP5 ADD SWAP3 SWAP2 DUP5 ADD SWAP2 PUSH1 0x1 ADD PUSH2 0x3239 JUMP JUMPDEST POP SWAP1 SWAP7 SWAP6 POP POP POP POP POP POP JUMP JUMPDEST SWAP1 ISZERO ISZERO DUP2 MSTORE PUSH1 0x20 ADD SWAP1 JUMP JUMPDEST SWAP1 DUP2 MSTORE PUSH1 0x20 ADD SWAP1 JUMP JUMPDEST SWAP2 DUP3 MSTORE PUSH1 0x20 DUP3 ADD MSTORE PUSH1 0x40 ADD SWAP1 JUMP JUMPDEST PUSH1 0x20 DUP1 DUP3 MSTORE PUSH1 0x1E SWAP1 DUP3 ADD MSTORE PUSH32 0x46494E414C495A45525F4D494E545F494E464C4154494F4E5F4552524F520000 PUSH1 0x40 DUP3 ADD MSTORE PUSH1 0x60 ADD SWAP1 JUMP JUMPDEST PUSH1 0x20 DUP1 DUP3 MSTORE PUSH1 0x13 SWAP1 DUP3 ADD MSTORE PUSH19 0x10D497D25395115495905317D2539590531251 PUSH1 0x6A SHL PUSH1 0x40 DUP3 ADD MSTORE PUSH1 0x60 ADD SWAP1 JUMP JUMPDEST DUP2 MLOAD PUSH8 0xFFFFFFFFFFFFFFFF AND DUP2 MSTORE PUSH1 0x20 DUP1 DUP4 ADD MLOAD PUSH1 0x1 PUSH1 0x1 PUSH1 0x60 SHL SUB SWAP1 DUP2 AND SWAP2 DUP4 ADD SWAP2 SWAP1 SWAP2 MSTORE PUSH1 0x40 SWAP3 DUP4 ADD MLOAD AND SWAP2 DUP2 ADD SWAP2 SWAP1 SWAP2 MSTORE PUSH1 0x60 ADD SWAP1 JUMP JUMPDEST SWAP4 DUP5 MSTORE PUSH1 0x20 DUP5 ADD SWAP3 SWAP1 SWAP3 MSTORE PUSH1 0x40 DUP4 ADD MSTORE PUSH1 0x60 DUP3 ADD MSTORE PUSH1 0x80 ADD SWAP1 JUMP JUMPDEST SWAP5 DUP6 MSTORE PUSH1 0x20 DUP6 ADD SWAP4 SWAP1 SWAP4 MSTORE PUSH1 0x40 DUP5 ADD SWAP2 SWAP1 SWAP2 MSTORE PUSH1 0x60 DUP4 ADD MSTORE PUSH1 0x80 DUP3 ADD MSTORE PUSH1 0xA0 ADD SWAP1 JUMP JUMPDEST PUSH4 0xFFFFFFFF SWAP2 SWAP1 SWAP2 AND DUP2 MSTORE PUSH1 0x20 ADD SWAP1 JUMP JUMPDEST PUSH1 0x1 PUSH1 0x1 PUSH1 0xA0 SHL SUB DUP2 AND DUP2 EQ PUSH2 0x736 JUMPI PUSH1 0x0 DUP1 REVERT INVALID LOG2 PUSH5 0x6970667358 0x22 SLT KECCAK256 SWAP10 0xEF 0x1E 0xED DIFFICULTY 0xE1 SELFBALANCE PUSH17 0x2DFD2FF32D104BAD51E51506AEF165D144 0xFC 0xE7 PUSH32 0x4F3C30C664736F6C634300070400330000000000000000000000000000000000 "
		},
		"gasEstimates": {
			"creation": {
				"codeDepositCost": "2650400",
				"executionCost": "23712",
				"totalCost": "2674112"
			},
			"external": {
				"addAuthorizedAddress(address)": "infinite",
				"aggregatedStatsByEpoch(uint256)": "4637",
				"authorities(uint256)": "2172",
				"authorized(address)": "1307",
				"cobbDouglasAlphaDenominator()": "1168",
				"cobbDouglasAlphaNumerator()": "1113",
				"computeRewardBalanceOfDelegator(bytes32,address)": "infinite",
				"computeRewardBalanceOfOperator(bytes32)": "infinite",
				"currentEpoch()": "1162",
				"currentEpochStartTimeInSeconds()": "1096",
				"endEpoch()": "infinite",
				"epochDurationInSeconds()": "1118",
				"finalizePool(bytes32)": "infinite",
				"getAuthorizedAddresses()": "infinite",
				"getCurrentEpochEarliestEndTimeInSeconds()": "infinite",
				"getDragoRegistry()": "364",
				"getGlobalStakeByStatus(uint8)": "infinite",
				"getGrgContract()": "318",
				"getGrgVault()": "297",
				"getOwnerStakeByStatus(address,uint8)": "infinite",
				"getStakeDelegatedToPoolByOwner(address,bytes32)": "infinite",
				"getTotalStake(address)": "infinite",
				"getTotalStakeDelegatedToPool(bytes32)": "infinite",
				"getWethContract()": "298",
				"grgReservedForPoolRewards()": "1139",
				"lastPoolId()": "1074",
				"minimumPoolStake()": "1161",
				"owner()": "1159",
				"poolIdByRbPoolAccount(address)": "1295",
				"poolStatsByEpoch(bytes32,uint256)": "3865",
				"removeAuthorizedAddress(address)": "infinite",
				"removeAuthorizedAddressAtIndex(address,uint256)": "92496",
				"rewardDelegatedStakeWeight()": "1113",
				"rewardsByPoolId(bytes32)": "1260",
				"stakingContract()": "1114",
				"transferOwnership(address)": "23697",
				"validPops(address)": "1308",
				"withdrawDelegatorRewards(bytes32)": "infinite"
			},
			"internal": {
				"_assertPoolFinalizedLastEpoch(bytes32)": "infinite",
				"_getAvailableGrgBalance()": "infinite",
				"_getUnfinalizedPoolRewards(bytes32)": "infinite",
				"_getUnfinalizedPoolRewardsFromPoolStats(struct IStructs.PoolStats memory,struct IStructs.AggregatedStats memory)": "infinite",
				"_isContract(address)": "718"
			}
		},
		"methodIdentifiers": {
			"addAuthorizedAddress(address)": "42f1181e",
			"aggregatedStatsByEpoch(uint256)": "38229d93",
			"authorities(uint256)": "494503d4",
			"authorized(address)": "b9181611",
			"cobbDouglasAlphaDenominator()": "e8eeb3f8",
			"cobbDouglasAlphaNumerator()": "81666796",
			"computeRewardBalanceOfDelegator(bytes32,address)": "e907f003",
			"computeRewardBalanceOfOperator(bytes32)": "bb7ef7e0",
			"currentEpoch()": "76671808",
			"currentEpochStartTimeInSeconds()": "587da023",
			"endEpoch()": "0b9663db",
			"epochDurationInSeconds()": "63403801",
			"finalizePool(bytes32)": "ff691b11",
			"getAuthorizedAddresses()": "d39de6e9",
			"getCurrentEpochEarliestEndTimeInSeconds()": "b2baa33e",
			"getDragoRegistry()": "b652b41f",
			"getGlobalStakeByStatus(uint8)": "e804d0a4",
			"getGrgContract()": "ef4ba680",
			"getGrgVault()": "e0822db7",
			"getOwnerStakeByStatus(address,uint8)": "44a6958b",
			"getStakeDelegatedToPoolByOwner(address,bytes32)": "f252b7a1",
			"getTotalStake(address)": "1e7ff8f6",
			"getTotalStakeDelegatedToPool(bytes32)": "3e4ad732",
			"getWethContract()": "3c277fc5",
			"grgReservedForPoolRewards()": "d14dc231",
			"lastPoolId()": "a657e579",
			"minimumPoolStake()": "a26171e2",
			"owner()": "8da5cb5b",
			"poolIdByRbPoolAccount(address)": "7fa140c7",
			"poolStatsByEpoch(bytes32,uint256)": "2a94c279",
			"removeAuthorizedAddress(address)": "70712939",
			"removeAuthorizedAddressAtIndex(address,uint256)": "9ad26744",
			"rewardDelegatedStakeWeight()": "e0ee036e",
			"rewardsByPoolId(bytes32)": "c18c9141",
			"stakingContract()": "ee99205c",
			"transferOwnership(address)": "f2fde38b",
			"validPops(address)": "540c2d53",
			"withdrawDelegatorRewards(bytes32)": "b510879f"
		}
	},
	"abi": [
		{
			"anonymous": false,
			"inputs": [
				{
					"indexed": true,
					"internalType": "address",
					"name": "target",
					"type": "address"
				},
				{
					"indexed": true,
					"internalType": "address",
					"name": "caller",
					"type": "address"
				}
			],
			"name": "AuthorizedAddressAdded",
			"type": "event"
		},
		{
			"anonymous": false,
			"inputs": [
				{
					"indexed": true,
					"internalType": "address",
					"name": "target",
					"type": "address"
				},
				{
					"indexed": true,
					"internalType": "address",
					"name": "caller",
					"type": "address"
				}
			],
			"name": "AuthorizedAddressRemoved",
			"type": "event"
		},
		{
			"anonymous": false,
			"inputs": [
				{
					"indexed": true,
					"internalType": "uint256",
					"name": "epoch",
					"type": "uint256"
				},
				{
					"indexed": false,
					"internalType": "uint256",
					"name": "numPoolsToFinalize",
					"type": "uint256"
				},
				{
					"indexed": false,
					"internalType": "uint256",
					"name": "rewardsAvailable",
					"type": "uint256"
				},
				{
					"indexed": false,
					"internalType": "uint256",
					"name": "totalFeesCollected",
					"type": "uint256"
				},
				{
					"indexed": false,
					"internalType": "uint256",
					"name": "totalWeightedStake",
					"type": "uint256"
				}
			],
			"name": "EpochEnded",
			"type": "event"
		},
		{
			"anonymous": false,
			"inputs": [
				{
					"indexed": true,
					"internalType": "uint256",
					"name": "epoch",
					"type": "uint256"
				},
				{
					"indexed": false,
					"internalType": "uint256",
					"name": "rewardsPaid",
					"type": "uint256"
				},
				{
					"indexed": false,
					"internalType": "uint256",
					"name": "rewardsRemaining",
					"type": "uint256"
				}
			],
			"name": "EpochFinalized",
			"type": "event"
		},
		{
			"anonymous": false,
			"inputs": [
				{
					"indexed": true,
					"internalType": "address",
					"name": "staker",
					"type": "address"
				},
				{
					"indexed": false,
					"internalType": "uint256",
					"name": "amount",
					"type": "uint256"
				},
				{
					"indexed": false,
					"internalType": "uint8",
					"name": "fromStatus",
					"type": "uint8"
				},
				{
					"indexed": true,
					"internalType": "bytes32",
					"name": "fromPool",
					"type": "bytes32"
				},
				{
					"indexed": false,
					"internalType": "uint8",
					"name": "toStatus",
					"type": "uint8"
				},
				{
					"indexed": true,
					"internalType": "bytes32",
					"name": "toPool",
					"type": "bytes32"
				}
			],
			"name": "MoveStake",
			"type": "event"
		},
		{
			"anonymous": false,
			"inputs": [
				{
					"indexed": true,
					"internalType": "bytes32",
					"name": "poolId",
					"type": "bytes32"
				},
				{
					"indexed": false,
					"internalType": "uint32",
					"name": "oldOperatorShare",
					"type": "uint32"
				},
				{
					"indexed": false,
					"internalType": "uint32",
					"name": "newOperatorShare",
					"type": "uint32"
				}
			],
			"name": "OperatorShareDecreased",
			"type": "event"
		},
		{
			"anonymous": false,
			"inputs": [
				{
					"indexed": true,
					"internalType": "address",
					"name": "previousOwner",
					"type": "address"
				},
				{
					"indexed": true,
					"internalType": "address",
					"name": "newOwner",
					"type": "address"
				}
			],
			"name": "OwnershipTransferred",
			"type": "event"
		},
		{
			"anonymous": false,
			"inputs": [
				{
					"indexed": false,
					"internalType": "uint256",
					"name": "epochDurationInSeconds",
					"type": "uint256"
				},
				{
					"indexed": false,
					"internalType": "uint32",
					"name": "rewardDelegatedStakeWeight",
					"type": "uint32"
				},
				{
					"indexed": false,
					"internalType": "uint256",
					"name": "minimumPoolStake",
					"type": "uint256"
				},
				{
					"indexed": false,
					"internalType": "uint256",
					"name": "cobbDouglasAlphaNumerator",
					"type": "uint256"
				},
				{
					"indexed": false,
					"internalType": "uint256",
					"name": "cobbDouglasAlphaDenominator",
					"type": "uint256"
				}
			],
			"name": "ParamsSet",
			"type": "event"
		},
		{
			"anonymous": false,
			"inputs": [
				{
					"indexed": false,
					"internalType": "address",
					"name": "exchangeAddress",
					"type": "address"
				}
			],
			"name": "PopAdded",
			"type": "event"
		},
		{
			"anonymous": false,
			"inputs": [
				{
					"indexed": false,
					"internalType": "address",
					"name": "exchangeAddress",
					"type": "address"
				}
			],
			"name": "PopRemoved",
			"type": "event"
		},
		{
			"anonymous": false,
			"inputs": [
				{
					"indexed": true,
					"internalType": "address",
					"name": "rbPoolAddress",
					"type": "address"
				},
				{
					"indexed": true,
					"internalType": "bytes32",
					"name": "poolId",
					"type": "bytes32"
				}
			],
			"name": "RbPoolStakingPoolSet",
			"type": "event"
		},
		{
			"anonymous": false,
			"inputs": [
				{
					"indexed": true,
					"internalType": "uint256",
					"name": "epoch",
					"type": "uint256"
				},
				{
					"indexed": true,
					"internalType": "bytes32",
					"name": "poolId",
					"type": "bytes32"
				},
				{
					"indexed": false,
					"internalType": "uint256",
					"name": "operatorReward",
					"type": "uint256"
				},
				{
					"indexed": false,
					"internalType": "uint256",
					"name": "membersReward",
					"type": "uint256"
				}
			],
			"name": "RewardsPaid",
			"type": "event"
		},
		{
			"anonymous": false,
			"inputs": [
				{
					"indexed": true,
					"internalType": "address",
					"name": "staker",
					"type": "address"
				},
				{
					"indexed": false,
					"internalType": "uint256",
					"name": "amount",
					"type": "uint256"
				}
			],
			"name": "Stake",
			"type": "event"
		},
		{
			"anonymous": false,
			"inputs": [
				{
					"indexed": false,
					"internalType": "bytes32",
					"name": "poolId",
					"type": "bytes32"
				},
				{
					"indexed": false,
					"internalType": "address",
					"name": "operator",
					"type": "address"
				},
				{
					"indexed": false,
					"internalType": "uint32",
					"name": "operatorShare",
					"type": "uint32"
				}
			],
			"name": "StakingPoolCreated",
			"type": "event"
		},
		{
			"anonymous": false,
			"inputs": [
				{
					"indexed": true,
					"internalType": "uint256",
					"name": "epoch",
					"type": "uint256"
				},
				{
					"indexed": true,
					"internalType": "bytes32",
					"name": "poolId",
					"type": "bytes32"
				}
			],
			"name": "StakingPoolEarnedRewardsInEpoch",
			"type": "event"
		},
		{
			"anonymous": false,
			"inputs": [
				{
					"indexed": true,
					"internalType": "address",
					"name": "staker",
					"type": "address"
				},
				{
					"indexed": false,
					"internalType": "uint256",
					"name": "amount",
					"type": "uint256"
				}
			],
			"name": "Unstake",
			"type": "event"
		},
		{
			"inputs": [
				{
					"internalType": "address",
					"name": "target",
					"type": "address"
				}
			],
			"name": "addAuthorizedAddress",
			"outputs": [],
			"stateMutability": "nonpayable",
			"type": "function"
		},
		{
			"inputs": [
				{
					"internalType": "uint256",
					"name": "",
					"type": "uint256"
				}
			],
			"name": "aggregatedStatsByEpoch",
			"outputs": [
				{
					"internalType": "uint256",
					"name": "rewardsAvailable",
					"type": "uint256"
				},
				{
					"internalType": "uint256",
					"name": "numPoolsToFinalize",
					"type": "uint256"
				},
				{
					"internalType": "uint256",
					"name": "totalFeesCollected",
					"type": "uint256"
				},
				{
					"internalType": "uint256",
					"name": "totalWeightedStake",
					"type": "uint256"
				},
				{
					"internalType": "uint256",
					"name": "totalRewardsFinalized",
					"type": "uint256"
				}
			],
			"stateMutability": "view",
			"type": "function"
		},
		{
			"inputs": [
				{
					"internalType": "uint256",
					"name": "",
					"type": "uint256"
				}
			],
			"name": "authorities",
			"outputs": [
				{
					"internalType": "address",
					"name": "",
					"type": "address"
				}
			],
			"stateMutability": "view",
			"type": "function"
		},
		{
			"inputs": [
				{
					"internalType": "address",
					"name": "",
					"type": "address"
				}
			],
			"name": "authorized",
			"outputs": [
				{
					"internalType": "bool",
					"name": "",
					"type": "bool"
				}
			],
			"stateMutability": "view",
			"type": "function"
		},
		{
			"inputs": [],
			"name": "cobbDouglasAlphaDenominator",
			"outputs": [
				{
					"internalType": "uint32",
					"name": "",
					"type": "uint32"
				}
			],
			"stateMutability": "view",
			"type": "function"
		},
		{
			"inputs": [],
			"name": "cobbDouglasAlphaNumerator",
			"outputs": [
				{
					"internalType": "uint32",
					"name": "",
					"type": "uint32"
				}
			],
			"stateMutability": "view",
			"type": "function"
		},
		{
			"inputs": [
				{
					"internalType": "bytes32",
					"name": "poolId",
					"type": "bytes32"
				},
				{
					"internalType": "address",
					"name": "member",
					"type": "address"
				}
			],
			"name": "computeRewardBalanceOfDelegator",
			"outputs": [
				{
					"internalType": "uint256",
					"name": "reward",
					"type": "uint256"
				}
			],
			"stateMutability": "view",
			"type": "function"
		},
		{
			"inputs": [
				{
					"internalType": "bytes32",
					"name": "poolId",
					"type": "bytes32"
				}
			],
			"name": "computeRewardBalanceOfOperator",
			"outputs": [
				{
					"internalType": "uint256",
					"name": "reward",
					"type": "uint256"
				}
			],
			"stateMutability": "view",
			"type": "function"
		},
		{
			"inputs": [],
			"name": "currentEpoch",
			"outputs": [
				{
					"internalType": "uint256",
					"name": "",
					"type": "uint256"
				}
			],
			"stateMutability": "view",
			"type": "function"
		},
		{
			"inputs": [],
			"name": "currentEpochStartTimeInSeconds",
			"outputs": [
				{
					"internalType": "uint256",
					"name": "",
					"type": "uint256"
				}
			],
			"stateMutability": "view",
			"type": "function"
		},
		{
			"inputs": [],
			"name": "endEpoch",
			"outputs": [
				{
					"internalType": "uint256",
					"name": "",
					"type": "uint256"
				}
			],
			"stateMutability": "nonpayable",
			"type": "function"
		},
		{
			"inputs": [],
			"name": "epochDurationInSeconds",
			"outputs": [
				{
					"internalType": "uint256",
					"name": "",
					"type": "uint256"
				}
			],
			"stateMutability": "view",
			"type": "function"
		},
		{
			"inputs": [
				{
					"internalType": "bytes32",
					"name": "poolId",
					"type": "bytes32"
				}
			],
			"name": "finalizePool",
			"outputs": [],
			"stateMutability": "nonpayable",
			"type": "function"
		},
		{
			"inputs": [],
			"name": "getAuthorizedAddresses",
			"outputs": [
				{
					"internalType": "address[]",
					"name": "",
					"type": "address[]"
				}
			],
			"stateMutability": "view",
			"type": "function"
		},
		{
			"inputs": [],
			"name": "getCurrentEpochEarliestEndTimeInSeconds",
			"outputs": [
				{
					"internalType": "uint256",
					"name": "",
					"type": "uint256"
				}
			],
			"stateMutability": "view",
			"type": "function"
		},
		{
			"inputs": [],
			"name": "getDragoRegistry",
			"outputs": [
				{
					"internalType": "contract IDragoRegistry",
					"name": "dragoRegistry",
					"type": "address"
				}
			],
			"stateMutability": "view",
			"type": "function"
		},
		{
			"inputs": [
				{
					"internalType": "enum IStructs.StakeStatus",
					"name": "stakeStatus",
					"type": "uint8"
				}
			],
			"name": "getGlobalStakeByStatus",
			"outputs": [
				{
					"components": [
						{
							"internalType": "uint64",
							"name": "currentEpoch",
							"type": "uint64"
						},
						{
							"internalType": "uint96",
							"name": "currentEpochBalance",
							"type": "uint96"
						},
						{
							"internalType": "uint96",
							"name": "nextEpochBalance",
							"type": "uint96"
						}
					],
					"internalType": "struct IStructs.StoredBalance",
					"name": "balance",
					"type": "tuple"
				}
			],
			"stateMutability": "view",
			"type": "function"
		},
		{
			"inputs": [],
			"name": "getGrgContract",
			"outputs": [
				{
					"internalType": "contract RigoTokenFace",
					"name": "grgContract",
					"type": "address"
				}
			],
			"stateMutability": "view",
			"type": "function"
		},
		{
			"inputs": [],
			"name": "getGrgVault",
			"outputs": [
				{
					"internalType": "contract IGrgVault",
					"name": "grgVault",
					"type": "address"
				}
			],
			"stateMutability": "view",
			"type": "function"
		},
		{
			"inputs": [
				{
					"internalType": "address",
					"name": "staker",
					"type": "address"
				},
				{
					"internalType": "enum IStructs.StakeStatus",
					"name": "stakeStatus",
					"type": "uint8"
				}
			],
			"name": "getOwnerStakeByStatus",
			"outputs": [
				{
					"components": [
						{
							"internalType": "uint64",
							"name": "currentEpoch",
							"type": "uint64"
						},
						{
							"internalType": "uint96",
							"name": "currentEpochBalance",
							"type": "uint96"
						},
						{
							"internalType": "uint96",
							"name": "nextEpochBalance",
							"type": "uint96"
						}
					],
					"internalType": "struct IStructs.StoredBalance",
					"name": "balance",
					"type": "tuple"
				}
			],
			"stateMutability": "view",
			"type": "function"
		},
		{
			"inputs": [
				{
					"internalType": "address",
					"name": "staker",
					"type": "address"
				},
				{
					"internalType": "bytes32",
					"name": "poolId",
					"type": "bytes32"
				}
			],
			"name": "getStakeDelegatedToPoolByOwner",
			"outputs": [
				{
					"components": [
						{
							"internalType": "uint64",
							"name": "currentEpoch",
							"type": "uint64"
						},
						{
							"internalType": "uint96",
							"name": "currentEpochBalance",
							"type": "uint96"
						},
						{
							"internalType": "uint96",
							"name": "nextEpochBalance",
							"type": "uint96"
						}
					],
					"internalType": "struct IStructs.StoredBalance",
					"name": "balance",
					"type": "tuple"
				}
			],
			"stateMutability": "view",
			"type": "function"
		},
		{
			"inputs": [
				{
					"internalType": "address",
					"name": "staker",
					"type": "address"
				}
			],
			"name": "getTotalStake",
			"outputs": [
				{
					"internalType": "uint256",
					"name": "",
					"type": "uint256"
				}
			],
			"stateMutability": "view",
			"type": "function"
		},
		{
			"inputs": [
				{
					"internalType": "bytes32",
					"name": "poolId",
					"type": "bytes32"
				}
			],
			"name": "getTotalStakeDelegatedToPool",
			"outputs": [
				{
					"components": [
						{
							"internalType": "uint64",
							"name": "currentEpoch",
							"type": "uint64"
						},
						{
							"internalType": "uint96",
							"name": "currentEpochBalance",
							"type": "uint96"
						},
						{
							"internalType": "uint96",
							"name": "nextEpochBalance",
							"type": "uint96"
						}
					],
					"internalType": "struct IStructs.StoredBalance",
					"name": "balance",
					"type": "tuple"
				}
			],
			"stateMutability": "view",
			"type": "function"
		},
		{
			"inputs": [],
			"name": "getWethContract",
			"outputs": [
				{
					"internalType": "contract IEtherToken",
					"name": "wethContract",
					"type": "address"
				}
			],
			"stateMutability": "view",
			"type": "function"
		},
		{
			"inputs": [],
			"name": "grgReservedForPoolRewards",
			"outputs": [
				{
					"internalType": "uint256",
					"name": "",
					"type": "uint256"
				}
			],
			"stateMutability": "view",
			"type": "function"
		},
		{
			"inputs": [],
			"name": "lastPoolId",
			"outputs": [
				{
					"internalType": "bytes32",
					"name": "",
					"type": "bytes32"
				}
			],
			"stateMutability": "view",
			"type": "function"
		},
		{
			"inputs": [],
			"name": "minimumPoolStake",
			"outputs": [
				{
					"internalType": "uint256",
					"name": "",
					"type": "uint256"
				}
			],
			"stateMutability": "view",
			"type": "function"
		},
		{
			"inputs": [],
			"name": "owner",
			"outputs": [
				{
					"internalType": "address",
					"name": "",
					"type": "address"
				}
			],
			"stateMutability": "view",
			"type": "function"
		},
		{
			"inputs": [
				{
					"internalType": "address",
					"name": "",
					"type": "address"
				}
			],
			"name": "poolIdByRbPoolAccount",
			"outputs": [
				{
					"internalType": "bytes32",
					"name": "",
					"type": "bytes32"
				}
			],
			"stateMutability": "view",
			"type": "function"
		},
		{
			"inputs": [
				{
					"internalType": "bytes32",
					"name": "",
					"type": "bytes32"
				},
				{
					"internalType": "uint256",
					"name": "",
					"type": "uint256"
				}
			],
			"name": "poolStatsByEpoch",
			"outputs": [
				{
					"internalType": "uint256",
					"name": "feesCollected",
					"type": "uint256"
				},
				{
					"internalType": "uint256",
					"name": "weightedStake",
					"type": "uint256"
				},
				{
					"internalType": "uint256",
					"name": "membersStake",
					"type": "uint256"
				},
				{
					"internalType": "uint256",
					"name": "stakingPalStake",
					"type": "uint256"
				}
			],
			"stateMutability": "view",
			"type": "function"
		},
		{
			"inputs": [
				{
					"internalType": "address",
					"name": "target",
					"type": "address"
				}
			],
			"name": "removeAuthorizedAddress",
			"outputs": [],
			"stateMutability": "nonpayable",
			"type": "function"
		},
		{
			"inputs": [
				{
					"internalType": "address",
					"name": "target",
					"type": "address"
				},
				{
					"internalType": "uint256",
					"name": "index",
					"type": "uint256"
				}
			],
			"name": "removeAuthorizedAddressAtIndex",
			"outputs": [],
			"stateMutability": "nonpayable",
			"type": "function"
		},
		{
			"inputs": [],
			"name": "rewardDelegatedStakeWeight",
			"outputs": [
				{
					"internalType": "uint32",
					"name": "",
					"type": "uint32"
				}
			],
			"stateMutability": "view",
			"type": "function"
		},
		{
			"inputs": [
				{
					"internalType": "bytes32",
					"name": "",
					"type": "bytes32"
				}
			],
			"name": "rewardsByPoolId",
			"outputs": [
				{
					"internalType": "uint256",
					"name": "",
					"type": "uint256"
				}
			],
			"stateMutability": "view",
			"type": "function"
		},
		{
			"inputs": [],
			"name": "stakingContract",
			"outputs": [
				{
					"internalType": "address",
					"name": "",
					"type": "address"
				}
			],
			"stateMutability": "view",
			"type": "function"
		},
		{
			"inputs": [
				{
					"internalType": "address",
					"name": "newOwner",
					"type": "address"
				}
			],
			"name": "transferOwnership",
			"outputs": [],
			"stateMutability": "nonpayable",
			"type": "function"
		},
		{
			"inputs": [
				{
					"internalType": "address",
					"name": "",
					"type": "address"
				}
			],
			"name": "validPops",
			"outputs": [
				{
					"internalType": "bool",
					"name": "",
					"type": "bool"
				}
			],
			"stateMutability": "view",
			"type": "function"
		},
		{
			"inputs": [
				{
					"internalType": "bytes32",
					"name": "poolId",
					"type": "bytes32"
				}
			],
			"name": "withdrawDelegatorRewards",
			"outputs": [],
			"stateMutability": "nonpayable",
			"type": "function"
		}
	]
}