{
	"data": {
		"bytecode": {
			"linkReferences": {},
			"object": "6080604052600080546001600160a01b031916331790556146a5806100256000396000f3fe60806040526004361061027d5760003560e01c80639ad267441161014f578063c18c9141116100c1578063e907f0031161007a578063e907f00314610765578063ee99205c14610785578063ef4ba6801461079a578063f252b7a1146107af578063f2fde38b146107cf578063ff691b11146107ef5761027d565b8063c18c9141146106c4578063d39de6e9146106e4578063e0822db714610706578063e0ee036e1461071b578063e804d0a414610730578063e8eeb3f8146107505761027d565b8063b2baa33e11610113578063b2baa33e1461061a578063b510879f1461062f578063b652b41f1461064f578063b918161114610664578063bb7ef7e014610684578063be111af4146106a45761027d565b80639ad26744146105a8578063a26171e2146105c8578063a3b4a327146105dd578063a657e579146105f0578063b0531524146106055761027d565b806346b97959116101f357806363403801116101ac5780636340380114610507578063707129391461051c578063766718081461053c5780637fa140c71461055157806381666796146105715780638da5cb5b146105935761027d565b806346b979591461041e578063494503d41461044b5780634bcc3f6714610478578063540c2d53146104a5578063587da023146104d25780635d91121d146104e75761027d565b80632a94c279116102455780632a94c2791461032f57806338229d931461035e5780633c277fc51461038f5780633e4ad732146103b157806342f1181e146103de57806344a6958b146103fe5761027d565b806301e28d84146102825780630b9663db146102a45780631a67a0a0146102cf5780631e7ff8f6146102ef5780631f81eb801461030f575b600080fd5b34801561028e57600080fd5b506102a261029d366004613cfa565b61080f565b005b3480156102b057600080fd5b506102b96108a5565b6040516102c691906142d3565b60405180910390f35b3480156102db57600080fd5b506102a26102ea366004613ed4565b6109f2565b3480156102fb57600080fd5b506102b961030a366004613cfa565b610b2e565b34801561031b57600080fd5b506102a261032a366004613cfa565b610bbb565b34801561033b57600080fd5b5061034f61034a366004613f04565b610c45565b6040516102c69392919061441a565b34801561036a57600080fd5b5061037e610379366004613eb6565b610c71565b6040516102c695949392919061445d565b34801561039b57600080fd5b506103a4610ca0565b6040516102c69190614332565b3480156103bd57600080fd5b506103d16103cc366004613eb6565b610cb8565b6040516102c6919061440c565b3480156103ea57600080fd5b506102a26103f9366004613cfa565b610cd7565b34801561040a57600080fd5b506103d1610419366004613db3565b610ceb565b34801561042a57600080fd5b5061043e610439366004613eb6565b610d3d565b6040516102c691906143f0565b34801561045757600080fd5b5061046b610466366004613eb6565b610d88565b6040516102c69190614248565b34801561048457600080fd5b50610498610493366004613eb6565b610daf565b6040516102c691906143fe565b3480156104b157600080fd5b506104c56104c0366004613cfa565b610e09565b6040516102c691906142c5565b3480156104de57600080fd5b506102b9610e1e565b3480156104f357600080fd5b506102a2610502366004613f23565b610e24565b34801561051357600080fd5b506102b9610ec1565b34801561052857600080fd5b506102a2610537366004613cfa565b610ec7565b34801561054857600080fd5b506102b9610f55565b34801561055d57600080fd5b506102b961056c366004613cfa565b610f5b565b34801561057d57600080fd5b50610586610f6d565b6040516102c6919061449f565b34801561059f57600080fd5b5061046b610f79565b3480156105b457600080fd5b506102a26105c3366004613d83565b610f88565b3480156105d457600080fd5b506102b9610f9a565b6102a26105eb366004613d36565b610fa0565b3480156105fc57600080fd5b506102b96111af565b34801561061157600080fd5b506102b96111b5565b34801561062657600080fd5b506102b96111bb565b34801561063b57600080fd5b506102a261064a366004613eb6565b6111d9565b34801561065b57600080fd5b506103a46111e3565b34801561067057600080fd5b506104c561067f366004613cfa565b6111fb565b34801561069057600080fd5b506102b961069f366004613eb6565b611210565b3480156106b057600080fd5b506102b96106bf366004613cfa565b61128d565b3480156106d057600080fd5b506102b96106df366004613eb6565b611453565b3480156106f057600080fd5b506106f9611465565b6040516102c691906142b4565b34801561071257600080fd5b506103a46114c7565b34801561072757600080fd5b506105866114df565b34801561073c57600080fd5b506103d161074b366004613f53565b6114eb565b34801561075c57600080fd5b5061058661161f565b34801561077157600080fd5b506102b9610780366004613ed4565b611633565b34801561079157600080fd5b5061046b6116c2565b3480156107a657600080fd5b506103a46116d1565b3480156107bb57600080fd5b506103d16107ca366004613d83565b6116e9565b3480156107db57600080fd5b506102a26107ea366004613cfa565b61171d565b3480156107fb57600080fd5b506102a261080a366004613eb6565b61178e565b6108176119e5565b6001600160a01b03811660009081526010602052604090205460ff1661084a5761084a610845600183611a0a565b611a61565b6001600160a01b03811660009081526010602052604090819020805460ff19169055517f9bf55462cb5fa187f725d06de0a70bc01c4e40695570bdc25ad116f9be46bda79061089a908390614248565b60405180910390a150565b600c54600090816108bd82600163ffffffff611a6916565b60008181526016602052604090206001015490915080156108e5576108e56108458383611a88565b6108ed611aa5565b6108f5611b0a565b60008481526016602052604090205561090c613b8d565b50600083815260166020908152604091829020825160a08101845281548082526001830154938201849052600283015482860181905260038401546060840181905260049094015460808401529451919488947fbb4a26fa0ace13ee4da343896c20eaa44a618fb9071fdd8c2e2c960a4583189d9461098e9491939291614428565b60405180910390a261099e611ba1565b60208101516109e557805160405185917fb463d19ecf455be65365092cf8e1db6934a0334cf8cd532ddf9964d01f36b5b2916109dc91600091614392565b60405180910390a25b6020015193505050505b90565b6000806109fd6111e3565b60405163309dfc6b60e21b81526001600160a01b03919091169063c277f1ac90610a2b9087906004016142d3565b60006040518083038186803b158015610a4357600080fd5b505afa158015610a57573d6000803e3d6000fd5b505050506040513d6000823e601f3d908101601f19168201604052610a7f9190810190613de3565b50509350505091506000811415610ab15760405162461bcd60e51b8152600401610aa8906143a0565b60405180910390fd5b826001600160a01b0316826001600160a01b031614610ae25760405162461bcd60e51b8152600401610aa8906143b0565b6001600160a01b038083166000908152600960205260408082208790555186928616917fe8b9f7ee7a4480d45b60e98f7b2090dd82e2353b8557a6ee2dd2d5ee9196bac291a350505050565b6000610b386114c7565b6001600160a01b03166370a08231836040518263ffffffff1660e01b8152600401610b639190614248565b60206040518083038186803b158015610b7b57600080fd5b505afa158015610b8f573d6000803e3d6000fd5b505050506040513d601f19601f82011682018060405250610bb39190810190613f71565b90505b919050565b610bc36119e5565b6001600160a01b03811660009081526010602052604090205460ff1615610bf257610bf2610845600083611a0a565b6001600160a01b03811660009081526010602052604090819020805460ff19166001179055517f5738ee3c8e8fe8b0b9c4c21b16fdca42ec02e271237dfeabbf3b5af1584d732b9061089a908390614248565b601560209081526000928352604080842090915290825290208054600182015460029092015490919083565b601660205260009081526040902080546001820154600283015460038401546004909401549293919290919085565b73c02aaa39b223fe8d0a0e5c4f27ead9083c756cc290565b610cc0613bbc565b6000828152600760205260409020610bb390611be4565b610cdf611c68565b610ce881611c95565b50565b610cf3613bbc565b610d3460056000846001811115610d0657fe5b60ff168152602080820192909252604090810160009081206001600160a01b03881682529092529020611be4565b90505b92915050565b610d45613bdc565b506000908152601560209081526040808320600c548452825291829020825160608101845281548152600182015492810192909252600201549181019190915290565b60028181548110610d9557fe5b6000918252602090912001546001600160a01b0316905081565b610db7613bbc565b506000908152600a6020908152604091829020825160608101845281546001600160a01b038082168352600160a01b90910463ffffffff16938201939093526001909101549091169181019190915290565b60106020526000908152604090205460ff1681565b600d5481565b81610e2e81611d69565b6000838152600a6020526040902054600160a01b900463ffffffff16610e55848285611d95565b6000848152600a602052604090819020805463ffffffff60a01b1916600160a01b63ffffffff8716021790555184907f8ea2a7a959bd25f226b7b0a4393613f7fdcaa8404e8bad96aa52dc1c1459016790610eb390849087906144ad565b60405180910390a250505050565b60115481565b610ecf611c68565b6001600160a01b03811660009081526001602052604090205460ff16610efb57610efb61084582611ddd565b60005b600254811015610f5157816001600160a01b031660028281548110610f1f57fe5b6000918252602090912001546001600160a01b03161415610f4957610f448282611e31565b610f51565b600101610efe565b5050565b600c5481565b60096020526000908152604090205481565b60145463ffffffff1681565b6000546001600160a01b031681565b610f90611c68565b610f518282611e31565b60135481565b3360009081526010602052604090205460ff16610fc357610fc361084533611fa6565b610fcc81611fc1565b3461107657610fd9610ca0565b6001600160a01b03166323b872dd8330846040518463ffffffff1660e01b815260040161100893929190614271565b602060405180830381600087803b15801561102257600080fd5b505af1158015611036573d6000803e3d6000fd5b505050506040513d601f19601f8201168201806040525061105a9190810190613e98565b6110765760405162461bcd60e51b8152600401610aa8906143e0565b6001600160a01b0383166000908152600960205260409020548061109a57506111aa565b60006110a582610cb8565b602001516001600160601b031690506013548110156110c55750506111aa565b600c54600083815260156020908152604080832084845282528083206016909252909120815480611174576000806110fd8888611fe2565b600287018290556001870181905560038601549193509150611125908263ffffffff61205c16565b600385015560018085015461113f9163ffffffff61205c16565b6001850155604051889087907f14b098103235344975b17508c2391721cc9ac3f3fa2b56c7ff46f8480dfd074f90600090a350505b611184818863ffffffff61205c16565b8355600282015461119b908863ffffffff61205c16565b82600201819055505050505050505b505050565b60085481565b60175481565b60006111d4601154600d5461205c90919063ffffffff16565b905090565b610ce88133612078565b73de6445484a8dcd9bf35fc95eb4e3990cc358822e90565b60016020526000908152604090205460ff1681565b600061121a613bbc565b506000828152600a60209081526040808320815160608101835281546001600160a01b038082168352600160a01b90910463ffffffff1694820194909452600190910154909216908201529080611270856121eb565b91509150611283836020015183836122a8565b5095945050505050565b600080600061129a6111e3565b6001600160a01b031663b72e717d856040518263ffffffff1660e01b81526004016112c59190614248565b60006040518083038186803b1580156112dd57600080fd5b505afa1580156112f1573d6000803e3d6000fd5b505050506040513d6000823e601f3d908101601f191682016040526113199190810190613f8f565b509450505050915060008214156113425760405162461bcd60e51b8152600401610aa8906143c0565b8060006001600160a01b03821633146113585750335b620aae60611365856122e9565b8460001b955061137986620f424083611d95565b611381613bbc565b50604080516060810182526001600160a01b03808616825263ffffffff808516602080850191825287841685870190815260008d8152600a90925290869020855181549351909416600160a01b0263ffffffff60a01b199486166001600160a01b03199485161794909416939093178355516001909201805492909316911617905590517fcec6fc86ea644053f6edff1160dfe3fa5c61e7a5ef9f873f145bb03a0bd319e790611436908990879086906142e1565b60405180910390a161144887896109f2565b505050505050919050565b600b6020526000908152604090205481565b606060028054806020026020016040519081016040528092919081815260200182805480156114bd57602002820191906000526020600020905b81546001600160a01b0316815260019091019060200180831161149f575b5050505050905090565b73ba7f8b5fb1b19c1211c5d49550fcd149177a5eaf90565b60125463ffffffff1681565b6114f3613bbc565b600160005260046020526115267fabd6e7cb50984ff9c2f3e18a2660c3353dadf4e3291deeb275dae2cd1e44fe05611be4565b9050600082600181111561153657fe5b1415610bb65760006115466114c7565b6001600160a01b0316636b6df5aa6040518163ffffffff1660e01b815260040160206040518083038186803b15801561157e57600080fd5b505afa158015611592573d6000803e3d6000fd5b505050506040513d601f19601f820116820180604052506115b69190810190613f71565b90506115e06115db83602001516001600160601b031683611a6990919063ffffffff16565b612314565b6001600160601b039081166020840152604083015161160b916115db9184911663ffffffff611a6916565b6001600160601b0316604083015250919050565b601454640100000000900463ffffffff1681565b600061163d613bbc565b506000838152600a60209081526040808320815160608101835281546001600160a01b038082168352600160a01b90910463ffffffff1694820194909452600190910154909216908201529080611693866121eb565b9150915060006116a8846020015184846122a8565b9150506116b787878385612333565b979650505050505050565b6003546001600160a01b031681565b734fbb350052bca5417566f188eb2ebce5b19bc96490565b6116f1613bbc565b6001600160a01b03831660009081526006602090815260408083208584529091529020610d3490611be4565b611725611c68565b6001600160a01b0381166117435761173e61084561244b565b610ce8565b600080546001600160a01b0319166001600160a01b0383169081178255604051909133917f8be0079c531659141344cd1fd0a4f28419497f9722a3daafe3b4186f6b6457e09190a350565b61179733612469565b156117b757336000908152601060205260409020805460ff191660011790555b600c5460006117cd82600163ffffffff611a6916565b90506117d7613b8d565b50600081815260166020908152604091829020825160a0810184528154815260018201549281018390526002820154938101939093526003810154606084015260040154608083015261182c57505050610ce8565b611834613bdc565b50600084815260156020908152604080832085845282529182902082516060810184528154808252600183015493820193909352600290910154928101929092526118825750505050610ce8565b60008581526015602090815260408083208684529091528120818155600181018290556002018190556118b5828461246f565b90506000806118c9888486604001516126f0565b9150915087877ff1116b309178aa62dcb6bf8c3b8bc2321724907c7ebf52192d14c8ce3aa9194c8484604051611900929190614324565b60405180910390a3600061191a838363ffffffff61205c16565b6080870151909150611932908263ffffffff61205c16565b6080870181905260008881526016602090815260409091206004019190915586015161196590600163ffffffff611a6916565b602080880182815260008a81526016909252604090912060010191909155516119da576080860151865188917fb463d19ecf455be65365092cf8e1db6934a0334cf8cd532ddf9964d01f36b5b2916119c3908263ffffffff611a6916565b6040516119d1929190614324565b60405180910390a25b505050505050505050565b3360009081526001602052604090205460ff16611a0857611a086108453361280f565b565b606063b9588e4360e01b8383604051602401611a27929190614384565b60408051601f198184030181529190526020810180516001600160e01b03166001600160e01b031990931692909217909152905092915050565b805160208201fd5b600082821115611a8257611a826108456002858561282a565b50900390565b606063614b800a60e01b8383604051602401611a27929190614324565b478015610ce857611ab4610ca0565b6001600160a01b031663d0e30db0826040518263ffffffff1660e01b81526004016000604051808303818588803b158015611aee57600080fd5b505af1158015611b02573d6000803e3d6000fd5b505050505050565b60006111d4601754611b1a610ca0565b6001600160a01b03166370a08231306040518263ffffffff1660e01b8152600401611b459190614248565b60206040518083038186803b158015611b5d57600080fd5b505afa158015611b71573d6000803e3d6000fd5b505050506040513d601f19601f82011682018060405250611b959190810190613f71565b9063ffffffff611a6916565b426000611bac6111bb565b905081811115611bc357611bc36108458284612885565b600c54600090611bda90600163ffffffff61205c16565b600c555050600d55565b611bec613bbc565b506040805160608101825282546001600160401b0381168083526001600160601b03600160401b830481166020850152600160a01b90920490911692820192909252600c549091811115611c6257611c43816128a2565b6001600160401b0316825260408201516001600160601b031660208301525b50919050565b6000546001600160a01b03163314611a0857600054611a08906108459033906001600160a01b03166128c1565b6001600160a01b038116611cae57611cae6108456128de565b6001600160a01b03811660009081526001602052604090205460ff1615611cdb57611cdb610845826128fc565b6001600160a01b0381166000818152600160208190526040808320805460ff19168317905560028054928301815583527f405787fa12a823e0f2b7631cc41b3ba8828b3321ca811111fa75cd3aa3bb5ace90910180546001600160a01b03191684179055513392917f3147867c59d17e8fa9d522465651d44aae0a9e38f902f3475b97e58072f0ed4c91a350565b6000818152600a60205260409020546001600160a01b0316338114610f5157610f516108453384612917565b620f424063ffffffff82161115611dba57611db561084560008584612934565b6111aa565b8163ffffffff168163ffffffff1611156111aa576111aa61084560018584612934565b606063eb5108a260e01b82604051602401611df89190614248565b60408051601f198184030181529190526020810180516001600160e01b03166001600160e01b0319909316929092179091529050919050565b6001600160a01b03821660009081526001602052604090205460ff16611e5d57611e5d61084583611ddd565b6002548110611e7857611e7861084582600280549050612953565b816001600160a01b031660028281548110611e8f57fe5b6000918252602090912001546001600160a01b031614611ed757611ed761084560028381548110611ebc57fe5b6000918252602090912001546001600160a01b031684612970565b6001600160a01b0382166000908152600160205260409020805460ff19169055600280546000198101908110611f0957fe5b600091825260209091200154600280546001600160a01b039092169183908110611f2f57fe5b600091825260209091200180546001600160a01b0319166001600160a01b0392909216919091179055600280546000190190611f6b9082613bfd565b5060405133906001600160a01b038416907f1f32c1b084e2de0713b8fb16bd46bb9df710a3dbeae2f3ca93af46e016dcc6b090600090a35050565b606063b56d2df060e01b82604051602401611df89190614248565b803414158015611fd057503415155b15610ce857610ce8610845823461298d565b6000828152600a602052604081205481908190612008906001600160a01b0316866116e9565b602001516001600160601b03169050612027848263ffffffff611a6916565b601254909350612052906120459063ffffffff16620f4240866129aa565b829063ffffffff61205c16565b9150509250929050565b600082820183811015610d3457610d346108456000868661282a565b612081826129cc565b60006120908383600080612333565b6001600160a01b038316600090815260066020908152604080832087845290915290209091506120bf90611be4565b6001600160a01b0383811660009081526006602090815260408083208884528252918290208451815492860151959093015167ffffffffffffffff199092166001600160401b039093169290921773ffffffffffffffffffffffff00000000000000001916600160401b6001600160601b039586160217909216600160a01b939092169290920217905580156121e2576121598382612a40565b612161610ca0565b6001600160a01b031663a9059cbb83836040518363ffffffff1660e01b815260040161218e929190614299565b602060405180830381600087803b1580156121a857600080fd5b505af11580156121bc573d6000803e3d6000fd5b505050506040513d601f19601f820116820180604052506121e09190810190613e98565b505b6111aa83612a88565b60008060006122066001600c54611a6990919063ffffffff16565b9050612210613bdc565b50600084815260156020908152604080832084845282528083208151606080820184528254825260018084015483870152600293840154838601528787526016865295849020845160a081018652815481529681015495870195909552918401549285019290925260038301549084015260049091015460808301529061229890829061246f565b9350806040015192505050915091565b600080826122b8578391506122e1565b6122cc63ffffffff8616620f424086612a95565b91506122de848363ffffffff611a6916565b90505b935093915050565b6000818152600a60205260409020546001600160a01b031615610ce857610ce8610845826000612acb565b806001600160601b0381168114610bb657610bb6610845600284612ae8565b600c54600090612341613bbc565b506001600160a01b0385166000908152600660209081526040808320898452825291829020825160608101845290546001600160401b0381168083526001600160601b03600160401b8304811694840194909452600160a01b909104909216928101929092528214156123b957600092505050612443565b6123c581838787612b05565b81519093506000906123e7906001600160401b0316600163ffffffff61205c16565b905061241f6124128984602001516001600160601b031685600001516001600160401b031685612b82565b859063ffffffff61205c16565b935061243d6124128984604001516001600160601b03168487612b82565b93505050505b949350505050565b604080518082019091526004815263734f6e1f60e11b602082015290565b3b151590565b815160009061247d57610d37565b60006124876116d1565b6001600160a01b031663075461726040518163ffffffff1660e01b815260040160206040518083038186803b1580156124bf57600080fd5b505afa1580156124d3573d6000803e3d6000fd5b505050506040513d601f19601f820116820180604052506124f79190810190613d18565b90506000816001600160a01b031663e70eadc06040518163ffffffff1660e01b815260040160206040518083038186803b15801561253457600080fd5b505afa158015612548573d6000803e3d6000fd5b505050506040513d601f19601f8201168201806040525061256c9190810190613d18565b60405163f36766c160e01b81526001600160a01b03919091169063f36766c19061259b906001906004016142d3565b60206040518083038186803b1580156125b357600080fd5b505afa1580156125c7573d6000803e3d6000fd5b505050506040513d601f19601f820116820180604052506125eb9190810190613f71565b90506000826001600160a01b031663ef78d4fd6040518163ffffffff1660e01b815260040160206040518083038186803b15801561262857600080fd5b505afa15801561263c573d6000803e3d6000fd5b505050506040513d601f19601f820116820180604052506126609190810190613f71565b9050600061266e6001610cb8565b6020908101519088015160608801516014546001600160601b0390931693506301e1338085850204926126ba92849288928492919063ffffffff80821691640100000000900416612c01565b608088015188519197506000916126d69163ffffffff611a6916565b9050868110156126e4578096505b50505050505092915050565b6000806126fb613bbc565b506000858152600a6020908152604091829020825160608101845281546001600160a01b038082168352600160a01b90910463ffffffff16938201849052600190920154909116928101929092526127549086866122a8565b909350915082156127eb57612767610ca0565b815160405163a9059cbb60e01b81526001600160a01b03929092169163a9059cbb91612797918790600401614299565b602060405180830381600087803b1580156127b157600080fd5b505af11580156127c5573d6000803e3d6000fd5b505050506040513d601f19601f820116820180604052506127e99190810190613e98565b505b8115612806576127fb8683612cc4565b612806868386612d05565b50935093915050565b606063b65a25b960e01b82604051602401611df89190614248565b606063e946c1bb60e01b84848460405160240161284993929190614340565b60408051601f198184030181529190526020810180516001600160e01b03166001600160e01b03199093169290921790915290505b9392505050565b606063a6bcde4760e01b8383604051602401611a27929190614324565b806001600160401b0381168114610bb657610bb6610845600184612ae8565b6060631de45ad160e01b8383604051602401611a27929190614256565b60408051808201909152600481526315d953f960e21b602082015290565b606063de16f1a060e01b82604051602401611df89190614248565b60606382ded78560e01b8383604051602401611a27929190614299565b60606322df959760e01b84848460405160240161284993929190614369565b606063e9f8377160e01b8383604051602401611a27929190614324565b606063140a84db60e01b8383604051602401611a27929190614256565b60606331d7a50560e01b8383604051602401611a27929190614324565b6000612443836129c0868563ffffffff612dee16565b9063ffffffff612e1f16565b600c546000906129e390600163ffffffff611a6916565b90506129ed613bdc565b5060008281526015602090815260408083208484528252918290208251606081018452815480825260018301549382019390935260029091015492810192909252156111aa576111aa6108458484612e49565b6000828152600b6020526040902054612a5f908263ffffffff611a6916565b6000838152600b6020526040902055601754612a81908263ffffffff611a6916565b6017555050565b610ce88160006001612d05565b6000612443836129c0612aaf82600163ffffffff611a6916565b612abf888763ffffffff612dee16565b9063ffffffff61205c16565b6060639ae94f0160e01b8383604051602401611a27929190614309565b606063c996af7b60e01b8383604051602401611a2792919061435b565b6000821580612b12575081155b15612b1f57506000612443565b6000612b3285600163ffffffff611a6916565b86516001600160401b03161015612b4d578560400151612b53565b85602001515b6001600160601b0316905080612b6d576000915050612443565b612b788484836129aa565b9695505050505050565b6000831580612b9057508183145b15612b9d57506000612443565b818310612bbc5760405162461bcd60e51b8152600401610aa8906143d0565b612bc4613c21565b612bce8685612e66565b9050612bd8613c21565b612be28785612e66565b90506116b781600001518260200151846000015185602001518a612f84565b600080612c0e8888613010565b90506000612c1c8787613010565b9050811580612c29575080155b15612c3a5750600091506116b79050565b600081831315612c5357612c4e8284613056565b612c5d565b612c5d8383613056565b9050612c86612c81612c6e83613069565b8863ffffffff168863ffffffff166134be565b6134cd565b905081831315612c9f57612c9a8282613056565b612ca9565b612ca98282613933565b9050612cb5818c613953565b9b9a5050505050505050505050565b6000828152600b6020526040902054612ce3908263ffffffff61205c16565b6000838152600b6020526040902055601754612a81908263ffffffff61205c16565b6000838152600f6020526040902054600c5480821415612d265750506111aa565b612d2e613c21565b506000858152600e602090815260408083208584528252918290208251808401909352805483526001015490820152612d65613c21565b612d6e82613995565b15612da757612d8782600001518360200151888861399e565b60208301819052818352612d9b9190613a00565b60208301528152612db2565b602081018590528581525b6000878152600e6020908152604080832086845282528083208451815593820151600190940193909355978152600f9097529095205550505050565b600082612dfd57506000610d37565b82820282848281612e0a57fe5b0414610d3457610d346108456001868661282a565b600081612e3557612e356108456003858561282a565b6000828481612e4057fe5b04949350505050565b6060635caa0b0560e01b8383604051602401611a27929190614324565b612e6e613c21565b506000828152600e602090815260408083208484528252918290208251808401909352805483526001015490820152612ea681613995565b15612eb057610d37565b6000612ec383600163ffffffff611a6916565b6000858152600e60209081526040808320848452825291829020825180840190935280548352600101549082015292509050612efe82613995565b15612f095750610d37565b6000848152600f602052604090205483811015612f66576000858152600e6020908152604080832084845282529182902082518084019093528054835260010154908201529250612f5983613995565b15612f665750610d379050565b50506040805180820190915260008152600160208201529392505050565b600081612f9357506000613007565b83612fb357612fac856129c0848963ffffffff612dee16565b9050613007565b6000612fd8612fc8868863ffffffff612dee16565b611b95898763ffffffff612dee16565b90506000612fec828663ffffffff612e1f16565b9050613002876129c0868463ffffffff612dee16565b925050505b95945050505050565b60008083121561302857613028610845600185613a1d565b600082121561303f5761303f610845600184613a1d565b61287e613050846001607f1b613a45565b83613a98565b600061287e613050846001607f1b613a45565b60006001607f1b82131561308557613085610845600184613adf565b6000821361309b5761309b610845600084613adf565b6001607f1b8214156130af57506000610bb6565b640733048c5a82136130cb575060016101ff607c1b0319610bb6565b60008060006a01c8464f76164760000000851361311057700fffffffffffffffffffffffffffffffff19909301926a01c8464f761647600000006001607f1b86020594505b6cf1aaddd7742e900000000000008513613154577007ffffffffffffffffffffffffffffffff19909301926cf1aaddd7742e900000000000006001607f1b86020594505b6615fc21041027af603f1b8513613192577003ffffffffffffffffffffffffffffffff19909301926615fc21041027af603f1b6001607f1b86020594505b660960aadc109e7b60461b85136131d0577001ffffffffffffffffffffffffffffffff1990930192660960aadc109e7b60461b6001607f1b86020594505b660454aaa8efe073604a1b851361320d576fffffffffffffffffffffffffffffffff1990930192660454aaa8efe073604a1b6001607f1b86020594505b6602f16ac6c59de7604c1b85136132415760016001607f1b0319909301926602f16ac6c59de7604c1b6001607f1b86020594505b6609b4597e37cb05604b1b851361327e576f3fffffffffffffffffffffffffffffff19909301926609b4597e37cb05604b1b6001607f1b86020594505b6618ebef9eac820b604a1b85136132bb576f1fffffffffffffffffffffffffffffff19909301926618ebef9eac820b604a1b6001607f1b86020594505b6f70f5a893b608861e1f58934f97aea57d8513613304576f0fffffffffffffffffffffffffffffff19909301926f70f5a893b608861e1f58934f97aea57d6001607f1b86020594505b60016001607f1b0319850192508291506001607f1b828002059050600160801b838103830205840193506001607f1b8183028161333d57fe5b059150600160811b836faaaaaaaaaaaaaaaaaaaaaaaaaaaaaaaa0383028161336157fe5b05840193506001607f1b8183028161337557fe5b059150600360801b836f999999999999999999999999999999990383028161339957fe5b05840193506001607f1b818302816133ad57fe5b059150600160821b836f92492492492492492492492492492492038302816133d157fe5b05840193506001607f1b818302816133e557fe5b059150600560801b836f8e38e38e38e38e38e38e38e38e38e38e0383028161340957fe5b05840193506001607f1b8183028161341d57fe5b059150600360811b836f8ba2e8ba2e8ba2e8ba2e8ba2e8ba2e8b0383028161344157fe5b05840193506001607f1b8183028161345557fe5b059150600760801b836f89d89d89d89d89d89d89d89d89d89d890383028161347957fe5b05840193506001607f1b8183028161348d57fe5b059150600160831b836f88888888888888888888888888888888038302816134b157fe5b0584019350505050919050565b60006124436130508585613a45565b600060016101ff607c1b03198212156134e857506000610bb6565b816134f857506001607f1b610bb6565b600082131561350f5761350f610845600184613adf565b6001607f1b6001607c1b83078080028290056710e1b3be415a0000810293909301929091818302059050806705a0913f6b1e000002830192506001607f1b8282028161355757fe5b05905080670168244fdac7800002830192506001607f1b8282028161357857fe5b05905080664807432bc1800002830192506001607f1b8282028161359857fe5b05905080660c0135dca0400002830192506001607f1b828202816135b857fe5b059050806601b707b1cdc00002830192506001607f1b828202816135d857fe5b059050806536e0f639b80002830192506001607f1b828202816135f757fe5b05905080650618fee9f80002830192506001607f1b8282028161361657fe5b05905080649c197dcc0002830192506001607f1b8282028161363457fe5b05905080640e30dce40002830192506001607f1b8282028161365257fe5b0590508064012ebd130002830192506001607f1b8282028161367057fe5b059050806317499f0002830192506001607f1b8282028161368d57fe5b059050806301a9d48002830192506001607f1b828202816136aa57fe5b05905080621c638002830192506001607f1b828202816136c657fe5b059050806201c63802830192506001607f1b828202816136e257fe5b05905080611ab802830192506001607f1b828202816136fd57fe5b0590508061017c02830192506001607f1b8282028161371857fe5b05905080601402830192506001607f1b8282028161373257fe5b600095909503946721c3677c82b400009190059384010582016001607f1b01929050600160841b841615613788577243cbaf42a000812488fc5c220ad7b97bf6e99e6cf1aaddd7742e56d32fb9f9974484020592505b600160831b8416156137bd577105d27a9f51c31b7c2f8038212a05747799916e0afe10820813d65dfe6a33c07f738f84020592505b600160821b8416156137f257701b4c902e273a58678d6d3bfdb93db96d026f02582ab704279e8efd15e0265855c47a84020592505b600160811b841615613827577003b1cc971a9bb5b9867477440d6d1577506f1152aaa3bf81cb9fdb76eae12d02957184020592505b600160801b84161561385c5770015bf0a8b1457695355fb8ac404e7a79e36f2f16ac6c59de6f8d5d6f63c1482a7c8684020592505b6001607f1b841615613890576fd3094c70f034de4b96ff7d5b6f99fcd86f4da2cbf1be5827f9eb3ad1aa9866ebb384020592505b6001607e1b8416156138c4576fa45af1e1f40c333b3de1db4dd55f29a76f63afbe7ab2082ba1a0ae5e4eb1b479dc84020592505b6001607d1b8416156138f8576f910b022db7ae67ce76b441c27035c6a16f70f5a893b608861e1f58934f97aea57d84020592505b6001607c1b84161561392c576f88415abbe9a76bead8d00cf112e4d4a86f783eafef1c0a8f3978c7f81824d62ebf84020592505b5050919050565b60006001607f1b6139448484613a45565b8161394b57fe5b059392505050565b60008082121561396b5761396b610845600184613a1d565b60006139778484613a45565b90506000811361398b576000915050610d37565b607f1c9392505050565b60200151151590565b600080856139b05750829050816139f7565b836139bf5750849050836139f7565b6139e26139d2858763ffffffff612dee16565b612abf888663ffffffff612dee16565b91506139f4858463ffffffff612dee16565b90505b94509492505050565b600080613a1284846001607f1b613af5565b915091509250929050565b606063bd79545f60e01b836001811115613a3357fe5b83604051602401611a279291906144c8565b6000821580613a52575081155b15613a5f57506000610d37565b5081810281838281613a6d57fe5b05141580613a84575082828281613a8057fe5b0514155b15610d3757610d3761084560018585613b63565b600081613aae57613aae61084560028585613b63565b600160ff1b83148015613ac2575081600019145b15613ad657613ad661084560038585613b63565b81838161394b57fe5b606063ed2f26a160e01b836001811115613a3357fe5b60008082851180613b0557508284115b15613b5a57600084861015613b1a5784613b1c565b855b9050613b2e818563ffffffff612e1f16565b9050613b40868263ffffffff612e1f16565b9250613b52858263ffffffff612e1f16565b9150506122e1565b50929391925050565b6060638c12dfe760e01b846003811115613b7957fe5b8484604051602401612849939291906144d6565b6040518060a0016040528060008152602001600081526020016000815260200160008152602001600081525090565b604080516060810182526000808252602082018190529181019190915290565b60405180606001604052806000815260200160008152602001600081525090565b8154818355818111156111aa576000838152602090206111aa918101908301613c3b565b604051806040016040528060008152602001600081525090565b6109ef91905b80821115613c555760008155600101613c41565b5090565b8035610d3781614626565b8051610d3781614626565b8051610d378161463a565b8035610d3781614643565b8035610d378161464c565b600082601f830112613ca157600080fd5b8151613cb4613caf8261450a565b6144e4565b91508082526020830160208301858383011115613cd057600080fd5b613cdb8382846145dc565b50505092915050565b8051610d3781614643565b8035610d3781614659565b600060208284031215613d0c57600080fd5b60006124438484613c59565b600060208284031215613d2a57600080fd5b60006124438484613c64565b600080600060608486031215613d4b57600080fd5b6000613d578686613c59565b9350506020613d6886828701613c59565b9250506040613d7986828701613c7a565b9150509250925092565b60008060408385031215613d9657600080fd5b6000613da28585613c59565b925050602061205285828601613c7a565b60008060408385031215613dc657600080fd5b6000613dd28585613c59565b925050602061205285828601613c85565b60008060008060008060c08789031215613dfc57600080fd5b6000613e088989613c64565b96505060208701516001600160401b03811115613e2457600080fd5b613e3089828a01613c90565b95505060408701516001600160401b03811115613e4c57600080fd5b613e5889828a01613c90565b9450506060613e6989828a01613ce4565b9350506080613e7a89828a01613c64565b92505060a0613e8b89828a01613c64565b9150509295509295509295565b600060208284031215613eaa57600080fd5b60006124438484613c6f565b600060208284031215613ec857600080fd5b60006124438484613c7a565b60008060408385031215613ee757600080fd5b6000613ef38585613c7a565b925050602061205285828601613c59565b60008060408385031215613f1757600080fd5b6000613da28585613c7a565b60008060408385031215613f3657600080fd5b6000613f428585613c7a565b925050602061205285828601613cef565b600060208284031215613f6557600080fd5b60006124438484613c85565b600060208284031215613f8357600080fd5b60006124438484613ce4565b60008060008060008060c08789031215613fa857600080fd5b6000613e088989613ce4565b6000613fc08383613fc8565b505060200190565b613fd181614544565b82525050565b6000613fe282614537565b613fec818561453b565b9350613ff783614531565b8060005b8381101561402557815161400f8882613fb4565b975061401a83614531565b925050600101613ffb565b509495945050505050565b613fd18161454f565b613fd1816109ef565b613fd1816145a5565b613fd1816145b0565b613fd1816145bb565b613fd1816145c6565b613fd1816145d1565b600061407c601c8361453b565b7f4e4f4e5f524547495354455245445f504f4f4c5f49445f4552524f5200000000815260200192915050565b60006140b5601b8361453b565b7f504f4f4c5f544f5f4a4f494e5f4e4f545f53454c465f4552524f520000000000815260200192915050565b60006140ee601c8361453b565b7f4e4f4e5f524547495354455245445f52425f504f4f4c5f4552524f5200000000815260200192915050565b600061412760138361453b565b7210d497d25395115495905317d2539590531251606a1b815260200192915050565b600061415660148361453b565b7315d1551217d514905394d1915497d1905253115160621b815260200192915050565b8051606083019061418a8482614039565b50602082015161419d6020850182614039565b5060408201516141b06040850182614039565b50505050565b805160608301906141c78482613fc8565b5060208201516141da6020850182614224565b5060408201516141b06040850182613fc8565b805160608301906141fe848261422d565b506020820151614211602085018261423f565b5060408201516141b0604085018261423f565b613fd18161457e565b613fd181614587565b613fd181614593565b613fd181614599565b60208101610d378284613fc8565b604081016142648285613fc8565b61287e6020830184613fc8565b6060810161427f8286613fc8565b61428c6020830185613fc8565b6124436040830184614039565b604081016142a78285613fc8565b61287e6020830184614039565b6020808252810161287e8184613fd7565b60208101610d378284614030565b60208101610d378284614039565b606081016142ef8286614039565b6142fc6020830185613fc8565b6124436040830184614224565b604081016143178285614039565b61287e6020830184614030565b604081016142a78285614039565b60208101610d378284614042565b6060810161434e828661404b565b61428c6020830185614039565b604081016142a78285614054565b60608101614377828661405d565b6142fc6020830185614039565b60408101614264828561405d565b604081016142a78285614066565b60208082528101610bb38161406f565b60208082528101610bb3816140a8565b60208082528101610bb3816140e1565b60208082528101610bb38161411a565b60208082528101610bb381614149565b60608101610d378284614179565b60608101610d3782846141b6565b60608101610d3782846141ed565b6060810161434e8286614039565b608081016144368287614039565b6144436020830186614039565b6144506040830185614039565b6130076060830184614039565b60a0810161446b8288614039565b6144786020830187614039565b6144856040830186614039565b6144926060830185614039565b612b786080830184614039565b60208101610d378284614224565b604081016144bb8285614224565b61287e6020830184614224565b604081016142a78285614236565b6060810161434e8286614236565b6040518181016001600160401b038111828210171561450257600080fd5b604052919050565b60006001600160401b0382111561452057600080fd5b506020601f91909101601f19160190565b60200190565b5190565b90815260200190565b6000610bb382614572565b151590565b80610bb681614608565b80610bb681614612565b80610bb68161461c565b6001600160a01b031690565b63ffffffff1690565b6001600160401b031690565b60ff1690565b6001600160601b031690565b6000610bb382614544565b6000610bb382614554565b6000610bb38261455e565b6000610bb382614568565b6000610bb3826109ef565b60005b838110156145f75781810151838201526020016145df565b838111156141b05750506000910152565b60048110610ce857fe5b60038110610ce857fe5b60028110610ce857fe5b61462f81614544565b8114610ce857600080fd5b61462f8161454f565b61462f816109ef565b60028110610ce857600080fd5b61462f8161457e56fea365627a7a723158200263057465fb761ac27637041bd6823183df8d86405598d3a2c774c7f040e71f6c6578706572696d656e74616cf564736f6c63430005110040",
			"opcodes": "PUSH1 0x80 PUSH1 0x40 MSTORE PUSH1 0x0 DUP1 SLOAD PUSH1 0x1 PUSH1 0x1 PUSH1 0xA0 SHL SUB NOT AND CALLER OR SWAP1 SSTORE PUSH2 0x46A5 DUP1 PUSH2 0x25 PUSH1 0x0 CODECOPY PUSH1 0x0 RETURN INVALID PUSH1 0x80 PUSH1 0x40 MSTORE PUSH1 0x4 CALLDATASIZE LT PUSH2 0x27D JUMPI PUSH1 0x0 CALLDATALOAD PUSH1 0xE0 SHR DUP1 PUSH4 0x9AD26744 GT PUSH2 0x14F JUMPI DUP1 PUSH4 0xC18C9141 GT PUSH2 0xC1 JUMPI DUP1 PUSH4 0xE907F003 GT PUSH2 0x7A JUMPI DUP1 PUSH4 0xE907F003 EQ PUSH2 0x765 JUMPI DUP1 PUSH4 0xEE99205C EQ PUSH2 0x785 JUMPI DUP1 PUSH4 0xEF4BA680 EQ PUSH2 0x79A JUMPI DUP1 PUSH4 0xF252B7A1 EQ PUSH2 0x7AF JUMPI DUP1 PUSH4 0xF2FDE38B EQ PUSH2 0x7CF JUMPI DUP1 PUSH4 0xFF691B11 EQ PUSH2 0x7EF JUMPI PUSH2 0x27D JUMP JUMPDEST DUP1 PUSH4 0xC18C9141 EQ PUSH2 0x6C4 JUMPI DUP1 PUSH4 0xD39DE6E9 EQ PUSH2 0x6E4 JUMPI DUP1 PUSH4 0xE0822DB7 EQ PUSH2 0x706 JUMPI DUP1 PUSH4 0xE0EE036E EQ PUSH2 0x71B JUMPI DUP1 PUSH4 0xE804D0A4 EQ PUSH2 0x730 JUMPI DUP1 PUSH4 0xE8EEB3F8 EQ PUSH2 0x750 JUMPI PUSH2 0x27D JUMP JUMPDEST DUP1 PUSH4 0xB2BAA33E GT PUSH2 0x113 JUMPI DUP1 PUSH4 0xB2BAA33E EQ PUSH2 0x61A JUMPI DUP1 PUSH4 0xB510879F EQ PUSH2 0x62F JUMPI DUP1 PUSH4 0xB652B41F EQ PUSH2 0x64F JUMPI DUP1 PUSH4 0xB9181611 EQ PUSH2 0x664 JUMPI DUP1 PUSH4 0xBB7EF7E0 EQ PUSH2 0x684 JUMPI DUP1 PUSH4 0xBE111AF4 EQ PUSH2 0x6A4 JUMPI PUSH2 0x27D JUMP JUMPDEST DUP1 PUSH4 0x9AD26744 EQ PUSH2 0x5A8 JUMPI DUP1 PUSH4 0xA26171E2 EQ PUSH2 0x5C8 JUMPI DUP1 PUSH4 0xA3B4A327 EQ PUSH2 0x5DD JUMPI DUP1 PUSH4 0xA657E579 EQ PUSH2 0x5F0 JUMPI DUP1 PUSH4 0xB0531524 EQ PUSH2 0x605 JUMPI PUSH2 0x27D JUMP JUMPDEST DUP1 PUSH4 0x46B97959 GT PUSH2 0x1F3 JUMPI DUP1 PUSH4 0x63403801 GT PUSH2 0x1AC JUMPI DUP1 PUSH4 0x63403801 EQ PUSH2 0x507 JUMPI DUP1 PUSH4 0x70712939 EQ PUSH2 0x51C JUMPI DUP1 PUSH4 0x76671808 EQ PUSH2 0x53C JUMPI DUP1 PUSH4 0x7FA140C7 EQ PUSH2 0x551 JUMPI DUP1 PUSH4 0x81666796 EQ PUSH2 0x571 JUMPI DUP1 PUSH4 0x8DA5CB5B EQ PUSH2 0x593 JUMPI PUSH2 0x27D JUMP JUMPDEST DUP1 PUSH4 0x46B97959 EQ PUSH2 0x41E JUMPI DUP1 PUSH4 0x494503D4 EQ PUSH2 0x44B JUMPI DUP1 PUSH4 0x4BCC3F67 EQ PUSH2 0x478 JUMPI DUP1 PUSH4 0x540C2D53 EQ PUSH2 0x4A5 JUMPI DUP1 PUSH4 0x587DA023 EQ PUSH2 0x4D2 JUMPI DUP1 PUSH4 0x5D91121D EQ PUSH2 0x4E7 JUMPI PUSH2 0x27D JUMP JUMPDEST DUP1 PUSH4 0x2A94C279 GT PUSH2 0x245 JUMPI DUP1 PUSH4 0x2A94C279 EQ PUSH2 0x32F JUMPI DUP1 PUSH4 0x38229D93 EQ PUSH2 0x35E JUMPI DUP1 PUSH4 0x3C277FC5 EQ PUSH2 0x38F JUMPI DUP1 PUSH4 0x3E4AD732 EQ PUSH2 0x3B1 JUMPI DUP1 PUSH4 0x42F1181E EQ PUSH2 0x3DE JUMPI DUP1 PUSH4 0x44A6958B EQ PUSH2 0x3FE JUMPI PUSH2 0x27D JUMP JUMPDEST DUP1 PUSH4 0x1E28D84 EQ PUSH2 0x282 JUMPI DUP1 PUSH4 0xB9663DB EQ PUSH2 0x2A4 JUMPI DUP1 PUSH4 0x1A67A0A0 EQ PUSH2 0x2CF JUMPI DUP1 PUSH4 0x1E7FF8F6 EQ PUSH2 0x2EF JUMPI DUP1 PUSH4 0x1F81EB80 EQ PUSH2 0x30F JUMPI JUMPDEST PUSH1 0x0 DUP1 REVERT JUMPDEST CALLVALUE DUP1 ISZERO PUSH2 0x28E JUMPI PUSH1 0x0 DUP1 REVERT JUMPDEST POP PUSH2 0x2A2 PUSH2 0x29D CALLDATASIZE PUSH1 0x4 PUSH2 0x3CFA JUMP JUMPDEST PUSH2 0x80F JUMP JUMPDEST STOP JUMPDEST CALLVALUE DUP1 ISZERO PUSH2 0x2B0 JUMPI PUSH1 0x0 DUP1 REVERT JUMPDEST POP PUSH2 0x2B9 PUSH2 0x8A5 JUMP JUMPDEST PUSH1 0x40 MLOAD PUSH2 0x2C6 SWAP2 SWAP1 PUSH2 0x42D3 JUMP JUMPDEST PUSH1 0x40 MLOAD DUP1 SWAP2 SUB SWAP1 RETURN JUMPDEST CALLVALUE DUP1 ISZERO PUSH2 0x2DB JUMPI PUSH1 0x0 DUP1 REVERT JUMPDEST POP PUSH2 0x2A2 PUSH2 0x2EA CALLDATASIZE PUSH1 0x4 PUSH2 0x3ED4 JUMP JUMPDEST PUSH2 0x9F2 JUMP JUMPDEST CALLVALUE DUP1 ISZERO PUSH2 0x2FB JUMPI PUSH1 0x0 DUP1 REVERT JUMPDEST POP PUSH2 0x2B9 PUSH2 0x30A CALLDATASIZE PUSH1 0x4 PUSH2 0x3CFA JUMP JUMPDEST PUSH2 0xB2E JUMP JUMPDEST CALLVALUE DUP1 ISZERO PUSH2 0x31B JUMPI PUSH1 0x0 DUP1 REVERT JUMPDEST POP PUSH2 0x2A2 PUSH2 0x32A CALLDATASIZE PUSH1 0x4 PUSH2 0x3CFA JUMP JUMPDEST PUSH2 0xBBB JUMP JUMPDEST CALLVALUE DUP1 ISZERO PUSH2 0x33B JUMPI PUSH1 0x0 DUP1 REVERT JUMPDEST POP PUSH2 0x34F PUSH2 0x34A CALLDATASIZE PUSH1 0x4 PUSH2 0x3F04 JUMP JUMPDEST PUSH2 0xC45 JUMP JUMPDEST PUSH1 0x40 MLOAD PUSH2 0x2C6 SWAP4 SWAP3 SWAP2 SWAP1 PUSH2 0x441A JUMP JUMPDEST CALLVALUE DUP1 ISZERO PUSH2 0x36A JUMPI PUSH1 0x0 DUP1 REVERT JUMPDEST POP PUSH2 0x37E PUSH2 0x379 CALLDATASIZE PUSH1 0x4 PUSH2 0x3EB6 JUMP JUMPDEST PUSH2 0xC71 JUMP JUMPDEST PUSH1 0x40 MLOAD PUSH2 0x2C6 SWAP6 SWAP5 SWAP4 SWAP3 SWAP2 SWAP1 PUSH2 0x445D JUMP JUMPDEST CALLVALUE DUP1 ISZERO PUSH2 0x39B JUMPI PUSH1 0x0 DUP1 REVERT JUMPDEST POP PUSH2 0x3A4 PUSH2 0xCA0 JUMP JUMPDEST PUSH1 0x40 MLOAD PUSH2 0x2C6 SWAP2 SWAP1 PUSH2 0x4332 JUMP JUMPDEST CALLVALUE DUP1 ISZERO PUSH2 0x3BD JUMPI PUSH1 0x0 DUP1 REVERT JUMPDEST POP PUSH2 0x3D1 PUSH2 0x3CC CALLDATASIZE PUSH1 0x4 PUSH2 0x3EB6 JUMP JUMPDEST PUSH2 0xCB8 JUMP JUMPDEST PUSH1 0x40 MLOAD PUSH2 0x2C6 SWAP2 SWAP1 PUSH2 0x440C JUMP JUMPDEST CALLVALUE DUP1 ISZERO PUSH2 0x3EA JUMPI PUSH1 0x0 DUP1 REVERT JUMPDEST POP PUSH2 0x2A2 PUSH2 0x3F9 CALLDATASIZE PUSH1 0x4 PUSH2 0x3CFA JUMP JUMPDEST PUSH2 0xCD7 JUMP JUMPDEST CALLVALUE DUP1 ISZERO PUSH2 0x40A JUMPI PUSH1 0x0 DUP1 REVERT JUMPDEST POP PUSH2 0x3D1 PUSH2 0x419 CALLDATASIZE PUSH1 0x4 PUSH2 0x3DB3 JUMP JUMPDEST PUSH2 0xCEB JUMP JUMPDEST CALLVALUE DUP1 ISZERO PUSH2 0x42A JUMPI PUSH1 0x0 DUP1 REVERT JUMPDEST POP PUSH2 0x43E PUSH2 0x439 CALLDATASIZE PUSH1 0x4 PUSH2 0x3EB6 JUMP JUMPDEST PUSH2 0xD3D JUMP JUMPDEST PUSH1 0x40 MLOAD PUSH2 0x2C6 SWAP2 SWAP1 PUSH2 0x43F0 JUMP JUMPDEST CALLVALUE DUP1 ISZERO PUSH2 0x457 JUMPI PUSH1 0x0 DUP1 REVERT JUMPDEST POP PUSH2 0x46B PUSH2 0x466 CALLDATASIZE PUSH1 0x4 PUSH2 0x3EB6 JUMP JUMPDEST PUSH2 0xD88 JUMP JUMPDEST PUSH1 0x40 MLOAD PUSH2 0x2C6 SWAP2 SWAP1 PUSH2 0x4248 JUMP JUMPDEST CALLVALUE DUP1 ISZERO PUSH2 0x484 JUMPI PUSH1 0x0 DUP1 REVERT JUMPDEST POP PUSH2 0x498 PUSH2 0x493 CALLDATASIZE PUSH1 0x4 PUSH2 0x3EB6 JUMP JUMPDEST PUSH2 0xDAF JUMP JUMPDEST PUSH1 0x40 MLOAD PUSH2 0x2C6 SWAP2 SWAP1 PUSH2 0x43FE JUMP JUMPDEST CALLVALUE DUP1 ISZERO PUSH2 0x4B1 JUMPI PUSH1 0x0 DUP1 REVERT JUMPDEST POP PUSH2 0x4C5 PUSH2 0x4C0 CALLDATASIZE PUSH1 0x4 PUSH2 0x3CFA JUMP JUMPDEST PUSH2 0xE09 JUMP JUMPDEST PUSH1 0x40 MLOAD PUSH2 0x2C6 SWAP2 SWAP1 PUSH2 0x42C5 JUMP JUMPDEST CALLVALUE DUP1 ISZERO PUSH2 0x4DE JUMPI PUSH1 0x0 DUP1 REVERT JUMPDEST POP PUSH2 0x2B9 PUSH2 0xE1E JUMP JUMPDEST CALLVALUE DUP1 ISZERO PUSH2 0x4F3 JUMPI PUSH1 0x0 DUP1 REVERT JUMPDEST POP PUSH2 0x2A2 PUSH2 0x502 CALLDATASIZE PUSH1 0x4 PUSH2 0x3F23 JUMP JUMPDEST PUSH2 0xE24 JUMP JUMPDEST CALLVALUE DUP1 ISZERO PUSH2 0x513 JUMPI PUSH1 0x0 DUP1 REVERT JUMPDEST POP PUSH2 0x2B9 PUSH2 0xEC1 JUMP JUMPDEST CALLVALUE DUP1 ISZERO PUSH2 0x528 JUMPI PUSH1 0x0 DUP1 REVERT JUMPDEST POP PUSH2 0x2A2 PUSH2 0x537 CALLDATASIZE PUSH1 0x4 PUSH2 0x3CFA JUMP JUMPDEST PUSH2 0xEC7 JUMP JUMPDEST CALLVALUE DUP1 ISZERO PUSH2 0x548 JUMPI PUSH1 0x0 DUP1 REVERT JUMPDEST POP PUSH2 0x2B9 PUSH2 0xF55 JUMP JUMPDEST CALLVALUE DUP1 ISZERO PUSH2 0x55D JUMPI PUSH1 0x0 DUP1 REVERT JUMPDEST POP PUSH2 0x2B9 PUSH2 0x56C CALLDATASIZE PUSH1 0x4 PUSH2 0x3CFA JUMP JUMPDEST PUSH2 0xF5B JUMP JUMPDEST CALLVALUE DUP1 ISZERO PUSH2 0x57D JUMPI PUSH1 0x0 DUP1 REVERT JUMPDEST POP PUSH2 0x586 PUSH2 0xF6D JUMP JUMPDEST PUSH1 0x40 MLOAD PUSH2 0x2C6 SWAP2 SWAP1 PUSH2 0x449F JUMP JUMPDEST CALLVALUE DUP1 ISZERO PUSH2 0x59F JUMPI PUSH1 0x0 DUP1 REVERT JUMPDEST POP PUSH2 0x46B PUSH2 0xF79 JUMP JUMPDEST CALLVALUE DUP1 ISZERO PUSH2 0x5B4 JUMPI PUSH1 0x0 DUP1 REVERT JUMPDEST POP PUSH2 0x2A2 PUSH2 0x5C3 CALLDATASIZE PUSH1 0x4 PUSH2 0x3D83 JUMP JUMPDEST PUSH2 0xF88 JUMP JUMPDEST CALLVALUE DUP1 ISZERO PUSH2 0x5D4 JUMPI PUSH1 0x0 DUP1 REVERT JUMPDEST POP PUSH2 0x2B9 PUSH2 0xF9A JUMP JUMPDEST PUSH2 0x2A2 PUSH2 0x5EB CALLDATASIZE PUSH1 0x4 PUSH2 0x3D36 JUMP JUMPDEST PUSH2 0xFA0 JUMP JUMPDEST CALLVALUE DUP1 ISZERO PUSH2 0x5FC JUMPI PUSH1 0x0 DUP1 REVERT JUMPDEST POP PUSH2 0x2B9 PUSH2 0x11AF JUMP JUMPDEST CALLVALUE DUP1 ISZERO PUSH2 0x611 JUMPI PUSH1 0x0 DUP1 REVERT JUMPDEST POP PUSH2 0x2B9 PUSH2 0x11B5 JUMP JUMPDEST CALLVALUE DUP1 ISZERO PUSH2 0x626 JUMPI PUSH1 0x0 DUP1 REVERT JUMPDEST POP PUSH2 0x2B9 PUSH2 0x11BB JUMP JUMPDEST CALLVALUE DUP1 ISZERO PUSH2 0x63B JUMPI PUSH1 0x0 DUP1 REVERT JUMPDEST POP PUSH2 0x2A2 PUSH2 0x64A CALLDATASIZE PUSH1 0x4 PUSH2 0x3EB6 JUMP JUMPDEST PUSH2 0x11D9 JUMP JUMPDEST CALLVALUE DUP1 ISZERO PUSH2 0x65B JUMPI PUSH1 0x0 DUP1 REVERT JUMPDEST POP PUSH2 0x3A4 PUSH2 0x11E3 JUMP JUMPDEST CALLVALUE DUP1 ISZERO PUSH2 0x670 JUMPI PUSH1 0x0 DUP1 REVERT JUMPDEST POP PUSH2 0x4C5 PUSH2 0x67F CALLDATASIZE PUSH1 0x4 PUSH2 0x3CFA JUMP JUMPDEST PUSH2 0x11FB JUMP JUMPDEST CALLVALUE DUP1 ISZERO PUSH2 0x690 JUMPI PUSH1 0x0 DUP1 REVERT JUMPDEST POP PUSH2 0x2B9 PUSH2 0x69F CALLDATASIZE PUSH1 0x4 PUSH2 0x3EB6 JUMP JUMPDEST PUSH2 0x1210 JUMP JUMPDEST CALLVALUE DUP1 ISZERO PUSH2 0x6B0 JUMPI PUSH1 0x0 DUP1 REVERT JUMPDEST POP PUSH2 0x2B9 PUSH2 0x6BF CALLDATASIZE PUSH1 0x4 PUSH2 0x3CFA JUMP JUMPDEST PUSH2 0x128D JUMP JUMPDEST CALLVALUE DUP1 ISZERO PUSH2 0x6D0 JUMPI PUSH1 0x0 DUP1 REVERT JUMPDEST POP PUSH2 0x2B9 PUSH2 0x6DF CALLDATASIZE PUSH1 0x4 PUSH2 0x3EB6 JUMP JUMPDEST PUSH2 0x1453 JUMP JUMPDEST CALLVALUE DUP1 ISZERO PUSH2 0x6F0 JUMPI PUSH1 0x0 DUP1 REVERT JUMPDEST POP PUSH2 0x6F9 PUSH2 0x1465 JUMP JUMPDEST PUSH1 0x40 MLOAD PUSH2 0x2C6 SWAP2 SWAP1 PUSH2 0x42B4 JUMP JUMPDEST CALLVALUE DUP1 ISZERO PUSH2 0x712 JUMPI PUSH1 0x0 DUP1 REVERT JUMPDEST POP PUSH2 0x3A4 PUSH2 0x14C7 JUMP JUMPDEST CALLVALUE DUP1 ISZERO PUSH2 0x727 JUMPI PUSH1 0x0 DUP1 REVERT JUMPDEST POP PUSH2 0x586 PUSH2 0x14DF JUMP JUMPDEST CALLVALUE DUP1 ISZERO PUSH2 0x73C JUMPI PUSH1 0x0 DUP1 REVERT JUMPDEST POP PUSH2 0x3D1 PUSH2 0x74B CALLDATASIZE PUSH1 0x4 PUSH2 0x3F53 JUMP JUMPDEST PUSH2 0x14EB JUMP JUMPDEST CALLVALUE DUP1 ISZERO PUSH2 0x75C JUMPI PUSH1 0x0 DUP1 REVERT JUMPDEST POP PUSH2 0x586 PUSH2 0x161F JUMP JUMPDEST CALLVALUE DUP1 ISZERO PUSH2 0x771 JUMPI PUSH1 0x0 DUP1 REVERT JUMPDEST POP PUSH2 0x2B9 PUSH2 0x780 CALLDATASIZE PUSH1 0x4 PUSH2 0x3ED4 JUMP JUMPDEST PUSH2 0x1633 JUMP JUMPDEST CALLVALUE DUP1 ISZERO PUSH2 0x791 JUMPI PUSH1 0x0 DUP1 REVERT JUMPDEST POP PUSH2 0x46B PUSH2 0x16C2 JUMP JUMPDEST CALLVALUE DUP1 ISZERO PUSH2 0x7A6 JUMPI PUSH1 0x0 DUP1 REVERT JUMPDEST POP PUSH2 0x3A4 PUSH2 0x16D1 JUMP JUMPDEST CALLVALUE DUP1 ISZERO PUSH2 0x7BB JUMPI PUSH1 0x0 DUP1 REVERT JUMPDEST POP PUSH2 0x3D1 PUSH2 0x7CA CALLDATASIZE PUSH1 0x4 PUSH2 0x3D83 JUMP JUMPDEST PUSH2 0x16E9 JUMP JUMPDEST CALLVALUE DUP1 ISZERO PUSH2 0x7DB JUMPI PUSH1 0x0 DUP1 REVERT JUMPDEST POP PUSH2 0x2A2 PUSH2 0x7EA CALLDATASIZE PUSH1 0x4 PUSH2 0x3CFA JUMP JUMPDEST PUSH2 0x171D JUMP JUMPDEST CALLVALUE DUP1 ISZERO PUSH2 0x7FB JUMPI PUSH1 0x0 DUP1 REVERT JUMPDEST POP PUSH2 0x2A2 PUSH2 0x80A CALLDATASIZE PUSH1 0x4 PUSH2 0x3EB6 JUMP JUMPDEST PUSH2 0x178E JUMP JUMPDEST PUSH2 0x817 PUSH2 0x19E5 JUMP JUMPDEST PUSH1 0x1 PUSH1 0x1 PUSH1 0xA0 SHL SUB DUP2 AND PUSH1 0x0 SWAP1 DUP2 MSTORE PUSH1 0x10 PUSH1 0x20 MSTORE PUSH1 0x40 SWAP1 KECCAK256 SLOAD PUSH1 0xFF AND PUSH2 0x84A JUMPI PUSH2 0x84A PUSH2 0x845 PUSH1 0x1 DUP4 PUSH2 0x1A0A JUMP JUMPDEST PUSH2 0x1A61 JUMP JUMPDEST PUSH1 0x1 PUSH1 0x1 PUSH1 0xA0 SHL SUB DUP2 AND PUSH1 0x0 SWAP1 DUP2 MSTORE PUSH1 0x10 PUSH1 0x20 MSTORE PUSH1 0x40 SWAP1 DUP2 SWAP1 KECCAK256 DUP1 SLOAD PUSH1 0xFF NOT AND SWAP1 SSTORE MLOAD PUSH32 0x9BF55462CB5FA187F725D06DE0A70BC01C4E40695570BDC25AD116F9BE46BDA7 SWAP1 PUSH2 0x89A SWAP1 DUP4 SWAP1 PUSH2 0x4248 JUMP JUMPDEST PUSH1 0x40 MLOAD DUP1 SWAP2 SUB SWAP1 LOG1 POP JUMP JUMPDEST PUSH1 0xC SLOAD PUSH1 0x0 SWAP1 DUP2 PUSH2 0x8BD DUP3 PUSH1 0x1 PUSH4 0xFFFFFFFF PUSH2 0x1A69 AND JUMP JUMPDEST PUSH1 0x0 DUP2 DUP2 MSTORE PUSH1 0x16 PUSH1 0x20 MSTORE PUSH1 0x40 SWAP1 KECCAK256 PUSH1 0x1 ADD SLOAD SWAP1 SWAP2 POP DUP1 ISZERO PUSH2 0x8E5 JUMPI PUSH2 0x8E5 PUSH2 0x845 DUP4 DUP4 PUSH2 0x1A88 JUMP JUMPDEST PUSH2 0x8ED PUSH2 0x1AA5 JUMP JUMPDEST PUSH2 0x8F5 PUSH2 0x1B0A JUMP JUMPDEST PUSH1 0x0 DUP5 DUP2 MSTORE PUSH1 0x16 PUSH1 0x20 MSTORE PUSH1 0x40 SWAP1 KECCAK256 SSTORE PUSH2 0x90C PUSH2 0x3B8D JUMP JUMPDEST POP PUSH1 0x0 DUP4 DUP2 MSTORE PUSH1 0x16 PUSH1 0x20 SWAP1 DUP2 MSTORE PUSH1 0x40 SWAP2 DUP3 SWAP1 KECCAK256 DUP3 MLOAD PUSH1 0xA0 DUP2 ADD DUP5 MSTORE DUP2 SLOAD DUP1 DUP3 MSTORE PUSH1 0x1 DUP4 ADD SLOAD SWAP4 DUP3 ADD DUP5 SWAP1 MSTORE PUSH1 0x2 DUP4 ADD SLOAD DUP3 DUP7 ADD DUP2 SWAP1 MSTORE PUSH1 0x3 DUP5 ADD SLOAD PUSH1 0x60 DUP5 ADD DUP2 SWAP1 MSTORE PUSH1 0x4 SWAP1 SWAP5 ADD SLOAD PUSH1 0x80 DUP5 ADD MSTORE SWAP5 MLOAD SWAP2 SWAP5 DUP9 SWAP5 PUSH32 0xBB4A26FA0ACE13EE4DA343896C20EAA44A618FB9071FDD8C2E2C960A4583189D SWAP5 PUSH2 0x98E SWAP5 SWAP2 SWAP4 SWAP3 SWAP2 PUSH2 0x4428 JUMP JUMPDEST PUSH1 0x40 MLOAD DUP1 SWAP2 SUB SWAP1 LOG2 PUSH2 0x99E PUSH2 0x1BA1 JUMP JUMPDEST PUSH1 0x20 DUP2 ADD MLOAD PUSH2 0x9E5 JUMPI DUP1 MLOAD PUSH1 0x40 MLOAD DUP6 SWAP2 PUSH32 0xB463D19ECF455BE65365092CF8E1DB6934A0334CF8CD532DDF9964D01F36B5B2 SWAP2 PUSH2 0x9DC SWAP2 PUSH1 0x0 SWAP2 PUSH2 0x4392 JUMP JUMPDEST PUSH1 0x40 MLOAD DUP1 SWAP2 SUB SWAP1 LOG2 JUMPDEST PUSH1 0x20 ADD MLOAD SWAP4 POP POP POP POP JUMPDEST SWAP1 JUMP JUMPDEST PUSH1 0x0 DUP1 PUSH2 0x9FD PUSH2 0x11E3 JUMP JUMPDEST PUSH1 0x40 MLOAD PUSH4 0x309DFC6B PUSH1 0xE2 SHL DUP2 MSTORE PUSH1 0x1 PUSH1 0x1 PUSH1 0xA0 SHL SUB SWAP2 SWAP1 SWAP2 AND SWAP1 PUSH4 0xC277F1AC SWAP1 PUSH2 0xA2B SWAP1 DUP8 SWAP1 PUSH1 0x4 ADD PUSH2 0x42D3 JUMP JUMPDEST PUSH1 0x0 PUSH1 0x40 MLOAD DUP1 DUP4 SUB DUP2 DUP7 DUP1 EXTCODESIZE ISZERO DUP1 ISZERO PUSH2 0xA43 JUMPI PUSH1 0x0 DUP1 REVERT JUMPDEST POP GAS STATICCALL ISZERO DUP1 ISZERO PUSH2 0xA57 JUMPI RETURNDATASIZE PUSH1 0x0 DUP1 RETURNDATACOPY RETURNDATASIZE PUSH1 0x0 REVERT JUMPDEST POP POP POP POP PUSH1 0x40 MLOAD RETURNDATASIZE PUSH1 0x0 DUP3 RETURNDATACOPY PUSH1 0x1F RETURNDATASIZE SWAP1 DUP2 ADD PUSH1 0x1F NOT AND DUP3 ADD PUSH1 0x40 MSTORE PUSH2 0xA7F SWAP2 SWAP1 DUP2 ADD SWAP1 PUSH2 0x3DE3 JUMP JUMPDEST POP POP SWAP4 POP POP POP SWAP2 POP PUSH1 0x0 DUP2 EQ ISZERO PUSH2 0xAB1 JUMPI PUSH1 0x40 MLOAD PUSH3 0x461BCD PUSH1 0xE5 SHL DUP2 MSTORE PUSH1 0x4 ADD PUSH2 0xAA8 SWAP1 PUSH2 0x43A0 JUMP JUMPDEST PUSH1 0x40 MLOAD DUP1 SWAP2 SUB SWAP1 REVERT JUMPDEST DUP3 PUSH1 0x1 PUSH1 0x1 PUSH1 0xA0 SHL SUB AND DUP3 PUSH1 0x1 PUSH1 0x1 PUSH1 0xA0 SHL SUB AND EQ PUSH2 0xAE2 JUMPI PUSH1 0x40 MLOAD PUSH3 0x461BCD PUSH1 0xE5 SHL DUP2 MSTORE PUSH1 0x4 ADD PUSH2 0xAA8 SWAP1 PUSH2 0x43B0 JUMP JUMPDEST PUSH1 0x1 PUSH1 0x1 PUSH1 0xA0 SHL SUB DUP1 DUP4 AND PUSH1 0x0 SWAP1 DUP2 MSTORE PUSH1 0x9 PUSH1 0x20 MSTORE PUSH1 0x40 DUP1 DUP3 KECCAK256 DUP8 SWAP1 SSTORE MLOAD DUP7 SWAP3 DUP7 AND SWAP2 PUSH32 0xE8B9F7EE7A4480D45B60E98F7B2090DD82E2353B8557A6EE2DD2D5EE9196BAC2 SWAP2 LOG3 POP POP POP POP JUMP JUMPDEST PUSH1 0x0 PUSH2 0xB38 PUSH2 0x14C7 JUMP JUMPDEST PUSH1 0x1 PUSH1 0x1 PUSH1 0xA0 SHL SUB AND PUSH4 0x70A08231 DUP4 PUSH1 0x40 MLOAD DUP3 PUSH4 0xFFFFFFFF AND PUSH1 0xE0 SHL DUP2 MSTORE PUSH1 0x4 ADD PUSH2 0xB63 SWAP2 SWAP1 PUSH2 0x4248 JUMP JUMPDEST PUSH1 0x20 PUSH1 0x40 MLOAD DUP1 DUP4 SUB DUP2 DUP7 DUP1 EXTCODESIZE ISZERO DUP1 ISZERO PUSH2 0xB7B JUMPI PUSH1 0x0 DUP1 REVERT JUMPDEST POP GAS STATICCALL ISZERO DUP1 ISZERO PUSH2 0xB8F JUMPI RETURNDATASIZE PUSH1 0x0 DUP1 RETURNDATACOPY RETURNDATASIZE PUSH1 0x0 REVERT JUMPDEST POP POP POP POP PUSH1 0x40 MLOAD RETURNDATASIZE PUSH1 0x1F NOT PUSH1 0x1F DUP3 ADD AND DUP3 ADD DUP1 PUSH1 0x40 MSTORE POP PUSH2 0xBB3 SWAP2 SWAP1 DUP2 ADD SWAP1 PUSH2 0x3F71 JUMP JUMPDEST SWAP1 POP JUMPDEST SWAP2 SWAP1 POP JUMP JUMPDEST PUSH2 0xBC3 PUSH2 0x19E5 JUMP JUMPDEST PUSH1 0x1 PUSH1 0x1 PUSH1 0xA0 SHL SUB DUP2 AND PUSH1 0x0 SWAP1 DUP2 MSTORE PUSH1 0x10 PUSH1 0x20 MSTORE PUSH1 0x40 SWAP1 KECCAK256 SLOAD PUSH1 0xFF AND ISZERO PUSH2 0xBF2 JUMPI PUSH2 0xBF2 PUSH2 0x845 PUSH1 0x0 DUP4 PUSH2 0x1A0A JUMP JUMPDEST PUSH1 0x1 PUSH1 0x1 PUSH1 0xA0 SHL SUB DUP2 AND PUSH1 0x0 SWAP1 DUP2 MSTORE PUSH1 0x10 PUSH1 0x20 MSTORE PUSH1 0x40 SWAP1 DUP2 SWAP1 KECCAK256 DUP1 SLOAD PUSH1 0xFF NOT AND PUSH1 0x1 OR SWAP1 SSTORE MLOAD PUSH32 0x5738EE3C8E8FE8B0B9C4C21B16FDCA42EC02E271237DFEABBF3B5AF1584D732B SWAP1 PUSH2 0x89A SWAP1 DUP4 SWAP1 PUSH2 0x4248 JUMP JUMPDEST PUSH1 0x15 PUSH1 0x20 SWAP1 DUP2 MSTORE PUSH1 0x0 SWAP3 DUP4 MSTORE PUSH1 0x40 DUP1 DUP5 KECCAK256 SWAP1 SWAP2 MSTORE SWAP1 DUP3 MSTORE SWAP1 KECCAK256 DUP1 SLOAD PUSH1 0x1 DUP3 ADD SLOAD PUSH1 0x2 SWAP1 SWAP3 ADD SLOAD SWAP1 SWAP2 SWAP1 DUP4 JUMP JUMPDEST PUSH1 0x16 PUSH1 0x20 MSTORE PUSH1 0x0 SWAP1 DUP2 MSTORE PUSH1 0x40 SWAP1 KECCAK256 DUP1 SLOAD PUSH1 0x1 DUP3 ADD SLOAD PUSH1 0x2 DUP4 ADD SLOAD PUSH1 0x3 DUP5 ADD SLOAD PUSH1 0x4 SWAP1 SWAP5 ADD SLOAD SWAP3 SWAP4 SWAP2 SWAP3 SWAP1 SWAP2 SWAP1 DUP6 JUMP JUMPDEST PUSH20 0xC02AAA39B223FE8D0A0E5C4F27EAD9083C756CC2 SWAP1 JUMP JUMPDEST PUSH2 0xCC0 PUSH2 0x3BBC JUMP JUMPDEST PUSH1 0x0 DUP3 DUP2 MSTORE PUSH1 0x7 PUSH1 0x20 MSTORE PUSH1 0x40 SWAP1 KECCAK256 PUSH2 0xBB3 SWAP1 PUSH2 0x1BE4 JUMP JUMPDEST PUSH2 0xCDF PUSH2 0x1C68 JUMP JUMPDEST PUSH2 0xCE8 DUP2 PUSH2 0x1C95 JUMP JUMPDEST POP JUMP JUMPDEST PUSH2 0xCF3 PUSH2 0x3BBC JUMP JUMPDEST PUSH2 0xD34 PUSH1 0x5 PUSH1 0x0 DUP5 PUSH1 0x1 DUP2 GT ISZERO PUSH2 0xD06 JUMPI INVALID JUMPDEST PUSH1 0xFF AND DUP2 MSTORE PUSH1 0x20 DUP1 DUP3 ADD SWAP3 SWAP1 SWAP3 MSTORE PUSH1 0x40 SWAP1 DUP2 ADD PUSH1 0x0 SWAP1 DUP2 KECCAK256 PUSH1 0x1 PUSH1 0x1 PUSH1 0xA0 SHL SUB DUP9 AND DUP3 MSTORE SWAP1 SWAP3 MSTORE SWAP1 KECCAK256 PUSH2 0x1BE4 JUMP JUMPDEST SWAP1 POP JUMPDEST SWAP3 SWAP2 POP POP JUMP JUMPDEST PUSH2 0xD45 PUSH2 0x3BDC JUMP JUMPDEST POP PUSH1 0x0 SWAP1 DUP2 MSTORE PUSH1 0x15 PUSH1 0x20 SWAP1 DUP2 MSTORE PUSH1 0x40 DUP1 DUP4 KECCAK256 PUSH1 0xC SLOAD DUP5 MSTORE DUP3 MSTORE SWAP2 DUP3 SWAP1 KECCAK256 DUP3 MLOAD PUSH1 0x60 DUP2 ADD DUP5 MSTORE DUP2 SLOAD DUP2 MSTORE PUSH1 0x1 DUP3 ADD SLOAD SWAP3 DUP2 ADD SWAP3 SWAP1 SWAP3 MSTORE PUSH1 0x2 ADD SLOAD SWAP2 DUP2 ADD SWAP2 SWAP1 SWAP2 MSTORE SWAP1 JUMP JUMPDEST PUSH1 0x2 DUP2 DUP2 SLOAD DUP2 LT PUSH2 0xD95 JUMPI INVALID JUMPDEST PUSH1 0x0 SWAP2 DUP3 MSTORE PUSH1 0x20 SWAP1 SWAP2 KECCAK256 ADD SLOAD PUSH1 0x1 PUSH1 0x1 PUSH1 0xA0 SHL SUB AND SWAP1 POP DUP2 JUMP JUMPDEST PUSH2 0xDB7 PUSH2 0x3BBC JUMP JUMPDEST POP PUSH1 0x0 SWAP1 DUP2 MSTORE PUSH1 0xA PUSH1 0x20 SWAP1 DUP2 MSTORE PUSH1 0x40 SWAP2 DUP3 SWAP1 KECCAK256 DUP3 MLOAD PUSH1 0x60 DUP2 ADD DUP5 MSTORE DUP2 SLOAD PUSH1 0x1 PUSH1 0x1 PUSH1 0xA0 SHL SUB DUP1 DUP3 AND DUP4 MSTORE PUSH1 0x1 PUSH1 0xA0 SHL SWAP1 SWAP2 DIV PUSH4 0xFFFFFFFF AND SWAP4 DUP3 ADD SWAP4 SWAP1 SWAP4 MSTORE PUSH1 0x1 SWAP1 SWAP2 ADD SLOAD SWAP1 SWAP2 AND SWAP2 DUP2 ADD SWAP2 SWAP1 SWAP2 MSTORE SWAP1 JUMP JUMPDEST PUSH1 0x10 PUSH1 0x20 MSTORE PUSH1 0x0 SWAP1 DUP2 MSTORE PUSH1 0x40 SWAP1 KECCAK256 SLOAD PUSH1 0xFF AND DUP2 JUMP JUMPDEST PUSH1 0xD SLOAD DUP2 JUMP JUMPDEST DUP2 PUSH2 0xE2E DUP2 PUSH2 0x1D69 JUMP JUMPDEST PUSH1 0x0 DUP4 DUP2 MSTORE PUSH1 0xA PUSH1 0x20 MSTORE PUSH1 0x40 SWAP1 KECCAK256 SLOAD PUSH1 0x1 PUSH1 0xA0 SHL SWAP1 DIV PUSH4 0xFFFFFFFF AND PUSH2 0xE55 DUP5 DUP3 DUP6 PUSH2 0x1D95 JUMP JUMPDEST PUSH1 0x0 DUP5 DUP2 MSTORE PUSH1 0xA PUSH1 0x20 MSTORE PUSH1 0x40 SWAP1 DUP2 SWAP1 KECCAK256 DUP1 SLOAD PUSH4 0xFFFFFFFF PUSH1 0xA0 SHL NOT AND PUSH1 0x1 PUSH1 0xA0 SHL PUSH4 0xFFFFFFFF DUP8 AND MUL OR SWAP1 SSTORE MLOAD DUP5 SWAP1 PUSH32 0x8EA2A7A959BD25F226B7B0A4393613F7FDCAA8404E8BAD96AA52DC1C14590167 SWAP1 PUSH2 0xEB3 SWAP1 DUP5 SWAP1 DUP8 SWAP1 PUSH2 0x44AD JUMP JUMPDEST PUSH1 0x40 MLOAD DUP1 SWAP2 SUB SWAP1 LOG2 POP POP POP POP JUMP JUMPDEST PUSH1 0x11 SLOAD DUP2 JUMP JUMPDEST PUSH2 0xECF PUSH2 0x1C68 JUMP JUMPDEST PUSH1 0x1 PUSH1 0x1 PUSH1 0xA0 SHL SUB DUP2 AND PUSH1 0x0 SWAP1 DUP2 MSTORE PUSH1 0x1 PUSH1 0x20 MSTORE PUSH1 0x40 SWAP1 KECCAK256 SLOAD PUSH1 0xFF AND PUSH2 0xEFB JUMPI PUSH2 0xEFB PUSH2 0x845 DUP3 PUSH2 0x1DDD JUMP JUMPDEST PUSH1 0x0 JUMPDEST PUSH1 0x2 SLOAD DUP2 LT ISZERO PUSH2 0xF51 JUMPI DUP2 PUSH1 0x1 PUSH1 0x1 PUSH1 0xA0 SHL SUB AND PUSH1 0x2 DUP3 DUP2 SLOAD DUP2 LT PUSH2 0xF1F JUMPI INVALID JUMPDEST PUSH1 0x0 SWAP2 DUP3 MSTORE PUSH1 0x20 SWAP1 SWAP2 KECCAK256 ADD SLOAD PUSH1 0x1 PUSH1 0x1 PUSH1 0xA0 SHL SUB AND EQ ISZERO PUSH2 0xF49 JUMPI PUSH2 0xF44 DUP3 DUP3 PUSH2 0x1E31 JUMP JUMPDEST PUSH2 0xF51 JUMP JUMPDEST PUSH1 0x1 ADD PUSH2 0xEFE JUMP JUMPDEST POP POP JUMP JUMPDEST PUSH1 0xC SLOAD DUP2 JUMP JUMPDEST PUSH1 0x9 PUSH1 0x20 MSTORE PUSH1 0x0 SWAP1 DUP2 MSTORE PUSH1 0x40 SWAP1 KECCAK256 SLOAD DUP2 JUMP JUMPDEST PUSH1 0x14 SLOAD PUSH4 0xFFFFFFFF AND DUP2 JUMP JUMPDEST PUSH1 0x0 SLOAD PUSH1 0x1 PUSH1 0x1 PUSH1 0xA0 SHL SUB AND DUP2 JUMP JUMPDEST PUSH2 0xF90 PUSH2 0x1C68 JUMP JUMPDEST PUSH2 0xF51 DUP3 DUP3 PUSH2 0x1E31 JUMP JUMPDEST PUSH1 0x13 SLOAD DUP2 JUMP JUMPDEST CALLER PUSH1 0x0 SWAP1 DUP2 MSTORE PUSH1 0x10 PUSH1 0x20 MSTORE PUSH1 0x40 SWAP1 KECCAK256 SLOAD PUSH1 0xFF AND PUSH2 0xFC3 JUMPI PUSH2 0xFC3 PUSH2 0x845 CALLER PUSH2 0x1FA6 JUMP JUMPDEST PUSH2 0xFCC DUP2 PUSH2 0x1FC1 JUMP JUMPDEST CALLVALUE PUSH2 0x1076 JUMPI PUSH2 0xFD9 PUSH2 0xCA0 JUMP JUMPDEST PUSH1 0x1 PUSH1 0x1 PUSH1 0xA0 SHL SUB AND PUSH4 0x23B872DD DUP4 ADDRESS DUP5 PUSH1 0x40 MLOAD DUP5 PUSH4 0xFFFFFFFF AND PUSH1 0xE0 SHL DUP2 MSTORE PUSH1 0x4 ADD PUSH2 0x1008 SWAP4 SWAP3 SWAP2 SWAP1 PUSH2 0x4271 JUMP JUMPDEST PUSH1 0x20 PUSH1 0x40 MLOAD DUP1 DUP4 SUB DUP2 PUSH1 0x0 DUP8 DUP1 EXTCODESIZE ISZERO DUP1 ISZERO PUSH2 0x1022 JUMPI PUSH1 0x0 DUP1 REVERT JUMPDEST POP GAS CALL ISZERO DUP1 ISZERO PUSH2 0x1036 JUMPI RETURNDATASIZE PUSH1 0x0 DUP1 RETURNDATACOPY RETURNDATASIZE PUSH1 0x0 REVERT JUMPDEST POP POP POP POP PUSH1 0x40 MLOAD RETURNDATASIZE PUSH1 0x1F NOT PUSH1 0x1F DUP3 ADD AND DUP3 ADD DUP1 PUSH1 0x40 MSTORE POP PUSH2 0x105A SWAP2 SWAP1 DUP2 ADD SWAP1 PUSH2 0x3E98 JUMP JUMPDEST PUSH2 0x1076 JUMPI PUSH1 0x40 MLOAD PUSH3 0x461BCD PUSH1 0xE5 SHL DUP2 MSTORE PUSH1 0x4 ADD PUSH2 0xAA8 SWAP1 PUSH2 0x43E0 JUMP JUMPDEST PUSH1 0x1 PUSH1 0x1 PUSH1 0xA0 SHL SUB DUP4 AND PUSH1 0x0 SWAP1 DUP2 MSTORE PUSH1 0x9 PUSH1 0x20 MSTORE PUSH1 0x40 SWAP1 KECCAK256 SLOAD DUP1 PUSH2 0x109A JUMPI POP PUSH2 0x11AA JUMP JUMPDEST PUSH1 0x0 PUSH2 0x10A5 DUP3 PUSH2 0xCB8 JUMP JUMPDEST PUSH1 0x20 ADD MLOAD PUSH1 0x1 PUSH1 0x1 PUSH1 0x60 SHL SUB AND SWAP1 POP PUSH1 0x13 SLOAD DUP2 LT ISZERO PUSH2 0x10C5 JUMPI POP POP PUSH2 0x11AA JUMP JUMPDEST PUSH1 0xC SLOAD PUSH1 0x0 DUP4 DUP2 MSTORE PUSH1 0x15 PUSH1 0x20 SWAP1 DUP2 MSTORE PUSH1 0x40 DUP1 DUP4 KECCAK256 DUP5 DUP5 MSTORE DUP3 MSTORE DUP1 DUP4 KECCAK256 PUSH1 0x16 SWAP1 SWAP3 MSTORE SWAP1 SWAP2 KECCAK256 DUP2 SLOAD DUP1 PUSH2 0x1174 JUMPI PUSH1 0x0 DUP1 PUSH2 0x10FD DUP9 DUP9 PUSH2 0x1FE2 JUMP JUMPDEST PUSH1 0x2 DUP8 ADD DUP3 SWAP1 SSTORE PUSH1 0x1 DUP8 ADD DUP2 SWAP1 SSTORE PUSH1 0x3 DUP7 ADD SLOAD SWAP2 SWAP4 POP SWAP2 POP PUSH2 0x1125 SWAP1 DUP3 PUSH4 0xFFFFFFFF PUSH2 0x205C AND JUMP JUMPDEST PUSH1 0x3 DUP6 ADD SSTORE PUSH1 0x1 DUP1 DUP6 ADD SLOAD PUSH2 0x113F SWAP2 PUSH4 0xFFFFFFFF PUSH2 0x205C AND JUMP JUMPDEST PUSH1 0x1 DUP6 ADD SSTORE PUSH1 0x40 MLOAD DUP9 SWAP1 DUP8 SWAP1 PUSH32 0x14B098103235344975B17508C2391721CC9AC3F3FA2B56C7FF46F8480DFD074F SWAP1 PUSH1 0x0 SWAP1 LOG3 POP POP JUMPDEST PUSH2 0x1184 DUP2 DUP9 PUSH4 0xFFFFFFFF PUSH2 0x205C AND JUMP JUMPDEST DUP4 SSTORE PUSH1 0x2 DUP3 ADD SLOAD PUSH2 0x119B SWAP1 DUP9 PUSH4 0xFFFFFFFF PUSH2 0x205C AND JUMP JUMPDEST DUP3 PUSH1 0x2 ADD DUP2 SWAP1 SSTORE POP POP POP POP POP POP POP JUMPDEST POP POP POP JUMP JUMPDEST PUSH1 0x8 SLOAD DUP2 JUMP JUMPDEST PUSH1 0x17 SLOAD DUP2 JUMP JUMPDEST PUSH1 0x0 PUSH2 0x11D4 PUSH1 0x11 SLOAD PUSH1 0xD SLOAD PUSH2 0x205C SWAP1 SWAP2 SWAP1 PUSH4 0xFFFFFFFF AND JUMP JUMPDEST SWAP1 POP SWAP1 JUMP JUMPDEST PUSH2 0xCE8 DUP2 CALLER PUSH2 0x2078 JUMP JUMPDEST PUSH20 0xDE6445484A8DCD9BF35FC95EB4E3990CC358822E SWAP1 JUMP JUMPDEST PUSH1 0x1 PUSH1 0x20 MSTORE PUSH1 0x0 SWAP1 DUP2 MSTORE PUSH1 0x40 SWAP1 KECCAK256 SLOAD PUSH1 0xFF AND DUP2 JUMP JUMPDEST PUSH1 0x0 PUSH2 0x121A PUSH2 0x3BBC JUMP JUMPDEST POP PUSH1 0x0 DUP3 DUP2 MSTORE PUSH1 0xA PUSH1 0x20 SWAP1 DUP2 MSTORE PUSH1 0x40 DUP1 DUP4 KECCAK256 DUP2 MLOAD PUSH1 0x60 DUP2 ADD DUP4 MSTORE DUP2 SLOAD PUSH1 0x1 PUSH1 0x1 PUSH1 0xA0 SHL SUB DUP1 DUP3 AND DUP4 MSTORE PUSH1 0x1 PUSH1 0xA0 SHL SWAP1 SWAP2 DIV PUSH4 0xFFFFFFFF AND SWAP5 DUP3 ADD SWAP5 SWAP1 SWAP5 MSTORE PUSH1 0x1 SWAP1 SWAP2 ADD SLOAD SWAP1 SWAP3 AND SWAP1 DUP3 ADD MSTORE SWAP1 DUP1 PUSH2 0x1270 DUP6 PUSH2 0x21EB JUMP JUMPDEST SWAP2 POP SWAP2 POP PUSH2 0x1283 DUP4 PUSH1 0x20 ADD MLOAD DUP4 DUP4 PUSH2 0x22A8 JUMP JUMPDEST POP SWAP6 SWAP5 POP POP POP POP POP JUMP JUMPDEST PUSH1 0x0 DUP1 PUSH1 0x0 PUSH2 0x129A PUSH2 0x11E3 JUMP JUMPDEST PUSH1 0x1 PUSH1 0x1 PUSH1 0xA0 SHL SUB AND PUSH4 0xB72E717D DUP6 PUSH1 0x40 MLOAD DUP3 PUSH4 0xFFFFFFFF AND PUSH1 0xE0 SHL DUP2 MSTORE PUSH1 0x4 ADD PUSH2 0x12C5 SWAP2 SWAP1 PUSH2 0x4248 JUMP JUMPDEST PUSH1 0x0 PUSH1 0x40 MLOAD DUP1 DUP4 SUB DUP2 DUP7 DUP1 EXTCODESIZE ISZERO DUP1 ISZERO PUSH2 0x12DD JUMPI PUSH1 0x0 DUP1 REVERT JUMPDEST POP GAS STATICCALL ISZERO DUP1 ISZERO PUSH2 0x12F1 JUMPI RETURNDATASIZE PUSH1 0x0 DUP1 RETURNDATACOPY RETURNDATASIZE PUSH1 0x0 REVERT JUMPDEST POP POP POP POP PUSH1 0x40 MLOAD RETURNDATASIZE PUSH1 0x0 DUP3 RETURNDATACOPY PUSH1 0x1F RETURNDATASIZE SWAP1 DUP2 ADD PUSH1 0x1F NOT AND DUP3 ADD PUSH1 0x40 MSTORE PUSH2 0x1319 SWAP2 SWAP1 DUP2 ADD SWAP1 PUSH2 0x3F8F JUMP JUMPDEST POP SWAP5 POP POP POP POP SWAP2 POP PUSH1 0x0 DUP3 EQ ISZERO PUSH2 0x1342 JUMPI PUSH1 0x40 MLOAD PUSH3 0x461BCD PUSH1 0xE5 SHL DUP2 MSTORE PUSH1 0x4 ADD PUSH2 0xAA8 SWAP1 PUSH2 0x43C0 JUMP JUMPDEST DUP1 PUSH1 0x0 PUSH1 0x1 PUSH1 0x1 PUSH1 0xA0 SHL SUB DUP3 AND CALLER EQ PUSH2 0x1358 JUMPI POP CALLER JUMPDEST PUSH3 0xAAE60 PUSH2 0x1365 DUP6 PUSH2 0x22E9 JUMP JUMPDEST DUP5 PUSH1 0x0 SHL SWAP6 POP PUSH2 0x1379 DUP7 PUSH3 0xF4240 DUP4 PUSH2 0x1D95 JUMP JUMPDEST PUSH2 0x1381 PUSH2 0x3BBC JUMP JUMPDEST POP PUSH1 0x40 DUP1 MLOAD PUSH1 0x60 DUP2 ADD DUP3 MSTORE PUSH1 0x1 PUSH1 0x1 PUSH1 0xA0 SHL SUB DUP1 DUP7 AND DUP3 MSTORE PUSH4 0xFFFFFFFF DUP1 DUP6 AND PUSH1 0x20 DUP1 DUP6 ADD SWAP2 DUP3 MSTORE DUP8 DUP5 AND DUP6 DUP8 ADD SWAP1 DUP2 MSTORE PUSH1 0x0 DUP14 DUP2 MSTORE PUSH1 0xA SWAP1 SWAP3 MSTORE SWAP1 DUP7 SWAP1 KECCAK256 DUP6 MLOAD DUP2 SLOAD SWAP4 MLOAD SWAP1 SWAP5 AND PUSH1 0x1 PUSH1 0xA0 SHL MUL PUSH4 0xFFFFFFFF PUSH1 0xA0 SHL NOT SWAP5 DUP7 AND PUSH1 0x1 PUSH1 0x1 PUSH1 0xA0 SHL SUB NOT SWAP5 DUP6 AND OR SWAP5 SWAP1 SWAP5 AND SWAP4 SWAP1 SWAP4 OR DUP4 SSTORE MLOAD PUSH1 0x1 SWAP1 SWAP3 ADD DUP1 SLOAD SWAP3 SWAP1 SWAP4 AND SWAP2 AND OR SWAP1 SSTORE SWAP1 MLOAD PUSH32 0xCEC6FC86EA644053F6EDFF1160DFE3FA5C61E7A5EF9F873F145BB03A0BD319E7 SWAP1 PUSH2 0x1436 SWAP1 DUP10 SWAP1 DUP8 SWAP1 DUP7 SWAP1 PUSH2 0x42E1 JUMP JUMPDEST PUSH1 0x40 MLOAD DUP1 SWAP2 SUB SWAP1 LOG1 PUSH2 0x1448 DUP8 DUP10 PUSH2 0x9F2 JUMP JUMPDEST POP POP POP POP POP POP SWAP2 SWAP1 POP JUMP JUMPDEST PUSH1 0xB PUSH1 0x20 MSTORE PUSH1 0x0 SWAP1 DUP2 MSTORE PUSH1 0x40 SWAP1 KECCAK256 SLOAD DUP2 JUMP JUMPDEST PUSH1 0x60 PUSH1 0x2 DUP1 SLOAD DUP1 PUSH1 0x20 MUL PUSH1 0x20 ADD PUSH1 0x40 MLOAD SWAP1 DUP2 ADD PUSH1 0x40 MSTORE DUP1 SWAP3 SWAP2 SWAP1 DUP2 DUP2 MSTORE PUSH1 0x20 ADD DUP3 DUP1 SLOAD DUP1 ISZERO PUSH2 0x14BD JUMPI PUSH1 0x20 MUL DUP3 ADD SWAP2 SWAP1 PUSH1 0x0 MSTORE PUSH1 0x20 PUSH1 0x0 KECCAK256 SWAP1 JUMPDEST DUP2 SLOAD PUSH1 0x1 PUSH1 0x1 PUSH1 0xA0 SHL SUB AND DUP2 MSTORE PUSH1 0x1 SWAP1 SWAP2 ADD SWAP1 PUSH1 0x20 ADD DUP1 DUP4 GT PUSH2 0x149F JUMPI JUMPDEST POP POP POP POP POP SWAP1 POP SWAP1 JUMP JUMPDEST PUSH20 0xBA7F8B5FB1B19C1211C5D49550FCD149177A5EAF SWAP1 JUMP JUMPDEST PUSH1 0x12 SLOAD PUSH4 0xFFFFFFFF AND DUP2 JUMP JUMPDEST PUSH2 0x14F3 PUSH2 0x3BBC JUMP JUMPDEST PUSH1 0x1 PUSH1 0x0 MSTORE PUSH1 0x4 PUSH1 0x20 MSTORE PUSH2 0x1526 PUSH32 0xABD6E7CB50984FF9C2F3E18A2660C3353DADF4E3291DEEB275DAE2CD1E44FE05 PUSH2 0x1BE4 JUMP JUMPDEST SWAP1 POP PUSH1 0x0 DUP3 PUSH1 0x1 DUP2 GT ISZERO PUSH2 0x1536 JUMPI INVALID JUMPDEST EQ ISZERO PUSH2 0xBB6 JUMPI PUSH1 0x0 PUSH2 0x1546 PUSH2 0x14C7 JUMP JUMPDEST PUSH1 0x1 PUSH1 0x1 PUSH1 0xA0 SHL SUB AND PUSH4 0x6B6DF5AA PUSH1 0x40 MLOAD DUP2 PUSH4 0xFFFFFFFF AND PUSH1 0xE0 SHL DUP2 MSTORE PUSH1 0x4 ADD PUSH1 0x20 PUSH1 0x40 MLOAD DUP1 DUP4 SUB DUP2 DUP7 DUP1 EXTCODESIZE ISZERO DUP1 ISZERO PUSH2 0x157E JUMPI PUSH1 0x0 DUP1 REVERT JUMPDEST POP GAS STATICCALL ISZERO DUP1 ISZERO PUSH2 0x1592 JUMPI RETURNDATASIZE PUSH1 0x0 DUP1 RETURNDATACOPY RETURNDATASIZE PUSH1 0x0 REVERT JUMPDEST POP POP POP POP PUSH1 0x40 MLOAD RETURNDATASIZE PUSH1 0x1F NOT PUSH1 0x1F DUP3 ADD AND DUP3 ADD DUP1 PUSH1 0x40 MSTORE POP PUSH2 0x15B6 SWAP2 SWAP1 DUP2 ADD SWAP1 PUSH2 0x3F71 JUMP JUMPDEST SWAP1 POP PUSH2 0x15E0 PUSH2 0x15DB DUP4 PUSH1 0x20 ADD MLOAD PUSH1 0x1 PUSH1 0x1 PUSH1 0x60 SHL SUB AND DUP4 PUSH2 0x1A69 SWAP1 SWAP2 SWAP1 PUSH4 0xFFFFFFFF AND JUMP JUMPDEST PUSH2 0x2314 JUMP JUMPDEST PUSH1 0x1 PUSH1 0x1 PUSH1 0x60 SHL SUB SWAP1 DUP2 AND PUSH1 0x20 DUP5 ADD MSTORE PUSH1 0x40 DUP4 ADD MLOAD PUSH2 0x160B SWAP2 PUSH2 0x15DB SWAP2 DUP5 SWAP2 AND PUSH4 0xFFFFFFFF PUSH2 0x1A69 AND JUMP JUMPDEST PUSH1 0x1 PUSH1 0x1 PUSH1 0x60 SHL SUB AND PUSH1 0x40 DUP4 ADD MSTORE POP SWAP2 SWAP1 POP JUMP JUMPDEST PUSH1 0x14 SLOAD PUSH5 0x100000000 SWAP1 DIV PUSH4 0xFFFFFFFF AND DUP2 JUMP JUMPDEST PUSH1 0x0 PUSH2 0x163D PUSH2 0x3BBC JUMP JUMPDEST POP PUSH1 0x0 DUP4 DUP2 MSTORE PUSH1 0xA PUSH1 0x20 SWAP1 DUP2 MSTORE PUSH1 0x40 DUP1 DUP4 KECCAK256 DUP2 MLOAD PUSH1 0x60 DUP2 ADD DUP4 MSTORE DUP2 SLOAD PUSH1 0x1 PUSH1 0x1 PUSH1 0xA0 SHL SUB DUP1 DUP3 AND DUP4 MSTORE PUSH1 0x1 PUSH1 0xA0 SHL SWAP1 SWAP2 DIV PUSH4 0xFFFFFFFF AND SWAP5 DUP3 ADD SWAP5 SWAP1 SWAP5 MSTORE PUSH1 0x1 SWAP1 SWAP2 ADD SLOAD SWAP1 SWAP3 AND SWAP1 DUP3 ADD MSTORE SWAP1 DUP1 PUSH2 0x1693 DUP7 PUSH2 0x21EB JUMP JUMPDEST SWAP2 POP SWAP2 POP PUSH1 0x0 PUSH2 0x16A8 DUP5 PUSH1 0x20 ADD MLOAD DUP5 DUP5 PUSH2 0x22A8 JUMP JUMPDEST SWAP2 POP POP PUSH2 0x16B7 DUP8 DUP8 DUP4 DUP6 PUSH2 0x2333 JUMP JUMPDEST SWAP8 SWAP7 POP POP POP POP POP POP POP JUMP JUMPDEST PUSH1 0x3 SLOAD PUSH1 0x1 PUSH1 0x1 PUSH1 0xA0 SHL SUB AND DUP2 JUMP JUMPDEST PUSH20 0x4FBB350052BCA5417566F188EB2EBCE5B19BC964 SWAP1 JUMP JUMPDEST PUSH2 0x16F1 PUSH2 0x3BBC JUMP JUMPDEST PUSH1 0x1 PUSH1 0x1 PUSH1 0xA0 SHL SUB DUP4 AND PUSH1 0x0 SWAP1 DUP2 MSTORE PUSH1 0x6 PUSH1 0x20 SWAP1 DUP2 MSTORE PUSH1 0x40 DUP1 DUP4 KECCAK256 DUP6 DUP5 MSTORE SWAP1 SWAP2 MSTORE SWAP1 KECCAK256 PUSH2 0xD34 SWAP1 PUSH2 0x1BE4 JUMP JUMPDEST PUSH2 0x1725 PUSH2 0x1C68 JUMP JUMPDEST PUSH1 0x1 PUSH1 0x1 PUSH1 0xA0 SHL SUB DUP2 AND PUSH2 0x1743 JUMPI PUSH2 0x173E PUSH2 0x845 PUSH2 0x244B JUMP JUMPDEST PUSH2 0xCE8 JUMP JUMPDEST PUSH1 0x0 DUP1 SLOAD PUSH1 0x1 PUSH1 0x1 PUSH1 0xA0 SHL SUB NOT AND PUSH1 0x1 PUSH1 0x1 PUSH1 0xA0 SHL SUB DUP4 AND SWAP1 DUP2 OR DUP3 SSTORE PUSH1 0x40 MLOAD SWAP1 SWAP2 CALLER SWAP2 PUSH32 0x8BE0079C531659141344CD1FD0A4F28419497F9722A3DAAFE3B4186F6B6457E0 SWAP2 SWAP1 LOG3 POP JUMP JUMPDEST PUSH2 0x1797 CALLER PUSH2 0x2469 JUMP JUMPDEST ISZERO PUSH2 0x17B7 JUMPI CALLER PUSH1 0x0 SWAP1 DUP2 MSTORE PUSH1 0x10 PUSH1 0x20 MSTORE PUSH1 0x40 SWAP1 KECCAK256 DUP1 SLOAD PUSH1 0xFF NOT AND PUSH1 0x1 OR SWAP1 SSTORE JUMPDEST PUSH1 0xC SLOAD PUSH1 0x0 PUSH2 0x17CD DUP3 PUSH1 0x1 PUSH4 0xFFFFFFFF PUSH2 0x1A69 AND JUMP JUMPDEST SWAP1 POP PUSH2 0x17D7 PUSH2 0x3B8D JUMP JUMPDEST POP PUSH1 0x0 DUP2 DUP2 MSTORE PUSH1 0x16 PUSH1 0x20 SWAP1 DUP2 MSTORE PUSH1 0x40 SWAP2 DUP3 SWAP1 KECCAK256 DUP3 MLOAD PUSH1 0xA0 DUP2 ADD DUP5 MSTORE DUP2 SLOAD DUP2 MSTORE PUSH1 0x1 DUP3 ADD SLOAD SWAP3 DUP2 ADD DUP4 SWAP1 MSTORE PUSH1 0x2 DUP3 ADD SLOAD SWAP4 DUP2 ADD SWAP4 SWAP1 SWAP4 MSTORE PUSH1 0x3 DUP2 ADD SLOAD PUSH1 0x60 DUP5 ADD MSTORE PUSH1 0x4 ADD SLOAD PUSH1 0x80 DUP4 ADD MSTORE PUSH2 0x182C JUMPI POP POP POP PUSH2 0xCE8 JUMP JUMPDEST PUSH2 0x1834 PUSH2 0x3BDC JUMP JUMPDEST POP PUSH1 0x0 DUP5 DUP2 MSTORE PUSH1 0x15 PUSH1 0x20 SWAP1 DUP2 MSTORE PUSH1 0x40 DUP1 DUP4 KECCAK256 DUP6 DUP5 MSTORE DUP3 MSTORE SWAP2 DUP3 SWAP1 KECCAK256 DUP3 MLOAD PUSH1 0x60 DUP2 ADD DUP5 MSTORE DUP2 SLOAD DUP1 DUP3 MSTORE PUSH1 0x1 DUP4 ADD SLOAD SWAP4 DUP3 ADD SWAP4 SWAP1 SWAP4 MSTORE PUSH1 0x2 SWAP1 SWAP2 ADD SLOAD SWAP3 DUP2 ADD SWAP3 SWAP1 SWAP3 MSTORE PUSH2 0x1882 JUMPI POP POP POP POP PUSH2 0xCE8 JUMP JUMPDEST PUSH1 0x0 DUP6 DUP2 MSTORE PUSH1 0x15 PUSH1 0x20 SWAP1 DUP2 MSTORE PUSH1 0x40 DUP1 DUP4 KECCAK256 DUP7 DUP5 MSTORE SWAP1 SWAP2 MSTORE DUP2 KECCAK256 DUP2 DUP2 SSTORE PUSH1 0x1 DUP2 ADD DUP3 SWAP1 SSTORE PUSH1 0x2 ADD DUP2 SWAP1 SSTORE PUSH2 0x18B5 DUP3 DUP5 PUSH2 0x246F JUMP JUMPDEST SWAP1 POP PUSH1 0x0 DUP1 PUSH2 0x18C9 DUP9 DUP5 DUP7 PUSH1 0x40 ADD MLOAD PUSH2 0x26F0 JUMP JUMPDEST SWAP2 POP SWAP2 POP DUP8 DUP8 PUSH32 0xF1116B309178AA62DCB6BF8C3B8BC2321724907C7EBF52192D14C8CE3AA9194C DUP5 DUP5 PUSH1 0x40 MLOAD PUSH2 0x1900 SWAP3 SWAP2 SWAP1 PUSH2 0x4324 JUMP JUMPDEST PUSH1 0x40 MLOAD DUP1 SWAP2 SUB SWAP1 LOG3 PUSH1 0x0 PUSH2 0x191A DUP4 DUP4 PUSH4 0xFFFFFFFF PUSH2 0x205C AND JUMP JUMPDEST PUSH1 0x80 DUP8 ADD MLOAD SWAP1 SWAP2 POP PUSH2 0x1932 SWAP1 DUP3 PUSH4 0xFFFFFFFF PUSH2 0x205C AND JUMP JUMPDEST PUSH1 0x80 DUP8 ADD DUP2 SWAP1 MSTORE PUSH1 0x0 DUP9 DUP2 MSTORE PUSH1 0x16 PUSH1 0x20 SWAP1 DUP2 MSTORE PUSH1 0x40 SWAP1 SWAP2 KECCAK256 PUSH1 0x4 ADD SWAP2 SWAP1 SWAP2 SSTORE DUP7 ADD MLOAD PUSH2 0x1965 SWAP1 PUSH1 0x1 PUSH4 0xFFFFFFFF PUSH2 0x1A69 AND JUMP JUMPDEST PUSH1 0x20 DUP1 DUP9 ADD DUP3 DUP2 MSTORE PUSH1 0x0 DUP11 DUP2 MSTORE PUSH1 0x16 SWAP1 SWAP3 MSTORE PUSH1 0x40 SWAP1 SWAP2 KECCAK256 PUSH1 0x1 ADD SWAP2 SWAP1 SWAP2 SSTORE MLOAD PUSH2 0x19DA JUMPI PUSH1 0x80 DUP7 ADD MLOAD DUP7 MLOAD DUP9 SWAP2 PUSH32 0xB463D19ECF455BE65365092CF8E1DB6934A0334CF8CD532DDF9964D01F36B5B2 SWAP2 PUSH2 0x19C3 SWAP1 DUP3 PUSH4 0xFFFFFFFF PUSH2 0x1A69 AND JUMP JUMPDEST PUSH1 0x40 MLOAD PUSH2 0x19D1 SWAP3 SWAP2 SWAP1 PUSH2 0x4324 JUMP JUMPDEST PUSH1 0x40 MLOAD DUP1 SWAP2 SUB SWAP1 LOG2 JUMPDEST POP POP POP POP POP POP POP POP POP JUMP JUMPDEST CALLER PUSH1 0x0 SWAP1 DUP2 MSTORE PUSH1 0x1 PUSH1 0x20 MSTORE PUSH1 0x40 SWAP1 KECCAK256 SLOAD PUSH1 0xFF AND PUSH2 0x1A08 JUMPI PUSH2 0x1A08 PUSH2 0x845 CALLER PUSH2 0x280F JUMP JUMPDEST JUMP JUMPDEST PUSH1 0x60 PUSH4 0xB9588E43 PUSH1 0xE0 SHL DUP4 DUP4 PUSH1 0x40 MLOAD PUSH1 0x24 ADD PUSH2 0x1A27 SWAP3 SWAP2 SWAP1 PUSH2 0x4384 JUMP JUMPDEST PUSH1 0x40 DUP1 MLOAD PUSH1 0x1F NOT DUP2 DUP5 SUB ADD DUP2 MSTORE SWAP2 SWAP1 MSTORE PUSH1 0x20 DUP2 ADD DUP1 MLOAD PUSH1 0x1 PUSH1 0x1 PUSH1 0xE0 SHL SUB AND PUSH1 0x1 PUSH1 0x1 PUSH1 0xE0 SHL SUB NOT SWAP1 SWAP4 AND SWAP3 SWAP1 SWAP3 OR SWAP1 SWAP2 MSTORE SWAP1 POP SWAP3 SWAP2 POP POP JUMP JUMPDEST DUP1 MLOAD PUSH1 0x20 DUP3 ADD REVERT JUMPDEST PUSH1 0x0 DUP3 DUP3 GT ISZERO PUSH2 0x1A82 JUMPI PUSH2 0x1A82 PUSH2 0x845 PUSH1 0x2 DUP6 DUP6 PUSH2 0x282A JUMP JUMPDEST POP SWAP1 SUB SWAP1 JUMP JUMPDEST PUSH1 0x60 PUSH4 0x614B800A PUSH1 0xE0 SHL DUP4 DUP4 PUSH1 0x40 MLOAD PUSH1 0x24 ADD PUSH2 0x1A27 SWAP3 SWAP2 SWAP1 PUSH2 0x4324 JUMP JUMPDEST SELFBALANCE DUP1 ISZERO PUSH2 0xCE8 JUMPI PUSH2 0x1AB4 PUSH2 0xCA0 JUMP JUMPDEST PUSH1 0x1 PUSH1 0x1 PUSH1 0xA0 SHL SUB AND PUSH4 0xD0E30DB0 DUP3 PUSH1 0x40 MLOAD DUP3 PUSH4 0xFFFFFFFF AND PUSH1 0xE0 SHL DUP2 MSTORE PUSH1 0x4 ADD PUSH1 0x0 PUSH1 0x40 MLOAD DUP1 DUP4 SUB DUP2 DUP6 DUP9 DUP1 EXTCODESIZE ISZERO DUP1 ISZERO PUSH2 0x1AEE JUMPI PUSH1 0x0 DUP1 REVERT JUMPDEST POP GAS CALL ISZERO DUP1 ISZERO PUSH2 0x1B02 JUMPI RETURNDATASIZE PUSH1 0x0 DUP1 RETURNDATACOPY RETURNDATASIZE PUSH1 0x0 REVERT JUMPDEST POP POP POP POP POP POP JUMP JUMPDEST PUSH1 0x0 PUSH2 0x11D4 PUSH1 0x17 SLOAD PUSH2 0x1B1A PUSH2 0xCA0 JUMP JUMPDEST PUSH1 0x1 PUSH1 0x1 PUSH1 0xA0 SHL SUB AND PUSH4 0x70A08231 ADDRESS PUSH1 0x40 MLOAD DUP3 PUSH4 0xFFFFFFFF AND PUSH1 0xE0 SHL DUP2 MSTORE PUSH1 0x4 ADD PUSH2 0x1B45 SWAP2 SWAP1 PUSH2 0x4248 JUMP JUMPDEST PUSH1 0x20 PUSH1 0x40 MLOAD DUP1 DUP4 SUB DUP2 DUP7 DUP1 EXTCODESIZE ISZERO DUP1 ISZERO PUSH2 0x1B5D JUMPI PUSH1 0x0 DUP1 REVERT JUMPDEST POP GAS STATICCALL ISZERO DUP1 ISZERO PUSH2 0x1B71 JUMPI RETURNDATASIZE PUSH1 0x0 DUP1 RETURNDATACOPY RETURNDATASIZE PUSH1 0x0 REVERT JUMPDEST POP POP POP POP PUSH1 0x40 MLOAD RETURNDATASIZE PUSH1 0x1F NOT PUSH1 0x1F DUP3 ADD AND DUP3 ADD DUP1 PUSH1 0x40 MSTORE POP PUSH2 0x1B95 SWAP2 SWAP1 DUP2 ADD SWAP1 PUSH2 0x3F71 JUMP JUMPDEST SWAP1 PUSH4 0xFFFFFFFF PUSH2 0x1A69 AND JUMP JUMPDEST TIMESTAMP PUSH1 0x0 PUSH2 0x1BAC PUSH2 0x11BB JUMP JUMPDEST SWAP1 POP DUP2 DUP2 GT ISZERO PUSH2 0x1BC3 JUMPI PUSH2 0x1BC3 PUSH2 0x845 DUP3 DUP5 PUSH2 0x2885 JUMP JUMPDEST PUSH1 0xC SLOAD PUSH1 0x0 SWAP1 PUSH2 0x1BDA SWAP1 PUSH1 0x1 PUSH4 0xFFFFFFFF PUSH2 0x205C AND JUMP JUMPDEST PUSH1 0xC SSTORE POP POP PUSH1 0xD SSTORE JUMP JUMPDEST PUSH2 0x1BEC PUSH2 0x3BBC JUMP JUMPDEST POP PUSH1 0x40 DUP1 MLOAD PUSH1 0x60 DUP2 ADD DUP3 MSTORE DUP3 SLOAD PUSH1 0x1 PUSH1 0x1 PUSH1 0x40 SHL SUB DUP2 AND DUP1 DUP4 MSTORE PUSH1 0x1 PUSH1 0x1 PUSH1 0x60 SHL SUB PUSH1 0x1 PUSH1 0x40 SHL DUP4 DIV DUP2 AND PUSH1 0x20 DUP6 ADD MSTORE PUSH1 0x1 PUSH1 0xA0 SHL SWAP1 SWAP3 DIV SWAP1 SWAP2 AND SWAP3 DUP3 ADD SWAP3 SWAP1 SWAP3 MSTORE PUSH1 0xC SLOAD SWAP1 SWAP2 DUP2 GT ISZERO PUSH2 0x1C62 JUMPI PUSH2 0x1C43 DUP2 PUSH2 0x28A2 JUMP JUMPDEST PUSH1 0x1 PUSH1 0x1 PUSH1 0x40 SHL SUB AND DUP3 MSTORE PUSH1 0x40 DUP3 ADD MLOAD PUSH1 0x1 PUSH1 0x1 PUSH1 0x60 SHL SUB AND PUSH1 0x20 DUP4 ADD MSTORE JUMPDEST POP SWAP2 SWAP1 POP JUMP JUMPDEST PUSH1 0x0 SLOAD PUSH1 0x1 PUSH1 0x1 PUSH1 0xA0 SHL SUB AND CALLER EQ PUSH2 0x1A08 JUMPI PUSH1 0x0 SLOAD PUSH2 0x1A08 SWAP1 PUSH2 0x845 SWAP1 CALLER SWAP1 PUSH1 0x1 PUSH1 0x1 PUSH1 0xA0 SHL SUB AND PUSH2 0x28C1 JUMP JUMPDEST PUSH1 0x1 PUSH1 0x1 PUSH1 0xA0 SHL SUB DUP2 AND PUSH2 0x1CAE JUMPI PUSH2 0x1CAE PUSH2 0x845 PUSH2 0x28DE JUMP JUMPDEST PUSH1 0x1 PUSH1 0x1 PUSH1 0xA0 SHL SUB DUP2 AND PUSH1 0x0 SWAP1 DUP2 MSTORE PUSH1 0x1 PUSH1 0x20 MSTORE PUSH1 0x40 SWAP1 KECCAK256 SLOAD PUSH1 0xFF AND ISZERO PUSH2 0x1CDB JUMPI PUSH2 0x1CDB PUSH2 0x845 DUP3 PUSH2 0x28FC JUMP JUMPDEST PUSH1 0x1 PUSH1 0x1 PUSH1 0xA0 SHL SUB DUP2 AND PUSH1 0x0 DUP2 DUP2 MSTORE PUSH1 0x1 PUSH1 0x20 DUP2 SWAP1 MSTORE PUSH1 0x40 DUP1 DUP4 KECCAK256 DUP1 SLOAD PUSH1 0xFF NOT AND DUP4 OR SWAP1 SSTORE PUSH1 0x2 DUP1 SLOAD SWAP3 DUP4 ADD DUP2 SSTORE DUP4 MSTORE PUSH32 0x405787FA12A823E0F2B7631CC41B3BA8828B3321CA811111FA75CD3AA3BB5ACE SWAP1 SWAP2 ADD DUP1 SLOAD PUSH1 0x1 PUSH1 0x1 PUSH1 0xA0 SHL SUB NOT AND DUP5 OR SWAP1 SSTORE MLOAD CALLER SWAP3 SWAP2 PUSH32 0x3147867C59D17E8FA9D522465651D44AAE0A9E38F902F3475B97E58072F0ED4C SWAP2 LOG3 POP JUMP JUMPDEST PUSH1 0x0 DUP2 DUP2 MSTORE PUSH1 0xA PUSH1 0x20 MSTORE PUSH1 0x40 SWAP1 KECCAK256 SLOAD PUSH1 0x1 PUSH1 0x1 PUSH1 0xA0 SHL SUB AND CALLER DUP2 EQ PUSH2 0xF51 JUMPI PUSH2 0xF51 PUSH2 0x845 CALLER DUP5 PUSH2 0x2917 JUMP JUMPDEST PUSH3 0xF4240 PUSH4 0xFFFFFFFF DUP3 AND GT ISZERO PUSH2 0x1DBA JUMPI PUSH2 0x1DB5 PUSH2 0x845 PUSH1 0x0 DUP6 DUP5 PUSH2 0x2934 JUMP JUMPDEST PUSH2 0x11AA JUMP JUMPDEST DUP2 PUSH4 0xFFFFFFFF AND DUP2 PUSH4 0xFFFFFFFF AND GT ISZERO PUSH2 0x11AA JUMPI PUSH2 0x11AA PUSH2 0x845 PUSH1 0x1 DUP6 DUP5 PUSH2 0x2934 JUMP JUMPDEST PUSH1 0x60 PUSH4 0xEB5108A2 PUSH1 0xE0 SHL DUP3 PUSH1 0x40 MLOAD PUSH1 0x24 ADD PUSH2 0x1DF8 SWAP2 SWAP1 PUSH2 0x4248 JUMP JUMPDEST PUSH1 0x40 DUP1 MLOAD PUSH1 0x1F NOT DUP2 DUP5 SUB ADD DUP2 MSTORE SWAP2 SWAP1 MSTORE PUSH1 0x20 DUP2 ADD DUP1 MLOAD PUSH1 0x1 PUSH1 0x1 PUSH1 0xE0 SHL SUB AND PUSH1 0x1 PUSH1 0x1 PUSH1 0xE0 SHL SUB NOT SWAP1 SWAP4 AND SWAP3 SWAP1 SWAP3 OR SWAP1 SWAP2 MSTORE SWAP1 POP SWAP2 SWAP1 POP JUMP JUMPDEST PUSH1 0x1 PUSH1 0x1 PUSH1 0xA0 SHL SUB DUP3 AND PUSH1 0x0 SWAP1 DUP2 MSTORE PUSH1 0x1 PUSH1 0x20 MSTORE PUSH1 0x40 SWAP1 KECCAK256 SLOAD PUSH1 0xFF AND PUSH2 0x1E5D JUMPI PUSH2 0x1E5D PUSH2 0x845 DUP4 PUSH2 0x1DDD JUMP JUMPDEST PUSH1 0x2 SLOAD DUP2 LT PUSH2 0x1E78 JUMPI PUSH2 0x1E78 PUSH2 0x845 DUP3 PUSH1 0x2 DUP1 SLOAD SWAP1 POP PUSH2 0x2953 JUMP JUMPDEST DUP2 PUSH1 0x1 PUSH1 0x1 PUSH1 0xA0 SHL SUB AND PUSH1 0x2 DUP3 DUP2 SLOAD DUP2 LT PUSH2 0x1E8F JUMPI INVALID JUMPDEST PUSH1 0x0 SWAP2 DUP3 MSTORE PUSH1 0x20 SWAP1 SWAP2 KECCAK256 ADD SLOAD PUSH1 0x1 PUSH1 0x1 PUSH1 0xA0 SHL SUB AND EQ PUSH2 0x1ED7 JUMPI PUSH2 0x1ED7 PUSH2 0x845 PUSH1 0x2 DUP4 DUP2 SLOAD DUP2 LT PUSH2 0x1EBC JUMPI INVALID JUMPDEST PUSH1 0x0 SWAP2 DUP3 MSTORE PUSH1 0x20 SWAP1 SWAP2 KECCAK256 ADD SLOAD PUSH1 0x1 PUSH1 0x1 PUSH1 0xA0 SHL SUB AND DUP5 PUSH2 0x2970 JUMP JUMPDEST PUSH1 0x1 PUSH1 0x1 PUSH1 0xA0 SHL SUB DUP3 AND PUSH1 0x0 SWAP1 DUP2 MSTORE PUSH1 0x1 PUSH1 0x20 MSTORE PUSH1 0x40 SWAP1 KECCAK256 DUP1 SLOAD PUSH1 0xFF NOT AND SWAP1 SSTORE PUSH1 0x2 DUP1 SLOAD PUSH1 0x0 NOT DUP2 ADD SWAP1 DUP2 LT PUSH2 0x1F09 JUMPI INVALID JUMPDEST PUSH1 0x0 SWAP2 DUP3 MSTORE PUSH1 0x20 SWAP1 SWAP2 KECCAK256 ADD SLOAD PUSH1 0x2 DUP1 SLOAD PUSH1 0x1 PUSH1 0x1 PUSH1 0xA0 SHL SUB SWAP1 SWAP3 AND SWAP2 DUP4 SWAP1 DUP2 LT PUSH2 0x1F2F JUMPI INVALID JUMPDEST PUSH1 0x0 SWAP2 DUP3 MSTORE PUSH1 0x20 SWAP1 SWAP2 KECCAK256 ADD DUP1 SLOAD PUSH1 0x1 PUSH1 0x1 PUSH1 0xA0 SHL SUB NOT AND PUSH1 0x1 PUSH1 0x1 PUSH1 0xA0 SHL SUB SWAP3 SWAP1 SWAP3 AND SWAP2 SWAP1 SWAP2 OR SWAP1 SSTORE PUSH1 0x2 DUP1 SLOAD PUSH1 0x0 NOT ADD SWAP1 PUSH2 0x1F6B SWAP1 DUP3 PUSH2 0x3BFD JUMP JUMPDEST POP PUSH1 0x40 MLOAD CALLER SWAP1 PUSH1 0x1 PUSH1 0x1 PUSH1 0xA0 SHL SUB DUP5 AND SWAP1 PUSH32 0x1F32C1B084E2DE0713B8FB16BD46BB9DF710A3DBEAE2F3CA93AF46E016DCC6B0 SWAP1 PUSH1 0x0 SWAP1 LOG3 POP POP JUMP JUMPDEST PUSH1 0x60 PUSH4 0xB56D2DF0 PUSH1 0xE0 SHL DUP3 PUSH1 0x40 MLOAD PUSH1 0x24 ADD PUSH2 0x1DF8 SWAP2 SWAP1 PUSH2 0x4248 JUMP JUMPDEST DUP1 CALLVALUE EQ ISZERO DUP1 ISZERO PUSH2 0x1FD0 JUMPI POP CALLVALUE ISZERO ISZERO JUMPDEST ISZERO PUSH2 0xCE8 JUMPI PUSH2 0xCE8 PUSH2 0x845 DUP3 CALLVALUE PUSH2 0x298D JUMP JUMPDEST PUSH1 0x0 DUP3 DUP2 MSTORE PUSH1 0xA PUSH1 0x20 MSTORE PUSH1 0x40 DUP2 KECCAK256 SLOAD DUP2 SWAP1 DUP2 SWAP1 PUSH2 0x2008 SWAP1 PUSH1 0x1 PUSH1 0x1 PUSH1 0xA0 SHL SUB AND DUP7 PUSH2 0x16E9 JUMP JUMPDEST PUSH1 0x20 ADD MLOAD PUSH1 0x1 PUSH1 0x1 PUSH1 0x60 SHL SUB AND SWAP1 POP PUSH2 0x2027 DUP5 DUP3 PUSH4 0xFFFFFFFF PUSH2 0x1A69 AND JUMP JUMPDEST PUSH1 0x12 SLOAD SWAP1 SWAP4 POP PUSH2 0x2052 SWAP1 PUSH2 0x2045 SWAP1 PUSH4 0xFFFFFFFF AND PUSH3 0xF4240 DUP7 PUSH2 0x29AA JUMP JUMPDEST DUP3 SWAP1 PUSH4 0xFFFFFFFF PUSH2 0x205C AND JUMP JUMPDEST SWAP2 POP POP SWAP3 POP SWAP3 SWAP1 POP JUMP JUMPDEST PUSH1 0x0 DUP3 DUP3 ADD DUP4 DUP2 LT ISZERO PUSH2 0xD34 JUMPI PUSH2 0xD34 PUSH2 0x845 PUSH1 0x0 DUP7 DUP7 PUSH2 0x282A JUMP JUMPDEST PUSH2 0x2081 DUP3 PUSH2 0x29CC JUMP JUMPDEST PUSH1 0x0 PUSH2 0x2090 DUP4 DUP4 PUSH1 0x0 DUP1 PUSH2 0x2333 JUMP JUMPDEST PUSH1 0x1 PUSH1 0x1 PUSH1 0xA0 SHL SUB DUP4 AND PUSH1 0x0 SWAP1 DUP2 MSTORE PUSH1 0x6 PUSH1 0x20 SWAP1 DUP2 MSTORE PUSH1 0x40 DUP1 DUP4 KECCAK256 DUP8 DUP5 MSTORE SWAP1 SWAP2 MSTORE SWAP1 KECCAK256 SWAP1 SWAP2 POP PUSH2 0x20BF SWAP1 PUSH2 0x1BE4 JUMP JUMPDEST PUSH1 0x1 PUSH1 0x1 PUSH1 0xA0 SHL SUB DUP4 DUP2 AND PUSH1 0x0 SWAP1 DUP2 MSTORE PUSH1 0x6 PUSH1 0x20 SWAP1 DUP2 MSTORE PUSH1 0x40 DUP1 DUP4 KECCAK256 DUP9 DUP5 MSTORE DUP3 MSTORE SWAP2 DUP3 SWAP1 KECCAK256 DUP5 MLOAD DUP2 SLOAD SWAP3 DUP7 ADD MLOAD SWAP6 SWAP1 SWAP4 ADD MLOAD PUSH8 0xFFFFFFFFFFFFFFFF NOT SWAP1 SWAP3 AND PUSH1 0x1 PUSH1 0x1 PUSH1 0x40 SHL SUB SWAP1 SWAP4 AND SWAP3 SWAP1 SWAP3 OR PUSH20 0xFFFFFFFFFFFFFFFFFFFFFFFF0000000000000000 NOT AND PUSH1 0x1 PUSH1 0x40 SHL PUSH1 0x1 PUSH1 0x1 PUSH1 0x60 SHL SUB SWAP6 DUP7 AND MUL OR SWAP1 SWAP3 AND PUSH1 0x1 PUSH1 0xA0 SHL SWAP4 SWAP1 SWAP3 AND SWAP3 SWAP1 SWAP3 MUL OR SWAP1 SSTORE DUP1 ISZERO PUSH2 0x21E2 JUMPI PUSH2 0x2159 DUP4 DUP3 PUSH2 0x2A40 JUMP JUMPDEST PUSH2 0x2161 PUSH2 0xCA0 JUMP JUMPDEST PUSH1 0x1 PUSH1 0x1 PUSH1 0xA0 SHL SUB AND PUSH4 0xA9059CBB DUP4 DUP4 PUSH1 0x40 MLOAD DUP4 PUSH4 0xFFFFFFFF AND PUSH1 0xE0 SHL DUP2 MSTORE PUSH1 0x4 ADD PUSH2 0x218E SWAP3 SWAP2 SWAP1 PUSH2 0x4299 JUMP JUMPDEST PUSH1 0x20 PUSH1 0x40 MLOAD DUP1 DUP4 SUB DUP2 PUSH1 0x0 DUP8 DUP1 EXTCODESIZE ISZERO DUP1 ISZERO PUSH2 0x21A8 JUMPI PUSH1 0x0 DUP1 REVERT JUMPDEST POP GAS CALL ISZERO DUP1 ISZERO PUSH2 0x21BC JUMPI RETURNDATASIZE PUSH1 0x0 DUP1 RETURNDATACOPY RETURNDATASIZE PUSH1 0x0 REVERT JUMPDEST POP POP POP POP PUSH1 0x40 MLOAD RETURNDATASIZE PUSH1 0x1F NOT PUSH1 0x1F DUP3 ADD AND DUP3 ADD DUP1 PUSH1 0x40 MSTORE POP PUSH2 0x21E0 SWAP2 SWAP1 DUP2 ADD SWAP1 PUSH2 0x3E98 JUMP JUMPDEST POP JUMPDEST PUSH2 0x11AA DUP4 PUSH2 0x2A88 JUMP JUMPDEST PUSH1 0x0 DUP1 PUSH1 0x0 PUSH2 0x2206 PUSH1 0x1 PUSH1 0xC SLOAD PUSH2 0x1A69 SWAP1 SWAP2 SWAP1 PUSH4 0xFFFFFFFF AND JUMP JUMPDEST SWAP1 POP PUSH2 0x2210 PUSH2 0x3BDC JUMP JUMPDEST POP PUSH1 0x0 DUP5 DUP2 MSTORE PUSH1 0x15 PUSH1 0x20 SWAP1 DUP2 MSTORE PUSH1 0x40 DUP1 DUP4 KECCAK256 DUP5 DUP5 MSTORE DUP3 MSTORE DUP1 DUP4 KECCAK256 DUP2 MLOAD PUSH1 0x60 DUP1 DUP3 ADD DUP5 MSTORE DUP3 SLOAD DUP3 MSTORE PUSH1 0x1 DUP1 DUP5 ADD SLOAD DUP4 DUP8 ADD MSTORE PUSH1 0x2 SWAP4 DUP5 ADD SLOAD DUP4 DUP7 ADD MSTORE DUP8 DUP8 MSTORE PUSH1 0x16 DUP7 MSTORE SWAP6 DUP5 SWAP1 KECCAK256 DUP5 MLOAD PUSH1 0xA0 DUP2 ADD DUP7 MSTORE DUP2 SLOAD DUP2 MSTORE SWAP7 DUP2 ADD SLOAD SWAP6 DUP8 ADD SWAP6 SWAP1 SWAP6 MSTORE SWAP2 DUP5 ADD SLOAD SWAP3 DUP6 ADD SWAP3 SWAP1 SWAP3 MSTORE PUSH1 0x3 DUP4 ADD SLOAD SWAP1 DUP5 ADD MSTORE PUSH1 0x4 SWAP1 SWAP2 ADD SLOAD PUSH1 0x80 DUP4 ADD MSTORE SWAP1 PUSH2 0x2298 SWAP1 DUP3 SWAP1 PUSH2 0x246F JUMP JUMPDEST SWAP4 POP DUP1 PUSH1 0x40 ADD MLOAD SWAP3 POP POP POP SWAP2 POP SWAP2 JUMP JUMPDEST PUSH1 0x0 DUP1 DUP3 PUSH2 0x22B8 JUMPI DUP4 SWAP2 POP PUSH2 0x22E1 JUMP JUMPDEST PUSH2 0x22CC PUSH4 0xFFFFFFFF DUP7 AND PUSH3 0xF4240 DUP7 PUSH2 0x2A95 JUMP JUMPDEST SWAP2 POP PUSH2 0x22DE DUP5 DUP4 PUSH4 0xFFFFFFFF PUSH2 0x1A69 AND JUMP JUMPDEST SWAP1 POP JUMPDEST SWAP4 POP SWAP4 SWAP2 POP POP JUMP JUMPDEST PUSH1 0x0 DUP2 DUP2 MSTORE PUSH1 0xA PUSH1 0x20 MSTORE PUSH1 0x40 SWAP1 KECCAK256 SLOAD PUSH1 0x1 PUSH1 0x1 PUSH1 0xA0 SHL SUB AND ISZERO PUSH2 0xCE8 JUMPI PUSH2 0xCE8 PUSH2 0x845 DUP3 PUSH1 0x0 PUSH2 0x2ACB JUMP JUMPDEST DUP1 PUSH1 0x1 PUSH1 0x1 PUSH1 0x60 SHL SUB DUP2 AND DUP2 EQ PUSH2 0xBB6 JUMPI PUSH2 0xBB6 PUSH2 0x845 PUSH1 0x2 DUP5 PUSH2 0x2AE8 JUMP JUMPDEST PUSH1 0xC SLOAD PUSH1 0x0 SWAP1 PUSH2 0x2341 PUSH2 0x3BBC JUMP JUMPDEST POP PUSH1 0x1 PUSH1 0x1 PUSH1 0xA0 SHL SUB DUP6 AND PUSH1 0x0 SWAP1 DUP2 MSTORE PUSH1 0x6 PUSH1 0x20 SWAP1 DUP2 MSTORE PUSH1 0x40 DUP1 DUP4 KECCAK256 DUP10 DUP5 MSTORE DUP3 MSTORE SWAP2 DUP3 SWAP1 KECCAK256 DUP3 MLOAD PUSH1 0x60 DUP2 ADD DUP5 MSTORE SWAP1 SLOAD PUSH1 0x1 PUSH1 0x1 PUSH1 0x40 SHL SUB DUP2 AND DUP1 DUP4 MSTORE PUSH1 0x1 PUSH1 0x1 PUSH1 0x60 SHL SUB PUSH1 0x1 PUSH1 0x40 SHL DUP4 DIV DUP2 AND SWAP5 DUP5 ADD SWAP5 SWAP1 SWAP5 MSTORE PUSH1 0x1 PUSH1 0xA0 SHL SWAP1 SWAP2 DIV SWAP1 SWAP3 AND SWAP3 DUP2 ADD SWAP3 SWAP1 SWAP3 MSTORE DUP3 EQ ISZERO PUSH2 0x23B9 JUMPI PUSH1 0x0 SWAP3 POP POP POP PUSH2 0x2443 JUMP JUMPDEST PUSH2 0x23C5 DUP2 DUP4 DUP8 DUP8 PUSH2 0x2B05 JUMP JUMPDEST DUP2 MLOAD SWAP1 SWAP4 POP PUSH1 0x0 SWAP1 PUSH2 0x23E7 SWAP1 PUSH1 0x1 PUSH1 0x1 PUSH1 0x40 SHL SUB AND PUSH1 0x1 PUSH4 0xFFFFFFFF PUSH2 0x205C AND JUMP JUMPDEST SWAP1 POP PUSH2 0x241F PUSH2 0x2412 DUP10 DUP5 PUSH1 0x20 ADD MLOAD PUSH1 0x1 PUSH1 0x1 PUSH1 0x60 SHL SUB AND DUP6 PUSH1 0x0 ADD MLOAD PUSH1 0x1 PUSH1 0x1 PUSH1 0x40 SHL SUB AND DUP6 PUSH2 0x2B82 JUMP JUMPDEST DUP6 SWAP1 PUSH4 0xFFFFFFFF PUSH2 0x205C AND JUMP JUMPDEST SWAP4 POP PUSH2 0x243D PUSH2 0x2412 DUP10 DUP5 PUSH1 0x40 ADD MLOAD PUSH1 0x1 PUSH1 0x1 PUSH1 0x60 SHL SUB AND DUP5 DUP8 PUSH2 0x2B82 JUMP JUMPDEST SWAP4 POP POP POP POP JUMPDEST SWAP5 SWAP4 POP POP POP POP JUMP JUMPDEST PUSH1 0x40 DUP1 MLOAD DUP1 DUP3 ADD SWAP1 SWAP2 MSTORE PUSH1 0x4 DUP2 MSTORE PUSH4 0x734F6E1F PUSH1 0xE1 SHL PUSH1 0x20 DUP3 ADD MSTORE SWAP1 JUMP JUMPDEST EXTCODESIZE ISZERO ISZERO SWAP1 JUMP JUMPDEST DUP2 MLOAD PUSH1 0x0 SWAP1 PUSH2 0x247D JUMPI PUSH2 0xD37 JUMP JUMPDEST PUSH1 0x0 PUSH2 0x2487 PUSH2 0x16D1 JUMP JUMPDEST PUSH1 0x1 PUSH1 0x1 PUSH1 0xA0 SHL SUB AND PUSH4 0x7546172 PUSH1 0x40 MLOAD DUP2 PUSH4 0xFFFFFFFF AND PUSH1 0xE0 SHL DUP2 MSTORE PUSH1 0x4 ADD PUSH1 0x20 PUSH1 0x40 MLOAD DUP1 DUP4 SUB DUP2 DUP7 DUP1 EXTCODESIZE ISZERO DUP1 ISZERO PUSH2 0x24BF JUMPI PUSH1 0x0 DUP1 REVERT JUMPDEST POP GAS STATICCALL ISZERO DUP1 ISZERO PUSH2 0x24D3 JUMPI RETURNDATASIZE PUSH1 0x0 DUP1 RETURNDATACOPY RETURNDATASIZE PUSH1 0x0 REVERT JUMPDEST POP POP POP POP PUSH1 0x40 MLOAD RETURNDATASIZE PUSH1 0x1F NOT PUSH1 0x1F DUP3 ADD AND DUP3 ADD DUP1 PUSH1 0x40 MSTORE POP PUSH2 0x24F7 SWAP2 SWAP1 DUP2 ADD SWAP1 PUSH2 0x3D18 JUMP JUMPDEST SWAP1 POP PUSH1 0x0 DUP2 PUSH1 0x1 PUSH1 0x1 PUSH1 0xA0 SHL SUB AND PUSH4 0xE70EADC0 PUSH1 0x40 MLOAD DUP2 PUSH4 0xFFFFFFFF AND PUSH1 0xE0 SHL DUP2 MSTORE PUSH1 0x4 ADD PUSH1 0x20 PUSH1 0x40 MLOAD DUP1 DUP4 SUB DUP2 DUP7 DUP1 EXTCODESIZE ISZERO DUP1 ISZERO PUSH2 0x2534 JUMPI PUSH1 0x0 DUP1 REVERT JUMPDEST POP GAS STATICCALL ISZERO DUP1 ISZERO PUSH2 0x2548 JUMPI RETURNDATASIZE PUSH1 0x0 DUP1 RETURNDATACOPY RETURNDATASIZE PUSH1 0x0 REVERT JUMPDEST POP POP POP POP PUSH1 0x40 MLOAD RETURNDATASIZE PUSH1 0x1F NOT PUSH1 0x1F DUP3 ADD AND DUP3 ADD DUP1 PUSH1 0x40 MSTORE POP PUSH2 0x256C SWAP2 SWAP1 DUP2 ADD SWAP1 PUSH2 0x3D18 JUMP JUMPDEST PUSH1 0x40 MLOAD PUSH4 0xF36766C1 PUSH1 0xE0 SHL DUP2 MSTORE PUSH1 0x1 PUSH1 0x1 PUSH1 0xA0 SHL SUB SWAP2 SWAP1 SWAP2 AND SWAP1 PUSH4 0xF36766C1 SWAP1 PUSH2 0x259B SWAP1 PUSH1 0x1 SWAP1 PUSH1 0x4 ADD PUSH2 0x42D3 JUMP JUMPDEST PUSH1 0x20 PUSH1 0x40 MLOAD DUP1 DUP4 SUB DUP2 DUP7 DUP1 EXTCODESIZE ISZERO DUP1 ISZERO PUSH2 0x25B3 JUMPI PUSH1 0x0 DUP1 REVERT JUMPDEST POP GAS STATICCALL ISZERO DUP1 ISZERO PUSH2 0x25C7 JUMPI RETURNDATASIZE PUSH1 0x0 DUP1 RETURNDATACOPY RETURNDATASIZE PUSH1 0x0 REVERT JUMPDEST POP POP POP POP PUSH1 0x40 MLOAD RETURNDATASIZE PUSH1 0x1F NOT PUSH1 0x1F DUP3 ADD AND DUP3 ADD DUP1 PUSH1 0x40 MSTORE POP PUSH2 0x25EB SWAP2 SWAP1 DUP2 ADD SWAP1 PUSH2 0x3F71 JUMP JUMPDEST SWAP1 POP PUSH1 0x0 DUP3 PUSH1 0x1 PUSH1 0x1 PUSH1 0xA0 SHL SUB AND PUSH4 0xEF78D4FD PUSH1 0x40 MLOAD DUP2 PUSH4 0xFFFFFFFF AND PUSH1 0xE0 SHL DUP2 MSTORE PUSH1 0x4 ADD PUSH1 0x20 PUSH1 0x40 MLOAD DUP1 DUP4 SUB DUP2 DUP7 DUP1 EXTCODESIZE ISZERO DUP1 ISZERO PUSH2 0x2628 JUMPI PUSH1 0x0 DUP1 REVERT JUMPDEST POP GAS STATICCALL ISZERO DUP1 ISZERO PUSH2 0x263C JUMPI RETURNDATASIZE PUSH1 0x0 DUP1 RETURNDATACOPY RETURNDATASIZE PUSH1 0x0 REVERT JUMPDEST POP POP POP POP PUSH1 0x40 MLOAD RETURNDATASIZE PUSH1 0x1F NOT PUSH1 0x1F DUP3 ADD AND DUP3 ADD DUP1 PUSH1 0x40 MSTORE POP PUSH2 0x2660 SWAP2 SWAP1 DUP2 ADD SWAP1 PUSH2 0x3F71 JUMP JUMPDEST SWAP1 POP PUSH1 0x0 PUSH2 0x266E PUSH1 0x1 PUSH2 0xCB8 JUMP JUMPDEST PUSH1 0x20 SWAP1 DUP2 ADD MLOAD SWAP1 DUP9 ADD MLOAD PUSH1 0x60 DUP9 ADD MLOAD PUSH1 0x14 SLOAD PUSH1 0x1 PUSH1 0x1 PUSH1 0x60 SHL SUB SWAP1 SWAP4 AND SWAP4 POP PUSH4 0x1E13380 DUP6 DUP6 MUL DIV SWAP3 PUSH2 0x26BA SWAP3 DUP5 SWAP3 DUP9 SWAP3 DUP5 SWAP3 SWAP2 SWAP1 PUSH4 0xFFFFFFFF DUP1 DUP3 AND SWAP2 PUSH5 0x100000000 SWAP1 DIV AND PUSH2 0x2C01 JUMP JUMPDEST PUSH1 0x80 DUP9 ADD MLOAD DUP9 MLOAD SWAP2 SWAP8 POP PUSH1 0x0 SWAP2 PUSH2 0x26D6 SWAP2 PUSH4 0xFFFFFFFF PUSH2 0x1A69 AND JUMP JUMPDEST SWAP1 POP DUP7 DUP2 LT ISZERO PUSH2 0x26E4 JUMPI DUP1 SWAP7 POP JUMPDEST POP POP POP POP POP POP SWAP3 SWAP2 POP POP JUMP JUMPDEST PUSH1 0x0 DUP1 PUSH2 0x26FB PUSH2 0x3BBC JUMP JUMPDEST POP PUSH1 0x0 DUP6 DUP2 MSTORE PUSH1 0xA PUSH1 0x20 SWAP1 DUP2 MSTORE PUSH1 0x40 SWAP2 DUP3 SWAP1 KECCAK256 DUP3 MLOAD PUSH1 0x60 DUP2 ADD DUP5 MSTORE DUP2 SLOAD PUSH1 0x1 PUSH1 0x1 PUSH1 0xA0 SHL SUB DUP1 DUP3 AND DUP4 MSTORE PUSH1 0x1 PUSH1 0xA0 SHL SWAP1 SWAP2 DIV PUSH4 0xFFFFFFFF AND SWAP4 DUP3 ADD DUP5 SWAP1 MSTORE PUSH1 0x1 SWAP1 SWAP3 ADD SLOAD SWAP1 SWAP2 AND SWAP3 DUP2 ADD SWAP3 SWAP1 SWAP3 MSTORE PUSH2 0x2754 SWAP1 DUP7 DUP7 PUSH2 0x22A8 JUMP JUMPDEST SWAP1 SWAP4 POP SWAP2 POP DUP3 ISZERO PUSH2 0x27EB JUMPI PUSH2 0x2767 PUSH2 0xCA0 JUMP JUMPDEST DUP2 MLOAD PUSH1 0x40 MLOAD PUSH4 0xA9059CBB PUSH1 0xE0 SHL DUP2 MSTORE PUSH1 0x1 PUSH1 0x1 PUSH1 0xA0 SHL SUB SWAP3 SWAP1 SWAP3 AND SWAP2 PUSH4 0xA9059CBB SWAP2 PUSH2 0x2797 SWAP2 DUP8 SWAP1 PUSH1 0x4 ADD PUSH2 0x4299 JUMP JUMPDEST PUSH1 0x20 PUSH1 0x40 MLOAD DUP1 DUP4 SUB DUP2 PUSH1 0x0 DUP8 DUP1 EXTCODESIZE ISZERO DUP1 ISZERO PUSH2 0x27B1 JUMPI PUSH1 0x0 DUP1 REVERT JUMPDEST POP GAS CALL ISZERO DUP1 ISZERO PUSH2 0x27C5 JUMPI RETURNDATASIZE PUSH1 0x0 DUP1 RETURNDATACOPY RETURNDATASIZE PUSH1 0x0 REVERT JUMPDEST POP POP POP POP PUSH1 0x40 MLOAD RETURNDATASIZE PUSH1 0x1F NOT PUSH1 0x1F DUP3 ADD AND DUP3 ADD DUP1 PUSH1 0x40 MSTORE POP PUSH2 0x27E9 SWAP2 SWAP1 DUP2 ADD SWAP1 PUSH2 0x3E98 JUMP JUMPDEST POP JUMPDEST DUP2 ISZERO PUSH2 0x2806 JUMPI PUSH2 0x27FB DUP7 DUP4 PUSH2 0x2CC4 JUMP JUMPDEST PUSH2 0x2806 DUP7 DUP4 DUP7 PUSH2 0x2D05 JUMP JUMPDEST POP SWAP4 POP SWAP4 SWAP2 POP POP JUMP JUMPDEST PUSH1 0x60 PUSH4 0xB65A25B9 PUSH1 0xE0 SHL DUP3 PUSH1 0x40 MLOAD PUSH1 0x24 ADD PUSH2 0x1DF8 SWAP2 SWAP1 PUSH2 0x4248 JUMP JUMPDEST PUSH1 0x60 PUSH4 0xE946C1BB PUSH1 0xE0 SHL DUP5 DUP5 DUP5 PUSH1 0x40 MLOAD PUSH1 0x24 ADD PUSH2 0x2849 SWAP4 SWAP3 SWAP2 SWAP1 PUSH2 0x4340 JUMP JUMPDEST PUSH1 0x40 DUP1 MLOAD PUSH1 0x1F NOT DUP2 DUP5 SUB ADD DUP2 MSTORE SWAP2 SWAP1 MSTORE PUSH1 0x20 DUP2 ADD DUP1 MLOAD PUSH1 0x1 PUSH1 0x1 PUSH1 0xE0 SHL SUB AND PUSH1 0x1 PUSH1 0x1 PUSH1 0xE0 SHL SUB NOT SWAP1 SWAP4 AND SWAP3 SWAP1 SWAP3 OR SWAP1 SWAP2 MSTORE SWAP1 POP JUMPDEST SWAP4 SWAP3 POP POP POP JUMP JUMPDEST PUSH1 0x60 PUSH4 0xA6BCDE47 PUSH1 0xE0 SHL DUP4 DUP4 PUSH1 0x40 MLOAD PUSH1 0x24 ADD PUSH2 0x1A27 SWAP3 SWAP2 SWAP1 PUSH2 0x4324 JUMP JUMPDEST DUP1 PUSH1 0x1 PUSH1 0x1 PUSH1 0x40 SHL SUB DUP2 AND DUP2 EQ PUSH2 0xBB6 JUMPI PUSH2 0xBB6 PUSH2 0x845 PUSH1 0x1 DUP5 PUSH2 0x2AE8 JUMP JUMPDEST PUSH1 0x60 PUSH4 0x1DE45AD1 PUSH1 0xE0 SHL DUP4 DUP4 PUSH1 0x40 MLOAD PUSH1 0x24 ADD PUSH2 0x1A27 SWAP3 SWAP2 SWAP1 PUSH2 0x4256 JUMP JUMPDEST PUSH1 0x40 DUP1 MLOAD DUP1 DUP3 ADD SWAP1 SWAP2 MSTORE PUSH1 0x4 DUP2 MSTORE PUSH4 0x15D953F9 PUSH1 0xE2 SHL PUSH1 0x20 DUP3 ADD MSTORE SWAP1 JUMP JUMPDEST PUSH1 0x60 PUSH4 0xDE16F1A0 PUSH1 0xE0 SHL DUP3 PUSH1 0x40 MLOAD PUSH1 0x24 ADD PUSH2 0x1DF8 SWAP2 SWAP1 PUSH2 0x4248 JUMP JUMPDEST PUSH1 0x60 PUSH4 0x82DED785 PUSH1 0xE0 SHL DUP4 DUP4 PUSH1 0x40 MLOAD PUSH1 0x24 ADD PUSH2 0x1A27 SWAP3 SWAP2 SWAP1 PUSH2 0x4299 JUMP JUMPDEST PUSH1 0x60 PUSH4 0x22DF9597 PUSH1 0xE0 SHL DUP5 DUP5 DUP5 PUSH1 0x40 MLOAD PUSH1 0x24 ADD PUSH2 0x2849 SWAP4 SWAP3 SWAP2 SWAP1 PUSH2 0x4369 JUMP JUMPDEST PUSH1 0x60 PUSH4 0xE9F83771 PUSH1 0xE0 SHL DUP4 DUP4 PUSH1 0x40 MLOAD PUSH1 0x24 ADD PUSH2 0x1A27 SWAP3 SWAP2 SWAP1 PUSH2 0x4324 JUMP JUMPDEST PUSH1 0x60 PUSH4 0x140A84DB PUSH1 0xE0 SHL DUP4 DUP4 PUSH1 0x40 MLOAD PUSH1 0x24 ADD PUSH2 0x1A27 SWAP3 SWAP2 SWAP1 PUSH2 0x4256 JUMP JUMPDEST PUSH1 0x60 PUSH4 0x31D7A505 PUSH1 0xE0 SHL DUP4 DUP4 PUSH1 0x40 MLOAD PUSH1 0x24 ADD PUSH2 0x1A27 SWAP3 SWAP2 SWAP1 PUSH2 0x4324 JUMP JUMPDEST PUSH1 0x0 PUSH2 0x2443 DUP4 PUSH2 0x29C0 DUP7 DUP6 PUSH4 0xFFFFFFFF PUSH2 0x2DEE AND JUMP JUMPDEST SWAP1 PUSH4 0xFFFFFFFF PUSH2 0x2E1F AND JUMP JUMPDEST PUSH1 0xC SLOAD PUSH1 0x0 SWAP1 PUSH2 0x29E3 SWAP1 PUSH1 0x1 PUSH4 0xFFFFFFFF PUSH2 0x1A69 AND JUMP JUMPDEST SWAP1 POP PUSH2 0x29ED PUSH2 0x3BDC JUMP JUMPDEST POP PUSH1 0x0 DUP3 DUP2 MSTORE PUSH1 0x15 PUSH1 0x20 SWAP1 DUP2 MSTORE PUSH1 0x40 DUP1 DUP4 KECCAK256 DUP5 DUP5 MSTORE DUP3 MSTORE SWAP2 DUP3 SWAP1 KECCAK256 DUP3 MLOAD PUSH1 0x60 DUP2 ADD DUP5 MSTORE DUP2 SLOAD DUP1 DUP3 MSTORE PUSH1 0x1 DUP4 ADD SLOAD SWAP4 DUP3 ADD SWAP4 SWAP1 SWAP4 MSTORE PUSH1 0x2 SWAP1 SWAP2 ADD SLOAD SWAP3 DUP2 ADD SWAP3 SWAP1 SWAP3 MSTORE ISZERO PUSH2 0x11AA JUMPI PUSH2 0x11AA PUSH2 0x845 DUP5 DUP5 PUSH2 0x2E49 JUMP JUMPDEST PUSH1 0x0 DUP3 DUP2 MSTORE PUSH1 0xB PUSH1 0x20 MSTORE PUSH1 0x40 SWAP1 KECCAK256 SLOAD PUSH2 0x2A5F SWAP1 DUP3 PUSH4 0xFFFFFFFF PUSH2 0x1A69 AND JUMP JUMPDEST PUSH1 0x0 DUP4 DUP2 MSTORE PUSH1 0xB PUSH1 0x20 MSTORE PUSH1 0x40 SWAP1 KECCAK256 SSTORE PUSH1 0x17 SLOAD PUSH2 0x2A81 SWAP1 DUP3 PUSH4 0xFFFFFFFF PUSH2 0x1A69 AND JUMP JUMPDEST PUSH1 0x17 SSTORE POP POP JUMP JUMPDEST PUSH2 0xCE8 DUP2 PUSH1 0x0 PUSH1 0x1 PUSH2 0x2D05 JUMP JUMPDEST PUSH1 0x0 PUSH2 0x2443 DUP4 PUSH2 0x29C0 PUSH2 0x2AAF DUP3 PUSH1 0x1 PUSH4 0xFFFFFFFF PUSH2 0x1A69 AND JUMP JUMPDEST PUSH2 0x2ABF DUP9 DUP8 PUSH4 0xFFFFFFFF PUSH2 0x2DEE AND JUMP JUMPDEST SWAP1 PUSH4 0xFFFFFFFF PUSH2 0x205C AND JUMP JUMPDEST PUSH1 0x60 PUSH4 0x9AE94F01 PUSH1 0xE0 SHL DUP4 DUP4 PUSH1 0x40 MLOAD PUSH1 0x24 ADD PUSH2 0x1A27 SWAP3 SWAP2 SWAP1 PUSH2 0x4309 JUMP JUMPDEST PUSH1 0x60 PUSH4 0xC996AF7B PUSH1 0xE0 SHL DUP4 DUP4 PUSH1 0x40 MLOAD PUSH1 0x24 ADD PUSH2 0x1A27 SWAP3 SWAP2 SWAP1 PUSH2 0x435B JUMP JUMPDEST PUSH1 0x0 DUP3 ISZERO DUP1 PUSH2 0x2B12 JUMPI POP DUP2 ISZERO JUMPDEST ISZERO PUSH2 0x2B1F JUMPI POP PUSH1 0x0 PUSH2 0x2443 JUMP JUMPDEST PUSH1 0x0 PUSH2 0x2B32 DUP6 PUSH1 0x1 PUSH4 0xFFFFFFFF PUSH2 0x1A69 AND JUMP JUMPDEST DUP7 MLOAD PUSH1 0x1 PUSH1 0x1 PUSH1 0x40 SHL SUB AND LT ISZERO PUSH2 0x2B4D JUMPI DUP6 PUSH1 0x40 ADD MLOAD PUSH2 0x2B53 JUMP JUMPDEST DUP6 PUSH1 0x20 ADD MLOAD JUMPDEST PUSH1 0x1 PUSH1 0x1 PUSH1 0x60 SHL SUB AND SWAP1 POP DUP1 PUSH2 0x2B6D JUMPI PUSH1 0x0 SWAP2 POP POP PUSH2 0x2443 JUMP JUMPDEST PUSH2 0x2B78 DUP5 DUP5 DUP4 PUSH2 0x29AA JUMP JUMPDEST SWAP7 SWAP6 POP POP POP POP POP POP JUMP JUMPDEST PUSH1 0x0 DUP4 ISZERO DUP1 PUSH2 0x2B90 JUMPI POP DUP2 DUP4 EQ JUMPDEST ISZERO PUSH2 0x2B9D JUMPI POP PUSH1 0x0 PUSH2 0x2443 JUMP JUMPDEST DUP2 DUP4 LT PUSH2 0x2BBC JUMPI PUSH1 0x40 MLOAD PUSH3 0x461BCD PUSH1 0xE5 SHL DUP2 MSTORE PUSH1 0x4 ADD PUSH2 0xAA8 SWAP1 PUSH2 0x43D0 JUMP JUMPDEST PUSH2 0x2BC4 PUSH2 0x3C21 JUMP JUMPDEST PUSH2 0x2BCE DUP7 DUP6 PUSH2 0x2E66 JUMP JUMPDEST SWAP1 POP PUSH2 0x2BD8 PUSH2 0x3C21 JUMP JUMPDEST PUSH2 0x2BE2 DUP8 DUP6 PUSH2 0x2E66 JUMP JUMPDEST SWAP1 POP PUSH2 0x16B7 DUP2 PUSH1 0x0 ADD MLOAD DUP3 PUSH1 0x20 ADD MLOAD DUP5 PUSH1 0x0 ADD MLOAD DUP6 PUSH1 0x20 ADD MLOAD DUP11 PUSH2 0x2F84 JUMP JUMPDEST PUSH1 0x0 DUP1 PUSH2 0x2C0E DUP9 DUP9 PUSH2 0x3010 JUMP JUMPDEST SWAP1 POP PUSH1 0x0 PUSH2 0x2C1C DUP8 DUP8 PUSH2 0x3010 JUMP JUMPDEST SWAP1 POP DUP2 ISZERO DUP1 PUSH2 0x2C29 JUMPI POP DUP1 ISZERO JUMPDEST ISZERO PUSH2 0x2C3A JUMPI POP PUSH1 0x0 SWAP2 POP PUSH2 0x16B7 SWAP1 POP JUMP JUMPDEST PUSH1 0x0 DUP2 DUP4 SGT ISZERO PUSH2 0x2C53 JUMPI PUSH2 0x2C4E DUP3 DUP5 PUSH2 0x3056 JUMP JUMPDEST PUSH2 0x2C5D JUMP JUMPDEST PUSH2 0x2C5D DUP4 DUP4 PUSH2 0x3056 JUMP JUMPDEST SWAP1 POP PUSH2 0x2C86 PUSH2 0x2C81 PUSH2 0x2C6E DUP4 PUSH2 0x3069 JUMP JUMPDEST DUP9 PUSH4 0xFFFFFFFF AND DUP9 PUSH4 0xFFFFFFFF AND PUSH2 0x34BE JUMP JUMPDEST PUSH2 0x34CD JUMP JUMPDEST SWAP1 POP DUP2 DUP4 SGT ISZERO PUSH2 0x2C9F JUMPI PUSH2 0x2C9A DUP3 DUP3 PUSH2 0x3056 JUMP JUMPDEST PUSH2 0x2CA9 JUMP JUMPDEST PUSH2 0x2CA9 DUP3 DUP3 PUSH2 0x3933 JUMP JUMPDEST SWAP1 POP PUSH2 0x2CB5 DUP2 DUP13 PUSH2 0x3953 JUMP JUMPDEST SWAP12 SWAP11 POP POP POP POP POP POP POP POP POP POP POP JUMP JUMPDEST PUSH1 0x0 DUP3 DUP2 MSTORE PUSH1 0xB PUSH1 0x20 MSTORE PUSH1 0x40 SWAP1 KECCAK256 SLOAD PUSH2 0x2CE3 SWAP1 DUP3 PUSH4 0xFFFFFFFF PUSH2 0x205C AND JUMP JUMPDEST PUSH1 0x0 DUP4 DUP2 MSTORE PUSH1 0xB PUSH1 0x20 MSTORE PUSH1 0x40 SWAP1 KECCAK256 SSTORE PUSH1 0x17 SLOAD PUSH2 0x2A81 SWAP1 DUP3 PUSH4 0xFFFFFFFF PUSH2 0x205C AND JUMP JUMPDEST PUSH1 0x0 DUP4 DUP2 MSTORE PUSH1 0xF PUSH1 0x20 MSTORE PUSH1 0x40 SWAP1 KECCAK256 SLOAD PUSH1 0xC SLOAD DUP1 DUP3 EQ ISZERO PUSH2 0x2D26 JUMPI POP POP PUSH2 0x11AA JUMP JUMPDEST PUSH2 0x2D2E PUSH2 0x3C21 JUMP JUMPDEST POP PUSH1 0x0 DUP6 DUP2 MSTORE PUSH1 0xE PUSH1 0x20 SWAP1 DUP2 MSTORE PUSH1 0x40 DUP1 DUP4 KECCAK256 DUP6 DUP5 MSTORE DUP3 MSTORE SWAP2 DUP3 SWAP1 KECCAK256 DUP3 MLOAD DUP1 DUP5 ADD SWAP1 SWAP4 MSTORE DUP1 SLOAD DUP4 MSTORE PUSH1 0x1 ADD SLOAD SWAP1 DUP3 ADD MSTORE PUSH2 0x2D65 PUSH2 0x3C21 JUMP JUMPDEST PUSH2 0x2D6E DUP3 PUSH2 0x3995 JUMP JUMPDEST ISZERO PUSH2 0x2DA7 JUMPI PUSH2 0x2D87 DUP3 PUSH1 0x0 ADD MLOAD DUP4 PUSH1 0x20 ADD MLOAD DUP9 DUP9 PUSH2 0x399E JUMP JUMPDEST PUSH1 0x20 DUP4 ADD DUP2 SWAP1 MSTORE DUP2 DUP4 MSTORE PUSH2 0x2D9B SWAP2 SWAP1 PUSH2 0x3A00 JUMP JUMPDEST PUSH1 0x20 DUP4 ADD MSTORE DUP2 MSTORE PUSH2 0x2DB2 JUMP JUMPDEST PUSH1 0x20 DUP2 ADD DUP6 SWAP1 MSTORE DUP6 DUP2 MSTORE JUMPDEST PUSH1 0x0 DUP8 DUP2 MSTORE PUSH1 0xE PUSH1 0x20 SWAP1 DUP2 MSTORE PUSH1 0x40 DUP1 DUP4 KECCAK256 DUP7 DUP5 MSTORE DUP3 MSTORE DUP1 DUP4 KECCAK256 DUP5 MLOAD DUP2 SSTORE SWAP4 DUP3 ADD MLOAD PUSH1 0x1 SWAP1 SWAP5 ADD SWAP4 SWAP1 SWAP4 SSTORE SWAP8 DUP2 MSTORE PUSH1 0xF SWAP1 SWAP8 MSTORE SWAP1 SWAP6 KECCAK256 SSTORE POP POP POP POP JUMP JUMPDEST PUSH1 0x0 DUP3 PUSH2 0x2DFD JUMPI POP PUSH1 0x0 PUSH2 0xD37 JUMP JUMPDEST DUP3 DUP3 MUL DUP3 DUP5 DUP3 DUP2 PUSH2 0x2E0A JUMPI INVALID JUMPDEST DIV EQ PUSH2 0xD34 JUMPI PUSH2 0xD34 PUSH2 0x845 PUSH1 0x1 DUP7 DUP7 PUSH2 0x282A JUMP JUMPDEST PUSH1 0x0 DUP2 PUSH2 0x2E35 JUMPI PUSH2 0x2E35 PUSH2 0x845 PUSH1 0x3 DUP6 DUP6 PUSH2 0x282A JUMP JUMPDEST PUSH1 0x0 DUP3 DUP5 DUP2 PUSH2 0x2E40 JUMPI INVALID JUMPDEST DIV SWAP5 SWAP4 POP POP POP POP JUMP JUMPDEST PUSH1 0x60 PUSH4 0x5CAA0B05 PUSH1 0xE0 SHL DUP4 DUP4 PUSH1 0x40 MLOAD PUSH1 0x24 ADD PUSH2 0x1A27 SWAP3 SWAP2 SWAP1 PUSH2 0x4324 JUMP JUMPDEST PUSH2 0x2E6E PUSH2 0x3C21 JUMP JUMPDEST POP PUSH1 0x0 DUP3 DUP2 MSTORE PUSH1 0xE PUSH1 0x20 SWAP1 DUP2 MSTORE PUSH1 0x40 DUP1 DUP4 KECCAK256 DUP5 DUP5 MSTORE DUP3 MSTORE SWAP2 DUP3 SWAP1 KECCAK256 DUP3 MLOAD DUP1 DUP5 ADD SWAP1 SWAP4 MSTORE DUP1 SLOAD DUP4 MSTORE PUSH1 0x1 ADD SLOAD SWAP1 DUP3 ADD MSTORE PUSH2 0x2EA6 DUP2 PUSH2 0x3995 JUMP JUMPDEST ISZERO PUSH2 0x2EB0 JUMPI PUSH2 0xD37 JUMP JUMPDEST PUSH1 0x0 PUSH2 0x2EC3 DUP4 PUSH1 0x1 PUSH4 0xFFFFFFFF PUSH2 0x1A69 AND JUMP JUMPDEST PUSH1 0x0 DUP6 DUP2 MSTORE PUSH1 0xE PUSH1 0x20 SWAP1 DUP2 MSTORE PUSH1 0x40 DUP1 DUP4 KECCAK256 DUP5 DUP5 MSTORE DUP3 MSTORE SWAP2 DUP3 SWAP1 KECCAK256 DUP3 MLOAD DUP1 DUP5 ADD SWAP1 SWAP4 MSTORE DUP1 SLOAD DUP4 MSTORE PUSH1 0x1 ADD SLOAD SWAP1 DUP3 ADD MSTORE SWAP3 POP SWAP1 POP PUSH2 0x2EFE DUP3 PUSH2 0x3995 JUMP JUMPDEST ISZERO PUSH2 0x2F09 JUMPI POP PUSH2 0xD37 JUMP JUMPDEST PUSH1 0x0 DUP5 DUP2 MSTORE PUSH1 0xF PUSH1 0x20 MSTORE PUSH1 0x40 SWAP1 KECCAK256 SLOAD DUP4 DUP2 LT ISZERO PUSH2 0x2F66 JUMPI PUSH1 0x0 DUP6 DUP2 MSTORE PUSH1 0xE PUSH1 0x20 SWAP1 DUP2 MSTORE PUSH1 0x40 DUP1 DUP4 KECCAK256 DUP5 DUP5 MSTORE DUP3 MSTORE SWAP2 DUP3 SWAP1 KECCAK256 DUP3 MLOAD DUP1 DUP5 ADD SWAP1 SWAP4 MSTORE DUP1 SLOAD DUP4 MSTORE PUSH1 0x1 ADD SLOAD SWAP1 DUP3 ADD MSTORE SWAP3 POP PUSH2 0x2F59 DUP4 PUSH2 0x3995 JUMP JUMPDEST ISZERO PUSH2 0x2F66 JUMPI POP PUSH2 0xD37 SWAP1 POP JUMP JUMPDEST POP POP PUSH1 0x40 DUP1 MLOAD DUP1 DUP3 ADD SWAP1 SWAP2 MSTORE PUSH1 0x0 DUP2 MSTORE PUSH1 0x1 PUSH1 0x20 DUP3 ADD MSTORE SWAP4 SWAP3 POP POP POP JUMP JUMPDEST PUSH1 0x0 DUP2 PUSH2 0x2F93 JUMPI POP PUSH1 0x0 PUSH2 0x3007 JUMP JUMPDEST DUP4 PUSH2 0x2FB3 JUMPI PUSH2 0x2FAC DUP6 PUSH2 0x29C0 DUP5 DUP10 PUSH4 0xFFFFFFFF PUSH2 0x2DEE AND JUMP JUMPDEST SWAP1 POP PUSH2 0x3007 JUMP JUMPDEST PUSH1 0x0 PUSH2 0x2FD8 PUSH2 0x2FC8 DUP7 DUP9 PUSH4 0xFFFFFFFF PUSH2 0x2DEE AND JUMP JUMPDEST PUSH2 0x1B95 DUP10 DUP8 PUSH4 0xFFFFFFFF PUSH2 0x2DEE AND JUMP JUMPDEST SWAP1 POP PUSH1 0x0 PUSH2 0x2FEC DUP3 DUP7 PUSH4 0xFFFFFFFF PUSH2 0x2E1F AND JUMP JUMPDEST SWAP1 POP PUSH2 0x3002 DUP8 PUSH2 0x29C0 DUP7 DUP5 PUSH4 0xFFFFFFFF PUSH2 0x2DEE AND JUMP JUMPDEST SWAP3 POP POP POP JUMPDEST SWAP6 SWAP5 POP POP POP POP POP JUMP JUMPDEST PUSH1 0x0 DUP1 DUP4 SLT ISZERO PUSH2 0x3028 JUMPI PUSH2 0x3028 PUSH2 0x845 PUSH1 0x1 DUP6 PUSH2 0x3A1D JUMP JUMPDEST PUSH1 0x0 DUP3 SLT ISZERO PUSH2 0x303F JUMPI PUSH2 0x303F PUSH2 0x845 PUSH1 0x1 DUP5 PUSH2 0x3A1D JUMP JUMPDEST PUSH2 0x287E PUSH2 0x3050 DUP5 PUSH1 0x1 PUSH1 0x7F SHL PUSH2 0x3A45 JUMP JUMPDEST DUP4 PUSH2 0x3A98 JUMP JUMPDEST PUSH1 0x0 PUSH2 0x287E PUSH2 0x3050 DUP5 PUSH1 0x1 PUSH1 0x7F SHL PUSH2 0x3A45 JUMP JUMPDEST PUSH1 0x0 PUSH1 0x1 PUSH1 0x7F SHL DUP3 SGT ISZERO PUSH2 0x3085 JUMPI PUSH2 0x3085 PUSH2 0x845 PUSH1 0x1 DUP5 PUSH2 0x3ADF JUMP JUMPDEST PUSH1 0x0 DUP3 SGT PUSH2 0x309B JUMPI PUSH2 0x309B PUSH2 0x845 PUSH1 0x0 DUP5 PUSH2 0x3ADF JUMP JUMPDEST PUSH1 0x1 PUSH1 0x7F SHL DUP3 EQ ISZERO PUSH2 0x30AF JUMPI POP PUSH1 0x0 PUSH2 0xBB6 JUMP JUMPDEST PUSH5 0x733048C5A DUP3 SGT PUSH2 0x30CB JUMPI POP PUSH1 0x1 PUSH2 0x1FF PUSH1 0x7C SHL SUB NOT PUSH2 0xBB6 JUMP JUMPDEST PUSH1 0x0 DUP1 PUSH1 0x0 PUSH11 0x1C8464F76164760000000 DUP6 SGT PUSH2 0x3110 JUMPI PUSH17 0xFFFFFFFFFFFFFFFFFFFFFFFFFFFFFFFFF NOT SWAP1 SWAP4 ADD SWAP3 PUSH11 0x1C8464F76164760000000 PUSH1 0x1 PUSH1 0x7F SHL DUP7 MUL SDIV SWAP5 POP JUMPDEST PUSH13 0xF1AADDD7742E90000000000000 DUP6 SGT PUSH2 0x3154 JUMPI PUSH17 0x7FFFFFFFFFFFFFFFFFFFFFFFFFFFFFFFF NOT SWAP1 SWAP4 ADD SWAP3 PUSH13 0xF1AADDD7742E90000000000000 PUSH1 0x1 PUSH1 0x7F SHL DUP7 MUL SDIV SWAP5 POP JUMPDEST PUSH7 0x15FC21041027AF PUSH1 0x3F SHL DUP6 SGT PUSH2 0x3192 JUMPI PUSH17 0x3FFFFFFFFFFFFFFFFFFFFFFFFFFFFFFFF NOT SWAP1 SWAP4 ADD SWAP3 PUSH7 0x15FC21041027AF PUSH1 0x3F SHL PUSH1 0x1 PUSH1 0x7F SHL DUP7 MUL SDIV SWAP5 POP JUMPDEST PUSH7 0x960AADC109E7B PUSH1 0x46 SHL DUP6 SGT PUSH2 0x31D0 JUMPI PUSH17 0x1FFFFFFFFFFFFFFFFFFFFFFFFFFFFFFFF NOT SWAP1 SWAP4 ADD SWAP3 PUSH7 0x960AADC109E7B PUSH1 0x46 SHL PUSH1 0x1 PUSH1 0x7F SHL DUP7 MUL SDIV SWAP5 POP JUMPDEST PUSH7 0x454AAA8EFE073 PUSH1 0x4A SHL DUP6 SGT PUSH2 0x320D JUMPI PUSH16 0xFFFFFFFFFFFFFFFFFFFFFFFFFFFFFFFF NOT SWAP1 SWAP4 ADD SWAP3 PUSH7 0x454AAA8EFE073 PUSH1 0x4A SHL PUSH1 0x1 PUSH1 0x7F SHL DUP7 MUL SDIV SWAP5 POP JUMPDEST PUSH7 0x2F16AC6C59DE7 PUSH1 0x4C SHL DUP6 SGT PUSH2 0x3241 JUMPI PUSH1 0x1 PUSH1 0x1 PUSH1 0x7F SHL SUB NOT SWAP1 SWAP4 ADD SWAP3 PUSH7 0x2F16AC6C59DE7 PUSH1 0x4C SHL PUSH1 0x1 PUSH1 0x7F SHL DUP7 MUL SDIV SWAP5 POP JUMPDEST PUSH7 0x9B4597E37CB05 PUSH1 0x4B SHL DUP6 SGT PUSH2 0x327E JUMPI PUSH16 0x3FFFFFFFFFFFFFFFFFFFFFFFFFFFFFFF NOT SWAP1 SWAP4 ADD SWAP3 PUSH7 0x9B4597E37CB05 PUSH1 0x4B SHL PUSH1 0x1 PUSH1 0x7F SHL DUP7 MUL SDIV SWAP5 POP JUMPDEST PUSH7 0x18EBEF9EAC820B PUSH1 0x4A SHL DUP6 SGT PUSH2 0x32BB JUMPI PUSH16 0x1FFFFFFFFFFFFFFFFFFFFFFFFFFFFFFF NOT SWAP1 SWAP4 ADD SWAP3 PUSH7 0x18EBEF9EAC820B PUSH1 0x4A SHL PUSH1 0x1 PUSH1 0x7F SHL DUP7 MUL SDIV SWAP5 POP JUMPDEST PUSH16 0x70F5A893B608861E1F58934F97AEA57D DUP6 SGT PUSH2 0x3304 JUMPI PUSH16 0xFFFFFFFFFFFFFFFFFFFFFFFFFFFFFFF NOT SWAP1 SWAP4 ADD SWAP3 PUSH16 0x70F5A893B608861E1F58934F97AEA57D PUSH1 0x1 PUSH1 0x7F SHL DUP7 MUL SDIV SWAP5 POP JUMPDEST PUSH1 0x1 PUSH1 0x1 PUSH1 0x7F SHL SUB NOT DUP6 ADD SWAP3 POP DUP3 SWAP2 POP PUSH1 0x1 PUSH1 0x7F SHL DUP3 DUP1 MUL SDIV SWAP1 POP PUSH1 0x1 PUSH1 0x80 SHL DUP4 DUP2 SUB DUP4 MUL SDIV DUP5 ADD SWAP4 POP PUSH1 0x1 PUSH1 0x7F SHL DUP2 DUP4 MUL DUP2 PUSH2 0x333D JUMPI INVALID JUMPDEST SDIV SWAP2 POP PUSH1 0x1 PUSH1 0x81 SHL DUP4 PUSH16 0xAAAAAAAAAAAAAAAAAAAAAAAAAAAAAAAA SUB DUP4 MUL DUP2 PUSH2 0x3361 JUMPI INVALID JUMPDEST SDIV DUP5 ADD SWAP4 POP PUSH1 0x1 PUSH1 0x7F SHL DUP2 DUP4 MUL DUP2 PUSH2 0x3375 JUMPI INVALID JUMPDEST SDIV SWAP2 POP PUSH1 0x3 PUSH1 0x80 SHL DUP4 PUSH16 0x99999999999999999999999999999999 SUB DUP4 MUL DUP2 PUSH2 0x3399 JUMPI INVALID JUMPDEST SDIV DUP5 ADD SWAP4 POP PUSH1 0x1 PUSH1 0x7F SHL DUP2 DUP4 MUL DUP2 PUSH2 0x33AD JUMPI INVALID JUMPDEST SDIV SWAP2 POP PUSH1 0x1 PUSH1 0x82 SHL DUP4 PUSH16 0x92492492492492492492492492492492 SUB DUP4 MUL DUP2 PUSH2 0x33D1 JUMPI INVALID JUMPDEST SDIV DUP5 ADD SWAP4 POP PUSH1 0x1 PUSH1 0x7F SHL DUP2 DUP4 MUL DUP2 PUSH2 0x33E5 JUMPI INVALID JUMPDEST SDIV SWAP2 POP PUSH1 0x5 PUSH1 0x80 SHL DUP4 PUSH16 0x8E38E38E38E38E38E38E38E38E38E38E SUB DUP4 MUL DUP2 PUSH2 0x3409 JUMPI INVALID JUMPDEST SDIV DUP5 ADD SWAP4 POP PUSH1 0x1 PUSH1 0x7F SHL DUP2 DUP4 MUL DUP2 PUSH2 0x341D JUMPI INVALID JUMPDEST SDIV SWAP2 POP PUSH1 0x3 PUSH1 0x81 SHL DUP4 PUSH16 0x8BA2E8BA2E8BA2E8BA2E8BA2E8BA2E8B SUB DUP4 MUL DUP2 PUSH2 0x3441 JUMPI INVALID JUMPDEST SDIV DUP5 ADD SWAP4 POP PUSH1 0x1 PUSH1 0x7F SHL DUP2 DUP4 MUL DUP2 PUSH2 0x3455 JUMPI INVALID JUMPDEST SDIV SWAP2 POP PUSH1 0x7 PUSH1 0x80 SHL DUP4 PUSH16 0x89D89D89D89D89D89D89D89D89D89D89 SUB DUP4 MUL DUP2 PUSH2 0x3479 JUMPI INVALID JUMPDEST SDIV DUP5 ADD SWAP4 POP PUSH1 0x1 PUSH1 0x7F SHL DUP2 DUP4 MUL DUP2 PUSH2 0x348D JUMPI INVALID JUMPDEST SDIV SWAP2 POP PUSH1 0x1 PUSH1 0x83 SHL DUP4 PUSH16 0x88888888888888888888888888888888 SUB DUP4 MUL DUP2 PUSH2 0x34B1 JUMPI INVALID JUMPDEST SDIV DUP5 ADD SWAP4 POP POP POP POP SWAP2 SWAP1 POP JUMP JUMPDEST PUSH1 0x0 PUSH2 0x2443 PUSH2 0x3050 DUP6 DUP6 PUSH2 0x3A45 JUMP JUMPDEST PUSH1 0x0 PUSH1 0x1 PUSH2 0x1FF PUSH1 0x7C SHL SUB NOT DUP3 SLT ISZERO PUSH2 0x34E8 JUMPI POP PUSH1 0x0 PUSH2 0xBB6 JUMP JUMPDEST DUP2 PUSH2 0x34F8 JUMPI POP PUSH1 0x1 PUSH1 0x7F SHL PUSH2 0xBB6 JUMP JUMPDEST PUSH1 0x0 DUP3 SGT ISZERO PUSH2 0x350F JUMPI PUSH2 0x350F PUSH2 0x845 PUSH1 0x1 DUP5 PUSH2 0x3ADF JUMP JUMPDEST PUSH1 0x1 PUSH1 0x7F SHL PUSH1 0x1 PUSH1 0x7C SHL DUP4 SMOD DUP1 DUP1 MUL DUP3 SWAP1 SDIV PUSH8 0x10E1B3BE415A0000 DUP2 MUL SWAP4 SWAP1 SWAP4 ADD SWAP3 SWAP1 SWAP2 DUP2 DUP4 MUL SDIV SWAP1 POP DUP1 PUSH8 0x5A0913F6B1E0000 MUL DUP4 ADD SWAP3 POP PUSH1 0x1 PUSH1 0x7F SHL DUP3 DUP3 MUL DUP2 PUSH2 0x3557 JUMPI INVALID JUMPDEST SDIV SWAP1 POP DUP1 PUSH8 0x168244FDAC78000 MUL DUP4 ADD SWAP3 POP PUSH1 0x1 PUSH1 0x7F SHL DUP3 DUP3 MUL DUP2 PUSH2 0x3578 JUMPI INVALID JUMPDEST SDIV SWAP1 POP DUP1 PUSH7 0x4807432BC18000 MUL DUP4 ADD SWAP3 POP PUSH1 0x1 PUSH1 0x7F SHL DUP3 DUP3 MUL DUP2 PUSH2 0x3598 JUMPI INVALID JUMPDEST SDIV SWAP1 POP DUP1 PUSH7 0xC0135DCA04000 MUL DUP4 ADD SWAP3 POP PUSH1 0x1 PUSH1 0x7F SHL DUP3 DUP3 MUL DUP2 PUSH2 0x35B8 JUMPI INVALID JUMPDEST SDIV SWAP1 POP DUP1 PUSH7 0x1B707B1CDC000 MUL DUP4 ADD SWAP3 POP PUSH1 0x1 PUSH1 0x7F SHL DUP3 DUP3 MUL DUP2 PUSH2 0x35D8 JUMPI INVALID JUMPDEST SDIV SWAP1 POP DUP1 PUSH6 0x36E0F639B800 MUL DUP4 ADD SWAP3 POP PUSH1 0x1 PUSH1 0x7F SHL DUP3 DUP3 MUL DUP2 PUSH2 0x35F7 JUMPI INVALID JUMPDEST SDIV SWAP1 POP DUP1 PUSH6 0x618FEE9F800 MUL DUP4 ADD SWAP3 POP PUSH1 0x1 PUSH1 0x7F SHL DUP3 DUP3 MUL DUP2 PUSH2 0x3616 JUMPI INVALID JUMPDEST SDIV SWAP1 POP DUP1 PUSH5 0x9C197DCC00 MUL DUP4 ADD SWAP3 POP PUSH1 0x1 PUSH1 0x7F SHL DUP3 DUP3 MUL DUP2 PUSH2 0x3634 JUMPI INVALID JUMPDEST SDIV SWAP1 POP DUP1 PUSH5 0xE30DCE400 MUL DUP4 ADD SWAP3 POP PUSH1 0x1 PUSH1 0x7F SHL DUP3 DUP3 MUL DUP2 PUSH2 0x3652 JUMPI INVALID JUMPDEST SDIV SWAP1 POP DUP1 PUSH5 0x12EBD1300 MUL DUP4 ADD SWAP3 POP PUSH1 0x1 PUSH1 0x7F SHL DUP3 DUP3 MUL DUP2 PUSH2 0x3670 JUMPI INVALID JUMPDEST SDIV SWAP1 POP DUP1 PUSH4 0x17499F00 MUL DUP4 ADD SWAP3 POP PUSH1 0x1 PUSH1 0x7F SHL DUP3 DUP3 MUL DUP2 PUSH2 0x368D JUMPI INVALID JUMPDEST SDIV SWAP1 POP DUP1 PUSH4 0x1A9D480 MUL DUP4 ADD SWAP3 POP PUSH1 0x1 PUSH1 0x7F SHL DUP3 DUP3 MUL DUP2 PUSH2 0x36AA JUMPI INVALID JUMPDEST SDIV SWAP1 POP DUP1 PUSH3 0x1C6380 MUL DUP4 ADD SWAP3 POP PUSH1 0x1 PUSH1 0x7F SHL DUP3 DUP3 MUL DUP2 PUSH2 0x36C6 JUMPI INVALID JUMPDEST SDIV SWAP1 POP DUP1 PUSH3 0x1C638 MUL DUP4 ADD SWAP3 POP PUSH1 0x1 PUSH1 0x7F SHL DUP3 DUP3 MUL DUP2 PUSH2 0x36E2 JUMPI INVALID JUMPDEST SDIV SWAP1 POP DUP1 PUSH2 0x1AB8 MUL DUP4 ADD SWAP3 POP PUSH1 0x1 PUSH1 0x7F SHL DUP3 DUP3 MUL DUP2 PUSH2 0x36FD JUMPI INVALID JUMPDEST SDIV SWAP1 POP DUP1 PUSH2 0x17C MUL DUP4 ADD SWAP3 POP PUSH1 0x1 PUSH1 0x7F SHL DUP3 DUP3 MUL DUP2 PUSH2 0x3718 JUMPI INVALID JUMPDEST SDIV SWAP1 POP DUP1 PUSH1 0x14 MUL DUP4 ADD SWAP3 POP PUSH1 0x1 PUSH1 0x7F SHL DUP3 DUP3 MUL DUP2 PUSH2 0x3732 JUMPI INVALID JUMPDEST PUSH1 0x0 SWAP6 SWAP1 SWAP6 SUB SWAP5 PUSH8 0x21C3677C82B40000 SWAP2 SWAP1 SDIV SWAP4 DUP5 ADD SDIV DUP3 ADD PUSH1 0x1 PUSH1 0x7F SHL ADD SWAP3 SWAP1 POP PUSH1 0x1 PUSH1 0x84 SHL DUP5 AND ISZERO PUSH2 0x3788 JUMPI PUSH19 0x43CBAF42A000812488FC5C220AD7B97BF6E99E PUSH13 0xF1AADDD7742E56D32FB9F99744 DUP5 MUL SDIV SWAP3 POP JUMPDEST PUSH1 0x1 PUSH1 0x83 SHL DUP5 AND ISZERO PUSH2 0x37BD JUMPI PUSH18 0x5D27A9F51C31B7C2F8038212A0574779991 PUSH15 0xAFE10820813D65DFE6A33C07F738F DUP5 MUL SDIV SWAP3 POP JUMPDEST PUSH1 0x1 PUSH1 0x82 SHL DUP5 AND ISZERO PUSH2 0x37F2 JUMPI PUSH17 0x1B4C902E273A58678D6D3BFDB93DB96D02 PUSH16 0x2582AB704279E8EFD15E0265855C47A DUP5 MUL SDIV SWAP3 POP JUMPDEST PUSH1 0x1 PUSH1 0x81 SHL DUP5 AND ISZERO PUSH2 0x3827 JUMPI PUSH17 0x3B1CC971A9BB5B9867477440D6D157750 PUSH16 0x1152AAA3BF81CB9FDB76EAE12D029571 DUP5 MUL SDIV SWAP3 POP JUMPDEST PUSH1 0x1 PUSH1 0x80 SHL DUP5 AND ISZERO PUSH2 0x385C JUMPI PUSH17 0x15BF0A8B1457695355FB8AC404E7A79E3 PUSH16 0x2F16AC6C59DE6F8D5D6F63C1482A7C86 DUP5 MUL SDIV SWAP3 POP JUMPDEST PUSH1 0x1 PUSH1 0x7F SHL DUP5 AND ISZERO PUSH2 0x3890 JUMPI PUSH16 0xD3094C70F034DE4B96FF7D5B6F99FCD8 PUSH16 0x4DA2CBF1BE5827F9EB3AD1AA9866EBB3 DUP5 MUL SDIV SWAP3 POP JUMPDEST PUSH1 0x1 PUSH1 0x7E SHL DUP5 AND ISZERO PUSH2 0x38C4 JUMPI PUSH16 0xA45AF1E1F40C333B3DE1DB4DD55F29A7 PUSH16 0x63AFBE7AB2082BA1A0AE5E4EB1B479DC DUP5 MUL SDIV SWAP3 POP JUMPDEST PUSH1 0x1 PUSH1 0x7D SHL DUP5 AND ISZERO PUSH2 0x38F8 JUMPI PUSH16 0x910B022DB7AE67CE76B441C27035C6A1 PUSH16 0x70F5A893B608861E1F58934F97AEA57D DUP5 MUL SDIV SWAP3 POP JUMPDEST PUSH1 0x1 PUSH1 0x7C SHL DUP5 AND ISZERO PUSH2 0x392C JUMPI PUSH16 0x88415ABBE9A76BEAD8D00CF112E4D4A8 PUSH16 0x783EAFEF1C0A8F3978C7F81824D62EBF DUP5 MUL SDIV SWAP3 POP JUMPDEST POP POP SWAP2 SWAP1 POP JUMP JUMPDEST PUSH1 0x0 PUSH1 0x1 PUSH1 0x7F SHL PUSH2 0x3944 DUP5 DUP5 PUSH2 0x3A45 JUMP JUMPDEST DUP2 PUSH2 0x394B JUMPI INVALID JUMPDEST SDIV SWAP4 SWAP3 POP POP POP JUMP JUMPDEST PUSH1 0x0 DUP1 DUP3 SLT ISZERO PUSH2 0x396B JUMPI PUSH2 0x396B PUSH2 0x845 PUSH1 0x1 DUP5 PUSH2 0x3A1D JUMP JUMPDEST PUSH1 0x0 PUSH2 0x3977 DUP5 DUP5 PUSH2 0x3A45 JUMP JUMPDEST SWAP1 POP PUSH1 0x0 DUP2 SGT PUSH2 0x398B JUMPI PUSH1 0x0 SWAP2 POP POP PUSH2 0xD37 JUMP JUMPDEST PUSH1 0x7F SHR SWAP4 SWAP3 POP POP POP JUMP JUMPDEST PUSH1 0x20 ADD MLOAD ISZERO ISZERO SWAP1 JUMP JUMPDEST PUSH1 0x0 DUP1 DUP6 PUSH2 0x39B0 JUMPI POP DUP3 SWAP1 POP DUP2 PUSH2 0x39F7 JUMP JUMPDEST DUP4 PUSH2 0x39BF JUMPI POP DUP5 SWAP1 POP DUP4 PUSH2 0x39F7 JUMP JUMPDEST PUSH2 0x39E2 PUSH2 0x39D2 DUP6 DUP8 PUSH4 0xFFFFFFFF PUSH2 0x2DEE AND JUMP JUMPDEST PUSH2 0x2ABF DUP9 DUP7 PUSH4 0xFFFFFFFF PUSH2 0x2DEE AND JUMP JUMPDEST SWAP2 POP PUSH2 0x39F4 DUP6 DUP5 PUSH4 0xFFFFFFFF PUSH2 0x2DEE AND JUMP JUMPDEST SWAP1 POP JUMPDEST SWAP5 POP SWAP5 SWAP3 POP POP POP JUMP JUMPDEST PUSH1 0x0 DUP1 PUSH2 0x3A12 DUP5 DUP5 PUSH1 0x1 PUSH1 0x7F SHL PUSH2 0x3AF5 JUMP JUMPDEST SWAP2 POP SWAP2 POP SWAP3 POP SWAP3 SWAP1 POP JUMP JUMPDEST PUSH1 0x60 PUSH4 0xBD79545F PUSH1 0xE0 SHL DUP4 PUSH1 0x1 DUP2 GT ISZERO PUSH2 0x3A33 JUMPI INVALID JUMPDEST DUP4 PUSH1 0x40 MLOAD PUSH1 0x24 ADD PUSH2 0x1A27 SWAP3 SWAP2 SWAP1 PUSH2 0x44C8 JUMP JUMPDEST PUSH1 0x0 DUP3 ISZERO DUP1 PUSH2 0x3A52 JUMPI POP DUP2 ISZERO JUMPDEST ISZERO PUSH2 0x3A5F JUMPI POP PUSH1 0x0 PUSH2 0xD37 JUMP JUMPDEST POP DUP2 DUP2 MUL DUP2 DUP4 DUP3 DUP2 PUSH2 0x3A6D JUMPI INVALID JUMPDEST SDIV EQ ISZERO DUP1 PUSH2 0x3A84 JUMPI POP DUP3 DUP3 DUP3 DUP2 PUSH2 0x3A80 JUMPI INVALID JUMPDEST SDIV EQ ISZERO JUMPDEST ISZERO PUSH2 0xD37 JUMPI PUSH2 0xD37 PUSH2 0x845 PUSH1 0x1 DUP6 DUP6 PUSH2 0x3B63 JUMP JUMPDEST PUSH1 0x0 DUP2 PUSH2 0x3AAE JUMPI PUSH2 0x3AAE PUSH2 0x845 PUSH1 0x2 DUP6 DUP6 PUSH2 0x3B63 JUMP JUMPDEST PUSH1 0x1 PUSH1 0xFF SHL DUP4 EQ DUP1 ISZERO PUSH2 0x3AC2 JUMPI POP DUP2 PUSH1 0x0 NOT EQ JUMPDEST ISZERO PUSH2 0x3AD6 JUMPI PUSH2 0x3AD6 PUSH2 0x845 PUSH1 0x3 DUP6 DUP6 PUSH2 0x3B63 JUMP JUMPDEST DUP2 DUP4 DUP2 PUSH2 0x394B JUMPI INVALID JUMPDEST PUSH1 0x60 PUSH4 0xED2F26A1 PUSH1 0xE0 SHL DUP4 PUSH1 0x1 DUP2 GT ISZERO PUSH2 0x3A33 JUMPI INVALID JUMPDEST PUSH1 0x0 DUP1 DUP3 DUP6 GT DUP1 PUSH2 0x3B05 JUMPI POP DUP3 DUP5 GT JUMPDEST ISZERO PUSH2 0x3B5A JUMPI PUSH1 0x0 DUP5 DUP7 LT ISZERO PUSH2 0x3B1A JUMPI DUP5 PUSH2 0x3B1C JUMP JUMPDEST DUP6 JUMPDEST SWAP1 POP PUSH2 0x3B2E DUP2 DUP6 PUSH4 0xFFFFFFFF PUSH2 0x2E1F AND JUMP JUMPDEST SWAP1 POP PUSH2 0x3B40 DUP7 DUP3 PUSH4 0xFFFFFFFF PUSH2 0x2E1F AND JUMP JUMPDEST SWAP3 POP PUSH2 0x3B52 DUP6 DUP3 PUSH4 0xFFFFFFFF PUSH2 0x2E1F AND JUMP JUMPDEST SWAP2 POP POP PUSH2 0x22E1 JUMP JUMPDEST POP SWAP3 SWAP4 SWAP2 SWAP3 POP POP JUMP JUMPDEST PUSH1 0x60 PUSH4 0x8C12DFE7 PUSH1 0xE0 SHL DUP5 PUSH1 0x3 DUP2 GT ISZERO PUSH2 0x3B79 JUMPI INVALID JUMPDEST DUP5 DUP5 PUSH1 0x40 MLOAD PUSH1 0x24 ADD PUSH2 0x2849 SWAP4 SWAP3 SWAP2 SWAP1 PUSH2 0x44D6 JUMP JUMPDEST PUSH1 0x40 MLOAD DUP1 PUSH1 0xA0 ADD PUSH1 0x40 MSTORE DUP1 PUSH1 0x0 DUP2 MSTORE PUSH1 0x20 ADD PUSH1 0x0 DUP2 MSTORE PUSH1 0x20 ADD PUSH1 0x0 DUP2 MSTORE PUSH1 0x20 ADD PUSH1 0x0 DUP2 MSTORE PUSH1 0x20 ADD PUSH1 0x0 DUP2 MSTORE POP SWAP1 JUMP JUMPDEST PUSH1 0x40 DUP1 MLOAD PUSH1 0x60 DUP2 ADD DUP3 MSTORE PUSH1 0x0 DUP1 DUP3 MSTORE PUSH1 0x20 DUP3 ADD DUP2 SWAP1 MSTORE SWAP2 DUP2 ADD SWAP2 SWAP1 SWAP2 MSTORE SWAP1 JUMP JUMPDEST PUSH1 0x40 MLOAD DUP1 PUSH1 0x60 ADD PUSH1 0x40 MSTORE DUP1 PUSH1 0x0 DUP2 MSTORE PUSH1 0x20 ADD PUSH1 0x0 DUP2 MSTORE PUSH1 0x20 ADD PUSH1 0x0 DUP2 MSTORE POP SWAP1 JUMP JUMPDEST DUP2 SLOAD DUP2 DUP4 SSTORE DUP2 DUP2 GT ISZERO PUSH2 0x11AA JUMPI PUSH1 0x0 DUP4 DUP2 MSTORE PUSH1 0x20 SWAP1 KECCAK256 PUSH2 0x11AA SWAP2 DUP2 ADD SWAP1 DUP4 ADD PUSH2 0x3C3B JUMP JUMPDEST PUSH1 0x40 MLOAD DUP1 PUSH1 0x40 ADD PUSH1 0x40 MSTORE DUP1 PUSH1 0x0 DUP2 MSTORE PUSH1 0x20 ADD PUSH1 0x0 DUP2 MSTORE POP SWAP1 JUMP JUMPDEST PUSH2 0x9EF SWAP2 SWAP1 JUMPDEST DUP1 DUP3 GT ISZERO PUSH2 0x3C55 JUMPI PUSH1 0x0 DUP2 SSTORE PUSH1 0x1 ADD PUSH2 0x3C41 JUMP JUMPDEST POP SWAP1 JUMP JUMPDEST DUP1 CALLDATALOAD PUSH2 0xD37 DUP2 PUSH2 0x4626 JUMP JUMPDEST DUP1 MLOAD PUSH2 0xD37 DUP2 PUSH2 0x4626 JUMP JUMPDEST DUP1 MLOAD PUSH2 0xD37 DUP2 PUSH2 0x463A JUMP JUMPDEST DUP1 CALLDATALOAD PUSH2 0xD37 DUP2 PUSH2 0x4643 JUMP JUMPDEST DUP1 CALLDATALOAD PUSH2 0xD37 DUP2 PUSH2 0x464C JUMP JUMPDEST PUSH1 0x0 DUP3 PUSH1 0x1F DUP4 ADD SLT PUSH2 0x3CA1 JUMPI PUSH1 0x0 DUP1 REVERT JUMPDEST DUP2 MLOAD PUSH2 0x3CB4 PUSH2 0x3CAF DUP3 PUSH2 0x450A JUMP JUMPDEST PUSH2 0x44E4 JUMP JUMPDEST SWAP2 POP DUP1 DUP3 MSTORE PUSH1 0x20 DUP4 ADD PUSH1 0x20 DUP4 ADD DUP6 DUP4 DUP4 ADD GT ISZERO PUSH2 0x3CD0 JUMPI PUSH1 0x0 DUP1 REVERT JUMPDEST PUSH2 0x3CDB DUP4 DUP3 DUP5 PUSH2 0x45DC JUMP JUMPDEST POP POP POP SWAP3 SWAP2 POP POP JUMP JUMPDEST DUP1 MLOAD PUSH2 0xD37 DUP2 PUSH2 0x4643 JUMP JUMPDEST DUP1 CALLDATALOAD PUSH2 0xD37 DUP2 PUSH2 0x4659 JUMP JUMPDEST PUSH1 0x0 PUSH1 0x20 DUP3 DUP5 SUB SLT ISZERO PUSH2 0x3D0C JUMPI PUSH1 0x0 DUP1 REVERT JUMPDEST PUSH1 0x0 PUSH2 0x2443 DUP5 DUP5 PUSH2 0x3C59 JUMP JUMPDEST PUSH1 0x0 PUSH1 0x20 DUP3 DUP5 SUB SLT ISZERO PUSH2 0x3D2A JUMPI PUSH1 0x0 DUP1 REVERT JUMPDEST PUSH1 0x0 PUSH2 0x2443 DUP5 DUP5 PUSH2 0x3C64 JUMP JUMPDEST PUSH1 0x0 DUP1 PUSH1 0x0 PUSH1 0x60 DUP5 DUP7 SUB SLT ISZERO PUSH2 0x3D4B JUMPI PUSH1 0x0 DUP1 REVERT JUMPDEST PUSH1 0x0 PUSH2 0x3D57 DUP7 DUP7 PUSH2 0x3C59 JUMP JUMPDEST SWAP4 POP POP PUSH1 0x20 PUSH2 0x3D68 DUP7 DUP3 DUP8 ADD PUSH2 0x3C59 JUMP JUMPDEST SWAP3 POP POP PUSH1 0x40 PUSH2 0x3D79 DUP7 DUP3 DUP8 ADD PUSH2 0x3C7A JUMP JUMPDEST SWAP2 POP POP SWAP3 POP SWAP3 POP SWAP3 JUMP JUMPDEST PUSH1 0x0 DUP1 PUSH1 0x40 DUP4 DUP6 SUB SLT ISZERO PUSH2 0x3D96 JUMPI PUSH1 0x0 DUP1 REVERT JUMPDEST PUSH1 0x0 PUSH2 0x3DA2 DUP6 DUP6 PUSH2 0x3C59 JUMP JUMPDEST SWAP3 POP POP PUSH1 0x20 PUSH2 0x2052 DUP6 DUP3 DUP7 ADD PUSH2 0x3C7A JUMP JUMPDEST PUSH1 0x0 DUP1 PUSH1 0x40 DUP4 DUP6 SUB SLT ISZERO PUSH2 0x3DC6 JUMPI PUSH1 0x0 DUP1 REVERT JUMPDEST PUSH1 0x0 PUSH2 0x3DD2 DUP6 DUP6 PUSH2 0x3C59 JUMP JUMPDEST SWAP3 POP POP PUSH1 0x20 PUSH2 0x2052 DUP6 DUP3 DUP7 ADD PUSH2 0x3C85 JUMP JUMPDEST PUSH1 0x0 DUP1 PUSH1 0x0 DUP1 PUSH1 0x0 DUP1 PUSH1 0xC0 DUP8 DUP10 SUB SLT ISZERO PUSH2 0x3DFC JUMPI PUSH1 0x0 DUP1 REVERT JUMPDEST PUSH1 0x0 PUSH2 0x3E08 DUP10 DUP10 PUSH2 0x3C64 JUMP JUMPDEST SWAP7 POP POP PUSH1 0x20 DUP8 ADD MLOAD PUSH1 0x1 PUSH1 0x1 PUSH1 0x40 SHL SUB DUP2 GT ISZERO PUSH2 0x3E24 JUMPI PUSH1 0x0 DUP1 REVERT JUMPDEST PUSH2 0x3E30 DUP10 DUP3 DUP11 ADD PUSH2 0x3C90 JUMP JUMPDEST SWAP6 POP POP PUSH1 0x40 DUP8 ADD MLOAD PUSH1 0x1 PUSH1 0x1 PUSH1 0x40 SHL SUB DUP2 GT ISZERO PUSH2 0x3E4C JUMPI PUSH1 0x0 DUP1 REVERT JUMPDEST PUSH2 0x3E58 DUP10 DUP3 DUP11 ADD PUSH2 0x3C90 JUMP JUMPDEST SWAP5 POP POP PUSH1 0x60 PUSH2 0x3E69 DUP10 DUP3 DUP11 ADD PUSH2 0x3CE4 JUMP JUMPDEST SWAP4 POP POP PUSH1 0x80 PUSH2 0x3E7A DUP10 DUP3 DUP11 ADD PUSH2 0x3C64 JUMP JUMPDEST SWAP3 POP POP PUSH1 0xA0 PUSH2 0x3E8B DUP10 DUP3 DUP11 ADD PUSH2 0x3C64 JUMP JUMPDEST SWAP2 POP POP SWAP3 SWAP6 POP SWAP3 SWAP6 POP SWAP3 SWAP6 JUMP JUMPDEST PUSH1 0x0 PUSH1 0x20 DUP3 DUP5 SUB SLT ISZERO PUSH2 0x3EAA JUMPI PUSH1 0x0 DUP1 REVERT JUMPDEST PUSH1 0x0 PUSH2 0x2443 DUP5 DUP5 PUSH2 0x3C6F JUMP JUMPDEST PUSH1 0x0 PUSH1 0x20 DUP3 DUP5 SUB SLT ISZERO PUSH2 0x3EC8 JUMPI PUSH1 0x0 DUP1 REVERT JUMPDEST PUSH1 0x0 PUSH2 0x2443 DUP5 DUP5 PUSH2 0x3C7A JUMP JUMPDEST PUSH1 0x0 DUP1 PUSH1 0x40 DUP4 DUP6 SUB SLT ISZERO PUSH2 0x3EE7 JUMPI PUSH1 0x0 DUP1 REVERT JUMPDEST PUSH1 0x0 PUSH2 0x3EF3 DUP6 DUP6 PUSH2 0x3C7A JUMP JUMPDEST SWAP3 POP POP PUSH1 0x20 PUSH2 0x2052 DUP6 DUP3 DUP7 ADD PUSH2 0x3C59 JUMP JUMPDEST PUSH1 0x0 DUP1 PUSH1 0x40 DUP4 DUP6 SUB SLT ISZERO PUSH2 0x3F17 JUMPI PUSH1 0x0 DUP1 REVERT JUMPDEST PUSH1 0x0 PUSH2 0x3DA2 DUP6 DUP6 PUSH2 0x3C7A JUMP JUMPDEST PUSH1 0x0 DUP1 PUSH1 0x40 DUP4 DUP6 SUB SLT ISZERO PUSH2 0x3F36 JUMPI PUSH1 0x0 DUP1 REVERT JUMPDEST PUSH1 0x0 PUSH2 0x3F42 DUP6 DUP6 PUSH2 0x3C7A JUMP JUMPDEST SWAP3 POP POP PUSH1 0x20 PUSH2 0x2052 DUP6 DUP3 DUP7 ADD PUSH2 0x3CEF JUMP JUMPDEST PUSH1 0x0 PUSH1 0x20 DUP3 DUP5 SUB SLT ISZERO PUSH2 0x3F65 JUMPI PUSH1 0x0 DUP1 REVERT JUMPDEST PUSH1 0x0 PUSH2 0x2443 DUP5 DUP5 PUSH2 0x3C85 JUMP JUMPDEST PUSH1 0x0 PUSH1 0x20 DUP3 DUP5 SUB SLT ISZERO PUSH2 0x3F83 JUMPI PUSH1 0x0 DUP1 REVERT JUMPDEST PUSH1 0x0 PUSH2 0x2443 DUP5 DUP5 PUSH2 0x3CE4 JUMP JUMPDEST PUSH1 0x0 DUP1 PUSH1 0x0 DUP1 PUSH1 0x0 DUP1 PUSH1 0xC0 DUP8 DUP10 SUB SLT ISZERO PUSH2 0x3FA8 JUMPI PUSH1 0x0 DUP1 REVERT JUMPDEST PUSH1 0x0 PUSH2 0x3E08 DUP10 DUP10 PUSH2 0x3CE4 JUMP JUMPDEST PUSH1 0x0 PUSH2 0x3FC0 DUP4 DUP4 PUSH2 0x3FC8 JUMP JUMPDEST POP POP PUSH1 0x20 ADD SWAP1 JUMP JUMPDEST PUSH2 0x3FD1 DUP2 PUSH2 0x4544 JUMP JUMPDEST DUP3 MSTORE POP POP JUMP JUMPDEST PUSH1 0x0 PUSH2 0x3FE2 DUP3 PUSH2 0x4537 JUMP JUMPDEST PUSH2 0x3FEC DUP2 DUP6 PUSH2 0x453B JUMP JUMPDEST SWAP4 POP PUSH2 0x3FF7 DUP4 PUSH2 0x4531 JUMP JUMPDEST DUP1 PUSH1 0x0 JUMPDEST DUP4 DUP2 LT ISZERO PUSH2 0x4025 JUMPI DUP2 MLOAD PUSH2 0x400F DUP9 DUP3 PUSH2 0x3FB4 JUMP JUMPDEST SWAP8 POP PUSH2 0x401A DUP4 PUSH2 0x4531 JUMP JUMPDEST SWAP3 POP POP PUSH1 0x1 ADD PUSH2 0x3FFB JUMP JUMPDEST POP SWAP5 SWAP6 SWAP5 POP POP POP POP POP JUMP JUMPDEST PUSH2 0x3FD1 DUP2 PUSH2 0x454F JUMP JUMPDEST PUSH2 0x3FD1 DUP2 PUSH2 0x9EF JUMP JUMPDEST PUSH2 0x3FD1 DUP2 PUSH2 0x45A5 JUMP JUMPDEST PUSH2 0x3FD1 DUP2 PUSH2 0x45B0 JUMP JUMPDEST PUSH2 0x3FD1 DUP2 PUSH2 0x45BB JUMP JUMPDEST PUSH2 0x3FD1 DUP2 PUSH2 0x45C6 JUMP JUMPDEST PUSH2 0x3FD1 DUP2 PUSH2 0x45D1 JUMP JUMPDEST PUSH1 0x0 PUSH2 0x407C PUSH1 0x1C DUP4 PUSH2 0x453B JUMP JUMPDEST PUSH32 0x4E4F4E5F524547495354455245445F504F4F4C5F49445F4552524F5200000000 DUP2 MSTORE PUSH1 0x20 ADD SWAP3 SWAP2 POP POP JUMP JUMPDEST PUSH1 0x0 PUSH2 0x40B5 PUSH1 0x1B DUP4 PUSH2 0x453B JUMP JUMPDEST PUSH32 0x504F4F4C5F544F5F4A4F494E5F4E4F545F53454C465F4552524F520000000000 DUP2 MSTORE PUSH1 0x20 ADD SWAP3 SWAP2 POP POP JUMP JUMPDEST PUSH1 0x0 PUSH2 0x40EE PUSH1 0x1C DUP4 PUSH2 0x453B JUMP JUMPDEST PUSH32 0x4E4F4E5F524547495354455245445F52425F504F4F4C5F4552524F5200000000 DUP2 MSTORE PUSH1 0x20 ADD SWAP3 SWAP2 POP POP JUMP JUMPDEST PUSH1 0x0 PUSH2 0x4127 PUSH1 0x13 DUP4 PUSH2 0x453B JUMP JUMPDEST PUSH19 0x10D497D25395115495905317D2539590531251 PUSH1 0x6A SHL DUP2 MSTORE PUSH1 0x20 ADD SWAP3 SWAP2 POP POP JUMP JUMPDEST PUSH1 0x0 PUSH2 0x4156 PUSH1 0x14 DUP4 PUSH2 0x453B JUMP JUMPDEST PUSH20 0x15D1551217D514905394D1915497D19052531151 PUSH1 0x62 SHL DUP2 MSTORE PUSH1 0x20 ADD SWAP3 SWAP2 POP POP JUMP JUMPDEST DUP1 MLOAD PUSH1 0x60 DUP4 ADD SWAP1 PUSH2 0x418A DUP5 DUP3 PUSH2 0x4039 JUMP JUMPDEST POP PUSH1 0x20 DUP3 ADD MLOAD PUSH2 0x419D PUSH1 0x20 DUP6 ADD DUP3 PUSH2 0x4039 JUMP JUMPDEST POP PUSH1 0x40 DUP3 ADD MLOAD PUSH2 0x41B0 PUSH1 0x40 DUP6 ADD DUP3 PUSH2 0x4039 JUMP JUMPDEST POP POP POP POP JUMP JUMPDEST DUP1 MLOAD PUSH1 0x60 DUP4 ADD SWAP1 PUSH2 0x41C7 DUP5 DUP3 PUSH2 0x3FC8 JUMP JUMPDEST POP PUSH1 0x20 DUP3 ADD MLOAD PUSH2 0x41DA PUSH1 0x20 DUP6 ADD DUP3 PUSH2 0x4224 JUMP JUMPDEST POP PUSH1 0x40 DUP3 ADD MLOAD PUSH2 0x41B0 PUSH1 0x40 DUP6 ADD DUP3 PUSH2 0x3FC8 JUMP JUMPDEST DUP1 MLOAD PUSH1 0x60 DUP4 ADD SWAP1 PUSH2 0x41FE DUP5 DUP3 PUSH2 0x422D JUMP JUMPDEST POP PUSH1 0x20 DUP3 ADD MLOAD PUSH2 0x4211 PUSH1 0x20 DUP6 ADD DUP3 PUSH2 0x423F JUMP JUMPDEST POP PUSH1 0x40 DUP3 ADD MLOAD PUSH2 0x41B0 PUSH1 0x40 DUP6 ADD DUP3 PUSH2 0x423F JUMP JUMPDEST PUSH2 0x3FD1 DUP2 PUSH2 0x457E JUMP JUMPDEST PUSH2 0x3FD1 DUP2 PUSH2 0x4587 JUMP JUMPDEST PUSH2 0x3FD1 DUP2 PUSH2 0x4593 JUMP JUMPDEST PUSH2 0x3FD1 DUP2 PUSH2 0x4599 JUMP JUMPDEST PUSH1 0x20 DUP2 ADD PUSH2 0xD37 DUP3 DUP5 PUSH2 0x3FC8 JUMP JUMPDEST PUSH1 0x40 DUP2 ADD PUSH2 0x4264 DUP3 DUP6 PUSH2 0x3FC8 JUMP JUMPDEST PUSH2 0x287E PUSH1 0x20 DUP4 ADD DUP5 PUSH2 0x3FC8 JUMP JUMPDEST PUSH1 0x60 DUP2 ADD PUSH2 0x427F DUP3 DUP7 PUSH2 0x3FC8 JUMP JUMPDEST PUSH2 0x428C PUSH1 0x20 DUP4 ADD DUP6 PUSH2 0x3FC8 JUMP JUMPDEST PUSH2 0x2443 PUSH1 0x40 DUP4 ADD DUP5 PUSH2 0x4039 JUMP JUMPDEST PUSH1 0x40 DUP2 ADD PUSH2 0x42A7 DUP3 DUP6 PUSH2 0x3FC8 JUMP JUMPDEST PUSH2 0x287E PUSH1 0x20 DUP4 ADD DUP5 PUSH2 0x4039 JUMP JUMPDEST PUSH1 0x20 DUP1 DUP3 MSTORE DUP2 ADD PUSH2 0x287E DUP2 DUP5 PUSH2 0x3FD7 JUMP JUMPDEST PUSH1 0x20 DUP2 ADD PUSH2 0xD37 DUP3 DUP5 PUSH2 0x4030 JUMP JUMPDEST PUSH1 0x20 DUP2 ADD PUSH2 0xD37 DUP3 DUP5 PUSH2 0x4039 JUMP JUMPDEST PUSH1 0x60 DUP2 ADD PUSH2 0x42EF DUP3 DUP7 PUSH2 0x4039 JUMP JUMPDEST PUSH2 0x42FC PUSH1 0x20 DUP4 ADD DUP6 PUSH2 0x3FC8 JUMP JUMPDEST PUSH2 0x2443 PUSH1 0x40 DUP4 ADD DUP5 PUSH2 0x4224 JUMP JUMPDEST PUSH1 0x40 DUP2 ADD PUSH2 0x4317 DUP3 DUP6 PUSH2 0x4039 JUMP JUMPDEST PUSH2 0x287E PUSH1 0x20 DUP4 ADD DUP5 PUSH2 0x4030 JUMP JUMPDEST PUSH1 0x40 DUP2 ADD PUSH2 0x42A7 DUP3 DUP6 PUSH2 0x4039 JUMP JUMPDEST PUSH1 0x20 DUP2 ADD PUSH2 0xD37 DUP3 DUP5 PUSH2 0x4042 JUMP JUMPDEST PUSH1 0x60 DUP2 ADD PUSH2 0x434E DUP3 DUP7 PUSH2 0x404B JUMP JUMPDEST PUSH2 0x428C PUSH1 0x20 DUP4 ADD DUP6 PUSH2 0x4039 JUMP JUMPDEST PUSH1 0x40 DUP2 ADD PUSH2 0x42A7 DUP3 DUP6 PUSH2 0x4054 JUMP JUMPDEST PUSH1 0x60 DUP2 ADD PUSH2 0x4377 DUP3 DUP7 PUSH2 0x405D JUMP JUMPDEST PUSH2 0x42FC PUSH1 0x20 DUP4 ADD DUP6 PUSH2 0x4039 JUMP JUMPDEST PUSH1 0x40 DUP2 ADD PUSH2 0x4264 DUP3 DUP6 PUSH2 0x405D JUMP JUMPDEST PUSH1 0x40 DUP2 ADD PUSH2 0x42A7 DUP3 DUP6 PUSH2 0x4066 JUMP JUMPDEST PUSH1 0x20 DUP1 DUP3 MSTORE DUP2 ADD PUSH2 0xBB3 DUP2 PUSH2 0x406F JUMP JUMPDEST PUSH1 0x20 DUP1 DUP3 MSTORE DUP2 ADD PUSH2 0xBB3 DUP2 PUSH2 0x40A8 JUMP JUMPDEST PUSH1 0x20 DUP1 DUP3 MSTORE DUP2 ADD PUSH2 0xBB3 DUP2 PUSH2 0x40E1 JUMP JUMPDEST PUSH1 0x20 DUP1 DUP3 MSTORE DUP2 ADD PUSH2 0xBB3 DUP2 PUSH2 0x411A JUMP JUMPDEST PUSH1 0x20 DUP1 DUP3 MSTORE DUP2 ADD PUSH2 0xBB3 DUP2 PUSH2 0x4149 JUMP JUMPDEST PUSH1 0x60 DUP2 ADD PUSH2 0xD37 DUP3 DUP5 PUSH2 0x4179 JUMP JUMPDEST PUSH1 0x60 DUP2 ADD PUSH2 0xD37 DUP3 DUP5 PUSH2 0x41B6 JUMP JUMPDEST PUSH1 0x60 DUP2 ADD PUSH2 0xD37 DUP3 DUP5 PUSH2 0x41ED JUMP JUMPDEST PUSH1 0x60 DUP2 ADD PUSH2 0x434E DUP3 DUP7 PUSH2 0x4039 JUMP JUMPDEST PUSH1 0x80 DUP2 ADD PUSH2 0x4436 DUP3 DUP8 PUSH2 0x4039 JUMP JUMPDEST PUSH2 0x4443 PUSH1 0x20 DUP4 ADD DUP7 PUSH2 0x4039 JUMP JUMPDEST PUSH2 0x4450 PUSH1 0x40 DUP4 ADD DUP6 PUSH2 0x4039 JUMP JUMPDEST PUSH2 0x3007 PUSH1 0x60 DUP4 ADD DUP5 PUSH2 0x4039 JUMP JUMPDEST PUSH1 0xA0 DUP2 ADD PUSH2 0x446B DUP3 DUP9 PUSH2 0x4039 JUMP JUMPDEST PUSH2 0x4478 PUSH1 0x20 DUP4 ADD DUP8 PUSH2 0x4039 JUMP JUMPDEST PUSH2 0x4485 PUSH1 0x40 DUP4 ADD DUP7 PUSH2 0x4039 JUMP JUMPDEST PUSH2 0x4492 PUSH1 0x60 DUP4 ADD DUP6 PUSH2 0x4039 JUMP JUMPDEST PUSH2 0x2B78 PUSH1 0x80 DUP4 ADD DUP5 PUSH2 0x4039 JUMP JUMPDEST PUSH1 0x20 DUP2 ADD PUSH2 0xD37 DUP3 DUP5 PUSH2 0x4224 JUMP JUMPDEST PUSH1 0x40 DUP2 ADD PUSH2 0x44BB DUP3 DUP6 PUSH2 0x4224 JUMP JUMPDEST PUSH2 0x287E PUSH1 0x20 DUP4 ADD DUP5 PUSH2 0x4224 JUMP JUMPDEST PUSH1 0x40 DUP2 ADD PUSH2 0x42A7 DUP3 DUP6 PUSH2 0x4236 JUMP JUMPDEST PUSH1 0x60 DUP2 ADD PUSH2 0x434E DUP3 DUP7 PUSH2 0x4236 JUMP JUMPDEST PUSH1 0x40 MLOAD DUP2 DUP2 ADD PUSH1 0x1 PUSH1 0x1 PUSH1 0x40 SHL SUB DUP2 GT DUP3 DUP3 LT OR ISZERO PUSH2 0x4502 JUMPI PUSH1 0x0 DUP1 REVERT JUMPDEST PUSH1 0x40 MSTORE SWAP2 SWAP1 POP JUMP JUMPDEST PUSH1 0x0 PUSH1 0x1 PUSH1 0x1 PUSH1 0x40 SHL SUB DUP3 GT ISZERO PUSH2 0x4520 JUMPI PUSH1 0x0 DUP1 REVERT JUMPDEST POP PUSH1 0x20 PUSH1 0x1F SWAP2 SWAP1 SWAP2 ADD PUSH1 0x1F NOT AND ADD SWAP1 JUMP JUMPDEST PUSH1 0x20 ADD SWAP1 JUMP JUMPDEST MLOAD SWAP1 JUMP JUMPDEST SWAP1 DUP2 MSTORE PUSH1 0x20 ADD SWAP1 JUMP JUMPDEST PUSH1 0x0 PUSH2 0xBB3 DUP3 PUSH2 0x4572 JUMP JUMPDEST ISZERO ISZERO SWAP1 JUMP JUMPDEST DUP1 PUSH2 0xBB6 DUP2 PUSH2 0x4608 JUMP JUMPDEST DUP1 PUSH2 0xBB6 DUP2 PUSH2 0x4612 JUMP JUMPDEST DUP1 PUSH2 0xBB6 DUP2 PUSH2 0x461C JUMP JUMPDEST PUSH1 0x1 PUSH1 0x1 PUSH1 0xA0 SHL SUB AND SWAP1 JUMP JUMPDEST PUSH4 0xFFFFFFFF AND SWAP1 JUMP JUMPDEST PUSH1 0x1 PUSH1 0x1 PUSH1 0x40 SHL SUB AND SWAP1 JUMP JUMPDEST PUSH1 0xFF AND SWAP1 JUMP JUMPDEST PUSH1 0x1 PUSH1 0x1 PUSH1 0x60 SHL SUB AND SWAP1 JUMP JUMPDEST PUSH1 0x0 PUSH2 0xBB3 DUP3 PUSH2 0x4544 JUMP JUMPDEST PUSH1 0x0 PUSH2 0xBB3 DUP3 PUSH2 0x4554 JUMP JUMPDEST PUSH1 0x0 PUSH2 0xBB3 DUP3 PUSH2 0x455E JUMP JUMPDEST PUSH1 0x0 PUSH2 0xBB3 DUP3 PUSH2 0x4568 JUMP JUMPDEST PUSH1 0x0 PUSH2 0xBB3 DUP3 PUSH2 0x9EF JUMP JUMPDEST PUSH1 0x0 JUMPDEST DUP4 DUP2 LT ISZERO PUSH2 0x45F7 JUMPI DUP2 DUP2 ADD MLOAD DUP4 DUP3 ADD MSTORE PUSH1 0x20 ADD PUSH2 0x45DF JUMP JUMPDEST DUP4 DUP2 GT ISZERO PUSH2 0x41B0 JUMPI POP POP PUSH1 0x0 SWAP2 ADD MSTORE JUMP JUMPDEST PUSH1 0x4 DUP2 LT PUSH2 0xCE8 JUMPI INVALID JUMPDEST PUSH1 0x3 DUP2 LT PUSH2 0xCE8 JUMPI INVALID JUMPDEST PUSH1 0x2 DUP2 LT PUSH2 0xCE8 JUMPI INVALID JUMPDEST PUSH2 0x462F DUP2 PUSH2 0x4544 JUMP JUMPDEST DUP2 EQ PUSH2 0xCE8 JUMPI PUSH1 0x0 DUP1 REVERT JUMPDEST PUSH2 0x462F DUP2 PUSH2 0x454F JUMP JUMPDEST PUSH2 0x462F DUP2 PUSH2 0x9EF JUMP JUMPDEST PUSH1 0x2 DUP2 LT PUSH2 0xCE8 JUMPI PUSH1 0x0 DUP1 REVERT JUMPDEST PUSH2 0x462F DUP2 PUSH2 0x457E JUMP INVALID LOG3 PUSH6 0x627A7A723158 KECCAK256 MUL PUSH4 0x57465FB PUSH23 0x1AC27637041BD6823183DF8D86405598D3A2C774C7F040 0xE7 0x1F PUSH13 0x6578706572696D656E74616CF5 PUSH5 0x736F6C6343 STOP SDIV GT STOP BLOCKHASH "
		},
		"gasEstimates": {
			"creation": {
				"codeDepositCost": "3617000",
				"executionCost": "24883",
				"totalCost": "3641883"
			},
			"external": {
				"addAuthorizedAddress(address)": "infinite",
				"addPopAddress(address)": "infinite",
				"aggregatedStatsByEpoch(uint256)": "infinite",
				"authorities(uint256)": "infinite",
				"authorized(address)": "infinite",
				"cobbDouglasAlphaDenominator()": "1277",
				"cobbDouglasAlphaNumerator()": "1244",
				"computeRewardBalanceOfDelegator(bytes32,address)": "infinite",
				"computeRewardBalanceOfOperator(bytes32)": "infinite",
				"createStakingPool(address)": "infinite",
				"currentEpoch()": "1188",
				"currentEpochStartTimeInSeconds()": "1233",
				"decreaseStakingPoolOperatorShare(bytes32,uint32)": "infinite",
				"endEpoch()": "infinite",
				"epochDurationInSeconds()": "1144",
				"finalizePool(bytes32)": "infinite",
				"getAuthorizedAddresses()": "infinite",
				"getCurrentEpochEarliestEndTimeInSeconds()": "infinite",
				"getDragoRegistry()": "infinite",
				"getGlobalStakeByStatus(uint8)": "infinite",
				"getGrgContract()": "infinite",
				"getGrgVault()": "infinite",
				"getOwnerStakeByStatus(address,uint8)": "infinite",
				"getStakeDelegatedToPoolByOwner(address,bytes32)": "infinite",
				"getStakingPool(bytes32)": "infinite",
				"getStakingPoolStatsThisEpoch(bytes32)": "infinite",
				"getTotalStake(address)": "infinite",
				"getTotalStakeDelegatedToPool(bytes32)": "infinite",
				"getWethContract()": "infinite",
				"joinStakingPoolAsRbPoolAccount(bytes32,address)": "infinite",
				"lastPoolId()": "1211",
				"minimumPoolStake()": "1167",
				"owner()": "1334",
				"payProtocolFee(address,address,uint256)": "infinite",
				"poolIdByRbPoolAccount(address)": "infinite",
				"poolStatsByEpoch(bytes32,uint256)": "infinite",
				"removeAuthorizedAddress(address)": "infinite",
				"removeAuthorizedAddressAtIndex(address,uint256)": "infinite",
				"removeExchangeAddress(address)": "infinite",
				"rewardDelegatedStakeWeight()": "1222",
				"rewardsByPoolId(bytes32)": "infinite",
				"stakingContract()": "1245",
				"transferOwnership(address)": "infinite",
				"validPops(address)": "infinite",
				"wethReservedForPoolRewards()": "1233",
				"withdrawDelegatorRewards(bytes32)": "infinite"
			},
			"internal": {
				"_assertValidProtocolFee(uint256)": "infinite",
				"_computeMembersAndWeightedStake(bytes32,uint256)": "infinite"
			}
		},
		"methodIdentifiers": {
			"addAuthorizedAddress(address)": "42f1181e",
			"addPopAddress(address)": "1f81eb80",
			"aggregatedStatsByEpoch(uint256)": "38229d93",
			"authorities(uint256)": "494503d4",
			"authorized(address)": "b9181611",
			"cobbDouglasAlphaDenominator()": "e8eeb3f8",
			"cobbDouglasAlphaNumerator()": "81666796",
			"computeRewardBalanceOfDelegator(bytes32,address)": "e907f003",
			"computeRewardBalanceOfOperator(bytes32)": "bb7ef7e0",
			"createStakingPool(address)": "be111af4",
			"currentEpoch()": "76671808",
			"currentEpochStartTimeInSeconds()": "587da023",
			"decreaseStakingPoolOperatorShare(bytes32,uint32)": "5d91121d",
			"endEpoch()": "0b9663db",
			"epochDurationInSeconds()": "63403801",
			"finalizePool(bytes32)": "ff691b11",
			"getAuthorizedAddresses()": "d39de6e9",
			"getCurrentEpochEarliestEndTimeInSeconds()": "b2baa33e",
			"getDragoRegistry()": "b652b41f",
			"getGlobalStakeByStatus(uint8)": "e804d0a4",
			"getGrgContract()": "ef4ba680",
			"getGrgVault()": "e0822db7",
			"getOwnerStakeByStatus(address,uint8)": "44a6958b",
			"getStakeDelegatedToPoolByOwner(address,bytes32)": "f252b7a1",
			"getStakingPool(bytes32)": "4bcc3f67",
			"getStakingPoolStatsThisEpoch(bytes32)": "46b97959",
			"getTotalStake(address)": "1e7ff8f6",
			"getTotalStakeDelegatedToPool(bytes32)": "3e4ad732",
			"getWethContract()": "3c277fc5",
			"joinStakingPoolAsRbPoolAccount(bytes32,address)": "1a67a0a0",
			"lastPoolId()": "a657e579",
			"minimumPoolStake()": "a26171e2",
			"owner()": "8da5cb5b",
			"payProtocolFee(address,address,uint256)": "a3b4a327",
			"poolIdByRbPoolAccount(address)": "7fa140c7",
			"poolStatsByEpoch(bytes32,uint256)": "2a94c279",
			"removeAuthorizedAddress(address)": "70712939",
			"removeAuthorizedAddressAtIndex(address,uint256)": "9ad26744",
			"removeExchangeAddress(address)": "01e28d84",
			"rewardDelegatedStakeWeight()": "e0ee036e",
			"rewardsByPoolId(bytes32)": "c18c9141",
			"stakingContract()": "ee99205c",
			"transferOwnership(address)": "f2fde38b",
			"validPops(address)": "540c2d53",
			"wethReservedForPoolRewards()": "b0531524",
			"withdrawDelegatorRewards(bytes32)": "b510879f"
		}
	},
	"abi": [
		{
			"anonymous": false,
			"inputs": [
				{
					"indexed": true,
					"internalType": "address",
					"name": "target",
					"type": "address"
				},
				{
					"indexed": true,
					"internalType": "address",
					"name": "caller",
					"type": "address"
				}
			],
			"name": "AuthorizedAddressAdded",
			"type": "event"
		},
		{
			"anonymous": false,
			"inputs": [
				{
					"indexed": true,
					"internalType": "address",
					"name": "target",
					"type": "address"
				},
				{
					"indexed": true,
					"internalType": "address",
					"name": "caller",
					"type": "address"
				}
			],
			"name": "AuthorizedAddressRemoved",
			"type": "event"
		},
		{
			"anonymous": false,
			"inputs": [
				{
					"indexed": true,
					"internalType": "uint256",
					"name": "epoch",
					"type": "uint256"
				},
				{
					"indexed": false,
					"internalType": "uint256",
					"name": "numPoolsToFinalize",
					"type": "uint256"
				},
				{
					"indexed": false,
					"internalType": "uint256",
					"name": "rewardsAvailable",
					"type": "uint256"
				},
				{
					"indexed": false,
					"internalType": "uint256",
					"name": "totalFeesCollected",
					"type": "uint256"
				},
				{
					"indexed": false,
					"internalType": "uint256",
					"name": "totalWeightedStake",
					"type": "uint256"
				}
			],
			"name": "EpochEnded",
			"type": "event"
		},
		{
			"anonymous": false,
			"inputs": [
				{
					"indexed": true,
					"internalType": "uint256",
					"name": "epoch",
					"type": "uint256"
				},
				{
					"indexed": false,
					"internalType": "uint256",
					"name": "rewardsPaid",
					"type": "uint256"
				},
				{
					"indexed": false,
					"internalType": "uint256",
					"name": "rewardsRemaining",
					"type": "uint256"
				}
			],
			"name": "EpochFinalized",
			"type": "event"
		},
		{
			"anonymous": false,
			"inputs": [
				{
					"indexed": true,
					"internalType": "address",
					"name": "staker",
					"type": "address"
				},
				{
					"indexed": false,
					"internalType": "uint256",
					"name": "amount",
					"type": "uint256"
				},
				{
					"indexed": false,
					"internalType": "uint8",
					"name": "fromStatus",
					"type": "uint8"
				},
				{
					"indexed": true,
					"internalType": "bytes32",
					"name": "fromPool",
					"type": "bytes32"
				},
				{
					"indexed": false,
					"internalType": "uint8",
					"name": "toStatus",
					"type": "uint8"
				},
				{
					"indexed": true,
					"internalType": "bytes32",
					"name": "toPool",
					"type": "bytes32"
				}
			],
			"name": "MoveStake",
			"type": "event"
		},
		{
			"anonymous": false,
			"inputs": [
				{
					"indexed": true,
					"internalType": "bytes32",
					"name": "poolId",
					"type": "bytes32"
				},
				{
					"indexed": false,
					"internalType": "uint32",
					"name": "oldOperatorShare",
					"type": "uint32"
				},
				{
					"indexed": false,
					"internalType": "uint32",
					"name": "newOperatorShare",
					"type": "uint32"
				}
			],
			"name": "OperatorShareDecreased",
			"type": "event"
		},
		{
			"anonymous": false,
			"inputs": [
				{
					"indexed": true,
					"internalType": "address",
					"name": "previousOwner",
					"type": "address"
				},
				{
					"indexed": true,
					"internalType": "address",
					"name": "newOwner",
					"type": "address"
				}
			],
			"name": "OwnershipTransferred",
			"type": "event"
		},
		{
			"anonymous": false,
			"inputs": [
				{
					"indexed": false,
					"internalType": "uint256",
					"name": "epochDurationInSeconds",
					"type": "uint256"
				},
				{
					"indexed": false,
					"internalType": "uint32",
					"name": "rewardDelegatedStakeWeight",
					"type": "uint32"
				},
				{
					"indexed": false,
					"internalType": "uint256",
					"name": "minimumPoolStake",
					"type": "uint256"
				},
				{
					"indexed": false,
					"internalType": "uint256",
					"name": "cobbDouglasAlphaNumerator",
					"type": "uint256"
				},
				{
					"indexed": false,
					"internalType": "uint256",
					"name": "cobbDouglasAlphaDenominator",
					"type": "uint256"
				}
			],
			"name": "ParamsSet",
			"type": "event"
		},
		{
			"anonymous": false,
			"inputs": [
				{
					"indexed": false,
					"internalType": "address",
					"name": "exchangeAddress",
					"type": "address"
				}
			],
			"name": "PopAdded",
			"type": "event"
		},
		{
			"anonymous": false,
			"inputs": [
				{
					"indexed": false,
					"internalType": "address",
					"name": "exchangeAddress",
					"type": "address"
				}
			],
			"name": "PopRemoved",
			"type": "event"
		},
		{
			"anonymous": false,
			"inputs": [
				{
					"indexed": true,
					"internalType": "address",
					"name": "rbPoolAddress",
					"type": "address"
				},
				{
					"indexed": true,
					"internalType": "bytes32",
					"name": "poolId",
					"type": "bytes32"
				}
			],
			"name": "RbPoolStakingPoolSet",
			"type": "event"
		},
		{
			"anonymous": false,
			"inputs": [
				{
					"indexed": true,
					"internalType": "uint256",
					"name": "epoch",
					"type": "uint256"
				},
				{
					"indexed": true,
					"internalType": "bytes32",
					"name": "poolId",
					"type": "bytes32"
				},
				{
					"indexed": false,
					"internalType": "uint256",
					"name": "operatorReward",
					"type": "uint256"
				},
				{
					"indexed": false,
					"internalType": "uint256",
					"name": "membersReward",
					"type": "uint256"
				}
			],
			"name": "RewardsPaid",
			"type": "event"
		},
		{
			"anonymous": false,
			"inputs": [
				{
					"indexed": true,
					"internalType": "address",
					"name": "staker",
					"type": "address"
				},
				{
					"indexed": false,
					"internalType": "uint256",
					"name": "amount",
					"type": "uint256"
				}
			],
			"name": "Stake",
			"type": "event"
		},
		{
			"anonymous": false,
			"inputs": [
				{
					"indexed": false,
					"internalType": "bytes32",
					"name": "poolId",
					"type": "bytes32"
				},
				{
					"indexed": false,
					"internalType": "address",
					"name": "operator",
					"type": "address"
				},
				{
					"indexed": false,
					"internalType": "uint32",
					"name": "operatorShare",
					"type": "uint32"
				}
			],
			"name": "StakingPoolCreated",
			"type": "event"
		},
		{
			"anonymous": false,
			"inputs": [
				{
					"indexed": true,
					"internalType": "uint256",
					"name": "epoch",
					"type": "uint256"
				},
				{
					"indexed": true,
					"internalType": "bytes32",
					"name": "poolId",
					"type": "bytes32"
				}
			],
			"name": "StakingPoolEarnedRewardsInEpoch",
			"type": "event"
		},
		{
			"anonymous": false,
			"inputs": [
				{
					"indexed": true,
					"internalType": "address",
					"name": "staker",
					"type": "address"
				},
				{
					"indexed": false,
					"internalType": "uint256",
					"name": "amount",
					"type": "uint256"
				}
			],
			"name": "Unstake",
			"type": "event"
		},
		{
			"constant": false,
			"inputs": [
				{
					"internalType": "address",
					"name": "target",
					"type": "address"
				}
			],
			"name": "addAuthorizedAddress",
			"outputs": [],
			"payable": false,
			"stateMutability": "nonpayable",
			"type": "function"
		},
		{
			"constant": false,
			"inputs": [
				{
					"internalType": "address",
					"name": "addr",
					"type": "address"
				}
			],
			"name": "addPopAddress",
			"outputs": [],
			"payable": false,
			"stateMutability": "nonpayable",
			"type": "function"
		},
		{
			"constant": true,
			"inputs": [
				{
					"internalType": "uint256",
					"name": "",
					"type": "uint256"
				}
			],
			"name": "aggregatedStatsByEpoch",
			"outputs": [
				{
					"internalType": "uint256",
					"name": "rewardsAvailable",
					"type": "uint256"
				},
				{
					"internalType": "uint256",
					"name": "numPoolsToFinalize",
					"type": "uint256"
				},
				{
					"internalType": "uint256",
					"name": "totalFeesCollected",
					"type": "uint256"
				},
				{
					"internalType": "uint256",
					"name": "totalWeightedStake",
					"type": "uint256"
				},
				{
					"internalType": "uint256",
					"name": "totalRewardsFinalized",
					"type": "uint256"
				}
			],
			"payable": false,
			"stateMutability": "view",
			"type": "function"
		},
		{
			"constant": true,
			"inputs": [
				{
					"internalType": "uint256",
					"name": "",
					"type": "uint256"
				}
			],
			"name": "authorities",
			"outputs": [
				{
					"internalType": "address",
					"name": "",
					"type": "address"
				}
			],
			"payable": false,
			"stateMutability": "view",
			"type": "function"
		},
		{
			"constant": true,
			"inputs": [
				{
					"internalType": "address",
					"name": "",
					"type": "address"
				}
			],
			"name": "authorized",
			"outputs": [
				{
					"internalType": "bool",
					"name": "",
					"type": "bool"
				}
			],
			"payable": false,
			"stateMutability": "view",
			"type": "function"
		},
		{
			"constant": true,
			"inputs": [],
			"name": "cobbDouglasAlphaDenominator",
			"outputs": [
				{
					"internalType": "uint32",
					"name": "",
					"type": "uint32"
				}
			],
			"payable": false,
			"stateMutability": "view",
			"type": "function"
		},
		{
			"constant": true,
			"inputs": [],
			"name": "cobbDouglasAlphaNumerator",
			"outputs": [
				{
					"internalType": "uint32",
					"name": "",
					"type": "uint32"
				}
			],
			"payable": false,
			"stateMutability": "view",
			"type": "function"
		},
		{
			"constant": true,
			"inputs": [
				{
					"internalType": "bytes32",
					"name": "poolId",
					"type": "bytes32"
				},
				{
					"internalType": "address",
					"name": "member",
					"type": "address"
				}
			],
			"name": "computeRewardBalanceOfDelegator",
			"outputs": [
				{
					"internalType": "uint256",
					"name": "reward",
					"type": "uint256"
				}
			],
			"payable": false,
			"stateMutability": "view",
			"type": "function"
		},
		{
			"constant": true,
			"inputs": [
				{
					"internalType": "bytes32",
					"name": "poolId",
					"type": "bytes32"
				}
			],
			"name": "computeRewardBalanceOfOperator",
			"outputs": [
				{
					"internalType": "uint256",
					"name": "reward",
					"type": "uint256"
				}
			],
			"payable": false,
			"stateMutability": "view",
			"type": "function"
		},
		{
			"constant": false,
			"inputs": [
				{
					"internalType": "address",
					"name": "rigoblockPoolAddress",
					"type": "address"
				}
			],
			"name": "createStakingPool",
			"outputs": [
				{
					"internalType": "bytes32",
					"name": "poolId",
					"type": "bytes32"
				}
			],
			"payable": false,
			"stateMutability": "nonpayable",
			"type": "function"
		},
		{
			"constant": true,
			"inputs": [],
			"name": "currentEpoch",
			"outputs": [
				{
					"internalType": "uint256",
					"name": "",
					"type": "uint256"
				}
			],
			"payable": false,
			"stateMutability": "view",
			"type": "function"
		},
		{
			"constant": true,
			"inputs": [],
			"name": "currentEpochStartTimeInSeconds",
			"outputs": [
				{
					"internalType": "uint256",
					"name": "",
					"type": "uint256"
				}
			],
			"payable": false,
			"stateMutability": "view",
			"type": "function"
		},
		{
			"constant": false,
			"inputs": [
				{
					"internalType": "bytes32",
					"name": "poolId",
					"type": "bytes32"
				},
				{
					"internalType": "uint32",
					"name": "newOperatorShare",
					"type": "uint32"
				}
			],
			"name": "decreaseStakingPoolOperatorShare",
			"outputs": [],
			"payable": false,
			"stateMutability": "nonpayable",
			"type": "function"
		},
		{
			"constant": false,
			"inputs": [],
			"name": "endEpoch",
			"outputs": [
				{
					"internalType": "uint256",
					"name": "",
					"type": "uint256"
				}
			],
			"payable": false,
			"stateMutability": "nonpayable",
			"type": "function"
		},
		{
			"constant": true,
			"inputs": [],
			"name": "epochDurationInSeconds",
			"outputs": [
				{
					"internalType": "uint256",
					"name": "",
					"type": "uint256"
				}
			],
			"payable": false,
			"stateMutability": "view",
			"type": "function"
		},
		{
			"constant": false,
			"inputs": [
				{
					"internalType": "bytes32",
					"name": "poolId",
					"type": "bytes32"
				}
			],
			"name": "finalizePool",
			"outputs": [],
			"payable": false,
			"stateMutability": "nonpayable",
			"type": "function"
		},
		{
			"constant": true,
			"inputs": [],
			"name": "getAuthorizedAddresses",
			"outputs": [
				{
					"internalType": "address[]",
					"name": "",
					"type": "address[]"
				}
			],
			"payable": false,
			"stateMutability": "view",
			"type": "function"
		},
		{
			"constant": true,
			"inputs": [],
			"name": "getCurrentEpochEarliestEndTimeInSeconds",
			"outputs": [
				{
					"internalType": "uint256",
					"name": "",
					"type": "uint256"
				}
			],
			"payable": false,
			"stateMutability": "view",
			"type": "function"
		},
		{
			"constant": true,
			"inputs": [],
			"name": "getDragoRegistry",
			"outputs": [
				{
					"internalType": "contract IDragoRegistry",
					"name": "dragoRegistry",
					"type": "address"
				}
			],
			"payable": false,
			"stateMutability": "view",
			"type": "function"
		},
		{
			"constant": true,
			"inputs": [
				{
					"internalType": "enum IStructs.StakeStatus",
					"name": "stakeStatus",
					"type": "uint8"
				}
			],
			"name": "getGlobalStakeByStatus",
			"outputs": [
				{
					"components": [
						{
							"internalType": "uint64",
							"name": "currentEpoch",
							"type": "uint64"
						},
						{
							"internalType": "uint96",
							"name": "currentEpochBalance",
							"type": "uint96"
						},
						{
							"internalType": "uint96",
							"name": "nextEpochBalance",
							"type": "uint96"
						}
					],
					"internalType": "struct IStructs.StoredBalance",
					"name": "balance",
					"type": "tuple"
				}
			],
			"payable": false,
			"stateMutability": "view",
			"type": "function"
		},
		{
			"constant": true,
			"inputs": [],
			"name": "getGrgContract",
			"outputs": [
				{
					"internalType": "contract RigoTokenFace",
					"name": "grgContract",
					"type": "address"
				}
			],
			"payable": false,
			"stateMutability": "view",
			"type": "function"
		},
		{
			"constant": true,
			"inputs": [],
			"name": "getGrgVault",
			"outputs": [
				{
					"internalType": "contract IGrgVault",
					"name": "grgVault",
					"type": "address"
				}
			],
			"payable": false,
			"stateMutability": "view",
			"type": "function"
		},
		{
			"constant": true,
			"inputs": [
				{
					"internalType": "address",
					"name": "staker",
					"type": "address"
				},
				{
					"internalType": "enum IStructs.StakeStatus",
					"name": "stakeStatus",
					"type": "uint8"
				}
			],
			"name": "getOwnerStakeByStatus",
			"outputs": [
				{
					"components": [
						{
							"internalType": "uint64",
							"name": "currentEpoch",
							"type": "uint64"
						},
						{
							"internalType": "uint96",
							"name": "currentEpochBalance",
							"type": "uint96"
						},
						{
							"internalType": "uint96",
							"name": "nextEpochBalance",
							"type": "uint96"
						}
					],
					"internalType": "struct IStructs.StoredBalance",
					"name": "balance",
					"type": "tuple"
				}
			],
			"payable": false,
			"stateMutability": "view",
			"type": "function"
		},
		{
			"constant": true,
			"inputs": [
				{
					"internalType": "address",
					"name": "staker",
					"type": "address"
				},
				{
					"internalType": "bytes32",
					"name": "poolId",
					"type": "bytes32"
				}
			],
			"name": "getStakeDelegatedToPoolByOwner",
			"outputs": [
				{
					"components": [
						{
							"internalType": "uint64",
							"name": "currentEpoch",
							"type": "uint64"
						},
						{
							"internalType": "uint96",
							"name": "currentEpochBalance",
							"type": "uint96"
						},
						{
							"internalType": "uint96",
							"name": "nextEpochBalance",
							"type": "uint96"
						}
					],
					"internalType": "struct IStructs.StoredBalance",
					"name": "balance",
					"type": "tuple"
				}
			],
			"payable": false,
			"stateMutability": "view",
			"type": "function"
		},
		{
			"constant": true,
			"inputs": [
				{
					"internalType": "bytes32",
					"name": "poolId",
					"type": "bytes32"
				}
			],
			"name": "getStakingPool",
			"outputs": [
				{
					"components": [
						{
							"internalType": "address",
							"name": "operator",
							"type": "address"
						},
						{
							"internalType": "uint32",
							"name": "operatorShare",
							"type": "uint32"
						},
						{
							"internalType": "address",
							"name": "stakingPal",
							"type": "address"
						}
					],
					"internalType": "struct IStructs.Pool",
					"name": "",
					"type": "tuple"
				}
			],
			"payable": false,
			"stateMutability": "view",
			"type": "function"
		},
		{
			"constant": true,
			"inputs": [
				{
					"internalType": "bytes32",
					"name": "poolId",
					"type": "bytes32"
				}
			],
			"name": "getStakingPoolStatsThisEpoch",
			"outputs": [
				{
					"components": [
						{
							"internalType": "uint256",
							"name": "feesCollected",
							"type": "uint256"
						},
						{
							"internalType": "uint256",
							"name": "weightedStake",
							"type": "uint256"
						},
						{
							"internalType": "uint256",
							"name": "membersStake",
							"type": "uint256"
						}
					],
					"internalType": "struct IStructs.PoolStats",
					"name": "",
					"type": "tuple"
				}
			],
			"payable": false,
			"stateMutability": "view",
			"type": "function"
		},
		{
			"constant": true,
			"inputs": [
				{
					"internalType": "address",
					"name": "staker",
					"type": "address"
				}
			],
			"name": "getTotalStake",
			"outputs": [
				{
					"internalType": "uint256",
					"name": "",
					"type": "uint256"
				}
			],
			"payable": false,
			"stateMutability": "view",
			"type": "function"
		},
		{
			"constant": true,
			"inputs": [
				{
					"internalType": "bytes32",
					"name": "poolId",
					"type": "bytes32"
				}
			],
			"name": "getTotalStakeDelegatedToPool",
			"outputs": [
				{
					"components": [
						{
							"internalType": "uint64",
							"name": "currentEpoch",
							"type": "uint64"
						},
						{
							"internalType": "uint96",
							"name": "currentEpochBalance",
							"type": "uint96"
						},
						{
							"internalType": "uint96",
							"name": "nextEpochBalance",
							"type": "uint96"
						}
					],
					"internalType": "struct IStructs.StoredBalance",
					"name": "balance",
					"type": "tuple"
				}
			],
			"payable": false,
			"stateMutability": "view",
			"type": "function"
		},
		{
			"constant": true,
			"inputs": [],
			"name": "getWethContract",
			"outputs": [
				{
					"internalType": "contract IEtherToken",
					"name": "wethContract",
					"type": "address"
				}
			],
			"payable": false,
			"stateMutability": "view",
			"type": "function"
		},
		{
			"constant": false,
			"inputs": [
				{
					"internalType": "bytes32",
					"name": "poolId",
					"type": "bytes32"
				},
				{
					"internalType": "address",
					"name": "rigoblockPoolAccount",
					"type": "address"
				}
			],
			"name": "joinStakingPoolAsRbPoolAccount",
			"outputs": [],
			"payable": false,
			"stateMutability": "nonpayable",
			"type": "function"
		},
		{
			"constant": true,
			"inputs": [],
			"name": "lastPoolId",
			"outputs": [
				{
					"internalType": "bytes32",
					"name": "",
					"type": "bytes32"
				}
			],
			"payable": false,
			"stateMutability": "view",
			"type": "function"
		},
		{
			"constant": true,
			"inputs": [],
			"name": "minimumPoolStake",
			"outputs": [
				{
					"internalType": "uint256",
					"name": "",
					"type": "uint256"
				}
			],
			"payable": false,
			"stateMutability": "view",
			"type": "function"
		},
		{
			"constant": true,
			"inputs": [],
			"name": "owner",
			"outputs": [
				{
					"internalType": "address",
					"name": "",
					"type": "address"
				}
			],
			"payable": false,
			"stateMutability": "view",
			"type": "function"
		},
		{
			"constant": false,
			"inputs": [
				{
					"internalType": "address",
					"name": "makerAddress",
					"type": "address"
				},
				{
					"internalType": "address",
					"name": "payerAddress",
					"type": "address"
				},
				{
					"internalType": "uint256",
					"name": "protocolFee",
					"type": "uint256"
				}
			],
			"name": "payProtocolFee",
			"outputs": [],
			"payable": true,
			"stateMutability": "payable",
			"type": "function"
		},
		{
			"constant": true,
			"inputs": [
				{
					"internalType": "address",
					"name": "",
					"type": "address"
				}
			],
			"name": "poolIdByRbPoolAccount",
			"outputs": [
				{
					"internalType": "bytes32",
					"name": "",
					"type": "bytes32"
				}
			],
			"payable": false,
			"stateMutability": "view",
			"type": "function"
		},
		{
			"constant": true,
			"inputs": [
				{
					"internalType": "bytes32",
					"name": "",
					"type": "bytes32"
				},
				{
					"internalType": "uint256",
					"name": "",
					"type": "uint256"
				}
			],
			"name": "poolStatsByEpoch",
			"outputs": [
				{
					"internalType": "uint256",
					"name": "feesCollected",
					"type": "uint256"
				},
				{
					"internalType": "uint256",
					"name": "weightedStake",
					"type": "uint256"
				},
				{
					"internalType": "uint256",
					"name": "membersStake",
					"type": "uint256"
				}
			],
			"payable": false,
			"stateMutability": "view",
			"type": "function"
		},
		{
			"constant": false,
			"inputs": [
				{
					"internalType": "address",
					"name": "target",
					"type": "address"
				}
			],
			"name": "removeAuthorizedAddress",
			"outputs": [],
			"payable": false,
			"stateMutability": "nonpayable",
			"type": "function"
		},
		{
			"constant": false,
			"inputs": [
				{
					"internalType": "address",
					"name": "target",
					"type": "address"
				},
				{
					"internalType": "uint256",
					"name": "index",
					"type": "uint256"
				}
			],
			"name": "removeAuthorizedAddressAtIndex",
			"outputs": [],
			"payable": false,
			"stateMutability": "nonpayable",
			"type": "function"
		},
		{
			"constant": false,
			"inputs": [
				{
					"internalType": "address",
					"name": "addr",
					"type": "address"
				}
			],
			"name": "removeExchangeAddress",
			"outputs": [],
			"payable": false,
			"stateMutability": "nonpayable",
			"type": "function"
		},
		{
			"constant": true,
			"inputs": [],
			"name": "rewardDelegatedStakeWeight",
			"outputs": [
				{
					"internalType": "uint32",
					"name": "",
					"type": "uint32"
				}
			],
			"payable": false,
			"stateMutability": "view",
			"type": "function"
		},
		{
			"constant": true,
			"inputs": [
				{
					"internalType": "bytes32",
					"name": "",
					"type": "bytes32"
				}
			],
			"name": "rewardsByPoolId",
			"outputs": [
				{
					"internalType": "uint256",
					"name": "",
					"type": "uint256"
				}
			],
			"payable": false,
			"stateMutability": "view",
			"type": "function"
		},
		{
			"constant": true,
			"inputs": [],
			"name": "stakingContract",
			"outputs": [
				{
					"internalType": "address",
					"name": "",
					"type": "address"
				}
			],
			"payable": false,
			"stateMutability": "view",
			"type": "function"
		},
		{
			"constant": false,
			"inputs": [
				{
					"internalType": "address",
					"name": "newOwner",
					"type": "address"
				}
			],
			"name": "transferOwnership",
			"outputs": [],
			"payable": false,
			"stateMutability": "nonpayable",
			"type": "function"
		},
		{
			"constant": true,
			"inputs": [
				{
					"internalType": "address",
					"name": "",
					"type": "address"
				}
			],
			"name": "validPops",
			"outputs": [
				{
					"internalType": "bool",
					"name": "",
					"type": "bool"
				}
			],
			"payable": false,
			"stateMutability": "view",
			"type": "function"
		},
		{
			"constant": true,
			"inputs": [],
			"name": "wethReservedForPoolRewards",
			"outputs": [
				{
					"internalType": "uint256",
					"name": "",
					"type": "uint256"
				}
			],
			"payable": false,
			"stateMutability": "view",
			"type": "function"
		},
		{
			"constant": false,
			"inputs": [
				{
					"internalType": "bytes32",
					"name": "poolId",
					"type": "bytes32"
				}
			],
			"name": "withdrawDelegatorRewards",
			"outputs": [],
			"payable": false,
			"stateMutability": "nonpayable",
			"type": "function"
		}
	]
}