{
	"data": {
		"bytecode": {
			"linkReferences": {},
			"object": "608060405234801561001057600080fd5b50600080546001600160a01b03191633179055611c6d806100326000396000f3fe608060405234801561001057600080fd5b506004361061021c5760003560e01c8063a657e57911610125578063e0822db7116100ad578063e907f0031161007c578063e907f00314610442578063ee99205c14610455578063ef4ba6801461045d578063f252b7a114610465578063f2fde38b146104785761021c565b8063e0822db714610417578063e0ee036e1461041f578063e804d0a414610427578063e8eeb3f81461043a5761021c565b8063b652b41f116100f4578063b652b41f146103c1578063b9181611146103c9578063bb7ef7e0146103dc578063c18c9141146103ef578063d39de6e9146104025761021c565b8063a657e57914610396578063b05315241461039e578063b2baa33e146103a6578063b510879f146103ae5761021c565b8063587da023116101a85780637fa140c7116101775780637fa140c71461034b578063816667961461035e5780638da5cb5b146103735780639ad267441461037b578063a26171e21461038e5761021c565b8063587da023146103205780636340380114610328578063707129391461033057806376671808146103435761021c565b80633e4ad732116101ef5780633e4ad732146102a557806342f1181e146102c557806344a6958b146102da578063494503d4146102ed578063540c2d53146103005761021c565b80631e7ff8f6146102215780632a94c2791461024a57806338229d931461026c5780633c277fc514610290575b600080fd5b61023461022f3660046119c4565b61048b565b6040516102419190611b7d565b60405180910390f35b61025d610258366004611aa5565b610518565b60405161024193929190611bed565b61027f61027a366004611a6b565b610544565b604051610241959493929190611c03565b610298610573565b6040516102419190611af8565b6102b86102b3366004611a6b565b61058b565b6040516102419190611bb3565b6102d86102d33660046119c4565b6105aa565b005b6102b86102e8366004611a07565b6105be565b6102986102fb366004611a6b565b610610565b61031361030e3660046119c4565b61063a565b6040516102419190611b72565b61023461064f565b610234610655565b6102d861033e3660046119c4565b61065b565b6102346106ee565b6102346103593660046119c4565b6106f4565b610366610706565b6040516102419190611c26565b610298610712565b6102d8610389366004611a39565b610721565b610234610733565b610234610739565b61023461073f565b610234610745565b6102d86103bc366004611a6b565b610763565b61029861076d565b6103136103d73660046119c4565b610785565b6102346103ea366004611a6b565b61079a565b6102346103fd366004611a6b565b610817565b61040a610829565b6040516102419190611b25565b61029861088b565b6103666108a3565b6102b8610435366004611ac6565b6108af565b6103666109dd565b610234610450366004611a83565b6109f1565b610298610a80565b610298610a8f565b6102b86104733660046119de565b610aa7565b6102d86104863660046119c4565b610adb565b600061049561088b565b6001600160a01b03166370a08231836040518263ffffffff1660e01b81526004016104c09190611af8565b60206040518083038186803b1580156104d857600080fd5b505afa1580156104ec573d6000803e3d6000fd5b505050506040513d601f19601f820116820180604052508101906105109190611ae0565b90505b919050565b601560209081526000928352604080842090915290825290208054600182015460029092015490919083565b601660205260009081526040902080546001820154600283015460038401546004909401549293919290919085565b73c02aaa39b223fe8d0a0e5c4f27ead9083c756cc290565b610593611964565b600082815260076020526040902061051090610b4c565b6105b2610bd2565b6105bb81610c01565b50565b6105c6611964565b610607600560008460018111156105d957fe5b60ff168152602080820192909252604090810160009081206001600160a01b03881682529092529020610b4c565b90505b92915050565b6002818154811061062057600080fd5b6000918252602090912001546001600160a01b0316905081565b60106020526000908152604090205460ff1681565b600d5481565b60115481565b610663610bd2565b6001600160a01b03811660009081526001602052604090205460ff166106945761069461068f82610cd5565b610d1d565b60005b6002548110156106ea57816001600160a01b0316600282815481106106b857fe5b6000918252602090912001546001600160a01b031614156106e2576106dd8282610d25565b6106ea565b600101610697565b5050565b600c5481565b60096020526000908152604090205481565b60145463ffffffff1681565b6000546001600160a01b031681565b610729610bd2565b6106ea8282610d25565b60135481565b60085481565b60175481565b600061075e601154600d54610eb990919063ffffffff16565b905090565b6105bb8133610ed5565b73de6445484a8dcd9bf35fc95eb4e3990cc358822e90565b60016020526000908152604090205460ff1681565b60006107a4611964565b506000828152600a60209081526040808320815160608101835281546001600160a01b038082168352600160a01b90910463ffffffff16948201949094526001909101549092169082015290806107fa8561104e565b9150915061080d83602001518383611056565b5095945050505050565b600b6020526000908152604090205481565b6060600280548060200260200160405190810160405280929190818152602001828054801561088157602002820191906000526020600020905b81546001600160a01b03168152600190910190602001808311610863575b5050505050905090565b73ba7f8b5fb1b19c1211c5d49550fcd149177a5eaf90565b60125463ffffffff1681565b6108b7611964565b600160005260046020526108ea7fabd6e7cb50984ff9c2f3e18a2660c3353dadf4e3291deeb275dae2cd1e44fe05610b4c565b905060008260018111156108fa57fe5b141561051357600061090a61088b565b6001600160a01b0316636b6df5aa6040518163ffffffff1660e01b815260040160206040518083038186803b15801561094257600080fd5b505afa158015610956573d6000803e3d6000fd5b505050506040513d601f19601f8201168201806040525081019061097a9190611ae0565b90506109a461099f83602001516001600160601b03168361109190919063ffffffff16565b6110b0565b6001600160601b03908116602084015260408301516109c99161099f91849116611091565b6001600160601b0316604083015250919050565b601454640100000000900463ffffffff1681565b60006109fb611964565b506000838152600a60209081526040808320815160608101835281546001600160a01b038082168352600160a01b90910463ffffffff1694820194909452600190910154909216908201529080610a518661104e565b915091506000610a6684602001518484611056565b915050610a75878783856110cf565b979650505050505050565b6003546001600160a01b031681565b734fbb350052bca5417566f188eb2ebce5b19bc96490565b610aaf611964565b6001600160a01b0383166000908152600660209081526040808320858452909152902061060790610b4c565b610ae3610bd2565b6001600160a01b038116610b0157610afc61068f6111de565b6105bb565b600080546001600160a01b0319166001600160a01b0383169081178255604051909133917f8be0079c531659141344cd1fd0a4f28419497f9722a3daafe3b4186f6b6457e09190a350565b610b54611964565b5060408051606081018252825467ffffffffffffffff81168083526001600160601b03600160401b830481166020850152600160a01b90920490911692820192909252600c549091811115610bcc57610bac816111fc565b67ffffffffffffffff16825260408201516001600160601b031660208301525b50919050565b6000546001600160a01b03163314610bff57600054610bff9061068f9033906001600160a01b031661121c565b565b6001600160a01b038116610c1a57610c1a61068f61126d565b6001600160a01b03811660009081526001602052604090205460ff1615610c4757610c4761068f8261128b565b6001600160a01b0381166000818152600160208190526040808320805460ff19168317905560028054928301815583527f405787fa12a823e0f2b7631cc41b3ba8828b3321ca811111fa75cd3aa3bb5ace90910180546001600160a01b03191684179055513392917f3147867c59d17e8fa9d522465651d44aae0a9e38f902f3475b97e58072f0ed4c91a350565b604080516001600160a01b0383166024808301919091528251808303909101815260449091019091526020810180516001600160e01b03166375a8845160e11b179052919050565b805160208201fd5b6001600160a01b03821660009081526001602052604090205460ff16610d5157610d5161068f83610cd5565b6002548110610d6c57610d6c61068f826002805490506112d3565b816001600160a01b031660028281548110610d8357fe5b6000918252602090912001546001600160a01b031614610dcb57610dcb61068f60028381548110610db057fe5b6000918252602090912001546001600160a01b031684611318565b6001600160a01b0382166000908152600160205260409020805460ff19169055600280546000198101908110610dfd57fe5b600091825260209091200154600280546001600160a01b039092169183908110610e2357fe5b9060005260206000200160006101000a8154816001600160a01b0302191690836001600160a01b031602179055506002805480610e5c57fe5b600082815260208120820160001990810180546001600160a01b031916905590910190915560405133916001600160a01b038516917f1f32c1b084e2de0713b8fb16bd46bb9df710a3dbeae2f3ca93af46e016dcc6b09190a35050565b6000828201838110156106075761060761068f60008686611369565b610ede826105bb565b6000610eed83836000806110cf565b6001600160a01b03831660009081526006602090815260408083208784529091529020909150610f1c90610b4c565b6001600160a01b0383811660009081526006602090815260408083208884528252918290208451815492860151959093015167ffffffffffffffff1990921667ffffffffffffffff9093169290921773ffffffffffffffffffffffff00000000000000001916600160401b6001600160601b039586160217909216600160a01b9390921692909202179055801561104057610fb783826113db565b610fbf610573565b6001600160a01b031663a9059cbb83836040518363ffffffff1660e01b8152600401610fec929190611b0c565b602060405180830381600087803b15801561100657600080fd5b505af115801561101a573d6000803e3d6000fd5b505050506040513d601f19601f8201168201806040525081019061103e9190611a4b565b505b61104983611417565b505050565b600080915091565b6000808261106657839150611089565b61107a63ffffffff8616620f424086611424565b91506110868483611091565b90505b935093915050565b6000828211156110aa576110aa61068f60028585611369565b50900390565b806001600160601b03811681146105135761051361068f60028461144e565b600c546000906110dd611964565b506001600160a01b03851660009081526006602090815260408083208984528252918290208251606081018452905467ffffffffffffffff81168083526001600160601b03600160401b8304811694840194909452600160a01b90910490921692810192909252821415611156576000925050506111d6565b611162818387876114b3565b815190935060009061117f9067ffffffffffffffff166001610eb9565b90506111b26111ab8984602001516001600160601b0316856000015167ffffffffffffffff168561152b565b8590610eb9565b93506111d06111ab8984604001516001600160601b0316848761152b565b93505050505b949350505050565b604080518082019091526004815263734f6e1f60e11b602082015290565b8067ffffffffffffffff811681146105135761051361068f60018461144e565b604080516001600160a01b03808516602483015283166044808301919091528251808303909101815260649091019091526020810180516001600160e01b0316631de45ad160e01b17905292915050565b60408051808201909152600481526315d953f960e21b602082015290565b604080516001600160a01b0383166024808301919091528251808303909101815260449091019091526020810180516001600160e01b03166306f0b78d60e51b179052919050565b604080516024810184905260448082018490528251808303909101815260649091019091526020810180516001600160e01b031663e9f8377160e01b17905292915050565b604080516001600160a01b03808516602483015283166044808301919091528251808303909101815260649091019091526020810180516001600160e01b031663140a84db60e01b17905292915050565b606063e946c1bb60e01b8484846040516024018084600381111561138957fe5b81526020018381526020018281526020019350505050604051602081830303815290604052906001600160e01b0319166020820180516001600160e01b03838183161783525050505090509392505050565b6000828152600b60205260409020546113f49082611091565b6000838152600b60205260409020556017546114109082611091565b6017555050565b6105bb81600060016115b3565b60006111d683611448611438826001611091565b611442888761169c565b90610eb9565b906116cd565b606063c996af7b60e01b83836040516024018083600281111561146d57fe5b81526020808201939093526040805180830385018152918101905291820180516001600160e01b03166001600160e01b0319909516949094179093529250505092915050565b60008215806114c0575081155b156114cd575060006111d6565b60006114da856001611091565b865167ffffffffffffffff1610156114f65785604001516114fc565b85602001515b6001600160601b03169050806115165760009150506111d6565b6115218484836116f7565b9695505050505050565b600083158061153957508183145b15611546575060006111d6565b81831061156e5760405162461bcd60e51b815260040161156590611b86565b60405180910390fd5b611576611984565b6115808685611707565b905061158a611984565b6115948785611707565b9050610a7581600001518260200151846000015185602001518a61181e565b6000838152600f6020526040902054600c54808214156115d4575050611049565b6115dc611984565b506000858152600e602090815260408083208584528252918290208251808401909352805483526001015490820152611613611984565b61161c82611892565b156116555761163582600001518360200151888861189b565b6020830181905281835261164991906118eb565b60208301528152611660565b602081018590528581525b6000878152600e6020908152604080832086845282528083208451815593820151600190940193909355978152600f9097529095205550505050565b6000826116ab5750600061060a565b828202828482816116b857fe5b04146106075761060761068f60018686611369565b6000816116e3576116e361068f60038585611369565b60008284816116ee57fe5b04949350505050565b60006111d683611448868561169c565b61170f611984565b506000828152600e60209081526040808320848452825291829020825180840190935280548352600101549082015261174781611892565b156117515761060a565b600061175e836001611091565b6000858152600e6020908152604080832084845282529182902082518084019093528054835260010154908201529250905061179982611892565b156117a4575061060a565b6000848152600f602052604090205483811015611800576000858152600e60209081526040808320848452825291829020825180840190935280548352600101549082015292506117f483611892565b1561180057505061060a565b50506040805180820190915260008152600160208201529392505050565b60008161182d57506000611889565b836118475761184085611448848961169c565b9050611889565b6000611866611856868861169c565b611860898761169c565b90611091565b9050600061187482866116cd565b905061188487611448868461169c565b925050505b95945050505050565b60200151151590565b600080856118ad5750829050816118e2565b836118bc5750849050836118e2565b6118d36118c9858761169c565b611442888661169c565b91506118df858461169c565b90505b94509492505050565b6000806118fd84846001607f1b611908565b915091509250929050565b6000808285118061191857508284115b1561195b5760008486101561192d578461192f565b855b905061193b81856116cd565b905061194786826116cd565b925061195385826116cd565b915050611089565b50929391925050565b604080516060810182526000808252602082018190529181019190915290565b604051806040016040528060008152602001600081525090565b80356001600160a01b038116811461051357600080fd5b80356002811061051357600080fd5b6000602082840312156119d5578081fd5b6106078261199e565b600080604083850312156119f0578081fd5b6119f98361199e565b946020939093013593505050565b60008060408385031215611a19578182fd5b611a228361199e565b9150611a30602084016119b5565b90509250929050565b600080604083850312156119f0578182fd5b600060208284031215611a5c578081fd5b81518015158114610607578182fd5b600060208284031215611a7c578081fd5b5035919050565b60008060408385031215611a95578182fd5b82359150611a306020840161199e565b60008060408385031215611ab7578182fd5b50508035926020909101359150565b600060208284031215611ad7578081fd5b610607826119b5565b600060208284031215611af1578081fd5b5051919050565b6001600160a01b0391909116815260200190565b6001600160a01b03929092168252602082015260400190565b6020808252825182820181905260009190848201906040850190845b81811015611b665783516001600160a01b031683529284019291840191600101611b41565b50909695505050505050565b901515815260200190565b90815260200190565b60208082526013908201527210d497d25395115495905317d2539590531251606a1b604082015260600190565b815167ffffffffffffffff1681526020808301516001600160601b0390811691830191909152604092830151169181019190915260600190565b9283526020830191909152604082015260600190565b948552602085019390935260408401919091526060830152608082015260a00190565b63ffffffff9190911681526020019056fea264697066735822122047205d0ff09a574923a4eb83e0f89b55ccd0307af9a950a3b9d8d0c35d41110064736f6c63430007050033",
			"opcodes": "PUSH1 0x80 PUSH1 0x40 MSTORE CALLVALUE DUP1 ISZERO PUSH2 0x10 JUMPI PUSH1 0x0 DUP1 REVERT JUMPDEST POP PUSH1 0x0 DUP1 SLOAD PUSH1 0x1 PUSH1 0x1 PUSH1 0xA0 SHL SUB NOT AND CALLER OR SWAP1 SSTORE PUSH2 0x1C6D DUP1 PUSH2 0x32 PUSH1 0x0 CODECOPY PUSH1 0x0 RETURN INVALID PUSH1 0x80 PUSH1 0x40 MSTORE CALLVALUE DUP1 ISZERO PUSH2 0x10 JUMPI PUSH1 0x0 DUP1 REVERT JUMPDEST POP PUSH1 0x4 CALLDATASIZE LT PUSH2 0x21C JUMPI PUSH1 0x0 CALLDATALOAD PUSH1 0xE0 SHR DUP1 PUSH4 0xA657E579 GT PUSH2 0x125 JUMPI DUP1 PUSH4 0xE0822DB7 GT PUSH2 0xAD JUMPI DUP1 PUSH4 0xE907F003 GT PUSH2 0x7C JUMPI DUP1 PUSH4 0xE907F003 EQ PUSH2 0x442 JUMPI DUP1 PUSH4 0xEE99205C EQ PUSH2 0x455 JUMPI DUP1 PUSH4 0xEF4BA680 EQ PUSH2 0x45D JUMPI DUP1 PUSH4 0xF252B7A1 EQ PUSH2 0x465 JUMPI DUP1 PUSH4 0xF2FDE38B EQ PUSH2 0x478 JUMPI PUSH2 0x21C JUMP JUMPDEST DUP1 PUSH4 0xE0822DB7 EQ PUSH2 0x417 JUMPI DUP1 PUSH4 0xE0EE036E EQ PUSH2 0x41F JUMPI DUP1 PUSH4 0xE804D0A4 EQ PUSH2 0x427 JUMPI DUP1 PUSH4 0xE8EEB3F8 EQ PUSH2 0x43A JUMPI PUSH2 0x21C JUMP JUMPDEST DUP1 PUSH4 0xB652B41F GT PUSH2 0xF4 JUMPI DUP1 PUSH4 0xB652B41F EQ PUSH2 0x3C1 JUMPI DUP1 PUSH4 0xB9181611 EQ PUSH2 0x3C9 JUMPI DUP1 PUSH4 0xBB7EF7E0 EQ PUSH2 0x3DC JUMPI DUP1 PUSH4 0xC18C9141 EQ PUSH2 0x3EF JUMPI DUP1 PUSH4 0xD39DE6E9 EQ PUSH2 0x402 JUMPI PUSH2 0x21C JUMP JUMPDEST DUP1 PUSH4 0xA657E579 EQ PUSH2 0x396 JUMPI DUP1 PUSH4 0xB0531524 EQ PUSH2 0x39E JUMPI DUP1 PUSH4 0xB2BAA33E EQ PUSH2 0x3A6 JUMPI DUP1 PUSH4 0xB510879F EQ PUSH2 0x3AE JUMPI PUSH2 0x21C JUMP JUMPDEST DUP1 PUSH4 0x587DA023 GT PUSH2 0x1A8 JUMPI DUP1 PUSH4 0x7FA140C7 GT PUSH2 0x177 JUMPI DUP1 PUSH4 0x7FA140C7 EQ PUSH2 0x34B JUMPI DUP1 PUSH4 0x81666796 EQ PUSH2 0x35E JUMPI DUP1 PUSH4 0x8DA5CB5B EQ PUSH2 0x373 JUMPI DUP1 PUSH4 0x9AD26744 EQ PUSH2 0x37B JUMPI DUP1 PUSH4 0xA26171E2 EQ PUSH2 0x38E JUMPI PUSH2 0x21C JUMP JUMPDEST DUP1 PUSH4 0x587DA023 EQ PUSH2 0x320 JUMPI DUP1 PUSH4 0x63403801 EQ PUSH2 0x328 JUMPI DUP1 PUSH4 0x70712939 EQ PUSH2 0x330 JUMPI DUP1 PUSH4 0x76671808 EQ PUSH2 0x343 JUMPI PUSH2 0x21C JUMP JUMPDEST DUP1 PUSH4 0x3E4AD732 GT PUSH2 0x1EF JUMPI DUP1 PUSH4 0x3E4AD732 EQ PUSH2 0x2A5 JUMPI DUP1 PUSH4 0x42F1181E EQ PUSH2 0x2C5 JUMPI DUP1 PUSH4 0x44A6958B EQ PUSH2 0x2DA JUMPI DUP1 PUSH4 0x494503D4 EQ PUSH2 0x2ED JUMPI DUP1 PUSH4 0x540C2D53 EQ PUSH2 0x300 JUMPI PUSH2 0x21C JUMP JUMPDEST DUP1 PUSH4 0x1E7FF8F6 EQ PUSH2 0x221 JUMPI DUP1 PUSH4 0x2A94C279 EQ PUSH2 0x24A JUMPI DUP1 PUSH4 0x38229D93 EQ PUSH2 0x26C JUMPI DUP1 PUSH4 0x3C277FC5 EQ PUSH2 0x290 JUMPI JUMPDEST PUSH1 0x0 DUP1 REVERT JUMPDEST PUSH2 0x234 PUSH2 0x22F CALLDATASIZE PUSH1 0x4 PUSH2 0x19C4 JUMP JUMPDEST PUSH2 0x48B JUMP JUMPDEST PUSH1 0x40 MLOAD PUSH2 0x241 SWAP2 SWAP1 PUSH2 0x1B7D JUMP JUMPDEST PUSH1 0x40 MLOAD DUP1 SWAP2 SUB SWAP1 RETURN JUMPDEST PUSH2 0x25D PUSH2 0x258 CALLDATASIZE PUSH1 0x4 PUSH2 0x1AA5 JUMP JUMPDEST PUSH2 0x518 JUMP JUMPDEST PUSH1 0x40 MLOAD PUSH2 0x241 SWAP4 SWAP3 SWAP2 SWAP1 PUSH2 0x1BED JUMP JUMPDEST PUSH2 0x27F PUSH2 0x27A CALLDATASIZE PUSH1 0x4 PUSH2 0x1A6B JUMP JUMPDEST PUSH2 0x544 JUMP JUMPDEST PUSH1 0x40 MLOAD PUSH2 0x241 SWAP6 SWAP5 SWAP4 SWAP3 SWAP2 SWAP1 PUSH2 0x1C03 JUMP JUMPDEST PUSH2 0x298 PUSH2 0x573 JUMP JUMPDEST PUSH1 0x40 MLOAD PUSH2 0x241 SWAP2 SWAP1 PUSH2 0x1AF8 JUMP JUMPDEST PUSH2 0x2B8 PUSH2 0x2B3 CALLDATASIZE PUSH1 0x4 PUSH2 0x1A6B JUMP JUMPDEST PUSH2 0x58B JUMP JUMPDEST PUSH1 0x40 MLOAD PUSH2 0x241 SWAP2 SWAP1 PUSH2 0x1BB3 JUMP JUMPDEST PUSH2 0x2D8 PUSH2 0x2D3 CALLDATASIZE PUSH1 0x4 PUSH2 0x19C4 JUMP JUMPDEST PUSH2 0x5AA JUMP JUMPDEST STOP JUMPDEST PUSH2 0x2B8 PUSH2 0x2E8 CALLDATASIZE PUSH1 0x4 PUSH2 0x1A07 JUMP JUMPDEST PUSH2 0x5BE JUMP JUMPDEST PUSH2 0x298 PUSH2 0x2FB CALLDATASIZE PUSH1 0x4 PUSH2 0x1A6B JUMP JUMPDEST PUSH2 0x610 JUMP JUMPDEST PUSH2 0x313 PUSH2 0x30E CALLDATASIZE PUSH1 0x4 PUSH2 0x19C4 JUMP JUMPDEST PUSH2 0x63A JUMP JUMPDEST PUSH1 0x40 MLOAD PUSH2 0x241 SWAP2 SWAP1 PUSH2 0x1B72 JUMP JUMPDEST PUSH2 0x234 PUSH2 0x64F JUMP JUMPDEST PUSH2 0x234 PUSH2 0x655 JUMP JUMPDEST PUSH2 0x2D8 PUSH2 0x33E CALLDATASIZE PUSH1 0x4 PUSH2 0x19C4 JUMP JUMPDEST PUSH2 0x65B JUMP JUMPDEST PUSH2 0x234 PUSH2 0x6EE JUMP JUMPDEST PUSH2 0x234 PUSH2 0x359 CALLDATASIZE PUSH1 0x4 PUSH2 0x19C4 JUMP JUMPDEST PUSH2 0x6F4 JUMP JUMPDEST PUSH2 0x366 PUSH2 0x706 JUMP JUMPDEST PUSH1 0x40 MLOAD PUSH2 0x241 SWAP2 SWAP1 PUSH2 0x1C26 JUMP JUMPDEST PUSH2 0x298 PUSH2 0x712 JUMP JUMPDEST PUSH2 0x2D8 PUSH2 0x389 CALLDATASIZE PUSH1 0x4 PUSH2 0x1A39 JUMP JUMPDEST PUSH2 0x721 JUMP JUMPDEST PUSH2 0x234 PUSH2 0x733 JUMP JUMPDEST PUSH2 0x234 PUSH2 0x739 JUMP JUMPDEST PUSH2 0x234 PUSH2 0x73F JUMP JUMPDEST PUSH2 0x234 PUSH2 0x745 JUMP JUMPDEST PUSH2 0x2D8 PUSH2 0x3BC CALLDATASIZE PUSH1 0x4 PUSH2 0x1A6B JUMP JUMPDEST PUSH2 0x763 JUMP JUMPDEST PUSH2 0x298 PUSH2 0x76D JUMP JUMPDEST PUSH2 0x313 PUSH2 0x3D7 CALLDATASIZE PUSH1 0x4 PUSH2 0x19C4 JUMP JUMPDEST PUSH2 0x785 JUMP JUMPDEST PUSH2 0x234 PUSH2 0x3EA CALLDATASIZE PUSH1 0x4 PUSH2 0x1A6B JUMP JUMPDEST PUSH2 0x79A JUMP JUMPDEST PUSH2 0x234 PUSH2 0x3FD CALLDATASIZE PUSH1 0x4 PUSH2 0x1A6B JUMP JUMPDEST PUSH2 0x817 JUMP JUMPDEST PUSH2 0x40A PUSH2 0x829 JUMP JUMPDEST PUSH1 0x40 MLOAD PUSH2 0x241 SWAP2 SWAP1 PUSH2 0x1B25 JUMP JUMPDEST PUSH2 0x298 PUSH2 0x88B JUMP JUMPDEST PUSH2 0x366 PUSH2 0x8A3 JUMP JUMPDEST PUSH2 0x2B8 PUSH2 0x435 CALLDATASIZE PUSH1 0x4 PUSH2 0x1AC6 JUMP JUMPDEST PUSH2 0x8AF JUMP JUMPDEST PUSH2 0x366 PUSH2 0x9DD JUMP JUMPDEST PUSH2 0x234 PUSH2 0x450 CALLDATASIZE PUSH1 0x4 PUSH2 0x1A83 JUMP JUMPDEST PUSH2 0x9F1 JUMP JUMPDEST PUSH2 0x298 PUSH2 0xA80 JUMP JUMPDEST PUSH2 0x298 PUSH2 0xA8F JUMP JUMPDEST PUSH2 0x2B8 PUSH2 0x473 CALLDATASIZE PUSH1 0x4 PUSH2 0x19DE JUMP JUMPDEST PUSH2 0xAA7 JUMP JUMPDEST PUSH2 0x2D8 PUSH2 0x486 CALLDATASIZE PUSH1 0x4 PUSH2 0x19C4 JUMP JUMPDEST PUSH2 0xADB JUMP JUMPDEST PUSH1 0x0 PUSH2 0x495 PUSH2 0x88B JUMP JUMPDEST PUSH1 0x1 PUSH1 0x1 PUSH1 0xA0 SHL SUB AND PUSH4 0x70A08231 DUP4 PUSH1 0x40 MLOAD DUP3 PUSH4 0xFFFFFFFF AND PUSH1 0xE0 SHL DUP2 MSTORE PUSH1 0x4 ADD PUSH2 0x4C0 SWAP2 SWAP1 PUSH2 0x1AF8 JUMP JUMPDEST PUSH1 0x20 PUSH1 0x40 MLOAD DUP1 DUP4 SUB DUP2 DUP7 DUP1 EXTCODESIZE ISZERO DUP1 ISZERO PUSH2 0x4D8 JUMPI PUSH1 0x0 DUP1 REVERT JUMPDEST POP GAS STATICCALL ISZERO DUP1 ISZERO PUSH2 0x4EC JUMPI RETURNDATASIZE PUSH1 0x0 DUP1 RETURNDATACOPY RETURNDATASIZE PUSH1 0x0 REVERT JUMPDEST POP POP POP POP PUSH1 0x40 MLOAD RETURNDATASIZE PUSH1 0x1F NOT PUSH1 0x1F DUP3 ADD AND DUP3 ADD DUP1 PUSH1 0x40 MSTORE POP DUP2 ADD SWAP1 PUSH2 0x510 SWAP2 SWAP1 PUSH2 0x1AE0 JUMP JUMPDEST SWAP1 POP JUMPDEST SWAP2 SWAP1 POP JUMP JUMPDEST PUSH1 0x15 PUSH1 0x20 SWAP1 DUP2 MSTORE PUSH1 0x0 SWAP3 DUP4 MSTORE PUSH1 0x40 DUP1 DUP5 KECCAK256 SWAP1 SWAP2 MSTORE SWAP1 DUP3 MSTORE SWAP1 KECCAK256 DUP1 SLOAD PUSH1 0x1 DUP3 ADD SLOAD PUSH1 0x2 SWAP1 SWAP3 ADD SLOAD SWAP1 SWAP2 SWAP1 DUP4 JUMP JUMPDEST PUSH1 0x16 PUSH1 0x20 MSTORE PUSH1 0x0 SWAP1 DUP2 MSTORE PUSH1 0x40 SWAP1 KECCAK256 DUP1 SLOAD PUSH1 0x1 DUP3 ADD SLOAD PUSH1 0x2 DUP4 ADD SLOAD PUSH1 0x3 DUP5 ADD SLOAD PUSH1 0x4 SWAP1 SWAP5 ADD SLOAD SWAP3 SWAP4 SWAP2 SWAP3 SWAP1 SWAP2 SWAP1 DUP6 JUMP JUMPDEST PUSH20 0xC02AAA39B223FE8D0A0E5C4F27EAD9083C756CC2 SWAP1 JUMP JUMPDEST PUSH2 0x593 PUSH2 0x1964 JUMP JUMPDEST PUSH1 0x0 DUP3 DUP2 MSTORE PUSH1 0x7 PUSH1 0x20 MSTORE PUSH1 0x40 SWAP1 KECCAK256 PUSH2 0x510 SWAP1 PUSH2 0xB4C JUMP JUMPDEST PUSH2 0x5B2 PUSH2 0xBD2 JUMP JUMPDEST PUSH2 0x5BB DUP2 PUSH2 0xC01 JUMP JUMPDEST POP JUMP JUMPDEST PUSH2 0x5C6 PUSH2 0x1964 JUMP JUMPDEST PUSH2 0x607 PUSH1 0x5 PUSH1 0x0 DUP5 PUSH1 0x1 DUP2 GT ISZERO PUSH2 0x5D9 JUMPI INVALID JUMPDEST PUSH1 0xFF AND DUP2 MSTORE PUSH1 0x20 DUP1 DUP3 ADD SWAP3 SWAP1 SWAP3 MSTORE PUSH1 0x40 SWAP1 DUP2 ADD PUSH1 0x0 SWAP1 DUP2 KECCAK256 PUSH1 0x1 PUSH1 0x1 PUSH1 0xA0 SHL SUB DUP9 AND DUP3 MSTORE SWAP1 SWAP3 MSTORE SWAP1 KECCAK256 PUSH2 0xB4C JUMP JUMPDEST SWAP1 POP JUMPDEST SWAP3 SWAP2 POP POP JUMP JUMPDEST PUSH1 0x2 DUP2 DUP2 SLOAD DUP2 LT PUSH2 0x620 JUMPI PUSH1 0x0 DUP1 REVERT JUMPDEST PUSH1 0x0 SWAP2 DUP3 MSTORE PUSH1 0x20 SWAP1 SWAP2 KECCAK256 ADD SLOAD PUSH1 0x1 PUSH1 0x1 PUSH1 0xA0 SHL SUB AND SWAP1 POP DUP2 JUMP JUMPDEST PUSH1 0x10 PUSH1 0x20 MSTORE PUSH1 0x0 SWAP1 DUP2 MSTORE PUSH1 0x40 SWAP1 KECCAK256 SLOAD PUSH1 0xFF AND DUP2 JUMP JUMPDEST PUSH1 0xD SLOAD DUP2 JUMP JUMPDEST PUSH1 0x11 SLOAD DUP2 JUMP JUMPDEST PUSH2 0x663 PUSH2 0xBD2 JUMP JUMPDEST PUSH1 0x1 PUSH1 0x1 PUSH1 0xA0 SHL SUB DUP2 AND PUSH1 0x0 SWAP1 DUP2 MSTORE PUSH1 0x1 PUSH1 0x20 MSTORE PUSH1 0x40 SWAP1 KECCAK256 SLOAD PUSH1 0xFF AND PUSH2 0x694 JUMPI PUSH2 0x694 PUSH2 0x68F DUP3 PUSH2 0xCD5 JUMP JUMPDEST PUSH2 0xD1D JUMP JUMPDEST PUSH1 0x0 JUMPDEST PUSH1 0x2 SLOAD DUP2 LT ISZERO PUSH2 0x6EA JUMPI DUP2 PUSH1 0x1 PUSH1 0x1 PUSH1 0xA0 SHL SUB AND PUSH1 0x2 DUP3 DUP2 SLOAD DUP2 LT PUSH2 0x6B8 JUMPI INVALID JUMPDEST PUSH1 0x0 SWAP2 DUP3 MSTORE PUSH1 0x20 SWAP1 SWAP2 KECCAK256 ADD SLOAD PUSH1 0x1 PUSH1 0x1 PUSH1 0xA0 SHL SUB AND EQ ISZERO PUSH2 0x6E2 JUMPI PUSH2 0x6DD DUP3 DUP3 PUSH2 0xD25 JUMP JUMPDEST PUSH2 0x6EA JUMP JUMPDEST PUSH1 0x1 ADD PUSH2 0x697 JUMP JUMPDEST POP POP JUMP JUMPDEST PUSH1 0xC SLOAD DUP2 JUMP JUMPDEST PUSH1 0x9 PUSH1 0x20 MSTORE PUSH1 0x0 SWAP1 DUP2 MSTORE PUSH1 0x40 SWAP1 KECCAK256 SLOAD DUP2 JUMP JUMPDEST PUSH1 0x14 SLOAD PUSH4 0xFFFFFFFF AND DUP2 JUMP JUMPDEST PUSH1 0x0 SLOAD PUSH1 0x1 PUSH1 0x1 PUSH1 0xA0 SHL SUB AND DUP2 JUMP JUMPDEST PUSH2 0x729 PUSH2 0xBD2 JUMP JUMPDEST PUSH2 0x6EA DUP3 DUP3 PUSH2 0xD25 JUMP JUMPDEST PUSH1 0x13 SLOAD DUP2 JUMP JUMPDEST PUSH1 0x8 SLOAD DUP2 JUMP JUMPDEST PUSH1 0x17 SLOAD DUP2 JUMP JUMPDEST PUSH1 0x0 PUSH2 0x75E PUSH1 0x11 SLOAD PUSH1 0xD SLOAD PUSH2 0xEB9 SWAP1 SWAP2 SWAP1 PUSH4 0xFFFFFFFF AND JUMP JUMPDEST SWAP1 POP SWAP1 JUMP JUMPDEST PUSH2 0x5BB DUP2 CALLER PUSH2 0xED5 JUMP JUMPDEST PUSH20 0xDE6445484A8DCD9BF35FC95EB4E3990CC358822E SWAP1 JUMP JUMPDEST PUSH1 0x1 PUSH1 0x20 MSTORE PUSH1 0x0 SWAP1 DUP2 MSTORE PUSH1 0x40 SWAP1 KECCAK256 SLOAD PUSH1 0xFF AND DUP2 JUMP JUMPDEST PUSH1 0x0 PUSH2 0x7A4 PUSH2 0x1964 JUMP JUMPDEST POP PUSH1 0x0 DUP3 DUP2 MSTORE PUSH1 0xA PUSH1 0x20 SWAP1 DUP2 MSTORE PUSH1 0x40 DUP1 DUP4 KECCAK256 DUP2 MLOAD PUSH1 0x60 DUP2 ADD DUP4 MSTORE DUP2 SLOAD PUSH1 0x1 PUSH1 0x1 PUSH1 0xA0 SHL SUB DUP1 DUP3 AND DUP4 MSTORE PUSH1 0x1 PUSH1 0xA0 SHL SWAP1 SWAP2 DIV PUSH4 0xFFFFFFFF AND SWAP5 DUP3 ADD SWAP5 SWAP1 SWAP5 MSTORE PUSH1 0x1 SWAP1 SWAP2 ADD SLOAD SWAP1 SWAP3 AND SWAP1 DUP3 ADD MSTORE SWAP1 DUP1 PUSH2 0x7FA DUP6 PUSH2 0x104E JUMP JUMPDEST SWAP2 POP SWAP2 POP PUSH2 0x80D DUP4 PUSH1 0x20 ADD MLOAD DUP4 DUP4 PUSH2 0x1056 JUMP JUMPDEST POP SWAP6 SWAP5 POP POP POP POP POP JUMP JUMPDEST PUSH1 0xB PUSH1 0x20 MSTORE PUSH1 0x0 SWAP1 DUP2 MSTORE PUSH1 0x40 SWAP1 KECCAK256 SLOAD DUP2 JUMP JUMPDEST PUSH1 0x60 PUSH1 0x2 DUP1 SLOAD DUP1 PUSH1 0x20 MUL PUSH1 0x20 ADD PUSH1 0x40 MLOAD SWAP1 DUP2 ADD PUSH1 0x40 MSTORE DUP1 SWAP3 SWAP2 SWAP1 DUP2 DUP2 MSTORE PUSH1 0x20 ADD DUP3 DUP1 SLOAD DUP1 ISZERO PUSH2 0x881 JUMPI PUSH1 0x20 MUL DUP3 ADD SWAP2 SWAP1 PUSH1 0x0 MSTORE PUSH1 0x20 PUSH1 0x0 KECCAK256 SWAP1 JUMPDEST DUP2 SLOAD PUSH1 0x1 PUSH1 0x1 PUSH1 0xA0 SHL SUB AND DUP2 MSTORE PUSH1 0x1 SWAP1 SWAP2 ADD SWAP1 PUSH1 0x20 ADD DUP1 DUP4 GT PUSH2 0x863 JUMPI JUMPDEST POP POP POP POP POP SWAP1 POP SWAP1 JUMP JUMPDEST PUSH20 0xBA7F8B5FB1B19C1211C5D49550FCD149177A5EAF SWAP1 JUMP JUMPDEST PUSH1 0x12 SLOAD PUSH4 0xFFFFFFFF AND DUP2 JUMP JUMPDEST PUSH2 0x8B7 PUSH2 0x1964 JUMP JUMPDEST PUSH1 0x1 PUSH1 0x0 MSTORE PUSH1 0x4 PUSH1 0x20 MSTORE PUSH2 0x8EA PUSH32 0xABD6E7CB50984FF9C2F3E18A2660C3353DADF4E3291DEEB275DAE2CD1E44FE05 PUSH2 0xB4C JUMP JUMPDEST SWAP1 POP PUSH1 0x0 DUP3 PUSH1 0x1 DUP2 GT ISZERO PUSH2 0x8FA JUMPI INVALID JUMPDEST EQ ISZERO PUSH2 0x513 JUMPI PUSH1 0x0 PUSH2 0x90A PUSH2 0x88B JUMP JUMPDEST PUSH1 0x1 PUSH1 0x1 PUSH1 0xA0 SHL SUB AND PUSH4 0x6B6DF5AA PUSH1 0x40 MLOAD DUP2 PUSH4 0xFFFFFFFF AND PUSH1 0xE0 SHL DUP2 MSTORE PUSH1 0x4 ADD PUSH1 0x20 PUSH1 0x40 MLOAD DUP1 DUP4 SUB DUP2 DUP7 DUP1 EXTCODESIZE ISZERO DUP1 ISZERO PUSH2 0x942 JUMPI PUSH1 0x0 DUP1 REVERT JUMPDEST POP GAS STATICCALL ISZERO DUP1 ISZERO PUSH2 0x956 JUMPI RETURNDATASIZE PUSH1 0x0 DUP1 RETURNDATACOPY RETURNDATASIZE PUSH1 0x0 REVERT JUMPDEST POP POP POP POP PUSH1 0x40 MLOAD RETURNDATASIZE PUSH1 0x1F NOT PUSH1 0x1F DUP3 ADD AND DUP3 ADD DUP1 PUSH1 0x40 MSTORE POP DUP2 ADD SWAP1 PUSH2 0x97A SWAP2 SWAP1 PUSH2 0x1AE0 JUMP JUMPDEST SWAP1 POP PUSH2 0x9A4 PUSH2 0x99F DUP4 PUSH1 0x20 ADD MLOAD PUSH1 0x1 PUSH1 0x1 PUSH1 0x60 SHL SUB AND DUP4 PUSH2 0x1091 SWAP1 SWAP2 SWAP1 PUSH4 0xFFFFFFFF AND JUMP JUMPDEST PUSH2 0x10B0 JUMP JUMPDEST PUSH1 0x1 PUSH1 0x1 PUSH1 0x60 SHL SUB SWAP1 DUP2 AND PUSH1 0x20 DUP5 ADD MSTORE PUSH1 0x40 DUP4 ADD MLOAD PUSH2 0x9C9 SWAP2 PUSH2 0x99F SWAP2 DUP5 SWAP2 AND PUSH2 0x1091 JUMP JUMPDEST PUSH1 0x1 PUSH1 0x1 PUSH1 0x60 SHL SUB AND PUSH1 0x40 DUP4 ADD MSTORE POP SWAP2 SWAP1 POP JUMP JUMPDEST PUSH1 0x14 SLOAD PUSH5 0x100000000 SWAP1 DIV PUSH4 0xFFFFFFFF AND DUP2 JUMP JUMPDEST PUSH1 0x0 PUSH2 0x9FB PUSH2 0x1964 JUMP JUMPDEST POP PUSH1 0x0 DUP4 DUP2 MSTORE PUSH1 0xA PUSH1 0x20 SWAP1 DUP2 MSTORE PUSH1 0x40 DUP1 DUP4 KECCAK256 DUP2 MLOAD PUSH1 0x60 DUP2 ADD DUP4 MSTORE DUP2 SLOAD PUSH1 0x1 PUSH1 0x1 PUSH1 0xA0 SHL SUB DUP1 DUP3 AND DUP4 MSTORE PUSH1 0x1 PUSH1 0xA0 SHL SWAP1 SWAP2 DIV PUSH4 0xFFFFFFFF AND SWAP5 DUP3 ADD SWAP5 SWAP1 SWAP5 MSTORE PUSH1 0x1 SWAP1 SWAP2 ADD SLOAD SWAP1 SWAP3 AND SWAP1 DUP3 ADD MSTORE SWAP1 DUP1 PUSH2 0xA51 DUP7 PUSH2 0x104E JUMP JUMPDEST SWAP2 POP SWAP2 POP PUSH1 0x0 PUSH2 0xA66 DUP5 PUSH1 0x20 ADD MLOAD DUP5 DUP5 PUSH2 0x1056 JUMP JUMPDEST SWAP2 POP POP PUSH2 0xA75 DUP8 DUP8 DUP4 DUP6 PUSH2 0x10CF JUMP JUMPDEST SWAP8 SWAP7 POP POP POP POP POP POP POP JUMP JUMPDEST PUSH1 0x3 SLOAD PUSH1 0x1 PUSH1 0x1 PUSH1 0xA0 SHL SUB AND DUP2 JUMP JUMPDEST PUSH20 0x4FBB350052BCA5417566F188EB2EBCE5B19BC964 SWAP1 JUMP JUMPDEST PUSH2 0xAAF PUSH2 0x1964 JUMP JUMPDEST PUSH1 0x1 PUSH1 0x1 PUSH1 0xA0 SHL SUB DUP4 AND PUSH1 0x0 SWAP1 DUP2 MSTORE PUSH1 0x6 PUSH1 0x20 SWAP1 DUP2 MSTORE PUSH1 0x40 DUP1 DUP4 KECCAK256 DUP6 DUP5 MSTORE SWAP1 SWAP2 MSTORE SWAP1 KECCAK256 PUSH2 0x607 SWAP1 PUSH2 0xB4C JUMP JUMPDEST PUSH2 0xAE3 PUSH2 0xBD2 JUMP JUMPDEST PUSH1 0x1 PUSH1 0x1 PUSH1 0xA0 SHL SUB DUP2 AND PUSH2 0xB01 JUMPI PUSH2 0xAFC PUSH2 0x68F PUSH2 0x11DE JUMP JUMPDEST PUSH2 0x5BB JUMP JUMPDEST PUSH1 0x0 DUP1 SLOAD PUSH1 0x1 PUSH1 0x1 PUSH1 0xA0 SHL SUB NOT AND PUSH1 0x1 PUSH1 0x1 PUSH1 0xA0 SHL SUB DUP4 AND SWAP1 DUP2 OR DUP3 SSTORE PUSH1 0x40 MLOAD SWAP1 SWAP2 CALLER SWAP2 PUSH32 0x8BE0079C531659141344CD1FD0A4F28419497F9722A3DAAFE3B4186F6B6457E0 SWAP2 SWAP1 LOG3 POP JUMP JUMPDEST PUSH2 0xB54 PUSH2 0x1964 JUMP JUMPDEST POP PUSH1 0x40 DUP1 MLOAD PUSH1 0x60 DUP2 ADD DUP3 MSTORE DUP3 SLOAD PUSH8 0xFFFFFFFFFFFFFFFF DUP2 AND DUP1 DUP4 MSTORE PUSH1 0x1 PUSH1 0x1 PUSH1 0x60 SHL SUB PUSH1 0x1 PUSH1 0x40 SHL DUP4 DIV DUP2 AND PUSH1 0x20 DUP6 ADD MSTORE PUSH1 0x1 PUSH1 0xA0 SHL SWAP1 SWAP3 DIV SWAP1 SWAP2 AND SWAP3 DUP3 ADD SWAP3 SWAP1 SWAP3 MSTORE PUSH1 0xC SLOAD SWAP1 SWAP2 DUP2 GT ISZERO PUSH2 0xBCC JUMPI PUSH2 0xBAC DUP2 PUSH2 0x11FC JUMP JUMPDEST PUSH8 0xFFFFFFFFFFFFFFFF AND DUP3 MSTORE PUSH1 0x40 DUP3 ADD MLOAD PUSH1 0x1 PUSH1 0x1 PUSH1 0x60 SHL SUB AND PUSH1 0x20 DUP4 ADD MSTORE JUMPDEST POP SWAP2 SWAP1 POP JUMP JUMPDEST PUSH1 0x0 SLOAD PUSH1 0x1 PUSH1 0x1 PUSH1 0xA0 SHL SUB AND CALLER EQ PUSH2 0xBFF JUMPI PUSH1 0x0 SLOAD PUSH2 0xBFF SWAP1 PUSH2 0x68F SWAP1 CALLER SWAP1 PUSH1 0x1 PUSH1 0x1 PUSH1 0xA0 SHL SUB AND PUSH2 0x121C JUMP JUMPDEST JUMP JUMPDEST PUSH1 0x1 PUSH1 0x1 PUSH1 0xA0 SHL SUB DUP2 AND PUSH2 0xC1A JUMPI PUSH2 0xC1A PUSH2 0x68F PUSH2 0x126D JUMP JUMPDEST PUSH1 0x1 PUSH1 0x1 PUSH1 0xA0 SHL SUB DUP2 AND PUSH1 0x0 SWAP1 DUP2 MSTORE PUSH1 0x1 PUSH1 0x20 MSTORE PUSH1 0x40 SWAP1 KECCAK256 SLOAD PUSH1 0xFF AND ISZERO PUSH2 0xC47 JUMPI PUSH2 0xC47 PUSH2 0x68F DUP3 PUSH2 0x128B JUMP JUMPDEST PUSH1 0x1 PUSH1 0x1 PUSH1 0xA0 SHL SUB DUP2 AND PUSH1 0x0 DUP2 DUP2 MSTORE PUSH1 0x1 PUSH1 0x20 DUP2 SWAP1 MSTORE PUSH1 0x40 DUP1 DUP4 KECCAK256 DUP1 SLOAD PUSH1 0xFF NOT AND DUP4 OR SWAP1 SSTORE PUSH1 0x2 DUP1 SLOAD SWAP3 DUP4 ADD DUP2 SSTORE DUP4 MSTORE PUSH32 0x405787FA12A823E0F2B7631CC41B3BA8828B3321CA811111FA75CD3AA3BB5ACE SWAP1 SWAP2 ADD DUP1 SLOAD PUSH1 0x1 PUSH1 0x1 PUSH1 0xA0 SHL SUB NOT AND DUP5 OR SWAP1 SSTORE MLOAD CALLER SWAP3 SWAP2 PUSH32 0x3147867C59D17E8FA9D522465651D44AAE0A9E38F902F3475B97E58072F0ED4C SWAP2 LOG3 POP JUMP JUMPDEST PUSH1 0x40 DUP1 MLOAD PUSH1 0x1 PUSH1 0x1 PUSH1 0xA0 SHL SUB DUP4 AND PUSH1 0x24 DUP1 DUP4 ADD SWAP2 SWAP1 SWAP2 MSTORE DUP3 MLOAD DUP1 DUP4 SUB SWAP1 SWAP2 ADD DUP2 MSTORE PUSH1 0x44 SWAP1 SWAP2 ADD SWAP1 SWAP2 MSTORE PUSH1 0x20 DUP2 ADD DUP1 MLOAD PUSH1 0x1 PUSH1 0x1 PUSH1 0xE0 SHL SUB AND PUSH4 0x75A88451 PUSH1 0xE1 SHL OR SWAP1 MSTORE SWAP2 SWAP1 POP JUMP JUMPDEST DUP1 MLOAD PUSH1 0x20 DUP3 ADD REVERT JUMPDEST PUSH1 0x1 PUSH1 0x1 PUSH1 0xA0 SHL SUB DUP3 AND PUSH1 0x0 SWAP1 DUP2 MSTORE PUSH1 0x1 PUSH1 0x20 MSTORE PUSH1 0x40 SWAP1 KECCAK256 SLOAD PUSH1 0xFF AND PUSH2 0xD51 JUMPI PUSH2 0xD51 PUSH2 0x68F DUP4 PUSH2 0xCD5 JUMP JUMPDEST PUSH1 0x2 SLOAD DUP2 LT PUSH2 0xD6C JUMPI PUSH2 0xD6C PUSH2 0x68F DUP3 PUSH1 0x2 DUP1 SLOAD SWAP1 POP PUSH2 0x12D3 JUMP JUMPDEST DUP2 PUSH1 0x1 PUSH1 0x1 PUSH1 0xA0 SHL SUB AND PUSH1 0x2 DUP3 DUP2 SLOAD DUP2 LT PUSH2 0xD83 JUMPI INVALID JUMPDEST PUSH1 0x0 SWAP2 DUP3 MSTORE PUSH1 0x20 SWAP1 SWAP2 KECCAK256 ADD SLOAD PUSH1 0x1 PUSH1 0x1 PUSH1 0xA0 SHL SUB AND EQ PUSH2 0xDCB JUMPI PUSH2 0xDCB PUSH2 0x68F PUSH1 0x2 DUP4 DUP2 SLOAD DUP2 LT PUSH2 0xDB0 JUMPI INVALID JUMPDEST PUSH1 0x0 SWAP2 DUP3 MSTORE PUSH1 0x20 SWAP1 SWAP2 KECCAK256 ADD SLOAD PUSH1 0x1 PUSH1 0x1 PUSH1 0xA0 SHL SUB AND DUP5 PUSH2 0x1318 JUMP JUMPDEST PUSH1 0x1 PUSH1 0x1 PUSH1 0xA0 SHL SUB DUP3 AND PUSH1 0x0 SWAP1 DUP2 MSTORE PUSH1 0x1 PUSH1 0x20 MSTORE PUSH1 0x40 SWAP1 KECCAK256 DUP1 SLOAD PUSH1 0xFF NOT AND SWAP1 SSTORE PUSH1 0x2 DUP1 SLOAD PUSH1 0x0 NOT DUP2 ADD SWAP1 DUP2 LT PUSH2 0xDFD JUMPI INVALID JUMPDEST PUSH1 0x0 SWAP2 DUP3 MSTORE PUSH1 0x20 SWAP1 SWAP2 KECCAK256 ADD SLOAD PUSH1 0x2 DUP1 SLOAD PUSH1 0x1 PUSH1 0x1 PUSH1 0xA0 SHL SUB SWAP1 SWAP3 AND SWAP2 DUP4 SWAP1 DUP2 LT PUSH2 0xE23 JUMPI INVALID JUMPDEST SWAP1 PUSH1 0x0 MSTORE PUSH1 0x20 PUSH1 0x0 KECCAK256 ADD PUSH1 0x0 PUSH2 0x100 EXP DUP2 SLOAD DUP2 PUSH1 0x1 PUSH1 0x1 PUSH1 0xA0 SHL SUB MUL NOT AND SWAP1 DUP4 PUSH1 0x1 PUSH1 0x1 PUSH1 0xA0 SHL SUB AND MUL OR SWAP1 SSTORE POP PUSH1 0x2 DUP1 SLOAD DUP1 PUSH2 0xE5C JUMPI INVALID JUMPDEST PUSH1 0x0 DUP3 DUP2 MSTORE PUSH1 0x20 DUP2 KECCAK256 DUP3 ADD PUSH1 0x0 NOT SWAP1 DUP2 ADD DUP1 SLOAD PUSH1 0x1 PUSH1 0x1 PUSH1 0xA0 SHL SUB NOT AND SWAP1 SSTORE SWAP1 SWAP2 ADD SWAP1 SWAP2 SSTORE PUSH1 0x40 MLOAD CALLER SWAP2 PUSH1 0x1 PUSH1 0x1 PUSH1 0xA0 SHL SUB DUP6 AND SWAP2 PUSH32 0x1F32C1B084E2DE0713B8FB16BD46BB9DF710A3DBEAE2F3CA93AF46E016DCC6B0 SWAP2 SWAP1 LOG3 POP POP JUMP JUMPDEST PUSH1 0x0 DUP3 DUP3 ADD DUP4 DUP2 LT ISZERO PUSH2 0x607 JUMPI PUSH2 0x607 PUSH2 0x68F PUSH1 0x0 DUP7 DUP7 PUSH2 0x1369 JUMP JUMPDEST PUSH2 0xEDE DUP3 PUSH2 0x5BB JUMP JUMPDEST PUSH1 0x0 PUSH2 0xEED DUP4 DUP4 PUSH1 0x0 DUP1 PUSH2 0x10CF JUMP JUMPDEST PUSH1 0x1 PUSH1 0x1 PUSH1 0xA0 SHL SUB DUP4 AND PUSH1 0x0 SWAP1 DUP2 MSTORE PUSH1 0x6 PUSH1 0x20 SWAP1 DUP2 MSTORE PUSH1 0x40 DUP1 DUP4 KECCAK256 DUP8 DUP5 MSTORE SWAP1 SWAP2 MSTORE SWAP1 KECCAK256 SWAP1 SWAP2 POP PUSH2 0xF1C SWAP1 PUSH2 0xB4C JUMP JUMPDEST PUSH1 0x1 PUSH1 0x1 PUSH1 0xA0 SHL SUB DUP4 DUP2 AND PUSH1 0x0 SWAP1 DUP2 MSTORE PUSH1 0x6 PUSH1 0x20 SWAP1 DUP2 MSTORE PUSH1 0x40 DUP1 DUP4 KECCAK256 DUP9 DUP5 MSTORE DUP3 MSTORE SWAP2 DUP3 SWAP1 KECCAK256 DUP5 MLOAD DUP2 SLOAD SWAP3 DUP7 ADD MLOAD SWAP6 SWAP1 SWAP4 ADD MLOAD PUSH8 0xFFFFFFFFFFFFFFFF NOT SWAP1 SWAP3 AND PUSH8 0xFFFFFFFFFFFFFFFF SWAP1 SWAP4 AND SWAP3 SWAP1 SWAP3 OR PUSH20 0xFFFFFFFFFFFFFFFFFFFFFFFF0000000000000000 NOT AND PUSH1 0x1 PUSH1 0x40 SHL PUSH1 0x1 PUSH1 0x1 PUSH1 0x60 SHL SUB SWAP6 DUP7 AND MUL OR SWAP1 SWAP3 AND PUSH1 0x1 PUSH1 0xA0 SHL SWAP4 SWAP1 SWAP3 AND SWAP3 SWAP1 SWAP3 MUL OR SWAP1 SSTORE DUP1 ISZERO PUSH2 0x1040 JUMPI PUSH2 0xFB7 DUP4 DUP3 PUSH2 0x13DB JUMP JUMPDEST PUSH2 0xFBF PUSH2 0x573 JUMP JUMPDEST PUSH1 0x1 PUSH1 0x1 PUSH1 0xA0 SHL SUB AND PUSH4 0xA9059CBB DUP4 DUP4 PUSH1 0x40 MLOAD DUP4 PUSH4 0xFFFFFFFF AND PUSH1 0xE0 SHL DUP2 MSTORE PUSH1 0x4 ADD PUSH2 0xFEC SWAP3 SWAP2 SWAP1 PUSH2 0x1B0C JUMP JUMPDEST PUSH1 0x20 PUSH1 0x40 MLOAD DUP1 DUP4 SUB DUP2 PUSH1 0x0 DUP8 DUP1 EXTCODESIZE ISZERO DUP1 ISZERO PUSH2 0x1006 JUMPI PUSH1 0x0 DUP1 REVERT JUMPDEST POP GAS CALL ISZERO DUP1 ISZERO PUSH2 0x101A JUMPI RETURNDATASIZE PUSH1 0x0 DUP1 RETURNDATACOPY RETURNDATASIZE PUSH1 0x0 REVERT JUMPDEST POP POP POP POP PUSH1 0x40 MLOAD RETURNDATASIZE PUSH1 0x1F NOT PUSH1 0x1F DUP3 ADD AND DUP3 ADD DUP1 PUSH1 0x40 MSTORE POP DUP2 ADD SWAP1 PUSH2 0x103E SWAP2 SWAP1 PUSH2 0x1A4B JUMP JUMPDEST POP JUMPDEST PUSH2 0x1049 DUP4 PUSH2 0x1417 JUMP JUMPDEST POP POP POP JUMP JUMPDEST PUSH1 0x0 DUP1 SWAP2 POP SWAP2 JUMP JUMPDEST PUSH1 0x0 DUP1 DUP3 PUSH2 0x1066 JUMPI DUP4 SWAP2 POP PUSH2 0x1089 JUMP JUMPDEST PUSH2 0x107A PUSH4 0xFFFFFFFF DUP7 AND PUSH3 0xF4240 DUP7 PUSH2 0x1424 JUMP JUMPDEST SWAP2 POP PUSH2 0x1086 DUP5 DUP4 PUSH2 0x1091 JUMP JUMPDEST SWAP1 POP JUMPDEST SWAP4 POP SWAP4 SWAP2 POP POP JUMP JUMPDEST PUSH1 0x0 DUP3 DUP3 GT ISZERO PUSH2 0x10AA JUMPI PUSH2 0x10AA PUSH2 0x68F PUSH1 0x2 DUP6 DUP6 PUSH2 0x1369 JUMP JUMPDEST POP SWAP1 SUB SWAP1 JUMP JUMPDEST DUP1 PUSH1 0x1 PUSH1 0x1 PUSH1 0x60 SHL SUB DUP2 AND DUP2 EQ PUSH2 0x513 JUMPI PUSH2 0x513 PUSH2 0x68F PUSH1 0x2 DUP5 PUSH2 0x144E JUMP JUMPDEST PUSH1 0xC SLOAD PUSH1 0x0 SWAP1 PUSH2 0x10DD PUSH2 0x1964 JUMP JUMPDEST POP PUSH1 0x1 PUSH1 0x1 PUSH1 0xA0 SHL SUB DUP6 AND PUSH1 0x0 SWAP1 DUP2 MSTORE PUSH1 0x6 PUSH1 0x20 SWAP1 DUP2 MSTORE PUSH1 0x40 DUP1 DUP4 KECCAK256 DUP10 DUP5 MSTORE DUP3 MSTORE SWAP2 DUP3 SWAP1 KECCAK256 DUP3 MLOAD PUSH1 0x60 DUP2 ADD DUP5 MSTORE SWAP1 SLOAD PUSH8 0xFFFFFFFFFFFFFFFF DUP2 AND DUP1 DUP4 MSTORE PUSH1 0x1 PUSH1 0x1 PUSH1 0x60 SHL SUB PUSH1 0x1 PUSH1 0x40 SHL DUP4 DIV DUP2 AND SWAP5 DUP5 ADD SWAP5 SWAP1 SWAP5 MSTORE PUSH1 0x1 PUSH1 0xA0 SHL SWAP1 SWAP2 DIV SWAP1 SWAP3 AND SWAP3 DUP2 ADD SWAP3 SWAP1 SWAP3 MSTORE DUP3 EQ ISZERO PUSH2 0x1156 JUMPI PUSH1 0x0 SWAP3 POP POP POP PUSH2 0x11D6 JUMP JUMPDEST PUSH2 0x1162 DUP2 DUP4 DUP8 DUP8 PUSH2 0x14B3 JUMP JUMPDEST DUP2 MLOAD SWAP1 SWAP4 POP PUSH1 0x0 SWAP1 PUSH2 0x117F SWAP1 PUSH8 0xFFFFFFFFFFFFFFFF AND PUSH1 0x1 PUSH2 0xEB9 JUMP JUMPDEST SWAP1 POP PUSH2 0x11B2 PUSH2 0x11AB DUP10 DUP5 PUSH1 0x20 ADD MLOAD PUSH1 0x1 PUSH1 0x1 PUSH1 0x60 SHL SUB AND DUP6 PUSH1 0x0 ADD MLOAD PUSH8 0xFFFFFFFFFFFFFFFF AND DUP6 PUSH2 0x152B JUMP JUMPDEST DUP6 SWAP1 PUSH2 0xEB9 JUMP JUMPDEST SWAP4 POP PUSH2 0x11D0 PUSH2 0x11AB DUP10 DUP5 PUSH1 0x40 ADD MLOAD PUSH1 0x1 PUSH1 0x1 PUSH1 0x60 SHL SUB AND DUP5 DUP8 PUSH2 0x152B JUMP JUMPDEST SWAP4 POP POP POP POP JUMPDEST SWAP5 SWAP4 POP POP POP POP JUMP JUMPDEST PUSH1 0x40 DUP1 MLOAD DUP1 DUP3 ADD SWAP1 SWAP2 MSTORE PUSH1 0x4 DUP2 MSTORE PUSH4 0x734F6E1F PUSH1 0xE1 SHL PUSH1 0x20 DUP3 ADD MSTORE SWAP1 JUMP JUMPDEST DUP1 PUSH8 0xFFFFFFFFFFFFFFFF DUP2 AND DUP2 EQ PUSH2 0x513 JUMPI PUSH2 0x513 PUSH2 0x68F PUSH1 0x1 DUP5 PUSH2 0x144E JUMP JUMPDEST PUSH1 0x40 DUP1 MLOAD PUSH1 0x1 PUSH1 0x1 PUSH1 0xA0 SHL SUB DUP1 DUP6 AND PUSH1 0x24 DUP4 ADD MSTORE DUP4 AND PUSH1 0x44 DUP1 DUP4 ADD SWAP2 SWAP1 SWAP2 MSTORE DUP3 MLOAD DUP1 DUP4 SUB SWAP1 SWAP2 ADD DUP2 MSTORE PUSH1 0x64 SWAP1 SWAP2 ADD SWAP1 SWAP2 MSTORE PUSH1 0x20 DUP2 ADD DUP1 MLOAD PUSH1 0x1 PUSH1 0x1 PUSH1 0xE0 SHL SUB AND PUSH4 0x1DE45AD1 PUSH1 0xE0 SHL OR SWAP1 MSTORE SWAP3 SWAP2 POP POP JUMP JUMPDEST PUSH1 0x40 DUP1 MLOAD DUP1 DUP3 ADD SWAP1 SWAP2 MSTORE PUSH1 0x4 DUP2 MSTORE PUSH4 0x15D953F9 PUSH1 0xE2 SHL PUSH1 0x20 DUP3 ADD MSTORE SWAP1 JUMP JUMPDEST PUSH1 0x40 DUP1 MLOAD PUSH1 0x1 PUSH1 0x1 PUSH1 0xA0 SHL SUB DUP4 AND PUSH1 0x24 DUP1 DUP4 ADD SWAP2 SWAP1 SWAP2 MSTORE DUP3 MLOAD DUP1 DUP4 SUB SWAP1 SWAP2 ADD DUP2 MSTORE PUSH1 0x44 SWAP1 SWAP2 ADD SWAP1 SWAP2 MSTORE PUSH1 0x20 DUP2 ADD DUP1 MLOAD PUSH1 0x1 PUSH1 0x1 PUSH1 0xE0 SHL SUB AND PUSH4 0x6F0B78D PUSH1 0xE5 SHL OR SWAP1 MSTORE SWAP2 SWAP1 POP JUMP JUMPDEST PUSH1 0x40 DUP1 MLOAD PUSH1 0x24 DUP2 ADD DUP5 SWAP1 MSTORE PUSH1 0x44 DUP1 DUP3 ADD DUP5 SWAP1 MSTORE DUP3 MLOAD DUP1 DUP4 SUB SWAP1 SWAP2 ADD DUP2 MSTORE PUSH1 0x64 SWAP1 SWAP2 ADD SWAP1 SWAP2 MSTORE PUSH1 0x20 DUP2 ADD DUP1 MLOAD PUSH1 0x1 PUSH1 0x1 PUSH1 0xE0 SHL SUB AND PUSH4 0xE9F83771 PUSH1 0xE0 SHL OR SWAP1 MSTORE SWAP3 SWAP2 POP POP JUMP JUMPDEST PUSH1 0x40 DUP1 MLOAD PUSH1 0x1 PUSH1 0x1 PUSH1 0xA0 SHL SUB DUP1 DUP6 AND PUSH1 0x24 DUP4 ADD MSTORE DUP4 AND PUSH1 0x44 DUP1 DUP4 ADD SWAP2 SWAP1 SWAP2 MSTORE DUP3 MLOAD DUP1 DUP4 SUB SWAP1 SWAP2 ADD DUP2 MSTORE PUSH1 0x64 SWAP1 SWAP2 ADD SWAP1 SWAP2 MSTORE PUSH1 0x20 DUP2 ADD DUP1 MLOAD PUSH1 0x1 PUSH1 0x1 PUSH1 0xE0 SHL SUB AND PUSH4 0x140A84DB PUSH1 0xE0 SHL OR SWAP1 MSTORE SWAP3 SWAP2 POP POP JUMP JUMPDEST PUSH1 0x60 PUSH4 0xE946C1BB PUSH1 0xE0 SHL DUP5 DUP5 DUP5 PUSH1 0x40 MLOAD PUSH1 0x24 ADD DUP1 DUP5 PUSH1 0x3 DUP2 GT ISZERO PUSH2 0x1389 JUMPI INVALID JUMPDEST DUP2 MSTORE PUSH1 0x20 ADD DUP4 DUP2 MSTORE PUSH1 0x20 ADD DUP3 DUP2 MSTORE PUSH1 0x20 ADD SWAP4 POP POP POP POP PUSH1 0x40 MLOAD PUSH1 0x20 DUP2 DUP4 SUB SUB DUP2 MSTORE SWAP1 PUSH1 0x40 MSTORE SWAP1 PUSH1 0x1 PUSH1 0x1 PUSH1 0xE0 SHL SUB NOT AND PUSH1 0x20 DUP3 ADD DUP1 MLOAD PUSH1 0x1 PUSH1 0x1 PUSH1 0xE0 SHL SUB DUP4 DUP2 DUP4 AND OR DUP4 MSTORE POP POP POP POP SWAP1 POP SWAP4 SWAP3 POP POP POP JUMP JUMPDEST PUSH1 0x0 DUP3 DUP2 MSTORE PUSH1 0xB PUSH1 0x20 MSTORE PUSH1 0x40 SWAP1 KECCAK256 SLOAD PUSH2 0x13F4 SWAP1 DUP3 PUSH2 0x1091 JUMP JUMPDEST PUSH1 0x0 DUP4 DUP2 MSTORE PUSH1 0xB PUSH1 0x20 MSTORE PUSH1 0x40 SWAP1 KECCAK256 SSTORE PUSH1 0x17 SLOAD PUSH2 0x1410 SWAP1 DUP3 PUSH2 0x1091 JUMP JUMPDEST PUSH1 0x17 SSTORE POP POP JUMP JUMPDEST PUSH2 0x5BB DUP2 PUSH1 0x0 PUSH1 0x1 PUSH2 0x15B3 JUMP JUMPDEST PUSH1 0x0 PUSH2 0x11D6 DUP4 PUSH2 0x1448 PUSH2 0x1438 DUP3 PUSH1 0x1 PUSH2 0x1091 JUMP JUMPDEST PUSH2 0x1442 DUP9 DUP8 PUSH2 0x169C JUMP JUMPDEST SWAP1 PUSH2 0xEB9 JUMP JUMPDEST SWAP1 PUSH2 0x16CD JUMP JUMPDEST PUSH1 0x60 PUSH4 0xC996AF7B PUSH1 0xE0 SHL DUP4 DUP4 PUSH1 0x40 MLOAD PUSH1 0x24 ADD DUP1 DUP4 PUSH1 0x2 DUP2 GT ISZERO PUSH2 0x146D JUMPI INVALID JUMPDEST DUP2 MSTORE PUSH1 0x20 DUP1 DUP3 ADD SWAP4 SWAP1 SWAP4 MSTORE PUSH1 0x40 DUP1 MLOAD DUP1 DUP4 SUB DUP6 ADD DUP2 MSTORE SWAP2 DUP2 ADD SWAP1 MSTORE SWAP2 DUP3 ADD DUP1 MLOAD PUSH1 0x1 PUSH1 0x1 PUSH1 0xE0 SHL SUB AND PUSH1 0x1 PUSH1 0x1 PUSH1 0xE0 SHL SUB NOT SWAP1 SWAP6 AND SWAP5 SWAP1 SWAP5 OR SWAP1 SWAP4 MSTORE SWAP3 POP POP POP SWAP3 SWAP2 POP POP JUMP JUMPDEST PUSH1 0x0 DUP3 ISZERO DUP1 PUSH2 0x14C0 JUMPI POP DUP2 ISZERO JUMPDEST ISZERO PUSH2 0x14CD JUMPI POP PUSH1 0x0 PUSH2 0x11D6 JUMP JUMPDEST PUSH1 0x0 PUSH2 0x14DA DUP6 PUSH1 0x1 PUSH2 0x1091 JUMP JUMPDEST DUP7 MLOAD PUSH8 0xFFFFFFFFFFFFFFFF AND LT ISZERO PUSH2 0x14F6 JUMPI DUP6 PUSH1 0x40 ADD MLOAD PUSH2 0x14FC JUMP JUMPDEST DUP6 PUSH1 0x20 ADD MLOAD JUMPDEST PUSH1 0x1 PUSH1 0x1 PUSH1 0x60 SHL SUB AND SWAP1 POP DUP1 PUSH2 0x1516 JUMPI PUSH1 0x0 SWAP2 POP POP PUSH2 0x11D6 JUMP JUMPDEST PUSH2 0x1521 DUP5 DUP5 DUP4 PUSH2 0x16F7 JUMP JUMPDEST SWAP7 SWAP6 POP POP POP POP POP POP JUMP JUMPDEST PUSH1 0x0 DUP4 ISZERO DUP1 PUSH2 0x1539 JUMPI POP DUP2 DUP4 EQ JUMPDEST ISZERO PUSH2 0x1546 JUMPI POP PUSH1 0x0 PUSH2 0x11D6 JUMP JUMPDEST DUP2 DUP4 LT PUSH2 0x156E JUMPI PUSH1 0x40 MLOAD PUSH3 0x461BCD PUSH1 0xE5 SHL DUP2 MSTORE PUSH1 0x4 ADD PUSH2 0x1565 SWAP1 PUSH2 0x1B86 JUMP JUMPDEST PUSH1 0x40 MLOAD DUP1 SWAP2 SUB SWAP1 REVERT JUMPDEST PUSH2 0x1576 PUSH2 0x1984 JUMP JUMPDEST PUSH2 0x1580 DUP7 DUP6 PUSH2 0x1707 JUMP JUMPDEST SWAP1 POP PUSH2 0x158A PUSH2 0x1984 JUMP JUMPDEST PUSH2 0x1594 DUP8 DUP6 PUSH2 0x1707 JUMP JUMPDEST SWAP1 POP PUSH2 0xA75 DUP2 PUSH1 0x0 ADD MLOAD DUP3 PUSH1 0x20 ADD MLOAD DUP5 PUSH1 0x0 ADD MLOAD DUP6 PUSH1 0x20 ADD MLOAD DUP11 PUSH2 0x181E JUMP JUMPDEST PUSH1 0x0 DUP4 DUP2 MSTORE PUSH1 0xF PUSH1 0x20 MSTORE PUSH1 0x40 SWAP1 KECCAK256 SLOAD PUSH1 0xC SLOAD DUP1 DUP3 EQ ISZERO PUSH2 0x15D4 JUMPI POP POP PUSH2 0x1049 JUMP JUMPDEST PUSH2 0x15DC PUSH2 0x1984 JUMP JUMPDEST POP PUSH1 0x0 DUP6 DUP2 MSTORE PUSH1 0xE PUSH1 0x20 SWAP1 DUP2 MSTORE PUSH1 0x40 DUP1 DUP4 KECCAK256 DUP6 DUP5 MSTORE DUP3 MSTORE SWAP2 DUP3 SWAP1 KECCAK256 DUP3 MLOAD DUP1 DUP5 ADD SWAP1 SWAP4 MSTORE DUP1 SLOAD DUP4 MSTORE PUSH1 0x1 ADD SLOAD SWAP1 DUP3 ADD MSTORE PUSH2 0x1613 PUSH2 0x1984 JUMP JUMPDEST PUSH2 0x161C DUP3 PUSH2 0x1892 JUMP JUMPDEST ISZERO PUSH2 0x1655 JUMPI PUSH2 0x1635 DUP3 PUSH1 0x0 ADD MLOAD DUP4 PUSH1 0x20 ADD MLOAD DUP9 DUP9 PUSH2 0x189B JUMP JUMPDEST PUSH1 0x20 DUP4 ADD DUP2 SWAP1 MSTORE DUP2 DUP4 MSTORE PUSH2 0x1649 SWAP2 SWAP1 PUSH2 0x18EB JUMP JUMPDEST PUSH1 0x20 DUP4 ADD MSTORE DUP2 MSTORE PUSH2 0x1660 JUMP JUMPDEST PUSH1 0x20 DUP2 ADD DUP6 SWAP1 MSTORE DUP6 DUP2 MSTORE JUMPDEST PUSH1 0x0 DUP8 DUP2 MSTORE PUSH1 0xE PUSH1 0x20 SWAP1 DUP2 MSTORE PUSH1 0x40 DUP1 DUP4 KECCAK256 DUP7 DUP5 MSTORE DUP3 MSTORE DUP1 DUP4 KECCAK256 DUP5 MLOAD DUP2 SSTORE SWAP4 DUP3 ADD MLOAD PUSH1 0x1 SWAP1 SWAP5 ADD SWAP4 SWAP1 SWAP4 SSTORE SWAP8 DUP2 MSTORE PUSH1 0xF SWAP1 SWAP8 MSTORE SWAP1 SWAP6 KECCAK256 SSTORE POP POP POP POP JUMP JUMPDEST PUSH1 0x0 DUP3 PUSH2 0x16AB JUMPI POP PUSH1 0x0 PUSH2 0x60A JUMP JUMPDEST DUP3 DUP3 MUL DUP3 DUP5 DUP3 DUP2 PUSH2 0x16B8 JUMPI INVALID JUMPDEST DIV EQ PUSH2 0x607 JUMPI PUSH2 0x607 PUSH2 0x68F PUSH1 0x1 DUP7 DUP7 PUSH2 0x1369 JUMP JUMPDEST PUSH1 0x0 DUP2 PUSH2 0x16E3 JUMPI PUSH2 0x16E3 PUSH2 0x68F PUSH1 0x3 DUP6 DUP6 PUSH2 0x1369 JUMP JUMPDEST PUSH1 0x0 DUP3 DUP5 DUP2 PUSH2 0x16EE JUMPI INVALID JUMPDEST DIV SWAP5 SWAP4 POP POP POP POP JUMP JUMPDEST PUSH1 0x0 PUSH2 0x11D6 DUP4 PUSH2 0x1448 DUP7 DUP6 PUSH2 0x169C JUMP JUMPDEST PUSH2 0x170F PUSH2 0x1984 JUMP JUMPDEST POP PUSH1 0x0 DUP3 DUP2 MSTORE PUSH1 0xE PUSH1 0x20 SWAP1 DUP2 MSTORE PUSH1 0x40 DUP1 DUP4 KECCAK256 DUP5 DUP5 MSTORE DUP3 MSTORE SWAP2 DUP3 SWAP1 KECCAK256 DUP3 MLOAD DUP1 DUP5 ADD SWAP1 SWAP4 MSTORE DUP1 SLOAD DUP4 MSTORE PUSH1 0x1 ADD SLOAD SWAP1 DUP3 ADD MSTORE PUSH2 0x1747 DUP2 PUSH2 0x1892 JUMP JUMPDEST ISZERO PUSH2 0x1751 JUMPI PUSH2 0x60A JUMP JUMPDEST PUSH1 0x0 PUSH2 0x175E DUP4 PUSH1 0x1 PUSH2 0x1091 JUMP JUMPDEST PUSH1 0x0 DUP6 DUP2 MSTORE PUSH1 0xE PUSH1 0x20 SWAP1 DUP2 MSTORE PUSH1 0x40 DUP1 DUP4 KECCAK256 DUP5 DUP5 MSTORE DUP3 MSTORE SWAP2 DUP3 SWAP1 KECCAK256 DUP3 MLOAD DUP1 DUP5 ADD SWAP1 SWAP4 MSTORE DUP1 SLOAD DUP4 MSTORE PUSH1 0x1 ADD SLOAD SWAP1 DUP3 ADD MSTORE SWAP3 POP SWAP1 POP PUSH2 0x1799 DUP3 PUSH2 0x1892 JUMP JUMPDEST ISZERO PUSH2 0x17A4 JUMPI POP PUSH2 0x60A JUMP JUMPDEST PUSH1 0x0 DUP5 DUP2 MSTORE PUSH1 0xF PUSH1 0x20 MSTORE PUSH1 0x40 SWAP1 KECCAK256 SLOAD DUP4 DUP2 LT ISZERO PUSH2 0x1800 JUMPI PUSH1 0x0 DUP6 DUP2 MSTORE PUSH1 0xE PUSH1 0x20 SWAP1 DUP2 MSTORE PUSH1 0x40 DUP1 DUP4 KECCAK256 DUP5 DUP5 MSTORE DUP3 MSTORE SWAP2 DUP3 SWAP1 KECCAK256 DUP3 MLOAD DUP1 DUP5 ADD SWAP1 SWAP4 MSTORE DUP1 SLOAD DUP4 MSTORE PUSH1 0x1 ADD SLOAD SWAP1 DUP3 ADD MSTORE SWAP3 POP PUSH2 0x17F4 DUP4 PUSH2 0x1892 JUMP JUMPDEST ISZERO PUSH2 0x1800 JUMPI POP POP PUSH2 0x60A JUMP JUMPDEST POP POP PUSH1 0x40 DUP1 MLOAD DUP1 DUP3 ADD SWAP1 SWAP2 MSTORE PUSH1 0x0 DUP2 MSTORE PUSH1 0x1 PUSH1 0x20 DUP3 ADD MSTORE SWAP4 SWAP3 POP POP POP JUMP JUMPDEST PUSH1 0x0 DUP2 PUSH2 0x182D JUMPI POP PUSH1 0x0 PUSH2 0x1889 JUMP JUMPDEST DUP4 PUSH2 0x1847 JUMPI PUSH2 0x1840 DUP6 PUSH2 0x1448 DUP5 DUP10 PUSH2 0x169C JUMP JUMPDEST SWAP1 POP PUSH2 0x1889 JUMP JUMPDEST PUSH1 0x0 PUSH2 0x1866 PUSH2 0x1856 DUP7 DUP9 PUSH2 0x169C JUMP JUMPDEST PUSH2 0x1860 DUP10 DUP8 PUSH2 0x169C JUMP JUMPDEST SWAP1 PUSH2 0x1091 JUMP JUMPDEST SWAP1 POP PUSH1 0x0 PUSH2 0x1874 DUP3 DUP7 PUSH2 0x16CD JUMP JUMPDEST SWAP1 POP PUSH2 0x1884 DUP8 PUSH2 0x1448 DUP7 DUP5 PUSH2 0x169C JUMP JUMPDEST SWAP3 POP POP POP JUMPDEST SWAP6 SWAP5 POP POP POP POP POP JUMP JUMPDEST PUSH1 0x20 ADD MLOAD ISZERO ISZERO SWAP1 JUMP JUMPDEST PUSH1 0x0 DUP1 DUP6 PUSH2 0x18AD JUMPI POP DUP3 SWAP1 POP DUP2 PUSH2 0x18E2 JUMP JUMPDEST DUP4 PUSH2 0x18BC JUMPI POP DUP5 SWAP1 POP DUP4 PUSH2 0x18E2 JUMP JUMPDEST PUSH2 0x18D3 PUSH2 0x18C9 DUP6 DUP8 PUSH2 0x169C JUMP JUMPDEST PUSH2 0x1442 DUP9 DUP7 PUSH2 0x169C JUMP JUMPDEST SWAP2 POP PUSH2 0x18DF DUP6 DUP5 PUSH2 0x169C JUMP JUMPDEST SWAP1 POP JUMPDEST SWAP5 POP SWAP5 SWAP3 POP POP POP JUMP JUMPDEST PUSH1 0x0 DUP1 PUSH2 0x18FD DUP5 DUP5 PUSH1 0x1 PUSH1 0x7F SHL PUSH2 0x1908 JUMP JUMPDEST SWAP2 POP SWAP2 POP SWAP3 POP SWAP3 SWAP1 POP JUMP JUMPDEST PUSH1 0x0 DUP1 DUP3 DUP6 GT DUP1 PUSH2 0x1918 JUMPI POP DUP3 DUP5 GT JUMPDEST ISZERO PUSH2 0x195B JUMPI PUSH1 0x0 DUP5 DUP7 LT ISZERO PUSH2 0x192D JUMPI DUP5 PUSH2 0x192F JUMP JUMPDEST DUP6 JUMPDEST SWAP1 POP PUSH2 0x193B DUP2 DUP6 PUSH2 0x16CD JUMP JUMPDEST SWAP1 POP PUSH2 0x1947 DUP7 DUP3 PUSH2 0x16CD JUMP JUMPDEST SWAP3 POP PUSH2 0x1953 DUP6 DUP3 PUSH2 0x16CD JUMP JUMPDEST SWAP2 POP POP PUSH2 0x1089 JUMP JUMPDEST POP SWAP3 SWAP4 SWAP2 SWAP3 POP POP JUMP JUMPDEST PUSH1 0x40 DUP1 MLOAD PUSH1 0x60 DUP2 ADD DUP3 MSTORE PUSH1 0x0 DUP1 DUP3 MSTORE PUSH1 0x20 DUP3 ADD DUP2 SWAP1 MSTORE SWAP2 DUP2 ADD SWAP2 SWAP1 SWAP2 MSTORE SWAP1 JUMP JUMPDEST PUSH1 0x40 MLOAD DUP1 PUSH1 0x40 ADD PUSH1 0x40 MSTORE DUP1 PUSH1 0x0 DUP2 MSTORE PUSH1 0x20 ADD PUSH1 0x0 DUP2 MSTORE POP SWAP1 JUMP JUMPDEST DUP1 CALLDATALOAD PUSH1 0x1 PUSH1 0x1 PUSH1 0xA0 SHL SUB DUP2 AND DUP2 EQ PUSH2 0x513 JUMPI PUSH1 0x0 DUP1 REVERT JUMPDEST DUP1 CALLDATALOAD PUSH1 0x2 DUP2 LT PUSH2 0x513 JUMPI PUSH1 0x0 DUP1 REVERT JUMPDEST PUSH1 0x0 PUSH1 0x20 DUP3 DUP5 SUB SLT ISZERO PUSH2 0x19D5 JUMPI DUP1 DUP2 REVERT JUMPDEST PUSH2 0x607 DUP3 PUSH2 0x199E JUMP JUMPDEST PUSH1 0x0 DUP1 PUSH1 0x40 DUP4 DUP6 SUB SLT ISZERO PUSH2 0x19F0 JUMPI DUP1 DUP2 REVERT JUMPDEST PUSH2 0x19F9 DUP4 PUSH2 0x199E JUMP JUMPDEST SWAP5 PUSH1 0x20 SWAP4 SWAP1 SWAP4 ADD CALLDATALOAD SWAP4 POP POP POP JUMP JUMPDEST PUSH1 0x0 DUP1 PUSH1 0x40 DUP4 DUP6 SUB SLT ISZERO PUSH2 0x1A19 JUMPI DUP2 DUP3 REVERT JUMPDEST PUSH2 0x1A22 DUP4 PUSH2 0x199E JUMP JUMPDEST SWAP2 POP PUSH2 0x1A30 PUSH1 0x20 DUP5 ADD PUSH2 0x19B5 JUMP JUMPDEST SWAP1 POP SWAP3 POP SWAP3 SWAP1 POP JUMP JUMPDEST PUSH1 0x0 DUP1 PUSH1 0x40 DUP4 DUP6 SUB SLT ISZERO PUSH2 0x19F0 JUMPI DUP2 DUP3 REVERT JUMPDEST PUSH1 0x0 PUSH1 0x20 DUP3 DUP5 SUB SLT ISZERO PUSH2 0x1A5C JUMPI DUP1 DUP2 REVERT JUMPDEST DUP2 MLOAD DUP1 ISZERO ISZERO DUP2 EQ PUSH2 0x607 JUMPI DUP2 DUP3 REVERT JUMPDEST PUSH1 0x0 PUSH1 0x20 DUP3 DUP5 SUB SLT ISZERO PUSH2 0x1A7C JUMPI DUP1 DUP2 REVERT JUMPDEST POP CALLDATALOAD SWAP2 SWAP1 POP JUMP JUMPDEST PUSH1 0x0 DUP1 PUSH1 0x40 DUP4 DUP6 SUB SLT ISZERO PUSH2 0x1A95 JUMPI DUP2 DUP3 REVERT JUMPDEST DUP3 CALLDATALOAD SWAP2 POP PUSH2 0x1A30 PUSH1 0x20 DUP5 ADD PUSH2 0x199E JUMP JUMPDEST PUSH1 0x0 DUP1 PUSH1 0x40 DUP4 DUP6 SUB SLT ISZERO PUSH2 0x1AB7 JUMPI DUP2 DUP3 REVERT JUMPDEST POP POP DUP1 CALLDATALOAD SWAP3 PUSH1 0x20 SWAP1 SWAP2 ADD CALLDATALOAD SWAP2 POP JUMP JUMPDEST PUSH1 0x0 PUSH1 0x20 DUP3 DUP5 SUB SLT ISZERO PUSH2 0x1AD7 JUMPI DUP1 DUP2 REVERT JUMPDEST PUSH2 0x607 DUP3 PUSH2 0x19B5 JUMP JUMPDEST PUSH1 0x0 PUSH1 0x20 DUP3 DUP5 SUB SLT ISZERO PUSH2 0x1AF1 JUMPI DUP1 DUP2 REVERT JUMPDEST POP MLOAD SWAP2 SWAP1 POP JUMP JUMPDEST PUSH1 0x1 PUSH1 0x1 PUSH1 0xA0 SHL SUB SWAP2 SWAP1 SWAP2 AND DUP2 MSTORE PUSH1 0x20 ADD SWAP1 JUMP JUMPDEST PUSH1 0x1 PUSH1 0x1 PUSH1 0xA0 SHL SUB SWAP3 SWAP1 SWAP3 AND DUP3 MSTORE PUSH1 0x20 DUP3 ADD MSTORE PUSH1 0x40 ADD SWAP1 JUMP JUMPDEST PUSH1 0x20 DUP1 DUP3 MSTORE DUP3 MLOAD DUP3 DUP3 ADD DUP2 SWAP1 MSTORE PUSH1 0x0 SWAP2 SWAP1 DUP5 DUP3 ADD SWAP1 PUSH1 0x40 DUP6 ADD SWAP1 DUP5 JUMPDEST DUP2 DUP2 LT ISZERO PUSH2 0x1B66 JUMPI DUP4 MLOAD PUSH1 0x1 PUSH1 0x1 PUSH1 0xA0 SHL SUB AND DUP4 MSTORE SWAP3 DUP5 ADD SWAP3 SWAP2 DUP5 ADD SWAP2 PUSH1 0x1 ADD PUSH2 0x1B41 JUMP JUMPDEST POP SWAP1 SWAP7 SWAP6 POP POP POP POP POP POP JUMP JUMPDEST SWAP1 ISZERO ISZERO DUP2 MSTORE PUSH1 0x20 ADD SWAP1 JUMP JUMPDEST SWAP1 DUP2 MSTORE PUSH1 0x20 ADD SWAP1 JUMP JUMPDEST PUSH1 0x20 DUP1 DUP3 MSTORE PUSH1 0x13 SWAP1 DUP3 ADD MSTORE PUSH19 0x10D497D25395115495905317D2539590531251 PUSH1 0x6A SHL PUSH1 0x40 DUP3 ADD MSTORE PUSH1 0x60 ADD SWAP1 JUMP JUMPDEST DUP2 MLOAD PUSH8 0xFFFFFFFFFFFFFFFF AND DUP2 MSTORE PUSH1 0x20 DUP1 DUP4 ADD MLOAD PUSH1 0x1 PUSH1 0x1 PUSH1 0x60 SHL SUB SWAP1 DUP2 AND SWAP2 DUP4 ADD SWAP2 SWAP1 SWAP2 MSTORE PUSH1 0x40 SWAP3 DUP4 ADD MLOAD AND SWAP2 DUP2 ADD SWAP2 SWAP1 SWAP2 MSTORE PUSH1 0x60 ADD SWAP1 JUMP JUMPDEST SWAP3 DUP4 MSTORE PUSH1 0x20 DUP4 ADD SWAP2 SWAP1 SWAP2 MSTORE PUSH1 0x40 DUP3 ADD MSTORE PUSH1 0x60 ADD SWAP1 JUMP JUMPDEST SWAP5 DUP6 MSTORE PUSH1 0x20 DUP6 ADD SWAP4 SWAP1 SWAP4 MSTORE PUSH1 0x40 DUP5 ADD SWAP2 SWAP1 SWAP2 MSTORE PUSH1 0x60 DUP4 ADD MSTORE PUSH1 0x80 DUP3 ADD MSTORE PUSH1 0xA0 ADD SWAP1 JUMP JUMPDEST PUSH4 0xFFFFFFFF SWAP2 SWAP1 SWAP2 AND DUP2 MSTORE PUSH1 0x20 ADD SWAP1 JUMP INVALID LOG2 PUSH5 0x6970667358 0x22 SLT KECCAK256 SELFBALANCE KECCAK256 0x5D 0xF CREATE SWAP11 JUMPI 0x49 0x23 LOG4 0xEB DUP4 0xE0 0xF8 SWAP12 SSTORE 0xCC 0xD0 ADDRESS PUSH27 0xF9A950A3B9D8D0C35D41110064736F6C6343000705003300000000 "
		},
		"gasEstimates": {
			"creation": {
				"codeDepositCost": "1455400",
				"executionCost": "22355",
				"totalCost": "1477755"
			},
			"external": {
				"addAuthorizedAddress(address)": "66323",
				"aggregatedStatsByEpoch(uint256)": "4615",
				"authorities(uint256)": "2150",
				"authorized(address)": "1335",
				"cobbDouglasAlphaDenominator()": "1168",
				"cobbDouglasAlphaNumerator()": "1113",
				"computeRewardBalanceOfDelegator(bytes32,address)": "infinite",
				"computeRewardBalanceOfOperator(bytes32)": "2499",
				"currentEpoch()": "1140",
				"currentEpochStartTimeInSeconds()": "1074",
				"epochDurationInSeconds()": "1096",
				"getAuthorizedAddresses()": "infinite",
				"getCurrentEpochEarliestEndTimeInSeconds()": "infinite",
				"getDragoRegistry()": "297",
				"getGlobalStakeByStatus(uint8)": "infinite",
				"getGrgContract()": "340",
				"getGrgVault()": "297",
				"getOwnerStakeByStatus(address,uint8)": "infinite",
				"getStakeDelegatedToPoolByOwner(address,bytes32)": "infinite",
				"getTotalStake(address)": "infinite",
				"getTotalStakeDelegatedToPool(bytes32)": "infinite",
				"getWethContract()": "365",
				"lastPoolId()": "1074",
				"minimumPoolStake()": "1161",
				"owner()": "1159",
				"poolIdByRbPoolAccount(address)": "1301",
				"poolStatsByEpoch(bytes32,uint256)": "3013",
				"removeAuthorizedAddress(address)": "infinite",
				"removeAuthorizedAddressAtIndex(address,uint256)": "92502",
				"rewardDelegatedStakeWeight()": "1113",
				"rewardsByPoolId(bytes32)": "1282",
				"stakingContract()": "1136",
				"transferOwnership(address)": "23725",
				"validPops(address)": "1402",
				"wethReservedForPoolRewards()": "1096",
				"withdrawDelegatorRewards(bytes32)": "infinite"
			},
			"internal": {
				"_assertPoolFinalizedLastEpoch(bytes32)": "infinite",
				"_computeDelegatorReward(bytes32,address,uint256,uint256)": "infinite",
				"_computePoolRewardsSplit(uint32,uint256,uint256)": "infinite",
				"_computeUnfinalizedDelegatorReward(struct IStructs.StoredBalance memory,uint256,uint256,uint256)": "infinite",
				"_decreasePoolRewards(bytes32,uint256)": "infinite",
				"_getUnfinalizedPoolRewards(bytes32)": "23",
				"_increasePoolRewards(bytes32,uint256)": "infinite",
				"_syncPoolRewards(bytes32,uint256,uint256)": "infinite",
				"_withdrawAndSyncDelegatorRewards(bytes32,address)": "infinite"
			}
		},
		"methodIdentifiers": {
			"addAuthorizedAddress(address)": "42f1181e",
			"aggregatedStatsByEpoch(uint256)": "38229d93",
			"authorities(uint256)": "494503d4",
			"authorized(address)": "b9181611",
			"cobbDouglasAlphaDenominator()": "e8eeb3f8",
			"cobbDouglasAlphaNumerator()": "81666796",
			"computeRewardBalanceOfDelegator(bytes32,address)": "e907f003",
			"computeRewardBalanceOfOperator(bytes32)": "bb7ef7e0",
			"currentEpoch()": "76671808",
			"currentEpochStartTimeInSeconds()": "587da023",
			"epochDurationInSeconds()": "63403801",
			"getAuthorizedAddresses()": "d39de6e9",
			"getCurrentEpochEarliestEndTimeInSeconds()": "b2baa33e",
			"getDragoRegistry()": "b652b41f",
			"getGlobalStakeByStatus(uint8)": "e804d0a4",
			"getGrgContract()": "ef4ba680",
			"getGrgVault()": "e0822db7",
			"getOwnerStakeByStatus(address,uint8)": "44a6958b",
			"getStakeDelegatedToPoolByOwner(address,bytes32)": "f252b7a1",
			"getTotalStake(address)": "1e7ff8f6",
			"getTotalStakeDelegatedToPool(bytes32)": "3e4ad732",
			"getWethContract()": "3c277fc5",
			"lastPoolId()": "a657e579",
			"minimumPoolStake()": "a26171e2",
			"owner()": "8da5cb5b",
			"poolIdByRbPoolAccount(address)": "7fa140c7",
			"poolStatsByEpoch(bytes32,uint256)": "2a94c279",
			"removeAuthorizedAddress(address)": "70712939",
			"removeAuthorizedAddressAtIndex(address,uint256)": "9ad26744",
			"rewardDelegatedStakeWeight()": "e0ee036e",
			"rewardsByPoolId(bytes32)": "c18c9141",
			"stakingContract()": "ee99205c",
			"transferOwnership(address)": "f2fde38b",
			"validPops(address)": "540c2d53",
			"wethReservedForPoolRewards()": "b0531524",
			"withdrawDelegatorRewards(bytes32)": "b510879f"
		}
	},
	"abi": [
		{
			"anonymous": false,
			"inputs": [
				{
					"indexed": true,
					"internalType": "address",
					"name": "target",
					"type": "address"
				},
				{
					"indexed": true,
					"internalType": "address",
					"name": "caller",
					"type": "address"
				}
			],
			"name": "AuthorizedAddressAdded",
			"type": "event"
		},
		{
			"anonymous": false,
			"inputs": [
				{
					"indexed": true,
					"internalType": "address",
					"name": "target",
					"type": "address"
				},
				{
					"indexed": true,
					"internalType": "address",
					"name": "caller",
					"type": "address"
				}
			],
			"name": "AuthorizedAddressRemoved",
			"type": "event"
		},
		{
			"anonymous": false,
			"inputs": [
				{
					"indexed": true,
					"internalType": "uint256",
					"name": "epoch",
					"type": "uint256"
				},
				{
					"indexed": false,
					"internalType": "uint256",
					"name": "numPoolsToFinalize",
					"type": "uint256"
				},
				{
					"indexed": false,
					"internalType": "uint256",
					"name": "rewardsAvailable",
					"type": "uint256"
				},
				{
					"indexed": false,
					"internalType": "uint256",
					"name": "totalFeesCollected",
					"type": "uint256"
				},
				{
					"indexed": false,
					"internalType": "uint256",
					"name": "totalWeightedStake",
					"type": "uint256"
				}
			],
			"name": "EpochEnded",
			"type": "event"
		},
		{
			"anonymous": false,
			"inputs": [
				{
					"indexed": true,
					"internalType": "uint256",
					"name": "epoch",
					"type": "uint256"
				},
				{
					"indexed": false,
					"internalType": "uint256",
					"name": "rewardsPaid",
					"type": "uint256"
				},
				{
					"indexed": false,
					"internalType": "uint256",
					"name": "rewardsRemaining",
					"type": "uint256"
				}
			],
			"name": "EpochFinalized",
			"type": "event"
		},
		{
			"anonymous": false,
			"inputs": [
				{
					"indexed": true,
					"internalType": "address",
					"name": "staker",
					"type": "address"
				},
				{
					"indexed": false,
					"internalType": "uint256",
					"name": "amount",
					"type": "uint256"
				},
				{
					"indexed": false,
					"internalType": "uint8",
					"name": "fromStatus",
					"type": "uint8"
				},
				{
					"indexed": true,
					"internalType": "bytes32",
					"name": "fromPool",
					"type": "bytes32"
				},
				{
					"indexed": false,
					"internalType": "uint8",
					"name": "toStatus",
					"type": "uint8"
				},
				{
					"indexed": true,
					"internalType": "bytes32",
					"name": "toPool",
					"type": "bytes32"
				}
			],
			"name": "MoveStake",
			"type": "event"
		},
		{
			"anonymous": false,
			"inputs": [
				{
					"indexed": true,
					"internalType": "bytes32",
					"name": "poolId",
					"type": "bytes32"
				},
				{
					"indexed": false,
					"internalType": "uint32",
					"name": "oldOperatorShare",
					"type": "uint32"
				},
				{
					"indexed": false,
					"internalType": "uint32",
					"name": "newOperatorShare",
					"type": "uint32"
				}
			],
			"name": "OperatorShareDecreased",
			"type": "event"
		},
		{
			"anonymous": false,
			"inputs": [
				{
					"indexed": true,
					"internalType": "address",
					"name": "previousOwner",
					"type": "address"
				},
				{
					"indexed": true,
					"internalType": "address",
					"name": "newOwner",
					"type": "address"
				}
			],
			"name": "OwnershipTransferred",
			"type": "event"
		},
		{
			"anonymous": false,
			"inputs": [
				{
					"indexed": false,
					"internalType": "uint256",
					"name": "epochDurationInSeconds",
					"type": "uint256"
				},
				{
					"indexed": false,
					"internalType": "uint32",
					"name": "rewardDelegatedStakeWeight",
					"type": "uint32"
				},
				{
					"indexed": false,
					"internalType": "uint256",
					"name": "minimumPoolStake",
					"type": "uint256"
				},
				{
					"indexed": false,
					"internalType": "uint256",
					"name": "cobbDouglasAlphaNumerator",
					"type": "uint256"
				},
				{
					"indexed": false,
					"internalType": "uint256",
					"name": "cobbDouglasAlphaDenominator",
					"type": "uint256"
				}
			],
			"name": "ParamsSet",
			"type": "event"
		},
		{
			"anonymous": false,
			"inputs": [
				{
					"indexed": false,
					"internalType": "address",
					"name": "exchangeAddress",
					"type": "address"
				}
			],
			"name": "PopAdded",
			"type": "event"
		},
		{
			"anonymous": false,
			"inputs": [
				{
					"indexed": false,
					"internalType": "address",
					"name": "exchangeAddress",
					"type": "address"
				}
			],
			"name": "PopRemoved",
			"type": "event"
		},
		{
			"anonymous": false,
			"inputs": [
				{
					"indexed": true,
					"internalType": "address",
					"name": "rbPoolAddress",
					"type": "address"
				},
				{
					"indexed": true,
					"internalType": "bytes32",
					"name": "poolId",
					"type": "bytes32"
				}
			],
			"name": "RbPoolStakingPoolSet",
			"type": "event"
		},
		{
			"anonymous": false,
			"inputs": [
				{
					"indexed": true,
					"internalType": "uint256",
					"name": "epoch",
					"type": "uint256"
				},
				{
					"indexed": true,
					"internalType": "bytes32",
					"name": "poolId",
					"type": "bytes32"
				},
				{
					"indexed": false,
					"internalType": "uint256",
					"name": "operatorReward",
					"type": "uint256"
				},
				{
					"indexed": false,
					"internalType": "uint256",
					"name": "membersReward",
					"type": "uint256"
				}
			],
			"name": "RewardsPaid",
			"type": "event"
		},
		{
			"anonymous": false,
			"inputs": [
				{
					"indexed": true,
					"internalType": "address",
					"name": "staker",
					"type": "address"
				},
				{
					"indexed": false,
					"internalType": "uint256",
					"name": "amount",
					"type": "uint256"
				}
			],
			"name": "Stake",
			"type": "event"
		},
		{
			"anonymous": false,
			"inputs": [
				{
					"indexed": false,
					"internalType": "bytes32",
					"name": "poolId",
					"type": "bytes32"
				},
				{
					"indexed": false,
					"internalType": "address",
					"name": "operator",
					"type": "address"
				},
				{
					"indexed": false,
					"internalType": "uint32",
					"name": "operatorShare",
					"type": "uint32"
				}
			],
			"name": "StakingPoolCreated",
			"type": "event"
		},
		{
			"anonymous": false,
			"inputs": [
				{
					"indexed": true,
					"internalType": "uint256",
					"name": "epoch",
					"type": "uint256"
				},
				{
					"indexed": true,
					"internalType": "bytes32",
					"name": "poolId",
					"type": "bytes32"
				}
			],
			"name": "StakingPoolEarnedRewardsInEpoch",
			"type": "event"
		},
		{
			"anonymous": false,
			"inputs": [
				{
					"indexed": true,
					"internalType": "address",
					"name": "staker",
					"type": "address"
				},
				{
					"indexed": false,
					"internalType": "uint256",
					"name": "amount",
					"type": "uint256"
				}
			],
			"name": "Unstake",
			"type": "event"
		},
		{
			"inputs": [
				{
					"internalType": "address",
					"name": "target",
					"type": "address"
				}
			],
			"name": "addAuthorizedAddress",
			"outputs": [],
			"stateMutability": "nonpayable",
			"type": "function"
		},
		{
			"inputs": [
				{
					"internalType": "uint256",
					"name": "",
					"type": "uint256"
				}
			],
			"name": "aggregatedStatsByEpoch",
			"outputs": [
				{
					"internalType": "uint256",
					"name": "rewardsAvailable",
					"type": "uint256"
				},
				{
					"internalType": "uint256",
					"name": "numPoolsToFinalize",
					"type": "uint256"
				},
				{
					"internalType": "uint256",
					"name": "totalFeesCollected",
					"type": "uint256"
				},
				{
					"internalType": "uint256",
					"name": "totalWeightedStake",
					"type": "uint256"
				},
				{
					"internalType": "uint256",
					"name": "totalRewardsFinalized",
					"type": "uint256"
				}
			],
			"stateMutability": "view",
			"type": "function"
		},
		{
			"inputs": [
				{
					"internalType": "uint256",
					"name": "",
					"type": "uint256"
				}
			],
			"name": "authorities",
			"outputs": [
				{
					"internalType": "address",
					"name": "",
					"type": "address"
				}
			],
			"stateMutability": "view",
			"type": "function"
		},
		{
			"inputs": [
				{
					"internalType": "address",
					"name": "",
					"type": "address"
				}
			],
			"name": "authorized",
			"outputs": [
				{
					"internalType": "bool",
					"name": "",
					"type": "bool"
				}
			],
			"stateMutability": "view",
			"type": "function"
		},
		{
			"inputs": [],
			"name": "cobbDouglasAlphaDenominator",
			"outputs": [
				{
					"internalType": "uint32",
					"name": "",
					"type": "uint32"
				}
			],
			"stateMutability": "view",
			"type": "function"
		},
		{
			"inputs": [],
			"name": "cobbDouglasAlphaNumerator",
			"outputs": [
				{
					"internalType": "uint32",
					"name": "",
					"type": "uint32"
				}
			],
			"stateMutability": "view",
			"type": "function"
		},
		{
			"inputs": [
				{
					"internalType": "bytes32",
					"name": "poolId",
					"type": "bytes32"
				},
				{
					"internalType": "address",
					"name": "member",
					"type": "address"
				}
			],
			"name": "computeRewardBalanceOfDelegator",
			"outputs": [
				{
					"internalType": "uint256",
					"name": "reward",
					"type": "uint256"
				}
			],
			"stateMutability": "view",
			"type": "function"
		},
		{
			"inputs": [
				{
					"internalType": "bytes32",
					"name": "poolId",
					"type": "bytes32"
				}
			],
			"name": "computeRewardBalanceOfOperator",
			"outputs": [
				{
					"internalType": "uint256",
					"name": "reward",
					"type": "uint256"
				}
			],
			"stateMutability": "view",
			"type": "function"
		},
		{
			"inputs": [],
			"name": "currentEpoch",
			"outputs": [
				{
					"internalType": "uint256",
					"name": "",
					"type": "uint256"
				}
			],
			"stateMutability": "view",
			"type": "function"
		},
		{
			"inputs": [],
			"name": "currentEpochStartTimeInSeconds",
			"outputs": [
				{
					"internalType": "uint256",
					"name": "",
					"type": "uint256"
				}
			],
			"stateMutability": "view",
			"type": "function"
		},
		{
			"inputs": [],
			"name": "epochDurationInSeconds",
			"outputs": [
				{
					"internalType": "uint256",
					"name": "",
					"type": "uint256"
				}
			],
			"stateMutability": "view",
			"type": "function"
		},
		{
			"inputs": [],
			"name": "getAuthorizedAddresses",
			"outputs": [
				{
					"internalType": "address[]",
					"name": "",
					"type": "address[]"
				}
			],
			"stateMutability": "view",
			"type": "function"
		},
		{
			"inputs": [],
			"name": "getCurrentEpochEarliestEndTimeInSeconds",
			"outputs": [
				{
					"internalType": "uint256",
					"name": "",
					"type": "uint256"
				}
			],
			"stateMutability": "view",
			"type": "function"
		},
		{
			"inputs": [],
			"name": "getDragoRegistry",
			"outputs": [
				{
					"internalType": "contract IDragoRegistry",
					"name": "dragoRegistry",
					"type": "address"
				}
			],
			"stateMutability": "view",
			"type": "function"
		},
		{
			"inputs": [
				{
					"internalType": "enum IStructs.StakeStatus",
					"name": "stakeStatus",
					"type": "uint8"
				}
			],
			"name": "getGlobalStakeByStatus",
			"outputs": [
				{
					"components": [
						{
							"internalType": "uint64",
							"name": "currentEpoch",
							"type": "uint64"
						},
						{
							"internalType": "uint96",
							"name": "currentEpochBalance",
							"type": "uint96"
						},
						{
							"internalType": "uint96",
							"name": "nextEpochBalance",
							"type": "uint96"
						}
					],
					"internalType": "struct IStructs.StoredBalance",
					"name": "balance",
					"type": "tuple"
				}
			],
			"stateMutability": "view",
			"type": "function"
		},
		{
			"inputs": [],
			"name": "getGrgContract",
			"outputs": [
				{
					"internalType": "contract RigoTokenFace",
					"name": "grgContract",
					"type": "address"
				}
			],
			"stateMutability": "view",
			"type": "function"
		},
		{
			"inputs": [],
			"name": "getGrgVault",
			"outputs": [
				{
					"internalType": "contract IGrgVault",
					"name": "grgVault",
					"type": "address"
				}
			],
			"stateMutability": "view",
			"type": "function"
		},
		{
			"inputs": [
				{
					"internalType": "address",
					"name": "staker",
					"type": "address"
				},
				{
					"internalType": "enum IStructs.StakeStatus",
					"name": "stakeStatus",
					"type": "uint8"
				}
			],
			"name": "getOwnerStakeByStatus",
			"outputs": [
				{
					"components": [
						{
							"internalType": "uint64",
							"name": "currentEpoch",
							"type": "uint64"
						},
						{
							"internalType": "uint96",
							"name": "currentEpochBalance",
							"type": "uint96"
						},
						{
							"internalType": "uint96",
							"name": "nextEpochBalance",
							"type": "uint96"
						}
					],
					"internalType": "struct IStructs.StoredBalance",
					"name": "balance",
					"type": "tuple"
				}
			],
			"stateMutability": "view",
			"type": "function"
		},
		{
			"inputs": [
				{
					"internalType": "address",
					"name": "staker",
					"type": "address"
				},
				{
					"internalType": "bytes32",
					"name": "poolId",
					"type": "bytes32"
				}
			],
			"name": "getStakeDelegatedToPoolByOwner",
			"outputs": [
				{
					"components": [
						{
							"internalType": "uint64",
							"name": "currentEpoch",
							"type": "uint64"
						},
						{
							"internalType": "uint96",
							"name": "currentEpochBalance",
							"type": "uint96"
						},
						{
							"internalType": "uint96",
							"name": "nextEpochBalance",
							"type": "uint96"
						}
					],
					"internalType": "struct IStructs.StoredBalance",
					"name": "balance",
					"type": "tuple"
				}
			],
			"stateMutability": "view",
			"type": "function"
		},
		{
			"inputs": [
				{
					"internalType": "address",
					"name": "staker",
					"type": "address"
				}
			],
			"name": "getTotalStake",
			"outputs": [
				{
					"internalType": "uint256",
					"name": "",
					"type": "uint256"
				}
			],
			"stateMutability": "view",
			"type": "function"
		},
		{
			"inputs": [
				{
					"internalType": "bytes32",
					"name": "poolId",
					"type": "bytes32"
				}
			],
			"name": "getTotalStakeDelegatedToPool",
			"outputs": [
				{
					"components": [
						{
							"internalType": "uint64",
							"name": "currentEpoch",
							"type": "uint64"
						},
						{
							"internalType": "uint96",
							"name": "currentEpochBalance",
							"type": "uint96"
						},
						{
							"internalType": "uint96",
							"name": "nextEpochBalance",
							"type": "uint96"
						}
					],
					"internalType": "struct IStructs.StoredBalance",
					"name": "balance",
					"type": "tuple"
				}
			],
			"stateMutability": "view",
			"type": "function"
		},
		{
			"inputs": [],
			"name": "getWethContract",
			"outputs": [
				{
					"internalType": "contract IEtherToken",
					"name": "wethContract",
					"type": "address"
				}
			],
			"stateMutability": "view",
			"type": "function"
		},
		{
			"inputs": [],
			"name": "lastPoolId",
			"outputs": [
				{
					"internalType": "bytes32",
					"name": "",
					"type": "bytes32"
				}
			],
			"stateMutability": "view",
			"type": "function"
		},
		{
			"inputs": [],
			"name": "minimumPoolStake",
			"outputs": [
				{
					"internalType": "uint256",
					"name": "",
					"type": "uint256"
				}
			],
			"stateMutability": "view",
			"type": "function"
		},
		{
			"inputs": [],
			"name": "owner",
			"outputs": [
				{
					"internalType": "address",
					"name": "",
					"type": "address"
				}
			],
			"stateMutability": "view",
			"type": "function"
		},
		{
			"inputs": [
				{
					"internalType": "address",
					"name": "",
					"type": "address"
				}
			],
			"name": "poolIdByRbPoolAccount",
			"outputs": [
				{
					"internalType": "bytes32",
					"name": "",
					"type": "bytes32"
				}
			],
			"stateMutability": "view",
			"type": "function"
		},
		{
			"inputs": [
				{
					"internalType": "bytes32",
					"name": "",
					"type": "bytes32"
				},
				{
					"internalType": "uint256",
					"name": "",
					"type": "uint256"
				}
			],
			"name": "poolStatsByEpoch",
			"outputs": [
				{
					"internalType": "uint256",
					"name": "feesCollected",
					"type": "uint256"
				},
				{
					"internalType": "uint256",
					"name": "weightedStake",
					"type": "uint256"
				},
				{
					"internalType": "uint256",
					"name": "membersStake",
					"type": "uint256"
				}
			],
			"stateMutability": "view",
			"type": "function"
		},
		{
			"inputs": [
				{
					"internalType": "address",
					"name": "target",
					"type": "address"
				}
			],
			"name": "removeAuthorizedAddress",
			"outputs": [],
			"stateMutability": "nonpayable",
			"type": "function"
		},
		{
			"inputs": [
				{
					"internalType": "address",
					"name": "target",
					"type": "address"
				},
				{
					"internalType": "uint256",
					"name": "index",
					"type": "uint256"
				}
			],
			"name": "removeAuthorizedAddressAtIndex",
			"outputs": [],
			"stateMutability": "nonpayable",
			"type": "function"
		},
		{
			"inputs": [],
			"name": "rewardDelegatedStakeWeight",
			"outputs": [
				{
					"internalType": "uint32",
					"name": "",
					"type": "uint32"
				}
			],
			"stateMutability": "view",
			"type": "function"
		},
		{
			"inputs": [
				{
					"internalType": "bytes32",
					"name": "",
					"type": "bytes32"
				}
			],
			"name": "rewardsByPoolId",
			"outputs": [
				{
					"internalType": "uint256",
					"name": "",
					"type": "uint256"
				}
			],
			"stateMutability": "view",
			"type": "function"
		},
		{
			"inputs": [],
			"name": "stakingContract",
			"outputs": [
				{
					"internalType": "address",
					"name": "",
					"type": "address"
				}
			],
			"stateMutability": "view",
			"type": "function"
		},
		{
			"inputs": [
				{
					"internalType": "address",
					"name": "newOwner",
					"type": "address"
				}
			],
			"name": "transferOwnership",
			"outputs": [],
			"stateMutability": "nonpayable",
			"type": "function"
		},
		{
			"inputs": [
				{
					"internalType": "address",
					"name": "",
					"type": "address"
				}
			],
			"name": "validPops",
			"outputs": [
				{
					"internalType": "bool",
					"name": "",
					"type": "bool"
				}
			],
			"stateMutability": "view",
			"type": "function"
		},
		{
			"inputs": [],
			"name": "wethReservedForPoolRewards",
			"outputs": [
				{
					"internalType": "uint256",
					"name": "",
					"type": "uint256"
				}
			],
			"stateMutability": "view",
			"type": "function"
		},
		{
			"inputs": [
				{
					"internalType": "bytes32",
					"name": "poolId",
					"type": "bytes32"
				}
			],
			"name": "withdrawDelegatorRewards",
			"outputs": [],
			"stateMutability": "nonpayable",
			"type": "function"
		}
	]
}