{
	"data": {
		"bytecode": {
			"linkReferences": {},
			"object": "608060405234801561001057600080fd5b50610a12806100206000396000f3fe608060405234801561001057600080fd5b50600436106100365760003560e01c8063318698a71461003b578063577d59201461008c575b600080fd5b6100716004803603606081101561005157600080fd5b506001600160a01b038135811691602081013590911690604001356100c2565b60408051921515835260208301919091528051918290030190f35b610071600480360360608110156100a257600080fd5b506001600160a01b03813581169160208101359091169060400135610282565b600080336001600160a01b0316306001600160a01b0316638da5cb5b6040518163ffffffff1660e01b815260040160206040518083038186803b15801561010857600080fd5b505afa15801561011c573d6000803e3d6000fd5b505050506040513d602081101561013257600080fd5b50516001600160a01b031614610182576040805162461bcd60e51b815260206004820152601060248201526f4641494c5f4f574e45525f434845434b60801b604482015290519081900360640190fd5b8261018c57600080fd5b6000806101ae734fbb350052bca5417566f188eb2ebce5b19bc964878761029c565b90925090506001821515141561026d576101c98787876104fc565b6102045760405162461bcd60e51b81526004018080602001828103825260258152602001806109b86025913960400191505060405180910390fd5b61020f878787610562565b610260576040805162461bcd60e51b815260206004820181905260248201527f4c4f475f4641494c5f4752475f5245515f5341544953464945445f4552524f52604482015290519081900360640190fd5b60019350915061027a9050565b60009350915061027a9050565b935093915050565b60008061029085858561029c565b91509150935093915050565b60008060126024826102b686670de0b6b3a76400006106fc565b90506000838303600a0a896001600160a01b03166370a08231306040518263ffffffff1660e01b815260040180826001600160a01b0316815260200191505060206040518083038186803b15801561030d57600080fd5b505afa158015610321573d6000803e3d6000fd5b505050506040513d602081101561033757600080fd5b50510290506001600160a01b038816156103f9576000896001600160a01b03166370a08231306040518263ffffffff1660e01b815260040180826001600160a01b0316815260200191505060206040518083038186803b15801561039a57600080fd5b505afa1580156103ae573d6000803e3d6000fd5b505050506040513d60208110156103c457600080fd5b5051683635c9adc5dea000008110801598509091506103e45760006103f1565b80683635c9adc5dea00000035b9550506104f0565b61040161071c565b82101561044857610410610730565b81101561043a576000955061043381610427610730565b03858503600a0a610744565b9450610443565b60019550600094505b6104f0565b610450610773565b8210156104765761045f610787565b81101561043a576000955061043381610427610787565b61047e610773565b82106104a35761048c61079b565b81101561043a57600095506104338161042761079b565b6040805162461bcd60e51b815260206004820152601960248201527f554e4b4e4f574e5f4752475f4d494e494d554d5f4552524f5200000000000000604482015290519081900360640190fd5b50505050935093915050565b60006001600160a01b03831661054c576040516001600160a01b0385169083156108fc029084906000818181858888f19350505050158015610542573d6000803e3d6000fd5b506001905061055b565b6105578385846107b0565b5060015b9392505050565b60008061056d610949565b60408051306020808301919091526001600160a01b03808a1683850152808916606084015260808084018990528451808503909101815260a0840180865263161ffbd560e21b905263318698a760e01b60a4850190815260c48501958652815160e486015281519697507f318698a712b5a4e85f79dcbf539778bcd988a5938f508e6679d4764481c43ace9691959288169463587fef5494889488949092610104019185019080838360005b83811015610631578181015183820152602001610619565b50505050905090810190601f16801561065e5780820380516001836020036101000a031916815260200191505b509350505050602060405180830381600087803b15801561067e57600080fd5b505af1158015610692573d6000803e3d6000fd5b505050506040513d60208110156106a857600080fd5b50516106ef576040805162461bcd60e51b81526020600482015260116024820152701254d4d55157d25397d155915395119553607a1b604482015290519081900360640190fd5b5060019695505050505050565b600082820283158061071657508284828161071357fe5b04145b61055b57fe5b6f076cd0dd28cc461a0856f22e4000000090565b6f49484afc8987318fca49ded7c100000090565b600080821161074f57fe5b600082848161075a57fe5b04905082848161076657fe5b0681840201841461055b57fe5b6f17539683937c350e881115585800000090565b6fe6392fa705581654a7198be6e460000090565b7002d34497ad3c590da96e284e6ae424000090565b604080518082018252601981527f7472616e7366657228616464726573732c75696e74323536290000000000000060209182015281516001600160a01b0385811660248301526044808301869052845180840390910181526064909201845291810180516001600160e01b031663a9059cbb60e01b17815292518151600094859489169392918291908083835b6020831061085c5780518252601f19909201916020918201910161083d565b6001836020036101000a0380198251168184511680821785525050505050509050019150506000604051808303816000865af19150503d80600081146108be576040519150601f19603f3d011682016040523d82523d6000602084013e6108c3565b606091505b50915091508180156108f15750805115806108f157508080602001905160208110156108ee57600080fd5b50515b610942576040805162461bcd60e51b815260206004820152601960248201527f5249474f424c4f434b5f5452414e534645525f4641494c454400000000000000604482015290519081900360640190fd5b5050505050565b600080306001600160a01b031663837929b66040518163ffffffff1660e01b815260040160206040518083038186803b15801561098557600080fd5b505afa158015610999573d6000803e3d6000fd5b505050506040513d60208110156109af57600080fd5b50519150509056fe5452414e534645525f4641494c5f4752475f5245515f5341544953464945445f4552524f52a26469706673582212202ee28992a6ab135f6d17445506458423f2bf5f1b45b73758231768185900072964736f6c63430007060033",
			"opcodes": "PUSH1 0x80 PUSH1 0x40 MSTORE CALLVALUE DUP1 ISZERO PUSH2 0x10 JUMPI PUSH1 0x0 DUP1 REVERT JUMPDEST POP PUSH2 0xA12 DUP1 PUSH2 0x20 PUSH1 0x0 CODECOPY PUSH1 0x0 RETURN INVALID PUSH1 0x80 PUSH1 0x40 MSTORE CALLVALUE DUP1 ISZERO PUSH2 0x10 JUMPI PUSH1 0x0 DUP1 REVERT JUMPDEST POP PUSH1 0x4 CALLDATASIZE LT PUSH2 0x36 JUMPI PUSH1 0x0 CALLDATALOAD PUSH1 0xE0 SHR DUP1 PUSH4 0x318698A7 EQ PUSH2 0x3B JUMPI DUP1 PUSH4 0x577D5920 EQ PUSH2 0x8C JUMPI JUMPDEST PUSH1 0x0 DUP1 REVERT JUMPDEST PUSH2 0x71 PUSH1 0x4 DUP1 CALLDATASIZE SUB PUSH1 0x60 DUP2 LT ISZERO PUSH2 0x51 JUMPI PUSH1 0x0 DUP1 REVERT JUMPDEST POP PUSH1 0x1 PUSH1 0x1 PUSH1 0xA0 SHL SUB DUP2 CALLDATALOAD DUP2 AND SWAP2 PUSH1 0x20 DUP2 ADD CALLDATALOAD SWAP1 SWAP2 AND SWAP1 PUSH1 0x40 ADD CALLDATALOAD PUSH2 0xC2 JUMP JUMPDEST PUSH1 0x40 DUP1 MLOAD SWAP3 ISZERO ISZERO DUP4 MSTORE PUSH1 0x20 DUP4 ADD SWAP2 SWAP1 SWAP2 MSTORE DUP1 MLOAD SWAP2 DUP3 SWAP1 SUB ADD SWAP1 RETURN JUMPDEST PUSH2 0x71 PUSH1 0x4 DUP1 CALLDATASIZE SUB PUSH1 0x60 DUP2 LT ISZERO PUSH2 0xA2 JUMPI PUSH1 0x0 DUP1 REVERT JUMPDEST POP PUSH1 0x1 PUSH1 0x1 PUSH1 0xA0 SHL SUB DUP2 CALLDATALOAD DUP2 AND SWAP2 PUSH1 0x20 DUP2 ADD CALLDATALOAD SWAP1 SWAP2 AND SWAP1 PUSH1 0x40 ADD CALLDATALOAD PUSH2 0x282 JUMP JUMPDEST PUSH1 0x0 DUP1 CALLER PUSH1 0x1 PUSH1 0x1 PUSH1 0xA0 SHL SUB AND ADDRESS PUSH1 0x1 PUSH1 0x1 PUSH1 0xA0 SHL SUB AND PUSH4 0x8DA5CB5B PUSH1 0x40 MLOAD DUP2 PUSH4 0xFFFFFFFF AND PUSH1 0xE0 SHL DUP2 MSTORE PUSH1 0x4 ADD PUSH1 0x20 PUSH1 0x40 MLOAD DUP1 DUP4 SUB DUP2 DUP7 DUP1 EXTCODESIZE ISZERO DUP1 ISZERO PUSH2 0x108 JUMPI PUSH1 0x0 DUP1 REVERT JUMPDEST POP GAS STATICCALL ISZERO DUP1 ISZERO PUSH2 0x11C JUMPI RETURNDATASIZE PUSH1 0x0 DUP1 RETURNDATACOPY RETURNDATASIZE PUSH1 0x0 REVERT JUMPDEST POP POP POP POP PUSH1 0x40 MLOAD RETURNDATASIZE PUSH1 0x20 DUP2 LT ISZERO PUSH2 0x132 JUMPI PUSH1 0x0 DUP1 REVERT JUMPDEST POP MLOAD PUSH1 0x1 PUSH1 0x1 PUSH1 0xA0 SHL SUB AND EQ PUSH2 0x182 JUMPI PUSH1 0x40 DUP1 MLOAD PUSH3 0x461BCD PUSH1 0xE5 SHL DUP2 MSTORE PUSH1 0x20 PUSH1 0x4 DUP3 ADD MSTORE PUSH1 0x10 PUSH1 0x24 DUP3 ADD MSTORE PUSH16 0x4641494C5F4F574E45525F434845434B PUSH1 0x80 SHL PUSH1 0x44 DUP3 ADD MSTORE SWAP1 MLOAD SWAP1 DUP2 SWAP1 SUB PUSH1 0x64 ADD SWAP1 REVERT JUMPDEST DUP3 PUSH2 0x18C JUMPI PUSH1 0x0 DUP1 REVERT JUMPDEST PUSH1 0x0 DUP1 PUSH2 0x1AE PUSH20 0x4FBB350052BCA5417566F188EB2EBCE5B19BC964 DUP8 DUP8 PUSH2 0x29C JUMP JUMPDEST SWAP1 SWAP3 POP SWAP1 POP PUSH1 0x1 DUP3 ISZERO ISZERO EQ ISZERO PUSH2 0x26D JUMPI PUSH2 0x1C9 DUP8 DUP8 DUP8 PUSH2 0x4FC JUMP JUMPDEST PUSH2 0x204 JUMPI PUSH1 0x40 MLOAD PUSH3 0x461BCD PUSH1 0xE5 SHL DUP2 MSTORE PUSH1 0x4 ADD DUP1 DUP1 PUSH1 0x20 ADD DUP3 DUP2 SUB DUP3 MSTORE PUSH1 0x25 DUP2 MSTORE PUSH1 0x20 ADD DUP1 PUSH2 0x9B8 PUSH1 0x25 SWAP2 CODECOPY PUSH1 0x40 ADD SWAP2 POP POP PUSH1 0x40 MLOAD DUP1 SWAP2 SUB SWAP1 REVERT JUMPDEST PUSH2 0x20F DUP8 DUP8 DUP8 PUSH2 0x562 JUMP JUMPDEST PUSH2 0x260 JUMPI PUSH1 0x40 DUP1 MLOAD PUSH3 0x461BCD PUSH1 0xE5 SHL DUP2 MSTORE PUSH1 0x20 PUSH1 0x4 DUP3 ADD DUP2 SWAP1 MSTORE PUSH1 0x24 DUP3 ADD MSTORE PUSH32 0x4C4F475F4641494C5F4752475F5245515F5341544953464945445F4552524F52 PUSH1 0x44 DUP3 ADD MSTORE SWAP1 MLOAD SWAP1 DUP2 SWAP1 SUB PUSH1 0x64 ADD SWAP1 REVERT JUMPDEST PUSH1 0x1 SWAP4 POP SWAP2 POP PUSH2 0x27A SWAP1 POP JUMP JUMPDEST PUSH1 0x0 SWAP4 POP SWAP2 POP PUSH2 0x27A SWAP1 POP JUMP JUMPDEST SWAP4 POP SWAP4 SWAP2 POP POP JUMP JUMPDEST PUSH1 0x0 DUP1 PUSH2 0x290 DUP6 DUP6 DUP6 PUSH2 0x29C JUMP JUMPDEST SWAP2 POP SWAP2 POP SWAP4 POP SWAP4 SWAP2 POP POP JUMP JUMPDEST PUSH1 0x0 DUP1 PUSH1 0x12 PUSH1 0x24 DUP3 PUSH2 0x2B6 DUP7 PUSH8 0xDE0B6B3A7640000 PUSH2 0x6FC JUMP JUMPDEST SWAP1 POP PUSH1 0x0 DUP4 DUP4 SUB PUSH1 0xA EXP DUP10 PUSH1 0x1 PUSH1 0x1 PUSH1 0xA0 SHL SUB AND PUSH4 0x70A08231 ADDRESS PUSH1 0x40 MLOAD DUP3 PUSH4 0xFFFFFFFF AND PUSH1 0xE0 SHL DUP2 MSTORE PUSH1 0x4 ADD DUP1 DUP3 PUSH1 0x1 PUSH1 0x1 PUSH1 0xA0 SHL SUB AND DUP2 MSTORE PUSH1 0x20 ADD SWAP2 POP POP PUSH1 0x20 PUSH1 0x40 MLOAD DUP1 DUP4 SUB DUP2 DUP7 DUP1 EXTCODESIZE ISZERO DUP1 ISZERO PUSH2 0x30D JUMPI PUSH1 0x0 DUP1 REVERT JUMPDEST POP GAS STATICCALL ISZERO DUP1 ISZERO PUSH2 0x321 JUMPI RETURNDATASIZE PUSH1 0x0 DUP1 RETURNDATACOPY RETURNDATASIZE PUSH1 0x0 REVERT JUMPDEST POP POP POP POP PUSH1 0x40 MLOAD RETURNDATASIZE PUSH1 0x20 DUP2 LT ISZERO PUSH2 0x337 JUMPI PUSH1 0x0 DUP1 REVERT JUMPDEST POP MLOAD MUL SWAP1 POP PUSH1 0x1 PUSH1 0x1 PUSH1 0xA0 SHL SUB DUP9 AND ISZERO PUSH2 0x3F9 JUMPI PUSH1 0x0 DUP10 PUSH1 0x1 PUSH1 0x1 PUSH1 0xA0 SHL SUB AND PUSH4 0x70A08231 ADDRESS PUSH1 0x40 MLOAD DUP3 PUSH4 0xFFFFFFFF AND PUSH1 0xE0 SHL DUP2 MSTORE PUSH1 0x4 ADD DUP1 DUP3 PUSH1 0x1 PUSH1 0x1 PUSH1 0xA0 SHL SUB AND DUP2 MSTORE PUSH1 0x20 ADD SWAP2 POP POP PUSH1 0x20 PUSH1 0x40 MLOAD DUP1 DUP4 SUB DUP2 DUP7 DUP1 EXTCODESIZE ISZERO DUP1 ISZERO PUSH2 0x39A JUMPI PUSH1 0x0 DUP1 REVERT JUMPDEST POP GAS STATICCALL ISZERO DUP1 ISZERO PUSH2 0x3AE JUMPI RETURNDATASIZE PUSH1 0x0 DUP1 RETURNDATACOPY RETURNDATASIZE PUSH1 0x0 REVERT JUMPDEST POP POP POP POP PUSH1 0x40 MLOAD RETURNDATASIZE PUSH1 0x20 DUP2 LT ISZERO PUSH2 0x3C4 JUMPI PUSH1 0x0 DUP1 REVERT JUMPDEST POP MLOAD PUSH9 0x3635C9ADC5DEA00000 DUP2 LT DUP1 ISZERO SWAP9 POP SWAP1 SWAP2 POP PUSH2 0x3E4 JUMPI PUSH1 0x0 PUSH2 0x3F1 JUMP JUMPDEST DUP1 PUSH9 0x3635C9ADC5DEA00000 SUB JUMPDEST SWAP6 POP POP PUSH2 0x4F0 JUMP JUMPDEST PUSH2 0x401 PUSH2 0x71C JUMP JUMPDEST DUP3 LT ISZERO PUSH2 0x448 JUMPI PUSH2 0x410 PUSH2 0x730 JUMP JUMPDEST DUP2 LT ISZERO PUSH2 0x43A JUMPI PUSH1 0x0 SWAP6 POP PUSH2 0x433 DUP2 PUSH2 0x427 PUSH2 0x730 JUMP JUMPDEST SUB DUP6 DUP6 SUB PUSH1 0xA EXP PUSH2 0x744 JUMP JUMPDEST SWAP5 POP PUSH2 0x443 JUMP JUMPDEST PUSH1 0x1 SWAP6 POP PUSH1 0x0 SWAP5 POP JUMPDEST PUSH2 0x4F0 JUMP JUMPDEST PUSH2 0x450 PUSH2 0x773 JUMP JUMPDEST DUP3 LT ISZERO PUSH2 0x476 JUMPI PUSH2 0x45F PUSH2 0x787 JUMP JUMPDEST DUP2 LT ISZERO PUSH2 0x43A JUMPI PUSH1 0x0 SWAP6 POP PUSH2 0x433 DUP2 PUSH2 0x427 PUSH2 0x787 JUMP JUMPDEST PUSH2 0x47E PUSH2 0x773 JUMP JUMPDEST DUP3 LT PUSH2 0x4A3 JUMPI PUSH2 0x48C PUSH2 0x79B JUMP JUMPDEST DUP2 LT ISZERO PUSH2 0x43A JUMPI PUSH1 0x0 SWAP6 POP PUSH2 0x433 DUP2 PUSH2 0x427 PUSH2 0x79B JUMP JUMPDEST PUSH1 0x40 DUP1 MLOAD PUSH3 0x461BCD PUSH1 0xE5 SHL DUP2 MSTORE PUSH1 0x20 PUSH1 0x4 DUP3 ADD MSTORE PUSH1 0x19 PUSH1 0x24 DUP3 ADD MSTORE PUSH32 0x554E4B4E4F574E5F4752475F4D494E494D554D5F4552524F5200000000000000 PUSH1 0x44 DUP3 ADD MSTORE SWAP1 MLOAD SWAP1 DUP2 SWAP1 SUB PUSH1 0x64 ADD SWAP1 REVERT JUMPDEST POP POP POP POP SWAP4 POP SWAP4 SWAP2 POP POP JUMP JUMPDEST PUSH1 0x0 PUSH1 0x1 PUSH1 0x1 PUSH1 0xA0 SHL SUB DUP4 AND PUSH2 0x54C JUMPI PUSH1 0x40 MLOAD PUSH1 0x1 PUSH1 0x1 PUSH1 0xA0 SHL SUB DUP6 AND SWAP1 DUP4 ISZERO PUSH2 0x8FC MUL SWAP1 DUP5 SWAP1 PUSH1 0x0 DUP2 DUP2 DUP2 DUP6 DUP9 DUP9 CALL SWAP4 POP POP POP POP ISZERO DUP1 ISZERO PUSH2 0x542 JUMPI RETURNDATASIZE PUSH1 0x0 DUP1 RETURNDATACOPY RETURNDATASIZE PUSH1 0x0 REVERT JUMPDEST POP PUSH1 0x1 SWAP1 POP PUSH2 0x55B JUMP JUMPDEST PUSH2 0x557 DUP4 DUP6 DUP5 PUSH2 0x7B0 JUMP JUMPDEST POP PUSH1 0x1 JUMPDEST SWAP4 SWAP3 POP POP POP JUMP JUMPDEST PUSH1 0x0 DUP1 PUSH2 0x56D PUSH2 0x949 JUMP JUMPDEST PUSH1 0x40 DUP1 MLOAD ADDRESS PUSH1 0x20 DUP1 DUP4 ADD SWAP2 SWAP1 SWAP2 MSTORE PUSH1 0x1 PUSH1 0x1 PUSH1 0xA0 SHL SUB DUP1 DUP11 AND DUP4 DUP6 ADD MSTORE DUP1 DUP10 AND PUSH1 0x60 DUP5 ADD MSTORE PUSH1 0x80 DUP1 DUP5 ADD DUP10 SWAP1 MSTORE DUP5 MLOAD DUP1 DUP6 SUB SWAP1 SWAP2 ADD DUP2 MSTORE PUSH1 0xA0 DUP5 ADD DUP1 DUP7 MSTORE PUSH4 0x161FFBD5 PUSH1 0xE2 SHL SWAP1 MSTORE PUSH4 0x318698A7 PUSH1 0xE0 SHL PUSH1 0xA4 DUP6 ADD SWAP1 DUP2 MSTORE PUSH1 0xC4 DUP6 ADD SWAP6 DUP7 MSTORE DUP2 MLOAD PUSH1 0xE4 DUP7 ADD MSTORE DUP2 MLOAD SWAP7 SWAP8 POP PUSH32 0x318698A712B5A4E85F79DCBF539778BCD988A5938F508E6679D4764481C43ACE SWAP7 SWAP2 SWAP6 SWAP3 DUP9 AND SWAP5 PUSH4 0x587FEF54 SWAP5 DUP9 SWAP5 DUP9 SWAP5 SWAP1 SWAP3 PUSH2 0x104 ADD SWAP2 DUP6 ADD SWAP1 DUP1 DUP4 DUP4 PUSH1 0x0 JUMPDEST DUP4 DUP2 LT ISZERO PUSH2 0x631 JUMPI DUP2 DUP2 ADD MLOAD DUP4 DUP3 ADD MSTORE PUSH1 0x20 ADD PUSH2 0x619 JUMP JUMPDEST POP POP POP POP SWAP1 POP SWAP1 DUP2 ADD SWAP1 PUSH1 0x1F AND DUP1 ISZERO PUSH2 0x65E JUMPI DUP1 DUP3 SUB DUP1 MLOAD PUSH1 0x1 DUP4 PUSH1 0x20 SUB PUSH2 0x100 EXP SUB NOT AND DUP2 MSTORE PUSH1 0x20 ADD SWAP2 POP JUMPDEST POP SWAP4 POP POP POP POP PUSH1 0x20 PUSH1 0x40 MLOAD DUP1 DUP4 SUB DUP2 PUSH1 0x0 DUP8 DUP1 EXTCODESIZE ISZERO DUP1 ISZERO PUSH2 0x67E JUMPI PUSH1 0x0 DUP1 REVERT JUMPDEST POP GAS CALL ISZERO DUP1 ISZERO PUSH2 0x692 JUMPI RETURNDATASIZE PUSH1 0x0 DUP1 RETURNDATACOPY RETURNDATASIZE PUSH1 0x0 REVERT JUMPDEST POP POP POP POP PUSH1 0x40 MLOAD RETURNDATASIZE PUSH1 0x20 DUP2 LT ISZERO PUSH2 0x6A8 JUMPI PUSH1 0x0 DUP1 REVERT JUMPDEST POP MLOAD PUSH2 0x6EF JUMPI PUSH1 0x40 DUP1 MLOAD PUSH3 0x461BCD PUSH1 0xE5 SHL DUP2 MSTORE PUSH1 0x20 PUSH1 0x4 DUP3 ADD MSTORE PUSH1 0x11 PUSH1 0x24 DUP3 ADD MSTORE PUSH17 0x1254D4D55157D25397D155915395119553 PUSH1 0x7A SHL PUSH1 0x44 DUP3 ADD MSTORE SWAP1 MLOAD SWAP1 DUP2 SWAP1 SUB PUSH1 0x64 ADD SWAP1 REVERT JUMPDEST POP PUSH1 0x1 SWAP7 SWAP6 POP POP POP POP POP POP JUMP JUMPDEST PUSH1 0x0 DUP3 DUP3 MUL DUP4 ISZERO DUP1 PUSH2 0x716 JUMPI POP DUP3 DUP5 DUP3 DUP2 PUSH2 0x713 JUMPI INVALID JUMPDEST DIV EQ JUMPDEST PUSH2 0x55B JUMPI INVALID JUMPDEST PUSH16 0x76CD0DD28CC461A0856F22E40000000 SWAP1 JUMP JUMPDEST PUSH16 0x49484AFC8987318FCA49DED7C1000000 SWAP1 JUMP JUMPDEST PUSH1 0x0 DUP1 DUP3 GT PUSH2 0x74F JUMPI INVALID JUMPDEST PUSH1 0x0 DUP3 DUP5 DUP2 PUSH2 0x75A JUMPI INVALID JUMPDEST DIV SWAP1 POP DUP3 DUP5 DUP2 PUSH2 0x766 JUMPI INVALID JUMPDEST MOD DUP2 DUP5 MUL ADD DUP5 EQ PUSH2 0x55B JUMPI INVALID JUMPDEST PUSH16 0x17539683937C350E8811155858000000 SWAP1 JUMP JUMPDEST PUSH16 0xE6392FA705581654A7198BE6E4600000 SWAP1 JUMP JUMPDEST PUSH17 0x2D34497AD3C590DA96E284E6AE4240000 SWAP1 JUMP JUMPDEST PUSH1 0x40 DUP1 MLOAD DUP1 DUP3 ADD DUP3 MSTORE PUSH1 0x19 DUP2 MSTORE PUSH32 0x7472616E7366657228616464726573732C75696E743235362900000000000000 PUSH1 0x20 SWAP2 DUP3 ADD MSTORE DUP2 MLOAD PUSH1 0x1 PUSH1 0x1 PUSH1 0xA0 SHL SUB DUP6 DUP2 AND PUSH1 0x24 DUP4 ADD MSTORE PUSH1 0x44 DUP1 DUP4 ADD DUP7 SWAP1 MSTORE DUP5 MLOAD DUP1 DUP5 SUB SWAP1 SWAP2 ADD DUP2 MSTORE PUSH1 0x64 SWAP1 SWAP3 ADD DUP5 MSTORE SWAP2 DUP2 ADD DUP1 MLOAD PUSH1 0x1 PUSH1 0x1 PUSH1 0xE0 SHL SUB AND PUSH4 0xA9059CBB PUSH1 0xE0 SHL OR DUP2 MSTORE SWAP3 MLOAD DUP2 MLOAD PUSH1 0x0 SWAP5 DUP6 SWAP5 DUP10 AND SWAP4 SWAP3 SWAP2 DUP3 SWAP2 SWAP1 DUP1 DUP4 DUP4 JUMPDEST PUSH1 0x20 DUP4 LT PUSH2 0x85C JUMPI DUP1 MLOAD DUP3 MSTORE PUSH1 0x1F NOT SWAP1 SWAP3 ADD SWAP2 PUSH1 0x20 SWAP2 DUP3 ADD SWAP2 ADD PUSH2 0x83D JUMP JUMPDEST PUSH1 0x1 DUP4 PUSH1 0x20 SUB PUSH2 0x100 EXP SUB DUP1 NOT DUP3 MLOAD AND DUP2 DUP5 MLOAD AND DUP1 DUP3 OR DUP6 MSTORE POP POP POP POP POP POP SWAP1 POP ADD SWAP2 POP POP PUSH1 0x0 PUSH1 0x40 MLOAD DUP1 DUP4 SUB DUP2 PUSH1 0x0 DUP7 GAS CALL SWAP2 POP POP RETURNDATASIZE DUP1 PUSH1 0x0 DUP2 EQ PUSH2 0x8BE JUMPI PUSH1 0x40 MLOAD SWAP2 POP PUSH1 0x1F NOT PUSH1 0x3F RETURNDATASIZE ADD AND DUP3 ADD PUSH1 0x40 MSTORE RETURNDATASIZE DUP3 MSTORE RETURNDATASIZE PUSH1 0x0 PUSH1 0x20 DUP5 ADD RETURNDATACOPY PUSH2 0x8C3 JUMP JUMPDEST PUSH1 0x60 SWAP2 POP JUMPDEST POP SWAP2 POP SWAP2 POP DUP2 DUP1 ISZERO PUSH2 0x8F1 JUMPI POP DUP1 MLOAD ISZERO DUP1 PUSH2 0x8F1 JUMPI POP DUP1 DUP1 PUSH1 0x20 ADD SWAP1 MLOAD PUSH1 0x20 DUP2 LT ISZERO PUSH2 0x8EE JUMPI PUSH1 0x0 DUP1 REVERT JUMPDEST POP MLOAD JUMPDEST PUSH2 0x942 JUMPI PUSH1 0x40 DUP1 MLOAD PUSH3 0x461BCD PUSH1 0xE5 SHL DUP2 MSTORE PUSH1 0x20 PUSH1 0x4 DUP3 ADD MSTORE PUSH1 0x19 PUSH1 0x24 DUP3 ADD MSTORE PUSH32 0x5249474F424C4F434B5F5452414E534645525F4641494C454400000000000000 PUSH1 0x44 DUP3 ADD MSTORE SWAP1 MLOAD SWAP1 DUP2 SWAP1 SUB PUSH1 0x64 ADD SWAP1 REVERT JUMPDEST POP POP POP POP POP JUMP JUMPDEST PUSH1 0x0 DUP1 ADDRESS PUSH1 0x1 PUSH1 0x1 PUSH1 0xA0 SHL SUB AND PUSH4 0x837929B6 PUSH1 0x40 MLOAD DUP2 PUSH4 0xFFFFFFFF AND PUSH1 0xE0 SHL DUP2 MSTORE PUSH1 0x4 ADD PUSH1 0x20 PUSH1 0x40 MLOAD DUP1 DUP4 SUB DUP2 DUP7 DUP1 EXTCODESIZE ISZERO DUP1 ISZERO PUSH2 0x985 JUMPI PUSH1 0x0 DUP1 REVERT JUMPDEST POP GAS STATICCALL ISZERO DUP1 ISZERO PUSH2 0x999 JUMPI RETURNDATASIZE PUSH1 0x0 DUP1 RETURNDATACOPY RETURNDATASIZE PUSH1 0x0 REVERT JUMPDEST POP POP POP POP PUSH1 0x40 MLOAD RETURNDATASIZE PUSH1 0x20 DUP2 LT ISZERO PUSH2 0x9AF JUMPI PUSH1 0x0 DUP1 REVERT JUMPDEST POP MLOAD SWAP2 POP POP SWAP1 JUMP INVALID SLOAD MSTORE COINBASE 0x4E MSTORE8 CHAINID GASLIMIT MSTORE 0x5F CHAINID COINBASE 0x49 0x4C 0x5F SELFBALANCE MSTORE SELFBALANCE 0x5F MSTORE GASLIMIT MLOAD 0x5F MSTORE8 COINBASE SLOAD 0x49 MSTORE8 CHAINID 0x49 GASLIMIT DIFFICULTY 0x5F GASLIMIT MSTORE MSTORE 0x4F MSTORE LOG2 PUSH5 0x6970667358 0x22 SLT KECCAK256 0x2E 0xE2 DUP10 SWAP3 0xA6 0xAB SGT 0x5F PUSH14 0x17445506458423F2BF5F1B45B737 PC 0x23 OR PUSH9 0x185900072964736F6C PUSH4 0x43000706 STOP CALLER "
		},
		"gasEstimates": {
			"creation": {
				"codeDepositCost": "515600",
				"executionCost": "549",
				"totalCost": "516149"
			},
			"external": {
				"poolGRGminimumSatisfied(address,address,uint256)": "infinite",
				"transferToSelfCustody(address,address,uint256)": "infinite"
			},
			"internal": {
				"_poolGRGminimumSatisfied(address,address,uint256)": "infinite",
				"_safeTransfer(address,address,uint256)": "infinite",
				"findPi()": "infinite",
				"findPi2()": "15",
				"findPi3()": "15",
				"findPi4()": "15",
				"findPi5()": "15",
				"findPi6()": "15",
				"getDragoEventful()": "infinite",
				"logTransferToSelfCustody(address,address,uint256)": "infinite",
				"transferToSelfCustodyInternal(address payable,address,uint256)": "infinite"
			}
		},
		"methodIdentifiers": {
			"poolGRGminimumSatisfied(address,address,uint256)": "577d5920",
			"transferToSelfCustody(address,address,uint256)": "318698a7"
		}
	},
	"abi": [
		{
			"inputs": [
				{
					"internalType": "address",
					"name": "grgTokenAddress",
					"type": "address"
				},
				{
					"internalType": "address",
					"name": "tokenAddress",
					"type": "address"
				},
				{
					"internalType": "uint256",
					"name": "amount",
					"type": "uint256"
				}
			],
			"name": "poolGRGminimumSatisfied",
			"outputs": [
				{
					"internalType": "bool",
					"name": "satisfied",
					"type": "bool"
				},
				{
					"internalType": "uint256",
					"name": "shortfall",
					"type": "uint256"
				}
			],
			"stateMutability": "view",
			"type": "function"
		},
		{
			"inputs": [
				{
					"internalType": "address payable",
					"name": "selfCustodyAccount",
					"type": "address"
				},
				{
					"internalType": "address",
					"name": "token",
					"type": "address"
				},
				{
					"internalType": "uint256",
					"name": "amount",
					"type": "uint256"
				}
			],
			"name": "transferToSelfCustody",
			"outputs": [
				{
					"internalType": "bool",
					"name": "",
					"type": "bool"
				},
				{
					"internalType": "uint256",
					"name": "",
					"type": "uint256"
				}
			],
			"stateMutability": "nonpayable",
			"type": "function"
		}
	]
}