{
	"data": {
		"bytecode": {
			"linkReferences": {},
			"object": "73e592427a0aece92de3edee1f18e0157c058615646080526102406040526018610200527f617070726f766528616464726573732c75696e743235362900000000000000006102205263095ea7b360e01b60a05263ca490e3b60e01b60c052632b1bdddb60e01b60e0526302b678fd60e31b61010052638d9d909160e01b61012052630910874560e11b6101405263df2ab5bb60e01b610160526307070c4d60e51b6101805263125012df60e21b6101a052639b2c0a3760e01b6101c052631c58db4f60e01b6101e0523480156100d557600080fd5b5060805160a05160c05160e05161010051610120516101405161016051610180516101a0516101c0516101e051611cb36101de600039600061040e015260006105dc015260006104880152600061066c015260006105510152600061050d01526000610324015260006103990152600061023f015260006102af015260006113000152600081816107ab0152818161082001528181610929015281816109bc015281816109e501528181610b0101528181610b9a01528181610c9301528181610d2601528181610d9301528181610e4401528181610ed701528181610f0001528181610ffc0152818161108f015281816110fc0152818161113201526111f30152611cb36000f3fe60806040526004361061009c5760003560e01c8063ac9650d811610064578063ac9650d814610109578063c04b8d591461011c578063db3e21981461012f578063df2ab5bb14610142578063e0e189a014610155578063f28c04981461016857600080fd5b806312210e8a146100a15780631c58db4f146100ab578063414bf389146100be57806349404b7c146100e35780639b2c0a37146100f6575b600080fd5b6100a961017b565b005b6100a96100b9366004611594565b610185565b6100d16100cc3660046115c6565b610191565b60405190815260200160405180910390f35b6100a96100f1366004611608565b6101b0565b6100a9610104366004611638565b6101be565b6100a9610117366004611682565b6101d0565b6100d161012a366004611709565b61075a565b6100d161013d3660046115c6565b610768565b6100a9610150366004611746565b61077c565b6100a9610163366004611788565b610787565b6100d1610176366004611709565b61079b565b6101836107a9565b565b61018e81610818565b50565b60006101aa6101a536849003840184611922565b610905565b92915050565b6101ba8282610aff565b5050565b6101ca84848484610b98565b50505050565b60005b818110156107555760008383838181106101ef576101ef61193f565b90506020028101906102019190611955565b8080601f01602080910402602001604051908101604052809392919081815260200183838082843760009201919091525050505060208101519091507f00000000000000000000000000000000000000000000000000000000000000006001600160e01b031990811690821614156102ad576102a78585858181106102885761028861193f565b905060200281019061029a9190611955565b8101906101a59190611922565b50610740565b7f00000000000000000000000000000000000000000000000000000000000000006001600160e01b031916816001600160e01b0319161415610322576102a78585858181106102fe576102fe61193f565b90506020028101906103109190611955565b81019061031d9190611a71565b610c5f565b7f00000000000000000000000000000000000000000000000000000000000000006001600160e01b031916816001600160e01b0319161415610397576102a78585858181106103735761037361193f565b90506020028101906103859190611955565b8101906103929190611922565b610e20565b7f00000000000000000000000000000000000000000000000000000000000000006001600160e01b031916816001600160e01b031916141561040c576102a78585858181106103e8576103e861193f565b90506020028101906103fa9190611955565b8101906104079190611a71565b610fc8565b7f00000000000000000000000000000000000000000000000000000000000000006001600160e01b031916816001600160e01b03191614156104865761048185858581811061045d5761045d61193f565b905060200281019061046f9190611955565b81019061047c9190611594565b610818565b610740565b7f00000000000000000000000000000000000000000000000000000000000000006001600160e01b031916816001600160e01b031916141561050b576000808686868181106104d7576104d761193f565b90506020028101906104e99190611955565b8101906104f69190611608565b915091506105048282610aff565b5050610740565b7f00000000000000000000000000000000000000000000000000000000000000006001600160e01b031916816001600160e01b031916141561054f576104816107a9565b7f00000000000000000000000000000000000000000000000000000000000000006001600160e01b031916816001600160e01b03191614156105da5760008060008787878181106105a2576105a261193f565b90506020028101906105b49190611955565b8101906105c19190611746565b9250925092506105d2838383611130565b505050610740565b7f00000000000000000000000000000000000000000000000000000000000000006001600160e01b031916816001600160e01b031916141561066a5760008060008088888881811061062e5761062e61193f565b90506020028101906106409190611955565b81019061064d9190611638565b935093509350935061066184848484610b98565b50505050610740565b7f00000000000000000000000000000000000000000000000000000000000000006001600160e01b031916816001600160e01b03191614156107005760008060008060008989898181106106c0576106c061193f565b90506020028101906106d29190611955565b8101906106df9190611788565b945094509450945094506106f685858585856111f1565b5050505050610740565b60405162461bcd60e51b815260206004820152601060248201526f2aa725a727aba72fa9a2a622a1aa27a960811b60448201526064015b60405180910390fd5b5050808061074d90611abc565b9150506101d3565b505050565b60006101aa61031d83611ad7565b60006101aa61039236849003840184611922565b610755838383611130565b61079485858585856111f1565b5050505050565b60006101aa61040783611ad7565b7f00000000000000000000000000000000000000000000000000000000000000006001600160a01b03166312210e8a6040518163ffffffff1660e01b8152600401600060405180830381600087803b15801561080457600080fd5b505af11580156101ca573d6000803e3d6000fd5b801561018e577f00000000000000000000000000000000000000000000000000000000000000006001600160a01b0316634aa4a4fc6040518163ffffffff1660e01b815260040160206040518083038186803b15801561087757600080fd5b505afa15801561088b573d6000803e3d6000fd5b505050506040513d601f19601f820116820180604052508101906108af9190611ae3565b6001600160a01b031663d0e30db0826040518263ffffffff1660e01b81526004016000604051808303818588803b1580156108e957600080fd5b505af11580156108fd573d6000803e3d6000fd5b505050505050565b60a08101518151604051636eb1769f60e11b81523060048201526001600160a01b037f00000000000000000000000000000000000000000000000000000000000000008116602483015260009392169063dd62ed3e9060440160206040518083038186803b15801561097657600080fd5b505afa15801561098a573d6000803e3d6000fd5b505050506040513d601f19601f820116820180604052508101906109ae9190611b00565b10156109e35781516109e3907f00000000000000000000000000000000000000000000000000000000000000006000196112c2565b7f00000000000000000000000000000000000000000000000000000000000000006001600160a01b031663414bf38960405180610100016040528085600001516001600160a01b0316815260200185602001516001600160a01b03168152602001856040015162ffffff168152602001306001600160a01b03168152602001856080015181526020018560a0015181526020018560c0015181526020018560e001516001600160a01b03168152506040518263ffffffff1660e01b8152600401610aad9190611b19565b602060405180830381600087803b158015610ac757600080fd5b505af1158015610adb573d6000803e3d6000fd5b505050506040513d601f19601f820116820180604052508101906101aa9190611b00565b7f00000000000000000000000000000000000000000000000000000000000000006001600160a01b03166349404b7c83306001600160a01b0316846001600160a01b03161415610b4f5730610b51565b305b6040516001600160e01b031960e085901b16815260048101929092526001600160a01b03166024820152604401600060405180830381600087803b1580156108e957600080fd5b7f00000000000000000000000000000000000000000000000000000000000000006001600160a01b0316639b2c0a3785306001600160a01b0316866001600160a01b03161415610be85730610bea565b305b6040516001600160e01b031960e085901b16815260048101929092526001600160a01b0390811660248301526044820186905284166064820152608401600060405180830381600087803b158015610c4157600080fd5b505af1158015610c55573d6000803e3d6000fd5b5050505050505050565b600080610c6f83600001516113f9565b50506060840151604051636eb1769f60e11b81523060048201526001600160a01b037f000000000000000000000000000000000000000000000000000000000000000081166024830152929350909183169063dd62ed3e9060440160206040518083038186803b158015610ce257600080fd5b505afa158015610cf6573d6000803e3d6000fd5b505050506040513d601f19601f82011682018060405250810190610d1a9190611b00565b1015610d4d57610d4d817f00000000000000000000000000000000000000000000000000000000000000006000196112c2565b6040805160a0810182528451815230602082015284820151818301526060808601519082015260808086015190820152905163c04b8d5960e01b81526001600160a01b037f0000000000000000000000000000000000000000000000000000000000000000169163c04b8d5991610dc79190600401611c14565b602060405180830381600087803b158015610de157600080fd5b505af1158015610df5573d6000803e3d6000fd5b505050506040513d601f19601f82011682018060405250810190610e199190611b00565b9392505050565b60c08101518151604051636eb1769f60e11b81523060048201526001600160a01b037f00000000000000000000000000000000000000000000000000000000000000008116602483015260009392169063dd62ed3e9060440160206040518083038186803b158015610e9157600080fd5b505afa158015610ea5573d6000803e3d6000fd5b505050506040513d601f19601f82011682018060405250810190610ec99190611b00565b1015610efe578151610efe907f00000000000000000000000000000000000000000000000000000000000000006000196112c2565b7f00000000000000000000000000000000000000000000000000000000000000006001600160a01b031663db3e219860405180610100016040528085600001516001600160a01b0316815260200185602001516001600160a01b03168152602001856040015162ffffff168152602001306001600160a01b03168152602001856080015181526020018560a0015181526020018560c0015181526020018560e001516001600160a01b03168152506040518263ffffffff1660e01b8152600401610aad9190611b19565b600080610fd883600001516113f9565b50506080840151604051636eb1769f60e11b81523060048201526001600160a01b037f000000000000000000000000000000000000000000000000000000000000000081166024830152929350909183169063dd62ed3e9060440160206040518083038186803b15801561104b57600080fd5b505afa15801561105f573d6000803e3d6000fd5b505050506040513d601f19601f820116820180604052508101906110839190611b00565b10156110b6576110b6817f00000000000000000000000000000000000000000000000000000000000000006000196112c2565b6040805160a08101825284518152306020820152848201518183015260608086015190820152608080860151908201529051631e51809360e31b81526001600160a01b037f0000000000000000000000000000000000000000000000000000000000000000169163f28c049891610dc79190600401611c14565b7f00000000000000000000000000000000000000000000000000000000000000006001600160a01b031663df2ab5bb8484306001600160a01b0316856001600160a01b031614156111815730611183565b305b60405160e085901b6001600160e01b03191681526001600160a01b03938416600482015260248101929092529091166044820152606401600060405180830381600087803b1580156111d457600080fd5b505af11580156111e8573d6000803e3d6000fd5b50505050505050565b7f00000000000000000000000000000000000000000000000000000000000000006001600160a01b031663e0e189a08686306001600160a01b0316876001600160a01b031614156112425730611244565b305b6040516001600160e01b031960e086901b1681526001600160a01b03938416600482015260248101929092528216604482015260648101869052908416608482015260a401600060405180830381600087803b1580156112a357600080fd5b505af11580156112b7573d6000803e3d6000fd5b505050505050505050565b604080516001600160a01b038481166024830152604480830185905283518084039091018152606490920183526020820180516001600160e01b03167f00000000000000000000000000000000000000000000000000000000000000006001600160e01b03191617905291516000928392908716916113419190611c27565b6000604051808303816000865af19150503d806000811461137e576040519150601f19603f3d011682016040523d82523d6000602084013e611383565b606091505b50915091508180156113ad5750805115806113ad5750808060200190518101906113ad9190611c43565b6107945760405162461bcd60e51b815260206004820152601860248201527f5249474f424c4f434b5f415050524f56455f4641494c454400000000000000006044820152606401610737565b600080806114078482611435565b92506114148460146114e9565b905061142c61142560036014611c65565b8590611435565b91509193909250565b600081611443816014611c65565b10156114865760405162461bcd60e51b8152602060048201526012602482015271746f416464726573735f6f766572666c6f7760701b6044820152606401610737565b611491826014611c65565b835110156114d95760405162461bcd60e51b8152602060048201526015602482015274746f416464726573735f6f75744f66426f756e647360581b6044820152606401610737565b500160200151600160601b900490565b6000816114f7816003611c65565b10156115395760405162461bcd60e51b8152602060048201526011602482015270746f55696e7432345f6f766572666c6f7760781b6044820152606401610737565b611544826003611c65565b8351101561158b5760405162461bcd60e51b8152602060048201526014602482015273746f55696e7432345f6f75744f66426f756e647360601b6044820152606401610737565b50016003015190565b6000602082840312156115a657600080fd5b5035919050565b600061010082840312156115c057600080fd5b50919050565b600061010082840312156115d957600080fd5b610e1983836115ad565b6001600160a01b038116811461018e57600080fd5b8035611603816115e3565b919050565b6000806040838503121561161b57600080fd5b82359150602083013561162d816115e3565b809150509250929050565b6000806000806080858703121561164e57600080fd5b843593506020850135611660816115e3565b9250604085013591506060850135611677816115e3565b939692955090935050565b6000806020838503121561169557600080fd5b823567ffffffffffffffff808211156116ad57600080fd5b818501915085601f8301126116c157600080fd5b8135818111156116d057600080fd5b8660208260051b85010111156116e557600080fd5b60209290920196919550909350505050565b600060a082840312156115c057600080fd5b60006020828403121561171b57600080fd5b813567ffffffffffffffff81111561173257600080fd5b61173e848285016116f7565b949350505050565b60008060006060848603121561175b57600080fd5b8335611766816115e3565b925060208401359150604084013561177d816115e3565b809150509250925092565b600080600080600060a086880312156117a057600080fd5b85356117ab816115e3565b94506020860135935060408601356117c2816115e3565b92506060860135915060808601356117d9816115e3565b809150509295509295909350565b634e487b7160e01b600052604160045260246000fd5b60405160a0810167ffffffffffffffff81118282101715611820576118206117e7565b60405290565b604051601f8201601f1916810167ffffffffffffffff8111828210171561184f5761184f6117e7565b604052919050565b803562ffffff8116811461160357600080fd5b600061010080838503121561187e57600080fd5b6040519081019067ffffffffffffffff821181831017156118a1576118a16117e7565b81604052809250833591506118b5826115e3565b8181526118c4602085016115f8565b60208201526118d560408501611857565b60408201526118e6606085016115f8565b60608201526080840135608082015260a084013560a082015260c084013560c082015261191560e085016115f8565b60e0820152505092915050565b6000610100828403121561193557600080fd5b610e19838361186a565b634e487b7160e01b600052603260045260246000fd5b6000808335601e1984360301811261196c57600080fd5b83018035915067ffffffffffffffff82111561198757600080fd5b60200191503681900382131561199c57600080fd5b9250929050565b600060a082840312156119b557600080fd5b6119bd6117fd565b9050813567ffffffffffffffff808211156119d757600080fd5b818401915084601f8301126119eb57600080fd5b81356020828211156119ff576119ff6117e7565b611a11601f8301601f19168201611826565b92508183528681838601011115611a2757600080fd5b81818501828501376000818385010152828552611a458187016115f8565b818601525050505060408201356040820152606082013560608201526080820135608082015292915050565b600060208284031215611a8357600080fd5b813567ffffffffffffffff811115611a9a57600080fd5b61173e848285016119a3565b634e487b7160e01b600052601160045260246000fd5b6000600019821415611ad057611ad0611aa6565b5060010190565b60006101aa36836119a3565b600060208284031215611af557600080fd5b8151610e19816115e3565b600060208284031215611b1257600080fd5b5051919050565b61010081016101aa828480516001600160a01b03908116835260208083015182169084015260408083015162ffffff16908401526060808301518216908401526080808301519084015260a0828101519084015260c0808301519084015260e09182015116910152565b60005b83811015611b9e578181015183820152602001611b86565b838111156101ca5750506000910152565b6000815160a0845280518060a0860152611bd08160c0870160208501611b83565b6020848101516001600160a01b0316908601526040808501519086015260608085015190860152608093840151938501939093525050601f01601f19160160c00190565b602081526000610e196020830184611baf565b60008251611c39818460208701611b83565b9190910192915050565b600060208284031215611c5557600080fd5b81518015158114610e1957600080fd5b60008219821115611c7857611c78611aa6565b50019056fea264697066735822122011400c2391c60409ed90e7e97b04aff0bd89a82bec9f3de68faa6231eb794a3a64736f6c63430008090033",
			"opcodes": "PUSH20 0xE592427A0AECE92DE3EDEE1F18E0157C05861564 PUSH1 0x80 MSTORE PUSH2 0x240 PUSH1 0x40 MSTORE PUSH1 0x18 PUSH2 0x200 MSTORE PUSH32 0x617070726F766528616464726573732C75696E74323536290000000000000000 PUSH2 0x220 MSTORE PUSH4 0x95EA7B3 PUSH1 0xE0 SHL PUSH1 0xA0 MSTORE PUSH4 0xCA490E3B PUSH1 0xE0 SHL PUSH1 0xC0 MSTORE PUSH4 0x2B1BDDDB PUSH1 0xE0 SHL PUSH1 0xE0 MSTORE PUSH4 0x2B678FD PUSH1 0xE3 SHL PUSH2 0x100 MSTORE PUSH4 0x8D9D9091 PUSH1 0xE0 SHL PUSH2 0x120 MSTORE PUSH4 0x9108745 PUSH1 0xE1 SHL PUSH2 0x140 MSTORE PUSH4 0xDF2AB5BB PUSH1 0xE0 SHL PUSH2 0x160 MSTORE PUSH4 0x7070C4D PUSH1 0xE5 SHL PUSH2 0x180 MSTORE PUSH4 0x125012DF PUSH1 0xE2 SHL PUSH2 0x1A0 MSTORE PUSH4 0x9B2C0A37 PUSH1 0xE0 SHL PUSH2 0x1C0 MSTORE PUSH4 0x1C58DB4F PUSH1 0xE0 SHL PUSH2 0x1E0 MSTORE CALLVALUE DUP1 ISZERO PUSH2 0xD5 JUMPI PUSH1 0x0 DUP1 REVERT JUMPDEST POP PUSH1 0x80 MLOAD PUSH1 0xA0 MLOAD PUSH1 0xC0 MLOAD PUSH1 0xE0 MLOAD PUSH2 0x100 MLOAD PUSH2 0x120 MLOAD PUSH2 0x140 MLOAD PUSH2 0x160 MLOAD PUSH2 0x180 MLOAD PUSH2 0x1A0 MLOAD PUSH2 0x1C0 MLOAD PUSH2 0x1E0 MLOAD PUSH2 0x1CB3 PUSH2 0x1DE PUSH1 0x0 CODECOPY PUSH1 0x0 PUSH2 0x40E ADD MSTORE PUSH1 0x0 PUSH2 0x5DC ADD MSTORE PUSH1 0x0 PUSH2 0x488 ADD MSTORE PUSH1 0x0 PUSH2 0x66C ADD MSTORE PUSH1 0x0 PUSH2 0x551 ADD MSTORE PUSH1 0x0 PUSH2 0x50D ADD MSTORE PUSH1 0x0 PUSH2 0x324 ADD MSTORE PUSH1 0x0 PUSH2 0x399 ADD MSTORE PUSH1 0x0 PUSH2 0x23F ADD MSTORE PUSH1 0x0 PUSH2 0x2AF ADD MSTORE PUSH1 0x0 PUSH2 0x1300 ADD MSTORE PUSH1 0x0 DUP2 DUP2 PUSH2 0x7AB ADD MSTORE DUP2 DUP2 PUSH2 0x820 ADD MSTORE DUP2 DUP2 PUSH2 0x929 ADD MSTORE DUP2 DUP2 PUSH2 0x9BC ADD MSTORE DUP2 DUP2 PUSH2 0x9E5 ADD MSTORE DUP2 DUP2 PUSH2 0xB01 ADD MSTORE DUP2 DUP2 PUSH2 0xB9A ADD MSTORE DUP2 DUP2 PUSH2 0xC93 ADD MSTORE DUP2 DUP2 PUSH2 0xD26 ADD MSTORE DUP2 DUP2 PUSH2 0xD93 ADD MSTORE DUP2 DUP2 PUSH2 0xE44 ADD MSTORE DUP2 DUP2 PUSH2 0xED7 ADD MSTORE DUP2 DUP2 PUSH2 0xF00 ADD MSTORE DUP2 DUP2 PUSH2 0xFFC ADD MSTORE DUP2 DUP2 PUSH2 0x108F ADD MSTORE DUP2 DUP2 PUSH2 0x10FC ADD MSTORE DUP2 DUP2 PUSH2 0x1132 ADD MSTORE PUSH2 0x11F3 ADD MSTORE PUSH2 0x1CB3 PUSH1 0x0 RETURN INVALID PUSH1 0x80 PUSH1 0x40 MSTORE PUSH1 0x4 CALLDATASIZE LT PUSH2 0x9C JUMPI PUSH1 0x0 CALLDATALOAD PUSH1 0xE0 SHR DUP1 PUSH4 0xAC9650D8 GT PUSH2 0x64 JUMPI DUP1 PUSH4 0xAC9650D8 EQ PUSH2 0x109 JUMPI DUP1 PUSH4 0xC04B8D59 EQ PUSH2 0x11C JUMPI DUP1 PUSH4 0xDB3E2198 EQ PUSH2 0x12F JUMPI DUP1 PUSH4 0xDF2AB5BB EQ PUSH2 0x142 JUMPI DUP1 PUSH4 0xE0E189A0 EQ PUSH2 0x155 JUMPI DUP1 PUSH4 0xF28C0498 EQ PUSH2 0x168 JUMPI PUSH1 0x0 DUP1 REVERT JUMPDEST DUP1 PUSH4 0x12210E8A EQ PUSH2 0xA1 JUMPI DUP1 PUSH4 0x1C58DB4F EQ PUSH2 0xAB JUMPI DUP1 PUSH4 0x414BF389 EQ PUSH2 0xBE JUMPI DUP1 PUSH4 0x49404B7C EQ PUSH2 0xE3 JUMPI DUP1 PUSH4 0x9B2C0A37 EQ PUSH2 0xF6 JUMPI JUMPDEST PUSH1 0x0 DUP1 REVERT JUMPDEST PUSH2 0xA9 PUSH2 0x17B JUMP JUMPDEST STOP JUMPDEST PUSH2 0xA9 PUSH2 0xB9 CALLDATASIZE PUSH1 0x4 PUSH2 0x1594 JUMP JUMPDEST PUSH2 0x185 JUMP JUMPDEST PUSH2 0xD1 PUSH2 0xCC CALLDATASIZE PUSH1 0x4 PUSH2 0x15C6 JUMP JUMPDEST PUSH2 0x191 JUMP JUMPDEST PUSH1 0x40 MLOAD SWAP1 DUP2 MSTORE PUSH1 0x20 ADD PUSH1 0x40 MLOAD DUP1 SWAP2 SUB SWAP1 RETURN JUMPDEST PUSH2 0xA9 PUSH2 0xF1 CALLDATASIZE PUSH1 0x4 PUSH2 0x1608 JUMP JUMPDEST PUSH2 0x1B0 JUMP JUMPDEST PUSH2 0xA9 PUSH2 0x104 CALLDATASIZE PUSH1 0x4 PUSH2 0x1638 JUMP JUMPDEST PUSH2 0x1BE JUMP JUMPDEST PUSH2 0xA9 PUSH2 0x117 CALLDATASIZE PUSH1 0x4 PUSH2 0x1682 JUMP JUMPDEST PUSH2 0x1D0 JUMP JUMPDEST PUSH2 0xD1 PUSH2 0x12A CALLDATASIZE PUSH1 0x4 PUSH2 0x1709 JUMP JUMPDEST PUSH2 0x75A JUMP JUMPDEST PUSH2 0xD1 PUSH2 0x13D CALLDATASIZE PUSH1 0x4 PUSH2 0x15C6 JUMP JUMPDEST PUSH2 0x768 JUMP JUMPDEST PUSH2 0xA9 PUSH2 0x150 CALLDATASIZE PUSH1 0x4 PUSH2 0x1746 JUMP JUMPDEST PUSH2 0x77C JUMP JUMPDEST PUSH2 0xA9 PUSH2 0x163 CALLDATASIZE PUSH1 0x4 PUSH2 0x1788 JUMP JUMPDEST PUSH2 0x787 JUMP JUMPDEST PUSH2 0xD1 PUSH2 0x176 CALLDATASIZE PUSH1 0x4 PUSH2 0x1709 JUMP JUMPDEST PUSH2 0x79B JUMP JUMPDEST PUSH2 0x183 PUSH2 0x7A9 JUMP JUMPDEST JUMP JUMPDEST PUSH2 0x18E DUP2 PUSH2 0x818 JUMP JUMPDEST POP JUMP JUMPDEST PUSH1 0x0 PUSH2 0x1AA PUSH2 0x1A5 CALLDATASIZE DUP5 SWAP1 SUB DUP5 ADD DUP5 PUSH2 0x1922 JUMP JUMPDEST PUSH2 0x905 JUMP JUMPDEST SWAP3 SWAP2 POP POP JUMP JUMPDEST PUSH2 0x1BA DUP3 DUP3 PUSH2 0xAFF JUMP JUMPDEST POP POP JUMP JUMPDEST PUSH2 0x1CA DUP5 DUP5 DUP5 DUP5 PUSH2 0xB98 JUMP JUMPDEST POP POP POP POP JUMP JUMPDEST PUSH1 0x0 JUMPDEST DUP2 DUP2 LT ISZERO PUSH2 0x755 JUMPI PUSH1 0x0 DUP4 DUP4 DUP4 DUP2 DUP2 LT PUSH2 0x1EF JUMPI PUSH2 0x1EF PUSH2 0x193F JUMP JUMPDEST SWAP1 POP PUSH1 0x20 MUL DUP2 ADD SWAP1 PUSH2 0x201 SWAP2 SWAP1 PUSH2 0x1955 JUMP JUMPDEST DUP1 DUP1 PUSH1 0x1F ADD PUSH1 0x20 DUP1 SWAP2 DIV MUL PUSH1 0x20 ADD PUSH1 0x40 MLOAD SWAP1 DUP2 ADD PUSH1 0x40 MSTORE DUP1 SWAP4 SWAP3 SWAP2 SWAP1 DUP2 DUP2 MSTORE PUSH1 0x20 ADD DUP4 DUP4 DUP1 DUP3 DUP5 CALLDATACOPY PUSH1 0x0 SWAP3 ADD SWAP2 SWAP1 SWAP2 MSTORE POP POP POP POP PUSH1 0x20 DUP2 ADD MLOAD SWAP1 SWAP2 POP PUSH32 0x0 PUSH1 0x1 PUSH1 0x1 PUSH1 0xE0 SHL SUB NOT SWAP1 DUP2 AND SWAP1 DUP3 AND EQ ISZERO PUSH2 0x2AD JUMPI PUSH2 0x2A7 DUP6 DUP6 DUP6 DUP2 DUP2 LT PUSH2 0x288 JUMPI PUSH2 0x288 PUSH2 0x193F JUMP JUMPDEST SWAP1 POP PUSH1 0x20 MUL DUP2 ADD SWAP1 PUSH2 0x29A SWAP2 SWAP1 PUSH2 0x1955 JUMP JUMPDEST DUP2 ADD SWAP1 PUSH2 0x1A5 SWAP2 SWAP1 PUSH2 0x1922 JUMP JUMPDEST POP PUSH2 0x740 JUMP JUMPDEST PUSH32 0x0 PUSH1 0x1 PUSH1 0x1 PUSH1 0xE0 SHL SUB NOT AND DUP2 PUSH1 0x1 PUSH1 0x1 PUSH1 0xE0 SHL SUB NOT AND EQ ISZERO PUSH2 0x322 JUMPI PUSH2 0x2A7 DUP6 DUP6 DUP6 DUP2 DUP2 LT PUSH2 0x2FE JUMPI PUSH2 0x2FE PUSH2 0x193F JUMP JUMPDEST SWAP1 POP PUSH1 0x20 MUL DUP2 ADD SWAP1 PUSH2 0x310 SWAP2 SWAP1 PUSH2 0x1955 JUMP JUMPDEST DUP2 ADD SWAP1 PUSH2 0x31D SWAP2 SWAP1 PUSH2 0x1A71 JUMP JUMPDEST PUSH2 0xC5F JUMP JUMPDEST PUSH32 0x0 PUSH1 0x1 PUSH1 0x1 PUSH1 0xE0 SHL SUB NOT AND DUP2 PUSH1 0x1 PUSH1 0x1 PUSH1 0xE0 SHL SUB NOT AND EQ ISZERO PUSH2 0x397 JUMPI PUSH2 0x2A7 DUP6 DUP6 DUP6 DUP2 DUP2 LT PUSH2 0x373 JUMPI PUSH2 0x373 PUSH2 0x193F JUMP JUMPDEST SWAP1 POP PUSH1 0x20 MUL DUP2 ADD SWAP1 PUSH2 0x385 SWAP2 SWAP1 PUSH2 0x1955 JUMP JUMPDEST DUP2 ADD SWAP1 PUSH2 0x392 SWAP2 SWAP1 PUSH2 0x1922 JUMP JUMPDEST PUSH2 0xE20 JUMP JUMPDEST PUSH32 0x0 PUSH1 0x1 PUSH1 0x1 PUSH1 0xE0 SHL SUB NOT AND DUP2 PUSH1 0x1 PUSH1 0x1 PUSH1 0xE0 SHL SUB NOT AND EQ ISZERO PUSH2 0x40C JUMPI PUSH2 0x2A7 DUP6 DUP6 DUP6 DUP2 DUP2 LT PUSH2 0x3E8 JUMPI PUSH2 0x3E8 PUSH2 0x193F JUMP JUMPDEST SWAP1 POP PUSH1 0x20 MUL DUP2 ADD SWAP1 PUSH2 0x3FA SWAP2 SWAP1 PUSH2 0x1955 JUMP JUMPDEST DUP2 ADD SWAP1 PUSH2 0x407 SWAP2 SWAP1 PUSH2 0x1A71 JUMP JUMPDEST PUSH2 0xFC8 JUMP JUMPDEST PUSH32 0x0 PUSH1 0x1 PUSH1 0x1 PUSH1 0xE0 SHL SUB NOT AND DUP2 PUSH1 0x1 PUSH1 0x1 PUSH1 0xE0 SHL SUB NOT AND EQ ISZERO PUSH2 0x486 JUMPI PUSH2 0x481 DUP6 DUP6 DUP6 DUP2 DUP2 LT PUSH2 0x45D JUMPI PUSH2 0x45D PUSH2 0x193F JUMP JUMPDEST SWAP1 POP PUSH1 0x20 MUL DUP2 ADD SWAP1 PUSH2 0x46F SWAP2 SWAP1 PUSH2 0x1955 JUMP JUMPDEST DUP2 ADD SWAP1 PUSH2 0x47C SWAP2 SWAP1 PUSH2 0x1594 JUMP JUMPDEST PUSH2 0x818 JUMP JUMPDEST PUSH2 0x740 JUMP JUMPDEST PUSH32 0x0 PUSH1 0x1 PUSH1 0x1 PUSH1 0xE0 SHL SUB NOT AND DUP2 PUSH1 0x1 PUSH1 0x1 PUSH1 0xE0 SHL SUB NOT AND EQ ISZERO PUSH2 0x50B JUMPI PUSH1 0x0 DUP1 DUP7 DUP7 DUP7 DUP2 DUP2 LT PUSH2 0x4D7 JUMPI PUSH2 0x4D7 PUSH2 0x193F JUMP JUMPDEST SWAP1 POP PUSH1 0x20 MUL DUP2 ADD SWAP1 PUSH2 0x4E9 SWAP2 SWAP1 PUSH2 0x1955 JUMP JUMPDEST DUP2 ADD SWAP1 PUSH2 0x4F6 SWAP2 SWAP1 PUSH2 0x1608 JUMP JUMPDEST SWAP2 POP SWAP2 POP PUSH2 0x504 DUP3 DUP3 PUSH2 0xAFF JUMP JUMPDEST POP POP PUSH2 0x740 JUMP JUMPDEST PUSH32 0x0 PUSH1 0x1 PUSH1 0x1 PUSH1 0xE0 SHL SUB NOT AND DUP2 PUSH1 0x1 PUSH1 0x1 PUSH1 0xE0 SHL SUB NOT AND EQ ISZERO PUSH2 0x54F JUMPI PUSH2 0x481 PUSH2 0x7A9 JUMP JUMPDEST PUSH32 0x0 PUSH1 0x1 PUSH1 0x1 PUSH1 0xE0 SHL SUB NOT AND DUP2 PUSH1 0x1 PUSH1 0x1 PUSH1 0xE0 SHL SUB NOT AND EQ ISZERO PUSH2 0x5DA JUMPI PUSH1 0x0 DUP1 PUSH1 0x0 DUP8 DUP8 DUP8 DUP2 DUP2 LT PUSH2 0x5A2 JUMPI PUSH2 0x5A2 PUSH2 0x193F JUMP JUMPDEST SWAP1 POP PUSH1 0x20 MUL DUP2 ADD SWAP1 PUSH2 0x5B4 SWAP2 SWAP1 PUSH2 0x1955 JUMP JUMPDEST DUP2 ADD SWAP1 PUSH2 0x5C1 SWAP2 SWAP1 PUSH2 0x1746 JUMP JUMPDEST SWAP3 POP SWAP3 POP SWAP3 POP PUSH2 0x5D2 DUP4 DUP4 DUP4 PUSH2 0x1130 JUMP JUMPDEST POP POP POP PUSH2 0x740 JUMP JUMPDEST PUSH32 0x0 PUSH1 0x1 PUSH1 0x1 PUSH1 0xE0 SHL SUB NOT AND DUP2 PUSH1 0x1 PUSH1 0x1 PUSH1 0xE0 SHL SUB NOT AND EQ ISZERO PUSH2 0x66A JUMPI PUSH1 0x0 DUP1 PUSH1 0x0 DUP1 DUP9 DUP9 DUP9 DUP2 DUP2 LT PUSH2 0x62E JUMPI PUSH2 0x62E PUSH2 0x193F JUMP JUMPDEST SWAP1 POP PUSH1 0x20 MUL DUP2 ADD SWAP1 PUSH2 0x640 SWAP2 SWAP1 PUSH2 0x1955 JUMP JUMPDEST DUP2 ADD SWAP1 PUSH2 0x64D SWAP2 SWAP1 PUSH2 0x1638 JUMP JUMPDEST SWAP4 POP SWAP4 POP SWAP4 POP SWAP4 POP PUSH2 0x661 DUP5 DUP5 DUP5 DUP5 PUSH2 0xB98 JUMP JUMPDEST POP POP POP POP PUSH2 0x740 JUMP JUMPDEST PUSH32 0x0 PUSH1 0x1 PUSH1 0x1 PUSH1 0xE0 SHL SUB NOT AND DUP2 PUSH1 0x1 PUSH1 0x1 PUSH1 0xE0 SHL SUB NOT AND EQ ISZERO PUSH2 0x700 JUMPI PUSH1 0x0 DUP1 PUSH1 0x0 DUP1 PUSH1 0x0 DUP10 DUP10 DUP10 DUP2 DUP2 LT PUSH2 0x6C0 JUMPI PUSH2 0x6C0 PUSH2 0x193F JUMP JUMPDEST SWAP1 POP PUSH1 0x20 MUL DUP2 ADD SWAP1 PUSH2 0x6D2 SWAP2 SWAP1 PUSH2 0x1955 JUMP JUMPDEST DUP2 ADD SWAP1 PUSH2 0x6DF SWAP2 SWAP1 PUSH2 0x1788 JUMP JUMPDEST SWAP5 POP SWAP5 POP SWAP5 POP SWAP5 POP SWAP5 POP PUSH2 0x6F6 DUP6 DUP6 DUP6 DUP6 DUP6 PUSH2 0x11F1 JUMP JUMPDEST POP POP POP POP POP PUSH2 0x740 JUMP JUMPDEST PUSH1 0x40 MLOAD PUSH3 0x461BCD PUSH1 0xE5 SHL DUP2 MSTORE PUSH1 0x20 PUSH1 0x4 DUP3 ADD MSTORE PUSH1 0x10 PUSH1 0x24 DUP3 ADD MSTORE PUSH16 0x2AA725A727ABA72FA9A2A622A1AA27A9 PUSH1 0x81 SHL PUSH1 0x44 DUP3 ADD MSTORE PUSH1 0x64 ADD JUMPDEST PUSH1 0x40 MLOAD DUP1 SWAP2 SUB SWAP1 REVERT JUMPDEST POP POP DUP1 DUP1 PUSH2 0x74D SWAP1 PUSH2 0x1ABC JUMP JUMPDEST SWAP2 POP POP PUSH2 0x1D3 JUMP JUMPDEST POP POP POP JUMP JUMPDEST PUSH1 0x0 PUSH2 0x1AA PUSH2 0x31D DUP4 PUSH2 0x1AD7 JUMP JUMPDEST PUSH1 0x0 PUSH2 0x1AA PUSH2 0x392 CALLDATASIZE DUP5 SWAP1 SUB DUP5 ADD DUP5 PUSH2 0x1922 JUMP JUMPDEST PUSH2 0x755 DUP4 DUP4 DUP4 PUSH2 0x1130 JUMP JUMPDEST PUSH2 0x794 DUP6 DUP6 DUP6 DUP6 DUP6 PUSH2 0x11F1 JUMP JUMPDEST POP POP POP POP POP JUMP JUMPDEST PUSH1 0x0 PUSH2 0x1AA PUSH2 0x407 DUP4 PUSH2 0x1AD7 JUMP JUMPDEST PUSH32 0x0 PUSH1 0x1 PUSH1 0x1 PUSH1 0xA0 SHL SUB AND PUSH4 0x12210E8A PUSH1 0x40 MLOAD DUP2 PUSH4 0xFFFFFFFF AND PUSH1 0xE0 SHL DUP2 MSTORE PUSH1 0x4 ADD PUSH1 0x0 PUSH1 0x40 MLOAD DUP1 DUP4 SUB DUP2 PUSH1 0x0 DUP8 DUP1 EXTCODESIZE ISZERO DUP1 ISZERO PUSH2 0x804 JUMPI PUSH1 0x0 DUP1 REVERT JUMPDEST POP GAS CALL ISZERO DUP1 ISZERO PUSH2 0x1CA JUMPI RETURNDATASIZE PUSH1 0x0 DUP1 RETURNDATACOPY RETURNDATASIZE PUSH1 0x0 REVERT JUMPDEST DUP1 ISZERO PUSH2 0x18E JUMPI PUSH32 0x0 PUSH1 0x1 PUSH1 0x1 PUSH1 0xA0 SHL SUB AND PUSH4 0x4AA4A4FC PUSH1 0x40 MLOAD DUP2 PUSH4 0xFFFFFFFF AND PUSH1 0xE0 SHL DUP2 MSTORE PUSH1 0x4 ADD PUSH1 0x20 PUSH1 0x40 MLOAD DUP1 DUP4 SUB DUP2 DUP7 DUP1 EXTCODESIZE ISZERO DUP1 ISZERO PUSH2 0x877 JUMPI PUSH1 0x0 DUP1 REVERT JUMPDEST POP GAS STATICCALL ISZERO DUP1 ISZERO PUSH2 0x88B JUMPI RETURNDATASIZE PUSH1 0x0 DUP1 RETURNDATACOPY RETURNDATASIZE PUSH1 0x0 REVERT JUMPDEST POP POP POP POP PUSH1 0x40 MLOAD RETURNDATASIZE PUSH1 0x1F NOT PUSH1 0x1F DUP3 ADD AND DUP3 ADD DUP1 PUSH1 0x40 MSTORE POP DUP2 ADD SWAP1 PUSH2 0x8AF SWAP2 SWAP1 PUSH2 0x1AE3 JUMP JUMPDEST PUSH1 0x1 PUSH1 0x1 PUSH1 0xA0 SHL SUB AND PUSH4 0xD0E30DB0 DUP3 PUSH1 0x40 MLOAD DUP3 PUSH4 0xFFFFFFFF AND PUSH1 0xE0 SHL DUP2 MSTORE PUSH1 0x4 ADD PUSH1 0x0 PUSH1 0x40 MLOAD DUP1 DUP4 SUB DUP2 DUP6 DUP9 DUP1 EXTCODESIZE ISZERO DUP1 ISZERO PUSH2 0x8E9 JUMPI PUSH1 0x0 DUP1 REVERT JUMPDEST POP GAS CALL ISZERO DUP1 ISZERO PUSH2 0x8FD JUMPI RETURNDATASIZE PUSH1 0x0 DUP1 RETURNDATACOPY RETURNDATASIZE PUSH1 0x0 REVERT JUMPDEST POP POP POP POP POP POP JUMP JUMPDEST PUSH1 0xA0 DUP2 ADD MLOAD DUP2 MLOAD PUSH1 0x40 MLOAD PUSH4 0x6EB1769F PUSH1 0xE1 SHL DUP2 MSTORE ADDRESS PUSH1 0x4 DUP3 ADD MSTORE PUSH1 0x1 PUSH1 0x1 PUSH1 0xA0 SHL SUB PUSH32 0x0 DUP2 AND PUSH1 0x24 DUP4 ADD MSTORE PUSH1 0x0 SWAP4 SWAP3 AND SWAP1 PUSH4 0xDD62ED3E SWAP1 PUSH1 0x44 ADD PUSH1 0x20 PUSH1 0x40 MLOAD DUP1 DUP4 SUB DUP2 DUP7 DUP1 EXTCODESIZE ISZERO DUP1 ISZERO PUSH2 0x976 JUMPI PUSH1 0x0 DUP1 REVERT JUMPDEST POP GAS STATICCALL ISZERO DUP1 ISZERO PUSH2 0x98A JUMPI RETURNDATASIZE PUSH1 0x0 DUP1 RETURNDATACOPY RETURNDATASIZE PUSH1 0x0 REVERT JUMPDEST POP POP POP POP PUSH1 0x40 MLOAD RETURNDATASIZE PUSH1 0x1F NOT PUSH1 0x1F DUP3 ADD AND DUP3 ADD DUP1 PUSH1 0x40 MSTORE POP DUP2 ADD SWAP1 PUSH2 0x9AE SWAP2 SWAP1 PUSH2 0x1B00 JUMP JUMPDEST LT ISZERO PUSH2 0x9E3 JUMPI DUP2 MLOAD PUSH2 0x9E3 SWAP1 PUSH32 0x0 PUSH1 0x0 NOT PUSH2 0x12C2 JUMP JUMPDEST PUSH32 0x0 PUSH1 0x1 PUSH1 0x1 PUSH1 0xA0 SHL SUB AND PUSH4 0x414BF389 PUSH1 0x40 MLOAD DUP1 PUSH2 0x100 ADD PUSH1 0x40 MSTORE DUP1 DUP6 PUSH1 0x0 ADD MLOAD PUSH1 0x1 PUSH1 0x1 PUSH1 0xA0 SHL SUB AND DUP2 MSTORE PUSH1 0x20 ADD DUP6 PUSH1 0x20 ADD MLOAD PUSH1 0x1 PUSH1 0x1 PUSH1 0xA0 SHL SUB AND DUP2 MSTORE PUSH1 0x20 ADD DUP6 PUSH1 0x40 ADD MLOAD PUSH3 0xFFFFFF AND DUP2 MSTORE PUSH1 0x20 ADD ADDRESS PUSH1 0x1 PUSH1 0x1 PUSH1 0xA0 SHL SUB AND DUP2 MSTORE PUSH1 0x20 ADD DUP6 PUSH1 0x80 ADD MLOAD DUP2 MSTORE PUSH1 0x20 ADD DUP6 PUSH1 0xA0 ADD MLOAD DUP2 MSTORE PUSH1 0x20 ADD DUP6 PUSH1 0xC0 ADD MLOAD DUP2 MSTORE PUSH1 0x20 ADD DUP6 PUSH1 0xE0 ADD MLOAD PUSH1 0x1 PUSH1 0x1 PUSH1 0xA0 SHL SUB AND DUP2 MSTORE POP PUSH1 0x40 MLOAD DUP3 PUSH4 0xFFFFFFFF AND PUSH1 0xE0 SHL DUP2 MSTORE PUSH1 0x4 ADD PUSH2 0xAAD SWAP2 SWAP1 PUSH2 0x1B19 JUMP JUMPDEST PUSH1 0x20 PUSH1 0x40 MLOAD DUP1 DUP4 SUB DUP2 PUSH1 0x0 DUP8 DUP1 EXTCODESIZE ISZERO DUP1 ISZERO PUSH2 0xAC7 JUMPI PUSH1 0x0 DUP1 REVERT JUMPDEST POP GAS CALL ISZERO DUP1 ISZERO PUSH2 0xADB JUMPI RETURNDATASIZE PUSH1 0x0 DUP1 RETURNDATACOPY RETURNDATASIZE PUSH1 0x0 REVERT JUMPDEST POP POP POP POP PUSH1 0x40 MLOAD RETURNDATASIZE PUSH1 0x1F NOT PUSH1 0x1F DUP3 ADD AND DUP3 ADD DUP1 PUSH1 0x40 MSTORE POP DUP2 ADD SWAP1 PUSH2 0x1AA SWAP2 SWAP1 PUSH2 0x1B00 JUMP JUMPDEST PUSH32 0x0 PUSH1 0x1 PUSH1 0x1 PUSH1 0xA0 SHL SUB AND PUSH4 0x49404B7C DUP4 ADDRESS PUSH1 0x1 PUSH1 0x1 PUSH1 0xA0 SHL SUB AND DUP5 PUSH1 0x1 PUSH1 0x1 PUSH1 0xA0 SHL SUB AND EQ ISZERO PUSH2 0xB4F JUMPI ADDRESS PUSH2 0xB51 JUMP JUMPDEST ADDRESS JUMPDEST PUSH1 0x40 MLOAD PUSH1 0x1 PUSH1 0x1 PUSH1 0xE0 SHL SUB NOT PUSH1 0xE0 DUP6 SWAP1 SHL AND DUP2 MSTORE PUSH1 0x4 DUP2 ADD SWAP3 SWAP1 SWAP3 MSTORE PUSH1 0x1 PUSH1 0x1 PUSH1 0xA0 SHL SUB AND PUSH1 0x24 DUP3 ADD MSTORE PUSH1 0x44 ADD PUSH1 0x0 PUSH1 0x40 MLOAD DUP1 DUP4 SUB DUP2 PUSH1 0x0 DUP8 DUP1 EXTCODESIZE ISZERO DUP1 ISZERO PUSH2 0x8E9 JUMPI PUSH1 0x0 DUP1 REVERT JUMPDEST PUSH32 0x0 PUSH1 0x1 PUSH1 0x1 PUSH1 0xA0 SHL SUB AND PUSH4 0x9B2C0A37 DUP6 ADDRESS PUSH1 0x1 PUSH1 0x1 PUSH1 0xA0 SHL SUB AND DUP7 PUSH1 0x1 PUSH1 0x1 PUSH1 0xA0 SHL SUB AND EQ ISZERO PUSH2 0xBE8 JUMPI ADDRESS PUSH2 0xBEA JUMP JUMPDEST ADDRESS JUMPDEST PUSH1 0x40 MLOAD PUSH1 0x1 PUSH1 0x1 PUSH1 0xE0 SHL SUB NOT PUSH1 0xE0 DUP6 SWAP1 SHL AND DUP2 MSTORE PUSH1 0x4 DUP2 ADD SWAP3 SWAP1 SWAP3 MSTORE PUSH1 0x1 PUSH1 0x1 PUSH1 0xA0 SHL SUB SWAP1 DUP2 AND PUSH1 0x24 DUP4 ADD MSTORE PUSH1 0x44 DUP3 ADD DUP7 SWAP1 MSTORE DUP5 AND PUSH1 0x64 DUP3 ADD MSTORE PUSH1 0x84 ADD PUSH1 0x0 PUSH1 0x40 MLOAD DUP1 DUP4 SUB DUP2 PUSH1 0x0 DUP8 DUP1 EXTCODESIZE ISZERO DUP1 ISZERO PUSH2 0xC41 JUMPI PUSH1 0x0 DUP1 REVERT JUMPDEST POP GAS CALL ISZERO DUP1 ISZERO PUSH2 0xC55 JUMPI RETURNDATASIZE PUSH1 0x0 DUP1 RETURNDATACOPY RETURNDATASIZE PUSH1 0x0 REVERT JUMPDEST POP POP POP POP POP POP POP POP JUMP JUMPDEST PUSH1 0x0 DUP1 PUSH2 0xC6F DUP4 PUSH1 0x0 ADD MLOAD PUSH2 0x13F9 JUMP JUMPDEST POP POP PUSH1 0x60 DUP5 ADD MLOAD PUSH1 0x40 MLOAD PUSH4 0x6EB1769F PUSH1 0xE1 SHL DUP2 MSTORE ADDRESS PUSH1 0x4 DUP3 ADD MSTORE PUSH1 0x1 PUSH1 0x1 PUSH1 0xA0 SHL SUB PUSH32 0x0 DUP2 AND PUSH1 0x24 DUP4 ADD MSTORE SWAP3 SWAP4 POP SWAP1 SWAP2 DUP4 AND SWAP1 PUSH4 0xDD62ED3E SWAP1 PUSH1 0x44 ADD PUSH1 0x20 PUSH1 0x40 MLOAD DUP1 DUP4 SUB DUP2 DUP7 DUP1 EXTCODESIZE ISZERO DUP1 ISZERO PUSH2 0xCE2 JUMPI PUSH1 0x0 DUP1 REVERT JUMPDEST POP GAS STATICCALL ISZERO DUP1 ISZERO PUSH2 0xCF6 JUMPI RETURNDATASIZE PUSH1 0x0 DUP1 RETURNDATACOPY RETURNDATASIZE PUSH1 0x0 REVERT JUMPDEST POP POP POP POP PUSH1 0x40 MLOAD RETURNDATASIZE PUSH1 0x1F NOT PUSH1 0x1F DUP3 ADD AND DUP3 ADD DUP1 PUSH1 0x40 MSTORE POP DUP2 ADD SWAP1 PUSH2 0xD1A SWAP2 SWAP1 PUSH2 0x1B00 JUMP JUMPDEST LT ISZERO PUSH2 0xD4D JUMPI PUSH2 0xD4D DUP2 PUSH32 0x0 PUSH1 0x0 NOT PUSH2 0x12C2 JUMP JUMPDEST PUSH1 0x40 DUP1 MLOAD PUSH1 0xA0 DUP2 ADD DUP3 MSTORE DUP5 MLOAD DUP2 MSTORE ADDRESS PUSH1 0x20 DUP3 ADD MSTORE DUP5 DUP3 ADD MLOAD DUP2 DUP4 ADD MSTORE PUSH1 0x60 DUP1 DUP7 ADD MLOAD SWAP1 DUP3 ADD MSTORE PUSH1 0x80 DUP1 DUP7 ADD MLOAD SWAP1 DUP3 ADD MSTORE SWAP1 MLOAD PUSH4 0xC04B8D59 PUSH1 0xE0 SHL DUP2 MSTORE PUSH1 0x1 PUSH1 0x1 PUSH1 0xA0 SHL SUB PUSH32 0x0 AND SWAP2 PUSH4 0xC04B8D59 SWAP2 PUSH2 0xDC7 SWAP2 SWAP1 PUSH1 0x4 ADD PUSH2 0x1C14 JUMP JUMPDEST PUSH1 0x20 PUSH1 0x40 MLOAD DUP1 DUP4 SUB DUP2 PUSH1 0x0 DUP8 DUP1 EXTCODESIZE ISZERO DUP1 ISZERO PUSH2 0xDE1 JUMPI PUSH1 0x0 DUP1 REVERT JUMPDEST POP GAS CALL ISZERO DUP1 ISZERO PUSH2 0xDF5 JUMPI RETURNDATASIZE PUSH1 0x0 DUP1 RETURNDATACOPY RETURNDATASIZE PUSH1 0x0 REVERT JUMPDEST POP POP POP POP PUSH1 0x40 MLOAD RETURNDATASIZE PUSH1 0x1F NOT PUSH1 0x1F DUP3 ADD AND DUP3 ADD DUP1 PUSH1 0x40 MSTORE POP DUP2 ADD SWAP1 PUSH2 0xE19 SWAP2 SWAP1 PUSH2 0x1B00 JUMP JUMPDEST SWAP4 SWAP3 POP POP POP JUMP JUMPDEST PUSH1 0xC0 DUP2 ADD MLOAD DUP2 MLOAD PUSH1 0x40 MLOAD PUSH4 0x6EB1769F PUSH1 0xE1 SHL DUP2 MSTORE ADDRESS PUSH1 0x4 DUP3 ADD MSTORE PUSH1 0x1 PUSH1 0x1 PUSH1 0xA0 SHL SUB PUSH32 0x0 DUP2 AND PUSH1 0x24 DUP4 ADD MSTORE PUSH1 0x0 SWAP4 SWAP3 AND SWAP1 PUSH4 0xDD62ED3E SWAP1 PUSH1 0x44 ADD PUSH1 0x20 PUSH1 0x40 MLOAD DUP1 DUP4 SUB DUP2 DUP7 DUP1 EXTCODESIZE ISZERO DUP1 ISZERO PUSH2 0xE91 JUMPI PUSH1 0x0 DUP1 REVERT JUMPDEST POP GAS STATICCALL ISZERO DUP1 ISZERO PUSH2 0xEA5 JUMPI RETURNDATASIZE PUSH1 0x0 DUP1 RETURNDATACOPY RETURNDATASIZE PUSH1 0x0 REVERT JUMPDEST POP POP POP POP PUSH1 0x40 MLOAD RETURNDATASIZE PUSH1 0x1F NOT PUSH1 0x1F DUP3 ADD AND DUP3 ADD DUP1 PUSH1 0x40 MSTORE POP DUP2 ADD SWAP1 PUSH2 0xEC9 SWAP2 SWAP1 PUSH2 0x1B00 JUMP JUMPDEST LT ISZERO PUSH2 0xEFE JUMPI DUP2 MLOAD PUSH2 0xEFE SWAP1 PUSH32 0x0 PUSH1 0x0 NOT PUSH2 0x12C2 JUMP JUMPDEST PUSH32 0x0 PUSH1 0x1 PUSH1 0x1 PUSH1 0xA0 SHL SUB AND PUSH4 0xDB3E2198 PUSH1 0x40 MLOAD DUP1 PUSH2 0x100 ADD PUSH1 0x40 MSTORE DUP1 DUP6 PUSH1 0x0 ADD MLOAD PUSH1 0x1 PUSH1 0x1 PUSH1 0xA0 SHL SUB AND DUP2 MSTORE PUSH1 0x20 ADD DUP6 PUSH1 0x20 ADD MLOAD PUSH1 0x1 PUSH1 0x1 PUSH1 0xA0 SHL SUB AND DUP2 MSTORE PUSH1 0x20 ADD DUP6 PUSH1 0x40 ADD MLOAD PUSH3 0xFFFFFF AND DUP2 MSTORE PUSH1 0x20 ADD ADDRESS PUSH1 0x1 PUSH1 0x1 PUSH1 0xA0 SHL SUB AND DUP2 MSTORE PUSH1 0x20 ADD DUP6 PUSH1 0x80 ADD MLOAD DUP2 MSTORE PUSH1 0x20 ADD DUP6 PUSH1 0xA0 ADD MLOAD DUP2 MSTORE PUSH1 0x20 ADD DUP6 PUSH1 0xC0 ADD MLOAD DUP2 MSTORE PUSH1 0x20 ADD DUP6 PUSH1 0xE0 ADD MLOAD PUSH1 0x1 PUSH1 0x1 PUSH1 0xA0 SHL SUB AND DUP2 MSTORE POP PUSH1 0x40 MLOAD DUP3 PUSH4 0xFFFFFFFF AND PUSH1 0xE0 SHL DUP2 MSTORE PUSH1 0x4 ADD PUSH2 0xAAD SWAP2 SWAP1 PUSH2 0x1B19 JUMP JUMPDEST PUSH1 0x0 DUP1 PUSH2 0xFD8 DUP4 PUSH1 0x0 ADD MLOAD PUSH2 0x13F9 JUMP JUMPDEST POP POP PUSH1 0x80 DUP5 ADD MLOAD PUSH1 0x40 MLOAD PUSH4 0x6EB1769F PUSH1 0xE1 SHL DUP2 MSTORE ADDRESS PUSH1 0x4 DUP3 ADD MSTORE PUSH1 0x1 PUSH1 0x1 PUSH1 0xA0 SHL SUB PUSH32 0x0 DUP2 AND PUSH1 0x24 DUP4 ADD MSTORE SWAP3 SWAP4 POP SWAP1 SWAP2 DUP4 AND SWAP1 PUSH4 0xDD62ED3E SWAP1 PUSH1 0x44 ADD PUSH1 0x20 PUSH1 0x40 MLOAD DUP1 DUP4 SUB DUP2 DUP7 DUP1 EXTCODESIZE ISZERO DUP1 ISZERO PUSH2 0x104B JUMPI PUSH1 0x0 DUP1 REVERT JUMPDEST POP GAS STATICCALL ISZERO DUP1 ISZERO PUSH2 0x105F JUMPI RETURNDATASIZE PUSH1 0x0 DUP1 RETURNDATACOPY RETURNDATASIZE PUSH1 0x0 REVERT JUMPDEST POP POP POP POP PUSH1 0x40 MLOAD RETURNDATASIZE PUSH1 0x1F NOT PUSH1 0x1F DUP3 ADD AND DUP3 ADD DUP1 PUSH1 0x40 MSTORE POP DUP2 ADD SWAP1 PUSH2 0x1083 SWAP2 SWAP1 PUSH2 0x1B00 JUMP JUMPDEST LT ISZERO PUSH2 0x10B6 JUMPI PUSH2 0x10B6 DUP2 PUSH32 0x0 PUSH1 0x0 NOT PUSH2 0x12C2 JUMP JUMPDEST PUSH1 0x40 DUP1 MLOAD PUSH1 0xA0 DUP2 ADD DUP3 MSTORE DUP5 MLOAD DUP2 MSTORE ADDRESS PUSH1 0x20 DUP3 ADD MSTORE DUP5 DUP3 ADD MLOAD DUP2 DUP4 ADD MSTORE PUSH1 0x60 DUP1 DUP7 ADD MLOAD SWAP1 DUP3 ADD MSTORE PUSH1 0x80 DUP1 DUP7 ADD MLOAD SWAP1 DUP3 ADD MSTORE SWAP1 MLOAD PUSH4 0x1E518093 PUSH1 0xE3 SHL DUP2 MSTORE PUSH1 0x1 PUSH1 0x1 PUSH1 0xA0 SHL SUB PUSH32 0x0 AND SWAP2 PUSH4 0xF28C0498 SWAP2 PUSH2 0xDC7 SWAP2 SWAP1 PUSH1 0x4 ADD PUSH2 0x1C14 JUMP JUMPDEST PUSH32 0x0 PUSH1 0x1 PUSH1 0x1 PUSH1 0xA0 SHL SUB AND PUSH4 0xDF2AB5BB DUP5 DUP5 ADDRESS PUSH1 0x1 PUSH1 0x1 PUSH1 0xA0 SHL SUB AND DUP6 PUSH1 0x1 PUSH1 0x1 PUSH1 0xA0 SHL SUB AND EQ ISZERO PUSH2 0x1181 JUMPI ADDRESS PUSH2 0x1183 JUMP JUMPDEST ADDRESS JUMPDEST PUSH1 0x40 MLOAD PUSH1 0xE0 DUP6 SWAP1 SHL PUSH1 0x1 PUSH1 0x1 PUSH1 0xE0 SHL SUB NOT AND DUP2 MSTORE PUSH1 0x1 PUSH1 0x1 PUSH1 0xA0 SHL SUB SWAP4 DUP5 AND PUSH1 0x4 DUP3 ADD MSTORE PUSH1 0x24 DUP2 ADD SWAP3 SWAP1 SWAP3 MSTORE SWAP1 SWAP2 AND PUSH1 0x44 DUP3 ADD MSTORE PUSH1 0x64 ADD PUSH1 0x0 PUSH1 0x40 MLOAD DUP1 DUP4 SUB DUP2 PUSH1 0x0 DUP8 DUP1 EXTCODESIZE ISZERO DUP1 ISZERO PUSH2 0x11D4 JUMPI PUSH1 0x0 DUP1 REVERT JUMPDEST POP GAS CALL ISZERO DUP1 ISZERO PUSH2 0x11E8 JUMPI RETURNDATASIZE PUSH1 0x0 DUP1 RETURNDATACOPY RETURNDATASIZE PUSH1 0x0 REVERT JUMPDEST POP POP POP POP POP POP POP JUMP JUMPDEST PUSH32 0x0 PUSH1 0x1 PUSH1 0x1 PUSH1 0xA0 SHL SUB AND PUSH4 0xE0E189A0 DUP7 DUP7 ADDRESS PUSH1 0x1 PUSH1 0x1 PUSH1 0xA0 SHL SUB AND DUP8 PUSH1 0x1 PUSH1 0x1 PUSH1 0xA0 SHL SUB AND EQ ISZERO PUSH2 0x1242 JUMPI ADDRESS PUSH2 0x1244 JUMP JUMPDEST ADDRESS JUMPDEST PUSH1 0x40 MLOAD PUSH1 0x1 PUSH1 0x1 PUSH1 0xE0 SHL SUB NOT PUSH1 0xE0 DUP7 SWAP1 SHL AND DUP2 MSTORE PUSH1 0x1 PUSH1 0x1 PUSH1 0xA0 SHL SUB SWAP4 DUP5 AND PUSH1 0x4 DUP3 ADD MSTORE PUSH1 0x24 DUP2 ADD SWAP3 SWAP1 SWAP3 MSTORE DUP3 AND PUSH1 0x44 DUP3 ADD MSTORE PUSH1 0x64 DUP2 ADD DUP7 SWAP1 MSTORE SWAP1 DUP5 AND PUSH1 0x84 DUP3 ADD MSTORE PUSH1 0xA4 ADD PUSH1 0x0 PUSH1 0x40 MLOAD DUP1 DUP4 SUB DUP2 PUSH1 0x0 DUP8 DUP1 EXTCODESIZE ISZERO DUP1 ISZERO PUSH2 0x12A3 JUMPI PUSH1 0x0 DUP1 REVERT JUMPDEST POP GAS CALL ISZERO DUP1 ISZERO PUSH2 0x12B7 JUMPI RETURNDATASIZE PUSH1 0x0 DUP1 RETURNDATACOPY RETURNDATASIZE PUSH1 0x0 REVERT JUMPDEST POP POP POP POP POP POP POP POP POP JUMP JUMPDEST PUSH1 0x40 DUP1 MLOAD PUSH1 0x1 PUSH1 0x1 PUSH1 0xA0 SHL SUB DUP5 DUP2 AND PUSH1 0x24 DUP4 ADD MSTORE PUSH1 0x44 DUP1 DUP4 ADD DUP6 SWAP1 MSTORE DUP4 MLOAD DUP1 DUP5 SUB SWAP1 SWAP2 ADD DUP2 MSTORE PUSH1 0x64 SWAP1 SWAP3 ADD DUP4 MSTORE PUSH1 0x20 DUP3 ADD DUP1 MLOAD PUSH1 0x1 PUSH1 0x1 PUSH1 0xE0 SHL SUB AND PUSH32 0x0 PUSH1 0x1 PUSH1 0x1 PUSH1 0xE0 SHL SUB NOT AND OR SWAP1 MSTORE SWAP2 MLOAD PUSH1 0x0 SWAP3 DUP4 SWAP3 SWAP1 DUP8 AND SWAP2 PUSH2 0x1341 SWAP2 SWAP1 PUSH2 0x1C27 JUMP JUMPDEST PUSH1 0x0 PUSH1 0x40 MLOAD DUP1 DUP4 SUB DUP2 PUSH1 0x0 DUP7 GAS CALL SWAP2 POP POP RETURNDATASIZE DUP1 PUSH1 0x0 DUP2 EQ PUSH2 0x137E JUMPI PUSH1 0x40 MLOAD SWAP2 POP PUSH1 0x1F NOT PUSH1 0x3F RETURNDATASIZE ADD AND DUP3 ADD PUSH1 0x40 MSTORE RETURNDATASIZE DUP3 MSTORE RETURNDATASIZE PUSH1 0x0 PUSH1 0x20 DUP5 ADD RETURNDATACOPY PUSH2 0x1383 JUMP JUMPDEST PUSH1 0x60 SWAP2 POP JUMPDEST POP SWAP2 POP SWAP2 POP DUP2 DUP1 ISZERO PUSH2 0x13AD JUMPI POP DUP1 MLOAD ISZERO DUP1 PUSH2 0x13AD JUMPI POP DUP1 DUP1 PUSH1 0x20 ADD SWAP1 MLOAD DUP2 ADD SWAP1 PUSH2 0x13AD SWAP2 SWAP1 PUSH2 0x1C43 JUMP JUMPDEST PUSH2 0x794 JUMPI PUSH1 0x40 MLOAD PUSH3 0x461BCD PUSH1 0xE5 SHL DUP2 MSTORE PUSH1 0x20 PUSH1 0x4 DUP3 ADD MSTORE PUSH1 0x18 PUSH1 0x24 DUP3 ADD MSTORE PUSH32 0x5249474F424C4F434B5F415050524F56455F4641494C45440000000000000000 PUSH1 0x44 DUP3 ADD MSTORE PUSH1 0x64 ADD PUSH2 0x737 JUMP JUMPDEST PUSH1 0x0 DUP1 DUP1 PUSH2 0x1407 DUP5 DUP3 PUSH2 0x1435 JUMP JUMPDEST SWAP3 POP PUSH2 0x1414 DUP5 PUSH1 0x14 PUSH2 0x14E9 JUMP JUMPDEST SWAP1 POP PUSH2 0x142C PUSH2 0x1425 PUSH1 0x3 PUSH1 0x14 PUSH2 0x1C65 JUMP JUMPDEST DUP6 SWAP1 PUSH2 0x1435 JUMP JUMPDEST SWAP2 POP SWAP2 SWAP4 SWAP1 SWAP3 POP JUMP JUMPDEST PUSH1 0x0 DUP2 PUSH2 0x1443 DUP2 PUSH1 0x14 PUSH2 0x1C65 JUMP JUMPDEST LT ISZERO PUSH2 0x1486 JUMPI PUSH1 0x40 MLOAD PUSH3 0x461BCD PUSH1 0xE5 SHL DUP2 MSTORE PUSH1 0x20 PUSH1 0x4 DUP3 ADD MSTORE PUSH1 0x12 PUSH1 0x24 DUP3 ADD MSTORE PUSH18 0x746F416464726573735F6F766572666C6F77 PUSH1 0x70 SHL PUSH1 0x44 DUP3 ADD MSTORE PUSH1 0x64 ADD PUSH2 0x737 JUMP JUMPDEST PUSH2 0x1491 DUP3 PUSH1 0x14 PUSH2 0x1C65 JUMP JUMPDEST DUP4 MLOAD LT ISZERO PUSH2 0x14D9 JUMPI PUSH1 0x40 MLOAD PUSH3 0x461BCD PUSH1 0xE5 SHL DUP2 MSTORE PUSH1 0x20 PUSH1 0x4 DUP3 ADD MSTORE PUSH1 0x15 PUSH1 0x24 DUP3 ADD MSTORE PUSH21 0x746F416464726573735F6F75744F66426F756E6473 PUSH1 0x58 SHL PUSH1 0x44 DUP3 ADD MSTORE PUSH1 0x64 ADD PUSH2 0x737 JUMP JUMPDEST POP ADD PUSH1 0x20 ADD MLOAD PUSH1 0x1 PUSH1 0x60 SHL SWAP1 DIV SWAP1 JUMP JUMPDEST PUSH1 0x0 DUP2 PUSH2 0x14F7 DUP2 PUSH1 0x3 PUSH2 0x1C65 JUMP JUMPDEST LT ISZERO PUSH2 0x1539 JUMPI PUSH1 0x40 MLOAD PUSH3 0x461BCD PUSH1 0xE5 SHL DUP2 MSTORE PUSH1 0x20 PUSH1 0x4 DUP3 ADD MSTORE PUSH1 0x11 PUSH1 0x24 DUP3 ADD MSTORE PUSH17 0x746F55696E7432345F6F766572666C6F77 PUSH1 0x78 SHL PUSH1 0x44 DUP3 ADD MSTORE PUSH1 0x64 ADD PUSH2 0x737 JUMP JUMPDEST PUSH2 0x1544 DUP3 PUSH1 0x3 PUSH2 0x1C65 JUMP JUMPDEST DUP4 MLOAD LT ISZERO PUSH2 0x158B JUMPI PUSH1 0x40 MLOAD PUSH3 0x461BCD PUSH1 0xE5 SHL DUP2 MSTORE PUSH1 0x20 PUSH1 0x4 DUP3 ADD MSTORE PUSH1 0x14 PUSH1 0x24 DUP3 ADD MSTORE PUSH20 0x746F55696E7432345F6F75744F66426F756E6473 PUSH1 0x60 SHL PUSH1 0x44 DUP3 ADD MSTORE PUSH1 0x64 ADD PUSH2 0x737 JUMP JUMPDEST POP ADD PUSH1 0x3 ADD MLOAD SWAP1 JUMP JUMPDEST PUSH1 0x0 PUSH1 0x20 DUP3 DUP5 SUB SLT ISZERO PUSH2 0x15A6 JUMPI PUSH1 0x0 DUP1 REVERT JUMPDEST POP CALLDATALOAD SWAP2 SWAP1 POP JUMP JUMPDEST PUSH1 0x0 PUSH2 0x100 DUP3 DUP5 SUB SLT ISZERO PUSH2 0x15C0 JUMPI PUSH1 0x0 DUP1 REVERT JUMPDEST POP SWAP2 SWAP1 POP JUMP JUMPDEST PUSH1 0x0 PUSH2 0x100 DUP3 DUP5 SUB SLT ISZERO PUSH2 0x15D9 JUMPI PUSH1 0x0 DUP1 REVERT JUMPDEST PUSH2 0xE19 DUP4 DUP4 PUSH2 0x15AD JUMP JUMPDEST PUSH1 0x1 PUSH1 0x1 PUSH1 0xA0 SHL SUB DUP2 AND DUP2 EQ PUSH2 0x18E JUMPI PUSH1 0x0 DUP1 REVERT JUMPDEST DUP1 CALLDATALOAD PUSH2 0x1603 DUP2 PUSH2 0x15E3 JUMP JUMPDEST SWAP2 SWAP1 POP JUMP JUMPDEST PUSH1 0x0 DUP1 PUSH1 0x40 DUP4 DUP6 SUB SLT ISZERO PUSH2 0x161B JUMPI PUSH1 0x0 DUP1 REVERT JUMPDEST DUP3 CALLDATALOAD SWAP2 POP PUSH1 0x20 DUP4 ADD CALLDATALOAD PUSH2 0x162D DUP2 PUSH2 0x15E3 JUMP JUMPDEST DUP1 SWAP2 POP POP SWAP3 POP SWAP3 SWAP1 POP JUMP JUMPDEST PUSH1 0x0 DUP1 PUSH1 0x0 DUP1 PUSH1 0x80 DUP6 DUP8 SUB SLT ISZERO PUSH2 0x164E JUMPI PUSH1 0x0 DUP1 REVERT JUMPDEST DUP5 CALLDATALOAD SWAP4 POP PUSH1 0x20 DUP6 ADD CALLDATALOAD PUSH2 0x1660 DUP2 PUSH2 0x15E3 JUMP JUMPDEST SWAP3 POP PUSH1 0x40 DUP6 ADD CALLDATALOAD SWAP2 POP PUSH1 0x60 DUP6 ADD CALLDATALOAD PUSH2 0x1677 DUP2 PUSH2 0x15E3 JUMP JUMPDEST SWAP4 SWAP7 SWAP3 SWAP6 POP SWAP1 SWAP4 POP POP JUMP JUMPDEST PUSH1 0x0 DUP1 PUSH1 0x20 DUP4 DUP6 SUB SLT ISZERO PUSH2 0x1695 JUMPI PUSH1 0x0 DUP1 REVERT JUMPDEST DUP3 CALLDATALOAD PUSH8 0xFFFFFFFFFFFFFFFF DUP1 DUP3 GT ISZERO PUSH2 0x16AD JUMPI PUSH1 0x0 DUP1 REVERT JUMPDEST DUP2 DUP6 ADD SWAP2 POP DUP6 PUSH1 0x1F DUP4 ADD SLT PUSH2 0x16C1 JUMPI PUSH1 0x0 DUP1 REVERT JUMPDEST DUP2 CALLDATALOAD DUP2 DUP2 GT ISZERO PUSH2 0x16D0 JUMPI PUSH1 0x0 DUP1 REVERT JUMPDEST DUP7 PUSH1 0x20 DUP3 PUSH1 0x5 SHL DUP6 ADD ADD GT ISZERO PUSH2 0x16E5 JUMPI PUSH1 0x0 DUP1 REVERT JUMPDEST PUSH1 0x20 SWAP3 SWAP1 SWAP3 ADD SWAP7 SWAP2 SWAP6 POP SWAP1 SWAP4 POP POP POP POP JUMP JUMPDEST PUSH1 0x0 PUSH1 0xA0 DUP3 DUP5 SUB SLT ISZERO PUSH2 0x15C0 JUMPI PUSH1 0x0 DUP1 REVERT JUMPDEST PUSH1 0x0 PUSH1 0x20 DUP3 DUP5 SUB SLT ISZERO PUSH2 0x171B JUMPI PUSH1 0x0 DUP1 REVERT JUMPDEST DUP2 CALLDATALOAD PUSH8 0xFFFFFFFFFFFFFFFF DUP2 GT ISZERO PUSH2 0x1732 JUMPI PUSH1 0x0 DUP1 REVERT JUMPDEST PUSH2 0x173E DUP5 DUP3 DUP6 ADD PUSH2 0x16F7 JUMP JUMPDEST SWAP5 SWAP4 POP POP POP POP JUMP JUMPDEST PUSH1 0x0 DUP1 PUSH1 0x0 PUSH1 0x60 DUP5 DUP7 SUB SLT ISZERO PUSH2 0x175B JUMPI PUSH1 0x0 DUP1 REVERT JUMPDEST DUP4 CALLDATALOAD PUSH2 0x1766 DUP2 PUSH2 0x15E3 JUMP JUMPDEST SWAP3 POP PUSH1 0x20 DUP5 ADD CALLDATALOAD SWAP2 POP PUSH1 0x40 DUP5 ADD CALLDATALOAD PUSH2 0x177D DUP2 PUSH2 0x15E3 JUMP JUMPDEST DUP1 SWAP2 POP POP SWAP3 POP SWAP3 POP SWAP3 JUMP JUMPDEST PUSH1 0x0 DUP1 PUSH1 0x0 DUP1 PUSH1 0x0 PUSH1 0xA0 DUP7 DUP9 SUB SLT ISZERO PUSH2 0x17A0 JUMPI PUSH1 0x0 DUP1 REVERT JUMPDEST DUP6 CALLDATALOAD PUSH2 0x17AB DUP2 PUSH2 0x15E3 JUMP JUMPDEST SWAP5 POP PUSH1 0x20 DUP7 ADD CALLDATALOAD SWAP4 POP PUSH1 0x40 DUP7 ADD CALLDATALOAD PUSH2 0x17C2 DUP2 PUSH2 0x15E3 JUMP JUMPDEST SWAP3 POP PUSH1 0x60 DUP7 ADD CALLDATALOAD SWAP2 POP PUSH1 0x80 DUP7 ADD CALLDATALOAD PUSH2 0x17D9 DUP2 PUSH2 0x15E3 JUMP JUMPDEST DUP1 SWAP2 POP POP SWAP3 SWAP6 POP SWAP3 SWAP6 SWAP1 SWAP4 POP JUMP JUMPDEST PUSH4 0x4E487B71 PUSH1 0xE0 SHL PUSH1 0x0 MSTORE PUSH1 0x41 PUSH1 0x4 MSTORE PUSH1 0x24 PUSH1 0x0 REVERT JUMPDEST PUSH1 0x40 MLOAD PUSH1 0xA0 DUP2 ADD PUSH8 0xFFFFFFFFFFFFFFFF DUP2 GT DUP3 DUP3 LT OR ISZERO PUSH2 0x1820 JUMPI PUSH2 0x1820 PUSH2 0x17E7 JUMP JUMPDEST PUSH1 0x40 MSTORE SWAP1 JUMP JUMPDEST PUSH1 0x40 MLOAD PUSH1 0x1F DUP3 ADD PUSH1 0x1F NOT AND DUP2 ADD PUSH8 0xFFFFFFFFFFFFFFFF DUP2 GT DUP3 DUP3 LT OR ISZERO PUSH2 0x184F JUMPI PUSH2 0x184F PUSH2 0x17E7 JUMP JUMPDEST PUSH1 0x40 MSTORE SWAP2 SWAP1 POP JUMP JUMPDEST DUP1 CALLDATALOAD PUSH3 0xFFFFFF DUP2 AND DUP2 EQ PUSH2 0x1603 JUMPI PUSH1 0x0 DUP1 REVERT JUMPDEST PUSH1 0x0 PUSH2 0x100 DUP1 DUP4 DUP6 SUB SLT ISZERO PUSH2 0x187E JUMPI PUSH1 0x0 DUP1 REVERT JUMPDEST PUSH1 0x40 MLOAD SWAP1 DUP2 ADD SWAP1 PUSH8 0xFFFFFFFFFFFFFFFF DUP3 GT DUP2 DUP4 LT OR ISZERO PUSH2 0x18A1 JUMPI PUSH2 0x18A1 PUSH2 0x17E7 JUMP JUMPDEST DUP2 PUSH1 0x40 MSTORE DUP1 SWAP3 POP DUP4 CALLDATALOAD SWAP2 POP PUSH2 0x18B5 DUP3 PUSH2 0x15E3 JUMP JUMPDEST DUP2 DUP2 MSTORE PUSH2 0x18C4 PUSH1 0x20 DUP6 ADD PUSH2 0x15F8 JUMP JUMPDEST PUSH1 0x20 DUP3 ADD MSTORE PUSH2 0x18D5 PUSH1 0x40 DUP6 ADD PUSH2 0x1857 JUMP JUMPDEST PUSH1 0x40 DUP3 ADD MSTORE PUSH2 0x18E6 PUSH1 0x60 DUP6 ADD PUSH2 0x15F8 JUMP JUMPDEST PUSH1 0x60 DUP3 ADD MSTORE PUSH1 0x80 DUP5 ADD CALLDATALOAD PUSH1 0x80 DUP3 ADD MSTORE PUSH1 0xA0 DUP5 ADD CALLDATALOAD PUSH1 0xA0 DUP3 ADD MSTORE PUSH1 0xC0 DUP5 ADD CALLDATALOAD PUSH1 0xC0 DUP3 ADD MSTORE PUSH2 0x1915 PUSH1 0xE0 DUP6 ADD PUSH2 0x15F8 JUMP JUMPDEST PUSH1 0xE0 DUP3 ADD MSTORE POP POP SWAP3 SWAP2 POP POP JUMP JUMPDEST PUSH1 0x0 PUSH2 0x100 DUP3 DUP5 SUB SLT ISZERO PUSH2 0x1935 JUMPI PUSH1 0x0 DUP1 REVERT JUMPDEST PUSH2 0xE19 DUP4 DUP4 PUSH2 0x186A JUMP JUMPDEST PUSH4 0x4E487B71 PUSH1 0xE0 SHL PUSH1 0x0 MSTORE PUSH1 0x32 PUSH1 0x4 MSTORE PUSH1 0x24 PUSH1 0x0 REVERT JUMPDEST PUSH1 0x0 DUP1 DUP4 CALLDATALOAD PUSH1 0x1E NOT DUP5 CALLDATASIZE SUB ADD DUP2 SLT PUSH2 0x196C JUMPI PUSH1 0x0 DUP1 REVERT JUMPDEST DUP4 ADD DUP1 CALLDATALOAD SWAP2 POP PUSH8 0xFFFFFFFFFFFFFFFF DUP3 GT ISZERO PUSH2 0x1987 JUMPI PUSH1 0x0 DUP1 REVERT JUMPDEST PUSH1 0x20 ADD SWAP2 POP CALLDATASIZE DUP2 SWAP1 SUB DUP3 SGT ISZERO PUSH2 0x199C JUMPI PUSH1 0x0 DUP1 REVERT JUMPDEST SWAP3 POP SWAP3 SWAP1 POP JUMP JUMPDEST PUSH1 0x0 PUSH1 0xA0 DUP3 DUP5 SUB SLT ISZERO PUSH2 0x19B5 JUMPI PUSH1 0x0 DUP1 REVERT JUMPDEST PUSH2 0x19BD PUSH2 0x17FD JUMP JUMPDEST SWAP1 POP DUP2 CALLDATALOAD PUSH8 0xFFFFFFFFFFFFFFFF DUP1 DUP3 GT ISZERO PUSH2 0x19D7 JUMPI PUSH1 0x0 DUP1 REVERT JUMPDEST DUP2 DUP5 ADD SWAP2 POP DUP5 PUSH1 0x1F DUP4 ADD SLT PUSH2 0x19EB JUMPI PUSH1 0x0 DUP1 REVERT JUMPDEST DUP2 CALLDATALOAD PUSH1 0x20 DUP3 DUP3 GT ISZERO PUSH2 0x19FF JUMPI PUSH2 0x19FF PUSH2 0x17E7 JUMP JUMPDEST PUSH2 0x1A11 PUSH1 0x1F DUP4 ADD PUSH1 0x1F NOT AND DUP3 ADD PUSH2 0x1826 JUMP JUMPDEST SWAP3 POP DUP2 DUP4 MSTORE DUP7 DUP2 DUP4 DUP7 ADD ADD GT ISZERO PUSH2 0x1A27 JUMPI PUSH1 0x0 DUP1 REVERT JUMPDEST DUP2 DUP2 DUP6 ADD DUP3 DUP6 ADD CALLDATACOPY PUSH1 0x0 DUP2 DUP4 DUP6 ADD ADD MSTORE DUP3 DUP6 MSTORE PUSH2 0x1A45 DUP2 DUP8 ADD PUSH2 0x15F8 JUMP JUMPDEST DUP2 DUP7 ADD MSTORE POP POP POP POP PUSH1 0x40 DUP3 ADD CALLDATALOAD PUSH1 0x40 DUP3 ADD MSTORE PUSH1 0x60 DUP3 ADD CALLDATALOAD PUSH1 0x60 DUP3 ADD MSTORE PUSH1 0x80 DUP3 ADD CALLDATALOAD PUSH1 0x80 DUP3 ADD MSTORE SWAP3 SWAP2 POP POP JUMP JUMPDEST PUSH1 0x0 PUSH1 0x20 DUP3 DUP5 SUB SLT ISZERO PUSH2 0x1A83 JUMPI PUSH1 0x0 DUP1 REVERT JUMPDEST DUP2 CALLDATALOAD PUSH8 0xFFFFFFFFFFFFFFFF DUP2 GT ISZERO PUSH2 0x1A9A JUMPI PUSH1 0x0 DUP1 REVERT JUMPDEST PUSH2 0x173E DUP5 DUP3 DUP6 ADD PUSH2 0x19A3 JUMP JUMPDEST PUSH4 0x4E487B71 PUSH1 0xE0 SHL PUSH1 0x0 MSTORE PUSH1 0x11 PUSH1 0x4 MSTORE PUSH1 0x24 PUSH1 0x0 REVERT JUMPDEST PUSH1 0x0 PUSH1 0x0 NOT DUP3 EQ ISZERO PUSH2 0x1AD0 JUMPI PUSH2 0x1AD0 PUSH2 0x1AA6 JUMP JUMPDEST POP PUSH1 0x1 ADD SWAP1 JUMP JUMPDEST PUSH1 0x0 PUSH2 0x1AA CALLDATASIZE DUP4 PUSH2 0x19A3 JUMP JUMPDEST PUSH1 0x0 PUSH1 0x20 DUP3 DUP5 SUB SLT ISZERO PUSH2 0x1AF5 JUMPI PUSH1 0x0 DUP1 REVERT JUMPDEST DUP2 MLOAD PUSH2 0xE19 DUP2 PUSH2 0x15E3 JUMP JUMPDEST PUSH1 0x0 PUSH1 0x20 DUP3 DUP5 SUB SLT ISZERO PUSH2 0x1B12 JUMPI PUSH1 0x0 DUP1 REVERT JUMPDEST POP MLOAD SWAP2 SWAP1 POP JUMP JUMPDEST PUSH2 0x100 DUP2 ADD PUSH2 0x1AA DUP3 DUP5 DUP1 MLOAD PUSH1 0x1 PUSH1 0x1 PUSH1 0xA0 SHL SUB SWAP1 DUP2 AND DUP4 MSTORE PUSH1 0x20 DUP1 DUP4 ADD MLOAD DUP3 AND SWAP1 DUP5 ADD MSTORE PUSH1 0x40 DUP1 DUP4 ADD MLOAD PUSH3 0xFFFFFF AND SWAP1 DUP5 ADD MSTORE PUSH1 0x60 DUP1 DUP4 ADD MLOAD DUP3 AND SWAP1 DUP5 ADD MSTORE PUSH1 0x80 DUP1 DUP4 ADD MLOAD SWAP1 DUP5 ADD MSTORE PUSH1 0xA0 DUP3 DUP2 ADD MLOAD SWAP1 DUP5 ADD MSTORE PUSH1 0xC0 DUP1 DUP4 ADD MLOAD SWAP1 DUP5 ADD MSTORE PUSH1 0xE0 SWAP2 DUP3 ADD MLOAD AND SWAP2 ADD MSTORE JUMP JUMPDEST PUSH1 0x0 JUMPDEST DUP4 DUP2 LT ISZERO PUSH2 0x1B9E JUMPI DUP2 DUP2 ADD MLOAD DUP4 DUP3 ADD MSTORE PUSH1 0x20 ADD PUSH2 0x1B86 JUMP JUMPDEST DUP4 DUP2 GT ISZERO PUSH2 0x1CA JUMPI POP POP PUSH1 0x0 SWAP2 ADD MSTORE JUMP JUMPDEST PUSH1 0x0 DUP2 MLOAD PUSH1 0xA0 DUP5 MSTORE DUP1 MLOAD DUP1 PUSH1 0xA0 DUP7 ADD MSTORE PUSH2 0x1BD0 DUP2 PUSH1 0xC0 DUP8 ADD PUSH1 0x20 DUP6 ADD PUSH2 0x1B83 JUMP JUMPDEST PUSH1 0x20 DUP5 DUP2 ADD MLOAD PUSH1 0x1 PUSH1 0x1 PUSH1 0xA0 SHL SUB AND SWAP1 DUP7 ADD MSTORE PUSH1 0x40 DUP1 DUP6 ADD MLOAD SWAP1 DUP7 ADD MSTORE PUSH1 0x60 DUP1 DUP6 ADD MLOAD SWAP1 DUP7 ADD MSTORE PUSH1 0x80 SWAP4 DUP5 ADD MLOAD SWAP4 DUP6 ADD SWAP4 SWAP1 SWAP4 MSTORE POP POP PUSH1 0x1F ADD PUSH1 0x1F NOT AND ADD PUSH1 0xC0 ADD SWAP1 JUMP JUMPDEST PUSH1 0x20 DUP2 MSTORE PUSH1 0x0 PUSH2 0xE19 PUSH1 0x20 DUP4 ADD DUP5 PUSH2 0x1BAF JUMP JUMPDEST PUSH1 0x0 DUP3 MLOAD PUSH2 0x1C39 DUP2 DUP5 PUSH1 0x20 DUP8 ADD PUSH2 0x1B83 JUMP JUMPDEST SWAP2 SWAP1 SWAP2 ADD SWAP3 SWAP2 POP POP JUMP JUMPDEST PUSH1 0x0 PUSH1 0x20 DUP3 DUP5 SUB SLT ISZERO PUSH2 0x1C55 JUMPI PUSH1 0x0 DUP1 REVERT JUMPDEST DUP2 MLOAD DUP1 ISZERO ISZERO DUP2 EQ PUSH2 0xE19 JUMPI PUSH1 0x0 DUP1 REVERT JUMPDEST PUSH1 0x0 DUP3 NOT DUP3 GT ISZERO PUSH2 0x1C78 JUMPI PUSH2 0x1C78 PUSH2 0x1AA6 JUMP JUMPDEST POP ADD SWAP1 JUMP INVALID LOG2 PUSH5 0x6970667358 0x22 SLT KECCAK256 GT BLOCKHASH 0xC 0x23 SWAP2 0xC6 DIV MULMOD 0xED SWAP1 0xE7 0xE9 PUSH28 0x4AFF0BD89A82BEC9F3DE68FAA6231EB794A3A64736F6C6343000809 STOP CALLER "
		},
		"gasEstimates": {
			"creation": {
				"codeDepositCost": "1469400",
				"executionCost": "infinite",
				"totalCost": "infinite"
			},
			"external": {
				"exactInput((bytes,address,uint256,uint256,uint256))": "infinite",
				"exactInputSingle((address,address,uint24,address,uint256,uint256,uint256,uint160))": "infinite",
				"exactOutput((bytes,address,uint256,uint256,uint256))": "infinite",
				"exactOutputSingle((address,address,uint24,address,uint256,uint256,uint256,uint160))": "infinite",
				"multicall(bytes[])": "infinite",
				"refundETH()": "infinite",
				"sweepToken(address,uint256,address)": "infinite",
				"sweepTokenWithFee(address,uint256,address,uint256,address)": "infinite",
				"unwrapWETH9(uint256,address)": "infinite",
				"unwrapWETH9WithFee(uint256,address,uint256,address)": "infinite",
				"wrapETH(uint256)": "infinite"
			},
			"internal": {
				"exactInputInternal(struct ISwapRouter.ExactInputParams memory)": "infinite",
				"exactInputSingleInternal(struct ISwapRouter.ExactInputSingleParams memory)": "infinite",
				"exactOutputInternal(struct ISwapRouter.ExactOutputParams memory)": "infinite",
				"exactOutputSingleInternal(struct ISwapRouter.ExactOutputSingleParams memory)": "infinite",
				"refundETHInternal()": "infinite",
				"safeApproveInternal(address,address,uint256)": "infinite",
				"sweepTokenInternal(address,uint256,address)": "infinite",
				"sweepTokenWithFeeInternal(address,uint256,address,uint256,address)": "infinite",
				"unwrapWETH9Internal(uint256,address)": "infinite",
				"unwrapWETH9WithFeeInternal(uint256,address,uint256,address)": "infinite",
				"wrapETHInternal(uint256)": "infinite"
			}
		},
		"methodIdentifiers": {
			"exactInput((bytes,address,uint256,uint256,uint256))": "c04b8d59",
			"exactInputSingle((address,address,uint24,address,uint256,uint256,uint256,uint160))": "414bf389",
			"exactOutput((bytes,address,uint256,uint256,uint256))": "f28c0498",
			"exactOutputSingle((address,address,uint24,address,uint256,uint256,uint256,uint160))": "db3e2198",
			"multicall(bytes[])": "ac9650d8",
			"refundETH()": "12210e8a",
			"sweepToken(address,uint256,address)": "df2ab5bb",
			"sweepTokenWithFee(address,uint256,address,uint256,address)": "e0e189a0",
			"unwrapWETH9(uint256,address)": "49404b7c",
			"unwrapWETH9WithFee(uint256,address,uint256,address)": "9b2c0a37",
			"wrapETH(uint256)": "1c58db4f"
		}
	},
	"abi": [
		{
			"inputs": [
				{
					"components": [
						{
							"internalType": "bytes",
							"name": "path",
							"type": "bytes"
						},
						{
							"internalType": "address",
							"name": "recipient",
							"type": "address"
						},
						{
							"internalType": "uint256",
							"name": "deadline",
							"type": "uint256"
						},
						{
							"internalType": "uint256",
							"name": "amountIn",
							"type": "uint256"
						},
						{
							"internalType": "uint256",
							"name": "amountOutMinimum",
							"type": "uint256"
						}
					],
					"internalType": "struct ISwapRouter.ExactInputParams",
					"name": "params",
					"type": "tuple"
				}
			],
			"name": "exactInput",
			"outputs": [
				{
					"internalType": "uint256",
					"name": "amountOut",
					"type": "uint256"
				}
			],
			"stateMutability": "payable",
			"type": "function"
		},
		{
			"inputs": [
				{
					"components": [
						{
							"internalType": "address",
							"name": "tokenIn",
							"type": "address"
						},
						{
							"internalType": "address",
							"name": "tokenOut",
							"type": "address"
						},
						{
							"internalType": "uint24",
							"name": "fee",
							"type": "uint24"
						},
						{
							"internalType": "address",
							"name": "recipient",
							"type": "address"
						},
						{
							"internalType": "uint256",
							"name": "deadline",
							"type": "uint256"
						},
						{
							"internalType": "uint256",
							"name": "amountIn",
							"type": "uint256"
						},
						{
							"internalType": "uint256",
							"name": "amountOutMinimum",
							"type": "uint256"
						},
						{
							"internalType": "uint160",
							"name": "sqrtPriceLimitX96",
							"type": "uint160"
						}
					],
					"internalType": "struct ISwapRouter.ExactInputSingleParams",
					"name": "params",
					"type": "tuple"
				}
			],
			"name": "exactInputSingle",
			"outputs": [
				{
					"internalType": "uint256",
					"name": "amountOut",
					"type": "uint256"
				}
			],
			"stateMutability": "payable",
			"type": "function"
		},
		{
			"inputs": [
				{
					"components": [
						{
							"internalType": "bytes",
							"name": "path",
							"type": "bytes"
						},
						{
							"internalType": "address",
							"name": "recipient",
							"type": "address"
						},
						{
							"internalType": "uint256",
							"name": "deadline",
							"type": "uint256"
						},
						{
							"internalType": "uint256",
							"name": "amountOut",
							"type": "uint256"
						},
						{
							"internalType": "uint256",
							"name": "amountInMaximum",
							"type": "uint256"
						}
					],
					"internalType": "struct ISwapRouter.ExactOutputParams",
					"name": "params",
					"type": "tuple"
				}
			],
			"name": "exactOutput",
			"outputs": [
				{
					"internalType": "uint256",
					"name": "amountIn",
					"type": "uint256"
				}
			],
			"stateMutability": "payable",
			"type": "function"
		},
		{
			"inputs": [
				{
					"components": [
						{
							"internalType": "address",
							"name": "tokenIn",
							"type": "address"
						},
						{
							"internalType": "address",
							"name": "tokenOut",
							"type": "address"
						},
						{
							"internalType": "uint24",
							"name": "fee",
							"type": "uint24"
						},
						{
							"internalType": "address",
							"name": "recipient",
							"type": "address"
						},
						{
							"internalType": "uint256",
							"name": "deadline",
							"type": "uint256"
						},
						{
							"internalType": "uint256",
							"name": "amountOut",
							"type": "uint256"
						},
						{
							"internalType": "uint256",
							"name": "amountInMaximum",
							"type": "uint256"
						},
						{
							"internalType": "uint160",
							"name": "sqrtPriceLimitX96",
							"type": "uint160"
						}
					],
					"internalType": "struct ISwapRouter.ExactOutputSingleParams",
					"name": "params",
					"type": "tuple"
				}
			],
			"name": "exactOutputSingle",
			"outputs": [
				{
					"internalType": "uint256",
					"name": "amountIn",
					"type": "uint256"
				}
			],
			"stateMutability": "payable",
			"type": "function"
		},
		{
			"inputs": [
				{
					"internalType": "bytes[]",
					"name": "data",
					"type": "bytes[]"
				}
			],
			"name": "multicall",
			"outputs": [],
			"stateMutability": "payable",
			"type": "function"
		},
		{
			"inputs": [],
			"name": "refundETH",
			"outputs": [],
			"stateMutability": "payable",
			"type": "function"
		},
		{
			"inputs": [
				{
					"internalType": "address",
					"name": "token",
					"type": "address"
				},
				{
					"internalType": "uint256",
					"name": "amountMinimum",
					"type": "uint256"
				},
				{
					"internalType": "address",
					"name": "recipient",
					"type": "address"
				}
			],
			"name": "sweepToken",
			"outputs": [],
			"stateMutability": "payable",
			"type": "function"
		},
		{
			"inputs": [
				{
					"internalType": "address",
					"name": "token",
					"type": "address"
				},
				{
					"internalType": "uint256",
					"name": "amountMinimum",
					"type": "uint256"
				},
				{
					"internalType": "address",
					"name": "recipient",
					"type": "address"
				},
				{
					"internalType": "uint256",
					"name": "feeBips",
					"type": "uint256"
				},
				{
					"internalType": "address",
					"name": "feeRecipient",
					"type": "address"
				}
			],
			"name": "sweepTokenWithFee",
			"outputs": [],
			"stateMutability": "payable",
			"type": "function"
		},
		{
			"inputs": [
				{
					"internalType": "uint256",
					"name": "amountMinimum",
					"type": "uint256"
				},
				{
					"internalType": "address",
					"name": "recipient",
					"type": "address"
				}
			],
			"name": "unwrapWETH9",
			"outputs": [],
			"stateMutability": "payable",
			"type": "function"
		},
		{
			"inputs": [
				{
					"internalType": "uint256",
					"name": "amountMinimum",
					"type": "uint256"
				},
				{
					"internalType": "address",
					"name": "recipient",
					"type": "address"
				},
				{
					"internalType": "uint256",
					"name": "feeBips",
					"type": "uint256"
				},
				{
					"internalType": "address",
					"name": "feeRecipient",
					"type": "address"
				}
			],
			"name": "unwrapWETH9WithFee",
			"outputs": [],
			"stateMutability": "payable",
			"type": "function"
		},
		{
			"inputs": [
				{
					"internalType": "uint256",
					"name": "value",
					"type": "uint256"
				}
			],
			"name": "wrapETH",
			"outputs": [],
			"stateMutability": "payable",
			"type": "function"
		}
	]
}