{
	"data": {
		"bytecode": {
			"linkReferences": {},
			"object": "610100604052613d0960e61b60c052614e2060e05234801561002057600080fd5b506040516107d03803806107d083398101604081905261003f91610079565b6001600160601b0319606092831b8116608052911b1660a0526100ab565b80516001600160a01b038116811461007457600080fd5b919050565b6000806040838503121561008b578182fd5b6100948361005d565b91506100a26020840161005d565b90509250929050565b60805160601c60a05160601c60c05160e01c60e0516106cf6101016000398061040052508061042e52508061019852806102d7528061033c528061047352508060ff52806102aa528061036c52506106cf6000f3fe608060405234801561001057600080fd5b50600436106100885760003560e01c80636dd739441161005b5780636dd73944146100dd578063c551a2f9146100e5578063c9b185cc146100ed578063e9a0bae7146100f557610088565b80630846a5411461008d578063175db3c4146100ab5780631a88bc66146100c057806357d775f8146100d5575b600080fd5b6100956100fd565b6040516100a291906105a9565b60405180910390f35b6100b3610121565b6040516100a291906105d6565b6100c861013b565b6040516100a29190610690565b6100c8610141565b6100c8610147565b6100c861015f565b61009561033a565b6100c861035e565b7f000000000000000000000000000000000000000000000000000000000000000081565b6000600254421061013457506001610138565b5060005b90565b60005481565b60015481565b60006002544210156101345742600254039050610138565b6000610169610468565b6002544210156101945760405162461bcd60e51b815260040161018b906105e1565b60405180910390fd5b60007f00000000000000000000000000000000000000000000000000000000000000006001600160a01b0316635e615a6b6040518163ffffffff1660e01b815260040160a06040518083038186803b1580156101ef57600080fd5b505afa158015610203573d6000803e3d6000fd5b505050506040513d601f19601f820116820180604052508101906102279190610553565b505050509050806001541461026c576206978081108061024957506276a70081115b156102665760405162461bcd60e51b815260040161018b90610647565b60018190555b600061027661035e565b9050600154420160028190555061029060005460016104b2565b600055604051630f38ca0d60e31b81526001600160a01b037f000000000000000000000000000000000000000000000000000000000000000016906379c6506890610301907f00000000000000000000000000000000000000000000000000000000000000009085906004016105bd565b600060405180830381600087803b15801561031b57600080fd5b505af115801561032f573d6000803e3d6000fd5b509294505050505090565b7f000000000000000000000000000000000000000000000000000000000000000081565b60008061046261045861042c7f00000000000000000000000000000000000000000000000000000000000000006001600160a01b03166318160ddd6040518163ffffffff1660e01b815260040160206040518083038186803b1580156103c357600080fd5b505afa1580156103d7573d6000803e3d6000fd5b505050506040513d601f19601f820116820180604052508101906103fb919061053b565b6104277f00000000000000000000000000000000000000000000000000000000000000006001546104d4565b6104d4565b7f000000000000000000000000000000000000000000000000000000000000000063ffffffff166104f3565b6301e133806104f3565b91505090565b336001600160a01b037f000000000000000000000000000000000000000000000000000000000000000016146104b05760405162461bcd60e51b815260040161018b90610610565b565b60008282018381108015906104c75750828110155b6104cd57fe5b9392505050565b60008282028315806104c75750828482816104eb57fe5b04146104cd57fe5b60008082116104fe57fe5b600082848161050957fe5b04905082848161051557fe5b068184020184146104cd57fe5b805163ffffffff8116811461053657600080fd5b919050565b60006020828403121561054c578081fd5b5051919050565b600080600080600060a0868803121561056a578081fd5b8551945061057a60208701610522565b93506040860151925061058f60608701610522565b915061059d60808701610522565b90509295509295909350565b6001600160a01b0391909116815260200190565b6001600160a01b03929092168252602082015260400190565b901515815260200190565b6020808252601590820152742727aa2fa2a727aaa3a42faa24a6a2afa2a92927a960591b604082015260600190565b6020808252601e908201527f43414c4c45525f4e4f545f5354414b494e475f50524f58595f4552524f520000604082015260600190565b60208082526029908201527f5354414b494e475f45504f43485f54494d455f414e4f4d414c595f44455445436040820152682a22a22fa2a92927a960b91b606082015260800190565b9081526020019056fea2646970667358221220f0fa941e2dd9a3ac97a9942ffe4accc506451bcf3830c30eb20cfb41bd0e945664736f6c63430007040033",
			"opcodes": "PUSH2 0x100 PUSH1 0x40 MSTORE PUSH2 0x3D09 PUSH1 0xE6 SHL PUSH1 0xC0 MSTORE PUSH2 0x4E20 PUSH1 0xE0 MSTORE CALLVALUE DUP1 ISZERO PUSH2 0x20 JUMPI PUSH1 0x0 DUP1 REVERT JUMPDEST POP PUSH1 0x40 MLOAD PUSH2 0x7D0 CODESIZE SUB DUP1 PUSH2 0x7D0 DUP4 CODECOPY DUP2 ADD PUSH1 0x40 DUP2 SWAP1 MSTORE PUSH2 0x3F SWAP2 PUSH2 0x79 JUMP JUMPDEST PUSH1 0x1 PUSH1 0x1 PUSH1 0x60 SHL SUB NOT PUSH1 0x60 SWAP3 DUP4 SHL DUP2 AND PUSH1 0x80 MSTORE SWAP2 SHL AND PUSH1 0xA0 MSTORE PUSH2 0xAB JUMP JUMPDEST DUP1 MLOAD PUSH1 0x1 PUSH1 0x1 PUSH1 0xA0 SHL SUB DUP2 AND DUP2 EQ PUSH2 0x74 JUMPI PUSH1 0x0 DUP1 REVERT JUMPDEST SWAP2 SWAP1 POP JUMP JUMPDEST PUSH1 0x0 DUP1 PUSH1 0x40 DUP4 DUP6 SUB SLT ISZERO PUSH2 0x8B JUMPI DUP2 DUP3 REVERT JUMPDEST PUSH2 0x94 DUP4 PUSH2 0x5D JUMP JUMPDEST SWAP2 POP PUSH2 0xA2 PUSH1 0x20 DUP5 ADD PUSH2 0x5D JUMP JUMPDEST SWAP1 POP SWAP3 POP SWAP3 SWAP1 POP JUMP JUMPDEST PUSH1 0x80 MLOAD PUSH1 0x60 SHR PUSH1 0xA0 MLOAD PUSH1 0x60 SHR PUSH1 0xC0 MLOAD PUSH1 0xE0 SHR PUSH1 0xE0 MLOAD PUSH2 0x6CF PUSH2 0x101 PUSH1 0x0 CODECOPY DUP1 PUSH2 0x400 MSTORE POP DUP1 PUSH2 0x42E MSTORE POP DUP1 PUSH2 0x198 MSTORE DUP1 PUSH2 0x2D7 MSTORE DUP1 PUSH2 0x33C MSTORE DUP1 PUSH2 0x473 MSTORE POP DUP1 PUSH1 0xFF MSTORE DUP1 PUSH2 0x2AA MSTORE DUP1 PUSH2 0x36C MSTORE POP PUSH2 0x6CF PUSH1 0x0 RETURN INVALID PUSH1 0x80 PUSH1 0x40 MSTORE CALLVALUE DUP1 ISZERO PUSH2 0x10 JUMPI PUSH1 0x0 DUP1 REVERT JUMPDEST POP PUSH1 0x4 CALLDATASIZE LT PUSH2 0x88 JUMPI PUSH1 0x0 CALLDATALOAD PUSH1 0xE0 SHR DUP1 PUSH4 0x6DD73944 GT PUSH2 0x5B JUMPI DUP1 PUSH4 0x6DD73944 EQ PUSH2 0xDD JUMPI DUP1 PUSH4 0xC551A2F9 EQ PUSH2 0xE5 JUMPI DUP1 PUSH4 0xC9B185CC EQ PUSH2 0xED JUMPI DUP1 PUSH4 0xE9A0BAE7 EQ PUSH2 0xF5 JUMPI PUSH2 0x88 JUMP JUMPDEST DUP1 PUSH4 0x846A541 EQ PUSH2 0x8D JUMPI DUP1 PUSH4 0x175DB3C4 EQ PUSH2 0xAB JUMPI DUP1 PUSH4 0x1A88BC66 EQ PUSH2 0xC0 JUMPI DUP1 PUSH4 0x57D775F8 EQ PUSH2 0xD5 JUMPI JUMPDEST PUSH1 0x0 DUP1 REVERT JUMPDEST PUSH2 0x95 PUSH2 0xFD JUMP JUMPDEST PUSH1 0x40 MLOAD PUSH2 0xA2 SWAP2 SWAP1 PUSH2 0x5A9 JUMP JUMPDEST PUSH1 0x40 MLOAD DUP1 SWAP2 SUB SWAP1 RETURN JUMPDEST PUSH2 0xB3 PUSH2 0x121 JUMP JUMPDEST PUSH1 0x40 MLOAD PUSH2 0xA2 SWAP2 SWAP1 PUSH2 0x5D6 JUMP JUMPDEST PUSH2 0xC8 PUSH2 0x13B JUMP JUMPDEST PUSH1 0x40 MLOAD PUSH2 0xA2 SWAP2 SWAP1 PUSH2 0x690 JUMP JUMPDEST PUSH2 0xC8 PUSH2 0x141 JUMP JUMPDEST PUSH2 0xC8 PUSH2 0x147 JUMP JUMPDEST PUSH2 0xC8 PUSH2 0x15F JUMP JUMPDEST PUSH2 0x95 PUSH2 0x33A JUMP JUMPDEST PUSH2 0xC8 PUSH2 0x35E JUMP JUMPDEST PUSH32 0x0 DUP2 JUMP JUMPDEST PUSH1 0x0 PUSH1 0x2 SLOAD TIMESTAMP LT PUSH2 0x134 JUMPI POP PUSH1 0x1 PUSH2 0x138 JUMP JUMPDEST POP PUSH1 0x0 JUMPDEST SWAP1 JUMP JUMPDEST PUSH1 0x0 SLOAD DUP2 JUMP JUMPDEST PUSH1 0x1 SLOAD DUP2 JUMP JUMPDEST PUSH1 0x0 PUSH1 0x2 SLOAD TIMESTAMP LT ISZERO PUSH2 0x134 JUMPI TIMESTAMP PUSH1 0x2 SLOAD SUB SWAP1 POP PUSH2 0x138 JUMP JUMPDEST PUSH1 0x0 PUSH2 0x169 PUSH2 0x468 JUMP JUMPDEST PUSH1 0x2 SLOAD TIMESTAMP LT ISZERO PUSH2 0x194 JUMPI PUSH1 0x40 MLOAD PUSH3 0x461BCD PUSH1 0xE5 SHL DUP2 MSTORE PUSH1 0x4 ADD PUSH2 0x18B SWAP1 PUSH2 0x5E1 JUMP JUMPDEST PUSH1 0x40 MLOAD DUP1 SWAP2 SUB SWAP1 REVERT JUMPDEST PUSH1 0x0 PUSH32 0x0 PUSH1 0x1 PUSH1 0x1 PUSH1 0xA0 SHL SUB AND PUSH4 0x5E615A6B PUSH1 0x40 MLOAD DUP2 PUSH4 0xFFFFFFFF AND PUSH1 0xE0 SHL DUP2 MSTORE PUSH1 0x4 ADD PUSH1 0xA0 PUSH1 0x40 MLOAD DUP1 DUP4 SUB DUP2 DUP7 DUP1 EXTCODESIZE ISZERO DUP1 ISZERO PUSH2 0x1EF JUMPI PUSH1 0x0 DUP1 REVERT JUMPDEST POP GAS STATICCALL ISZERO DUP1 ISZERO PUSH2 0x203 JUMPI RETURNDATASIZE PUSH1 0x0 DUP1 RETURNDATACOPY RETURNDATASIZE PUSH1 0x0 REVERT JUMPDEST POP POP POP POP PUSH1 0x40 MLOAD RETURNDATASIZE PUSH1 0x1F NOT PUSH1 0x1F DUP3 ADD AND DUP3 ADD DUP1 PUSH1 0x40 MSTORE POP DUP2 ADD SWAP1 PUSH2 0x227 SWAP2 SWAP1 PUSH2 0x553 JUMP JUMPDEST POP POP POP POP SWAP1 POP DUP1 PUSH1 0x1 SLOAD EQ PUSH2 0x26C JUMPI PUSH3 0x69780 DUP2 LT DUP1 PUSH2 0x249 JUMPI POP PUSH3 0x76A700 DUP2 GT JUMPDEST ISZERO PUSH2 0x266 JUMPI PUSH1 0x40 MLOAD PUSH3 0x461BCD PUSH1 0xE5 SHL DUP2 MSTORE PUSH1 0x4 ADD PUSH2 0x18B SWAP1 PUSH2 0x647 JUMP JUMPDEST PUSH1 0x1 DUP2 SWAP1 SSTORE JUMPDEST PUSH1 0x0 PUSH2 0x276 PUSH2 0x35E JUMP JUMPDEST SWAP1 POP PUSH1 0x1 SLOAD TIMESTAMP ADD PUSH1 0x2 DUP2 SWAP1 SSTORE POP PUSH2 0x290 PUSH1 0x0 SLOAD PUSH1 0x1 PUSH2 0x4B2 JUMP JUMPDEST PUSH1 0x0 SSTORE PUSH1 0x40 MLOAD PUSH4 0xF38CA0D PUSH1 0xE3 SHL DUP2 MSTORE PUSH1 0x1 PUSH1 0x1 PUSH1 0xA0 SHL SUB PUSH32 0x0 AND SWAP1 PUSH4 0x79C65068 SWAP1 PUSH2 0x301 SWAP1 PUSH32 0x0 SWAP1 DUP6 SWAP1 PUSH1 0x4 ADD PUSH2 0x5BD JUMP JUMPDEST PUSH1 0x0 PUSH1 0x40 MLOAD DUP1 DUP4 SUB DUP2 PUSH1 0x0 DUP8 DUP1 EXTCODESIZE ISZERO DUP1 ISZERO PUSH2 0x31B JUMPI PUSH1 0x0 DUP1 REVERT JUMPDEST POP GAS CALL ISZERO DUP1 ISZERO PUSH2 0x32F JUMPI RETURNDATASIZE PUSH1 0x0 DUP1 RETURNDATACOPY RETURNDATASIZE PUSH1 0x0 REVERT JUMPDEST POP SWAP3 SWAP5 POP POP POP POP POP SWAP1 JUMP JUMPDEST PUSH32 0x0 DUP2 JUMP JUMPDEST PUSH1 0x0 DUP1 PUSH2 0x462 PUSH2 0x458 PUSH2 0x42C PUSH32 0x0 PUSH1 0x1 PUSH1 0x1 PUSH1 0xA0 SHL SUB AND PUSH4 0x18160DDD PUSH1 0x40 MLOAD DUP2 PUSH4 0xFFFFFFFF AND PUSH1 0xE0 SHL DUP2 MSTORE PUSH1 0x4 ADD PUSH1 0x20 PUSH1 0x40 MLOAD DUP1 DUP4 SUB DUP2 DUP7 DUP1 EXTCODESIZE ISZERO DUP1 ISZERO PUSH2 0x3C3 JUMPI PUSH1 0x0 DUP1 REVERT JUMPDEST POP GAS STATICCALL ISZERO DUP1 ISZERO PUSH2 0x3D7 JUMPI RETURNDATASIZE PUSH1 0x0 DUP1 RETURNDATACOPY RETURNDATASIZE PUSH1 0x0 REVERT JUMPDEST POP POP POP POP PUSH1 0x40 MLOAD RETURNDATASIZE PUSH1 0x1F NOT PUSH1 0x1F DUP3 ADD AND DUP3 ADD DUP1 PUSH1 0x40 MSTORE POP DUP2 ADD SWAP1 PUSH2 0x3FB SWAP2 SWAP1 PUSH2 0x53B JUMP JUMPDEST PUSH2 0x427 PUSH32 0x0 PUSH1 0x1 SLOAD PUSH2 0x4D4 JUMP JUMPDEST PUSH2 0x4D4 JUMP JUMPDEST PUSH32 0x0 PUSH4 0xFFFFFFFF AND PUSH2 0x4F3 JUMP JUMPDEST PUSH4 0x1E13380 PUSH2 0x4F3 JUMP JUMPDEST SWAP2 POP POP SWAP1 JUMP JUMPDEST CALLER PUSH1 0x1 PUSH1 0x1 PUSH1 0xA0 SHL SUB PUSH32 0x0 AND EQ PUSH2 0x4B0 JUMPI PUSH1 0x40 MLOAD PUSH3 0x461BCD PUSH1 0xE5 SHL DUP2 MSTORE PUSH1 0x4 ADD PUSH2 0x18B SWAP1 PUSH2 0x610 JUMP JUMPDEST JUMP JUMPDEST PUSH1 0x0 DUP3 DUP3 ADD DUP4 DUP2 LT DUP1 ISZERO SWAP1 PUSH2 0x4C7 JUMPI POP DUP3 DUP2 LT ISZERO JUMPDEST PUSH2 0x4CD JUMPI INVALID JUMPDEST SWAP4 SWAP3 POP POP POP JUMP JUMPDEST PUSH1 0x0 DUP3 DUP3 MUL DUP4 ISZERO DUP1 PUSH2 0x4C7 JUMPI POP DUP3 DUP5 DUP3 DUP2 PUSH2 0x4EB JUMPI INVALID JUMPDEST DIV EQ PUSH2 0x4CD JUMPI INVALID JUMPDEST PUSH1 0x0 DUP1 DUP3 GT PUSH2 0x4FE JUMPI INVALID JUMPDEST PUSH1 0x0 DUP3 DUP5 DUP2 PUSH2 0x509 JUMPI INVALID JUMPDEST DIV SWAP1 POP DUP3 DUP5 DUP2 PUSH2 0x515 JUMPI INVALID JUMPDEST MOD DUP2 DUP5 MUL ADD DUP5 EQ PUSH2 0x4CD JUMPI INVALID JUMPDEST DUP1 MLOAD PUSH4 0xFFFFFFFF DUP2 AND DUP2 EQ PUSH2 0x536 JUMPI PUSH1 0x0 DUP1 REVERT JUMPDEST SWAP2 SWAP1 POP JUMP JUMPDEST PUSH1 0x0 PUSH1 0x20 DUP3 DUP5 SUB SLT ISZERO PUSH2 0x54C JUMPI DUP1 DUP2 REVERT JUMPDEST POP MLOAD SWAP2 SWAP1 POP JUMP JUMPDEST PUSH1 0x0 DUP1 PUSH1 0x0 DUP1 PUSH1 0x0 PUSH1 0xA0 DUP7 DUP9 SUB SLT ISZERO PUSH2 0x56A JUMPI DUP1 DUP2 REVERT JUMPDEST DUP6 MLOAD SWAP5 POP PUSH2 0x57A PUSH1 0x20 DUP8 ADD PUSH2 0x522 JUMP JUMPDEST SWAP4 POP PUSH1 0x40 DUP7 ADD MLOAD SWAP3 POP PUSH2 0x58F PUSH1 0x60 DUP8 ADD PUSH2 0x522 JUMP JUMPDEST SWAP2 POP PUSH2 0x59D PUSH1 0x80 DUP8 ADD PUSH2 0x522 JUMP JUMPDEST SWAP1 POP SWAP3 SWAP6 POP SWAP3 SWAP6 SWAP1 SWAP4 POP JUMP JUMPDEST PUSH1 0x1 PUSH1 0x1 PUSH1 0xA0 SHL SUB SWAP2 SWAP1 SWAP2 AND DUP2 MSTORE PUSH1 0x20 ADD SWAP1 JUMP JUMPDEST PUSH1 0x1 PUSH1 0x1 PUSH1 0xA0 SHL SUB SWAP3 SWAP1 SWAP3 AND DUP3 MSTORE PUSH1 0x20 DUP3 ADD MSTORE PUSH1 0x40 ADD SWAP1 JUMP JUMPDEST SWAP1 ISZERO ISZERO DUP2 MSTORE PUSH1 0x20 ADD SWAP1 JUMP JUMPDEST PUSH1 0x20 DUP1 DUP3 MSTORE PUSH1 0x15 SWAP1 DUP3 ADD MSTORE PUSH21 0x2727AA2FA2A727AAA3A42FAA24A6A2AFA2A92927A9 PUSH1 0x59 SHL PUSH1 0x40 DUP3 ADD MSTORE PUSH1 0x60 ADD SWAP1 JUMP JUMPDEST PUSH1 0x20 DUP1 DUP3 MSTORE PUSH1 0x1E SWAP1 DUP3 ADD MSTORE PUSH32 0x43414C4C45525F4E4F545F5354414B494E475F50524F58595F4552524F520000 PUSH1 0x40 DUP3 ADD MSTORE PUSH1 0x60 ADD SWAP1 JUMP JUMPDEST PUSH1 0x20 DUP1 DUP3 MSTORE PUSH1 0x29 SWAP1 DUP3 ADD MSTORE PUSH32 0x5354414B494E475F45504F43485F54494D455F414E4F4D414C595F4445544543 PUSH1 0x40 DUP3 ADD MSTORE PUSH9 0x2A22A22FA2A92927A9 PUSH1 0xB9 SHL PUSH1 0x60 DUP3 ADD MSTORE PUSH1 0x80 ADD SWAP1 JUMP JUMPDEST SWAP1 DUP2 MSTORE PUSH1 0x20 ADD SWAP1 JUMP INVALID LOG2 PUSH5 0x6970667358 0x22 SLT KECCAK256 CREATE STATICCALL SWAP5 0x1E 0x2D 0xD9 LOG3 0xAC SWAP8 0xA9 SWAP5 0x2F INVALID 0x4A 0xCC 0xC5 MOD GASLIMIT SHL 0xCF CODESIZE ADDRESS 0xC3 0xE 0xB2 0xC 0xFB COINBASE 0xBD 0xE SWAP5 JUMP PUSH5 0x736F6C6343 STOP SMOD DIV STOP CALLER "
		},
		"gasEstimates": {
			"creation": {
				"codeDepositCost": "348600",
				"executionCost": "infinite",
				"totalCost": "infinite"
			},
			"external": {
				"RIGO_TOKEN_ADDRESS()": "infinite",
				"STAKING_PROXY_ADDRESS()": "infinite",
				"epochEnded()": "1095",
				"epochLength()": "1095",
				"getEpochInflation()": "infinite",
				"mintInflation()": "infinite",
				"slot()": "1073",
				"timeUntilNextClaim()": "1877"
			},
			"internal": {
				"_assertCallerIsStakingProxy()": "infinite"
			}
		},
		"methodIdentifiers": {
			"RIGO_TOKEN_ADDRESS()": "0846a541",
			"STAKING_PROXY_ADDRESS()": "c9b185cc",
			"epochEnded()": "175db3c4",
			"epochLength()": "57d775f8",
			"getEpochInflation()": "e9a0bae7",
			"mintInflation()": "c551a2f9",
			"slot()": "1a88bc66",
			"timeUntilNextClaim()": "6dd73944"
		}
	},
	"abi": [
		{
			"inputs": [
				{
					"internalType": "address",
					"name": "_rigoTokenAddress",
					"type": "address"
				},
				{
					"internalType": "address",
					"name": "_stakingProxyAddress",
					"type": "address"
				}
			],
			"stateMutability": "nonpayable",
			"type": "constructor"
		},
		{
			"inputs": [],
			"name": "RIGO_TOKEN_ADDRESS",
			"outputs": [
				{
					"internalType": "address",
					"name": "",
					"type": "address"
				}
			],
			"stateMutability": "view",
			"type": "function"
		},
		{
			"inputs": [],
			"name": "STAKING_PROXY_ADDRESS",
			"outputs": [
				{
					"internalType": "address",
					"name": "",
					"type": "address"
				}
			],
			"stateMutability": "view",
			"type": "function"
		},
		{
			"inputs": [],
			"name": "epochEnded",
			"outputs": [
				{
					"internalType": "bool",
					"name": "",
					"type": "bool"
				}
			],
			"stateMutability": "view",
			"type": "function"
		},
		{
			"inputs": [],
			"name": "epochLength",
			"outputs": [
				{
					"internalType": "uint256",
					"name": "",
					"type": "uint256"
				}
			],
			"stateMutability": "view",
			"type": "function"
		},
		{
			"inputs": [],
			"name": "getEpochInflation",
			"outputs": [
				{
					"internalType": "uint256",
					"name": "",
					"type": "uint256"
				}
			],
			"stateMutability": "view",
			"type": "function"
		},
		{
			"inputs": [],
			"name": "mintInflation",
			"outputs": [
				{
					"internalType": "uint256",
					"name": "mintedInflation",
					"type": "uint256"
				}
			],
			"stateMutability": "nonpayable",
			"type": "function"
		},
		{
			"inputs": [],
			"name": "slot",
			"outputs": [
				{
					"internalType": "uint256",
					"name": "",
					"type": "uint256"
				}
			],
			"stateMutability": "view",
			"type": "function"
		},
		{
			"inputs": [],
			"name": "timeUntilNextClaim",
			"outputs": [
				{
					"internalType": "uint256",
					"name": "",
					"type": "uint256"
				}
			],
			"stateMutability": "view",
			"type": "function"
		}
	]
}