{
	"data": {
		"bytecode": {
			"linkReferences": {},
			"object": "60c0604052620f424060a05234801561001757600080fd5b506040516117c33803806117c38339818101604052608081101561003a57600080fd5b508051602082015160408301516060938401519383901b6001600160601b031916608052600180546001600160a01b03199081166001600160a01b0394851617909155600080548216928416929092178255600280549091169483169490941790935560a0519116916116f9906100ca903980610d4e5280610df652508061074552806108de52506116f96000f3fe608060405234801561001057600080fd5b506004361061010b5760003560e01c80637d0107cf116100a25780639af94f30116100715780639af94f30146102e0578063a91ee0dc146102fd578063b516e6e114610323578063c1acd1a714610349578063d21c87ad146103845761010b565b80637d0107cf146102585780637f8be8591461027557806382afd23b1461027d57806383bd6189146102ae5761010b565b80633c695d4e116100de5780633c695d4e146101ee578063427fdc0c146101f65780634d749e43146102135780637a9e5e4b146102305761010b565b806302579677146101105780630298347014610134578063249d912314610173578063360dafa0146101a2575b600080fd5b6101186103f6565b604080516001600160a01b039092168252519081900360200190f35b61015a6004803603602081101561014a57600080fd5b50356001600160a01b0316610405565b6040805192835260208301919091528051918290030190f35b6101906004803603602081101561018957600080fd5b503561041e565b60408051918252519081900360200190f35b6101bf600480360360208110156101b857600080fd5b5035610431565b60405180836001600160a01b03168152602001826001600160a01b031681526020019250505060405180910390f35b610118610446565b6101906004803603602081101561020c57600080fd5b5035610455565b61015a6004803603602081101561022957600080fd5b5035610468565b6102566004803603602081101561024657600080fd5b50356001600160a01b0316610474565b005b6102566004803603602081101561026e57600080fd5b503561049e565b6101186107d9565b61029a6004803603602081101561029357600080fd5b50356107e8565b604080519115158252519081900360200190f35b610256600480360360608110156102c457600080fd5b506001600160a01b0381351690602081013590604001356107f3565b61015a600480360360208110156102f657600080fd5b5035610834565b6102566004803603602081101561031357600080fd5b50356001600160a01b031661084b565b6102566004803603602081101561033957600080fd5b50356001600160a01b0316610875565b6103666004803603602081101561035f57600080fd5b503561089f565b60408051938452602084019290925282820152519081900360600190f35b6103a16004803603602081101561039a57600080fd5b5035610988565b604080519915158a526001600160a01b0398891660208b015296909716888701526060880194909452608087019290925260a086015260c085015260e084015261010083019190915251908190036101200190f35b6000546001600160a01b031681565b6003602052600090815260409020805460019091015482565b6000610429826109e9565b90505b919050565b60008061043d83610a20565b91509150915091565b6002546001600160a01b031681565b600061046082610c17565b949350505050565b60008061043d83610d8a565b61047c610ee0565b600280546001600160a01b0319166001600160a01b0392909216919091179055565b600080546040805163309dfc6b60e21b81526004810185905290516001600160a01b039092169163c277f1ac916024808201928692909190829003018186803b1580156104ea57600080fd5b505afa1580156104fe573d6000803e3d6000fd5b505050506040513d6000823e601f3d908101601f1916820160405260c081101561052757600080fd5b815160208301805160405192949293830192919084600160201b82111561054d57600080fd5b90830190602082018581111561056257600080fd5b8251600160201b81118282018810171561057b57600080fd5b82525081516020918201929091019080838360005b838110156105a8578181015183820152602001610590565b50505050905090810190601f1680156105d55780820380516001836020036101000a031916815260200191505b5060405260200180516040519392919084600160201b8211156105f757600080fd5b90830190602082018581111561060c57600080fd5b8251600160201b81118282018810171561062557600080fd5b82525081516020918201929091019080838360005b8381101561065257818101518382015260200161063a565b50505050905090810190601f16801561067f5780820380516001836020036101000a031916815260200191505b50604052509394505050506001600160a01b038216151590506106a257506107d6565b6000816001600160a01b0316639489fa846040518163ffffffff1660e01b815260040160206040518083038186803b1580156106dd57600080fd5b505afa1580156106f1573d6000803e3d6000fd5b505050506040513d602081101561070757600080fd5b5051905061071433610f41565b156107225761072282610f47565b61072b83610f8e565b600061073684610d8a565b5090506107438285610fbc565b7f00000000000000000000000000000000000000000000000000000000000000006001600160a01b031663ecc128f284836040518363ffffffff1660e01b815260040180836001600160a01b0316815260200182815260200192505050600060405180830381600087803b1580156107ba57600080fd5b505af11580156107ce573d6000803e3d6000fd5b505050505050505b50565b6001546001600160a01b031681565b600061042982610fe8565b6107fb610ee0565b82610805816111f9565b61080f83836112c3565b506001600160a01b039092166000908152600360205260409020600181019190915555565b60008061084083610c17565b509094909350915050565b610853610ee0565b600080546001600160a01b0319166001600160a01b0392909216919091179055565b61087d610ee0565b600180546001600160a01b0319166001600160a01b0392909216919091179055565b6000806000806108ae85610a20565b91505060036000826001600160a01b03166001600160a01b031681526020019081526020016000206000015493507f00000000000000000000000000000000000000000000000000000000000000006001600160a01b0316635e615a6b6040518163ffffffff1660e01b815260040160a06040518083038186803b15801561093557600080fd5b505afa158015610949573d6000803e3d6000fd5b505050506040513d60a081101561095f57600080fd5b50516001600160a01b039091166000908152600360205260409020600101549395909450915050565b600080600080600080600080600061099f8a610fe8565b98506109aa8a610a20565b90985096506109b88a610c17565b919750955093506109c88a61089f565b9194509092506109d990508a610d8a565b5090509193959799909294969850565b600081815260046020526040812054610a0b5750670de0b6b3a764000061042c565b5060008181526004602052604090205461042c565b600080546040805163309dfc6b60e21b815260048101859052905183926001600160a01b03169163c277f1ac9160248083019286929190829003018186803b158015610a6b57600080fd5b505afa158015610a7f573d6000803e3d6000fd5b505050506040513d6000823e601f3d908101601f1916820160405260c0811015610aa857600080fd5b815160208301805160405192949293830192919084600160201b821115610ace57600080fd5b908301906020820185811115610ae357600080fd5b8251600160201b811182820188101715610afc57600080fd5b82525081516020918201929091019080838360005b83811015610b29578181015183820152602001610b11565b50505050905090810190601f168015610b565780820380516001836020036101000a031916815260200191505b5060405260200180516040519392919084600160201b821115610b7857600080fd5b908301906020820185811115610b8d57600080fd5b8251600160201b811182820188101715610ba657600080fd5b82525081516020918201929091019080838360005b83811015610bd3578181015183820152602001610bbb565b50505050905090810190601f168015610c005780820380516001836020036101000a031916815260200191505b506040526060015194965093945050505050915091565b600080600080610c2685610a20565b5090506000819050806001600160a01b0316639489fa846040518163ffffffff1660e01b815260040160206040518083038186803b158015610c6757600080fd5b505afa158015610c7b573d6000803e3d6000fd5b505050506040513d6020811015610c9157600080fd5b5051604080516318160ddd60e01b815290519196506001600160a01b038316916318160ddd91600480820192602092909190829003018186803b158015610cd757600080fd5b505afa158015610ceb573d6000803e3d6000fd5b505050506040513d6020811015610d0157600080fd5b50519350841580610d10575083155b15610d4c5760405162461bcd60e51b81526004018080602001828103825260258152602001806116786025913960400191505060405180910390fd5b7f0000000000000000000000000000000000000000000000000000000000000000610d77868661137d565b81610d7e57fe5b04925050509193909250565b6000806000806000610d9b86610c17565b9250925092506000610dac87610a20565b5090506000806000610dbd8a61089f565b92509250925060006201518083610dd4888761137d565b0281610ddc57fe5b0490506000610dea8c6109e9565b891115610e4057610e377f0000000000000000000000000000000000000000000000000000000000000000610e29610e218f6109e9565b8c038b61137d565b81610e3057fe5b048661137d565b61016d02610e43565b60005b90506000610e5187896113a6565b90506000670de0b6b3a76400008269021e19e0c9bab2400000610e7f87610e7a6127108b611564565b61137d565b81610e8657fe5b040281610e8f57fe5b049050670de0b6b3a764000082610eb9610ea9868961137d565b69021e19e0c9bab2400000611576565b0281610ec157fe5b049b50610ece8c826115a5565b9c505050505050505050505050915091565b6001546001600160a01b03163314610f3f576040805162461bcd60e51b815260206004820152601e60248201527f43414c4c45525f4e4f545f5249474f424c4f434b5f44414f5f4552524f520000604482015290519081900360640190fd5b565b3b151590565b336001600160a01b038216146107d65760405162461bcd60e51b815260040180806020018281038252602781526020018061169d6027913960400191505060405180910390fd5b6000818152600460205260409020546107d6576000908152600460205260409020670de0b6b3a76400009055565b600081815260046020526040902054821115610fe45760008181526004602052604090208290555b5050565b600080546040805163309dfc6b60e21b815260048101859052905183926001600160a01b03169163c277f1ac9160248083019286929190829003018186803b15801561103357600080fd5b505afa158015611047573d6000803e3d6000fd5b505050506040513d6000823e601f3d908101601f1916820160405260c081101561107057600080fd5b815160208301805160405192949293830192919084600160201b82111561109657600080fd5b9083019060208201858111156110ab57600080fd5b8251600160201b8111828201881017156110c457600080fd5b82525081516020918201929091019080838360005b838110156110f15781810151838201526020016110d9565b50505050905090810190601f16801561111e5780820380516001836020036101000a031916815260200191505b5060405260200180516040519392919084600160201b82111561114057600080fd5b90830190602082018581111561115557600080fd5b8251600160201b81118282018810171561116e57600080fd5b82525081516020918201929091019080838360005b8381101561119b578181015183820152602001611183565b50505050905090810190601f1680156111c85780820380516001836020036101000a031916815260200191505b506040525093945050506001600160a01b0383161591506111ef905057600191505061042c565b600091505061042c565b600254604080516306e5bd1f60e51b81526001600160a01b0384811660048301529151919092169163dcb7a3e0916024808301926020929190829003018186803b15801561124657600080fd5b505afa15801561125a573d6000803e3d6000fd5b505050506040513d602081101561127057600080fd5b50516107d6576040805162461bcd60e51b815260206004820152601c60248201527f4e4f545f415050524f5645445f415554484f524954595f4552524f5200000000604482015290519081900360640190fd5b612710821115611310576040805162461bcd60e51b81526020600482015260136024820152722a27a7afa124a3afa920aa24a7afa2a92927a960691b604482015290519081900360640190fd5b64e8d4a5100081108061132b5750683635c9adc5dea0000081115b15610fe4576040805162461bcd60e51b815260206004820152601e60248201527f494e56414c49445f494e464c4154494f4e5f464143544f525f4552524f520000604482015290519081900360640190fd5b600082820283158061139757508284828161139457fe5b04145b61139d57fe5b90505b92915050565b60006001600160a01b038316316113bd81846115bf565b8261032002816103e802106113dd57670de0b6b3a76400009150506113a0565b8261025802816103e802106113fd57670d163580f73180009150506113a0565b826101f402816103e8021061141d57670c39f0d50f1e80009150506113a0565b8261019002816103e8021061143d57670aac096cf84680009150506113a0565b8261012c02816103e8021061145d5767085013538c7580009150506113a0565b8260c802816103e8021061147c57670590a3601aee80009150506113a0565b82606402816103e8021061149b57670334ad46af1d80009150506113a0565b82604b02816103e802106114ba576702bf6ff3718700009150506113a0565b82603202816103e802106114d957670254db1c224400009150506113a0565b82602602816103e802106114f857670226abadc42f80009150506113a0565b82601902816103e80210611517576701f87c3f661b00009150506113a0565b6040805162461bcd60e51b815260206004820152601f60248201527f4554485f42454c4f575f322e355f50455243454e545f41554d5f4552524f5200604482015290519081900360640190fd5b60008282111561157057fe5b50900390565b600080821161158157fe5b600082848161158c57fe5b04905082848161159857fe5b0681840201841461139d57fe5b600082820183811080159061139757508281101561139d57fe5b8082111561160a576040805162461bcd60e51b815260206004820152601360248201527222aa242fa0a127ab22afa0aaa6afa2a92927a960691b604482015290519081900360640190fd5b66038d7ea4c680008210806116255750662386f26fc1000081105b15610fe4576040805162461bcd60e51b815260206004820152601a60248201527f504f4f4c5f4f525f42414c414e43455f445553545f4552524f52000000000000604482015290519081900360640190fdfe504f4f4c5f50524943455f4f525f544f54414c5f535550504c595f4e554c4c5f4552524f52534d4152545f434f4e54524143545f43414c4c45525f49535f4e4f545f504f4f4c5f4552524f52a264697066735822122053e1ced42accf735af261b67abe783514aae4e412b71167f4cb64005cd2182df64736f6c63430007040033",
			"opcodes": "PUSH1 0xC0 PUSH1 0x40 MSTORE PUSH3 0xF4240 PUSH1 0xA0 MSTORE CALLVALUE DUP1 ISZERO PUSH2 0x17 JUMPI PUSH1 0x0 DUP1 REVERT JUMPDEST POP PUSH1 0x40 MLOAD PUSH2 0x17C3 CODESIZE SUB DUP1 PUSH2 0x17C3 DUP4 CODECOPY DUP2 DUP2 ADD PUSH1 0x40 MSTORE PUSH1 0x80 DUP2 LT ISZERO PUSH2 0x3A JUMPI PUSH1 0x0 DUP1 REVERT JUMPDEST POP DUP1 MLOAD PUSH1 0x20 DUP3 ADD MLOAD PUSH1 0x40 DUP4 ADD MLOAD PUSH1 0x60 SWAP4 DUP5 ADD MLOAD SWAP4 DUP4 SWAP1 SHL PUSH1 0x1 PUSH1 0x1 PUSH1 0x60 SHL SUB NOT AND PUSH1 0x80 MSTORE PUSH1 0x1 DUP1 SLOAD PUSH1 0x1 PUSH1 0x1 PUSH1 0xA0 SHL SUB NOT SWAP1 DUP2 AND PUSH1 0x1 PUSH1 0x1 PUSH1 0xA0 SHL SUB SWAP5 DUP6 AND OR SWAP1 SWAP2 SSTORE PUSH1 0x0 DUP1 SLOAD DUP3 AND SWAP3 DUP5 AND SWAP3 SWAP1 SWAP3 OR DUP3 SSTORE PUSH1 0x2 DUP1 SLOAD SWAP1 SWAP2 AND SWAP5 DUP4 AND SWAP5 SWAP1 SWAP5 OR SWAP1 SWAP4 SSTORE PUSH1 0xA0 MLOAD SWAP2 AND SWAP2 PUSH2 0x16F9 SWAP1 PUSH2 0xCA SWAP1 CODECOPY DUP1 PUSH2 0xD4E MSTORE DUP1 PUSH2 0xDF6 MSTORE POP DUP1 PUSH2 0x745 MSTORE DUP1 PUSH2 0x8DE MSTORE POP PUSH2 0x16F9 PUSH1 0x0 RETURN INVALID PUSH1 0x80 PUSH1 0x40 MSTORE CALLVALUE DUP1 ISZERO PUSH2 0x10 JUMPI PUSH1 0x0 DUP1 REVERT JUMPDEST POP PUSH1 0x4 CALLDATASIZE LT PUSH2 0x10B JUMPI PUSH1 0x0 CALLDATALOAD PUSH1 0xE0 SHR DUP1 PUSH4 0x7D0107CF GT PUSH2 0xA2 JUMPI DUP1 PUSH4 0x9AF94F30 GT PUSH2 0x71 JUMPI DUP1 PUSH4 0x9AF94F30 EQ PUSH2 0x2E0 JUMPI DUP1 PUSH4 0xA91EE0DC EQ PUSH2 0x2FD JUMPI DUP1 PUSH4 0xB516E6E1 EQ PUSH2 0x323 JUMPI DUP1 PUSH4 0xC1ACD1A7 EQ PUSH2 0x349 JUMPI DUP1 PUSH4 0xD21C87AD EQ PUSH2 0x384 JUMPI PUSH2 0x10B JUMP JUMPDEST DUP1 PUSH4 0x7D0107CF EQ PUSH2 0x258 JUMPI DUP1 PUSH4 0x7F8BE859 EQ PUSH2 0x275 JUMPI DUP1 PUSH4 0x82AFD23B EQ PUSH2 0x27D JUMPI DUP1 PUSH4 0x83BD6189 EQ PUSH2 0x2AE JUMPI PUSH2 0x10B JUMP JUMPDEST DUP1 PUSH4 0x3C695D4E GT PUSH2 0xDE JUMPI DUP1 PUSH4 0x3C695D4E EQ PUSH2 0x1EE JUMPI DUP1 PUSH4 0x427FDC0C EQ PUSH2 0x1F6 JUMPI DUP1 PUSH4 0x4D749E43 EQ PUSH2 0x213 JUMPI DUP1 PUSH4 0x7A9E5E4B EQ PUSH2 0x230 JUMPI PUSH2 0x10B JUMP JUMPDEST DUP1 PUSH4 0x2579677 EQ PUSH2 0x110 JUMPI DUP1 PUSH4 0x2983470 EQ PUSH2 0x134 JUMPI DUP1 PUSH4 0x249D9123 EQ PUSH2 0x173 JUMPI DUP1 PUSH4 0x360DAFA0 EQ PUSH2 0x1A2 JUMPI JUMPDEST PUSH1 0x0 DUP1 REVERT JUMPDEST PUSH2 0x118 PUSH2 0x3F6 JUMP JUMPDEST PUSH1 0x40 DUP1 MLOAD PUSH1 0x1 PUSH1 0x1 PUSH1 0xA0 SHL SUB SWAP1 SWAP3 AND DUP3 MSTORE MLOAD SWAP1 DUP2 SWAP1 SUB PUSH1 0x20 ADD SWAP1 RETURN JUMPDEST PUSH2 0x15A PUSH1 0x4 DUP1 CALLDATASIZE SUB PUSH1 0x20 DUP2 LT ISZERO PUSH2 0x14A JUMPI PUSH1 0x0 DUP1 REVERT JUMPDEST POP CALLDATALOAD PUSH1 0x1 PUSH1 0x1 PUSH1 0xA0 SHL SUB AND PUSH2 0x405 JUMP JUMPDEST PUSH1 0x40 DUP1 MLOAD SWAP3 DUP4 MSTORE PUSH1 0x20 DUP4 ADD SWAP2 SWAP1 SWAP2 MSTORE DUP1 MLOAD SWAP2 DUP3 SWAP1 SUB ADD SWAP1 RETURN JUMPDEST PUSH2 0x190 PUSH1 0x4 DUP1 CALLDATASIZE SUB PUSH1 0x20 DUP2 LT ISZERO PUSH2 0x189 JUMPI PUSH1 0x0 DUP1 REVERT JUMPDEST POP CALLDATALOAD PUSH2 0x41E JUMP JUMPDEST PUSH1 0x40 DUP1 MLOAD SWAP2 DUP3 MSTORE MLOAD SWAP1 DUP2 SWAP1 SUB PUSH1 0x20 ADD SWAP1 RETURN JUMPDEST PUSH2 0x1BF PUSH1 0x4 DUP1 CALLDATASIZE SUB PUSH1 0x20 DUP2 LT ISZERO PUSH2 0x1B8 JUMPI PUSH1 0x0 DUP1 REVERT JUMPDEST POP CALLDATALOAD PUSH2 0x431 JUMP JUMPDEST PUSH1 0x40 MLOAD DUP1 DUP4 PUSH1 0x1 PUSH1 0x1 PUSH1 0xA0 SHL SUB AND DUP2 MSTORE PUSH1 0x20 ADD DUP3 PUSH1 0x1 PUSH1 0x1 PUSH1 0xA0 SHL SUB AND DUP2 MSTORE PUSH1 0x20 ADD SWAP3 POP POP POP PUSH1 0x40 MLOAD DUP1 SWAP2 SUB SWAP1 RETURN JUMPDEST PUSH2 0x118 PUSH2 0x446 JUMP JUMPDEST PUSH2 0x190 PUSH1 0x4 DUP1 CALLDATASIZE SUB PUSH1 0x20 DUP2 LT ISZERO PUSH2 0x20C JUMPI PUSH1 0x0 DUP1 REVERT JUMPDEST POP CALLDATALOAD PUSH2 0x455 JUMP JUMPDEST PUSH2 0x15A PUSH1 0x4 DUP1 CALLDATASIZE SUB PUSH1 0x20 DUP2 LT ISZERO PUSH2 0x229 JUMPI PUSH1 0x0 DUP1 REVERT JUMPDEST POP CALLDATALOAD PUSH2 0x468 JUMP JUMPDEST PUSH2 0x256 PUSH1 0x4 DUP1 CALLDATASIZE SUB PUSH1 0x20 DUP2 LT ISZERO PUSH2 0x246 JUMPI PUSH1 0x0 DUP1 REVERT JUMPDEST POP CALLDATALOAD PUSH1 0x1 PUSH1 0x1 PUSH1 0xA0 SHL SUB AND PUSH2 0x474 JUMP JUMPDEST STOP JUMPDEST PUSH2 0x256 PUSH1 0x4 DUP1 CALLDATASIZE SUB PUSH1 0x20 DUP2 LT ISZERO PUSH2 0x26E JUMPI PUSH1 0x0 DUP1 REVERT JUMPDEST POP CALLDATALOAD PUSH2 0x49E JUMP JUMPDEST PUSH2 0x118 PUSH2 0x7D9 JUMP JUMPDEST PUSH2 0x29A PUSH1 0x4 DUP1 CALLDATASIZE SUB PUSH1 0x20 DUP2 LT ISZERO PUSH2 0x293 JUMPI PUSH1 0x0 DUP1 REVERT JUMPDEST POP CALLDATALOAD PUSH2 0x7E8 JUMP JUMPDEST PUSH1 0x40 DUP1 MLOAD SWAP2 ISZERO ISZERO DUP3 MSTORE MLOAD SWAP1 DUP2 SWAP1 SUB PUSH1 0x20 ADD SWAP1 RETURN JUMPDEST PUSH2 0x256 PUSH1 0x4 DUP1 CALLDATASIZE SUB PUSH1 0x60 DUP2 LT ISZERO PUSH2 0x2C4 JUMPI PUSH1 0x0 DUP1 REVERT JUMPDEST POP PUSH1 0x1 PUSH1 0x1 PUSH1 0xA0 SHL SUB DUP2 CALLDATALOAD AND SWAP1 PUSH1 0x20 DUP2 ADD CALLDATALOAD SWAP1 PUSH1 0x40 ADD CALLDATALOAD PUSH2 0x7F3 JUMP JUMPDEST PUSH2 0x15A PUSH1 0x4 DUP1 CALLDATASIZE SUB PUSH1 0x20 DUP2 LT ISZERO PUSH2 0x2F6 JUMPI PUSH1 0x0 DUP1 REVERT JUMPDEST POP CALLDATALOAD PUSH2 0x834 JUMP JUMPDEST PUSH2 0x256 PUSH1 0x4 DUP1 CALLDATASIZE SUB PUSH1 0x20 DUP2 LT ISZERO PUSH2 0x313 JUMPI PUSH1 0x0 DUP1 REVERT JUMPDEST POP CALLDATALOAD PUSH1 0x1 PUSH1 0x1 PUSH1 0xA0 SHL SUB AND PUSH2 0x84B JUMP JUMPDEST PUSH2 0x256 PUSH1 0x4 DUP1 CALLDATASIZE SUB PUSH1 0x20 DUP2 LT ISZERO PUSH2 0x339 JUMPI PUSH1 0x0 DUP1 REVERT JUMPDEST POP CALLDATALOAD PUSH1 0x1 PUSH1 0x1 PUSH1 0xA0 SHL SUB AND PUSH2 0x875 JUMP JUMPDEST PUSH2 0x366 PUSH1 0x4 DUP1 CALLDATASIZE SUB PUSH1 0x20 DUP2 LT ISZERO PUSH2 0x35F JUMPI PUSH1 0x0 DUP1 REVERT JUMPDEST POP CALLDATALOAD PUSH2 0x89F JUMP JUMPDEST PUSH1 0x40 DUP1 MLOAD SWAP4 DUP5 MSTORE PUSH1 0x20 DUP5 ADD SWAP3 SWAP1 SWAP3 MSTORE DUP3 DUP3 ADD MSTORE MLOAD SWAP1 DUP2 SWAP1 SUB PUSH1 0x60 ADD SWAP1 RETURN JUMPDEST PUSH2 0x3A1 PUSH1 0x4 DUP1 CALLDATASIZE SUB PUSH1 0x20 DUP2 LT ISZERO PUSH2 0x39A JUMPI PUSH1 0x0 DUP1 REVERT JUMPDEST POP CALLDATALOAD PUSH2 0x988 JUMP JUMPDEST PUSH1 0x40 DUP1 MLOAD SWAP10 ISZERO ISZERO DUP11 MSTORE PUSH1 0x1 PUSH1 0x1 PUSH1 0xA0 SHL SUB SWAP9 DUP10 AND PUSH1 0x20 DUP12 ADD MSTORE SWAP7 SWAP1 SWAP8 AND DUP9 DUP8 ADD MSTORE PUSH1 0x60 DUP9 ADD SWAP5 SWAP1 SWAP5 MSTORE PUSH1 0x80 DUP8 ADD SWAP3 SWAP1 SWAP3 MSTORE PUSH1 0xA0 DUP7 ADD MSTORE PUSH1 0xC0 DUP6 ADD MSTORE PUSH1 0xE0 DUP5 ADD MSTORE PUSH2 0x100 DUP4 ADD SWAP2 SWAP1 SWAP2 MSTORE MLOAD SWAP1 DUP2 SWAP1 SUB PUSH2 0x120 ADD SWAP1 RETURN JUMPDEST PUSH1 0x0 SLOAD PUSH1 0x1 PUSH1 0x1 PUSH1 0xA0 SHL SUB AND DUP2 JUMP JUMPDEST PUSH1 0x3 PUSH1 0x20 MSTORE PUSH1 0x0 SWAP1 DUP2 MSTORE PUSH1 0x40 SWAP1 KECCAK256 DUP1 SLOAD PUSH1 0x1 SWAP1 SWAP2 ADD SLOAD DUP3 JUMP JUMPDEST PUSH1 0x0 PUSH2 0x429 DUP3 PUSH2 0x9E9 JUMP JUMPDEST SWAP1 POP JUMPDEST SWAP2 SWAP1 POP JUMP JUMPDEST PUSH1 0x0 DUP1 PUSH2 0x43D DUP4 PUSH2 0xA20 JUMP JUMPDEST SWAP2 POP SWAP2 POP SWAP2 POP SWAP2 JUMP JUMPDEST PUSH1 0x2 SLOAD PUSH1 0x1 PUSH1 0x1 PUSH1 0xA0 SHL SUB AND DUP2 JUMP JUMPDEST PUSH1 0x0 PUSH2 0x460 DUP3 PUSH2 0xC17 JUMP JUMPDEST SWAP5 SWAP4 POP POP POP POP JUMP JUMPDEST PUSH1 0x0 DUP1 PUSH2 0x43D DUP4 PUSH2 0xD8A JUMP JUMPDEST PUSH2 0x47C PUSH2 0xEE0 JUMP JUMPDEST PUSH1 0x2 DUP1 SLOAD PUSH1 0x1 PUSH1 0x1 PUSH1 0xA0 SHL SUB NOT AND PUSH1 0x1 PUSH1 0x1 PUSH1 0xA0 SHL SUB SWAP3 SWAP1 SWAP3 AND SWAP2 SWAP1 SWAP2 OR SWAP1 SSTORE JUMP JUMPDEST PUSH1 0x0 DUP1 SLOAD PUSH1 0x40 DUP1 MLOAD PUSH4 0x309DFC6B PUSH1 0xE2 SHL DUP2 MSTORE PUSH1 0x4 DUP2 ADD DUP6 SWAP1 MSTORE SWAP1 MLOAD PUSH1 0x1 PUSH1 0x1 PUSH1 0xA0 SHL SUB SWAP1 SWAP3 AND SWAP2 PUSH4 0xC277F1AC SWAP2 PUSH1 0x24 DUP1 DUP3 ADD SWAP3 DUP7 SWAP3 SWAP1 SWAP2 SWAP1 DUP3 SWAP1 SUB ADD DUP2 DUP7 DUP1 EXTCODESIZE ISZERO DUP1 ISZERO PUSH2 0x4EA JUMPI PUSH1 0x0 DUP1 REVERT JUMPDEST POP GAS STATICCALL ISZERO DUP1 ISZERO PUSH2 0x4FE JUMPI RETURNDATASIZE PUSH1 0x0 DUP1 RETURNDATACOPY RETURNDATASIZE PUSH1 0x0 REVERT JUMPDEST POP POP POP POP PUSH1 0x40 MLOAD RETURNDATASIZE PUSH1 0x0 DUP3 RETURNDATACOPY PUSH1 0x1F RETURNDATASIZE SWAP1 DUP2 ADD PUSH1 0x1F NOT AND DUP3 ADD PUSH1 0x40 MSTORE PUSH1 0xC0 DUP2 LT ISZERO PUSH2 0x527 JUMPI PUSH1 0x0 DUP1 REVERT JUMPDEST DUP2 MLOAD PUSH1 0x20 DUP4 ADD DUP1 MLOAD PUSH1 0x40 MLOAD SWAP3 SWAP5 SWAP3 SWAP4 DUP4 ADD SWAP3 SWAP2 SWAP1 DUP5 PUSH1 0x1 PUSH1 0x20 SHL DUP3 GT ISZERO PUSH2 0x54D JUMPI PUSH1 0x0 DUP1 REVERT JUMPDEST SWAP1 DUP4 ADD SWAP1 PUSH1 0x20 DUP3 ADD DUP6 DUP2 GT ISZERO PUSH2 0x562 JUMPI PUSH1 0x0 DUP1 REVERT JUMPDEST DUP3 MLOAD PUSH1 0x1 PUSH1 0x20 SHL DUP2 GT DUP3 DUP3 ADD DUP9 LT OR ISZERO PUSH2 0x57B JUMPI PUSH1 0x0 DUP1 REVERT JUMPDEST DUP3 MSTORE POP DUP2 MLOAD PUSH1 0x20 SWAP2 DUP3 ADD SWAP3 SWAP1 SWAP2 ADD SWAP1 DUP1 DUP4 DUP4 PUSH1 0x0 JUMPDEST DUP4 DUP2 LT ISZERO PUSH2 0x5A8 JUMPI DUP2 DUP2 ADD MLOAD DUP4 DUP3 ADD MSTORE PUSH1 0x20 ADD PUSH2 0x590 JUMP JUMPDEST POP POP POP POP SWAP1 POP SWAP1 DUP2 ADD SWAP1 PUSH1 0x1F AND DUP1 ISZERO PUSH2 0x5D5 JUMPI DUP1 DUP3 SUB DUP1 MLOAD PUSH1 0x1 DUP4 PUSH1 0x20 SUB PUSH2 0x100 EXP SUB NOT AND DUP2 MSTORE PUSH1 0x20 ADD SWAP2 POP JUMPDEST POP PUSH1 0x40 MSTORE PUSH1 0x20 ADD DUP1 MLOAD PUSH1 0x40 MLOAD SWAP4 SWAP3 SWAP2 SWAP1 DUP5 PUSH1 0x1 PUSH1 0x20 SHL DUP3 GT ISZERO PUSH2 0x5F7 JUMPI PUSH1 0x0 DUP1 REVERT JUMPDEST SWAP1 DUP4 ADD SWAP1 PUSH1 0x20 DUP3 ADD DUP6 DUP2 GT ISZERO PUSH2 0x60C JUMPI PUSH1 0x0 DUP1 REVERT JUMPDEST DUP3 MLOAD PUSH1 0x1 PUSH1 0x20 SHL DUP2 GT DUP3 DUP3 ADD DUP9 LT OR ISZERO PUSH2 0x625 JUMPI PUSH1 0x0 DUP1 REVERT JUMPDEST DUP3 MSTORE POP DUP2 MLOAD PUSH1 0x20 SWAP2 DUP3 ADD SWAP3 SWAP1 SWAP2 ADD SWAP1 DUP1 DUP4 DUP4 PUSH1 0x0 JUMPDEST DUP4 DUP2 LT ISZERO PUSH2 0x652 JUMPI DUP2 DUP2 ADD MLOAD DUP4 DUP3 ADD MSTORE PUSH1 0x20 ADD PUSH2 0x63A JUMP JUMPDEST POP POP POP POP SWAP1 POP SWAP1 DUP2 ADD SWAP1 PUSH1 0x1F AND DUP1 ISZERO PUSH2 0x67F JUMPI DUP1 DUP3 SUB DUP1 MLOAD PUSH1 0x1 DUP4 PUSH1 0x20 SUB PUSH2 0x100 EXP SUB NOT AND DUP2 MSTORE PUSH1 0x20 ADD SWAP2 POP JUMPDEST POP PUSH1 0x40 MSTORE POP SWAP4 SWAP5 POP POP POP POP PUSH1 0x1 PUSH1 0x1 PUSH1 0xA0 SHL SUB DUP3 AND ISZERO ISZERO SWAP1 POP PUSH2 0x6A2 JUMPI POP PUSH2 0x7D6 JUMP JUMPDEST PUSH1 0x0 DUP2 PUSH1 0x1 PUSH1 0x1 PUSH1 0xA0 SHL SUB AND PUSH4 0x9489FA84 PUSH1 0x40 MLOAD DUP2 PUSH4 0xFFFFFFFF AND PUSH1 0xE0 SHL DUP2 MSTORE PUSH1 0x4 ADD PUSH1 0x20 PUSH1 0x40 MLOAD DUP1 DUP4 SUB DUP2 DUP7 DUP1 EXTCODESIZE ISZERO DUP1 ISZERO PUSH2 0x6DD JUMPI PUSH1 0x0 DUP1 REVERT JUMPDEST POP GAS STATICCALL ISZERO DUP1 ISZERO PUSH2 0x6F1 JUMPI RETURNDATASIZE PUSH1 0x0 DUP1 RETURNDATACOPY RETURNDATASIZE PUSH1 0x0 REVERT JUMPDEST POP POP POP POP PUSH1 0x40 MLOAD RETURNDATASIZE PUSH1 0x20 DUP2 LT ISZERO PUSH2 0x707 JUMPI PUSH1 0x0 DUP1 REVERT JUMPDEST POP MLOAD SWAP1 POP PUSH2 0x714 CALLER PUSH2 0xF41 JUMP JUMPDEST ISZERO PUSH2 0x722 JUMPI PUSH2 0x722 DUP3 PUSH2 0xF47 JUMP JUMPDEST PUSH2 0x72B DUP4 PUSH2 0xF8E JUMP JUMPDEST PUSH1 0x0 PUSH2 0x736 DUP5 PUSH2 0xD8A JUMP JUMPDEST POP SWAP1 POP PUSH2 0x743 DUP3 DUP6 PUSH2 0xFBC JUMP JUMPDEST PUSH32 0x0 PUSH1 0x1 PUSH1 0x1 PUSH1 0xA0 SHL SUB AND PUSH4 0xECC128F2 DUP5 DUP4 PUSH1 0x40 MLOAD DUP4 PUSH4 0xFFFFFFFF AND PUSH1 0xE0 SHL DUP2 MSTORE PUSH1 0x4 ADD DUP1 DUP4 PUSH1 0x1 PUSH1 0x1 PUSH1 0xA0 SHL SUB AND DUP2 MSTORE PUSH1 0x20 ADD DUP3 DUP2 MSTORE PUSH1 0x20 ADD SWAP3 POP POP POP PUSH1 0x0 PUSH1 0x40 MLOAD DUP1 DUP4 SUB DUP2 PUSH1 0x0 DUP8 DUP1 EXTCODESIZE ISZERO DUP1 ISZERO PUSH2 0x7BA JUMPI PUSH1 0x0 DUP1 REVERT JUMPDEST POP GAS CALL ISZERO DUP1 ISZERO PUSH2 0x7CE JUMPI RETURNDATASIZE PUSH1 0x0 DUP1 RETURNDATACOPY RETURNDATASIZE PUSH1 0x0 REVERT JUMPDEST POP POP POP POP POP POP POP JUMPDEST POP JUMP JUMPDEST PUSH1 0x1 SLOAD PUSH1 0x1 PUSH1 0x1 PUSH1 0xA0 SHL SUB AND DUP2 JUMP JUMPDEST PUSH1 0x0 PUSH2 0x429 DUP3 PUSH2 0xFE8 JUMP JUMPDEST PUSH2 0x7FB PUSH2 0xEE0 JUMP JUMPDEST DUP3 PUSH2 0x805 DUP2 PUSH2 0x11F9 JUMP JUMPDEST PUSH2 0x80F DUP4 DUP4 PUSH2 0x12C3 JUMP JUMPDEST POP PUSH1 0x1 PUSH1 0x1 PUSH1 0xA0 SHL SUB SWAP1 SWAP3 AND PUSH1 0x0 SWAP1 DUP2 MSTORE PUSH1 0x3 PUSH1 0x20 MSTORE PUSH1 0x40 SWAP1 KECCAK256 PUSH1 0x1 DUP2 ADD SWAP2 SWAP1 SWAP2 SSTORE SSTORE JUMP JUMPDEST PUSH1 0x0 DUP1 PUSH2 0x840 DUP4 PUSH2 0xC17 JUMP JUMPDEST POP SWAP1 SWAP5 SWAP1 SWAP4 POP SWAP2 POP POP JUMP JUMPDEST PUSH2 0x853 PUSH2 0xEE0 JUMP JUMPDEST PUSH1 0x0 DUP1 SLOAD PUSH1 0x1 PUSH1 0x1 PUSH1 0xA0 SHL SUB NOT AND PUSH1 0x1 PUSH1 0x1 PUSH1 0xA0 SHL SUB SWAP3 SWAP1 SWAP3 AND SWAP2 SWAP1 SWAP2 OR SWAP1 SSTORE JUMP JUMPDEST PUSH2 0x87D PUSH2 0xEE0 JUMP JUMPDEST PUSH1 0x1 DUP1 SLOAD PUSH1 0x1 PUSH1 0x1 PUSH1 0xA0 SHL SUB NOT AND PUSH1 0x1 PUSH1 0x1 PUSH1 0xA0 SHL SUB SWAP3 SWAP1 SWAP3 AND SWAP2 SWAP1 SWAP2 OR SWAP1 SSTORE JUMP JUMPDEST PUSH1 0x0 DUP1 PUSH1 0x0 DUP1 PUSH2 0x8AE DUP6 PUSH2 0xA20 JUMP JUMPDEST SWAP2 POP POP PUSH1 0x3 PUSH1 0x0 DUP3 PUSH1 0x1 PUSH1 0x1 PUSH1 0xA0 SHL SUB AND PUSH1 0x1 PUSH1 0x1 PUSH1 0xA0 SHL SUB AND DUP2 MSTORE PUSH1 0x20 ADD SWAP1 DUP2 MSTORE PUSH1 0x20 ADD PUSH1 0x0 KECCAK256 PUSH1 0x0 ADD SLOAD SWAP4 POP PUSH32 0x0 PUSH1 0x1 PUSH1 0x1 PUSH1 0xA0 SHL SUB AND PUSH4 0x5E615A6B PUSH1 0x40 MLOAD DUP2 PUSH4 0xFFFFFFFF AND PUSH1 0xE0 SHL DUP2 MSTORE PUSH1 0x4 ADD PUSH1 0xA0 PUSH1 0x40 MLOAD DUP1 DUP4 SUB DUP2 DUP7 DUP1 EXTCODESIZE ISZERO DUP1 ISZERO PUSH2 0x935 JUMPI PUSH1 0x0 DUP1 REVERT JUMPDEST POP GAS STATICCALL ISZERO DUP1 ISZERO PUSH2 0x949 JUMPI RETURNDATASIZE PUSH1 0x0 DUP1 RETURNDATACOPY RETURNDATASIZE PUSH1 0x0 REVERT JUMPDEST POP POP POP POP PUSH1 0x40 MLOAD RETURNDATASIZE PUSH1 0xA0 DUP2 LT ISZERO PUSH2 0x95F JUMPI PUSH1 0x0 DUP1 REVERT JUMPDEST POP MLOAD PUSH1 0x1 PUSH1 0x1 PUSH1 0xA0 SHL SUB SWAP1 SWAP2 AND PUSH1 0x0 SWAP1 DUP2 MSTORE PUSH1 0x3 PUSH1 0x20 MSTORE PUSH1 0x40 SWAP1 KECCAK256 PUSH1 0x1 ADD SLOAD SWAP4 SWAP6 SWAP1 SWAP5 POP SWAP2 POP POP JUMP JUMPDEST PUSH1 0x0 DUP1 PUSH1 0x0 DUP1 PUSH1 0x0 DUP1 PUSH1 0x0 DUP1 PUSH1 0x0 PUSH2 0x99F DUP11 PUSH2 0xFE8 JUMP JUMPDEST SWAP9 POP PUSH2 0x9AA DUP11 PUSH2 0xA20 JUMP JUMPDEST SWAP1 SWAP9 POP SWAP7 POP PUSH2 0x9B8 DUP11 PUSH2 0xC17 JUMP JUMPDEST SWAP2 SWAP8 POP SWAP6 POP SWAP4 POP PUSH2 0x9C8 DUP11 PUSH2 0x89F JUMP JUMPDEST SWAP2 SWAP5 POP SWAP1 SWAP3 POP PUSH2 0x9D9 SWAP1 POP DUP11 PUSH2 0xD8A JUMP JUMPDEST POP SWAP1 POP SWAP2 SWAP4 SWAP6 SWAP8 SWAP10 SWAP1 SWAP3 SWAP5 SWAP7 SWAP9 POP JUMP JUMPDEST PUSH1 0x0 DUP2 DUP2 MSTORE PUSH1 0x4 PUSH1 0x20 MSTORE PUSH1 0x40 DUP2 KECCAK256 SLOAD PUSH2 0xA0B JUMPI POP PUSH8 0xDE0B6B3A7640000 PUSH2 0x42C JUMP JUMPDEST POP PUSH1 0x0 DUP2 DUP2 MSTORE PUSH1 0x4 PUSH1 0x20 MSTORE PUSH1 0x40 SWAP1 KECCAK256 SLOAD PUSH2 0x42C JUMP JUMPDEST PUSH1 0x0 DUP1 SLOAD PUSH1 0x40 DUP1 MLOAD PUSH4 0x309DFC6B PUSH1 0xE2 SHL DUP2 MSTORE PUSH1 0x4 DUP2 ADD DUP6 SWAP1 MSTORE SWAP1 MLOAD DUP4 SWAP3 PUSH1 0x1 PUSH1 0x1 PUSH1 0xA0 SHL SUB AND SWAP2 PUSH4 0xC277F1AC SWAP2 PUSH1 0x24 DUP1 DUP4 ADD SWAP3 DUP7 SWAP3 SWAP2 SWAP1 DUP3 SWAP1 SUB ADD DUP2 DUP7 DUP1 EXTCODESIZE ISZERO DUP1 ISZERO PUSH2 0xA6B JUMPI PUSH1 0x0 DUP1 REVERT JUMPDEST POP GAS STATICCALL ISZERO DUP1 ISZERO PUSH2 0xA7F JUMPI RETURNDATASIZE PUSH1 0x0 DUP1 RETURNDATACOPY RETURNDATASIZE PUSH1 0x0 REVERT JUMPDEST POP POP POP POP PUSH1 0x40 MLOAD RETURNDATASIZE PUSH1 0x0 DUP3 RETURNDATACOPY PUSH1 0x1F RETURNDATASIZE SWAP1 DUP2 ADD PUSH1 0x1F NOT AND DUP3 ADD PUSH1 0x40 MSTORE PUSH1 0xC0 DUP2 LT ISZERO PUSH2 0xAA8 JUMPI PUSH1 0x0 DUP1 REVERT JUMPDEST DUP2 MLOAD PUSH1 0x20 DUP4 ADD DUP1 MLOAD PUSH1 0x40 MLOAD SWAP3 SWAP5 SWAP3 SWAP4 DUP4 ADD SWAP3 SWAP2 SWAP1 DUP5 PUSH1 0x1 PUSH1 0x20 SHL DUP3 GT ISZERO PUSH2 0xACE JUMPI PUSH1 0x0 DUP1 REVERT JUMPDEST SWAP1 DUP4 ADD SWAP1 PUSH1 0x20 DUP3 ADD DUP6 DUP2 GT ISZERO PUSH2 0xAE3 JUMPI PUSH1 0x0 DUP1 REVERT JUMPDEST DUP3 MLOAD PUSH1 0x1 PUSH1 0x20 SHL DUP2 GT DUP3 DUP3 ADD DUP9 LT OR ISZERO PUSH2 0xAFC JUMPI PUSH1 0x0 DUP1 REVERT JUMPDEST DUP3 MSTORE POP DUP2 MLOAD PUSH1 0x20 SWAP2 DUP3 ADD SWAP3 SWAP1 SWAP2 ADD SWAP1 DUP1 DUP4 DUP4 PUSH1 0x0 JUMPDEST DUP4 DUP2 LT ISZERO PUSH2 0xB29 JUMPI DUP2 DUP2 ADD MLOAD DUP4 DUP3 ADD MSTORE PUSH1 0x20 ADD PUSH2 0xB11 JUMP JUMPDEST POP POP POP POP SWAP1 POP SWAP1 DUP2 ADD SWAP1 PUSH1 0x1F AND DUP1 ISZERO PUSH2 0xB56 JUMPI DUP1 DUP3 SUB DUP1 MLOAD PUSH1 0x1 DUP4 PUSH1 0x20 SUB PUSH2 0x100 EXP SUB NOT AND DUP2 MSTORE PUSH1 0x20 ADD SWAP2 POP JUMPDEST POP PUSH1 0x40 MSTORE PUSH1 0x20 ADD DUP1 MLOAD PUSH1 0x40 MLOAD SWAP4 SWAP3 SWAP2 SWAP1 DUP5 PUSH1 0x1 PUSH1 0x20 SHL DUP3 GT ISZERO PUSH2 0xB78 JUMPI PUSH1 0x0 DUP1 REVERT JUMPDEST SWAP1 DUP4 ADD SWAP1 PUSH1 0x20 DUP3 ADD DUP6 DUP2 GT ISZERO PUSH2 0xB8D JUMPI PUSH1 0x0 DUP1 REVERT JUMPDEST DUP3 MLOAD PUSH1 0x1 PUSH1 0x20 SHL DUP2 GT DUP3 DUP3 ADD DUP9 LT OR ISZERO PUSH2 0xBA6 JUMPI PUSH1 0x0 DUP1 REVERT JUMPDEST DUP3 MSTORE POP DUP2 MLOAD PUSH1 0x20 SWAP2 DUP3 ADD SWAP3 SWAP1 SWAP2 ADD SWAP1 DUP1 DUP4 DUP4 PUSH1 0x0 JUMPDEST DUP4 DUP2 LT ISZERO PUSH2 0xBD3 JUMPI DUP2 DUP2 ADD MLOAD DUP4 DUP3 ADD MSTORE PUSH1 0x20 ADD PUSH2 0xBBB JUMP JUMPDEST POP POP POP POP SWAP1 POP SWAP1 DUP2 ADD SWAP1 PUSH1 0x1F AND DUP1 ISZERO PUSH2 0xC00 JUMPI DUP1 DUP3 SUB DUP1 MLOAD PUSH1 0x1 DUP4 PUSH1 0x20 SUB PUSH2 0x100 EXP SUB NOT AND DUP2 MSTORE PUSH1 0x20 ADD SWAP2 POP JUMPDEST POP PUSH1 0x40 MSTORE PUSH1 0x60 ADD MLOAD SWAP5 SWAP7 POP SWAP4 SWAP5 POP POP POP POP POP SWAP2 POP SWAP2 JUMP JUMPDEST PUSH1 0x0 DUP1 PUSH1 0x0 DUP1 PUSH2 0xC26 DUP6 PUSH2 0xA20 JUMP JUMPDEST POP SWAP1 POP PUSH1 0x0 DUP2 SWAP1 POP DUP1 PUSH1 0x1 PUSH1 0x1 PUSH1 0xA0 SHL SUB AND PUSH4 0x9489FA84 PUSH1 0x40 MLOAD DUP2 PUSH4 0xFFFFFFFF AND PUSH1 0xE0 SHL DUP2 MSTORE PUSH1 0x4 ADD PUSH1 0x20 PUSH1 0x40 MLOAD DUP1 DUP4 SUB DUP2 DUP7 DUP1 EXTCODESIZE ISZERO DUP1 ISZERO PUSH2 0xC67 JUMPI PUSH1 0x0 DUP1 REVERT JUMPDEST POP GAS STATICCALL ISZERO DUP1 ISZERO PUSH2 0xC7B JUMPI RETURNDATASIZE PUSH1 0x0 DUP1 RETURNDATACOPY RETURNDATASIZE PUSH1 0x0 REVERT JUMPDEST POP POP POP POP PUSH1 0x40 MLOAD RETURNDATASIZE PUSH1 0x20 DUP2 LT ISZERO PUSH2 0xC91 JUMPI PUSH1 0x0 DUP1 REVERT JUMPDEST POP MLOAD PUSH1 0x40 DUP1 MLOAD PUSH4 0x18160DDD PUSH1 0xE0 SHL DUP2 MSTORE SWAP1 MLOAD SWAP2 SWAP7 POP PUSH1 0x1 PUSH1 0x1 PUSH1 0xA0 SHL SUB DUP4 AND SWAP2 PUSH4 0x18160DDD SWAP2 PUSH1 0x4 DUP1 DUP3 ADD SWAP3 PUSH1 0x20 SWAP3 SWAP1 SWAP2 SWAP1 DUP3 SWAP1 SUB ADD DUP2 DUP7 DUP1 EXTCODESIZE ISZERO DUP1 ISZERO PUSH2 0xCD7 JUMPI PUSH1 0x0 DUP1 REVERT JUMPDEST POP GAS STATICCALL ISZERO DUP1 ISZERO PUSH2 0xCEB JUMPI RETURNDATASIZE PUSH1 0x0 DUP1 RETURNDATACOPY RETURNDATASIZE PUSH1 0x0 REVERT JUMPDEST POP POP POP POP PUSH1 0x40 MLOAD RETURNDATASIZE PUSH1 0x20 DUP2 LT ISZERO PUSH2 0xD01 JUMPI PUSH1 0x0 DUP1 REVERT JUMPDEST POP MLOAD SWAP4 POP DUP5 ISZERO DUP1 PUSH2 0xD10 JUMPI POP DUP4 ISZERO JUMPDEST ISZERO PUSH2 0xD4C JUMPI PUSH1 0x40 MLOAD PUSH3 0x461BCD PUSH1 0xE5 SHL DUP2 MSTORE PUSH1 0x4 ADD DUP1 DUP1 PUSH1 0x20 ADD DUP3 DUP2 SUB DUP3 MSTORE PUSH1 0x25 DUP2 MSTORE PUSH1 0x20 ADD DUP1 PUSH2 0x1678 PUSH1 0x25 SWAP2 CODECOPY PUSH1 0x40 ADD SWAP2 POP POP PUSH1 0x40 MLOAD DUP1 SWAP2 SUB SWAP1 REVERT JUMPDEST PUSH32 0x0 PUSH2 0xD77 DUP7 DUP7 PUSH2 0x137D JUMP JUMPDEST DUP2 PUSH2 0xD7E JUMPI INVALID JUMPDEST DIV SWAP3 POP POP POP SWAP2 SWAP4 SWAP1 SWAP3 POP JUMP JUMPDEST PUSH1 0x0 DUP1 PUSH1 0x0 DUP1 PUSH1 0x0 PUSH2 0xD9B DUP7 PUSH2 0xC17 JUMP JUMPDEST SWAP3 POP SWAP3 POP SWAP3 POP PUSH1 0x0 PUSH2 0xDAC DUP8 PUSH2 0xA20 JUMP JUMPDEST POP SWAP1 POP PUSH1 0x0 DUP1 PUSH1 0x0 PUSH2 0xDBD DUP11 PUSH2 0x89F JUMP JUMPDEST SWAP3 POP SWAP3 POP SWAP3 POP PUSH1 0x0 PUSH3 0x15180 DUP4 PUSH2 0xDD4 DUP9 DUP8 PUSH2 0x137D JUMP JUMPDEST MUL DUP2 PUSH2 0xDDC JUMPI INVALID JUMPDEST DIV SWAP1 POP PUSH1 0x0 PUSH2 0xDEA DUP13 PUSH2 0x9E9 JUMP JUMPDEST DUP10 GT ISZERO PUSH2 0xE40 JUMPI PUSH2 0xE37 PUSH32 0x0 PUSH2 0xE29 PUSH2 0xE21 DUP16 PUSH2 0x9E9 JUMP JUMPDEST DUP13 SUB DUP12 PUSH2 0x137D JUMP JUMPDEST DUP2 PUSH2 0xE30 JUMPI INVALID JUMPDEST DIV DUP7 PUSH2 0x137D JUMP JUMPDEST PUSH2 0x16D MUL PUSH2 0xE43 JUMP JUMPDEST PUSH1 0x0 JUMPDEST SWAP1 POP PUSH1 0x0 PUSH2 0xE51 DUP8 DUP10 PUSH2 0x13A6 JUMP JUMPDEST SWAP1 POP PUSH1 0x0 PUSH8 0xDE0B6B3A7640000 DUP3 PUSH10 0x21E19E0C9BAB2400000 PUSH2 0xE7F DUP8 PUSH2 0xE7A PUSH2 0x2710 DUP12 PUSH2 0x1564 JUMP JUMPDEST PUSH2 0x137D JUMP JUMPDEST DUP2 PUSH2 0xE86 JUMPI INVALID JUMPDEST DIV MUL DUP2 PUSH2 0xE8F JUMPI INVALID JUMPDEST DIV SWAP1 POP PUSH8 0xDE0B6B3A7640000 DUP3 PUSH2 0xEB9 PUSH2 0xEA9 DUP7 DUP10 PUSH2 0x137D JUMP JUMPDEST PUSH10 0x21E19E0C9BAB2400000 PUSH2 0x1576 JUMP JUMPDEST MUL DUP2 PUSH2 0xEC1 JUMPI INVALID JUMPDEST DIV SWAP12 POP PUSH2 0xECE DUP13 DUP3 PUSH2 0x15A5 JUMP JUMPDEST SWAP13 POP POP POP POP POP POP POP POP POP POP POP POP SWAP2 POP SWAP2 JUMP JUMPDEST PUSH1 0x1 SLOAD PUSH1 0x1 PUSH1 0x1 PUSH1 0xA0 SHL SUB AND CALLER EQ PUSH2 0xF3F JUMPI PUSH1 0x40 DUP1 MLOAD PUSH3 0x461BCD PUSH1 0xE5 SHL DUP2 MSTORE PUSH1 0x20 PUSH1 0x4 DUP3 ADD MSTORE PUSH1 0x1E PUSH1 0x24 DUP3 ADD MSTORE PUSH32 0x43414C4C45525F4E4F545F5249474F424C4F434B5F44414F5F4552524F520000 PUSH1 0x44 DUP3 ADD MSTORE SWAP1 MLOAD SWAP1 DUP2 SWAP1 SUB PUSH1 0x64 ADD SWAP1 REVERT JUMPDEST JUMP JUMPDEST EXTCODESIZE ISZERO ISZERO SWAP1 JUMP JUMPDEST CALLER PUSH1 0x1 PUSH1 0x1 PUSH1 0xA0 SHL SUB DUP3 AND EQ PUSH2 0x7D6 JUMPI PUSH1 0x40 MLOAD PUSH3 0x461BCD PUSH1 0xE5 SHL DUP2 MSTORE PUSH1 0x4 ADD DUP1 DUP1 PUSH1 0x20 ADD DUP3 DUP2 SUB DUP3 MSTORE PUSH1 0x27 DUP2 MSTORE PUSH1 0x20 ADD DUP1 PUSH2 0x169D PUSH1 0x27 SWAP2 CODECOPY PUSH1 0x40 ADD SWAP2 POP POP PUSH1 0x40 MLOAD DUP1 SWAP2 SUB SWAP1 REVERT JUMPDEST PUSH1 0x0 DUP2 DUP2 MSTORE PUSH1 0x4 PUSH1 0x20 MSTORE PUSH1 0x40 SWAP1 KECCAK256 SLOAD PUSH2 0x7D6 JUMPI PUSH1 0x0 SWAP1 DUP2 MSTORE PUSH1 0x4 PUSH1 0x20 MSTORE PUSH1 0x40 SWAP1 KECCAK256 PUSH8 0xDE0B6B3A7640000 SWAP1 SSTORE JUMP JUMPDEST PUSH1 0x0 DUP2 DUP2 MSTORE PUSH1 0x4 PUSH1 0x20 MSTORE PUSH1 0x40 SWAP1 KECCAK256 SLOAD DUP3 GT ISZERO PUSH2 0xFE4 JUMPI PUSH1 0x0 DUP2 DUP2 MSTORE PUSH1 0x4 PUSH1 0x20 MSTORE PUSH1 0x40 SWAP1 KECCAK256 DUP3 SWAP1 SSTORE JUMPDEST POP POP JUMP JUMPDEST PUSH1 0x0 DUP1 SLOAD PUSH1 0x40 DUP1 MLOAD PUSH4 0x309DFC6B PUSH1 0xE2 SHL DUP2 MSTORE PUSH1 0x4 DUP2 ADD DUP6 SWAP1 MSTORE SWAP1 MLOAD DUP4 SWAP3 PUSH1 0x1 PUSH1 0x1 PUSH1 0xA0 SHL SUB AND SWAP2 PUSH4 0xC277F1AC SWAP2 PUSH1 0x24 DUP1 DUP4 ADD SWAP3 DUP7 SWAP3 SWAP2 SWAP1 DUP3 SWAP1 SUB ADD DUP2 DUP7 DUP1 EXTCODESIZE ISZERO DUP1 ISZERO PUSH2 0x1033 JUMPI PUSH1 0x0 DUP1 REVERT JUMPDEST POP GAS STATICCALL ISZERO DUP1 ISZERO PUSH2 0x1047 JUMPI RETURNDATASIZE PUSH1 0x0 DUP1 RETURNDATACOPY RETURNDATASIZE PUSH1 0x0 REVERT JUMPDEST POP POP POP POP PUSH1 0x40 MLOAD RETURNDATASIZE PUSH1 0x0 DUP3 RETURNDATACOPY PUSH1 0x1F RETURNDATASIZE SWAP1 DUP2 ADD PUSH1 0x1F NOT AND DUP3 ADD PUSH1 0x40 MSTORE PUSH1 0xC0 DUP2 LT ISZERO PUSH2 0x1070 JUMPI PUSH1 0x0 DUP1 REVERT JUMPDEST DUP2 MLOAD PUSH1 0x20 DUP4 ADD DUP1 MLOAD PUSH1 0x40 MLOAD SWAP3 SWAP5 SWAP3 SWAP4 DUP4 ADD SWAP3 SWAP2 SWAP1 DUP5 PUSH1 0x1 PUSH1 0x20 SHL DUP3 GT ISZERO PUSH2 0x1096 JUMPI PUSH1 0x0 DUP1 REVERT JUMPDEST SWAP1 DUP4 ADD SWAP1 PUSH1 0x20 DUP3 ADD DUP6 DUP2 GT ISZERO PUSH2 0x10AB JUMPI PUSH1 0x0 DUP1 REVERT JUMPDEST DUP3 MLOAD PUSH1 0x1 PUSH1 0x20 SHL DUP2 GT DUP3 DUP3 ADD DUP9 LT OR ISZERO PUSH2 0x10C4 JUMPI PUSH1 0x0 DUP1 REVERT JUMPDEST DUP3 MSTORE POP DUP2 MLOAD PUSH1 0x20 SWAP2 DUP3 ADD SWAP3 SWAP1 SWAP2 ADD SWAP1 DUP1 DUP4 DUP4 PUSH1 0x0 JUMPDEST DUP4 DUP2 LT ISZERO PUSH2 0x10F1 JUMPI DUP2 DUP2 ADD MLOAD DUP4 DUP3 ADD MSTORE PUSH1 0x20 ADD PUSH2 0x10D9 JUMP JUMPDEST POP POP POP POP SWAP1 POP SWAP1 DUP2 ADD SWAP1 PUSH1 0x1F AND DUP1 ISZERO PUSH2 0x111E JUMPI DUP1 DUP3 SUB DUP1 MLOAD PUSH1 0x1 DUP4 PUSH1 0x20 SUB PUSH2 0x100 EXP SUB NOT AND DUP2 MSTORE PUSH1 0x20 ADD SWAP2 POP JUMPDEST POP PUSH1 0x40 MSTORE PUSH1 0x20 ADD DUP1 MLOAD PUSH1 0x40 MLOAD SWAP4 SWAP3 SWAP2 SWAP1 DUP5 PUSH1 0x1 PUSH1 0x20 SHL DUP3 GT ISZERO PUSH2 0x1140 JUMPI PUSH1 0x0 DUP1 REVERT JUMPDEST SWAP1 DUP4 ADD SWAP1 PUSH1 0x20 DUP3 ADD DUP6 DUP2 GT ISZERO PUSH2 0x1155 JUMPI PUSH1 0x0 DUP1 REVERT JUMPDEST DUP3 MLOAD PUSH1 0x1 PUSH1 0x20 SHL DUP2 GT DUP3 DUP3 ADD DUP9 LT OR ISZERO PUSH2 0x116E JUMPI PUSH1 0x0 DUP1 REVERT JUMPDEST DUP3 MSTORE POP DUP2 MLOAD PUSH1 0x20 SWAP2 DUP3 ADD SWAP3 SWAP1 SWAP2 ADD SWAP1 DUP1 DUP4 DUP4 PUSH1 0x0 JUMPDEST DUP4 DUP2 LT ISZERO PUSH2 0x119B JUMPI DUP2 DUP2 ADD MLOAD DUP4 DUP3 ADD MSTORE PUSH1 0x20 ADD PUSH2 0x1183 JUMP JUMPDEST POP POP POP POP SWAP1 POP SWAP1 DUP2 ADD SWAP1 PUSH1 0x1F AND DUP1 ISZERO PUSH2 0x11C8 JUMPI DUP1 DUP3 SUB DUP1 MLOAD PUSH1 0x1 DUP4 PUSH1 0x20 SUB PUSH2 0x100 EXP SUB NOT AND DUP2 MSTORE PUSH1 0x20 ADD SWAP2 POP JUMPDEST POP PUSH1 0x40 MSTORE POP SWAP4 SWAP5 POP POP POP PUSH1 0x1 PUSH1 0x1 PUSH1 0xA0 SHL SUB DUP4 AND ISZERO SWAP2 POP PUSH2 0x11EF SWAP1 POP JUMPI PUSH1 0x1 SWAP2 POP POP PUSH2 0x42C JUMP JUMPDEST PUSH1 0x0 SWAP2 POP POP PUSH2 0x42C JUMP JUMPDEST PUSH1 0x2 SLOAD PUSH1 0x40 DUP1 MLOAD PUSH4 0x6E5BD1F PUSH1 0xE5 SHL DUP2 MSTORE PUSH1 0x1 PUSH1 0x1 PUSH1 0xA0 SHL SUB DUP5 DUP2 AND PUSH1 0x4 DUP4 ADD MSTORE SWAP2 MLOAD SWAP2 SWAP1 SWAP3 AND SWAP2 PUSH4 0xDCB7A3E0 SWAP2 PUSH1 0x24 DUP1 DUP4 ADD SWAP3 PUSH1 0x20 SWAP3 SWAP2 SWAP1 DUP3 SWAP1 SUB ADD DUP2 DUP7 DUP1 EXTCODESIZE ISZERO DUP1 ISZERO PUSH2 0x1246 JUMPI PUSH1 0x0 DUP1 REVERT JUMPDEST POP GAS STATICCALL ISZERO DUP1 ISZERO PUSH2 0x125A JUMPI RETURNDATASIZE PUSH1 0x0 DUP1 RETURNDATACOPY RETURNDATASIZE PUSH1 0x0 REVERT JUMPDEST POP POP POP POP PUSH1 0x40 MLOAD RETURNDATASIZE PUSH1 0x20 DUP2 LT ISZERO PUSH2 0x1270 JUMPI PUSH1 0x0 DUP1 REVERT JUMPDEST POP MLOAD PUSH2 0x7D6 JUMPI PUSH1 0x40 DUP1 MLOAD PUSH3 0x461BCD PUSH1 0xE5 SHL DUP2 MSTORE PUSH1 0x20 PUSH1 0x4 DUP3 ADD MSTORE PUSH1 0x1C PUSH1 0x24 DUP3 ADD MSTORE PUSH32 0x4E4F545F415050524F5645445F415554484F524954595F4552524F5200000000 PUSH1 0x44 DUP3 ADD MSTORE SWAP1 MLOAD SWAP1 DUP2 SWAP1 SUB PUSH1 0x64 ADD SWAP1 REVERT JUMPDEST PUSH2 0x2710 DUP3 GT ISZERO PUSH2 0x1310 JUMPI PUSH1 0x40 DUP1 MLOAD PUSH3 0x461BCD PUSH1 0xE5 SHL DUP2 MSTORE PUSH1 0x20 PUSH1 0x4 DUP3 ADD MSTORE PUSH1 0x13 PUSH1 0x24 DUP3 ADD MSTORE PUSH19 0x2A27A7AFA124A3AFA920AA24A7AFA2A92927A9 PUSH1 0x69 SHL PUSH1 0x44 DUP3 ADD MSTORE SWAP1 MLOAD SWAP1 DUP2 SWAP1 SUB PUSH1 0x64 ADD SWAP1 REVERT JUMPDEST PUSH5 0xE8D4A51000 DUP2 LT DUP1 PUSH2 0x132B JUMPI POP PUSH9 0x3635C9ADC5DEA00000 DUP2 GT JUMPDEST ISZERO PUSH2 0xFE4 JUMPI PUSH1 0x40 DUP1 MLOAD PUSH3 0x461BCD PUSH1 0xE5 SHL DUP2 MSTORE PUSH1 0x20 PUSH1 0x4 DUP3 ADD MSTORE PUSH1 0x1E PUSH1 0x24 DUP3 ADD MSTORE PUSH32 0x494E56414C49445F494E464C4154494F4E5F464143544F525F4552524F520000 PUSH1 0x44 DUP3 ADD MSTORE SWAP1 MLOAD SWAP1 DUP2 SWAP1 SUB PUSH1 0x64 ADD SWAP1 REVERT JUMPDEST PUSH1 0x0 DUP3 DUP3 MUL DUP4 ISZERO DUP1 PUSH2 0x1397 JUMPI POP DUP3 DUP5 DUP3 DUP2 PUSH2 0x1394 JUMPI INVALID JUMPDEST DIV EQ JUMPDEST PUSH2 0x139D JUMPI INVALID JUMPDEST SWAP1 POP JUMPDEST SWAP3 SWAP2 POP POP JUMP JUMPDEST PUSH1 0x0 PUSH1 0x1 PUSH1 0x1 PUSH1 0xA0 SHL SUB DUP4 AND BALANCE PUSH2 0x13BD DUP2 DUP5 PUSH2 0x15BF JUMP JUMPDEST DUP3 PUSH2 0x320 MUL DUP2 PUSH2 0x3E8 MUL LT PUSH2 0x13DD JUMPI PUSH8 0xDE0B6B3A7640000 SWAP2 POP POP PUSH2 0x13A0 JUMP JUMPDEST DUP3 PUSH2 0x258 MUL DUP2 PUSH2 0x3E8 MUL LT PUSH2 0x13FD JUMPI PUSH8 0xD163580F7318000 SWAP2 POP POP PUSH2 0x13A0 JUMP JUMPDEST DUP3 PUSH2 0x1F4 MUL DUP2 PUSH2 0x3E8 MUL LT PUSH2 0x141D JUMPI PUSH8 0xC39F0D50F1E8000 SWAP2 POP POP PUSH2 0x13A0 JUMP JUMPDEST DUP3 PUSH2 0x190 MUL DUP2 PUSH2 0x3E8 MUL LT PUSH2 0x143D JUMPI PUSH8 0xAAC096CF8468000 SWAP2 POP POP PUSH2 0x13A0 JUMP JUMPDEST DUP3 PUSH2 0x12C MUL DUP2 PUSH2 0x3E8 MUL LT PUSH2 0x145D JUMPI PUSH8 0x85013538C758000 SWAP2 POP POP PUSH2 0x13A0 JUMP JUMPDEST DUP3 PUSH1 0xC8 MUL DUP2 PUSH2 0x3E8 MUL LT PUSH2 0x147C JUMPI PUSH8 0x590A3601AEE8000 SWAP2 POP POP PUSH2 0x13A0 JUMP JUMPDEST DUP3 PUSH1 0x64 MUL DUP2 PUSH2 0x3E8 MUL LT PUSH2 0x149B JUMPI PUSH8 0x334AD46AF1D8000 SWAP2 POP POP PUSH2 0x13A0 JUMP JUMPDEST DUP3 PUSH1 0x4B MUL DUP2 PUSH2 0x3E8 MUL LT PUSH2 0x14BA JUMPI PUSH8 0x2BF6FF371870000 SWAP2 POP POP PUSH2 0x13A0 JUMP JUMPDEST DUP3 PUSH1 0x32 MUL DUP2 PUSH2 0x3E8 MUL LT PUSH2 0x14D9 JUMPI PUSH8 0x254DB1C22440000 SWAP2 POP POP PUSH2 0x13A0 JUMP JUMPDEST DUP3 PUSH1 0x26 MUL DUP2 PUSH2 0x3E8 MUL LT PUSH2 0x14F8 JUMPI PUSH8 0x226ABADC42F8000 SWAP2 POP POP PUSH2 0x13A0 JUMP JUMPDEST DUP3 PUSH1 0x19 MUL DUP2 PUSH2 0x3E8 MUL LT PUSH2 0x1517 JUMPI PUSH8 0x1F87C3F661B0000 SWAP2 POP POP PUSH2 0x13A0 JUMP JUMPDEST PUSH1 0x40 DUP1 MLOAD PUSH3 0x461BCD PUSH1 0xE5 SHL DUP2 MSTORE PUSH1 0x20 PUSH1 0x4 DUP3 ADD MSTORE PUSH1 0x1F PUSH1 0x24 DUP3 ADD MSTORE PUSH32 0x4554485F42454C4F575F322E355F50455243454E545F41554D5F4552524F5200 PUSH1 0x44 DUP3 ADD MSTORE SWAP1 MLOAD SWAP1 DUP2 SWAP1 SUB PUSH1 0x64 ADD SWAP1 REVERT JUMPDEST PUSH1 0x0 DUP3 DUP3 GT ISZERO PUSH2 0x1570 JUMPI INVALID JUMPDEST POP SWAP1 SUB SWAP1 JUMP JUMPDEST PUSH1 0x0 DUP1 DUP3 GT PUSH2 0x1581 JUMPI INVALID JUMPDEST PUSH1 0x0 DUP3 DUP5 DUP2 PUSH2 0x158C JUMPI INVALID JUMPDEST DIV SWAP1 POP DUP3 DUP5 DUP2 PUSH2 0x1598 JUMPI INVALID JUMPDEST MOD DUP2 DUP5 MUL ADD DUP5 EQ PUSH2 0x139D JUMPI INVALID JUMPDEST PUSH1 0x0 DUP3 DUP3 ADD DUP4 DUP2 LT DUP1 ISZERO SWAP1 PUSH2 0x1397 JUMPI POP DUP3 DUP2 LT ISZERO PUSH2 0x139D JUMPI INVALID JUMPDEST DUP1 DUP3 GT ISZERO PUSH2 0x160A JUMPI PUSH1 0x40 DUP1 MLOAD PUSH3 0x461BCD PUSH1 0xE5 SHL DUP2 MSTORE PUSH1 0x20 PUSH1 0x4 DUP3 ADD MSTORE PUSH1 0x13 PUSH1 0x24 DUP3 ADD MSTORE PUSH19 0x22AA242FA0A127AB22AFA0AAA6AFA2A92927A9 PUSH1 0x69 SHL PUSH1 0x44 DUP3 ADD MSTORE SWAP1 MLOAD SWAP1 DUP2 SWAP1 SUB PUSH1 0x64 ADD SWAP1 REVERT JUMPDEST PUSH7 0x38D7EA4C68000 DUP3 LT DUP1 PUSH2 0x1625 JUMPI POP PUSH7 0x2386F26FC10000 DUP2 LT JUMPDEST ISZERO PUSH2 0xFE4 JUMPI PUSH1 0x40 DUP1 MLOAD PUSH3 0x461BCD PUSH1 0xE5 SHL DUP2 MSTORE PUSH1 0x20 PUSH1 0x4 DUP3 ADD MSTORE PUSH1 0x1A PUSH1 0x24 DUP3 ADD MSTORE PUSH32 0x504F4F4C5F4F525F42414C414E43455F445553545F4552524F52000000000000 PUSH1 0x44 DUP3 ADD MSTORE SWAP1 MLOAD SWAP1 DUP2 SWAP1 SUB PUSH1 0x64 ADD SWAP1 REVERT INVALID POP 0x4F 0x4F 0x4C 0x5F POP MSTORE 0x49 NUMBER GASLIMIT 0x5F 0x4F MSTORE 0x5F SLOAD 0x4F SLOAD COINBASE 0x4C 0x5F MSTORE8 SSTORE POP POP 0x4C MSIZE 0x5F 0x4E SSTORE 0x4C 0x4C 0x5F GASLIMIT MSTORE MSTORE 0x4F MSTORE MSTORE8 0x4D COINBASE MSTORE SLOAD 0x5F NUMBER 0x4F 0x4E SLOAD MSTORE COINBASE NUMBER SLOAD 0x5F NUMBER COINBASE 0x4C 0x4C GASLIMIT MSTORE 0x5F 0x49 MSTORE8 0x5F 0x4E 0x4F SLOAD 0x5F POP 0x4F 0x4F 0x4C 0x5F GASLIMIT MSTORE MSTORE 0x4F MSTORE LOG2 PUSH5 0x6970667358 0x22 SLT KECCAK256 MSTORE8 0xE1 0xCE 0xD4 0x2A 0xCC 0xF7 CALLDATALOAD 0xAF 0x26 SHL PUSH8 0xABE783514AAE4E41 0x2B PUSH18 0x167F4CB64005CD2182DF64736F6C63430007 DIV STOP CALLER "
		},
		"gasEstimates": {
			"creation": {
				"codeDepositCost": "1176200",
				"executionCost": "infinite",
				"totalCost": "infinite"
			},
			"external": {
				"addressFromId(uint256)": "infinite",
				"authorityAddress()": "1060",
				"calcPoolValue(uint256)": "infinite",
				"creditPopRewardToStakingProxy(uint256)": "infinite",
				"dragoRegistryAddress()": "1061",
				"getHwm(uint256)": "infinite",
				"getPoolData(uint256)": "infinite",
				"getPoolPrice(uint256)": "infinite",
				"getRewardParameters(uint256)": "infinite",
				"groupByAddress(address)": "2009",
				"isActive(uint256)": "infinite",
				"proofOfPerformance(uint256)": "infinite",
				"rigoblockDaoAddress()": "1082",
				"setAuthority(address)": "22026",
				"setGroupParams(address,uint256,uint256)": "infinite",
				"setRegistry(address)": "21981",
				"setRigoblockDao(address)": "22003"
			},
			"internal": {
				"_addressFromIdInternal(uint256)": "infinite",
				"_assertCallerIsRigoblockDao()": "infinite",
				"_assertContractIsPool(address)": "infinite",
				"_assertIsApprovedFactory(address)": "infinite",
				"_assertPoolEthBalanceAndValueValid(uint256,uint256)": "infinite",
				"_assertValidGroupParams(uint256,uint256)": "infinite",
				"_ethBalanceAdjustmentInternal(address,uint256)": "infinite",
				"_getHwmInternal(uint256)": "1789",
				"_getPoolPriceAndValueInternal(uint256)": "infinite",
				"_initializeHwmIfUninitialized(uint256)": "20972",
				"_isActiveInternal(uint256)": "infinite",
				"_isContract(address)": "718",
				"_proofOfPerformanceInternal(uint256)": "infinite",
				"_updateHwmIfPositivePerformance(uint256,uint256)": "20986"
			}
		},
		"methodIdentifiers": {
			"addressFromId(uint256)": "360dafa0",
			"authorityAddress()": "3c695d4e",
			"calcPoolValue(uint256)": "427fdc0c",
			"creditPopRewardToStakingProxy(uint256)": "7d0107cf",
			"dragoRegistryAddress()": "02579677",
			"getHwm(uint256)": "249d9123",
			"getPoolData(uint256)": "d21c87ad",
			"getPoolPrice(uint256)": "9af94f30",
			"getRewardParameters(uint256)": "c1acd1a7",
			"groupByAddress(address)": "02983470",
			"isActive(uint256)": "82afd23b",
			"proofOfPerformance(uint256)": "4d749e43",
			"rigoblockDaoAddress()": "7f8be859",
			"setAuthority(address)": "7a9e5e4b",
			"setGroupParams(address,uint256,uint256)": "83bd6189",
			"setRegistry(address)": "a91ee0dc",
			"setRigoblockDao(address)": "b516e6e1"
		}
	},
	"abi": [
		{
			"inputs": [
				{
					"internalType": "address",
					"name": "_stakingProxyAddress",
					"type": "address"
				},
				{
					"internalType": "address",
					"name": "_rigoblockDao",
					"type": "address"
				},
				{
					"internalType": "address",
					"name": "_dragoRegistry",
					"type": "address"
				},
				{
					"internalType": "address",
					"name": "_authorityAddress",
					"type": "address"
				}
			],
			"stateMutability": "nonpayable",
			"type": "constructor"
		},
		{
			"inputs": [
				{
					"internalType": "uint256",
					"name": "poolId",
					"type": "uint256"
				}
			],
			"name": "addressFromId",
			"outputs": [
				{
					"internalType": "address",
					"name": "pool",
					"type": "address"
				},
				{
					"internalType": "address",
					"name": "group",
					"type": "address"
				}
			],
			"stateMutability": "view",
			"type": "function"
		},
		{
			"inputs": [],
			"name": "authorityAddress",
			"outputs": [
				{
					"internalType": "address",
					"name": "",
					"type": "address"
				}
			],
			"stateMutability": "view",
			"type": "function"
		},
		{
			"inputs": [
				{
					"internalType": "uint256",
					"name": "poolId",
					"type": "uint256"
				}
			],
			"name": "calcPoolValue",
			"outputs": [
				{
					"internalType": "uint256",
					"name": "aum",
					"type": "uint256"
				}
			],
			"stateMutability": "view",
			"type": "function"
		},
		{
			"inputs": [
				{
					"internalType": "uint256",
					"name": "poolId",
					"type": "uint256"
				}
			],
			"name": "creditPopRewardToStakingProxy",
			"outputs": [],
			"stateMutability": "nonpayable",
			"type": "function"
		},
		{
			"inputs": [],
			"name": "dragoRegistryAddress",
			"outputs": [
				{
					"internalType": "address",
					"name": "",
					"type": "address"
				}
			],
			"stateMutability": "view",
			"type": "function"
		},
		{
			"inputs": [
				{
					"internalType": "uint256",
					"name": "poolId",
					"type": "uint256"
				}
			],
			"name": "getHwm",
			"outputs": [
				{
					"internalType": "uint256",
					"name": "",
					"type": "uint256"
				}
			],
			"stateMutability": "view",
			"type": "function"
		},
		{
			"inputs": [
				{
					"internalType": "uint256",
					"name": "poolId",
					"type": "uint256"
				}
			],
			"name": "getPoolData",
			"outputs": [
				{
					"internalType": "bool",
					"name": "active",
					"type": "bool"
				},
				{
					"internalType": "address",
					"name": "poolAddress",
					"type": "address"
				},
				{
					"internalType": "address",
					"name": "poolGroup",
					"type": "address"
				},
				{
					"internalType": "uint256",
					"name": "poolPrice",
					"type": "uint256"
				},
				{
					"internalType": "uint256",
					"name": "poolSupply",
					"type": "uint256"
				},
				{
					"internalType": "uint256",
					"name": "poolValue",
					"type": "uint256"
				},
				{
					"internalType": "uint256",
					"name": "epochReward",
					"type": "uint256"
				},
				{
					"internalType": "uint256",
					"name": "ratio",
					"type": "uint256"
				},
				{
					"internalType": "uint256",
					"name": "pop",
					"type": "uint256"
				}
			],
			"stateMutability": "view",
			"type": "function"
		},
		{
			"inputs": [
				{
					"internalType": "uint256",
					"name": "poolId",
					"type": "uint256"
				}
			],
			"name": "getPoolPrice",
			"outputs": [
				{
					"internalType": "uint256",
					"name": "poolPrice",
					"type": "uint256"
				},
				{
					"internalType": "uint256",
					"name": "totalTokens",
					"type": "uint256"
				}
			],
			"stateMutability": "view",
			"type": "function"
		},
		{
			"inputs": [
				{
					"internalType": "uint256",
					"name": "poolId",
					"type": "uint256"
				}
			],
			"name": "getRewardParameters",
			"outputs": [
				{
					"internalType": "uint256",
					"name": "epochReward",
					"type": "uint256"
				},
				{
					"internalType": "uint256",
					"name": "epochTime",
					"type": "uint256"
				},
				{
					"internalType": "uint256",
					"name": "ratio",
					"type": "uint256"
				}
			],
			"stateMutability": "view",
			"type": "function"
		},
		{
			"inputs": [
				{
					"internalType": "address",
					"name": "",
					"type": "address"
				}
			],
			"name": "groupByAddress",
			"outputs": [
				{
					"internalType": "uint256",
					"name": "epochReward",
					"type": "uint256"
				},
				{
					"internalType": "uint256",
					"name": "rewardRatio",
					"type": "uint256"
				}
			],
			"stateMutability": "view",
			"type": "function"
		},
		{
			"inputs": [
				{
					"internalType": "uint256",
					"name": "poolId",
					"type": "uint256"
				}
			],
			"name": "isActive",
			"outputs": [
				{
					"internalType": "bool",
					"name": "",
					"type": "bool"
				}
			],
			"stateMutability": "view",
			"type": "function"
		},
		{
			"inputs": [
				{
					"internalType": "uint256",
					"name": "poolId",
					"type": "uint256"
				}
			],
			"name": "proofOfPerformance",
			"outputs": [
				{
					"internalType": "uint256",
					"name": "popReward",
					"type": "uint256"
				},
				{
					"internalType": "uint256",
					"name": "performanceReward",
					"type": "uint256"
				}
			],
			"stateMutability": "view",
			"type": "function"
		},
		{
			"inputs": [],
			"name": "rigoblockDaoAddress",
			"outputs": [
				{
					"internalType": "address",
					"name": "",
					"type": "address"
				}
			],
			"stateMutability": "view",
			"type": "function"
		},
		{
			"inputs": [
				{
					"internalType": "address",
					"name": "newAuthorityAddress",
					"type": "address"
				}
			],
			"name": "setAuthority",
			"outputs": [],
			"stateMutability": "nonpayable",
			"type": "function"
		},
		{
			"inputs": [
				{
					"internalType": "address",
					"name": "groupAddress",
					"type": "address"
				},
				{
					"internalType": "uint256",
					"name": "ratio",
					"type": "uint256"
				},
				{
					"internalType": "uint256",
					"name": "inflationFactor",
					"type": "uint256"
				}
			],
			"name": "setGroupParams",
			"outputs": [],
			"stateMutability": "nonpayable",
			"type": "function"
		},
		{
			"inputs": [
				{
					"internalType": "address",
					"name": "newDragoRegistryAddress",
					"type": "address"
				}
			],
			"name": "setRegistry",
			"outputs": [],
			"stateMutability": "nonpayable",
			"type": "function"
		},
		{
			"inputs": [
				{
					"internalType": "address",
					"name": "newRigoblockDaoAddress",
					"type": "address"
				}
			],
			"name": "setRigoblockDao",
			"outputs": [],
			"stateMutability": "nonpayable",
			"type": "function"
		}
	]
}